{"address":"0x4224833F4F81FFF0e9d5c9EBB84e313DfEE53412","bytecode":"0x608060405234801561001057600080fd5b5060016000819055506109e6806100286000396000f3fe608060405234801561001057600080fd5b50600436106100415760003560e01c80637bf212f8146100465780639fd040da14610076578063fde2d9d8146100a9575b600080fd5b610060600480360381019061005b919061055f565b6100c5565b60405161006d91906107ae565b60405180910390f35b610090600480360381019061008b919061055f565b610177565b6040516100a094939291906107c9565b60405180910390f35b6100c360048036038101906100be919061058c565b6101d4565b005b6100cd6104f5565b6001600083815260200190815260200160002060405180608001604052908160008201548152602001600182015481526020016002820160009054906101000a900460ff161515151581526020016002820160019054906101000a900473ffffffffffffffffffffffffffffffffffffffff1673ffffffffffffffffffffffffffffffffffffffff1673ffffffffffffffffffffffffffffffffffffffff16815250509050919050565b60016020528060005260406000206000915090508060000154908060010154908060020160009054906101000a900460ff16908060020160019054906101000a900473ffffffffffffffffffffffffffffffffffffffff16905084565b6002600054141561021a576040517f08c379a00000000000000000000000000000000000000000000000000000000081526004016102119061078e565b60405180910390fd5b60026000819055506000841415610266576040517f08c379a000000000000000000000000000000000000000000000000000000000815260040161025d9061076e565b60405180910390fd5b600073ffffffffffffffffffffffffffffffffffffffff166001600086815260200190815260200160002060020160019054906101000a900473ffffffffffffffffffffffffffffffffffffffff1673ffffffffffffffffffffffffffffffffffffffff16146103df573373ffffffffffffffffffffffffffffffffffffffff166001600086815260200190815260200160002060020160019054906101000a900473ffffffffffffffffffffffffffffffffffffffff1673ffffffffffffffffffffffffffffffffffffffff1614610374576040517f08c379a000000000000000000000000000000000000000000000000000000000815260040161036b9061072e565b60405180910390fd5b600015156001600086815260200190815260200160002060020160009054906101000a900460ff161515146103de576040517f08c379a00000000000000000000000000000000000000000000000000000000081526004016103d59061074e565b60405180910390fd5b5b604051806080016040528084815260200183815260200182151581526020013373ffffffffffffffffffffffffffffffffffffffff1681525060016000868152602001908152602001600020600082015181600001556020820151816001015560408201518160020160006101000a81548160ff02191690831515021790555060608201518160020160016101000a81548173ffffffffffffffffffffffffffffffffffffffff021916908373ffffffffffffffffffffffffffffffffffffffff160217905550905050837ffb2c1b4938e3cf2dc95120a73dce224dfc1108057906403d419bc7a1748f2cd0848484336040516104df94939291906107c9565b60405180910390a2600160008190555050505050565b60405180608001604052806000815260200160008152602001600015158152602001600073ffffffffffffffffffffffffffffffffffffffff1681525090565b60008135905061054481610982565b92915050565b60008135905061055981610999565b92915050565b60006020828403121561057557610574610867565b5b60006105838482850161054a565b91505092915050565b600080600080608085870312156105a6576105a5610867565b5b60006105b48782880161054a565b94505060206105c58782880161054a565b93505060406105d68782880161054a565b92505060606105e787828801610535565b91505092959194509250565b6105fc8161081f565b82525050565b61060b8161081f565b82525050565b61061a81610831565b82525050565b61062981610831565b82525050565b600061063c60288361080e565b91506106478261086c565b604082019050919050565b600061065f60478361080e565b915061066a826108bb565b606082019050919050565b600061068260148361080e565b915061068d82610930565b602082019050919050565b60006106a5601f8361080e565b91506106b082610959565b602082019050919050565b6080820160008201516106d16000850182610710565b5060208201516106e46020850182610710565b5060408201516106f76040850182610611565b50606082015161070a60608501826105f3565b50505050565b6107198161085d565b82525050565b6107288161085d565b82525050565b600060208201905081810360008301526107478161062f565b9050919050565b6000602082019050818103600083015261076781610652565b9050919050565b6000602082019050818103600083015261078781610675565b9050919050565b600060208201905081810360008301526107a781610698565b9050919050565b60006080820190506107c360008301846106bb565b92915050565b60006080820190506107de600083018761071f565b6107eb602083018661071f565b6107f86040830185610620565b6108056060830184610602565b95945050505050565b600082825260208201905092915050565b600061082a8261083d565b9050919050565b60008115159050919050565b600073ffffffffffffffffffffffffffffffffffffffff82169050919050565b6000819050919050565b600080fd5b7f4f6e6c792074686520636f6e646974696f6e2063726561746f722063616e207560008201527f7064617465206974000000000000000000000000000000000000000000000000602082015250565b7f5468697320636f6e646974696f6e207761732073746f7265642077697468207460008201527f6865205065726d616e656e7420666c616720616e642063616e6e6f742062652060208201527f7570646174656400000000000000000000000000000000000000000000000000604082015250565b7f4b6579206d757374206e6f74206265207a65726f000000000000000000000000600082015250565b7f5265656e7472616e637947756172643a207265656e7472616e742063616c6c00600082015250565b61098b81610831565b811461099657600080fd5b50565b6109a28161085d565b81146109ad57600080fd5b5056fea2646970667358221220aebae47e257184877865ea4f592721c03d0113adb6b4f69dbc4fc10a690ba03964736f6c63430008070033","abi":[{"inputs":[],"stateMutability":"nonpayable","type":"constructor"},{"anonymous":false,"inputs":[{"indexed":true,"internalType":"uint256","name":"key","type":"uint256"},{"indexed":false,"internalType":"uint256","name":"value","type":"uint256"},{"indexed":false,"internalType":"uint256","name":"chainId","type":"uint256"},{"indexed":false,"internalType":"bool","name":"permanent","type":"bool"},{"indexed":false,"internalType":"address","name":"creator","type":"address"}],"name":"ConditionStored","type":"event"},{"inputs":[{"internalType":"uint256","name":"key","type":"uint256"}],"name":"getCondition","outputs":[{"components":[{"internalType":"uint256","name":"value","type":"uint256"},{"internalType":"uint256","name":"chainId","type":"uint256"},{"internalType":"bool","name":"permanent","type":"bool"},{"internalType":"address","name":"creator","type":"address"}],"internalType":"struct AccessControlConditions.StoredCondition","name":"","type":"tuple"}],"stateMutability":"view","type":"function"},{"inputs":[{"internalType":"uint256","name":"key","type":"uint256"},{"internalType":"uint256","name":"value","type":"uint256"},{"internalType":"uint256","name":"chainId","type":"uint256"},{"internalType":"bool","name":"permanent","type":"bool"}],"name":"storeCondition","outputs":[],"stateMutability":"nonpayable","type":"function"},{"inputs":[{"internalType":"uint256","name":"","type":"uint256"}],"name":"storedConditions","outputs":[{"internalType":"uint256","name":"value","type":"uint256"},{"internalType":"uint256","name":"chainId","type":"uint256"},{"internalType":"bool","name":"permanent","type":"bool"},{"internalType":"address","name":"creator","type":"address"}],"stateMutability":"view","type":"function"}]}