{"address":"0xC7F319F7cd142dE309680AD0Ff6c5456Fc0C291d","bytecode":"0x608060405234801561001057600080fd5b5061002d61002261007a60201b60201c565b61008260201b60201c565b6001808190555033600360006101000a81548173ffffffffffffffffffffffffffffffffffffffff021916908373ffffffffffffffffffffffffffffffffffffffff160217905550610146565b600033905090565b60008060009054906101000a900473ffffffffffffffffffffffffffffffffffffffff169050816000806101000a81548173ffffffffffffffffffffffffffffffffffffffff021916908373ffffffffffffffffffffffffffffffffffffffff1602179055508173ffffffffffffffffffffffffffffffffffffffff168173ffffffffffffffffffffffffffffffffffffffff167f8be0079c531659141344cd1fd0a4f28419497f9722a3daafe3b4186f6b6457e060405160405180910390a35050565b611290806101556000396000f3fe608060405234801561001057600080fd5b50600436106100935760003560e01c80637bf212f8116100665780637bf212f8146100f85780638da5cb5b146101285780639fd040da14610146578063f2fde38b1461017a578063ff27f2df1461019657610093565b8063238ac933146100985780636c19e783146100b6578063715018a6146100d25780637265434f146100dc575b600080fd5b6100a06101b2565b6040516100ad9190610de3565b60405180910390f35b6100d060048036038101906100cb9190610aa7565b6101d8565b005b6100da610224565b005b6100f660048036038101906100f19190610b7c565b610238565b005b610112600480360381019061010d9190610ad4565b610333565b60405161011f9190610efe565b60405180910390f35b6101306103ef565b60405161013d9190610de3565b60405180910390f35b610160600480360381019061015b9190610ad4565b610418565b604051610171959493929190610f5e565b60405180910390f35b610194600480360381019061018f9190610aa7565b61047b565b005b6101b060048036038101906101ab9190610b01565b6104ff565b005b600360009054906101000a900473ffffffffffffffffffffffffffffffffffffffff1681565b6101e0610569565b80600360006101000a81548173ffffffffffffffffffffffffffffffffffffffff021916908373ffffffffffffffffffffffffffffffffffffffff16021790555050565b61022c610569565b61023660006105e7565b565b6002600154141561027e576040517f08c379a000000000000000000000000000000000000000000000000000000000815260040161027590610ede565b60405180910390fd5b6002600181905550600360009054906101000a900473ffffffffffffffffffffffffffffffffffffffff1673ffffffffffffffffffffffffffffffffffffffff163373ffffffffffffffffffffffffffffffffffffffff1614610316576040517f08c379a000000000000000000000000000000000000000000000000000000000815260040161030d90610e3e565b60405180910390fd5b6103248686868686866106ab565b60018081905550505050505050565b61033b610a21565b600260008381526020019081526020016000206040518060a00160405290816000820154815260200160018201548152602001600282015481526020016003820160009054906101000a900460ff161515151581526020016003820160019054906101000a900473ffffffffffffffffffffffffffffffffffffffff1673ffffffffffffffffffffffffffffffffffffffff1673ffffffffffffffffffffffffffffffffffffffff16815250509050919050565b60008060009054906101000a900473ffffffffffffffffffffffffffffffffffffffff16905090565b60026020528060005260406000206000915090508060000154908060010154908060020154908060030160009054906101000a900460ff16908060030160019054906101000a900473ffffffffffffffffffffffffffffffffffffffff16905085565b610483610569565b600073ffffffffffffffffffffffffffffffffffffffff168173ffffffffffffffffffffffffffffffffffffffff1614156104f3576040517f08c379a00000000000000000000000000000000000000000000000000000000081526004016104ea90610e1e565b60405180910390fd5b6104fc816105e7565b50565b60026001541415610545576040517f08c379a000000000000000000000000000000000000000000000000000000000815260040161053c90610ede565b60405180910390fd5b600260018190555061055b8585858585336106ab565b600180819055505050505050565b610571610a19565b73ffffffffffffffffffffffffffffffffffffffff1661058f6103ef565b73ffffffffffffffffffffffffffffffffffffffff16146105e5576040517f08c379a00000000000000000000000000000000000000000000000000000000081526004016105dc90610e7e565b60405180910390fd5b565b60008060009054906101000a900473ffffffffffffffffffffffffffffffffffffffff169050816000806101000a81548173ffffffffffffffffffffffffffffffffffffffff021916908373ffffffffffffffffffffffffffffffffffffffff1602179055508173ffffffffffffffffffffffffffffffffffffffff168173ffffffffffffffffffffffffffffffffffffffff167f8be0079c531659141344cd1fd0a4f28419497f9722a3daafe3b4186f6b6457e060405160405180910390a35050565b60008614156106ef576040517f08c379a00000000000000000000000000000000000000000000000000000000081526004016106e690610ebe565b60405180910390fd5b600073ffffffffffffffffffffffffffffffffffffffff166002600088815260200190815260200160002060030160019054906101000a900473ffffffffffffffffffffffffffffffffffffffff1673ffffffffffffffffffffffffffffffffffffffff16146108f9578073ffffffffffffffffffffffffffffffffffffffff166002600088815260200190815260200160002060030160019054906101000a900473ffffffffffffffffffffffffffffffffffffffff1673ffffffffffffffffffffffffffffffffffffffff16146107fd576040517f08c379a00000000000000000000000000000000000000000000000000000000081526004016107f490610e5e565b60405180910390fd5b600015156002600088815260200190815260200160002060030160009054906101000a900460ff16151514610867576040517f08c379a000000000000000000000000000000000000000000000000000000000815260040161085e90610e9e565b60405180910390fd5b600360009054906101000a900473ffffffffffffffffffffffffffffffffffffffff1673ffffffffffffffffffffffffffffffffffffffff163373ffffffffffffffffffffffffffffffffffffffff1614156108f8576040517f08c379a00000000000000000000000000000000000000000000000000000000081526004016108ef90610dfe565b60405180910390fd5b5b6040518060a0016040528086815260200185815260200184815260200183151581526020018273ffffffffffffffffffffffffffffffffffffffff168152506002600088815260200190815260200160002060008201518160000155602082015181600101556040820151816002015560608201518160030160006101000a81548160ff02191690831515021790555060808201518160030160016101000a81548173ffffffffffffffffffffffffffffffffffffffff021916908373ffffffffffffffffffffffffffffffffffffffff160217905550905050857ffb2c1b4938e3cf2dc95120a73dce224dfc1108057906403d419bc7a1748f2cd086858585604051610a099493929190610f19565b60405180910390a2505050505050565b600033905090565b6040518060a00160405280600081526020016000815260200160008152602001600015158152602001600073ffffffffffffffffffffffffffffffffffffffff1681525090565b600081359050610a7781611215565b92915050565b600081359050610a8c8161122c565b92915050565b600081359050610aa181611243565b92915050565b600060208284031215610abd57610abc61100a565b5b6000610acb84828501610a68565b91505092915050565b600060208284031215610aea57610ae961100a565b5b6000610af884828501610a92565b91505092915050565b600080600080600060a08688031215610b1d57610b1c61100a565b5b6000610b2b88828901610a92565b9550506020610b3c88828901610a92565b9450506040610b4d88828901610a92565b9350506060610b5e88828901610a92565b9250506080610b6f88828901610a7d565b9150509295509295909350565b60008060008060008060c08789031215610b9957610b9861100a565b5b6000610ba789828a01610a92565b9650506020610bb889828a01610a92565b9550506040610bc989828a01610a92565b9450506060610bda89828a01610a92565b9350506080610beb89828a01610a7d565b92505060a0610bfc89828a01610a68565b9150509295509295509295565b610c1281610fc2565b82525050565b610c2181610fc2565b82525050565b610c3081610fd4565b82525050565b610c3f81610fd4565b82525050565b6000610c52601f83610fb1565b9150610c5d8261100f565b602082019050919050565b6000610c75602683610fb1565b9150610c8082611038565b604082019050919050565b6000610c98602f83610fb1565b9150610ca382611087565b604082019050919050565b6000610cbb602883610fb1565b9150610cc6826110d6565b604082019050919050565b6000610cde602083610fb1565b9150610ce982611125565b602082019050919050565b6000610d01604783610fb1565b9150610d0c8261114e565b606082019050919050565b6000610d24601483610fb1565b9150610d2f826111c3565b602082019050919050565b6000610d47601f83610fb1565b9150610d52826111ec565b602082019050919050565b60a082016000820151610d736000850182610dc5565b506020820151610d866020850182610dc5565b506040820151610d996040850182610dc5565b506060820151610dac6060850182610c27565b506080820151610dbf6080850182610c09565b50505050565b610dce81611000565b82525050565b610ddd81611000565b82525050565b6000602082019050610df86000830184610c18565b92915050565b60006020820190508181036000830152610e1781610c45565b9050919050565b60006020820190508181036000830152610e3781610c68565b9050919050565b60006020820190508181036000830152610e5781610c8b565b9050919050565b60006020820190508181036000830152610e7781610cae565b9050919050565b60006020820190508181036000830152610e9781610cd1565b9050919050565b60006020820190508181036000830152610eb781610cf4565b9050919050565b60006020820190508181036000830152610ed781610d17565b9050919050565b60006020820190508181036000830152610ef781610d3a565b9050919050565b600060a082019050610f136000830184610d5d565b92915050565b6000608082019050610f2e6000830187610dd4565b610f3b6020830186610dd4565b610f486040830185610c36565b610f556060830184610c18565b95945050505050565b600060a082019050610f736000830188610dd4565b610f806020830187610dd4565b610f8d6040830186610dd4565b610f9a6060830185610c36565b610fa76080830184610c18565b9695505050505050565b600082825260208201905092915050565b6000610fcd82610fe0565b9050919050565b60008115159050919050565b600073ffffffffffffffffffffffffffffffffffffffff82169050919050565b6000819050919050565b600080fd5b7f5369676e65722063616e6e6f742075706461746520636f6e646974696f6e7300600082015250565b7f4f776e61626c653a206e6577206f776e657220697320746865207a65726f206160008201527f6464726573730000000000000000000000000000000000000000000000000000602082015250565b7f4f6e6c79207369676e65722063616e2063616c6c2073746f7265436f6e64697460008201527f696f6e73576974685369676e65722e0000000000000000000000000000000000602082015250565b7f4f6e6c792074686520636f6e646974696f6e2063726561746f722063616e207560008201527f7064617465206974000000000000000000000000000000000000000000000000602082015250565b7f4f776e61626c653a2063616c6c6572206973206e6f7420746865206f776e6572600082015250565b7f5468697320636f6e646974696f6e207761732073746f7265642077697468207460008201527f6865205065726d616e656e7420666c616720616e642063616e6e6f742062652060208201527f7570646174656400000000000000000000000000000000000000000000000000604082015250565b7f4b6579206d757374206e6f74206265207a65726f000000000000000000000000600082015250565b7f5265656e7472616e637947756172643a207265656e7472616e742063616c6c00600082015250565b61121e81610fc2565b811461122957600080fd5b50565b61123581610fd4565b811461124057600080fd5b50565b61124c81611000565b811461125757600080fd5b5056fea26469706673582212200936c5357a634fc02994557904ff403bcf27589cd843a8a6b6e8bcfd77361f7064736f6c63430008070033","abi":[{"inputs":[],"stateMutability":"nonpayable","type":"constructor"},{"anonymous":false,"inputs":[{"indexed":true,"internalType":"uint256","name":"key","type":"uint256"},{"indexed":false,"internalType":"uint256","name":"value","type":"uint256"},{"indexed":false,"internalType":"uint256","name":"chainId","type":"uint256"},{"indexed":false,"internalType":"bool","name":"permanent","type":"bool"},{"indexed":false,"internalType":"address","name":"creator","type":"address"}],"name":"ConditionStored","type":"event"},{"anonymous":false,"inputs":[{"indexed":true,"internalType":"address","name":"previousOwner","type":"address"},{"indexed":true,"internalType":"address","name":"newOwner","type":"address"}],"name":"OwnershipTransferred","type":"event"},{"inputs":[{"internalType":"uint256","name":"key","type":"uint256"}],"name":"getCondition","outputs":[{"components":[{"internalType":"uint256","name":"value","type":"uint256"},{"internalType":"uint256","name":"securityHash","type":"uint256"},{"internalType":"uint256","name":"chainId","type":"uint256"},{"internalType":"bool","name":"permanent","type":"bool"},{"internalType":"address","name":"creator","type":"address"}],"internalType":"struct AccessControlConditions.StoredCondition","name":"","type":"tuple"}],"stateMutability":"view","type":"function"},{"inputs":[],"name":"owner","outputs":[{"internalType":"address","name":"","type":"address"}],"stateMutability":"view","type":"function"},{"inputs":[],"name":"renounceOwnership","outputs":[],"stateMutability":"nonpayable","type":"function"},{"inputs":[{"internalType":"address","name":"newSigner","type":"address"}],"name":"setSigner","outputs":[],"stateMutability":"nonpayable","type":"function"},{"inputs":[],"name":"signer","outputs":[{"internalType":"address","name":"","type":"address"}],"stateMutability":"view","type":"function"},{"inputs":[{"internalType":"uint256","name":"key","type":"uint256"},{"internalType":"uint256","name":"value","type":"uint256"},{"internalType":"uint256","name":"securityHash","type":"uint256"},{"internalType":"uint256","name":"chainId","type":"uint256"},{"internalType":"bool","name":"permanent","type":"bool"}],"name":"storeCondition","outputs":[],"stateMutability":"nonpayable","type":"function"},{"inputs":[{"internalType":"uint256","name":"key","type":"uint256"},{"internalType":"uint256","name":"value","type":"uint256"},{"internalType":"uint256","name":"securityHash","type":"uint256"},{"internalType":"uint256","name":"chainId","type":"uint256"},{"internalType":"bool","name":"permanent","type":"bool"},{"internalType":"address","name":"creatorAddress","type":"address"}],"name":"storeConditionWithSigner","outputs":[],"stateMutability":"nonpayable","type":"function"},{"inputs":[{"internalType":"uint256","name":"","type":"uint256"}],"name":"storedConditions","outputs":[{"internalType":"uint256","name":"value","type":"uint256"},{"internalType":"uint256","name":"securityHash","type":"uint256"},{"internalType":"uint256","name":"chainId","type":"uint256"},{"internalType":"bool","name":"permanent","type":"bool"},{"internalType":"address","name":"creator","type":"address"}],"stateMutability":"view","type":"function"},{"inputs":[{"internalType":"address","name":"newOwner","type":"address"}],"name":"transferOwnership","outputs":[],"stateMutability":"nonpayable","type":"function"}]}