{"address":"0xE471936E4fD784180aA52000Da287B6967BEF2df","bytecode":"0x608060405234801561001057600080fd5b5061002d61002261007a60201b60201c565b61008260201b60201c565b6001808190555033600360006101000a81548173ffffffffffffffffffffffffffffffffffffffff021916908373ffffffffffffffffffffffffffffffffffffffff160217905550610146565b600033905090565b60008060009054906101000a900473ffffffffffffffffffffffffffffffffffffffff169050816000806101000a81548173ffffffffffffffffffffffffffffffffffffffff021916908373ffffffffffffffffffffffffffffffffffffffff1602179055508173ffffffffffffffffffffffffffffffffffffffff168173ffffffffffffffffffffffffffffffffffffffff167f8be0079c531659141344cd1fd0a4f28419497f9722a3daafe3b4186f6b6457e060405160405180910390a35050565b61128b806101556000396000f3fe608060405234801561001057600080fd5b50600436106100935760003560e01c80637bf212f8116100665780637bf212f8146100f85780638da5cb5b146101285780639fd040da14610146578063f2fde38b1461017a578063ff27f2df1461019657610093565b8063238ac933146100985780636c19e783146100b6578063715018a6146100d25780637265434f146100dc575b600080fd5b6100a06101b2565b6040516100ad9190610aa4565b60405180910390f35b6100d060048036038101906100cb9190610af0565b6101d8565b005b6100da610224565b005b6100f660048036038101906100f19190610b8b565b610238565b005b610112600480360381019061010d9190610c18565b610332565b60405161011f9190610cda565b60405180910390f35b6101306103ee565b60405161013d9190610aa4565b60405180910390f35b610160600480360381019061015b9190610c18565b610417565b604051610171959493929190610d13565b60405180910390f35b610194600480360381019061018f9190610af0565b61047a565b005b6101b060048036038101906101ab9190610d66565b6104fd565b005b600360009054906101000a900473ffffffffffffffffffffffffffffffffffffffff1681565b6101e0610566565b80600360006101000a81548173ffffffffffffffffffffffffffffffffffffffff021916908373ffffffffffffffffffffffffffffffffffffffff16021790555050565b61022c610566565b61023660006105e4565b565b60026001540361027d576040517f08c379a000000000000000000000000000000000000000000000000000000000815260040161027490610e3e565b60405180910390fd5b6002600181905550600360009054906101000a900473ffffffffffffffffffffffffffffffffffffffff1673ffffffffffffffffffffffffffffffffffffffff163373ffffffffffffffffffffffffffffffffffffffff1614610315576040517f08c379a000000000000000000000000000000000000000000000000000000000815260040161030c90610ed0565b60405180910390fd5b6103238686868686866106a8565b60018081905550505050505050565b61033a610a1c565b600260008381526020019081526020016000206040518060a00160405290816000820154815260200160018201548152602001600282015481526020016003820160009054906101000a900460ff161515151581526020016003820160019054906101000a900473ffffffffffffffffffffffffffffffffffffffff1673ffffffffffffffffffffffffffffffffffffffff1673ffffffffffffffffffffffffffffffffffffffff16815250509050919050565b60008060009054906101000a900473ffffffffffffffffffffffffffffffffffffffff16905090565b60026020528060005260406000206000915090508060000154908060010154908060020154908060030160009054906101000a900460ff16908060030160019054906101000a900473ffffffffffffffffffffffffffffffffffffffff16905085565b610482610566565b600073ffffffffffffffffffffffffffffffffffffffff168173ffffffffffffffffffffffffffffffffffffffff16036104f1576040517f08c379a00000000000000000000000000000000000000000000000000000000081526004016104e890610f62565b60405180910390fd5b6104fa816105e4565b50565b600260015403610542576040517f08c379a000000000000000000000000000000000000000000000000000000000815260040161053990610e3e565b60405180910390fd5b60026001819055506105588585858585336106a8565b600180819055505050505050565b61056e610a14565b73ffffffffffffffffffffffffffffffffffffffff1661058c6103ee565b73ffffffffffffffffffffffffffffffffffffffff16146105e2576040517f08c379a00000000000000000000000000000000000000000000000000000000081526004016105d990610fce565b60405180910390fd5b565b60008060009054906101000a900473ffffffffffffffffffffffffffffffffffffffff169050816000806101000a81548173ffffffffffffffffffffffffffffffffffffffff021916908373ffffffffffffffffffffffffffffffffffffffff1602179055508173ffffffffffffffffffffffffffffffffffffffff168173ffffffffffffffffffffffffffffffffffffffff167f8be0079c531659141344cd1fd0a4f28419497f9722a3daafe3b4186f6b6457e060405160405180910390a35050565b600086036106eb576040517f08c379a00000000000000000000000000000000000000000000000000000000081526004016106e29061103a565b60405180910390fd5b600073ffffffffffffffffffffffffffffffffffffffff166002600088815260200190815260200160002060030160019054906101000a900473ffffffffffffffffffffffffffffffffffffffff1673ffffffffffffffffffffffffffffffffffffffff16146108f4578073ffffffffffffffffffffffffffffffffffffffff166002600088815260200190815260200160002060030160019054906101000a900473ffffffffffffffffffffffffffffffffffffffff1673ffffffffffffffffffffffffffffffffffffffff16146107f9576040517f08c379a00000000000000000000000000000000000000000000000000000000081526004016107f0906110cc565b60405180910390fd5b600015156002600088815260200190815260200160002060030160009054906101000a900460ff16151514610863576040517f08c379a000000000000000000000000000000000000000000000000000000000815260040161085a90611184565b60405180910390fd5b600360009054906101000a900473ffffffffffffffffffffffffffffffffffffffff1673ffffffffffffffffffffffffffffffffffffffff163373ffffffffffffffffffffffffffffffffffffffff16036108f3576040517f08c379a00000000000000000000000000000000000000000000000000000000081526004016108ea906111f0565b60405180910390fd5b5b6040518060a0016040528086815260200185815260200184815260200183151581526020018273ffffffffffffffffffffffffffffffffffffffff168152506002600088815260200190815260200160002060008201518160000155602082015181600101556040820151816002015560608201518160030160006101000a81548160ff02191690831515021790555060808201518160030160016101000a81548173ffffffffffffffffffffffffffffffffffffffff021916908373ffffffffffffffffffffffffffffffffffffffff160217905550905050857ffb2c1b4938e3cf2dc95120a73dce224dfc1108057906403d419bc7a1748f2cd086858585604051610a049493929190611210565b60405180910390a2505050505050565b600033905090565b6040518060a00160405280600081526020016000815260200160008152602001600015158152602001600073ffffffffffffffffffffffffffffffffffffffff1681525090565b600073ffffffffffffffffffffffffffffffffffffffff82169050919050565b6000610a8e82610a63565b9050919050565b610a9e81610a83565b82525050565b6000602082019050610ab96000830184610a95565b92915050565b600080fd5b610acd81610a83565b8114610ad857600080fd5b50565b600081359050610aea81610ac4565b92915050565b600060208284031215610b0657610b05610abf565b5b6000610b1484828501610adb565b91505092915050565b6000819050919050565b610b3081610b1d565b8114610b3b57600080fd5b50565b600081359050610b4d81610b27565b92915050565b60008115159050919050565b610b6881610b53565b8114610b7357600080fd5b50565b600081359050610b8581610b5f565b92915050565b60008060008060008060c08789031215610ba857610ba7610abf565b5b6000610bb689828a01610b3e565b9650506020610bc789828a01610b3e565b9550506040610bd889828a01610b3e565b9450506060610be989828a01610b3e565b9350506080610bfa89828a01610b76565b92505060a0610c0b89828a01610adb565b9150509295509295509295565b600060208284031215610c2e57610c2d610abf565b5b6000610c3c84828501610b3e565b91505092915050565b610c4e81610b1d565b82525050565b610c5d81610b53565b82525050565b610c6c81610a83565b82525050565b60a082016000820151610c886000850182610c45565b506020820151610c9b6020850182610c45565b506040820151610cae6040850182610c45565b506060820151610cc16060850182610c54565b506080820151610cd46080850182610c63565b50505050565b600060a082019050610cef6000830184610c72565b92915050565b610cfe81610b1d565b82525050565b610d0d81610b53565b82525050565b600060a082019050610d286000830188610cf5565b610d356020830187610cf5565b610d426040830186610cf5565b610d4f6060830185610d04565b610d5c6080830184610a95565b9695505050505050565b600080600080600060a08688031215610d8257610d81610abf565b5b6000610d9088828901610b3e565b9550506020610da188828901610b3e565b9450506040610db288828901610b3e565b9350506060610dc388828901610b3e565b9250506080610dd488828901610b76565b9150509295509295909350565b600082825260208201905092915050565b7f5265656e7472616e637947756172643a207265656e7472616e742063616c6c00600082015250565b6000610e28601f83610de1565b9150610e3382610df2565b602082019050919050565b60006020820190508181036000830152610e5781610e1b565b9050919050565b7f4f6e6c79207369676e65722063616e2063616c6c2073746f7265436f6e64697460008201527f696f6e73576974685369676e65722e0000000000000000000000000000000000602082015250565b6000610eba602f83610de1565b9150610ec582610e5e565b604082019050919050565b60006020820190508181036000830152610ee981610ead565b9050919050565b7f4f776e61626c653a206e6577206f776e657220697320746865207a65726f206160008201527f6464726573730000000000000000000000000000000000000000000000000000602082015250565b6000610f4c602683610de1565b9150610f5782610ef0565b604082019050919050565b60006020820190508181036000830152610f7b81610f3f565b9050919050565b7f4f776e61626c653a2063616c6c6572206973206e6f7420746865206f776e6572600082015250565b6000610fb8602083610de1565b9150610fc382610f82565b602082019050919050565b60006020820190508181036000830152610fe781610fab565b9050919050565b7f4b6579206d757374206e6f74206265207a65726f000000000000000000000000600082015250565b6000611024601483610de1565b915061102f82610fee565b602082019050919050565b6000602082019050818103600083015261105381611017565b9050919050565b7f4f6e6c792074686520636f6e646974696f6e2063726561746f722063616e207560008201527f7064617465206974000000000000000000000000000000000000000000000000602082015250565b60006110b6602883610de1565b91506110c18261105a565b604082019050919050565b600060208201905081810360008301526110e5816110a9565b9050919050565b7f5468697320636f6e646974696f6e207761732073746f7265642077697468207460008201527f6865205065726d616e656e7420666c616720616e642063616e6e6f742062652060208201527f7570646174656400000000000000000000000000000000000000000000000000604082015250565b600061116e604783610de1565b9150611179826110ec565b606082019050919050565b6000602082019050818103600083015261119d81611161565b9050919050565b7f5369676e65722063616e6e6f742075706461746520636f6e646974696f6e7300600082015250565b60006111da601f83610de1565b91506111e5826111a4565b602082019050919050565b60006020820190508181036000830152611209816111cd565b9050919050565b60006080820190506112256000830187610cf5565b6112326020830186610cf5565b61123f6040830185610d04565b61124c6060830184610a95565b9594505050505056fea2646970667358221220f62f2b3b00cfc2a246fcb11f228b3824381f3f3ebabe8b21067eabef920cd66764736f6c63430008110033","abi":[{"inputs":[],"stateMutability":"nonpayable","type":"constructor"},{"anonymous":false,"inputs":[{"indexed":true,"internalType":"uint256","name":"key","type":"uint256"},{"indexed":false,"internalType":"uint256","name":"value","type":"uint256"},{"indexed":false,"internalType":"uint256","name":"chainId","type":"uint256"},{"indexed":false,"internalType":"bool","name":"permanent","type":"bool"},{"indexed":false,"internalType":"address","name":"creator","type":"address"}],"name":"ConditionStored","type":"event"},{"anonymous":false,"inputs":[{"indexed":true,"internalType":"address","name":"previousOwner","type":"address"},{"indexed":true,"internalType":"address","name":"newOwner","type":"address"}],"name":"OwnershipTransferred","type":"event"},{"inputs":[{"internalType":"uint256","name":"key","type":"uint256"}],"name":"getCondition","outputs":[{"components":[{"internalType":"uint256","name":"value","type":"uint256"},{"internalType":"uint256","name":"securityHash","type":"uint256"},{"internalType":"uint256","name":"chainId","type":"uint256"},{"internalType":"bool","name":"permanent","type":"bool"},{"internalType":"address","name":"creator","type":"address"}],"internalType":"struct AccessControlConditions.StoredCondition","name":"","type":"tuple"}],"stateMutability":"view","type":"function"},{"inputs":[],"name":"owner","outputs":[{"internalType":"address","name":"","type":"address"}],"stateMutability":"view","type":"function"},{"inputs":[],"name":"renounceOwnership","outputs":[],"stateMutability":"nonpayable","type":"function"},{"inputs":[{"internalType":"address","name":"newSigner","type":"address"}],"name":"setSigner","outputs":[],"stateMutability":"nonpayable","type":"function"},{"inputs":[],"name":"signer","outputs":[{"internalType":"address","name":"","type":"address"}],"stateMutability":"view","type":"function"},{"inputs":[{"internalType":"uint256","name":"key","type":"uint256"},{"internalType":"uint256","name":"value","type":"uint256"},{"internalType":"uint256","name":"securityHash","type":"uint256"},{"internalType":"uint256","name":"chainId","type":"uint256"},{"internalType":"bool","name":"permanent","type":"bool"}],"name":"storeCondition","outputs":[],"stateMutability":"nonpayable","type":"function"},{"inputs":[{"internalType":"uint256","name":"key","type":"uint256"},{"internalType":"uint256","name":"value","type":"uint256"},{"internalType":"uint256","name":"securityHash","type":"uint256"},{"internalType":"uint256","name":"chainId","type":"uint256"},{"internalType":"bool","name":"permanent","type":"bool"},{"internalType":"address","name":"creatorAddress","type":"address"}],"name":"storeConditionWithSigner","outputs":[],"stateMutability":"nonpayable","type":"function"},{"inputs":[{"internalType":"uint256","name":"","type":"uint256"}],"name":"storedConditions","outputs":[{"internalType":"uint256","name":"value","type":"uint256"},{"internalType":"uint256","name":"securityHash","type":"uint256"},{"internalType":"uint256","name":"chainId","type":"uint256"},{"internalType":"bool","name":"permanent","type":"bool"},{"internalType":"address","name":"creator","type":"address"}],"stateMutability":"view","type":"function"},{"inputs":[{"internalType":"address","name":"newOwner","type":"address"}],"name":"transferOwnership","outputs":[],"stateMutability":"nonpayable","type":"function"}]}