{"address":"0xa9c6Bb47389C2f5b03308c3f94574491828658A0","bytecode":"0x608060405234801561001057600080fd5b5061002d61002261003960201b60201c565b61004160201b60201c565b60018081905550610105565b600033905090565b60008060009054906101000a900473ffffffffffffffffffffffffffffffffffffffff169050816000806101000a81548173ffffffffffffffffffffffffffffffffffffffff021916908373ffffffffffffffffffffffffffffffffffffffff1602179055508173ffffffffffffffffffffffffffffffffffffffff168173ffffffffffffffffffffffffffffffffffffffff167f8be0079c531659141344cd1fd0a4f28419497f9722a3daafe3b4186f6b6457e060405160405180910390a35050565b610826806101146000396000f3fe608060405234801561001057600080fd5b506004361061007d5760003560e01c8063865815971161005b57806386581597146100ec5780638767d9aa146101085780638da5cb5b14610124578063f2fde38b146101425761007d565b806352f9753614610082578063715018a6146100b257806378755295146100bc575b600080fd5b61009c6004803603810190610097919061055d565b61015e565b6040516100a991906105a5565b60405180910390f35b6100ba61017e565b005b6100d660048036038101906100d1919061055d565b610192565b6040516100e391906105a5565b60405180910390f35b6101066004803603810190610101919061055d565b6101bc565b005b610122600480360381019061011d919061055d565b610274565b005b61012c61032c565b6040516101399190610601565b60405180910390f35b61015c60048036038101906101579190610648565b610355565b005b60026020528060005260406000206000915054906101000a900460ff1681565b6101866103d8565b6101906000610456565b565b60006002600083815260200190815260200160002060009054906101000a900460ff169050919050565b600260015403610201576040517f08c379a00000000000000000000000000000000000000000000000000000000081526004016101f8906106d2565b60405180910390fd5b60026001819055506102116103d8565b60016002600083815260200190815260200160002060006101000a81548160ff021916908315150217905550807fe4be98886a3c8cd9027fdb44065f6b81514c5cf5a1dab85eb7733beb531580ef60405160405180910390a26001808190555050565b6002600154036102b9576040517f08c379a00000000000000000000000000000000000000000000000000000000081526004016102b0906106d2565b60405180910390fd5b60026001819055506102c96103d8565b60006002600083815260200190815260200160002060006101000a81548160ff021916908315150217905550807fa676ee7eed1b9e9e90c0ce1964919b8a084b891bafa6b778b64571f338c0cd9560405160405180910390a26001808190555050565b60008060009054906101000a900473ffffffffffffffffffffffffffffffffffffffff16905090565b61035d6103d8565b600073ffffffffffffffffffffffffffffffffffffffff168173ffffffffffffffffffffffffffffffffffffffff16036103cc576040517f08c379a00000000000000000000000000000000000000000000000000000000081526004016103c390610764565b60405180910390fd5b6103d581610456565b50565b6103e061051a565b73ffffffffffffffffffffffffffffffffffffffff166103fe61032c565b73ffffffffffffffffffffffffffffffffffffffff1614610454576040517f08c379a000000000000000000000000000000000000000000000000000000000815260040161044b906107d0565b60405180910390fd5b565b60008060009054906101000a900473ffffffffffffffffffffffffffffffffffffffff169050816000806101000a81548173ffffffffffffffffffffffffffffffffffffffff021916908373ffffffffffffffffffffffffffffffffffffffff1602179055508173ffffffffffffffffffffffffffffffffffffffff168173ffffffffffffffffffffffffffffffffffffffff167f8be0079c531659141344cd1fd0a4f28419497f9722a3daafe3b4186f6b6457e060405160405180910390a35050565b600033905090565b600080fd5b6000819050919050565b61053a81610527565b811461054557600080fd5b50565b60008135905061055781610531565b92915050565b60006020828403121561057357610572610522565b5b600061058184828501610548565b91505092915050565b60008115159050919050565b61059f8161058a565b82525050565b60006020820190506105ba6000830184610596565b92915050565b600073ffffffffffffffffffffffffffffffffffffffff82169050919050565b60006105eb826105c0565b9050919050565b6105fb816105e0565b82525050565b600060208201905061061660008301846105f2565b92915050565b610625816105e0565b811461063057600080fd5b50565b6000813590506106428161061c565b92915050565b60006020828403121561065e5761065d610522565b5b600061066c84828501610633565b91505092915050565b600082825260208201905092915050565b7f5265656e7472616e637947756172643a207265656e7472616e742063616c6c00600082015250565b60006106bc601f83610675565b91506106c782610686565b602082019050919050565b600060208201905081810360008301526106eb816106af565b9050919050565b7f4f776e61626c653a206e6577206f776e657220697320746865207a65726f206160008201527f6464726573730000000000000000000000000000000000000000000000000000602082015250565b600061074e602683610675565b9150610759826106f2565b604082019050919050565b6000602082019050818103600083015261077d81610741565b9050919050565b7f4f776e61626c653a2063616c6c6572206973206e6f7420746865206f776e6572600082015250565b60006107ba602083610675565b91506107c582610784565b602082019050919050565b600060208201905081810360008301526107e9816107ad565b905091905056fea26469706673582212207d5862aed4247dbb234886137c9816e9e56cd89739ad6fd4af7a4e275f66bd2b64736f6c63430008110033","abi":[{"inputs":[],"stateMutability":"nonpayable","type":"constructor"},{"anonymous":false,"inputs":[{"indexed":true,"internalType":"bytes32","name":"key","type":"bytes32"}],"name":"ItemAllowed","type":"event"},{"anonymous":false,"inputs":[{"indexed":true,"internalType":"bytes32","name":"key","type":"bytes32"}],"name":"ItemNotAllowed","type":"event"},{"anonymous":false,"inputs":[{"indexed":true,"internalType":"address","name":"previousOwner","type":"address"},{"indexed":true,"internalType":"address","name":"newOwner","type":"address"}],"name":"OwnershipTransferred","type":"event"},{"inputs":[{"internalType":"bytes32","name":"","type":"bytes32"}],"name":"allowedItems","outputs":[{"internalType":"bool","name":"","type":"bool"}],"stateMutability":"view","type":"function"},{"inputs":[{"internalType":"bytes32","name":"key","type":"bytes32"}],"name":"isAllowed","outputs":[{"internalType":"bool","name":"","type":"bool"}],"stateMutability":"view","type":"function"},{"inputs":[],"name":"owner","outputs":[{"internalType":"address","name":"","type":"address"}],"stateMutability":"view","type":"function"},{"inputs":[],"name":"renounceOwnership","outputs":[],"stateMutability":"nonpayable","type":"function"},{"inputs":[{"internalType":"bytes32","name":"key","type":"bytes32"}],"name":"setAllowed","outputs":[],"stateMutability":"nonpayable","type":"function"},{"inputs":[{"internalType":"bytes32","name":"key","type":"bytes32"}],"name":"setNotAllowed","outputs":[],"stateMutability":"nonpayable","type":"function"},{"inputs":[{"internalType":"address","name":"newOwner","type":"address"}],"name":"transferOwnership","outputs":[],"stateMutability":"nonpayable","type":"function"}]}