{"address":"0x9F97bC07C937d10a32f70813e4B4CbfEa9654609","bytecode":"0x608060405234801561001057600080fd5b5061002d61002261005260201b60201c565b61005a60201b60201c565b6001808190555061004c33600361011e60201b6104da1790919060201c565b506101ed565b600033905090565b60008060009054906101000a900473ffffffffffffffffffffffffffffffffffffffff169050816000806101000a81548173ffffffffffffffffffffffffffffffffffffffff021916908373ffffffffffffffffffffffffffffffffffffffff1602179055508173ffffffffffffffffffffffffffffffffffffffff168173ffffffffffffffffffffffffffffffffffffffff167f8be0079c531659141344cd1fd0a4f28419497f9722a3daafe3b4186f6b6457e060405160405180910390a35050565b600061014c836000018373ffffffffffffffffffffffffffffffffffffffff1660001b61015460201b60201c565b905092915050565b600061016683836101ca60201b60201c565b6101bf5782600001829080600181540180825580915050600190039060005260206000200160009091909190915055826000018054905083600101600084815260200190815260200160002081905550600190506101c4565b600090505b92915050565b600080836001016000848152602001908152602001600020541415905092915050565b610c2a806101fc6000396000f3fe608060405234801561001057600080fd5b50600436106100935760003560e01c80637875529511610066578063787552951461010a578063865815971461013a5780638767d9aa146101565780638da5cb5b14610172578063f2fde38b1461019057610093565b80631785f53c1461009857806352f97536146100b457806370480275146100e4578063715018a614610100575b600080fd5b6100b260048036038101906100ad91906108be565b6101ac565b005b6100ce60048036038101906100c99190610921565b61020f565b6040516100db9190610969565b60405180910390f35b6100fe60048036038101906100f991906108be565b61022f565b005b610108610292565b005b610124600480360381019061011f9190610921565b6102a6565b6040516101319190610969565b60405180910390f35b610154600480360381019061014f9190610921565b6102d0565b005b610170600480360381019061016b9190610921565b61037f565b005b61017a61042e565b6040516101879190610993565b60405180910390f35b6101aa60048036038101906101a591906108be565b610457565b005b6101b461050a565b6101c881600361058890919063ffffffff16565b508073ffffffffffffffffffffffffffffffffffffffff167fa3b62bc36326052d97ea62d63c3d60308ed4c3ea8ac079dd8499f1e9c4f80c0f60405160405180910390a250565b60026020528060005260406000206000915054906101000a900460ff1681565b61023761050a565b61024b8160036104da90919063ffffffff16565b508073ffffffffffffffffffffffffffffffffffffffff167f44d6d25963f097ad14f29f06854a01f575648a1ef82f30e562ccd3889717e33960405160405180910390a250565b61029a61050a565b6102a460006105b8565b565b60006002600083815260200190815260200160002060009054906101000a900460ff169050919050565b6102e433600361067c90919063ffffffff16565b610323576040517f08c379a000000000000000000000000000000000000000000000000000000000815260040161031a90610a0b565b60405180910390fd5b60016002600083815260200190815260200160002060006101000a81548160ff021916908315150217905550807fe4be98886a3c8cd9027fdb44065f6b81514c5cf5a1dab85eb7733beb531580ef60405160405180910390a250565b61039333600361067c90919063ffffffff16565b6103d2576040517f08c379a00000000000000000000000000000000000000000000000000000000081526004016103c990610a0b565b60405180910390fd5b60006002600083815260200190815260200160002060006101000a81548160ff021916908315150217905550807fa676ee7eed1b9e9e90c0ce1964919b8a084b891bafa6b778b64571f338c0cd9560405160405180910390a250565b60008060009054906101000a900473ffffffffffffffffffffffffffffffffffffffff16905090565b61045f61050a565b600073ffffffffffffffffffffffffffffffffffffffff168173ffffffffffffffffffffffffffffffffffffffff16036104ce576040517f08c379a00000000000000000000000000000000000000000000000000000000081526004016104c590610a9d565b60405180910390fd5b6104d7816105b8565b50565b6000610502836000018373ffffffffffffffffffffffffffffffffffffffff1660001b6106ac565b905092915050565b61051261071c565b73ffffffffffffffffffffffffffffffffffffffff1661053061042e565b73ffffffffffffffffffffffffffffffffffffffff1614610586576040517f08c379a000000000000000000000000000000000000000000000000000000000815260040161057d90610b09565b60405180910390fd5b565b60006105b0836000018373ffffffffffffffffffffffffffffffffffffffff1660001b610724565b905092915050565b60008060009054906101000a900473ffffffffffffffffffffffffffffffffffffffff169050816000806101000a81548173ffffffffffffffffffffffffffffffffffffffff021916908373ffffffffffffffffffffffffffffffffffffffff1602179055508173ffffffffffffffffffffffffffffffffffffffff168173ffffffffffffffffffffffffffffffffffffffff167f8be0079c531659141344cd1fd0a4f28419497f9722a3daafe3b4186f6b6457e060405160405180910390a35050565b60006106a4836000018373ffffffffffffffffffffffffffffffffffffffff1660001b610838565b905092915050565b60006106b88383610838565b610711578260000182908060018154018082558091505060019003906000526020600020016000909190919091505582600001805490508360010160008481526020019081526020016000208190555060019050610716565b600090505b92915050565b600033905090565b6000808360010160008481526020019081526020016000205490506000811461082c5760006001826107569190610b62565b905060006001866000018054905061076e9190610b62565b90508181146107dd57600086600001828154811061078f5761078e610b96565b5b90600052602060002001549050808760000184815481106107b3576107b2610b96565b5b90600052602060002001819055508387600101600083815260200190815260200160002081905550505b856000018054806107f1576107f0610bc5565b5b600190038181906000526020600020016000905590558560010160008681526020019081526020016000206000905560019350505050610832565b60009150505b92915050565b600080836001016000848152602001908152602001600020541415905092915050565b600080fd5b600073ffffffffffffffffffffffffffffffffffffffff82169050919050565b600061088b82610860565b9050919050565b61089b81610880565b81146108a657600080fd5b50565b6000813590506108b881610892565b92915050565b6000602082840312156108d4576108d361085b565b5b60006108e2848285016108a9565b91505092915050565b6000819050919050565b6108fe816108eb565b811461090957600080fd5b50565b60008135905061091b816108f5565b92915050565b6000602082840312156109375761093661085b565b5b60006109458482850161090c565b91505092915050565b60008115159050919050565b6109638161094e565b82525050565b600060208201905061097e600083018461095a565b92915050565b61098d81610880565b82525050565b60006020820190506109a86000830184610984565b92915050565b600082825260208201905092915050565b7f4e6f7420616e2061646d696e0000000000000000000000000000000000000000600082015250565b60006109f5600c836109ae565b9150610a00826109bf565b602082019050919050565b60006020820190508181036000830152610a24816109e8565b9050919050565b7f4f776e61626c653a206e6577206f776e657220697320746865207a65726f206160008201527f6464726573730000000000000000000000000000000000000000000000000000602082015250565b6000610a876026836109ae565b9150610a9282610a2b565b604082019050919050565b60006020820190508181036000830152610ab681610a7a565b9050919050565b7f4f776e61626c653a2063616c6c6572206973206e6f7420746865206f776e6572600082015250565b6000610af36020836109ae565b9150610afe82610abd565b602082019050919050565b60006020820190508181036000830152610b2281610ae6565b9050919050565b6000819050919050565b7f4e487b7100000000000000000000000000000000000000000000000000000000600052601160045260246000fd5b6000610b6d82610b29565b9150610b7883610b29565b9250828203905081811115610b9057610b8f610b33565b5b92915050565b7f4e487b7100000000000000000000000000000000000000000000000000000000600052603260045260246000fd5b7f4e487b7100000000000000000000000000000000000000000000000000000000600052603160045260246000fdfea2646970667358221220782bcee247518d12bbf963f047ecddddf375375724e4a5c743c2facf935b0b9864736f6c63430008110033","abi":[{"inputs":[],"stateMutability":"nonpayable","type":"constructor"},{"anonymous":false,"inputs":[{"indexed":true,"internalType":"address","name":"newAdmin","type":"address"}],"name":"AdminAdded","type":"event"},{"anonymous":false,"inputs":[{"indexed":true,"internalType":"address","name":"newAdmin","type":"address"}],"name":"AdminRemoved","type":"event"},{"anonymous":false,"inputs":[{"indexed":true,"internalType":"bytes32","name":"key","type":"bytes32"}],"name":"ItemAllowed","type":"event"},{"anonymous":false,"inputs":[{"indexed":true,"internalType":"bytes32","name":"key","type":"bytes32"}],"name":"ItemNotAllowed","type":"event"},{"anonymous":false,"inputs":[{"indexed":true,"internalType":"address","name":"previousOwner","type":"address"},{"indexed":true,"internalType":"address","name":"newOwner","type":"address"}],"name":"OwnershipTransferred","type":"event"},{"inputs":[{"internalType":"address","name":"newAdmin","type":"address"}],"name":"addAdmin","outputs":[],"stateMutability":"nonpayable","type":"function"},{"inputs":[{"internalType":"bytes32","name":"","type":"bytes32"}],"name":"allowedItems","outputs":[{"internalType":"bool","name":"","type":"bool"}],"stateMutability":"view","type":"function"},{"inputs":[{"internalType":"bytes32","name":"key","type":"bytes32"}],"name":"isAllowed","outputs":[{"internalType":"bool","name":"","type":"bool"}],"stateMutability":"view","type":"function"},{"inputs":[],"name":"owner","outputs":[{"internalType":"address","name":"","type":"address"}],"stateMutability":"view","type":"function"},{"inputs":[{"internalType":"address","name":"newAdmin","type":"address"}],"name":"removeAdmin","outputs":[],"stateMutability":"nonpayable","type":"function"},{"inputs":[],"name":"renounceOwnership","outputs":[],"stateMutability":"nonpayable","type":"function"},{"inputs":[{"internalType":"bytes32","name":"key","type":"bytes32"}],"name":"setAllowed","outputs":[],"stateMutability":"nonpayable","type":"function"},{"inputs":[{"internalType":"bytes32","name":"key","type":"bytes32"}],"name":"setNotAllowed","outputs":[],"stateMutability":"nonpayable","type":"function"},{"inputs":[{"internalType":"address","name":"newOwner","type":"address"}],"name":"transferOwnership","outputs":[],"stateMutability":"nonpayable","type":"function"}]}