{"address":"0x74E2F46fCC90f0d7648E7268b464cA8C363c3DE9","bytecode":"0x60806040523480156200001157600080fd5b5060405162001f7938038062001f79833981810160405281019062000037919062000358565b620000697fdf8b4c520ffe197c5343c6f5aec59570151ef9a492f2c624fd45ddde6135ec42336200013060201b60201c565b6200009b7fdf8b4c520ffe197c5343c6f5aec59570151ef9a492f2c624fd45ddde6135ec42806200014660201b60201c565b6001806000836002811115620000b657620000b56200038a565b5b6002811115620000cb57620000ca6200038a565b5b815260200190815260200160002060006101000a81548160ff0219169083151502179055507f839ad2743d4062df579edf3818f642b71ee0688a35d6bc4438ef5314cece8015816040516200012191906200040a565b60405180910390a15062000427565b620001428282620001a960201b60201c565b5050565b600062000159836200029a60201b60201c565b905081600080858152602001908152602001600020600101819055508181847fbd79b86ffe0ab8e8776151514217cd7cacd52c909f66475c3af44e129f0b00ff60405160405180910390a4505050565b620001bb8282620002b960201b60201c565b6200029657600160008084815260200190815260200160002060000160008373ffffffffffffffffffffffffffffffffffffffff1673ffffffffffffffffffffffffffffffffffffffff16815260200190815260200160002060006101000a81548160ff0219169083151502179055506200023b6200032360201b60201c565b73ffffffffffffffffffffffffffffffffffffffff168173ffffffffffffffffffffffffffffffffffffffff16837f2f8788117e7eff1d82e926ec794901d17c78024a50270940304540a733656f0d60405160405180910390a45b5050565b6000806000838152602001908152602001600020600101549050919050565b600080600084815260200190815260200160002060000160008373ffffffffffffffffffffffffffffffffffffffff1673ffffffffffffffffffffffffffffffffffffffff16815260200190815260200160002060009054906101000a900460ff16905092915050565b600033905090565b600080fd5b600381106200033e57600080fd5b50565b600081519050620003528162000330565b92915050565b6000602082840312156200037157620003706200032b565b5b6000620003818482850162000341565b91505092915050565b7f4e487b7100000000000000000000000000000000000000000000000000000000600052602160045260246000fd5b60038110620003cd57620003cc6200038a565b5b50565b6000819050620003e082620003b9565b919050565b6000620003f282620003d0565b9050919050565b6200040481620003e5565b82525050565b6000602082019050620004216000830184620003f9565b92915050565b611b4280620004376000396000f3fe608060405234801561001057600080fd5b506004361061018e5760003560e01c806375b238fc116100de578063977a807011610097578063d547741f11610071578063d547741f14610475578063da19ddfb14610491578063df380693146104af578063f8ae93b4146104cd5761018e565b8063977a80701461041b578063a217fddf14610439578063ad1c8a86146104575761018e565b806375b238fc146103455780637cadf69f146103635780638deb3893146103815780638e8dfd161461039d5780639072f838146103cd57806391d14854146103eb5761018e565b80632f2ff15d1161014b57806350673a5a1161012557806350673a5a146102d357806351ad0a80146102f1578063704b6c021461030d57806374bc8139146103295761018e565b80632f2ff15d1461026b57806336568abe146102875780633ebf7985146102a35761018e565b806301ffc9a71461019357806316f76bbf146101c3578063248a9ca3146101e15780632668f305146102115780632c0b8bf71461022f5780632e4885e81461024d575b600080fd5b6101ad60048036038101906101a891906112f3565b6104eb565b6040516101ba919061133b565b60405180910390f35b6101cb610565565b6040516101d8919061136f565b60405180910390f35b6101fb60048036038101906101f691906113b6565b610589565b604051610208919061136f565b60405180910390f35b6102196105a8565b604051610226919061136f565b60405180910390f35b6102376105cc565b604051610244919061136f565b60405180910390f35b6102556105f0565b604051610262919061136f565b60405180910390f35b61028560048036038101906102809190611441565b610614565b005b6102a1600480360381019061029c9190611441565b610635565b005b6102bd60048036038101906102b891906114a6565b6106b8565b6040516102ca91906114f5565b60405180910390f35b6102db6106fa565b6040516102e8919061136f565b60405180910390f35b61030b60048036038101906103069190611510565b61071e565b005b61032760048036038101906103229190611563565b6108d0565b005b610343600480360381019061033e9190611590565b610987565b005b61034d610a70565b60405161035a919061136f565b60405180910390f35b61036b610a94565b604051610378919061136f565b60405180910390f35b61039b60048036038101906103969190611590565b610ab8565b005b6103b760048036038101906103b291906114a6565b610b99565b6040516103c491906114f5565b60405180910390f35b6103d5610c0c565b6040516103e2919061136f565b60405180910390f35b61040560048036038101906104009190611441565b610c30565b604051610412919061133b565b60405180910390f35b610423610c9a565b604051610430919061136f565b60405180910390f35b610441610cbe565b60405161044e919061136f565b60405180910390f35b61045f610cc5565b60405161046c919061136f565b60405180910390f35b61048f600480360381019061048a9190611441565b610ce9565b005b610499610d0a565b6040516104a6919061136f565b60405180910390f35b6104b7610d2e565b6040516104c4919061136f565b60405180910390f35b6104d5610d52565b6040516104e2919061136f565b60405180910390f35b60007f7965db0b000000000000000000000000000000000000000000000000000000007bffffffffffffffffffffffffffffffffffffffffffffffffffffffff1916827bffffffffffffffffffffffffffffffffffffffffffffffffffffffff1916148061055e575061055d82610d76565b5b9050919050565b7ff14f431dadc82e7dbc5e379f71234e5735c9187e4327a7c6ac014d55d1b7727a81565b6000806000838152602001908152602001600020600101549050919050565b7fb1f79813bc7630a52ae948bc99781397e409d0dd3521953bf7d8d7a2db6147f781565b7fb7b4fde9944d3c13e9a78835431c33a5084d90a7f0c73def76d7886315fe87b081565b7fb931b2719aeb2a65a5035fa0a190bfdc4c8622ce8cbff7a3d1ab42531fb1a91881565b61061d82610589565b61062681610de0565b6106308383610df4565b505050565b61063d610ed4565b73ffffffffffffffffffffffffffffffffffffffff168173ffffffffffffffffffffffffffffffffffffffff16146106aa576040517f08c379a00000000000000000000000000000000000000000000000000000000081526004016106a190611640565b60405180910390fd5b6106b48282610edc565b5050565b60026020528160005260406000206020528060005260406000206000915091509054906101000a900473ffffffffffffffffffffffffffffffffffffffff1681565b7f6450fc880933ecbac6591cb5b043b20f0f2a1452c46acdd5919b2bdafc37439c81565b6107487fdf8b4c520ffe197c5343c6f5aec59570151ef9a492f2c624fd45ddde6135ec4233610c30565b61077e576040517fc890f84a00000000000000000000000000000000000000000000000000000000815260040160405180910390fd5b600115156001600084600281111561079957610798611660565b5b60028111156107ab576107aa611660565b5b815260200190815260200160002060009054906101000a900460ff16151514610809576040517f08c379a000000000000000000000000000000000000000000000000000000000815260040161080090611701565b60405180910390fd5b8060026000858152602001908152602001600020600084600281111561083257610831611660565b5b600281111561084457610843611660565b5b815260200190815260200160002060006101000a81548173ffffffffffffffffffffffffffffffffffffffff021916908373ffffffffffffffffffffffffffffffffffffffff1602179055507f33f014890f109229bbcf8dd47204c153a2c0ff1c572a61de220d10336530f53d8383836040516108c393929190611769565b60405180910390a1505050565b6108fa7fdf8b4c520ffe197c5343c6f5aec59570151ef9a492f2c624fd45ddde6135ec4233610c30565b610930576040517fc890f84a00000000000000000000000000000000000000000000000000000000815260040160405180910390fd5b61095a7fdf8b4c520ffe197c5343c6f5aec59570151ef9a492f2c624fd45ddde6135ec4282610df4565b6109847fdf8b4c520ffe197c5343c6f5aec59570151ef9a492f2c624fd45ddde6135ec4233610edc565b50565b6109b17fdf8b4c520ffe197c5343c6f5aec59570151ef9a492f2c624fd45ddde6135ec4233610c30565b6109e7576040517fc890f84a00000000000000000000000000000000000000000000000000000000815260040160405180910390fd5b60018060008360028111156109ff576109fe611660565b5b6002811115610a1157610a10611660565b5b815260200190815260200160002060006101000a81548160ff0219169083151502179055507f839ad2743d4062df579edf3818f642b71ee0688a35d6bc4438ef5314cece801581604051610a6591906117a0565b60405180910390a150565b7fdf8b4c520ffe197c5343c6f5aec59570151ef9a492f2c624fd45ddde6135ec4281565b7f74845de37cfabd357633214b47fa91ccd19b05b7c5a08ac22c187f811fb62bca81565b610ae27fdf8b4c520ffe197c5343c6f5aec59570151ef9a492f2c624fd45ddde6135ec4233610c30565b610b18576040517fc890f84a00000000000000000000000000000000000000000000000000000000815260040160405180910390fd5b60016000826002811115610b2f57610b2e611660565b5b6002811115610b4157610b40611660565b5b815260200190815260200160002060006101000a81549060ff02191690557f3f178f17dae6caf8ca09c4857502baf7744e8597de42d6596476fe9e06b8ad4781604051610b8e91906117a0565b60405180910390a150565b6000600260008481526020019081526020016000206000836002811115610bc357610bc2611660565b5b6002811115610bd557610bd4611660565b5b815260200190815260200160002060009054906101000a900473ffffffffffffffffffffffffffffffffffffffff16905092915050565b7f54953c23068b8fc4c0736301b50f10027d6b469327de1fd42841a5072b1bcebe81565b600080600084815260200190815260200160002060000160008373ffffffffffffffffffffffffffffffffffffffff1673ffffffffffffffffffffffffffffffffffffffff16815260200190815260200160002060009054906101000a900460ff16905092915050565b7f27d764ea2a4a3865434bbf4a391110149644be31448f3479fd15b4438875576581565b6000801b81565b7f3a68dbfd8bbb64015c42bc131c388dea7965e28c1004d09b39f59500c3a763ec81565b610cf282610589565b610cfb81610de0565b610d058383610edc565b505050565b7f080909c18c958ce5a2d36481697824e477319323d03154ceba3b78f28a61887b81565b7fb4bf999b68d8085dbbf7a0ec2f5a2d660873935bdf1ed08eb421ac6dcbc0036281565b7fdd5b9b8a5e8e01f2962ed7e983d58fe32e1f66aa88dd7ab30770fa9b77da724381565b60007f01ffc9a7000000000000000000000000000000000000000000000000000000007bffffffffffffffffffffffffffffffffffffffffffffffffffffffff1916827bffffffffffffffffffffffffffffffffffffffffffffffffffffffff1916149050919050565b610df181610dec610ed4565b610fbd565b50565b610dfe8282610c30565b610ed057600160008084815260200190815260200160002060000160008373ffffffffffffffffffffffffffffffffffffffff1673ffffffffffffffffffffffffffffffffffffffff16815260200190815260200160002060006101000a81548160ff021916908315150217905550610e75610ed4565b73ffffffffffffffffffffffffffffffffffffffff168173ffffffffffffffffffffffffffffffffffffffff16837f2f8788117e7eff1d82e926ec794901d17c78024a50270940304540a733656f0d60405160405180910390a45b5050565b600033905090565b610ee68282610c30565b15610fb957600080600084815260200190815260200160002060000160008373ffffffffffffffffffffffffffffffffffffffff1673ffffffffffffffffffffffffffffffffffffffff16815260200190815260200160002060006101000a81548160ff021916908315150217905550610f5e610ed4565b73ffffffffffffffffffffffffffffffffffffffff168173ffffffffffffffffffffffffffffffffffffffff16837ff6391f5c32d9c69d2a47ea670b442974b53935d1edc7fd64eb21e047a839171b60405160405180910390a45b5050565b610fc78282610c30565b61105657610fec8173ffffffffffffffffffffffffffffffffffffffff16601461105a565b610ffa8360001c602061105a565b60405160200161100b9291906118c4565b6040516020818303038152906040526040517f08c379a000000000000000000000000000000000000000000000000000000000815260040161104d9190611948565b60405180910390fd5b5050565b60606000600283600261106d91906119a3565b61107791906119e5565b67ffffffffffffffff8111156110905761108f611a19565b5b6040519080825280601f01601f1916602001820160405280156110c25781602001600182028036833780820191505090505b5090507f3000000000000000000000000000000000000000000000000000000000000000816000815181106110fa576110f9611a48565b5b60200101907effffffffffffffffffffffffffffffffffffffffffffffffffffffffffffff1916908160001a9053507f78000000000000000000000000000000000000000000000000000000000000008160018151811061115e5761115d611a48565b5b60200101907effffffffffffffffffffffffffffffffffffffffffffffffffffffffffffff1916908160001a9053506000600184600261119e91906119a3565b6111a891906119e5565b90505b6001811115611248577f3031323334353637383961626364656600000000000000000000000000000000600f8616601081106111ea576111e9611a48565b5b1a60f81b82828151811061120157611200611a48565b5b60200101907effffffffffffffffffffffffffffffffffffffffffffffffffffffffffffff1916908160001a905350600485901c94508061124190611a77565b90506111ab565b506000841461128c576040517f08c379a000000000000000000000000000000000000000000000000000000000815260040161128390611aec565b60405180910390fd5b8091505092915050565b600080fd5b60007fffffffff0000000000000000000000000000000000000000000000000000000082169050919050565b6112d08161129b565b81146112db57600080fd5b50565b6000813590506112ed816112c7565b92915050565b60006020828403121561130957611308611296565b5b6000611317848285016112de565b91505092915050565b60008115159050919050565b61133581611320565b82525050565b6000602082019050611350600083018461132c565b92915050565b6000819050919050565b61136981611356565b82525050565b60006020820190506113846000830184611360565b92915050565b61139381611356565b811461139e57600080fd5b50565b6000813590506113b08161138a565b92915050565b6000602082840312156113cc576113cb611296565b5b60006113da848285016113a1565b91505092915050565b600073ffffffffffffffffffffffffffffffffffffffff82169050919050565b600061140e826113e3565b9050919050565b61141e81611403565b811461142957600080fd5b50565b60008135905061143b81611415565b92915050565b6000806040838503121561145857611457611296565b5b6000611466858286016113a1565b92505060206114778582860161142c565b9150509250929050565b6003811061148e57600080fd5b50565b6000813590506114a081611481565b92915050565b600080604083850312156114bd576114bc611296565b5b60006114cb858286016113a1565b92505060206114dc85828601611491565b9150509250929050565b6114ef81611403565b82525050565b600060208201905061150a60008301846114e6565b92915050565b60008060006060848603121561152957611528611296565b5b6000611537868287016113a1565b935050602061154886828701611491565b92505060406115598682870161142c565b9150509250925092565b60006020828403121561157957611578611296565b5b60006115878482850161142c565b91505092915050565b6000602082840312156115a6576115a5611296565b5b60006115b484828501611491565b91505092915050565b600082825260208201905092915050565b7f416363657373436f6e74726f6c3a2063616e206f6e6c792072656e6f756e636560008201527f20726f6c657320666f722073656c660000000000000000000000000000000000602082015250565b600061162a602f836115bd565b9150611635826115ce565b604082019050919050565b600060208201905081810360008301526116598161161d565b9050919050565b7f4e487b7100000000000000000000000000000000000000000000000000000000600052602160045260246000fd5b7f5468652070726f766964656420456e76206973206e6f742076616c696420666f60008201527f72207468697320636f6e74726163740000000000000000000000000000000000602082015250565b60006116eb602f836115bd565b91506116f68261168f565b604082019050919050565b6000602082019050818103600083015261171a816116de565b9050919050565b6003811061173257611731611660565b5b50565b600081905061174382611721565b919050565b600061175382611735565b9050919050565b61176381611748565b82525050565b600060608201905061177e6000830186611360565b61178b602083018561175a565b61179860408301846114e6565b949350505050565b60006020820190506117b5600083018461175a565b92915050565b600081905092915050565b7f416363657373436f6e74726f6c3a206163636f756e7420000000000000000000600082015250565b60006117fc6017836117bb565b9150611807826117c6565b601782019050919050565b600081519050919050565b60005b8381101561183b578082015181840152602081019050611820565b60008484015250505050565b600061185282611812565b61185c81856117bb565b935061186c81856020860161181d565b80840191505092915050565b7f206973206d697373696e6720726f6c6520000000000000000000000000000000600082015250565b60006118ae6011836117bb565b91506118b982611878565b601182019050919050565b60006118cf826117ef565b91506118db8285611847565b91506118e6826118a1565b91506118f28284611847565b91508190509392505050565b6000601f19601f8301169050919050565b600061191a82611812565b61192481856115bd565b935061193481856020860161181d565b61193d816118fe565b840191505092915050565b60006020820190508181036000830152611962818461190f565b905092915050565b6000819050919050565b7f4e487b7100000000000000000000000000000000000000000000000000000000600052601160045260246000fd5b60006119ae8261196a565b91506119b98361196a565b92508282026119c78161196a565b915082820484148315176119de576119dd611974565b5b5092915050565b60006119f08261196a565b91506119fb8361196a565b9250828201905080821115611a1357611a12611974565b5b92915050565b7f4e487b7100000000000000000000000000000000000000000000000000000000600052604160045260246000fd5b7f4e487b7100000000000000000000000000000000000000000000000000000000600052603260045260246000fd5b6000611a828261196a565b915060008203611a9557611a94611974565b5b600182039050919050565b7f537472696e67733a20686578206c656e67746820696e73756666696369656e74600082015250565b6000611ad66020836115bd565b9150611ae182611aa0565b602082019050919050565b60006020820190508181036000830152611b0581611ac9565b905091905056fea2646970667358221220eeff3c18be2c1108ea6f011de277f426651939f8dc25121ba3eb0a73ac98799064736f6c63430008110033","abi":[{"inputs":[{"internalType":"enum ContractResolver.Env","name":"env","type":"uint8"}],"stateMutability":"nonpayable","type":"constructor"},{"inputs":[],"name":"AdminRoleRequired","type":"error"},{"anonymous":false,"inputs":[{"indexed":false,"internalType":"enum ContractResolver.Env","name":"env","type":"uint8"}],"name":"AllowedEnvAdded","type":"event"},{"anonymous":false,"inputs":[{"indexed":false,"internalType":"enum ContractResolver.Env","name":"env","type":"uint8"}],"name":"AllowedEnvRemoved","type":"event"},{"anonymous":false,"inputs":[{"indexed":true,"internalType":"bytes32","name":"role","type":"bytes32"},{"indexed":true,"internalType":"bytes32","name":"previousAdminRole","type":"bytes32"},{"indexed":true,"internalType":"bytes32","name":"newAdminRole","type":"bytes32"}],"name":"RoleAdminChanged","type":"event"},{"anonymous":false,"inputs":[{"indexed":true,"internalType":"bytes32","name":"role","type":"bytes32"},{"indexed":true,"internalType":"address","name":"account","type":"address"},{"indexed":true,"internalType":"address","name":"sender","type":"address"}],"name":"RoleGranted","type":"event"},{"anonymous":false,"inputs":[{"indexed":true,"internalType":"bytes32","name":"role","type":"bytes32"},{"indexed":true,"internalType":"address","name":"account","type":"address"},{"indexed":true,"internalType":"address","name":"sender","type":"address"}],"name":"RoleRevoked","type":"event"},{"anonymous":false,"inputs":[{"indexed":false,"internalType":"bytes32","name":"typ","type":"bytes32"},{"indexed":false,"internalType":"enum ContractResolver.Env","name":"env","type":"uint8"},{"indexed":false,"internalType":"address","name":"addr","type":"address"}],"name":"SetContract","type":"event"},{"inputs":[],"name":"ACCESS_CONTROL_CONTRACT","outputs":[{"internalType":"bytes32","name":"","type":"bytes32"}],"stateMutability":"view","type":"function"},{"inputs":[],"name":"ADMIN_ROLE","outputs":[{"internalType":"bytes32","name":"","type":"bytes32"}],"stateMutability":"view","type":"function"},{"inputs":[],"name":"ALLOWLIST_CONTRACT","outputs":[{"internalType":"bytes32","name":"","type":"bytes32"}],"stateMutability":"view","type":"function"},{"inputs":[],"name":"DEFAULT_ADMIN_ROLE","outputs":[{"internalType":"bytes32","name":"","type":"bytes32"}],"stateMutability":"view","type":"function"},{"inputs":[],"name":"LIT_TOKEN_CONTRACT","outputs":[{"internalType":"bytes32","name":"","type":"bytes32"}],"stateMutability":"view","type":"function"},{"inputs":[],"name":"MULTI_SENDER_CONTRACT","outputs":[{"internalType":"bytes32","name":"","type":"bytes32"}],"stateMutability":"view","type":"function"},{"inputs":[],"name":"PKP_HELPER_CONTRACT","outputs":[{"internalType":"bytes32","name":"","type":"bytes32"}],"stateMutability":"view","type":"function"},{"inputs":[],"name":"PKP_NFT_CONTRACT","outputs":[{"internalType":"bytes32","name":"","type":"bytes32"}],"stateMutability":"view","type":"function"},{"inputs":[],"name":"PKP_NFT_METADATA_CONTRACT","outputs":[{"internalType":"bytes32","name":"","type":"bytes32"}],"stateMutability":"view","type":"function"},{"inputs":[],"name":"PKP_PERMISSIONS_CONTRACT","outputs":[{"internalType":"bytes32","name":"","type":"bytes32"}],"stateMutability":"view","type":"function"},{"inputs":[],"name":"PUB_KEY_ROUTER_CONTRACT","outputs":[{"internalType":"bytes32","name":"","type":"bytes32"}],"stateMutability":"view","type":"function"},{"inputs":[],"name":"RATE_LIMIT_NFT_CONTRACT","outputs":[{"internalType":"bytes32","name":"","type":"bytes32"}],"stateMutability":"view","type":"function"},{"inputs":[],"name":"RELEASE_REGISTER_CONTRACT","outputs":[{"internalType":"bytes32","name":"","type":"bytes32"}],"stateMutability":"view","type":"function"},{"inputs":[],"name":"STAKING_CONTRACT","outputs":[{"internalType":"bytes32","name":"","type":"bytes32"}],"stateMutability":"view","type":"function"},{"inputs":[{"internalType":"enum ContractResolver.Env","name":"env","type":"uint8"}],"name":"addAllowedEnv","outputs":[],"stateMutability":"nonpayable","type":"function"},{"inputs":[{"internalType":"bytes32","name":"typ","type":"bytes32"},{"internalType":"enum ContractResolver.Env","name":"env","type":"uint8"}],"name":"getContract","outputs":[{"internalType":"address","name":"","type":"address"}],"stateMutability":"view","type":"function"},{"inputs":[{"internalType":"bytes32","name":"role","type":"bytes32"}],"name":"getRoleAdmin","outputs":[{"internalType":"bytes32","name":"","type":"bytes32"}],"stateMutability":"view","type":"function"},{"inputs":[{"internalType":"bytes32","name":"role","type":"bytes32"},{"internalType":"address","name":"account","type":"address"}],"name":"grantRole","outputs":[],"stateMutability":"nonpayable","type":"function"},{"inputs":[{"internalType":"bytes32","name":"role","type":"bytes32"},{"internalType":"address","name":"account","type":"address"}],"name":"hasRole","outputs":[{"internalType":"bool","name":"","type":"bool"}],"stateMutability":"view","type":"function"},{"inputs":[{"internalType":"enum ContractResolver.Env","name":"env","type":"uint8"}],"name":"removeAllowedEnv","outputs":[],"stateMutability":"nonpayable","type":"function"},{"inputs":[{"internalType":"bytes32","name":"role","type":"bytes32"},{"internalType":"address","name":"account","type":"address"}],"name":"renounceRole","outputs":[],"stateMutability":"nonpayable","type":"function"},{"inputs":[{"internalType":"bytes32","name":"role","type":"bytes32"},{"internalType":"address","name":"account","type":"address"}],"name":"revokeRole","outputs":[],"stateMutability":"nonpayable","type":"function"},{"inputs":[{"internalType":"address","name":"newAdmin","type":"address"}],"name":"setAdmin","outputs":[],"stateMutability":"nonpayable","type":"function"},{"inputs":[{"internalType":"bytes32","name":"typ","type":"bytes32"},{"internalType":"enum ContractResolver.Env","name":"env","type":"uint8"},{"internalType":"address","name":"addr","type":"address"}],"name":"setContract","outputs":[],"stateMutability":"nonpayable","type":"function"},{"inputs":[{"internalType":"bytes4","name":"interfaceId","type":"bytes4"}],"name":"supportsInterface","outputs":[{"internalType":"bool","name":"","type":"bool"}],"stateMutability":"view","type":"function"},{"inputs":[{"internalType":"bytes32","name":"","type":"bytes32"},{"internalType":"enum ContractResolver.Env","name":"","type":"uint8"}],"name":"typeAddresses","outputs":[{"internalType":"address","name":"","type":"address"}],"stateMutability":"view","type":"function"}]}