{"address":"0xb3E760000bd8Cd8d51Cf86d9E9A4f270cBB120f2","bytecode":"0x60806040523480156200001157600080fd5b506040518060400160405280600c81526020017f4c69742050726f746f636f6c00000000000000000000000000000000000000008152506040518060400160405280600381526020017f4c4954000000000000000000000000000000000000000000000000000000000081525081600490816200008f919062000607565b508060059081620000a1919062000607565b505050620000d67fdf8b4c520ffe197c5343c6f5aec59570151ef9a492f2c624fd45ddde6135ec42336200019260201b60201c565b620001087ff0887ba65ee2024ea881d91b74c2450ef19e1557f03bed3ea9f16b037cbe2dc9336200019260201b60201c565b6200015a7ff0887ba65ee2024ea881d91b74c2450ef19e1557f03bed3ea9f16b037cbe2dc97fdf8b4c520ffe197c5343c6f5aec59570151ef9a492f2c624fd45ddde6135ec42620001a860201b60201c565b6200018c7fdf8b4c520ffe197c5343c6f5aec59570151ef9a492f2c624fd45ddde6135ec4280620001a860201b60201c565b620006ee565b620001a482826200020b60201b60201c565b5050565b6000620001bb83620002fc60201b60201c565b905081600080858152602001908152602001600020600101819055508181847fbd79b86ffe0ab8e8776151514217cd7cacd52c909f66475c3af44e129f0b00ff60405160405180910390a4505050565b6200021d82826200031b60201b60201c565b620002f857600160008084815260200190815260200160002060000160008373ffffffffffffffffffffffffffffffffffffffff1673ffffffffffffffffffffffffffffffffffffffff16815260200190815260200160002060006101000a81548160ff0219169083151502179055506200029d6200038560201b60201c565b73ffffffffffffffffffffffffffffffffffffffff168173ffffffffffffffffffffffffffffffffffffffff16837f2f8788117e7eff1d82e926ec794901d17c78024a50270940304540a733656f0d60405160405180910390a45b5050565b6000806000838152602001908152602001600020600101549050919050565b600080600084815260200190815260200160002060000160008373ffffffffffffffffffffffffffffffffffffffff1673ffffffffffffffffffffffffffffffffffffffff16815260200190815260200160002060009054906101000a900460ff16905092915050565b600033905090565b600081519050919050565b7f4e487b7100000000000000000000000000000000000000000000000000000000600052604160045260246000fd5b7f4e487b7100000000000000000000000000000000000000000000000000000000600052602260045260246000fd5b600060028204905060018216806200040f57607f821691505b602082108103620004255762000424620003c7565b5b50919050565b60008190508160005260206000209050919050565b60006020601f8301049050919050565b600082821b905092915050565b6000600883026200048f7fffffffffffffffffffffffffffffffffffffffffffffffffffffffffffffffff8262000450565b6200049b868362000450565b95508019841693508086168417925050509392505050565b6000819050919050565b6000819050919050565b6000620004e8620004e2620004dc84620004b3565b620004bd565b620004b3565b9050919050565b6000819050919050565b6200050483620004c7565b6200051c6200051382620004ef565b8484546200045d565b825550505050565b600090565b6200053362000524565b62000540818484620004f9565b505050565b5b8181101562000568576200055c60008262000529565b60018101905062000546565b5050565b601f821115620005b75762000581816200042b565b6200058c8462000440565b810160208510156200059c578190505b620005b4620005ab8562000440565b83018262000545565b50505b505050565b600082821c905092915050565b6000620005dc60001984600802620005bc565b1980831691505092915050565b6000620005f78383620005c9565b9150826002028217905092915050565b62000612826200038d565b67ffffffffffffffff8111156200062e576200062d62000398565b5b6200063a8254620003f6565b620006478282856200056c565b600060209050601f8311600181146200067f57600084156200066a578287015190505b620006768582620005e9565b865550620006e6565b601f1984166200068f866200042b565b60005b82811015620006b95784890151825560018201915060208501945060208101905062000692565b86831015620006d95784890151620006d5601f891682620005c9565b8355505b6001600288020188555050505b505050505050565b61260880620006fe6000396000f3fe608060405234801561001057600080fd5b506004361061014d5760003560e01c806342966c68116100c3578063a217fddf1161007c578063a217fddf146103c4578063a457c2d7146103e2578063a9059cbb14610412578063d539139314610442578063d547741f14610460578063dd62ed3e1461047c5761014d565b806342966c68146102f057806370a082311461030c57806375b238fc1461033c57806379cc67901461035a57806391d148541461037657806395d89b41146103a65761014d565b8063248a9ca311610115578063248a9ca31461021e5780632f2ff15d1461024e578063313ce5671461026a57806336568abe1461028857806339509351146102a457806340c10f19146102d45761014d565b806301ffc9a71461015257806306fdde0314610182578063095ea7b3146101a057806318160ddd146101d057806323b872dd146101ee575b600080fd5b61016c6004803603810190610167919061182e565b6104ac565b6040516101799190611876565b60405180910390f35b61018a610526565b6040516101979190611921565b60405180910390f35b6101ba60048036038101906101b591906119d7565b6105b8565b6040516101c79190611876565b60405180910390f35b6101d86105db565b6040516101e59190611a26565b60405180910390f35b61020860048036038101906102039190611a41565b6105e5565b6040516102159190611876565b60405180910390f35b61023860048036038101906102339190611aca565b610614565b6040516102459190611b06565b60405180910390f35b61026860048036038101906102639190611b21565b610633565b005b610272610654565b60405161027f9190611b7d565b60405180910390f35b6102a2600480360381019061029d9190611b21565b61065d565b005b6102be60048036038101906102b991906119d7565b6106e0565b6040516102cb9190611876565b60405180910390f35b6102ee60048036038101906102e991906119d7565b610717565b005b61030a60048036038101906103059190611b98565b61078e565b005b61032660048036038101906103219190611bc5565b6107a2565b6040516103339190611a26565b60405180910390f35b6103446107eb565b6040516103519190611b06565b60405180910390f35b610374600480360381019061036f91906119d7565b61080f565b005b610390600480360381019061038b9190611b21565b61082f565b60405161039d9190611876565b60405180910390f35b6103ae610899565b6040516103bb9190611921565b60405180910390f35b6103cc61092b565b6040516103d99190611b06565b60405180910390f35b6103fc60048036038101906103f791906119d7565b610932565b6040516104099190611876565b60405180910390f35b61042c600480360381019061042791906119d7565b6109a9565b6040516104399190611876565b60405180910390f35b61044a6109cc565b6040516104579190611b06565b60405180910390f35b61047a60048036038101906104759190611b21565b6109f0565b005b61049660048036038101906104919190611bf2565b610a11565b6040516104a39190611a26565b60405180910390f35b60007f7965db0b000000000000000000000000000000000000000000000000000000007bffffffffffffffffffffffffffffffffffffffffffffffffffffffff1916827bffffffffffffffffffffffffffffffffffffffffffffffffffffffff1916148061051f575061051e82610a98565b5b9050919050565b60606004805461053590611c61565b80601f016020809104026020016040519081016040528092919081815260200182805461056190611c61565b80156105ae5780601f10610583576101008083540402835291602001916105ae565b820191906000526020600020905b81548152906001019060200180831161059157829003601f168201915b5050505050905090565b6000806105c3610b02565b90506105d0818585610b0a565b600191505092915050565b6000600354905090565b6000806105f0610b02565b90506105fd858285610cd3565b610608858585610d5f565b60019150509392505050565b6000806000838152602001908152602001600020600101549050919050565b61063c82610614565b61064581610fe1565b61064f8383610ff5565b505050565b60006012905090565b610665610b02565b73ffffffffffffffffffffffffffffffffffffffff168173ffffffffffffffffffffffffffffffffffffffff16146106d2576040517f08c379a00000000000000000000000000000000000000000000000000000000081526004016106c990611d04565b60405180910390fd5b6106dc82826110d5565b5050565b6000806106eb610b02565b905061070c8185856106fd8589610a11565b6107079190611d53565b610b0a565b600191505092915050565b6107417ff0887ba65ee2024ea881d91b74c2450ef19e1557f03bed3ea9f16b037cbe2dc93361082f565b610780576040517f08c379a000000000000000000000000000000000000000000000000000000000815260040161077790611dd3565b60405180910390fd5b61078a82826111b6565b5050565b61079f610799610b02565b82611316565b50565b6000600160008373ffffffffffffffffffffffffffffffffffffffff1673ffffffffffffffffffffffffffffffffffffffff168152602001908152602001600020549050919050565b7fdf8b4c520ffe197c5343c6f5aec59570151ef9a492f2c624fd45ddde6135ec4281565b6108218261081b610b02565b83610cd3565b61082b8282611316565b5050565b600080600084815260200190815260200160002060000160008373ffffffffffffffffffffffffffffffffffffffff1673ffffffffffffffffffffffffffffffffffffffff16815260200190815260200160002060009054906101000a900460ff16905092915050565b6060600580546108a890611c61565b80601f01602080910402602001604051908101604052809291908181526020018280546108d490611c61565b80156109215780601f106108f657610100808354040283529160200191610921565b820191906000526020600020905b81548152906001019060200180831161090457829003601f168201915b5050505050905090565b6000801b81565b60008061093d610b02565b9050600061094b8286610a11565b905083811015610990576040517f08c379a000000000000000000000000000000000000000000000000000000000815260040161098790611e65565b60405180910390fd5b61099d8286868403610b0a565b60019250505092915050565b6000806109b4610b02565b90506109c1818585610d5f565b600191505092915050565b7ff0887ba65ee2024ea881d91b74c2450ef19e1557f03bed3ea9f16b037cbe2dc981565b6109f982610614565b610a0281610fe1565b610a0c83836110d5565b505050565b6000600260008473ffffffffffffffffffffffffffffffffffffffff1673ffffffffffffffffffffffffffffffffffffffff16815260200190815260200160002060008373ffffffffffffffffffffffffffffffffffffffff1673ffffffffffffffffffffffffffffffffffffffff16815260200190815260200160002054905092915050565b60007f01ffc9a7000000000000000000000000000000000000000000000000000000007bffffffffffffffffffffffffffffffffffffffffffffffffffffffff1916827bffffffffffffffffffffffffffffffffffffffffffffffffffffffff1916149050919050565b600033905090565b600073ffffffffffffffffffffffffffffffffffffffff168373ffffffffffffffffffffffffffffffffffffffff1603610b79576040517f08c379a0000000000000000000000000000000000000000000000000000000008152600401610b7090611ef7565b60405180910390fd5b600073ffffffffffffffffffffffffffffffffffffffff168273ffffffffffffffffffffffffffffffffffffffff1603610be8576040517f08c379a0000000000000000000000000000000000000000000000000000000008152600401610bdf90611f89565b60405180910390fd5b80600260008573ffffffffffffffffffffffffffffffffffffffff1673ffffffffffffffffffffffffffffffffffffffff16815260200190815260200160002060008473ffffffffffffffffffffffffffffffffffffffff1673ffffffffffffffffffffffffffffffffffffffff168152602001908152602001600020819055508173ffffffffffffffffffffffffffffffffffffffff168373ffffffffffffffffffffffffffffffffffffffff167f8c5be1e5ebec7d5bd14f71427d1e84f3dd0314c0f7b2291e5b200ac8c7c3b92583604051610cc69190611a26565b60405180910390a3505050565b6000610cdf8484610a11565b90507fffffffffffffffffffffffffffffffffffffffffffffffffffffffffffffffff8114610d595781811015610d4b576040517f08c379a0000000000000000000000000000000000000000000000000000000008152600401610d4290611ff5565b60405180910390fd5b610d588484848403610b0a565b5b50505050565b600073ffffffffffffffffffffffffffffffffffffffff168373ffffffffffffffffffffffffffffffffffffffff1603610dce576040517f08c379a0000000000000000000000000000000000000000000000000000000008152600401610dc590612087565b60405180910390fd5b600073ffffffffffffffffffffffffffffffffffffffff168273ffffffffffffffffffffffffffffffffffffffff1603610e3d576040517f08c379a0000000000000000000000000000000000000000000000000000000008152600401610e3490612119565b60405180910390fd5b610e488383836114ee565b6000600160008573ffffffffffffffffffffffffffffffffffffffff1673ffffffffffffffffffffffffffffffffffffffff16815260200190815260200160002054905081811015610ecf576040517f08c379a0000000000000000000000000000000000000000000000000000000008152600401610ec6906121ab565b60405180910390fd5b818103600160008673ffffffffffffffffffffffffffffffffffffffff1673ffffffffffffffffffffffffffffffffffffffff1681526020019081526020016000208190555081600160008573ffffffffffffffffffffffffffffffffffffffff1673ffffffffffffffffffffffffffffffffffffffff1681526020019081526020016000206000828254610f649190611d53565b925050819055508273ffffffffffffffffffffffffffffffffffffffff168473ffffffffffffffffffffffffffffffffffffffff167fddf252ad1be2c89b69c2b068fc378daa952ba7f163c4a11628f55a4df523b3ef84604051610fc89190611a26565b60405180910390a3610fdb8484846114f3565b50505050565b610ff281610fed610b02565b6114f8565b50565b610fff828261082f565b6110d157600160008084815260200190815260200160002060000160008373ffffffffffffffffffffffffffffffffffffffff1673ffffffffffffffffffffffffffffffffffffffff16815260200190815260200160002060006101000a81548160ff021916908315150217905550611076610b02565b73ffffffffffffffffffffffffffffffffffffffff168173ffffffffffffffffffffffffffffffffffffffff16837f2f8788117e7eff1d82e926ec794901d17c78024a50270940304540a733656f0d60405160405180910390a45b5050565b6110df828261082f565b156111b257600080600084815260200190815260200160002060000160008373ffffffffffffffffffffffffffffffffffffffff1673ffffffffffffffffffffffffffffffffffffffff16815260200190815260200160002060006101000a81548160ff021916908315150217905550611157610b02565b73ffffffffffffffffffffffffffffffffffffffff168173ffffffffffffffffffffffffffffffffffffffff16837ff6391f5c32d9c69d2a47ea670b442974b53935d1edc7fd64eb21e047a839171b60405160405180910390a45b5050565b600073ffffffffffffffffffffffffffffffffffffffff168273ffffffffffffffffffffffffffffffffffffffff1603611225576040517f08c379a000000000000000000000000000000000000000000000000000000000815260040161121c90612217565b60405180910390fd5b611231600083836114ee565b80600360008282546112439190611d53565b9250508190555080600160008473ffffffffffffffffffffffffffffffffffffffff1673ffffffffffffffffffffffffffffffffffffffff16815260200190815260200160002060008282546112999190611d53565b925050819055508173ffffffffffffffffffffffffffffffffffffffff16600073ffffffffffffffffffffffffffffffffffffffff167fddf252ad1be2c89b69c2b068fc378daa952ba7f163c4a11628f55a4df523b3ef836040516112fe9190611a26565b60405180910390a3611312600083836114f3565b5050565b600073ffffffffffffffffffffffffffffffffffffffff168273ffffffffffffffffffffffffffffffffffffffff1603611385576040517f08c379a000000000000000000000000000000000000000000000000000000000815260040161137c906122a9565b60405180910390fd5b611391826000836114ee565b6000600160008473ffffffffffffffffffffffffffffffffffffffff1673ffffffffffffffffffffffffffffffffffffffff16815260200190815260200160002054905081811015611418576040517f08c379a000000000000000000000000000000000000000000000000000000000815260040161140f9061233b565b60405180910390fd5b818103600160008573ffffffffffffffffffffffffffffffffffffffff1673ffffffffffffffffffffffffffffffffffffffff168152602001908152602001600020819055508160036000828254611470919061235b565b92505081905550600073ffffffffffffffffffffffffffffffffffffffff168373ffffffffffffffffffffffffffffffffffffffff167fddf252ad1be2c89b69c2b068fc378daa952ba7f163c4a11628f55a4df523b3ef846040516114d59190611a26565b60405180910390a36114e9836000846114f3565b505050565b505050565b505050565b611502828261082f565b611591576115278173ffffffffffffffffffffffffffffffffffffffff166014611595565b6115358360001c6020611595565b604051602001611546929190612463565b6040516020818303038152906040526040517f08c379a00000000000000000000000000000000000000000000000000000000081526004016115889190611921565b60405180910390fd5b5050565b6060600060028360026115a8919061249d565b6115b29190611d53565b67ffffffffffffffff8111156115cb576115ca6124df565b5b6040519080825280601f01601f1916602001820160405280156115fd5781602001600182028036833780820191505090505b5090507f3000000000000000000000000000000000000000000000000000000000000000816000815181106116355761163461250e565b5b60200101907effffffffffffffffffffffffffffffffffffffffffffffffffffffffffffff1916908160001a9053507f7800000000000000000000000000000000000000000000000000000000000000816001815181106116995761169861250e565b5b60200101907effffffffffffffffffffffffffffffffffffffffffffffffffffffffffffff1916908160001a905350600060018460026116d9919061249d565b6116e39190611d53565b90505b6001811115611783577f3031323334353637383961626364656600000000000000000000000000000000600f8616601081106117255761172461250e565b5b1a60f81b82828151811061173c5761173b61250e565b5b60200101907effffffffffffffffffffffffffffffffffffffffffffffffffffffffffffff1916908160001a905350600485901c94508061177c9061253d565b90506116e6565b50600084146117c7576040517f08c379a00000000000000000000000000000000000000000000000000000000081526004016117be906125b2565b60405180910390fd5b8091505092915050565b600080fd5b60007fffffffff0000000000000000000000000000000000000000000000000000000082169050919050565b61180b816117d6565b811461181657600080fd5b50565b60008135905061182881611802565b92915050565b600060208284031215611844576118436117d1565b5b600061185284828501611819565b91505092915050565b60008115159050919050565b6118708161185b565b82525050565b600060208201905061188b6000830184611867565b92915050565b600081519050919050565b600082825260208201905092915050565b60005b838110156118cb5780820151818401526020810190506118b0565b60008484015250505050565b6000601f19601f8301169050919050565b60006118f382611891565b6118fd818561189c565b935061190d8185602086016118ad565b611916816118d7565b840191505092915050565b6000602082019050818103600083015261193b81846118e8565b905092915050565b600073ffffffffffffffffffffffffffffffffffffffff82169050919050565b600061196e82611943565b9050919050565b61197e81611963565b811461198957600080fd5b50565b60008135905061199b81611975565b92915050565b6000819050919050565b6119b4816119a1565b81146119bf57600080fd5b50565b6000813590506119d1816119ab565b92915050565b600080604083850312156119ee576119ed6117d1565b5b60006119fc8582860161198c565b9250506020611a0d858286016119c2565b9150509250929050565b611a20816119a1565b82525050565b6000602082019050611a3b6000830184611a17565b92915050565b600080600060608486031215611a5a57611a596117d1565b5b6000611a688682870161198c565b9350506020611a798682870161198c565b9250506040611a8a868287016119c2565b9150509250925092565b6000819050919050565b611aa781611a94565b8114611ab257600080fd5b50565b600081359050611ac481611a9e565b92915050565b600060208284031215611ae057611adf6117d1565b5b6000611aee84828501611ab5565b91505092915050565b611b0081611a94565b82525050565b6000602082019050611b1b6000830184611af7565b92915050565b60008060408385031215611b3857611b376117d1565b5b6000611b4685828601611ab5565b9250506020611b578582860161198c565b9150509250929050565b600060ff82169050919050565b611b7781611b61565b82525050565b6000602082019050611b926000830184611b6e565b92915050565b600060208284031215611bae57611bad6117d1565b5b6000611bbc848285016119c2565b91505092915050565b600060208284031215611bdb57611bda6117d1565b5b6000611be98482850161198c565b91505092915050565b60008060408385031215611c0957611c086117d1565b5b6000611c178582860161198c565b9250506020611c288582860161198c565b9150509250929050565b7f4e487b7100000000000000000000000000000000000000000000000000000000600052602260045260246000fd5b60006002820490506001821680611c7957607f821691505b602082108103611c8c57611c8b611c32565b5b50919050565b7f416363657373436f6e74726f6c3a2063616e206f6e6c792072656e6f756e636560008201527f20726f6c657320666f722073656c660000000000000000000000000000000000602082015250565b6000611cee602f8361189c565b9150611cf982611c92565b604082019050919050565b60006020820190508181036000830152611d1d81611ce1565b9050919050565b7f4e487b7100000000000000000000000000000000000000000000000000000000600052601160045260246000fd5b6000611d5e826119a1565b9150611d69836119a1565b9250828201905080821115611d8157611d80611d24565b5b92915050565b7f4c4954546f6b656e3a206f6e6c79206d696e7465720000000000000000000000600082015250565b6000611dbd60158361189c565b9150611dc882611d87565b602082019050919050565b60006020820190508181036000830152611dec81611db0565b9050919050565b7f45524332303a2064656372656173656420616c6c6f77616e63652062656c6f7760008201527f207a65726f000000000000000000000000000000000000000000000000000000602082015250565b6000611e4f60258361189c565b9150611e5a82611df3565b604082019050919050565b60006020820190508181036000830152611e7e81611e42565b9050919050565b7f45524332303a20617070726f76652066726f6d20746865207a65726f2061646460008201527f7265737300000000000000000000000000000000000000000000000000000000602082015250565b6000611ee160248361189c565b9150611eec82611e85565b604082019050919050565b60006020820190508181036000830152611f1081611ed4565b9050919050565b7f45524332303a20617070726f766520746f20746865207a65726f20616464726560008201527f7373000000000000000000000000000000000000000000000000000000000000602082015250565b6000611f7360228361189c565b9150611f7e82611f17565b604082019050919050565b60006020820190508181036000830152611fa281611f66565b9050919050565b7f45524332303a20696e73756666696369656e7420616c6c6f77616e6365000000600082015250565b6000611fdf601d8361189c565b9150611fea82611fa9565b602082019050919050565b6000602082019050818103600083015261200e81611fd2565b9050919050565b7f45524332303a207472616e736665722066726f6d20746865207a65726f20616460008201527f6472657373000000000000000000000000000000000000000000000000000000602082015250565b600061207160258361189c565b915061207c82612015565b604082019050919050565b600060208201905081810360008301526120a081612064565b9050919050565b7f45524332303a207472616e7366657220746f20746865207a65726f206164647260008201527f6573730000000000000000000000000000000000000000000000000000000000602082015250565b600061210360238361189c565b915061210e826120a7565b604082019050919050565b60006020820190508181036000830152612132816120f6565b9050919050565b7f45524332303a207472616e7366657220616d6f756e742065786365656473206260008201527f616c616e63650000000000000000000000000000000000000000000000000000602082015250565b600061219560268361189c565b91506121a082612139565b604082019050919050565b600060208201905081810360008301526121c481612188565b9050919050565b7f45524332303a206d696e7420746f20746865207a65726f206164647265737300600082015250565b6000612201601f8361189c565b915061220c826121cb565b602082019050919050565b60006020820190508181036000830152612230816121f4565b9050919050565b7f45524332303a206275726e2066726f6d20746865207a65726f2061646472657360008201527f7300000000000000000000000000000000000000000000000000000000000000602082015250565b600061229360218361189c565b915061229e82612237565b604082019050919050565b600060208201905081810360008301526122c281612286565b9050919050565b7f45524332303a206275726e20616d6f756e7420657863656564732062616c616e60008201527f6365000000000000000000000000000000000000000000000000000000000000602082015250565b600061232560228361189c565b9150612330826122c9565b604082019050919050565b6000602082019050818103600083015261235481612318565b9050919050565b6000612366826119a1565b9150612371836119a1565b925082820390508181111561238957612388611d24565b5b92915050565b600081905092915050565b7f416363657373436f6e74726f6c3a206163636f756e7420000000000000000000600082015250565b60006123d060178361238f565b91506123db8261239a565b601782019050919050565b60006123f182611891565b6123fb818561238f565b935061240b8185602086016118ad565b80840191505092915050565b7f206973206d697373696e6720726f6c6520000000000000000000000000000000600082015250565b600061244d60118361238f565b915061245882612417565b601182019050919050565b600061246e826123c3565b915061247a82856123e6565b915061248582612440565b915061249182846123e6565b91508190509392505050565b60006124a8826119a1565b91506124b3836119a1565b92508282026124c1816119a1565b915082820484148315176124d8576124d7611d24565b5b5092915050565b7f4e487b7100000000000000000000000000000000000000000000000000000000600052604160045260246000fd5b7f4e487b7100000000000000000000000000000000000000000000000000000000600052603260045260246000fd5b6000612548826119a1565b91506000820361255b5761255a611d24565b5b600182039050919050565b7f537472696e67733a20686578206c656e67746820696e73756666696369656e74600082015250565b600061259c60208361189c565b91506125a782612566565b602082019050919050565b600060208201905081810360008301526125cb8161258f565b905091905056fea26469706673582212203b6a1f9f84cca32513b2fbf68f7d5cbf257fe3571c09264e877a49da3628046164736f6c63430008110033","abi":[{"inputs":[],"stateMutability":"nonpayable","type":"constructor"},{"anonymous":false,"inputs":[{"indexed":true,"internalType":"address","name":"owner","type":"address"},{"indexed":true,"internalType":"address","name":"spender","type":"address"},{"indexed":false,"internalType":"uint256","name":"value","type":"uint256"}],"name":"Approval","type":"event"},{"anonymous":false,"inputs":[{"indexed":true,"internalType":"bytes32","name":"role","type":"bytes32"},{"indexed":true,"internalType":"bytes32","name":"previousAdminRole","type":"bytes32"},{"indexed":true,"internalType":"bytes32","name":"newAdminRole","type":"bytes32"}],"name":"RoleAdminChanged","type":"event"},{"anonymous":false,"inputs":[{"indexed":true,"internalType":"bytes32","name":"role","type":"bytes32"},{"indexed":true,"internalType":"address","name":"account","type":"address"},{"indexed":true,"internalType":"address","name":"sender","type":"address"}],"name":"RoleGranted","type":"event"},{"anonymous":false,"inputs":[{"indexed":true,"internalType":"bytes32","name":"role","type":"bytes32"},{"indexed":true,"internalType":"address","name":"account","type":"address"},{"indexed":true,"internalType":"address","name":"sender","type":"address"}],"name":"RoleRevoked","type":"event"},{"anonymous":false,"inputs":[{"indexed":true,"internalType":"address","name":"from","type":"address"},{"indexed":true,"internalType":"address","name":"to","type":"address"},{"indexed":false,"internalType":"uint256","name":"value","type":"uint256"}],"name":"Transfer","type":"event"},{"inputs":[],"name":"ADMIN_ROLE","outputs":[{"internalType":"bytes32","name":"","type":"bytes32"}],"stateMutability":"view","type":"function"},{"inputs":[],"name":"DEFAULT_ADMIN_ROLE","outputs":[{"internalType":"bytes32","name":"","type":"bytes32"}],"stateMutability":"view","type":"function"},{"inputs":[],"name":"MINTER_ROLE","outputs":[{"internalType":"bytes32","name":"","type":"bytes32"}],"stateMutability":"view","type":"function"},{"inputs":[{"internalType":"address","name":"owner","type":"address"},{"internalType":"address","name":"spender","type":"address"}],"name":"allowance","outputs":[{"internalType":"uint256","name":"","type":"uint256"}],"stateMutability":"view","type":"function"},{"inputs":[{"internalType":"address","name":"spender","type":"address"},{"internalType":"uint256","name":"amount","type":"uint256"}],"name":"approve","outputs":[{"internalType":"bool","name":"","type":"bool"}],"stateMutability":"nonpayable","type":"function"},{"inputs":[{"internalType":"address","name":"account","type":"address"}],"name":"balanceOf","outputs":[{"internalType":"uint256","name":"","type":"uint256"}],"stateMutability":"view","type":"function"},{"inputs":[{"internalType":"uint256","name":"amount","type":"uint256"}],"name":"burn","outputs":[],"stateMutability":"nonpayable","type":"function"},{"inputs":[{"internalType":"address","name":"account","type":"address"},{"internalType":"uint256","name":"amount","type":"uint256"}],"name":"burnFrom","outputs":[],"stateMutability":"nonpayable","type":"function"},{"inputs":[],"name":"decimals","outputs":[{"internalType":"uint8","name":"","type":"uint8"}],"stateMutability":"view","type":"function"},{"inputs":[{"internalType":"address","name":"spender","type":"address"},{"internalType":"uint256","name":"subtractedValue","type":"uint256"}],"name":"decreaseAllowance","outputs":[{"internalType":"bool","name":"","type":"bool"}],"stateMutability":"nonpayable","type":"function"},{"inputs":[{"internalType":"bytes32","name":"role","type":"bytes32"}],"name":"getRoleAdmin","outputs":[{"internalType":"bytes32","name":"","type":"bytes32"}],"stateMutability":"view","type":"function"},{"inputs":[{"internalType":"bytes32","name":"role","type":"bytes32"},{"internalType":"address","name":"account","type":"address"}],"name":"grantRole","outputs":[],"stateMutability":"nonpayable","type":"function"},{"inputs":[{"internalType":"bytes32","name":"role","type":"bytes32"},{"internalType":"address","name":"account","type":"address"}],"name":"hasRole","outputs":[{"internalType":"bool","name":"","type":"bool"}],"stateMutability":"view","type":"function"},{"inputs":[{"internalType":"address","name":"spender","type":"address"},{"internalType":"uint256","name":"addedValue","type":"uint256"}],"name":"increaseAllowance","outputs":[{"internalType":"bool","name":"","type":"bool"}],"stateMutability":"nonpayable","type":"function"},{"inputs":[{"internalType":"address","name":"_recipient","type":"address"},{"internalType":"uint256","name":"_amount","type":"uint256"}],"name":"mint","outputs":[],"stateMutability":"nonpayable","type":"function"},{"inputs":[],"name":"name","outputs":[{"internalType":"string","name":"","type":"string"}],"stateMutability":"view","type":"function"},{"inputs":[{"internalType":"bytes32","name":"role","type":"bytes32"},{"internalType":"address","name":"account","type":"address"}],"name":"renounceRole","outputs":[],"stateMutability":"nonpayable","type":"function"},{"inputs":[{"internalType":"bytes32","name":"role","type":"bytes32"},{"internalType":"address","name":"account","type":"address"}],"name":"revokeRole","outputs":[],"stateMutability":"nonpayable","type":"function"},{"inputs":[{"internalType":"bytes4","name":"interfaceId","type":"bytes4"}],"name":"supportsInterface","outputs":[{"internalType":"bool","name":"","type":"bool"}],"stateMutability":"view","type":"function"},{"inputs":[],"name":"symbol","outputs":[{"internalType":"string","name":"","type":"string"}],"stateMutability":"view","type":"function"},{"inputs":[],"name":"totalSupply","outputs":[{"internalType":"uint256","name":"","type":"uint256"}],"stateMutability":"view","type":"function"},{"inputs":[{"internalType":"address","name":"to","type":"address"},{"internalType":"uint256","name":"amount","type":"uint256"}],"name":"transfer","outputs":[{"internalType":"bool","name":"","type":"bool"}],"stateMutability":"nonpayable","type":"function"},{"inputs":[{"internalType":"address","name":"from","type":"address"},{"internalType":"address","name":"to","type":"address"},{"internalType":"uint256","name":"amount","type":"uint256"}],"name":"transferFrom","outputs":[{"internalType":"bool","name":"","type":"bool"}],"stateMutability":"nonpayable","type":"function"}]}