{"address":"0x64027563BF402F3595f581bBFd2F2549094f9Ba6","bytecode":"0x60806040523480156200001157600080fd5b506040518060400160405280600c81526020017f4c69742050726f746f636f6c00000000000000000000000000000000000000008152506040518060400160405280600381526020017f4c495400000000000000000000000000000000000000000000000000000000008152508160049080519060200190620000969291906200039b565b508060059080519060200190620000af9291906200039b565b505050620000e47fdf8b4c520ffe197c5343c6f5aec59570151ef9a492f2c624fd45ddde6135ec4233620001a060201b60201c565b620001167ff0887ba65ee2024ea881d91b74c2450ef19e1557f03bed3ea9f16b037cbe2dc933620001a060201b60201c565b620001687ff0887ba65ee2024ea881d91b74c2450ef19e1557f03bed3ea9f16b037cbe2dc97fdf8b4c520ffe197c5343c6f5aec59570151ef9a492f2c624fd45ddde6135ec42620001b660201b60201c565b6200019a7fdf8b4c520ffe197c5343c6f5aec59570151ef9a492f2c624fd45ddde6135ec4280620001b660201b60201c565b620004b0565b620001b282826200021960201b60201c565b5050565b6000620001c9836200030a60201b60201c565b905081600080858152602001908152602001600020600101819055508181847fbd79b86ffe0ab8e8776151514217cd7cacd52c909f66475c3af44e129f0b00ff60405160405180910390a4505050565b6200022b82826200032960201b60201c565b6200030657600160008084815260200190815260200160002060000160008373ffffffffffffffffffffffffffffffffffffffff1673ffffffffffffffffffffffffffffffffffffffff16815260200190815260200160002060006101000a81548160ff021916908315150217905550620002ab6200039360201b60201c565b73ffffffffffffffffffffffffffffffffffffffff168173ffffffffffffffffffffffffffffffffffffffff16837f2f8788117e7eff1d82e926ec794901d17c78024a50270940304540a733656f0d60405160405180910390a45b5050565b6000806000838152602001908152602001600020600101549050919050565b600080600084815260200190815260200160002060000160008373ffffffffffffffffffffffffffffffffffffffff1673ffffffffffffffffffffffffffffffffffffffff16815260200190815260200160002060009054906101000a900460ff16905092915050565b600033905090565b828054620003a9906200044b565b90600052602060002090601f016020900481019282620003cd576000855562000419565b82601f10620003e857805160ff191683800117855562000419565b8280016001018555821562000419579182015b8281111562000418578251825591602001919060010190620003fb565b5b5090506200042891906200042c565b5090565b5b80821115620004475760008160009055506001016200042d565b5090565b600060028204905060018216806200046457607f821691505b602082108114156200047b576200047a62000481565b5b50919050565b7f4e487b7100000000000000000000000000000000000000000000000000000000600052602260045260246000fd5b61265380620004c06000396000f3fe608060405234801561001057600080fd5b506004361061014d5760003560e01c806342966c68116100c3578063a217fddf1161007c578063a217fddf146103c4578063a457c2d7146103e2578063a9059cbb14610412578063d539139314610442578063d547741f14610460578063dd62ed3e1461047c5761014d565b806342966c68146102f057806370a082311461030c57806375b238fc1461033c57806379cc67901461035a57806391d148541461037657806395d89b41146103a65761014d565b8063248a9ca311610115578063248a9ca31461021e5780632f2ff15d1461024e578063313ce5671461026a57806336568abe1461028857806339509351146102a457806340c10f19146102d45761014d565b806301ffc9a71461015257806306fdde0314610182578063095ea7b3146101a057806318160ddd146101d057806323b872dd146101ee575b600080fd5b61016c60048036038101906101679190611998565b6104ac565b6040516101799190611cdf565b60405180910390f35b61018a610526565b6040516101979190611d15565b60405180910390f35b6101ba60048036038101906101b591906118eb565b6105b8565b6040516101c79190611cdf565b60405180910390f35b6101d86105db565b6040516101e59190611ed7565b60405180910390f35b61020860048036038101906102039190611898565b6105e5565b6040516102159190611cdf565b60405180910390f35b6102386004803603810190610233919061192b565b610614565b6040516102459190611cfa565b60405180910390f35b61026860048036038101906102639190611958565b610633565b005b610272610654565b60405161027f9190611ef2565b60405180910390f35b6102a2600480360381019061029d9190611958565b61065d565b005b6102be60048036038101906102b991906118eb565b6106e0565b6040516102cb9190611cdf565b60405180910390f35b6102ee60048036038101906102e991906118eb565b610717565b005b61030a600480360381019061030591906119c5565b61078e565b005b6103266004803603810190610321919061182b565b6107a2565b6040516103339190611ed7565b60405180910390f35b6103446107eb565b6040516103519190611cfa565b60405180910390f35b610374600480360381019061036f91906118eb565b61080f565b005b610390600480360381019061038b9190611958565b61082f565b60405161039d9190611cdf565b60405180910390f35b6103ae610899565b6040516103bb9190611d15565b60405180910390f35b6103cc61092b565b6040516103d99190611cfa565b60405180910390f35b6103fc60048036038101906103f791906118eb565b610932565b6040516104099190611cdf565b60405180910390f35b61042c600480360381019061042791906118eb565b6109a9565b6040516104399190611cdf565b60405180910390f35b61044a6109cc565b6040516104579190611cfa565b60405180910390f35b61047a60048036038101906104759190611958565b6109f0565b005b61049660048036038101906104919190611858565b610a11565b6040516104a39190611ed7565b60405180910390f35b60007f7965db0b000000000000000000000000000000000000000000000000000000007bffffffffffffffffffffffffffffffffffffffffffffffffffffffff1916827bffffffffffffffffffffffffffffffffffffffffffffffffffffffff1916148061051f575061051e82610a98565b5b9050919050565b60606004805461053590612100565b80601f016020809104026020016040519081016040528092919081815260200182805461056190612100565b80156105ae5780601f10610583576101008083540402835291602001916105ae565b820191906000526020600020905b81548152906001019060200180831161059157829003601f168201915b5050505050905090565b6000806105c3610b02565b90506105d0818585610b0a565b600191505092915050565b6000600354905090565b6000806105f0610b02565b90506105fd858285610cd5565b610608858585610d61565b60019150509392505050565b6000806000838152602001908152602001600020600101549050919050565b61063c82610614565b61064581610fe5565b61064f8383610ff9565b505050565b60006012905090565b610665610b02565b73ffffffffffffffffffffffffffffffffffffffff168173ffffffffffffffffffffffffffffffffffffffff16146106d2576040517f08c379a00000000000000000000000000000000000000000000000000000000081526004016106c990611e97565b60405180910390fd5b6106dc82826110d9565b5050565b6000806106eb610b02565b905061070c8185856106fd8589610a11565b6107079190611f34565b610b0a565b600191505092915050565b6107417ff0887ba65ee2024ea881d91b74c2450ef19e1557f03bed3ea9f16b037cbe2dc93361082f565b610780576040517f08c379a000000000000000000000000000000000000000000000000000000000815260040161077790611df7565b60405180910390fd5b61078a82826111ba565b5050565b61079f610799610b02565b8261131b565b50565b6000600160008373ffffffffffffffffffffffffffffffffffffffff1673ffffffffffffffffffffffffffffffffffffffff168152602001908152602001600020549050919050565b7fdf8b4c520ffe197c5343c6f5aec59570151ef9a492f2c624fd45ddde6135ec4281565b6108218261081b610b02565b83610cd5565b61082b828261131b565b5050565b600080600084815260200190815260200160002060000160008373ffffffffffffffffffffffffffffffffffffffff1673ffffffffffffffffffffffffffffffffffffffff16815260200190815260200160002060009054906101000a900460ff16905092915050565b6060600580546108a890612100565b80601f01602080910402602001604051908101604052809291908181526020018280546108d490612100565b80156109215780601f106108f657610100808354040283529160200191610921565b820191906000526020600020905b81548152906001019060200180831161090457829003601f168201915b5050505050905090565b6000801b81565b60008061093d610b02565b9050600061094b8286610a11565b905083811015610990576040517f08c379a000000000000000000000000000000000000000000000000000000000815260040161098790611e77565b60405180910390fd5b61099d8286868403610b0a565b60019250505092915050565b6000806109b4610b02565b90506109c1818585610d61565b600191505092915050565b7ff0887ba65ee2024ea881d91b74c2450ef19e1557f03bed3ea9f16b037cbe2dc981565b6109f982610614565b610a0281610fe5565b610a0c83836110d9565b505050565b6000600260008473ffffffffffffffffffffffffffffffffffffffff1673ffffffffffffffffffffffffffffffffffffffff16815260200190815260200160002060008373ffffffffffffffffffffffffffffffffffffffff1673ffffffffffffffffffffffffffffffffffffffff16815260200190815260200160002054905092915050565b60007f01ffc9a7000000000000000000000000000000000000000000000000000000007bffffffffffffffffffffffffffffffffffffffffffffffffffffffff1916827bffffffffffffffffffffffffffffffffffffffffffffffffffffffff1916149050919050565b600033905090565b600073ffffffffffffffffffffffffffffffffffffffff168373ffffffffffffffffffffffffffffffffffffffff161415610b7a576040517f08c379a0000000000000000000000000000000000000000000000000000000008152600401610b7190611e57565b60405180910390fd5b600073ffffffffffffffffffffffffffffffffffffffff168273ffffffffffffffffffffffffffffffffffffffff161415610bea576040517f08c379a0000000000000000000000000000000000000000000000000000000008152600401610be190611d97565b60405180910390fd5b80600260008573ffffffffffffffffffffffffffffffffffffffff1673ffffffffffffffffffffffffffffffffffffffff16815260200190815260200160002060008473ffffffffffffffffffffffffffffffffffffffff1673ffffffffffffffffffffffffffffffffffffffff168152602001908152602001600020819055508173ffffffffffffffffffffffffffffffffffffffff168373ffffffffffffffffffffffffffffffffffffffff167f8c5be1e5ebec7d5bd14f71427d1e84f3dd0314c0f7b2291e5b200ac8c7c3b92583604051610cc89190611ed7565b60405180910390a3505050565b6000610ce18484610a11565b90507fffffffffffffffffffffffffffffffffffffffffffffffffffffffffffffffff8114610d5b5781811015610d4d576040517f08c379a0000000000000000000000000000000000000000000000000000000008152600401610d4490611db7565b60405180910390fd5b610d5a8484848403610b0a565b5b50505050565b600073ffffffffffffffffffffffffffffffffffffffff168373ffffffffffffffffffffffffffffffffffffffff161415610dd1576040517f08c379a0000000000000000000000000000000000000000000000000000000008152600401610dc890611e37565b60405180910390fd5b600073ffffffffffffffffffffffffffffffffffffffff168273ffffffffffffffffffffffffffffffffffffffff161415610e41576040517f08c379a0000000000000000000000000000000000000000000000000000000008152600401610e3890611d57565b60405180910390fd5b610e4c8383836114f4565b6000600160008573ffffffffffffffffffffffffffffffffffffffff1673ffffffffffffffffffffffffffffffffffffffff16815260200190815260200160002054905081811015610ed3576040517f08c379a0000000000000000000000000000000000000000000000000000000008152600401610eca90611dd7565b60405180910390fd5b818103600160008673ffffffffffffffffffffffffffffffffffffffff1673ffffffffffffffffffffffffffffffffffffffff1681526020019081526020016000208190555081600160008573ffffffffffffffffffffffffffffffffffffffff1673ffffffffffffffffffffffffffffffffffffffff1681526020019081526020016000206000828254610f689190611f34565b925050819055508273ffffffffffffffffffffffffffffffffffffffff168473ffffffffffffffffffffffffffffffffffffffff167fddf252ad1be2c89b69c2b068fc378daa952ba7f163c4a11628f55a4df523b3ef84604051610fcc9190611ed7565b60405180910390a3610fdf8484846114f9565b50505050565b610ff681610ff1610b02565b6114fe565b50565b611003828261082f565b6110d557600160008084815260200190815260200160002060000160008373ffffffffffffffffffffffffffffffffffffffff1673ffffffffffffffffffffffffffffffffffffffff16815260200190815260200160002060006101000a81548160ff02191690831515021790555061107a610b02565b73ffffffffffffffffffffffffffffffffffffffff168173ffffffffffffffffffffffffffffffffffffffff16837f2f8788117e7eff1d82e926ec794901d17c78024a50270940304540a733656f0d60405160405180910390a45b5050565b6110e3828261082f565b156111b657600080600084815260200190815260200160002060000160008373ffffffffffffffffffffffffffffffffffffffff1673ffffffffffffffffffffffffffffffffffffffff16815260200190815260200160002060006101000a81548160ff02191690831515021790555061115b610b02565b73ffffffffffffffffffffffffffffffffffffffff168173ffffffffffffffffffffffffffffffffffffffff16837ff6391f5c32d9c69d2a47ea670b442974b53935d1edc7fd64eb21e047a839171b60405160405180910390a45b5050565b600073ffffffffffffffffffffffffffffffffffffffff168273ffffffffffffffffffffffffffffffffffffffff16141561122a576040517f08c379a000000000000000000000000000000000000000000000000000000000815260040161122190611eb7565b60405180910390fd5b611236600083836114f4565b80600360008282546112489190611f34565b9250508190555080600160008473ffffffffffffffffffffffffffffffffffffffff1673ffffffffffffffffffffffffffffffffffffffff168152602001908152602001600020600082825461129e9190611f34565b925050819055508173ffffffffffffffffffffffffffffffffffffffff16600073ffffffffffffffffffffffffffffffffffffffff167fddf252ad1be2c89b69c2b068fc378daa952ba7f163c4a11628f55a4df523b3ef836040516113039190611ed7565b60405180910390a3611317600083836114f9565b5050565b600073ffffffffffffffffffffffffffffffffffffffff168273ffffffffffffffffffffffffffffffffffffffff16141561138b576040517f08c379a000000000000000000000000000000000000000000000000000000000815260040161138290611e17565b60405180910390fd5b611397826000836114f4565b6000600160008473ffffffffffffffffffffffffffffffffffffffff1673ffffffffffffffffffffffffffffffffffffffff1681526020019081526020016000205490508181101561141e576040517f08c379a000000000000000000000000000000000000000000000000000000000815260040161141590611d77565b60405180910390fd5b818103600160008573ffffffffffffffffffffffffffffffffffffffff1673ffffffffffffffffffffffffffffffffffffffff1681526020019081526020016000208190555081600360008282546114769190611fe4565b92505081905550600073ffffffffffffffffffffffffffffffffffffffff168373ffffffffffffffffffffffffffffffffffffffff167fddf252ad1be2c89b69c2b068fc378daa952ba7f163c4a11628f55a4df523b3ef846040516114db9190611ed7565b60405180910390a36114ef836000846114f9565b505050565b505050565b505050565b611508828261082f565b6115975761152d8173ffffffffffffffffffffffffffffffffffffffff16601461159b565b61153b8360001c602061159b565b60405160200161154c929190611ca5565b6040516020818303038152906040526040517f08c379a000000000000000000000000000000000000000000000000000000000815260040161158e9190611d15565b60405180910390fd5b5050565b6060600060028360026115ae9190611f8a565b6115b89190611f34565b67ffffffffffffffff8111156115d1576115d06121bf565b5b6040519080825280601f01601f1916602001820160405280156116035781602001600182028036833780820191505090505b5090507f30000000000000000000000000000000000000000000000000000000000000008160008151811061163b5761163a612190565b5b60200101907effffffffffffffffffffffffffffffffffffffffffffffffffffffffffffff1916908160001a9053507f78000000000000000000000000000000000000000000000000000000000000008160018151811061169f5761169e612190565b5b60200101907effffffffffffffffffffffffffffffffffffffffffffffffffffffffffffff1916908160001a905350600060018460026116df9190611f8a565b6116e99190611f34565b90505b6001811115611789577f3031323334353637383961626364656600000000000000000000000000000000600f86166010811061172b5761172a612190565b5b1a60f81b82828151811061174257611741612190565b5b60200101907effffffffffffffffffffffffffffffffffffffffffffffffffffffffffffff1916908160001a905350600485901c945080611782906120d6565b90506116ec565b50600084146117cd576040517f08c379a00000000000000000000000000000000000000000000000000000000081526004016117c490611d37565b60405180910390fd5b8091505092915050565b6000813590506117e6816125c1565b92915050565b6000813590506117fb816125d8565b92915050565b600081359050611810816125ef565b92915050565b60008135905061182581612606565b92915050565b600060208284031215611841576118406121ee565b5b600061184f848285016117d7565b91505092915050565b6000806040838503121561186f5761186e6121ee565b5b600061187d858286016117d7565b925050602061188e858286016117d7565b9150509250929050565b6000806000606084860312156118b1576118b06121ee565b5b60006118bf868287016117d7565b93505060206118d0868287016117d7565b92505060406118e186828701611816565b9150509250925092565b60008060408385031215611902576119016121ee565b5b6000611910858286016117d7565b925050602061192185828601611816565b9150509250929050565b600060208284031215611941576119406121ee565b5b600061194f848285016117ec565b91505092915050565b6000806040838503121561196f5761196e6121ee565b5b600061197d858286016117ec565b925050602061198e858286016117d7565b9150509250929050565b6000602082840312156119ae576119ad6121ee565b5b60006119bc84828501611801565b91505092915050565b6000602082840312156119db576119da6121ee565b5b60006119e984828501611816565b91505092915050565b6119fb8161202a565b82525050565b611a0a81612036565b82525050565b6000611a1b82611f0d565b611a258185611f18565b9350611a358185602086016120a3565b611a3e816121f3565b840191505092915050565b6000611a5482611f0d565b611a5e8185611f29565b9350611a6e8185602086016120a3565b80840191505092915050565b6000611a87602083611f18565b9150611a9282612204565b602082019050919050565b6000611aaa602383611f18565b9150611ab58261222d565b604082019050919050565b6000611acd602283611f18565b9150611ad88261227c565b604082019050919050565b6000611af0602283611f18565b9150611afb826122cb565b604082019050919050565b6000611b13601d83611f18565b9150611b1e8261231a565b602082019050919050565b6000611b36602683611f18565b9150611b4182612343565b604082019050919050565b6000611b59601583611f18565b9150611b6482612392565b602082019050919050565b6000611b7c602183611f18565b9150611b87826123bb565b604082019050919050565b6000611b9f602583611f18565b9150611baa8261240a565b604082019050919050565b6000611bc2602483611f18565b9150611bcd82612459565b604082019050919050565b6000611be5601783611f29565b9150611bf0826124a8565b601782019050919050565b6000611c08602583611f18565b9150611c13826124d1565b604082019050919050565b6000611c2b601183611f29565b9150611c3682612520565b601182019050919050565b6000611c4e602f83611f18565b9150611c5982612549565b604082019050919050565b6000611c71601f83611f18565b9150611c7c82612598565b602082019050919050565b611c908161208c565b82525050565b611c9f81612096565b82525050565b6000611cb082611bd8565b9150611cbc8285611a49565b9150611cc782611c1e565b9150611cd38284611a49565b91508190509392505050565b6000602082019050611cf460008301846119f2565b92915050565b6000602082019050611d0f6000830184611a01565b92915050565b60006020820190508181036000830152611d2f8184611a10565b905092915050565b60006020820190508181036000830152611d5081611a7a565b9050919050565b60006020820190508181036000830152611d7081611a9d565b9050919050565b60006020820190508181036000830152611d9081611ac0565b9050919050565b60006020820190508181036000830152611db081611ae3565b9050919050565b60006020820190508181036000830152611dd081611b06565b9050919050565b60006020820190508181036000830152611df081611b29565b9050919050565b60006020820190508181036000830152611e1081611b4c565b9050919050565b60006020820190508181036000830152611e3081611b6f565b9050919050565b60006020820190508181036000830152611e5081611b92565b9050919050565b60006020820190508181036000830152611e7081611bb5565b9050919050565b60006020820190508181036000830152611e9081611bfb565b9050919050565b60006020820190508181036000830152611eb081611c41565b9050919050565b60006020820190508181036000830152611ed081611c64565b9050919050565b6000602082019050611eec6000830184611c87565b92915050565b6000602082019050611f076000830184611c96565b92915050565b600081519050919050565b600082825260208201905092915050565b600081905092915050565b6000611f3f8261208c565b9150611f4a8361208c565b9250827fffffffffffffffffffffffffffffffffffffffffffffffffffffffffffffffff03821115611f7f57611f7e612132565b5b828201905092915050565b6000611f958261208c565b9150611fa08361208c565b9250817fffffffffffffffffffffffffffffffffffffffffffffffffffffffffffffffff0483118215151615611fd957611fd8612132565b5b828202905092915050565b6000611fef8261208c565b9150611ffa8361208c565b92508282101561200d5761200c612132565b5b828203905092915050565b60006120238261206c565b9050919050565b60008115159050919050565b6000819050919050565b60007fffffffff0000000000000000000000000000000000000000000000000000000082169050919050565b600073ffffffffffffffffffffffffffffffffffffffff82169050919050565b6000819050919050565b600060ff82169050919050565b60005b838110156120c15780820151818401526020810190506120a6565b838111156120d0576000848401525b50505050565b60006120e18261208c565b915060008214156120f5576120f4612132565b5b600182039050919050565b6000600282049050600182168061211857607f821691505b6020821081141561212c5761212b612161565b5b50919050565b7f4e487b7100000000000000000000000000000000000000000000000000000000600052601160045260246000fd5b7f4e487b7100000000000000000000000000000000000000000000000000000000600052602260045260246000fd5b7f4e487b7100000000000000000000000000000000000000000000000000000000600052603260045260246000fd5b7f4e487b7100000000000000000000000000000000000000000000000000000000600052604160045260246000fd5b600080fd5b6000601f19601f8301169050919050565b7f537472696e67733a20686578206c656e67746820696e73756666696369656e74600082015250565b7f45524332303a207472616e7366657220746f20746865207a65726f206164647260008201527f6573730000000000000000000000000000000000000000000000000000000000602082015250565b7f45524332303a206275726e20616d6f756e7420657863656564732062616c616e60008201527f6365000000000000000000000000000000000000000000000000000000000000602082015250565b7f45524332303a20617070726f766520746f20746865207a65726f20616464726560008201527f7373000000000000000000000000000000000000000000000000000000000000602082015250565b7f45524332303a20696e73756666696369656e7420616c6c6f77616e6365000000600082015250565b7f45524332303a207472616e7366657220616d6f756e742065786365656473206260008201527f616c616e63650000000000000000000000000000000000000000000000000000602082015250565b7f4c4954546f6b656e3a206f6e6c79206d696e7465720000000000000000000000600082015250565b7f45524332303a206275726e2066726f6d20746865207a65726f2061646472657360008201527f7300000000000000000000000000000000000000000000000000000000000000602082015250565b7f45524332303a207472616e736665722066726f6d20746865207a65726f20616460008201527f6472657373000000000000000000000000000000000000000000000000000000602082015250565b7f45524332303a20617070726f76652066726f6d20746865207a65726f2061646460008201527f7265737300000000000000000000000000000000000000000000000000000000602082015250565b7f416363657373436f6e74726f6c3a206163636f756e7420000000000000000000600082015250565b7f45524332303a2064656372656173656420616c6c6f77616e63652062656c6f7760008201527f207a65726f000000000000000000000000000000000000000000000000000000602082015250565b7f206973206d697373696e6720726f6c6520000000000000000000000000000000600082015250565b7f416363657373436f6e74726f6c3a2063616e206f6e6c792072656e6f756e636560008201527f20726f6c657320666f722073656c660000000000000000000000000000000000602082015250565b7f45524332303a206d696e7420746f20746865207a65726f206164647265737300600082015250565b6125ca81612018565b81146125d557600080fd5b50565b6125e181612036565b81146125ec57600080fd5b50565b6125f881612040565b811461260357600080fd5b50565b61260f8161208c565b811461261a57600080fd5b5056fea264697066735822122029b8666de96caeeb5d019b565e7fc176c2a6bc6807ecdf282a7d6f7916043e9364736f6c63430008070033","abi":[{"inputs":[],"stateMutability":"nonpayable","type":"constructor"},{"anonymous":false,"inputs":[{"indexed":true,"internalType":"address","name":"owner","type":"address"},{"indexed":true,"internalType":"address","name":"spender","type":"address"},{"indexed":false,"internalType":"uint256","name":"value","type":"uint256"}],"name":"Approval","type":"event"},{"anonymous":false,"inputs":[{"indexed":true,"internalType":"bytes32","name":"role","type":"bytes32"},{"indexed":true,"internalType":"bytes32","name":"previousAdminRole","type":"bytes32"},{"indexed":true,"internalType":"bytes32","name":"newAdminRole","type":"bytes32"}],"name":"RoleAdminChanged","type":"event"},{"anonymous":false,"inputs":[{"indexed":true,"internalType":"bytes32","name":"role","type":"bytes32"},{"indexed":true,"internalType":"address","name":"account","type":"address"},{"indexed":true,"internalType":"address","name":"sender","type":"address"}],"name":"RoleGranted","type":"event"},{"anonymous":false,"inputs":[{"indexed":true,"internalType":"bytes32","name":"role","type":"bytes32"},{"indexed":true,"internalType":"address","name":"account","type":"address"},{"indexed":true,"internalType":"address","name":"sender","type":"address"}],"name":"RoleRevoked","type":"event"},{"anonymous":false,"inputs":[{"indexed":true,"internalType":"address","name":"from","type":"address"},{"indexed":true,"internalType":"address","name":"to","type":"address"},{"indexed":false,"internalType":"uint256","name":"value","type":"uint256"}],"name":"Transfer","type":"event"},{"inputs":[],"name":"ADMIN_ROLE","outputs":[{"internalType":"bytes32","name":"","type":"bytes32"}],"stateMutability":"view","type":"function"},{"inputs":[],"name":"DEFAULT_ADMIN_ROLE","outputs":[{"internalType":"bytes32","name":"","type":"bytes32"}],"stateMutability":"view","type":"function"},{"inputs":[],"name":"MINTER_ROLE","outputs":[{"internalType":"bytes32","name":"","type":"bytes32"}],"stateMutability":"view","type":"function"},{"inputs":[{"internalType":"address","name":"owner","type":"address"},{"internalType":"address","name":"spender","type":"address"}],"name":"allowance","outputs":[{"internalType":"uint256","name":"","type":"uint256"}],"stateMutability":"view","type":"function"},{"inputs":[{"internalType":"address","name":"spender","type":"address"},{"internalType":"uint256","name":"amount","type":"uint256"}],"name":"approve","outputs":[{"internalType":"bool","name":"","type":"bool"}],"stateMutability":"nonpayable","type":"function"},{"inputs":[{"internalType":"address","name":"account","type":"address"}],"name":"balanceOf","outputs":[{"internalType":"uint256","name":"","type":"uint256"}],"stateMutability":"view","type":"function"},{"inputs":[{"internalType":"uint256","name":"amount","type":"uint256"}],"name":"burn","outputs":[],"stateMutability":"nonpayable","type":"function"},{"inputs":[{"internalType":"address","name":"account","type":"address"},{"internalType":"uint256","name":"amount","type":"uint256"}],"name":"burnFrom","outputs":[],"stateMutability":"nonpayable","type":"function"},{"inputs":[],"name":"decimals","outputs":[{"internalType":"uint8","name":"","type":"uint8"}],"stateMutability":"view","type":"function"},{"inputs":[{"internalType":"address","name":"spender","type":"address"},{"internalType":"uint256","name":"subtractedValue","type":"uint256"}],"name":"decreaseAllowance","outputs":[{"internalType":"bool","name":"","type":"bool"}],"stateMutability":"nonpayable","type":"function"},{"inputs":[{"internalType":"bytes32","name":"role","type":"bytes32"}],"name":"getRoleAdmin","outputs":[{"internalType":"bytes32","name":"","type":"bytes32"}],"stateMutability":"view","type":"function"},{"inputs":[{"internalType":"bytes32","name":"role","type":"bytes32"},{"internalType":"address","name":"account","type":"address"}],"name":"grantRole","outputs":[],"stateMutability":"nonpayable","type":"function"},{"inputs":[{"internalType":"bytes32","name":"role","type":"bytes32"},{"internalType":"address","name":"account","type":"address"}],"name":"hasRole","outputs":[{"internalType":"bool","name":"","type":"bool"}],"stateMutability":"view","type":"function"},{"inputs":[{"internalType":"address","name":"spender","type":"address"},{"internalType":"uint256","name":"addedValue","type":"uint256"}],"name":"increaseAllowance","outputs":[{"internalType":"bool","name":"","type":"bool"}],"stateMutability":"nonpayable","type":"function"},{"inputs":[{"internalType":"address","name":"_recipient","type":"address"},{"internalType":"uint256","name":"_amount","type":"uint256"}],"name":"mint","outputs":[],"stateMutability":"nonpayable","type":"function"},{"inputs":[],"name":"name","outputs":[{"internalType":"string","name":"","type":"string"}],"stateMutability":"view","type":"function"},{"inputs":[{"internalType":"bytes32","name":"role","type":"bytes32"},{"internalType":"address","name":"account","type":"address"}],"name":"renounceRole","outputs":[],"stateMutability":"nonpayable","type":"function"},{"inputs":[{"internalType":"bytes32","name":"role","type":"bytes32"},{"internalType":"address","name":"account","type":"address"}],"name":"revokeRole","outputs":[],"stateMutability":"nonpayable","type":"function"},{"inputs":[{"internalType":"bytes4","name":"interfaceId","type":"bytes4"}],"name":"supportsInterface","outputs":[{"internalType":"bool","name":"","type":"bool"}],"stateMutability":"view","type":"function"},{"inputs":[],"name":"symbol","outputs":[{"internalType":"string","name":"","type":"string"}],"stateMutability":"view","type":"function"},{"inputs":[],"name":"totalSupply","outputs":[{"internalType":"uint256","name":"","type":"uint256"}],"stateMutability":"view","type":"function"},{"inputs":[{"internalType":"address","name":"to","type":"address"},{"internalType":"uint256","name":"amount","type":"uint256"}],"name":"transfer","outputs":[{"internalType":"bool","name":"","type":"bool"}],"stateMutability":"nonpayable","type":"function"},{"inputs":[{"internalType":"address","name":"from","type":"address"},{"internalType":"address","name":"to","type":"address"},{"internalType":"uint256","name":"amount","type":"uint256"}],"name":"transferFrom","outputs":[{"internalType":"bool","name":"","type":"bool"}],"stateMutability":"nonpayable","type":"function"}]}