{"address":"0xa9EB5AA8eCE18213215b4fBd099A8b59E3696664","bytecode":"0x608060405234801561001057600080fd5b5061002d61002261003260201b60201c565b61003a60201b60201c565b6100fe565b600033905090565b60008060009054906101000a900473ffffffffffffffffffffffffffffffffffffffff169050816000806101000a81548173ffffffffffffffffffffffffffffffffffffffff021916908373ffffffffffffffffffffffffffffffffffffffff1602179055508173ffffffffffffffffffffffffffffffffffffffff168173ffffffffffffffffffffffffffffffffffffffff167f8be0079c531659141344cd1fd0a4f28419497f9722a3daafe3b4186f6b6457e060405160405180910390a35050565b610c378061010d6000396000f3fe6080604052600436106100705760003560e01c80636ecf13861161004e5780636ecf1386146100d1578063715018a6146100fa5780638da5cb5b14610111578063f2fde38b1461013c57610070565b80633b2fe781146100755780633ccfd60b1461009157806349df728c146100a8575b600080fd5b61008f600480360381019061008a91906107dc565b610165565b005b34801561009d57600080fd5b506100a661020d565b005b3480156100b457600080fd5b506100cf60048036038101906100ca91906107af565b61025e565b005b3480156100dd57600080fd5b506100f860048036038101906100f39190610829565b61038b565b005b34801561010657600080fd5b5061010f61050f565b005b34801561011d57600080fd5b50610126610523565b6040516101339190610947565b60405180910390f35b34801561014857600080fd5b50610163600480360381019061015e91906107af565b61054c565b005b6000828290503461017691906109dc565b905060005b838390508110156102075783838281811061019957610198610afc565b5b90506020020160208101906101ae91906107af565b73ffffffffffffffffffffffffffffffffffffffff166108fc839081150290604051600060405180830381858888f193505050501580156101f3573d6000803e3d6000fd5b5080806101ff90610a55565b91505061017b565b50505050565b6102156105d0565b3373ffffffffffffffffffffffffffffffffffffffff166108fc479081150290604051600060405180830381858888f1935050505015801561025b573d6000803e3d6000fd5b50565b6102666105d0565b600081905060008173ffffffffffffffffffffffffffffffffffffffff166370a08231306040518263ffffffff1660e01b81526004016102a69190610947565b60206040518083038186803b1580156102be57600080fd5b505afa1580156102d2573d6000803e3d6000fd5b505050506040513d601f19601f820116820180604052508101906102f691906108b6565b90508173ffffffffffffffffffffffffffffffffffffffff1663a9059cbb33836040518363ffffffff1660e01b8152600401610333929190610962565b602060405180830381600087803b15801561034d57600080fd5b505af1158015610361573d6000803e3d6000fd5b505050506040513d601f19601f820116820180604052508101906103859190610889565b50505050565b600081905060008173ffffffffffffffffffffffffffffffffffffffff166370a08231306040518263ffffffff1660e01b81526004016103cb9190610947565b60206040518083038186803b1580156103e357600080fd5b505afa1580156103f7573d6000803e3d6000fd5b505050506040513d601f19601f8201168201806040525081019061041b91906108b6565b90506000858590508261042e91906109dc565b905060005b86869050811015610506578373ffffffffffffffffffffffffffffffffffffffff1663a9059cbb88888481811061046d5761046c610afc565b5b905060200201602081019061048291906107af565b846040518363ffffffff1660e01b81526004016104a0929190610962565b602060405180830381600087803b1580156104ba57600080fd5b505af11580156104ce573d6000803e3d6000fd5b505050506040513d601f19601f820116820180604052508101906104f29190610889565b5080806104fe90610a55565b915050610433565b50505050505050565b6105176105d0565b610521600061064e565b565b60008060009054906101000a900473ffffffffffffffffffffffffffffffffffffffff16905090565b6105546105d0565b600073ffffffffffffffffffffffffffffffffffffffff168173ffffffffffffffffffffffffffffffffffffffff1614156105c4576040517f08c379a00000000000000000000000000000000000000000000000000000000081526004016105bb9061098b565b60405180910390fd5b6105cd8161064e565b50565b6105d8610712565b73ffffffffffffffffffffffffffffffffffffffff166105f6610523565b73ffffffffffffffffffffffffffffffffffffffff161461064c576040517f08c379a0000000000000000000000000000000000000000000000000000000008152600401610643906109ab565b60405180910390fd5b565b60008060009054906101000a900473ffffffffffffffffffffffffffffffffffffffff169050816000806101000a81548173ffffffffffffffffffffffffffffffffffffffff021916908373ffffffffffffffffffffffffffffffffffffffff1602179055508173ffffffffffffffffffffffffffffffffffffffff168173ffffffffffffffffffffffffffffffffffffffff167f8be0079c531659141344cd1fd0a4f28419497f9722a3daafe3b4186f6b6457e060405160405180910390a35050565b600033905090565b60008135905061072981610bbc565b92915050565b60008083601f84011261074557610744610b30565b5b8235905067ffffffffffffffff81111561076257610761610b2b565b5b60208301915083602082028301111561077e5761077d610b35565b5b9250929050565b60008151905061079481610bd3565b92915050565b6000815190506107a981610bea565b92915050565b6000602082840312156107c5576107c4610b3f565b5b60006107d38482850161071a565b91505092915050565b600080602083850312156107f3576107f2610b3f565b5b600083013567ffffffffffffffff81111561081157610810610b3a565b5b61081d8582860161072f565b92509250509250929050565b60008060006040848603121561084257610841610b3f565b5b600084013567ffffffffffffffff8111156108605761085f610b3a565b5b61086c8682870161072f565b9350935050602061087f8682870161071a565b9150509250925092565b60006020828403121561089f5761089e610b3f565b5b60006108ad84828501610785565b91505092915050565b6000602082840312156108cc576108cb610b3f565b5b60006108da8482850161079a565b91505092915050565b6108ec81610a0d565b82525050565b60006108ff6026836109cb565b915061090a82610b44565b604082019050919050565b60006109226020836109cb565b915061092d82610b93565b602082019050919050565b61094181610a4b565b82525050565b600060208201905061095c60008301846108e3565b92915050565b600060408201905061097760008301856108e3565b6109846020830184610938565b9392505050565b600060208201905081810360008301526109a4816108f2565b9050919050565b600060208201905081810360008301526109c481610915565b9050919050565b600082825260208201905092915050565b60006109e782610a4b565b91506109f283610a4b565b925082610a0257610a01610acd565b5b828204905092915050565b6000610a1882610a2b565b9050919050565b60008115159050919050565b600073ffffffffffffffffffffffffffffffffffffffff82169050919050565b6000819050919050565b6000610a6082610a4b565b91507fffffffffffffffffffffffffffffffffffffffffffffffffffffffffffffffff821415610a9357610a92610a9e565b5b600182019050919050565b7f4e487b7100000000000000000000000000000000000000000000000000000000600052601160045260246000fd5b7f4e487b7100000000000000000000000000000000000000000000000000000000600052601260045260246000fd5b7f4e487b7100000000000000000000000000000000000000000000000000000000600052603260045260246000fd5b600080fd5b600080fd5b600080fd5b600080fd5b600080fd5b7f4f776e61626c653a206e6577206f776e657220697320746865207a65726f206160008201527f6464726573730000000000000000000000000000000000000000000000000000602082015250565b7f4f776e61626c653a2063616c6c6572206973206e6f7420746865206f776e6572600082015250565b610bc581610a0d565b8114610bd057600080fd5b50565b610bdc81610a1f565b8114610be757600080fd5b50565b610bf381610a4b565b8114610bfe57600080fd5b5056fea26469706673582212205024ab2502429157371b3eceb9dbed106dece9cb718f9921aad65aec0f2888e664736f6c63430008070033","abi":[{"anonymous":false,"inputs":[{"indexed":true,"internalType":"address","name":"previousOwner","type":"address"},{"indexed":true,"internalType":"address","name":"newOwner","type":"address"}],"name":"OwnershipTransferred","type":"event"},{"inputs":[],"name":"owner","outputs":[{"internalType":"address","name":"","type":"address"}],"stateMutability":"view","type":"function"},{"inputs":[],"name":"renounceOwnership","outputs":[],"stateMutability":"nonpayable","type":"function"},{"inputs":[{"internalType":"address[]","name":"_recipients","type":"address[]"}],"name":"sendEth","outputs":[],"stateMutability":"payable","type":"function"},{"inputs":[{"internalType":"address[]","name":"_recipients","type":"address[]"},{"internalType":"address","name":"tokenContract","type":"address"}],"name":"sendTokens","outputs":[],"stateMutability":"nonpayable","type":"function"},{"inputs":[{"internalType":"address","name":"newOwner","type":"address"}],"name":"transferOwnership","outputs":[],"stateMutability":"nonpayable","type":"function"},{"inputs":[],"name":"withdraw","outputs":[],"stateMutability":"nonpayable","type":"function"},{"inputs":[{"internalType":"address","name":"tokenContract","type":"address"}],"name":"withdrawTokens","outputs":[],"stateMutability":"nonpayable","type":"function"}]}