{"address":"0xF894d12EE3E912051CDEE5957B219EB71bcb3B6D","bytecode":"0x60806040523480156200001157600080fd5b506040516200248a3803806200248a8339818101604052810190620000379190620001c4565b620000576200004b620000e160201b60201c565b620000e960201b60201c565b81600160006101000a81548173ffffffffffffffffffffffffffffffffffffffff021916908373ffffffffffffffffffffffffffffffffffffffff16021790555080600260006101000a81548173ffffffffffffffffffffffffffffffffffffffff021916908373ffffffffffffffffffffffffffffffffffffffff16021790555050506200025e565b600033905090565b60008060009054906101000a900473ffffffffffffffffffffffffffffffffffffffff169050816000806101000a81548173ffffffffffffffffffffffffffffffffffffffff021916908373ffffffffffffffffffffffffffffffffffffffff1602179055508173ffffffffffffffffffffffffffffffffffffffff168173ffffffffffffffffffffffffffffffffffffffff167f8be0079c531659141344cd1fd0a4f28419497f9722a3daafe3b4186f6b6457e060405160405180910390a35050565b600081519050620001be8162000244565b92915050565b60008060408385031215620001de57620001dd6200023f565b5b6000620001ee85828601620001ad565b92505060206200020185828601620001ad565b9150509250929050565b600062000218826200021f565b9050919050565b600073ffffffffffffffffffffffffffffffffffffffff82169050919050565b600080fd5b6200024f816200020b565b81146200025b57600080fd5b50565b61221c806200026e6000396000f3fe6080604052600436106100915760003560e01c80638da5cb5b116100595780638da5cb5b1461016c57806397016f3f146101975780639fba176b146101c2578063f2fde38b146101f2578063ffa2e9531461021b57610091565b8063150b7a0214610096578063176354fd146100d35780631ea89a22146100fc5780631f71cb3114610125578063715018a614610155575b600080fd5b3480156100a257600080fd5b506100bd60048036038101906100b8919061134a565b610246565b6040516100ca9190611958565b60405180910390f35b3480156100df57600080fd5b506100fa60048036038101906100f591906112f0565b6102eb565b005b34801561010857600080fd5b50610123600480360381019061011e91906112f0565b610337565b005b61013f600480360381019061013a91906113ff565b610383565b60405161014c9190611aa9565b60405180910390f35b34801561016157600080fd5b5061016a610b61565b005b34801561017857600080fd5b50610181610b75565b60405161018e9190611906565b60405180910390f35b3480156101a357600080fd5b506101ac610b9e565b6040516101b9919061198e565b60405180910390f35b6101dc60048036038101906101d791906115d3565b610bc4565b6040516101e99190611aa9565b60405180910390f35b3480156101fe57600080fd5b50610219600480360381019061021491906112f0565b610d19565b005b34801561022757600080fd5b50610230610d9d565b60405161023d9190611973565b60405180910390f35b6000600160009054906101000a900473ffffffffffffffffffffffffffffffffffffffff1673ffffffffffffffffffffffffffffffffffffffff163373ffffffffffffffffffffffffffffffffffffffff16146102d8576040517f08c379a00000000000000000000000000000000000000000000000000000000081526004016102cf90611a29565b60405180910390fd5b63150b7a0260e01b905095945050505050565b6102f3610dc3565b80600160006101000a81548173ffffffffffffffffffffffffffffffffffffffff021916908373ffffffffffffffffffffffffffffffffffffffff16021790555050565b61033f610dc3565b80600260006101000a81548173ffffffffffffffffffffffffffffffffffffffff021916908373ffffffffffffffffffffffffffffffffffffffff16021790555050565b600080600160009054906101000a900473ffffffffffffffffffffffffffffffffffffffff1673ffffffffffffffffffffffffffffffffffffffff16635d228b16348f6040518363ffffffff1660e01b81526004016103e29190611aa9565b6020604051808303818588803b1580156103fb57600080fd5b505af115801561040f573d6000803e3d6000fd5b50505050506040513d601f19601f8201168201806040525081019061043491906113d2565b90508a518c511461047a576040517f08c379a0000000000000000000000000000000000000000000000000000000008152600401610471906119e9565b60405180910390fd5b88518a51146104be576040517f08c379a00000000000000000000000000000000000000000000000000000000081526004016104b590611a69565b60405180910390fd5b8651885114610502576040517f08c379a00000000000000000000000000000000000000000000000000000000081526004016104f990611a89565b60405180910390fd5b8551885114610546576040517f08c379a000000000000000000000000000000000000000000000000000000000815260040161053d90611a49565b60405180910390fd5b845188511461058a576040517f08c379a0000000000000000000000000000000000000000000000000000000008152600401610581906119a9565b60405180910390fd5b60008c51146106795760005b8c5181101561067757600260009054906101000a900473ffffffffffffffffffffffffffffffffffffffff1673ffffffffffffffffffffffffffffffffffffffff16638a431578838f84815181106105f1576105f0611ec2565b5b60200260200101518f858151811061060c5761060b611ec2565b5b60200260200101516040518463ffffffff1660e01b815260040161063293929190611b02565b600060405180830381600087803b15801561064c57600080fd5b505af1158015610660573d6000803e3d6000fd5b50505050808061066f90611e4a565b915050610596565b505b60008a51146107685760005b8a5181101561076657600260009054906101000a900473ffffffffffffffffffffffffffffffffffffffff1673ffffffffffffffffffffffffffffffffffffffff16631663c121838d84815181106106e0576106df611ec2565b5b60200260200101518d85815181106106fb576106fa611ec2565b5b60200260200101516040518463ffffffff1660e01b815260040161072193929190611ac4565b600060405180830381600087803b15801561073b57600080fd5b505af115801561074f573d6000803e3d6000fd5b50505050808061075e90611e4a565b915050610685565b505b600088511461088f5760005b885181101561088d57600260009054906101000a900473ffffffffffffffffffffffffffffffffffffffff1673ffffffffffffffffffffffffffffffffffffffff16635e1cab66838b84815181106107cf576107ce611ec2565b5b60200260200101518b85815181106107ea576107e9611ec2565b5b60200260200101518b868151811061080557610804611ec2565b5b60200260200101518b87815181106108205761081f611ec2565b5b60200260200101516040518663ffffffff1660e01b8152600401610848959493929190611b47565b600060405180830381600087803b15801561086257600080fd5b505af1158015610876573d6000803e3d6000fd5b50505050808061088590611e4a565b915050610774565b505b6000600260009054906101000a900473ffffffffffffffffffffffffffffffffffffffff1673ffffffffffffffffffffffffffffffffffffffff1663bd4986a0836040518263ffffffff1660e01b81526004016108ec9190611aa9565b60206040518083038186803b15801561090457600080fd5b505afa158015610918573d6000803e3d6000fd5b505050506040513d601f19601f8201168201806040525081019061093c919061131d565b90508415610a1f57600260009054906101000a900473ffffffffffffffffffffffffffffffffffffffff1673ffffffffffffffffffffffffffffffffffffffff16631663c1218383600067ffffffffffffffff81111561099f5761099e611ef1565b5b6040519080825280602002602001820160405280156109cd5781602001602082028036833780820191505090505b506040518463ffffffff1660e01b81526004016109ec93929190611ac4565b600060405180830381600087803b158015610a0657600080fd5b505af1158015610a1a573d6000803e3d6000fd5b505050505b8315610abb57600160009054906101000a900473ffffffffffffffffffffffffffffffffffffffff1673ffffffffffffffffffffffffffffffffffffffff166342842e0e3083856040518463ffffffff1660e01b8152600401610a8493929190611921565b600060405180830381600087803b158015610a9e57600080fd5b505af1158015610ab2573d6000803e3d6000fd5b50505050610b4d565b600160009054906101000a900473ffffffffffffffffffffffffffffffffffffffff1673ffffffffffffffffffffffffffffffffffffffff166342842e0e3033856040518463ffffffff1660e01b8152600401610b1a93929190611921565b600060405180830381600087803b158015610b3457600080fd5b505af1158015610b48573d6000803e3d6000fd5b505050505b81925050509b9a5050505050505050505050565b610b69610dc3565b610b736000610e41565b565b60008060009054906101000a900473ffffffffffffffffffffffffffffffffffffffff16905090565b600260009054906101000a900473ffffffffffffffffffffffffffffffffffffffff1681565b6000610d0c88600067ffffffffffffffff811115610be557610be4611ef1565b5b604051908082528060200260200182016040528015610c1857816020015b6060815260200190600190039081610c035790505b50600067ffffffffffffffff811115610c3457610c33611ef1565b5b604051908082528060200260200182016040528015610c6757816020015b6060815260200190600190039081610c525790505b50600067ffffffffffffffff811115610c8357610c82611ef1565b5b604051908082528060200260200182016040528015610cb15781602001602082028036833780820191505090505b50600067ffffffffffffffff811115610ccd57610ccc611ef1565b5b604051908082528060200260200182016040528015610d0057816020015b6060815260200190600190039081610ceb5790505b508c8c8c8c8c8c610383565b9050979650505050505050565b610d21610dc3565b600073ffffffffffffffffffffffffffffffffffffffff168173ffffffffffffffffffffffffffffffffffffffff161415610d91576040517f08c379a0000000000000000000000000000000000000000000000000000000008152600401610d88906119c9565b60405180910390fd5b610d9a81610e41565b50565b600160009054906101000a900473ffffffffffffffffffffffffffffffffffffffff1681565b610dcb610f05565b73ffffffffffffffffffffffffffffffffffffffff16610de9610b75565b73ffffffffffffffffffffffffffffffffffffffff1614610e3f576040517f08c379a0000000000000000000000000000000000000000000000000000000008152600401610e3690611a09565b60405180910390fd5b565b60008060009054906101000a900473ffffffffffffffffffffffffffffffffffffffff169050816000806101000a81548173ffffffffffffffffffffffffffffffffffffffff021916908373ffffffffffffffffffffffffffffffffffffffff1602179055508173ffffffffffffffffffffffffffffffffffffffff168173ffffffffffffffffffffffffffffffffffffffff167f8be0079c531659141344cd1fd0a4f28419497f9722a3daafe3b4186f6b6457e060405160405180910390a35050565b600033905090565b6000610f20610f1b84611bd4565b611baf565b90508083825260208201905082856020860282011115610f4357610f42611f2a565b5b60005b85811015610f735781610f59888261114b565b845260208401935060208301925050600181019050610f46565b5050509392505050565b6000610f90610f8b84611c00565b611baf565b90508083825260208201905082856020860282011115610fb357610fb2611f2a565b5b60005b8581101561100157813567ffffffffffffffff811115610fd957610fd8611f25565b5b808601610fe689826111ff565b85526020850194506020840193505050600181019050610fb6565b5050509392505050565b600061101e61101984611c2c565b611baf565b9050808382526020820190508285602086028201111561104157611040611f2a565b5b60005b8581101561108f57813567ffffffffffffffff81111561106757611066611f25565b5b8086016110748982611298565b85526020850194506020840193505050600181019050611044565b5050509392505050565b60006110ac6110a784611c58565b611baf565b905080838252602082019050828560208602820111156110cf576110ce611f2a565b5b60005b858110156110ff57816110e588826112c6565b8452602084019350602083019250506001810190506110d2565b5050509392505050565b600061111c61111784611c84565b611baf565b90508281526020810184848401111561113857611137611f2f565b5b611143848285611dd7565b509392505050565b60008135905061115a816121a1565b92915050565b60008151905061116f816121a1565b92915050565b600082601f83011261118a57611189611f25565b5b813561119a848260208601610f0d565b91505092915050565b600082601f8301126111b8576111b7611f25565b5b81356111c8848260208601610f7d565b91505092915050565b600082601f8301126111e6576111e5611f25565b5b81356111f684826020860161100b565b91505092915050565b600082601f83011261121457611213611f25565b5b8135611224848260208601611099565b91505092915050565b60008135905061123c816121b8565b92915050565b60008083601f84011261125857611257611f25565b5b8235905067ffffffffffffffff81111561127557611274611f20565b5b60208301915083600182028301111561129157611290611f2a565b5b9250929050565b600082601f8301126112ad576112ac611f25565b5b81356112bd848260208601611109565b91505092915050565b6000813590506112d5816121cf565b92915050565b6000815190506112ea816121cf565b92915050565b60006020828403121561130657611305611f39565b5b60006113148482850161114b565b91505092915050565b60006020828403121561133357611332611f39565b5b600061134184828501611160565b91505092915050565b60008060008060006080868803121561136657611365611f39565b5b60006113748882890161114b565b95505060206113858882890161114b565b9450506040611396888289016112c6565b935050606086013567ffffffffffffffff8111156113b7576113b6611f34565b5b6113c388828901611242565b92509250509295509295909350565b6000602082840312156113e8576113e7611f39565b5b60006113f6848285016112db565b91505092915050565b60008060008060008060008060008060006101608c8e03121561142557611424611f39565b5b60006114338e828f016112c6565b9b505060208c013567ffffffffffffffff81111561145457611453611f34565b5b6114608e828f016111d1565b9a505060408c013567ffffffffffffffff81111561148157611480611f34565b5b61148d8e828f016111a3565b99505060608c013567ffffffffffffffff8111156114ae576114ad611f34565b5b6114ba8e828f01611175565b98505060808c013567ffffffffffffffff8111156114db576114da611f34565b5b6114e78e828f016111a3565b97505060a08c013567ffffffffffffffff81111561150857611507611f34565b5b6115148e828f016111ff565b96505060c08c013567ffffffffffffffff81111561153557611534611f34565b5b6115418e828f016111d1565b95505060e08c013567ffffffffffffffff81111561156257611561611f34565b5b61156e8e828f016111d1565b9450506101008c013567ffffffffffffffff8111156115905761158f611f34565b5b61159c8e828f016111a3565b9350506101206115ae8e828f0161122d565b9250506101406115c08e828f0161122d565b9150509295989b509295989b9093969950565b600080600080600080600060e0888a0312156115f2576115f1611f39565b5b60006116008a828b016112c6565b975050602088013567ffffffffffffffff81111561162157611620611f34565b5b61162d8a828b016111ff565b965050604088013567ffffffffffffffff81111561164e5761164d611f34565b5b61165a8a828b016111d1565b955050606088013567ffffffffffffffff81111561167b5761167a611f34565b5b6116878a828b016111d1565b945050608088013567ffffffffffffffff8111156116a8576116a7611f34565b5b6116b48a828b016111a3565b93505060a06116c58a828b0161122d565b92505060c06116d68a828b0161122d565b91505092959891949750929550565b60006116f183836118e8565b60208301905092915050565b61170681611d1b565b82525050565b600061171782611cc5565b6117218185611ce8565b935061172c83611cb5565b8060005b8381101561175d57815161174488826116e5565b975061174f83611cdb565b925050600181019050611730565b5085935050505092915050565b61177381611d39565b82525050565b600061178482611cd0565b61178e8185611cf9565b935061179e818560208601611de6565b6117a781611f3e565b840191505092915050565b6117bb81611d8f565b82525050565b6117ca81611da1565b82525050565b60006117dd603f83611d0a565b91506117e882611f4f565b604082019050919050565b6000611800602683611d0a565b915061180b82611f9e565b604082019050919050565b6000611823603683611d0a565b915061182e82611fed565b604082019050919050565b6000611846602083611d0a565b91506118518261203c565b602082019050919050565b6000611869603a83611d0a565b915061187482612065565b604082019050919050565b600061188c603f83611d0a565b9150611897826120b4565b604082019050919050565b60006118af603583611d0a565b91506118ba82612103565b604082019050919050565b60006118d2603b83611d0a565b91506118dd82612152565b604082019050919050565b6118f181611d85565b82525050565b61190081611d85565b82525050565b600060208201905061191b60008301846116fd565b92915050565b600060608201905061193660008301866116fd565b61194360208301856116fd565b61195060408301846118f7565b949350505050565b600060208201905061196d600083018461176a565b92915050565b600060208201905061198860008301846117b2565b92915050565b60006020820190506119a360008301846117c1565b92915050565b600060208201905081810360008301526119c2816117d0565b9050919050565b600060208201905081810360008301526119e2816117f3565b9050919050565b60006020820190508181036000830152611a0281611816565b9050919050565b60006020820190508181036000830152611a2281611839565b9050919050565b60006020820190508181036000830152611a428161185c565b9050919050565b60006020820190508181036000830152611a628161187f565b9050919050565b60006020820190508181036000830152611a82816118a2565b9050919050565b60006020820190508181036000830152611aa2816118c5565b9050919050565b6000602082019050611abe60008301846118f7565b92915050565b6000606082019050611ad960008301866118f7565b611ae660208301856116fd565b8181036040830152611af8818461170c565b9050949350505050565b6000606082019050611b1760008301866118f7565b8181036020830152611b298185611779565b90508181036040830152611b3d818461170c565b9050949350505050565b600060a082019050611b5c60008301886118f7565b611b6960208301876118f7565b8181036040830152611b7b8186611779565b90508181036060830152611b8f8185611779565b90508181036080830152611ba3818461170c565b90509695505050505050565b6000611bb9611bca565b9050611bc58282611e19565b919050565b6000604051905090565b600067ffffffffffffffff821115611bef57611bee611ef1565b5b602082029050602081019050919050565b600067ffffffffffffffff821115611c1b57611c1a611ef1565b5b602082029050602081019050919050565b600067ffffffffffffffff821115611c4757611c46611ef1565b5b602082029050602081019050919050565b600067ffffffffffffffff821115611c7357611c72611ef1565b5b602082029050602081019050919050565b600067ffffffffffffffff821115611c9f57611c9e611ef1565b5b611ca882611f3e565b9050602081019050919050565b6000819050602082019050919050565b600081519050919050565b600081519050919050565b6000602082019050919050565b600082825260208201905092915050565b600082825260208201905092915050565b600082825260208201905092915050565b6000611d2682611d65565b9050919050565b60008115159050919050565b60007fffffffff0000000000000000000000000000000000000000000000000000000082169050919050565b600073ffffffffffffffffffffffffffffffffffffffff82169050919050565b6000819050919050565b6000611d9a82611db3565b9050919050565b6000611dac82611db3565b9050919050565b6000611dbe82611dc5565b9050919050565b6000611dd082611d65565b9050919050565b82818337600083830152505050565b60005b83811015611e04578082015181840152602081019050611de9565b83811115611e13576000848401525b50505050565b611e2282611f3e565b810181811067ffffffffffffffff82111715611e4157611e40611ef1565b5b80604052505050565b6000611e5582611d85565b91507fffffffffffffffffffffffffffffffffffffffffffffffffffffffffffffffff821415611e8857611e87611e93565b5b600182019050919050565b7f4e487b7100000000000000000000000000000000000000000000000000000000600052601160045260246000fd5b7f4e487b7100000000000000000000000000000000000000000000000000000000600052603260045260246000fd5b7f4e487b7100000000000000000000000000000000000000000000000000000000600052604160045260246000fd5b600080fd5b600080fd5b600080fd5b600080fd5b600080fd5b600080fd5b6000601f19601f8301169050919050565b7f504b5048656c7065723a2061757468206d6574686f64207479706520616e642060008201527f73636f706573206172726179206c656e67746873206d757374206d6174636800602082015250565b7f4f776e61626c653a206e6577206f776e657220697320746865207a65726f206160008201527f6464726573730000000000000000000000000000000000000000000000000000602082015250565b7f504b5048656c7065723a20697066732063696420616e642073636f706520617260008201527f726179206c656e67746873206d757374206d6174636800000000000000000000602082015250565b7f4f776e61626c653a2063616c6c6572206973206e6f7420746865206f776e6572600082015250565b7f504b5048656c7065723a206f6e6c792061636365707473207472616e7366657260008201527f732066726f6d2074686520504b504e465420636f6e7472616374000000000000602082015250565b7f504b5048656c7065723a2061757468206d6574686f64207479706520616e642060008201527f7075626b6579206172726179206c656e67746873206d757374206d6174636800602082015250565b7f504b5048656c7065723a206164647265737320616e642073636f70652061727260008201527f6179206c656e67746873206d757374206d617463680000000000000000000000602082015250565b7f504b5048656c7065723a2061757468206d6574686f64207479706520616e642060008201527f6964206172726179206c656e67746873206d757374206d617463680000000000602082015250565b6121aa81611d1b565b81146121b557600080fd5b50565b6121c181611d2d565b81146121cc57600080fd5b50565b6121d881611d85565b81146121e357600080fd5b5056fea26469706673582212209ff1937e48d40c2d63207c7714b1e7a0b5869f979ed292ddb19380c416912fe664736f6c63430008070033","abi":[{"inputs":[{"internalType":"address","name":"_pkpNft","type":"address"},{"internalType":"address","name":"_pkpPermissions","type":"address"}],"stateMutability":"nonpayable","type":"constructor"},{"anonymous":false,"inputs":[{"indexed":true,"internalType":"address","name":"previousOwner","type":"address"},{"indexed":true,"internalType":"address","name":"newOwner","type":"address"}],"name":"OwnershipTransferred","type":"event"},{"inputs":[{"internalType":"uint256","name":"keyType","type":"uint256"},{"internalType":"uint256[]","name":"permittedAuthMethodTypes","type":"uint256[]"},{"internalType":"bytes[]","name":"permittedAuthMethodIds","type":"bytes[]"},{"internalType":"bytes[]","name":"permittedAuthMethodPubkeys","type":"bytes[]"},{"internalType":"uint256[][]","name":"permittedAuthMethodScopes","type":"uint256[][]"},{"internalType":"bool","name":"addPkpEthAddressAsPermittedAddress","type":"bool"},{"internalType":"bool","name":"sendPkpToItself","type":"bool"}],"name":"mintNextAndAddAuthMethods","outputs":[{"internalType":"uint256","name":"","type":"uint256"}],"stateMutability":"payable","type":"function"},{"inputs":[{"internalType":"uint256","name":"keyType","type":"uint256"},{"internalType":"bytes[]","name":"permittedIpfsCIDs","type":"bytes[]"},{"internalType":"uint256[][]","name":"permittedIpfsCIDScopes","type":"uint256[][]"},{"internalType":"address[]","name":"permittedAddresses","type":"address[]"},{"internalType":"uint256[][]","name":"permittedAddressScopes","type":"uint256[][]"},{"internalType":"uint256[]","name":"permittedAuthMethodTypes","type":"uint256[]"},{"internalType":"bytes[]","name":"permittedAuthMethodIds","type":"bytes[]"},{"internalType":"bytes[]","name":"permittedAuthMethodPubkeys","type":"bytes[]"},{"internalType":"uint256[][]","name":"permittedAuthMethodScopes","type":"uint256[][]"},{"internalType":"bool","name":"addPkpEthAddressAsPermittedAddress","type":"bool"},{"internalType":"bool","name":"sendPkpToItself","type":"bool"}],"name":"mintNextAndAddAuthMethodsWithTypes","outputs":[{"internalType":"uint256","name":"","type":"uint256"}],"stateMutability":"payable","type":"function"},{"inputs":[{"internalType":"address","name":"","type":"address"},{"internalType":"address","name":"","type":"address"},{"internalType":"uint256","name":"","type":"uint256"},{"internalType":"bytes","name":"","type":"bytes"}],"name":"onERC721Received","outputs":[{"internalType":"bytes4","name":"","type":"bytes4"}],"stateMutability":"view","type":"function"},{"inputs":[],"name":"owner","outputs":[{"internalType":"address","name":"","type":"address"}],"stateMutability":"view","type":"function"},{"inputs":[],"name":"pkpNFT","outputs":[{"internalType":"contract PKPNFT","name":"","type":"address"}],"stateMutability":"view","type":"function"},{"inputs":[],"name":"pkpPermissions","outputs":[{"internalType":"contract PKPPermissions","name":"","type":"address"}],"stateMutability":"view","type":"function"},{"inputs":[],"name":"renounceOwnership","outputs":[],"stateMutability":"nonpayable","type":"function"},{"inputs":[{"internalType":"address","name":"newPkpNftAddress","type":"address"}],"name":"setPkpNftAddress","outputs":[],"stateMutability":"nonpayable","type":"function"},{"inputs":[{"internalType":"address","name":"newPkpPermissionsAddress","type":"address"}],"name":"setPkpPermissionsAddress","outputs":[],"stateMutability":"nonpayable","type":"function"},{"inputs":[{"internalType":"address","name":"newOwner","type":"address"}],"name":"transferOwnership","outputs":[],"stateMutability":"nonpayable","type":"function"}]}