{"address":"0xE5Dc375D453538d3aD32317B8a23463A6462dB88","bytecode":"0x60806040523480156200001157600080fd5b506040518060400160405280601481526020017f50726f6772616d6d61626c65204b6579706169720000000000000000000000008152506040518060400160405280600381526020017f504b500000000000000000000000000000000000000000000000000000000000815250816000908051906020019062000096929190620001f4565b508060019080519060200190620000af929190620001f4565b505050620000d2620000c66200012660201b60201c565b6200012e60201b60201c565b655af3107a4000600e8190555033601060006101000a81548173ffffffffffffffffffffffffffffffffffffffff021916908373ffffffffffffffffffffffffffffffffffffffff16021790555062000309565b600033905090565b6000600660009054906101000a900473ffffffffffffffffffffffffffffffffffffffff16905081600660006101000a81548173ffffffffffffffffffffffffffffffffffffffff021916908373ffffffffffffffffffffffffffffffffffffffff1602179055508173ffffffffffffffffffffffffffffffffffffffff168173ffffffffffffffffffffffffffffffffffffffff167f8be0079c531659141344cd1fd0a4f28419497f9722a3daafe3b4186f6b6457e060405160405180910390a35050565b8280546200020290620002a4565b90600052602060002090601f01602090048101928262000226576000855562000272565b82601f106200024157805160ff191683800117855562000272565b8280016001018555821562000272579182015b828111156200027157825182559160200191906001019062000254565b5b50905062000281919062000285565b5090565b5b80821115620002a057600081600090555060010162000286565b5090565b60006002820490506001821680620002bd57607f821691505b60208210811415620002d457620002d3620002da565b5b50919050565b7f4e487b7100000000000000000000000000000000000000000000000000000000600052602260045260246000fd5b6153b180620003196000396000f3fe6080604052600436106102885760003560e01c80636352211e1161015a578063b94a2102116100c1578063e985e9c51161007a578063e985e9c514610a32578063ef6fd87814610a6f578063f2fde38b14610aac578063f556aeb114610ad5578063f70e72ef14610afe578063f887ea4014610b3b57610288565b8063b94a2102146108fc578063bd4986a014610927578063bdb4b84814610964578063c87b56dd1461098f578063d3436826146109cc578063d7b0398b146109f557610288565b80638da5cb5b116101135780638da5cb5b146107fe5780639388f12e1461082957806395d89b411461085457806397016f3f1461087f578063a22cb465146108aa578063b88d4fde146108d357610288565b80636352211e146106e957806366a306d71461072657806370a0823114610756578063715018a6146107935780638545f4ea146107aa5780638b7afe2e146107d357610288565b80633ccfd60b116101fe5780634f558e79116101b75780634f558e79146105b05780634f6ccce7146105ed57806356e3a1ae1461062a5780635c110a9c146106675780635d228b16146106905780635f49663c146106c057610288565b80633ccfd60b146104b857806341cb87fc146104cf57806342842e0e146104f857806342966c681461052157806342dd8fcb1461054a5780634c19eae61461058757610288565b806318160ddd1161025057806318160ddd146103985780631ea89a22146103c35780631f275713146103ec57806323b872dd146104295780632f745c59146104525780633b1898521461048f57610288565b806301ffc9a71461028d57806306fdde03146102ca578063081812fc146102f5578063095ea7b3146103325780631582391c1461035b575b600080fd5b34801561029957600080fd5b506102b460048036038101906102af9190613afb565b610b66565b6040516102c19190614408565b60405180910390f35b3480156102d657600080fd5b506102df610ca0565b6040516102ec91906144f6565b60405180910390f35b34801561030157600080fd5b5061031c60048036038101906103179190613be7565b610d32565b60405161032991906143a1565b60405180910390f35b34801561033e57600080fd5b5061035960048036038101906103549190613a61565b610d78565b005b34801561036757600080fd5b50610382600480360381019061037d9190613d2b565b610e90565b60405161038f91906147d8565b60405180910390f35b3480156103a457600080fd5b506103ad610eba565b6040516103ba91906147d8565b60405180910390f35b3480156103cf57600080fd5b506103ea60048036038101906103e591906138b1565b610ec7565b005b3480156103f857600080fd5b50610413600480360381019061040e9190613ace565b610f13565b6040516104209190614423565b60405180910390f35b34801561043557600080fd5b50610450600480360381019061044b919061394b565b610f43565b005b34801561045e57600080fd5b5061047960048036038101906104749190613a61565b610fa3565b60405161048691906147d8565b60405180910390f35b34801561049b57600080fd5b506104b660048036038101906104b191906138b1565b611048565b005b3480156104c457600080fd5b506104cd611094565b005b3480156104db57600080fd5b506104f660048036038101906104f191906138b1565b6110ef565b005b34801561050457600080fd5b5061051f600480360381019061051a919061394b565b61113b565b005b34801561052d57600080fd5b5061054860048036038101906105439190613be7565b61115b565b005b34801561055657600080fd5b50610571600480360381019061056c9190613be7565b6111b7565b60405161057e91906147d8565b60405180910390f35b34801561059357600080fd5b506105ae60048036038101906105a99190613c14565b6111d7565b005b3480156105bc57600080fd5b506105d760048036038101906105d29190613be7565b6113a1565b6040516105e49190614408565b60405180910390f35b3480156105f957600080fd5b50610614600480360381019061060f9190613be7565b6113b3565b60405161062191906147d8565b60405180910390f35b34801561063657600080fd5b50610651600480360381019061064c9190613be7565b611424565b60405161065e9190614408565b60405180910390f35b34801561067357600080fd5b5061068e60048036038101906106899190613ceb565b611444565b005b6106aa60048036038101906106a59190613be7565b611512565b6040516106b791906147d8565b60405180910390f35b3480156106cc57600080fd5b506106e760048036038101906106e291906138b1565b611578565b005b3480156106f557600080fd5b50610710600480360381019061070b9190613be7565b6115c4565b60405161071d91906143a1565b60405180910390f35b610740600480360381019061073b9190613c8f565b611676565b60405161074d91906147d8565b60405180910390f35b34801561076257600080fd5b5061077d600480360381019061077891906138b1565b6117c0565b60405161078a91906147d8565b60405180910390f35b34801561079f57600080fd5b506107a8611878565b005b3480156107b657600080fd5b506107d160048036038101906107cc9190613be7565b61188c565b005b3480156107df57600080fd5b506107e861189e565b6040516107f591906147d8565b60405180910390f35b34801561080a57600080fd5b506108136118a4565b60405161082091906143a1565b60405180910390f35b34801561083557600080fd5b5061083e6118ce565b60405161084b91906144a5565b60405180910390f35b34801561086057600080fd5b506108696118f4565b60405161087691906144f6565b60405180910390f35b34801561088b57600080fd5b50610894611986565b6040516108a191906144c0565b60405180910390f35b3480156108b657600080fd5b506108d160048036038101906108cc9190613a21565b6119ac565b005b3480156108df57600080fd5b506108fa60048036038101906108f5919061399e565b6119c2565b005b34801561090857600080fd5b50610911611a24565b60405161091e91906143a1565b60405180910390f35b34801561093357600080fd5b5061094e60048036038101906109499190613be7565b611a4a565b60405161095b91906143a1565b60405180910390f35b34801561097057600080fd5b50610979611afe565b60405161098691906147d8565b60405180910390f35b34801561099b57600080fd5b506109b660048036038101906109b19190613be7565b611b04565b6040516109c391906144f6565b60405180910390f35b3480156109d857600080fd5b506109f360048036038101906109ee9190613be7565b611de0565b005b348015610a0157600080fd5b50610a1c6004803603810190610a179190613db8565b611df5565b604051610a2991906147d8565b60405180910390f35b348015610a3e57600080fd5b50610a596004803603810190610a54919061390b565b611e21565b604051610a669190614408565b60405180910390f35b348015610a7b57600080fd5b50610a966004803603810190610a919190613be7565b611eb5565b604051610aa39190614483565b60405180910390f35b348015610ab857600080fd5b50610ad36004803603810190610ace91906138b1565b611f6e565b005b348015610ae157600080fd5b50610afc6004803603810190610af79190613c8f565b611ff2565b005b348015610b0a57600080fd5b50610b256004803603810190610b209190613ceb565b6120eb565b604051610b3291906147d8565b60405180910390f35b348015610b4757600080fd5b50610b5061211c565b604051610b5d91906144db565b60405180910390f35b60007f780e9d63000000000000000000000000000000000000000000000000000000007bffffffffffffffffffffffffffffffffffffffffffffffffffffffff1916827bffffffffffffffffffffffffffffffffffffffffffffffffffffffff19161480610c3157507f5b5e139f000000000000000000000000000000000000000000000000000000007bffffffffffffffffffffffffffffffffffffffffffffffffffffffff1916827bffffffffffffffffffffffffffffffffffffffffffffffffffffffff1916145b80610c9957507f80ac58cd000000000000000000000000000000000000000000000000000000007bffffffffffffffffffffffffffffffffffffffffffffffffffffffff1916827bffffffffffffffffffffffffffffffffffffffffffffffffffffffff1916145b9050919050565b606060008054610caf90614b2a565b80601f0160208091040260200160405190810160405280929190818152602001828054610cdb90614b2a565b8015610d285780601f10610cfd57610100808354040283529160200191610d28565b820191906000526020600020905b815481529060010190602001808311610d0b57829003601f168201915b5050505050905090565b6000610d3d82612142565b6004600083815260200190815260200160002060009054906101000a900473ffffffffffffffffffffffffffffffffffffffff169050919050565b6000610d83826115c4565b90508073ffffffffffffffffffffffffffffffffffffffff168373ffffffffffffffffffffffffffffffffffffffff161415610df4576040517f08c379a0000000000000000000000000000000000000000000000000000000008152600401610deb90614718565b60405180910390fd5b8073ffffffffffffffffffffffffffffffffffffffff16610e1361218d565b73ffffffffffffffffffffffffffffffffffffffff161480610e425750610e4181610e3c61218d565b611e21565b5b610e81576040517f08c379a0000000000000000000000000000000000000000000000000000000008152600401610e7890614698565b60405180910390fd5b610e8b8383612195565b505050565b600080610e9c8861224e565b9050610eac878288888888612340565b809150509695505050505050565b6000600980549050905090565b610ecf61238b565b80600c60006101000a81548173ffffffffffffffffffffffffffffffffffffffff021916908373ffffffffffffffffffffffffffffffffffffffff16021790555050565b600081604051602001610f26919061437b565b604051602081830303815290604052805190602001209050919050565b610f54610f4e61218d565b82612409565b610f93576040517f08c379a0000000000000000000000000000000000000000000000000000000008152600401610f8a906147b8565b60405180910390fd5b610f9e83838361249e565b505050565b6000610fae836117c0565b8210610fef576040517f08c379a0000000000000000000000000000000000000000000000000000000008152600401610fe690614558565b60405180910390fd5b600760008473ffffffffffffffffffffffffffffffffffffffff1673ffffffffffffffffffffffffffffffffffffffff168152602001908152602001600020600083815260200190815260200160002054905092915050565b61105061238b565b80601060006101000a81548173ffffffffffffffffffffffffffffffffffffffff021916908373ffffffffffffffffffffffffffffffffffffffff16021790555050565b61109c61238b565b3373ffffffffffffffffffffffffffffffffffffffff166108fc600f549081150290604051600060405180830381858888f193505050501580156110e4573d6000803e3d6000fd5b506000600f81905550565b6110f761238b565b80600b60006101000a81548173ffffffffffffffffffffffffffffffffffffffff021916908373ffffffffffffffffffffffffffffffffffffffff16021790555050565b611156838383604051806020016040528060008152506119c2565b505050565b61116c61116661218d565b82612409565b6111ab576040517f08c379a00000000000000000000000000000000000000000000000000000000081526004016111a2906147b8565b60405180910390fd5b6111b481612705565b50565b600060116000838152602001908152602001600020805490509050919050565b600061120a30876040516020016111ef92919061434f565b60405160208183030381529060405280519060200120610f13565b905084811461124e576040517f08c379a000000000000000000000000000000000000000000000000000000000815260040161124590614778565b60405180910390fd5b600060018686868660405160008152602001604052604051611273949392919061443e565b6020604051602081039080840390855afa158015611295573d6000803e3d6000fd5b505050602060405103519050601060009054906101000a900473ffffffffffffffffffffffffffffffffffffffff1673ffffffffffffffffffffffffffffffffffffffff168173ffffffffffffffffffffffffffffffffffffffff1614611331576040517f08c379a000000000000000000000000000000000000000000000000000000000815260040161132890614738565b60405180910390fd5b600015156012600089815260200190815260200160002060009054906101000a900460ff16151514611398576040517f08c379a000000000000000000000000000000000000000000000000000000000815260040161138f90614798565b60405180910390fd5b50505050505050565b60006113ac82612822565b9050919050565b60006113bd610eba565b82106113fe576040517f08c379a00000000000000000000000000000000000000000000000000000000081526004016113f590614758565b60405180910390fd5b6009828154811061141257611411614c52565b5b90600052602060002001549050919050565b60126020528060005260406000206000915054906101000a900460ff1681565b600b60009054906101000a900473ffffffffffffffffffffffffffffffffffffffff1673ffffffffffffffffffffffffffffffffffffffff163373ffffffffffffffffffffffffffffffffffffffff16146114d4576040517f08c379a00000000000000000000000000000000000000000000000000000000081526004016114cb90614518565b60405180910390fd5b601160008281526020019081526020016000208290806001815401808255809150506001900390600052602060002001600090919091909150555050565b6000600e543414611558576040517f08c379a000000000000000000000000000000000000000000000000000000000815260040161154f90614598565b60405180910390fd5b60006115638361224e565b905061156f813361288e565b80915050919050565b61158061238b565b80600d60006101000a81548173ffffffffffffffffffffffffffffffffffffffff021916908373ffffffffffffffffffffffffffffffffffffffff16021790555050565b6000806002600084815260200190815260200160002060009054906101000a900473ffffffffffffffffffffffffffffffffffffffff169050600073ffffffffffffffffffffffffffffffffffffffff168173ffffffffffffffffffffffffffffffffffffffff16141561166d576040517f08c379a0000000000000000000000000000000000000000000000000000000008152600401611664906146f8565b60405180910390fd5b80915050919050565b6000600e5434146116bc576040517f08c379a00000000000000000000000000000000000000000000000000000000081526004016116b390614598565b60405180910390fd5b60006116c78461224e565b90506116d3813061288e565b600c60009054906101000a900473ffffffffffffffffffffffffffffffffffffffff1673ffffffffffffffffffffffffffffffffffffffff16638a4315788285600067ffffffffffffffff81111561172e5761172d614c81565b5b60405190808252806020026020018201604052801561175c5781602001602082028036833780820191505090505b506040518463ffffffff1660e01b815260040161177b93929190614831565b600060405180830381600087803b15801561179557600080fd5b505af11580156117a9573d6000803e3d6000fd5b505050506117b681612705565b8091505092915050565b60008073ffffffffffffffffffffffffffffffffffffffff168273ffffffffffffffffffffffffffffffffffffffff161415611831576040517f08c379a000000000000000000000000000000000000000000000000000000000815260040161182890614678565b60405180910390fd5b600360008373ffffffffffffffffffffffffffffffffffffffff1673ffffffffffffffffffffffffffffffffffffffff168152602001908152602001600020549050919050565b61188061238b565b61188a60006129e3565b565b61189461238b565b80600e8190555050565b600f5481565b6000600660009054906101000a900473ffffffffffffffffffffffffffffffffffffffff16905090565b600d60009054906101000a900473ffffffffffffffffffffffffffffffffffffffff1681565b60606001805461190390614b2a565b80601f016020809104026020016040519081016040528092919081815260200182805461192f90614b2a565b801561197c5780601f106119515761010080835404028352916020019161197c565b820191906000526020600020905b81548152906001019060200180831161195f57829003601f168201915b5050505050905090565b600c60009054906101000a900473ffffffffffffffffffffffffffffffffffffffff1681565b6119be6119b761218d565b8383612aa9565b5050565b6119d36119cd61218d565b83612409565b611a12576040517f08c379a0000000000000000000000000000000000000000000000000000000008152600401611a09906147b8565b60405180910390fd5b611a1e84848484612c16565b50505050565b601060009054906101000a900473ffffffffffffffffffffffffffffffffffffffff1681565b6000600b60009054906101000a900473ffffffffffffffffffffffffffffffffffffffff1673ffffffffffffffffffffffffffffffffffffffff1663bd4986a0836040518263ffffffff1660e01b8152600401611aa791906147d8565b60206040518083038186803b158015611abf57600080fd5b505afa158015611ad3573d6000803e3d6000fd5b505050506040513d601f19601f82011682018060405250810190611af791906138de565b9050919050565b600e5481565b6060611b446040518060400160405280601181526020017f67657474696e6720746f6b656e20757269000000000000000000000000000000815250612c72565b6000600b60009054906101000a900473ffffffffffffffffffffffffffffffffffffffff1673ffffffffffffffffffffffffffffffffffffffff1663ef6fd878846040518263ffffffff1660e01b8152600401611ba191906147d8565b60006040518083038186803b158015611bb957600080fd5b505afa158015611bcd573d6000803e3d6000fd5b505050506040513d6000823e3d601f19601f82011682018060405250810190611bf69190613b55565b9050611c366040518060400160405280601f81526020017f676f74207075626b65792c2067657474696e6720657468206164647265737300815250612c72565b6000600b60009054906101000a900473ffffffffffffffffffffffffffffffffffffffff1673ffffffffffffffffffffffffffffffffffffffff1663bd4986a0856040518263ffffffff1660e01b8152600401611c9391906147d8565b60206040518083038186803b158015611cab57600080fd5b505afa158015611cbf573d6000803e3d6000fd5b505050506040513d601f19601f82011682018060405250810190611ce391906138de565b9050611d236040518060400160405280601081526020017f63616c6c696e6720746f6b656e55524900000000000000000000000000000000815250612c72565b600d60009054906101000a900473ffffffffffffffffffffffffffffffffffffffff1673ffffffffffffffffffffffffffffffffffffffff1663950462ee8584846040518463ffffffff1660e01b8152600401611d82939291906147f3565b60006040518083038186803b158015611d9a57600080fd5b505afa158015611dae573d6000803e3d6000fd5b505050506040513d6000823e3d601f19601f82011682018060405250810190611dd79190613b9e565b92505050919050565b611de861238b565b611df2813361288e565b50565b600080611e018961224e565b9050611e1288828989898989612d0b565b80915050979650505050505050565b6000600560008473ffffffffffffffffffffffffffffffffffffffff1673ffffffffffffffffffffffffffffffffffffffff16815260200190815260200160002060008373ffffffffffffffffffffffffffffffffffffffff1673ffffffffffffffffffffffffffffffffffffffff16815260200190815260200160002060009054906101000a900460ff16905092915050565b6060600b60009054906101000a900473ffffffffffffffffffffffffffffffffffffffff1673ffffffffffffffffffffffffffffffffffffffff1663ef6fd878836040518263ffffffff1660e01b8152600401611f1291906147d8565b60006040518083038186803b158015611f2a57600080fd5b505afa158015611f3e573d6000803e3d6000fd5b505050506040513d6000823e3d601f19601f82011682018060405250810190611f679190613b55565b9050919050565b611f7661238b565b600073ffffffffffffffffffffffffffffffffffffffff168173ffffffffffffffffffffffffffffffffffffffff161415611fe6576040517f08c379a0000000000000000000000000000000000000000000000000000000008152600401611fdd906145b8565b60405180910390fd5b611fef816129e3565b50565b611ffa61238b565b612004823061288e565b600c60009054906101000a900473ffffffffffffffffffffffffffffffffffffffff1673ffffffffffffffffffffffffffffffffffffffff16638a4315788383600067ffffffffffffffff81111561205f5761205e614c81565b5b60405190808252806020026020018201604052801561208d5781602001602082028036833780820191505090505b506040518463ffffffff1660e01b81526004016120ac93929190614831565b600060405180830381600087803b1580156120c657600080fd5b505af11580156120da573d6000803e3d6000fd5b505050506120e782612705565b5050565b6011602052816000526040600020818154811061210757600080fd5b90600052602060002001600091509150505481565b600b60009054906101000a900473ffffffffffffffffffffffffffffffffffffffff1681565b61214b81612822565b61218a576040517f08c379a0000000000000000000000000000000000000000000000000000000008152600401612181906146f8565b60405180910390fd5b50565b600033905090565b816004600083815260200190815260200160002060006101000a81548173ffffffffffffffffffffffffffffffffffffffff021916908373ffffffffffffffffffffffffffffffffffffffff160217905550808273ffffffffffffffffffffffffffffffffffffffff16612208836115c4565b73ffffffffffffffffffffffffffffffffffffffff167f8c5be1e5ebec7d5bd14f71427d1e84f3dd0314c0f7b2291e5b200ac8c7c3b92560405160405180910390a45050565b6000806011600084815260200190815260200160002080549050116122a8576040517f08c379a000000000000000000000000000000000000000000000000000000000815260040161229f90614538565b60405180910390fd5b600060116000848152602001908152602001600020600160116000868152602001908152602001600020805490506122e091906149cf565b815481106122f1576122f0614c52565b5b906000526020600020015490506011600084815260200190815260200160002080548061232157612320614c23565b5b6001900381819060005260206000200160009055905580915050919050565b61234d86858585856111d7565b612357853361288e565b60016012600088815260200190815260200160002060006101000a81548160ff021916908315150217905550505050505050565b61239361218d565b73ffffffffffffffffffffffffffffffffffffffff166123b16118a4565b73ffffffffffffffffffffffffffffffffffffffff1614612407576040517f08c379a00000000000000000000000000000000000000000000000000000000081526004016123fe906146d8565b60405180910390fd5b565b600080612415836115c4565b90508073ffffffffffffffffffffffffffffffffffffffff168473ffffffffffffffffffffffffffffffffffffffff16148061245757506124568185611e21565b5b8061249557508373ffffffffffffffffffffffffffffffffffffffff1661247d84610d32565b73ffffffffffffffffffffffffffffffffffffffff16145b91505092915050565b8273ffffffffffffffffffffffffffffffffffffffff166124be826115c4565b73ffffffffffffffffffffffffffffffffffffffff1614612514576040517f08c379a000000000000000000000000000000000000000000000000000000000815260040161250b906145d8565b60405180910390fd5b600073ffffffffffffffffffffffffffffffffffffffff168273ffffffffffffffffffffffffffffffffffffffff161415612584576040517f08c379a000000000000000000000000000000000000000000000000000000000815260040161257b90614638565b60405180910390fd5b61258f838383612e3a565b61259a600082612195565b6001600360008573ffffffffffffffffffffffffffffffffffffffff1673ffffffffffffffffffffffffffffffffffffffff16815260200190815260200160002060008282546125ea91906149cf565b925050819055506001600360008473ffffffffffffffffffffffffffffffffffffffff1673ffffffffffffffffffffffffffffffffffffffff16815260200190815260200160002060008282546126419190614979565b92505081905550816002600083815260200190815260200160002060006101000a81548173ffffffffffffffffffffffffffffffffffffffff021916908373ffffffffffffffffffffffffffffffffffffffff160217905550808273ffffffffffffffffffffffffffffffffffffffff168473ffffffffffffffffffffffffffffffffffffffff167fddf252ad1be2c89b69c2b068fc378daa952ba7f163c4a11628f55a4df523b3ef60405160405180910390a4612700838383612e4a565b505050565b6000612710826115c4565b905061271e81600084612e3a565b612729600083612195565b6001600360008373ffffffffffffffffffffffffffffffffffffffff1673ffffffffffffffffffffffffffffffffffffffff168152602001908152602001600020600082825461277991906149cf565b925050819055506002600083815260200190815260200160002060006101000a81549073ffffffffffffffffffffffffffffffffffffffff021916905581600073ffffffffffffffffffffffffffffffffffffffff168273ffffffffffffffffffffffffffffffffffffffff167fddf252ad1be2c89b69c2b068fc378daa952ba7f163c4a11628f55a4df523b3ef60405160405180910390a461281e81600084612e4a565b5050565b60008073ffffffffffffffffffffffffffffffffffffffff166002600084815260200190815260200160002060009054906101000a900473ffffffffffffffffffffffffffffffffffffffff1673ffffffffffffffffffffffffffffffffffffffff1614159050919050565b600b60009054906101000a900473ffffffffffffffffffffffffffffffffffffffff1673ffffffffffffffffffffffffffffffffffffffff166301c6d035836040518263ffffffff1660e01b81526004016128e991906147d8565b60206040518083038186803b15801561290157600080fd5b505afa158015612915573d6000803e3d6000fd5b505050506040513d601f19601f820116820180604052508101906129399190613aa1565b612978576040517f08c379a000000000000000000000000000000000000000000000000000000000815260040161296f90614618565b60405180910390fd5b3073ffffffffffffffffffffffffffffffffffffffff168173ffffffffffffffffffffffffffffffffffffffff1614156129bb576129b68183612e4f565b6129c6565b6129c58183613029565b5b34600f60008282546129d89190614979565b925050819055505050565b6000600660009054906101000a900473ffffffffffffffffffffffffffffffffffffffff16905081600660006101000a81548173ffffffffffffffffffffffffffffffffffffffff021916908373ffffffffffffffffffffffffffffffffffffffff1602179055508173ffffffffffffffffffffffffffffffffffffffff168173ffffffffffffffffffffffffffffffffffffffff167f8be0079c531659141344cd1fd0a4f28419497f9722a3daafe3b4186f6b6457e060405160405180910390a35050565b8173ffffffffffffffffffffffffffffffffffffffff168373ffffffffffffffffffffffffffffffffffffffff161415612b18576040517f08c379a0000000000000000000000000000000000000000000000000000000008152600401612b0f90614658565b60405180910390fd5b80600560008573ffffffffffffffffffffffffffffffffffffffff1673ffffffffffffffffffffffffffffffffffffffff16815260200190815260200160002060008473ffffffffffffffffffffffffffffffffffffffff1673ffffffffffffffffffffffffffffffffffffffff16815260200190815260200160002060006101000a81548160ff0219169083151502179055508173ffffffffffffffffffffffffffffffffffffffff168373ffffffffffffffffffffffffffffffffffffffff167f17307eab39ab6107e8899845ad3d59bd9653f200f220920489ca2b5937696c3183604051612c099190614408565b60405180910390a3505050565b612c2184848461249e565b612c2d84848484613047565b612c6c576040517f08c379a0000000000000000000000000000000000000000000000000000000008152600401612c6390614578565b60405180910390fd5b50505050565b612d0881604051602401612c8691906144f6565b6040516020818303038152906040527f41304fac000000000000000000000000000000000000000000000000000000007bffffffffffffffffffffffffffffffffffffffffffffffffffffffff19166020820180517bffffffffffffffffffffffffffffffffffffffffffffffffffffffff83818316178352505050506131de565b50565b612d1887858585856111d7565b612d22863061288e565b60016012600089815260200190815260200160002060006101000a81548160ff021916908315150217905550600c60009054906101000a900473ffffffffffffffffffffffffffffffffffffffff1673ffffffffffffffffffffffffffffffffffffffff16638a4315788787600067ffffffffffffffff811115612da957612da8614c81565b5b604051908082528060200260200182016040528015612dd75781602001602082028036833780820191505090505b506040518463ffffffff1660e01b8152600401612df693929190614831565b600060405180830381600087803b158015612e1057600080fd5b505af1158015612e24573d6000803e3d6000fd5b50505050612e3186612705565b50505050505050565b612e45838383613207565b505050565b505050565b600073ffffffffffffffffffffffffffffffffffffffff168273ffffffffffffffffffffffffffffffffffffffff161415612ebf576040517f08c379a0000000000000000000000000000000000000000000000000000000008152600401612eb6906146b8565b60405180910390fd5b612ec881612822565b15612f08576040517f08c379a0000000000000000000000000000000000000000000000000000000008152600401612eff906145f8565b60405180910390fd5b612f1460008383612e3a565b6001600360008473ffffffffffffffffffffffffffffffffffffffff1673ffffffffffffffffffffffffffffffffffffffff1681526020019081526020016000206000828254612f649190614979565b92505081905550816002600083815260200190815260200160002060006101000a81548173ffffffffffffffffffffffffffffffffffffffff021916908373ffffffffffffffffffffffffffffffffffffffff160217905550808273ffffffffffffffffffffffffffffffffffffffff16600073ffffffffffffffffffffffffffffffffffffffff167fddf252ad1be2c89b69c2b068fc378daa952ba7f163c4a11628f55a4df523b3ef60405160405180910390a461302560008383612e4a565b5050565b61304382826040518060200160405280600081525061331b565b5050565b60006130688473ffffffffffffffffffffffffffffffffffffffff16613376565b156131d1578373ffffffffffffffffffffffffffffffffffffffff1663150b7a0261309161218d565b8786866040518563ffffffff1660e01b81526004016130b394939291906143bc565b602060405180830381600087803b1580156130cd57600080fd5b505af19250505080156130fe57506040513d601f19601f820116820180604052508101906130fb9190613b28565b60015b613181573d806000811461312e576040519150601f19603f3d011682016040523d82523d6000602084013e613133565b606091505b50600081511415613179576040517f08c379a000000000000000000000000000000000000000000000000000000000815260040161317090614578565b60405180910390fd5b805181602001fd5b63150b7a0260e01b7bffffffffffffffffffffffffffffffffffffffffffffffffffffffff1916817bffffffffffffffffffffffffffffffffffffffffffffffffffffffff1916149150506131d6565b600190505b949350505050565b60008151905060006a636f6e736f6c652e6c6f679050602083016000808483855afa5050505050565b613212838383613399565b600073ffffffffffffffffffffffffffffffffffffffff168373ffffffffffffffffffffffffffffffffffffffff161415613255576132508161339e565b613294565b8173ffffffffffffffffffffffffffffffffffffffff168373ffffffffffffffffffffffffffffffffffffffff16146132935761329283826133e7565b5b5b600073ffffffffffffffffffffffffffffffffffffffff168273ffffffffffffffffffffffffffffffffffffffff1614156132d7576132d281613554565b613316565b8273ffffffffffffffffffffffffffffffffffffffff168273ffffffffffffffffffffffffffffffffffffffff1614613315576133148282613625565b5b5b505050565b6133258383612e4f565b6133326000848484613047565b613371576040517f08c379a000000000000000000000000000000000000000000000000000000000815260040161336890614578565b60405180910390fd5b505050565b6000808273ffffffffffffffffffffffffffffffffffffffff163b119050919050565b505050565b600980549050600a600083815260200190815260200160002081905550600981908060018154018082558091505060019003906000526020600020016000909190919091505550565b600060016133f4846117c0565b6133fe91906149cf565b90506000600860008481526020019081526020016000205490508181146134e3576000600760008673ffffffffffffffffffffffffffffffffffffffff1673ffffffffffffffffffffffffffffffffffffffff168152602001908152602001600020600084815260200190815260200160002054905080600760008773ffffffffffffffffffffffffffffffffffffffff1673ffffffffffffffffffffffffffffffffffffffff168152602001908152602001600020600084815260200190815260200160002081905550816008600083815260200190815260200160002081905550505b6008600084815260200190815260200160002060009055600760008573ffffffffffffffffffffffffffffffffffffffff1673ffffffffffffffffffffffffffffffffffffffff16815260200190815260200160002060008381526020019081526020016000206000905550505050565b6000600160098054905061356891906149cf565b90506000600a600084815260200190815260200160002054905060006009838154811061359857613597614c52565b5b9060005260206000200154905080600983815481106135ba576135b9614c52565b5b906000526020600020018190555081600a600083815260200190815260200160002081905550600a600085815260200190815260200160002060009055600980548061360957613608614c23565b5b6001900381819060005260206000200160009055905550505050565b6000613630836117c0565b905081600760008573ffffffffffffffffffffffffffffffffffffffff1673ffffffffffffffffffffffffffffffffffffffff168152602001908152602001600020600083815260200190815260200160002081905550806008600084815260200190815260200160002081905550505050565b60006136b76136b28461489b565b614876565b9050828152602081018484840111156136d3576136d2614cb5565b5b6136de848285614ae8565b509392505050565b60006136f96136f48461489b565b614876565b90508281526020810184848401111561371557613714614cb5565b5b613720848285614af7565b509392505050565b600061373b613736846148cc565b614876565b90508281526020810184848401111561375757613756614cb5565b5b613762848285614af7565b509392505050565b600081359050613779816152f1565b92915050565b60008151905061378e816152f1565b92915050565b6000813590506137a381615308565b92915050565b6000815190506137b881615308565b92915050565b6000813590506137cd8161531f565b92915050565b6000813590506137e281615336565b92915050565b6000815190506137f781615336565b92915050565b600082601f83011261381257613811614cb0565b5b81356138228482602086016136a4565b91505092915050565b600082601f8301126138405761383f614cb0565b5b81516138508482602086016136e6565b91505092915050565b600082601f83011261386e5761386d614cb0565b5b815161387e848260208601613728565b91505092915050565b6000813590506138968161534d565b92915050565b6000813590506138ab81615364565b92915050565b6000602082840312156138c7576138c6614cbf565b5b60006138d58482850161376a565b91505092915050565b6000602082840312156138f4576138f3614cbf565b5b60006139028482850161377f565b91505092915050565b6000806040838503121561392257613921614cbf565b5b60006139308582860161376a565b92505060206139418582860161376a565b9150509250929050565b60008060006060848603121561396457613963614cbf565b5b60006139728682870161376a565b93505060206139838682870161376a565b925050604061399486828701613887565b9150509250925092565b600080600080608085870312156139b8576139b7614cbf565b5b60006139c68782880161376a565b94505060206139d78782880161376a565b93505060406139e887828801613887565b925050606085013567ffffffffffffffff811115613a0957613a08614cba565b5b613a15878288016137fd565b91505092959194509250565b60008060408385031215613a3857613a37614cbf565b5b6000613a468582860161376a565b9250506020613a5785828601613794565b9150509250929050565b60008060408385031215613a7857613a77614cbf565b5b6000613a868582860161376a565b9250506020613a9785828601613887565b9150509250929050565b600060208284031215613ab757613ab6614cbf565b5b6000613ac5848285016137a9565b91505092915050565b600060208284031215613ae457613ae3614cbf565b5b6000613af2848285016137be565b91505092915050565b600060208284031215613b1157613b10614cbf565b5b6000613b1f848285016137d3565b91505092915050565b600060208284031215613b3e57613b3d614cbf565b5b6000613b4c848285016137e8565b91505092915050565b600060208284031215613b6b57613b6a614cbf565b5b600082015167ffffffffffffffff811115613b8957613b88614cba565b5b613b958482850161382b565b91505092915050565b600060208284031215613bb457613bb3614cbf565b5b600082015167ffffffffffffffff811115613bd257613bd1614cba565b5b613bde84828501613859565b91505092915050565b600060208284031215613bfd57613bfc614cbf565b5b6000613c0b84828501613887565b91505092915050565b600080600080600060a08688031215613c3057613c2f614cbf565b5b6000613c3e88828901613887565b9550506020613c4f888289016137be565b9450506040613c608882890161389c565b9350506060613c71888289016137be565b9250506080613c82888289016137be565b9150509295509295909350565b60008060408385031215613ca657613ca5614cbf565b5b6000613cb485828601613887565b925050602083013567ffffffffffffffff811115613cd557613cd4614cba565b5b613ce1858286016137fd565b9150509250929050565b60008060408385031215613d0257613d01614cbf565b5b6000613d1085828601613887565b9250506020613d2185828601613887565b9150509250929050565b60008060008060008060c08789031215613d4857613d47614cbf565b5b6000613d5689828a01613887565b9650506020613d6789828a01613887565b9550506040613d7889828a016137be565b9450506060613d8989828a0161389c565b9350506080613d9a89828a016137be565b92505060a0613dab89828a016137be565b9150509295509295509295565b600080600080600080600060e0888a031215613dd757613dd6614cbf565b5b6000613de58a828b01613887565b9750506020613df68a828b01613887565b965050604088013567ffffffffffffffff811115613e1757613e16614cba565b5b613e238a828b016137fd565b9550506060613e348a828b016137be565b9450506080613e458a828b0161389c565b93505060a0613e568a828b016137be565b92505060c0613e678a828b016137be565b91505092959891949750929550565b6000613e82838361430b565b60208301905092915050565b613e9781614a03565b82525050565b613eae613ea982614a03565b614b8d565b82525050565b6000613ebf8261490d565b613ec9818561493b565b9350613ed4836148fd565b8060005b83811015613f05578151613eec8882613e76565b9750613ef78361492e565b925050600181019050613ed8565b5085935050505092915050565b613f1b81614a15565b82525050565b613f2a81614a21565b82525050565b613f41613f3c82614a21565b614b9f565b82525050565b6000613f5282614918565b613f5c818561494c565b9350613f6c818560208601614af7565b613f7581614cc4565b840191505092915050565b613f8981614a8e565b82525050565b613f9881614aa0565b82525050565b613fa781614ab2565b82525050565b6000613fb882614923565b613fc2818561495d565b9350613fd2818560208601614af7565b613fdb81614cc4565b840191505092915050565b6000613ff360308361495d565b9150613ffe82614ce2565b604082019050919050565b6000614016602e8361495d565b915061402182614d31565b604082019050919050565b6000614039601c8361496e565b915061404482614d80565b601c82019050919050565b600061405c602b8361495d565b915061406782614da9565b604082019050919050565b600061407f60328361495d565b915061408a82614df8565b604082019050919050565b60006140a2601e8361495d565b91506140ad82614e47565b602082019050919050565b60006140c560268361495d565b91506140d082614e70565b604082019050919050565b60006140e860258361495d565b91506140f382614ebf565b604082019050919050565b600061410b601c8361495d565b915061411682614f0e565b602082019050919050565b600061412e60208361495d565b915061413982614f37565b602082019050919050565b600061415160248361495d565b915061415c82614f60565b604082019050919050565b600061417460198361495d565b915061417f82614faf565b602082019050919050565b600061419760298361495d565b91506141a282614fd8565b604082019050919050565b60006141ba603e8361495d565b91506141c582615027565b604082019050919050565b60006141dd60208361495d565b91506141e882615076565b602082019050919050565b600061420060208361495d565b915061420b8261509f565b602082019050919050565b600061422360188361495d565b915061422e826150c8565b602082019050919050565b600061424660218361495d565b9150614251826150f1565b604082019050919050565b600061426960418361495d565b915061427482615140565b606082019050919050565b600061428c602c8361495d565b9150614297826151b5565b604082019050919050565b60006142af603c8361495d565b91506142ba82615204565b604082019050919050565b60006142d2602b8361495d565b91506142dd82615253565b604082019050919050565b60006142f5602e8361495d565b9150614300826152a2565b604082019050919050565b61431481614a77565b82525050565b61432381614a77565b82525050565b61433a61433582614a77565b614bbb565b82525050565b61434981614a81565b82525050565b600061435b8285613e9d565b60148201915061436b8284614329565b6020820191508190509392505050565b60006143868261402c565b91506143928284613f30565b60208201915081905092915050565b60006020820190506143b66000830184613e8e565b92915050565b60006080820190506143d16000830187613e8e565b6143de6020830186613e8e565b6143eb604083018561431a565b81810360608301526143fd8184613f47565b905095945050505050565b600060208201905061441d6000830184613f12565b92915050565b60006020820190506144386000830184613f21565b92915050565b60006080820190506144536000830187613f21565b6144606020830186614340565b61446d6040830185613f21565b61447a6060830184613f21565b95945050505050565b6000602082019050818103600083015261449d8184613f47565b905092915050565b60006020820190506144ba6000830184613f80565b92915050565b60006020820190506144d56000830184613f8f565b92915050565b60006020820190506144f06000830184613f9e565b92915050565b600060208201905081810360008301526145108184613fad565b905092915050565b6000602082019050818103600083015261453181613fe6565b9050919050565b6000602082019050818103600083015261455181614009565b9050919050565b600060208201905081810360008301526145718161404f565b9050919050565b6000602082019050818103600083015261459181614072565b9050919050565b600060208201905081810360008301526145b181614095565b9050919050565b600060208201905081810360008301526145d1816140b8565b9050919050565b600060208201905081810360008301526145f1816140db565b9050919050565b60006020820190508181036000830152614611816140fe565b9050919050565b6000602082019050818103600083015261463181614121565b9050919050565b6000602082019050818103600083015261465181614144565b9050919050565b6000602082019050818103600083015261467181614167565b9050919050565b600060208201905081810360008301526146918161418a565b9050919050565b600060208201905081810360008301526146b1816141ad565b9050919050565b600060208201905081810360008301526146d1816141d0565b9050919050565b600060208201905081810360008301526146f1816141f3565b9050919050565b6000602082019050818103600083015261471181614216565b9050919050565b6000602082019050818103600083015261473181614239565b9050919050565b600060208201905081810360008301526147518161425c565b9050919050565b600060208201905081810360008301526147718161427f565b9050919050565b60006020820190508181036000830152614791816142a2565b9050919050565b600060208201905081810360008301526147b1816142c5565b9050919050565b600060208201905081810360008301526147d1816142e8565b9050919050565b60006020820190506147ed600083018461431a565b92915050565b6000606082019050614808600083018661431a565b818103602083015261481a8185613f47565b90506148296040830184613e8e565b949350505050565b6000606082019050614846600083018661431a565b81810360208301526148588185613f47565b9050818103604083015261486c8184613eb4565b9050949350505050565b6000614880614891565b905061488c8282614b5c565b919050565b6000604051905090565b600067ffffffffffffffff8211156148b6576148b5614c81565b5b6148bf82614cc4565b9050602081019050919050565b600067ffffffffffffffff8211156148e7576148e6614c81565b5b6148f082614cc4565b9050602081019050919050565b6000819050602082019050919050565b600081519050919050565b600081519050919050565b600081519050919050565b6000602082019050919050565b600082825260208201905092915050565b600082825260208201905092915050565b600082825260208201905092915050565b600081905092915050565b600061498482614a77565b915061498f83614a77565b9250827fffffffffffffffffffffffffffffffffffffffffffffffffffffffffffffffff038211156149c4576149c3614bc5565b5b828201905092915050565b60006149da82614a77565b91506149e583614a77565b9250828210156149f8576149f7614bc5565b5b828203905092915050565b6000614a0e82614a57565b9050919050565b60008115159050919050565b6000819050919050565b60007fffffffff0000000000000000000000000000000000000000000000000000000082169050919050565b600073ffffffffffffffffffffffffffffffffffffffff82169050919050565b6000819050919050565b600060ff82169050919050565b6000614a9982614ac4565b9050919050565b6000614aab82614ac4565b9050919050565b6000614abd82614ac4565b9050919050565b6000614acf82614ad6565b9050919050565b6000614ae182614a57565b9050919050565b82818337600083830152505050565b60005b83811015614b15578082015181840152602081019050614afa565b83811115614b24576000848401525b50505050565b60006002820490506001821680614b4257607f821691505b60208210811415614b5657614b55614bf4565b5b50919050565b614b6582614cc4565b810181811067ffffffffffffffff82111715614b8457614b83614c81565b5b80604052505050565b6000614b9882614ba9565b9050919050565b6000819050919050565b6000614bb482614cd5565b9050919050565b6000819050919050565b7f4e487b7100000000000000000000000000000000000000000000000000000000600052601160045260246000fd5b7f4e487b7100000000000000000000000000000000000000000000000000000000600052602260045260246000fd5b7f4e487b7100000000000000000000000000000000000000000000000000000000600052603160045260246000fd5b7f4e487b7100000000000000000000000000000000000000000000000000000000600052603260045260246000fd5b7f4e487b7100000000000000000000000000000000000000000000000000000000600052604160045260246000fd5b600080fd5b600080fd5b600080fd5b600080fd5b6000601f19601f8301169050919050565b60008160601b9050919050565b7f4f6e6c792074686520726f7574696e6720636f6e74726163742063616e20636160008201527f6c6c20746869732066756e6374696f6e00000000000000000000000000000000602082015250565b7f546865726520617265206e6f20756e6d696e74656420726f7574656420746f6b60008201527f656e2069647320746f206d696e74000000000000000000000000000000000000602082015250565b7f19457468657265756d205369676e6564204d6573736167653a0a333200000000600082015250565b7f455243373231456e756d657261626c653a206f776e657220696e646578206f7560008201527f74206f6620626f756e6473000000000000000000000000000000000000000000602082015250565b7f4552433732313a207472616e7366657220746f206e6f6e20455243373231526560008201527f63656976657220696d706c656d656e7465720000000000000000000000000000602082015250565b7f596f75206d757374207061792065786163746c79206d696e7420636f73740000600082015250565b7f4f776e61626c653a206e6577206f776e657220697320746865207a65726f206160008201527f6464726573730000000000000000000000000000000000000000000000000000602082015250565b7f4552433732313a207472616e736665722066726f6d20696e636f72726563742060008201527f6f776e6572000000000000000000000000000000000000000000000000000000602082015250565b7f4552433732313a20746f6b656e20616c7265616479206d696e74656400000000600082015250565b7f5468697320504b5020686173206e6f74206265656e20726f7574656420796574600082015250565b7f4552433732313a207472616e7366657220746f20746865207a65726f2061646460008201527f7265737300000000000000000000000000000000000000000000000000000000602082015250565b7f4552433732313a20617070726f766520746f2063616c6c657200000000000000600082015250565b7f4552433732313a2061646472657373207a65726f206973206e6f74206120766160008201527f6c6964206f776e65720000000000000000000000000000000000000000000000602082015250565b7f4552433732313a20617070726f76652063616c6c6572206973206e6f7420746f60008201527f6b656e206f776e6572206e6f7220617070726f76656420666f7220616c6c0000602082015250565b7f4552433732313a206d696e7420746f20746865207a65726f2061646472657373600082015250565b7f4f776e61626c653a2063616c6c6572206973206e6f7420746865206f776e6572600082015250565b7f4552433732313a20696e76616c696420746f6b656e2049440000000000000000600082015250565b7f4552433732313a20617070726f76616c20746f2063757272656e74206f776e6560008201527f7200000000000000000000000000000000000000000000000000000000000000602082015250565b7f5468697320667265654d696e7420776173206e6f74207369676e65642062792060008201527f667265654d696e745369676e65722e2020486f7720656d626172617373696e6760208201527f2e00000000000000000000000000000000000000000000000000000000000000604082015250565b7f455243373231456e756d657261626c653a20676c6f62616c20696e646578206f60008201527f7574206f6620626f756e64730000000000000000000000000000000000000000602082015250565b7f546865206d736748617368206973206e6f7420612068617368206f662074686560008201527f20746f6b656e49642e20204578706c61696e20796f757273656c662100000000602082015250565b7f546869732066726565206d696e742049442068617320616c726561647920626560008201527f656e2072656465656d6564000000000000000000000000000000000000000000602082015250565b7f4552433732313a2063616c6c6572206973206e6f7420746f6b656e206f776e6560008201527f72206e6f7220617070726f766564000000000000000000000000000000000000602082015250565b6152fa81614a03565b811461530557600080fd5b50565b61531181614a15565b811461531c57600080fd5b50565b61532881614a21565b811461533357600080fd5b50565b61533f81614a2b565b811461534a57600080fd5b50565b61535681614a77565b811461536157600080fd5b50565b61536d81614a81565b811461537857600080fd5b5056fea26469706673582212206cf5690e80aa37096330098379b099cf990cc7395a9dcd33a4aa3c44bf5a828e64736f6c63430008070033","abi":[{"inputs":[],"stateMutability":"nonpayable","type":"constructor"},{"anonymous":false,"inputs":[{"indexed":true,"internalType":"address","name":"owner","type":"address"},{"indexed":true,"internalType":"address","name":"approved","type":"address"},{"indexed":true,"internalType":"uint256","name":"tokenId","type":"uint256"}],"name":"Approval","type":"event"},{"anonymous":false,"inputs":[{"indexed":true,"internalType":"address","name":"owner","type":"address"},{"indexed":true,"internalType":"address","name":"operator","type":"address"},{"indexed":false,"internalType":"bool","name":"approved","type":"bool"}],"name":"ApprovalForAll","type":"event"},{"anonymous":false,"inputs":[{"indexed":true,"internalType":"address","name":"previousOwner","type":"address"},{"indexed":true,"internalType":"address","name":"newOwner","type":"address"}],"name":"OwnershipTransferred","type":"event"},{"anonymous":false,"inputs":[{"indexed":true,"internalType":"address","name":"from","type":"address"},{"indexed":true,"internalType":"address","name":"to","type":"address"},{"indexed":true,"internalType":"uint256","name":"tokenId","type":"uint256"}],"name":"Transfer","type":"event"},{"inputs":[{"internalType":"address","name":"to","type":"address"},{"internalType":"uint256","name":"tokenId","type":"uint256"}],"name":"approve","outputs":[],"stateMutability":"nonpayable","type":"function"},{"inputs":[{"internalType":"address","name":"owner","type":"address"}],"name":"balanceOf","outputs":[{"internalType":"uint256","name":"","type":"uint256"}],"stateMutability":"view","type":"function"},{"inputs":[{"internalType":"uint256","name":"tokenId","type":"uint256"}],"name":"burn","outputs":[],"stateMutability":"nonpayable","type":"function"},{"inputs":[],"name":"contractBalance","outputs":[{"internalType":"uint256","name":"","type":"uint256"}],"stateMutability":"view","type":"function"},{"inputs":[{"internalType":"uint256","name":"tokenId","type":"uint256"}],"name":"exists","outputs":[{"internalType":"bool","name":"","type":"bool"}],"stateMutability":"view","type":"function"},{"inputs":[{"internalType":"uint256","name":"keyType","type":"uint256"},{"internalType":"uint256","name":"freeMintId","type":"uint256"},{"internalType":"bytes","name":"ipfsCID","type":"bytes"},{"internalType":"bytes32","name":"msgHash","type":"bytes32"},{"internalType":"uint8","name":"v","type":"uint8"},{"internalType":"bytes32","name":"r","type":"bytes32"},{"internalType":"bytes32","name":"s","type":"bytes32"}],"name":"freeMintGrantAndBurnNext","outputs":[{"internalType":"uint256","name":"","type":"uint256"}],"stateMutability":"nonpayable","type":"function"},{"inputs":[{"internalType":"uint256","name":"keyType","type":"uint256"},{"internalType":"uint256","name":"freeMintId","type":"uint256"},{"internalType":"bytes32","name":"msgHash","type":"bytes32"},{"internalType":"uint8","name":"v","type":"uint8"},{"internalType":"bytes32","name":"r","type":"bytes32"},{"internalType":"bytes32","name":"s","type":"bytes32"}],"name":"freeMintNext","outputs":[{"internalType":"uint256","name":"","type":"uint256"}],"stateMutability":"nonpayable","type":"function"},{"inputs":[{"internalType":"uint256","name":"freeMintId","type":"uint256"},{"internalType":"bytes32","name":"msgHash","type":"bytes32"},{"internalType":"uint8","name":"v","type":"uint8"},{"internalType":"bytes32","name":"r","type":"bytes32"},{"internalType":"bytes32","name":"s","type":"bytes32"}],"name":"freeMintSigTest","outputs":[],"stateMutability":"view","type":"function"},{"inputs":[],"name":"freeMintSigner","outputs":[{"internalType":"address","name":"","type":"address"}],"stateMutability":"view","type":"function"},{"inputs":[{"internalType":"uint256","name":"tokenId","type":"uint256"}],"name":"getApproved","outputs":[{"internalType":"address","name":"","type":"address"}],"stateMutability":"view","type":"function"},{"inputs":[{"internalType":"uint256","name":"tokenId","type":"uint256"}],"name":"getEthAddress","outputs":[{"internalType":"address","name":"","type":"address"}],"stateMutability":"view","type":"function"},{"inputs":[{"internalType":"uint256","name":"tokenId","type":"uint256"}],"name":"getPubkey","outputs":[{"internalType":"bytes","name":"","type":"bytes"}],"stateMutability":"view","type":"function"},{"inputs":[{"internalType":"uint256","name":"keyType","type":"uint256"}],"name":"getUnmintedRoutedTokenIdCount","outputs":[{"internalType":"uint256","name":"","type":"uint256"}],"stateMutability":"view","type":"function"},{"inputs":[{"internalType":"address","name":"owner","type":"address"},{"internalType":"address","name":"operator","type":"address"}],"name":"isApprovedForAll","outputs":[{"internalType":"bool","name":"","type":"bool"}],"stateMutability":"view","type":"function"},{"inputs":[],"name":"mintCost","outputs":[{"internalType":"uint256","name":"","type":"uint256"}],"stateMutability":"view","type":"function"},{"inputs":[{"internalType":"uint256","name":"keyType","type":"uint256"},{"internalType":"bytes","name":"ipfsCID","type":"bytes"}],"name":"mintGrantAndBurnNext","outputs":[{"internalType":"uint256","name":"","type":"uint256"}],"stateMutability":"payable","type":"function"},{"inputs":[{"internalType":"uint256","name":"tokenId","type":"uint256"},{"internalType":"bytes","name":"ipfsCID","type":"bytes"}],"name":"mintGrantAndBurnSpecific","outputs":[],"stateMutability":"nonpayable","type":"function"},{"inputs":[{"internalType":"uint256","name":"keyType","type":"uint256"}],"name":"mintNext","outputs":[{"internalType":"uint256","name":"","type":"uint256"}],"stateMutability":"payable","type":"function"},{"inputs":[{"internalType":"uint256","name":"tokenId","type":"uint256"}],"name":"mintSpecific","outputs":[],"stateMutability":"nonpayable","type":"function"},{"inputs":[],"name":"name","outputs":[{"internalType":"string","name":"","type":"string"}],"stateMutability":"view","type":"function"},{"inputs":[],"name":"owner","outputs":[{"internalType":"address","name":"","type":"address"}],"stateMutability":"view","type":"function"},{"inputs":[{"internalType":"uint256","name":"tokenId","type":"uint256"}],"name":"ownerOf","outputs":[{"internalType":"address","name":"","type":"address"}],"stateMutability":"view","type":"function"},{"inputs":[],"name":"pkpNftMetadata","outputs":[{"internalType":"contract PKPNFTMetadata","name":"","type":"address"}],"stateMutability":"view","type":"function"},{"inputs":[],"name":"pkpPermissions","outputs":[{"internalType":"contract PKPPermissions","name":"","type":"address"}],"stateMutability":"view","type":"function"},{"inputs":[{"internalType":"uint256","name":"tokenId","type":"uint256"},{"internalType":"uint256","name":"keyType","type":"uint256"}],"name":"pkpRouted","outputs":[],"stateMutability":"nonpayable","type":"function"},{"inputs":[{"internalType":"bytes32","name":"hash","type":"bytes32"}],"name":"prefixed","outputs":[{"internalType":"bytes32","name":"","type":"bytes32"}],"stateMutability":"pure","type":"function"},{"inputs":[{"internalType":"uint256","name":"","type":"uint256"}],"name":"redeemedFreeMintIds","outputs":[{"internalType":"bool","name":"","type":"bool"}],"stateMutability":"view","type":"function"},{"inputs":[],"name":"renounceOwnership","outputs":[],"stateMutability":"nonpayable","type":"function"},{"inputs":[],"name":"router","outputs":[{"internalType":"contract PubkeyRouter","name":"","type":"address"}],"stateMutability":"view","type":"function"},{"inputs":[{"internalType":"address","name":"from","type":"address"},{"internalType":"address","name":"to","type":"address"},{"internalType":"uint256","name":"tokenId","type":"uint256"}],"name":"safeTransferFrom","outputs":[],"stateMutability":"nonpayable","type":"function"},{"inputs":[{"internalType":"address","name":"from","type":"address"},{"internalType":"address","name":"to","type":"address"},{"internalType":"uint256","name":"tokenId","type":"uint256"},{"internalType":"bytes","name":"data","type":"bytes"}],"name":"safeTransferFrom","outputs":[],"stateMutability":"nonpayable","type":"function"},{"inputs":[{"internalType":"address","name":"operator","type":"address"},{"internalType":"bool","name":"approved","type":"bool"}],"name":"setApprovalForAll","outputs":[],"stateMutability":"nonpayable","type":"function"},{"inputs":[{"internalType":"address","name":"newFreeMintSigner","type":"address"}],"name":"setFreeMintSigner","outputs":[],"stateMutability":"nonpayable","type":"function"},{"inputs":[{"internalType":"uint256","name":"newMintCost","type":"uint256"}],"name":"setMintCost","outputs":[],"stateMutability":"nonpayable","type":"function"},{"inputs":[{"internalType":"address","name":"pkpNftMetadataAddress","type":"address"}],"name":"setPkpNftMetadataAddress","outputs":[],"stateMutability":"nonpayable","type":"function"},{"inputs":[{"internalType":"address","name":"pkpPermissionsAddress","type":"address"}],"name":"setPkpPermissionsAddress","outputs":[],"stateMutability":"nonpayable","type":"function"},{"inputs":[{"internalType":"address","name":"routerAddress","type":"address"}],"name":"setRouterAddress","outputs":[],"stateMutability":"nonpayable","type":"function"},{"inputs":[{"internalType":"bytes4","name":"interfaceId","type":"bytes4"}],"name":"supportsInterface","outputs":[{"internalType":"bool","name":"","type":"bool"}],"stateMutability":"view","type":"function"},{"inputs":[],"name":"symbol","outputs":[{"internalType":"string","name":"","type":"string"}],"stateMutability":"view","type":"function"},{"inputs":[{"internalType":"uint256","name":"index","type":"uint256"}],"name":"tokenByIndex","outputs":[{"internalType":"uint256","name":"","type":"uint256"}],"stateMutability":"view","type":"function"},{"inputs":[{"internalType":"address","name":"owner","type":"address"},{"internalType":"uint256","name":"index","type":"uint256"}],"name":"tokenOfOwnerByIndex","outputs":[{"internalType":"uint256","name":"","type":"uint256"}],"stateMutability":"view","type":"function"},{"inputs":[{"internalType":"uint256","name":"tokenId","type":"uint256"}],"name":"tokenURI","outputs":[{"internalType":"string","name":"","type":"string"}],"stateMutability":"view","type":"function"},{"inputs":[],"name":"totalSupply","outputs":[{"internalType":"uint256","name":"","type":"uint256"}],"stateMutability":"view","type":"function"},{"inputs":[{"internalType":"address","name":"from","type":"address"},{"internalType":"address","name":"to","type":"address"},{"internalType":"uint256","name":"tokenId","type":"uint256"}],"name":"transferFrom","outputs":[],"stateMutability":"nonpayable","type":"function"},{"inputs":[{"internalType":"address","name":"newOwner","type":"address"}],"name":"transferOwnership","outputs":[],"stateMutability":"nonpayable","type":"function"},{"inputs":[{"internalType":"uint256","name":"","type":"uint256"},{"internalType":"uint256","name":"","type":"uint256"}],"name":"unmintedRoutedTokenIds","outputs":[{"internalType":"uint256","name":"","type":"uint256"}],"stateMutability":"view","type":"function"},{"inputs":[],"name":"withdraw","outputs":[],"stateMutability":"nonpayable","type":"function"}]}