{"address":"0x0f66a8213D93123320981f5d02E993BeB6788c40","bytecode":"0x608060405234801561001057600080fd5b50611825806100206000396000f3fe608060405234801561001057600080fd5b50600436106100365760003560e01c8063451d89fa1461003b578063950462ee1461006b575b600080fd5b61005560048036038101906100509190610933565b61009b565b6040516100629190610c92565b60405180910390f35b6100856004803603810190610080919061097c565b6102c0565b6040516100929190610c92565b60405180910390f35b60606000600283516100ad9190610dee565b67ffffffffffffffff8111156100c6576100c561105c565b5b6040519080825280601f01601f1916602001820160405280156100f85781602001600182028036833780820191505090505b50905060006040518060400160405280601081526020017f3031323334353637383961626364656600000000000000000000000000000000815250905060005b8451811015610296578182518683815181106101575761015661102d565b5b602001015160f81c60f81b60f81c60ff166101729190610dbd565b815181106101835761018261102d565b5b602001015160f81c60f81b8360028361019c9190610dee565b815181106101ad576101ac61102d565b5b60200101907effffffffffffffffffffffffffffffffffffffffffffffffffffffffffffff1916908160001a9053508182518683815181106101f2576101f161102d565b5b602001015160f81c60f81b60f81c60ff1661020d9190610f9e565b8151811061021e5761021d61102d565b5b602001015160f81c60f81b8360016002846102399190610dee565b6102439190610d67565b815181106102545761025361102d565b5b60200101907effffffffffffffffffffffffffffffffffffffffffffffffffffffffffffff1916908160001a905350808061028e90610f55565b915050610138565b50816040516020016102a89190610bc1565b60405160208183030381529060405292505050919050565b60606000604051806104800160405280610456815260200161135a6104569139905060006102ed8561009b565b905060006102fa8561036b565b9050600061030788610398565b9050600061033b8286868686604051602001610327959493929190610be3565b6040516020818303038152906040526104f9565b90508060405160200161034e9190610c70565b604051602081830303815290604052955050505050509392505050565b60606103918273ffffffffffffffffffffffffffffffffffffffff16601460ff1661065d565b9050919050565b606060008214156103e0576040518060400160405280600181526020017f300000000000000000000000000000000000000000000000000000000000000081525090506104f4565b600082905060005b600082146104125780806103fb90610f55565b915050600a8261040b9190610dbd565b91506103e8565b60008167ffffffffffffffff81111561042e5761042d61105c565b5b6040519080825280601f01601f1916602001820160405280156104605781602001600182028036833780820191505090505b5090505b600085146104ed576001826104799190610e48565b9150600a856104889190610f9e565b60306104949190610d67565b60f81b8183815181106104aa576104a961102d565b5b60200101907effffffffffffffffffffffffffffffffffffffffffffffffffffffffffffff1916908160001a905350600a856104e69190610dbd565b9450610464565b8093505050505b919050565b606060008251141561051c57604051806020016040528060008152509050610658565b60006040518060600160405280604081526020016117b0604091399050600060036002855161054b9190610d67565b6105559190610dbd565b60046105619190610dee565b67ffffffffffffffff81111561057a5761057961105c565b5b6040519080825280601f01601f1916602001820160405280156105ac5781602001600182028036833780820191505090505b509050600182016020820185865187015b80821015610618576003820191508151603f8160121c168501518453600184019350603f81600c1c168501518453600184019350603f8160061c168501518453600184019350603f81168501518453600184019350506105bd565b505060038651066001811461063457600281146106475761064f565b603d6001830353603d600283035361064f565b603d60018303535b50505080925050505b919050565b6060600060028360026106709190610dee565b61067a9190610d67565b67ffffffffffffffff8111156106935761069261105c565b5b6040519080825280601f01601f1916602001820160405280156106c55781602001600182028036833780820191505090505b5090507f3000000000000000000000000000000000000000000000000000000000000000816000815181106106fd576106fc61102d565b5b60200101907effffffffffffffffffffffffffffffffffffffffffffffffffffffffffffff1916908160001a9053507f7800000000000000000000000000000000000000000000000000000000000000816001815181106107615761076061102d565b5b60200101907effffffffffffffffffffffffffffffffffffffffffffffffffffffffffffff1916908160001a905350600060018460026107a19190610dee565b6107ab9190610d67565b90505b600181111561084b577f3031323334353637383961626364656600000000000000000000000000000000600f8616601081106107ed576107ec61102d565b5b1a60f81b8282815181106108045761080361102d565b5b60200101907effffffffffffffffffffffffffffffffffffffffffffffffffffffffffffff1916908160001a905350600485901c94508061084490610efa565b90506107ae565b506000841461088f576040517f08c379a000000000000000000000000000000000000000000000000000000000815260040161088690610cb4565b60405180910390fd5b8091505092915050565b60006108ac6108a784610cf9565b610cd4565b9050828152602081018484840111156108c8576108c7611090565b5b6108d3848285610eb8565b509392505050565b6000813590506108ea8161132b565b92915050565b600082601f8301126109055761090461108b565b5b8135610915848260208601610899565b91505092915050565b60008135905061092d81611342565b92915050565b6000602082840312156109495761094861109a565b5b600082013567ffffffffffffffff81111561096757610966611095565b5b610973848285016108f0565b91505092915050565b6000806000606084860312156109955761099461109a565b5b60006109a38682870161091e565b935050602084013567ffffffffffffffff8111156109c4576109c3611095565b5b6109d0868287016108f0565b92505060406109e1868287016108db565b9150509250925092565b60006109f682610d2a565b610a008185610d40565b9350610a10818560208601610ec7565b80840191505092915050565b6000610a2782610d35565b610a318185610d4b565b9350610a41818560208601610ec7565b610a4a8161109f565b840191505092915050565b6000610a6082610d35565b610a6a8185610d5c565b9350610a7a818560208601610ec7565b80840191505092915050565b6000610a93602083610d4b565b9150610a9e826110b0565b602082019050919050565b6000610ab6600283610d5c565b9150610ac1826110d9565b600282019050919050565b6000610ad9602983610d5c565b9150610ae482611102565b602982019050919050565b6000610afc603883610d5c565b9150610b0782611151565b603882019050919050565b6000610b1f601383610d5c565b9150610b2a826111a0565b601382019050919050565b6000610b42603383610d5c565b9150610b4d826111c9565b603382019050919050565b6000610b65601d83610d5c565b9150610b7082611218565b601d82019050919050565b6000610b88600483610d5c565b9150610b9382611241565b600482019050919050565b6000610bab609f83610d5c565b9150610bb68261126a565b609f82019050919050565b6000610bcc82610aa9565b9150610bd882846109eb565b915081905092915050565b6000610bee82610b12565b9150610bfa8288610a55565b9150610c0582610b9e565b9150610c1182876109eb565b9150610c1c82610aef565b9150610c288286610a55565b9150610c3382610b35565b9150610c3f8285610a55565b9150610c4a82610acc565b9150610c568284610a55565b9150610c6182610b7b565b91508190509695505050505050565b6000610c7b82610b58565b9150610c878284610a55565b915081905092915050565b60006020820190508181036000830152610cac8184610a1c565b905092915050565b60006020820190508181036000830152610ccd81610a86565b9050919050565b6000610cde610cef565b9050610cea8282610f24565b919050565b6000604051905090565b600067ffffffffffffffff821115610d1457610d1361105c565b5b610d1d8261109f565b9050602081019050919050565b600081519050919050565b600081519050919050565b600081905092915050565b600082825260208201905092915050565b600081905092915050565b6000610d7282610eae565b9150610d7d83610eae565b9250827fffffffffffffffffffffffffffffffffffffffffffffffffffffffffffffffff03821115610db257610db1610fcf565b5b828201905092915050565b6000610dc882610eae565b9150610dd383610eae565b925082610de357610de2610ffe565b5b828204905092915050565b6000610df982610eae565b9150610e0483610eae565b9250817fffffffffffffffffffffffffffffffffffffffffffffffffffffffffffffffff0483118215151615610e3d57610e3c610fcf565b5b828202905092915050565b6000610e5382610eae565b9150610e5e83610eae565b925082821015610e7157610e70610fcf565b5b828203905092915050565b6000610e8782610e8e565b9050919050565b600073ffffffffffffffffffffffffffffffffffffffff82169050919050565b6000819050919050565b82818337600083830152505050565b60005b83811015610ee5578082015181840152602081019050610eca565b83811115610ef4576000848401525b50505050565b6000610f0582610eae565b91506000821415610f1957610f18610fcf565b5b600182039050919050565b610f2d8261109f565b810181811067ffffffffffffffff82111715610f4c57610f4b61105c565b5b80604052505050565b6000610f6082610eae565b91507fffffffffffffffffffffffffffffffffffffffffffffffffffffffffffffffff821415610f9357610f92610fcf565b5b600182019050919050565b6000610fa982610eae565b9150610fb483610eae565b925082610fc457610fc3610ffe565b5b828206905092915050565b7f4e487b7100000000000000000000000000000000000000000000000000000000600052601160045260246000fd5b7f4e487b7100000000000000000000000000000000000000000000000000000000600052601260045260246000fd5b7f4e487b7100000000000000000000000000000000000000000000000000000000600052603260045260246000fd5b7f4e487b7100000000000000000000000000000000000000000000000000000000600052604160045260246000fd5b600080fd5b600080fd5b600080fd5b600080fd5b6000601f19601f8301169050919050565b7f537472696e67733a20686578206c656e67746820696e73756666696369656e74600082015250565b7f3078000000000000000000000000000000000000000000000000000000000000600082015250565b7f227d2c207b2274726169745f74797065223a2022546f6b656e204944222c202260008201527f76616c7565223a20220000000000000000000000000000000000000000000000602082015250565b7f222c2261747472696275746573223a205b7b2274726169745f74797065223a2060008201527f225075626c6963204b6579222c202276616c7565223a20220000000000000000602082015250565b7f7b226e616d65223a20224c697420504b50202300000000000000000000000000600082015250565b7f227d2c207b2274726169745f74797065223a20224554482057616c6c6574204160008201527f646472657373222c202276616c7565223a202200000000000000000000000000602082015250565b7f646174613a6170706c69636174696f6e2f6a736f6e3b6261736536342c000000600082015250565b7f227d5d7d00000000000000000000000000000000000000000000000000000000600082015250565b7f222c20226465736372697074696f6e223a202254686973204e465420656e746960008201527f746c65732074686520686f6c64657220746f207573652061204c69742050726f60208201527f746f636f6c20504b502c20616e6420746f206772616e7420616363657373207460408201527f6f206f7468657220757365727320616e64204c697420416374696f6e7320746f60608201527f20757365207468697320504b50222c2022696d6167655f64617461223a202200608082015250565b61133481610e7c565b811461133f57600080fd5b50565b61134b81610eae565b811461135657600080fd5b5056fe3c73766720786d6c6e733d27687474703a2f2f7777772e77332e6f72672f323030302f737667272077696474683d273130383027206865696768743d2731303830272066696c6c3d276e6f6e652720786d6c6e733a763d2768747470733a2f2f76656374612e696f2f6e616e6f273e3c7061746820643d274d3336332e303736203339322e323237732d2e3937372031382e3532342d33362e3837342037382e393437632d34312e3537362037302e3031382d34352e343831203135312e3937382d332e303137203232302e342038392e353231203134342e323435203333322e343831203134312e3532203432322e3535362e3038392033342e3833322d35342e3730372034342e3831362d3131372e3437392033322e3932342d3138312e323438203020302d32382e3831392d3133332e3134342d3132372e3233372d3231372e30393920312e35353320312e33303820352e3336392031392e31323220362e3130312032362e37323220322e3234312032332e3335342e3034352034372e3833382d372e3738372037302e3036322d352e3734362031362e33332d31332e3731312033302e3436372d32372e3137382034312e33363820302d332e3831312d2e3935342d31302e3633352d2e3937362d31322e3931382d2e3634342d34362e3530382d31382e3635392d38392e3538322d34382e3031312d3132352e3734332d32352e3634372d33312e3535322d36302e3831322d35332e3038392d39372e38342d36382e3933322e39333120332e31393120322e3636322031362e34313920322e3930362031392e30333320312e3930382032312e39353820322e3236332035322e3731332d2e3632312037342e363439732d372e3833322033332e3837382d31342e3535342035342e343431632d31302e3138342033312e3137352d32342e30352035342e3238352d34312e3632312038322e3030342d332e323420352e3039362d31322e3931332031392e3037382d31382e3038322032362e313436203020302d382e3839372d35362e3139312d34302e3636372d38372e393231682d2e3032327a272066696c6c3d2723303030272f3e3c7061746820643d274d3536322e352032372e32386c3431302e323739203233362e3837346331332e39323320382e3033392032322e352032322e3839352032322e352033382e393731763437332e373563302031362e3037362d382e3537372033302e3933322d32322e352033382e3937314c3536322e3520313035322e3732632d31332e39323320382e30342d33312e30373720382e30342d343520304c3130372e323231203831352e383436632d31332e3932332d382e3033392d32322e352d32322e3839352d32322e352d33382e393731762d3437332e37356134352034352030203020312032322e352d33382e3937314c3531372e352032372e323861343520343520302030203120343520307a27207374726f6b653d272330303027207374726f6b652d77696474683d2732342e3735272f3e3c2f7376673e4142434445464748494a4b4c4d4e4f505152535455565758595a6162636465666768696a6b6c6d6e6f707172737475767778797a303132333435363738392b2fa2646970667358221220f3fa5c57e613e9bf19fc34adf2f591de37ad0a18ddbbcf0da20e7c75142e97b964736f6c63430008070033","abi":[{"inputs":[],"stateMutability":"nonpayable","type":"constructor"},{"inputs":[{"internalType":"bytes","name":"buffer","type":"bytes"}],"name":"bytesToHex","outputs":[{"internalType":"string","name":"","type":"string"}],"stateMutability":"pure","type":"function"},{"inputs":[{"internalType":"uint256","name":"tokenId","type":"uint256"},{"internalType":"bytes","name":"pubKey","type":"bytes"},{"internalType":"address","name":"ethAddress","type":"address"}],"name":"tokenURI","outputs":[{"internalType":"string","name":"","type":"string"}],"stateMutability":"pure","type":"function"}]}