{"address":"0xd95752c016E18d0223739848Aeb15b6CBdcdf95F","bytecode":"0x608060405234801561001057600080fd5b506117de806100206000396000f3fe608060405234801561001057600080fd5b50600436106100365760003560e01c8063451d89fa1461003b578063950462ee1461006b575b600080fd5b610055600480360381019061005091906109f1565b61009b565b6040516100629190610ab9565b60405180910390f35b61008560048036038101906100809190610b6f565b6102c0565b6040516100929190610ab9565b60405180910390f35b60606000600283516100ad9190610c0d565b67ffffffffffffffff8111156100c6576100c56108c6565b5b6040519080825280601f01601f1916602001820160405280156100f85781602001600182028036833780820191505090505b50905060006040518060400160405280601081526020017f3031323334353637383961626364656600000000000000000000000000000000815250905060005b84518110156102965781825186838151811061015757610156610c4f565b5b602001015160f81c60f81b60f81c60ff166101729190610cad565b8151811061018357610182610c4f565b5b602001015160f81c60f81b8360028361019c9190610c0d565b815181106101ad576101ac610c4f565b5b60200101907effffffffffffffffffffffffffffffffffffffffffffffffffffffffffffff1916908160001a9053508182518683815181106101f2576101f1610c4f565b5b602001015160f81c60f81b60f81c60ff1661020d9190610cde565b8151811061021e5761021d610c4f565b5b602001015160f81c60f81b8360016002846102399190610c0d565b6102439190610d0f565b8151811061025457610253610c4f565b5b60200101907effffffffffffffffffffffffffffffffffffffffffffffffffffffffffffff1916908160001a905350808061028e90610d43565b915050610138565b50816040516020016102a89190610e29565b60405160208183030381529060405292505050919050565b6060600060405180610480016040528061045681526020016113136104569139905060006102ed8561009b565b905060006102fa8561036b565b9050600061030788610398565b9050600061033b828686868660405160200161032795949392919061114e565b6040516020818303038152906040526104f8565b90508060405160200161034e9190611227565b604051602081830303815290604052955050505050509392505050565b60606103918273ffffffffffffffffffffffffffffffffffffffff16601460ff1661065b565b9050919050565b6060600082036103df576040518060400160405280600181526020017f300000000000000000000000000000000000000000000000000000000000000081525090506104f3565b600082905060005b600082146104115780806103fa90610d43565b915050600a8261040a9190610cad565b91506103e7565b60008167ffffffffffffffff81111561042d5761042c6108c6565b5b6040519080825280601f01601f19166020018201604052801561045f5781602001600182028036833780820191505090505b5090505b600085146104ec576001826104789190611249565b9150600a856104879190610cde565b60306104939190610d0f565b60f81b8183815181106104a9576104a8610c4f565b5b60200101907effffffffffffffffffffffffffffffffffffffffffffffffffffffffffffff1916908160001a905350600a856104e59190610cad565b9450610463565b8093505050505b919050565b6060600082510361051a57604051806020016040528060008152509050610656565b600060405180606001604052806040815260200161176960409139905060006003600285516105499190610d0f565b6105539190610cad565b600461055f9190610c0d565b67ffffffffffffffff811115610578576105776108c6565b5b6040519080825280601f01601f1916602001820160405280156105aa5781602001600182028036833780820191505090505b509050600182016020820185865187015b80821015610616576003820191508151603f8160121c168501518453600184019350603f81600c1c168501518453600184019350603f8160061c168501518453600184019350603f81168501518453600184019350506105bb565b505060038651066001811461063257600281146106455761064d565b603d6001830353603d600283035361064d565b603d60018303535b50505080925050505b919050565b60606000600283600261066e9190610c0d565b6106789190610d0f565b67ffffffffffffffff811115610691576106906108c6565b5b6040519080825280601f01601f1916602001820160405280156106c35781602001600182028036833780820191505090505b5090507f3000000000000000000000000000000000000000000000000000000000000000816000815181106106fb576106fa610c4f565b5b60200101907effffffffffffffffffffffffffffffffffffffffffffffffffffffffffffff1916908160001a9053507f78000000000000000000000000000000000000000000000000000000000000008160018151811061075f5761075e610c4f565b5b60200101907effffffffffffffffffffffffffffffffffffffffffffffffffffffffffffff1916908160001a9053506000600184600261079f9190610c0d565b6107a99190610d0f565b90505b6001811115610849577f3031323334353637383961626364656600000000000000000000000000000000600f8616601081106107eb576107ea610c4f565b5b1a60f81b82828151811061080257610801610c4f565b5b60200101907effffffffffffffffffffffffffffffffffffffffffffffffffffffffffffff1916908160001a905350600485901c9450806108429061127d565b90506107ac565b506000841461088d576040517f08c379a0000000000000000000000000000000000000000000000000000000008152600401610884906112f2565b60405180910390fd5b8091505092915050565b6000604051905090565b600080fd5b600080fd5b600080fd5b600080fd5b6000601f19601f8301169050919050565b7f4e487b7100000000000000000000000000000000000000000000000000000000600052604160045260246000fd5b6108fe826108b5565b810181811067ffffffffffffffff8211171561091d5761091c6108c6565b5b80604052505050565b6000610930610897565b905061093c82826108f5565b919050565b600067ffffffffffffffff82111561095c5761095b6108c6565b5b610965826108b5565b9050602081019050919050565b82818337600083830152505050565b600061099461098f84610941565b610926565b9050828152602081018484840111156109b0576109af6108b0565b5b6109bb848285610972565b509392505050565b600082601f8301126109d8576109d76108ab565b5b81356109e8848260208601610981565b91505092915050565b600060208284031215610a0757610a066108a1565b5b600082013567ffffffffffffffff811115610a2557610a246108a6565b5b610a31848285016109c3565b91505092915050565b600081519050919050565b600082825260208201905092915050565b60005b83811015610a74578082015181840152602081019050610a59565b60008484015250505050565b6000610a8b82610a3a565b610a958185610a45565b9350610aa5818560208601610a56565b610aae816108b5565b840191505092915050565b60006020820190508181036000830152610ad38184610a80565b905092915050565b6000819050919050565b610aee81610adb565b8114610af957600080fd5b50565b600081359050610b0b81610ae5565b92915050565b600073ffffffffffffffffffffffffffffffffffffffff82169050919050565b6000610b3c82610b11565b9050919050565b610b4c81610b31565b8114610b5757600080fd5b50565b600081359050610b6981610b43565b92915050565b600080600060608486031215610b8857610b876108a1565b5b6000610b9686828701610afc565b935050602084013567ffffffffffffffff811115610bb757610bb66108a6565b5b610bc3868287016109c3565b9250506040610bd486828701610b5a565b9150509250925092565b7f4e487b7100000000000000000000000000000000000000000000000000000000600052601160045260246000fd5b6000610c1882610adb565b9150610c2383610adb565b9250828202610c3181610adb565b91508282048414831517610c4857610c47610bde565b5b5092915050565b7f4e487b7100000000000000000000000000000000000000000000000000000000600052603260045260246000fd5b7f4e487b7100000000000000000000000000000000000000000000000000000000600052601260045260246000fd5b6000610cb882610adb565b9150610cc383610adb565b925082610cd357610cd2610c7e565b5b828204905092915050565b6000610ce982610adb565b9150610cf483610adb565b925082610d0457610d03610c7e565b5b828206905092915050565b6000610d1a82610adb565b9150610d2583610adb565b9250828201905080821115610d3d57610d3c610bde565b5b92915050565b6000610d4e82610adb565b91507fffffffffffffffffffffffffffffffffffffffffffffffffffffffffffffffff8203610d8057610d7f610bde565b5b600182019050919050565b600081905092915050565b7f3078000000000000000000000000000000000000000000000000000000000000600082015250565b6000610dcc600283610d8b565b9150610dd782610d96565b600282019050919050565b600081519050919050565b600081905092915050565b6000610e0382610de2565b610e0d8185610ded565b9350610e1d818560208601610a56565b80840191505092915050565b6000610e3482610dbf565b9150610e408284610df8565b915081905092915050565b7f7b226e616d65223a20224c697420504b50202300000000000000000000000000600082015250565b6000610e81601383610d8b565b9150610e8c82610e4b565b601382019050919050565b6000610ea282610a3a565b610eac8185610d8b565b9350610ebc818560208601610a56565b80840191505092915050565b7f222c20226465736372697074696f6e223a202254686973204e465420656e746960008201527f746c65732074686520686f6c64657220746f207573652061204c69742050726f60208201527f746f636f6c20504b502c20616e6420746f206772616e7420616363657373207460408201527f6f206f7468657220757365727320616e64204c697420416374696f6e7320746f60608201527f20757365207468697320504b50222c2022696d6167655f64617461223a202200608082015250565b6000610f96609f83610d8b565b9150610fa182610ec8565b609f82019050919050565b7f222c2261747472696275746573223a205b7b2274726169745f74797065223a2060008201527f225075626c6963204b6579222c202276616c7565223a20220000000000000000602082015250565b6000611008603883610d8b565b915061101382610fac565b603882019050919050565b7f227d2c207b2274726169745f74797065223a20224554482057616c6c6574204160008201527f646472657373222c202276616c7565223a202200000000000000000000000000602082015250565b600061107a603383610d8b565b91506110858261101e565b603382019050919050565b7f227d2c207b2274726169745f74797065223a2022546f6b656e204944222c202260008201527f76616c7565223a20220000000000000000000000000000000000000000000000602082015250565b60006110ec602983610d8b565b91506110f782611090565b602982019050919050565b7f227d5d7d00000000000000000000000000000000000000000000000000000000600082015250565b6000611138600483610d8b565b915061114382611102565b600482019050919050565b600061115982610e74565b91506111658288610e97565b915061117082610f89565b915061117c8287610df8565b915061118782610ffb565b91506111938286610e97565b915061119e8261106d565b91506111aa8285610e97565b91506111b5826110df565b91506111c18284610e97565b91506111cc8261112b565b91508190509695505050505050565b7f646174613a6170706c69636174696f6e2f6a736f6e3b6261736536342c000000600082015250565b6000611211601d83610d8b565b915061121c826111db565b601d82019050919050565b600061123282611204565b915061123e8284610e97565b915081905092915050565b600061125482610adb565b915061125f83610adb565b925082820390508181111561127757611276610bde565b5b92915050565b600061128882610adb565b91506000820361129b5761129a610bde565b5b600182039050919050565b7f537472696e67733a20686578206c656e67746820696e73756666696369656e74600082015250565b60006112dc602083610a45565b91506112e7826112a6565b602082019050919050565b6000602082019050818103600083015261130b816112cf565b905091905056fe3c73766720786d6c6e733d27687474703a2f2f7777772e77332e6f72672f323030302f737667272077696474683d273130383027206865696768743d2731303830272066696c6c3d276e6f6e652720786d6c6e733a763d2768747470733a2f2f76656374612e696f2f6e616e6f273e3c7061746820643d274d3336332e303736203339322e323237732d2e3937372031382e3532342d33362e3837342037382e393437632d34312e3537362037302e3031382d34352e343831203135312e3937382d332e303137203232302e342038392e353231203134342e323435203333322e343831203134312e3532203432322e3535362e3038392033342e3833322d35342e3730372034342e3831362d3131372e3437392033322e3932342d3138312e323438203020302d32382e3831392d3133332e3134342d3132372e3233372d3231372e30393920312e35353320312e33303820352e3336392031392e31323220362e3130312032362e37323220322e3234312032332e3335342e3034352034372e3833382d372e3738372037302e3036322d352e3734362031362e33332d31332e3731312033302e3436372d32372e3137382034312e33363820302d332e3831312d2e3935342d31302e3633352d2e3937362d31322e3931382d2e3634342d34362e3530382d31382e3635392d38392e3538322d34382e3031312d3132352e3734332d32352e3634372d33312e3535322d36302e3831322d35332e3038392d39372e38342d36382e3933322e39333120332e31393120322e3636322031362e34313920322e3930362031392e30333320312e3930382032312e39353820322e3236332035322e3731332d2e3632312037342e363439732d372e3833322033332e3837382d31342e3535342035342e343431632d31302e3138342033312e3137352d32342e30352035342e3238352d34312e3632312038322e3030342d332e323420352e3039362d31322e3931332031392e3037382d31382e3038322032362e313436203020302d382e3839372d35362e3139312d34302e3636372d38372e393231682d2e3032327a272066696c6c3d2723303030272f3e3c7061746820643d274d3536322e352032372e32386c3431302e323739203233362e3837346331332e39323320382e3033392032322e352032322e3839352032322e352033382e393731763437332e373563302031362e3037362d382e3537372033302e3933322d32322e352033382e3937314c3536322e3520313035322e3732632d31332e39323320382e30342d33312e30373720382e30342d343520304c3130372e323231203831352e383436632d31332e3932332d382e3033392d32322e352d32322e3839352d32322e352d33382e393731762d3437332e37356134352034352030203020312032322e352d33382e3937314c3531372e352032372e323861343520343520302030203120343520307a27207374726f6b653d272330303027207374726f6b652d77696474683d2732342e3735272f3e3c2f7376673e4142434445464748494a4b4c4d4e4f505152535455565758595a6162636465666768696a6b6c6d6e6f707172737475767778797a303132333435363738392b2fa2646970667358221220cf1147ada11a22dc87ce14df5a91becc05940bc778d2125e6341339a8bac633c64736f6c63430008110033","abi":[{"inputs":[],"stateMutability":"nonpayable","type":"constructor"},{"inputs":[{"internalType":"bytes","name":"buffer","type":"bytes"}],"name":"bytesToHex","outputs":[{"internalType":"string","name":"","type":"string"}],"stateMutability":"pure","type":"function"},{"inputs":[{"internalType":"uint256","name":"tokenId","type":"uint256"},{"internalType":"bytes","name":"pubKey","type":"bytes"},{"internalType":"address","name":"ethAddress","type":"address"}],"name":"tokenURI","outputs":[{"internalType":"string","name":"","type":"string"}],"stateMutability":"pure","type":"function"}]}