{"address":"0xe3b1BB9ba2Cd347e025c900ec0310fEd144b15a0","bytecode":"0x60806040523480156200001157600080fd5b506040518060400160405280601481526020017f50726f6772616d6d61626c65204b6579706169720000000000000000000000008152506040518060400160405280600381526020017f504b500000000000000000000000000000000000000000000000000000000000815250816000908051906020019062000096929190620001f4565b508060019080519060200190620000af929190620001f4565b505050620000d2620000c66200012660201b60201c565b6200012e60201b60201c565b655af3107a4000600d8190555033600f60006101000a81548173ffffffffffffffffffffffffffffffffffffffff021916908373ffffffffffffffffffffffffffffffffffffffff16021790555062000309565b600033905090565b6000600660009054906101000a900473ffffffffffffffffffffffffffffffffffffffff16905081600660006101000a81548173ffffffffffffffffffffffffffffffffffffffff021916908373ffffffffffffffffffffffffffffffffffffffff1602179055508173ffffffffffffffffffffffffffffffffffffffff168173ffffffffffffffffffffffffffffffffffffffff167f8be0079c531659141344cd1fd0a4f28419497f9722a3daafe3b4186f6b6457e060405160405180910390a35050565b8280546200020290620002a4565b90600052602060002090601f01602090048101928262000226576000855562000272565b82601f106200024157805160ff191683800117855562000272565b8280016001018555821562000272579182015b828111156200027157825182559160200191906001019062000254565b5b50905062000281919062000285565b5090565b5b80821115620002a057600081600090555060010162000286565b5090565b60006002820490506001821680620002bd57607f821691505b60208210811415620002d457620002d3620002da565b5b50919050565b7f4e487b7100000000000000000000000000000000000000000000000000000000600052602260045260246000fd5b61598380620003196000396000f3fe6080604052600436106102515760003560e01c80636352211e11610139578063b88d4fde116100b6578063d7b0398b1161007a578063d7b0398b146108f0578063e985e9c51461092d578063f2fde38b1461096a578063f556aeb114610993578063f70e72ef146109bc578063f887ea40146109f957610251565b8063b88d4fde1461080b578063b94a210214610834578063bdb4b8481461085f578063c87b56dd1461088a578063d3436826146108c757610251565b80638b7afe2e116100fd5780638b7afe2e146107365780638da5cb5b1461076157806395d89b411461078c57806397016f3f146107b7578063a22cb465146107e257610251565b80636352211e1461064c57806366a306d71461068957806370a08231146106b9578063715018a6146106f65780638545f4ea1461070d57610251565b80633b189852116101d257806342dd8fcb1161019657806342dd8fcb146105135780634c19eae6146105505780634f6ccce71461057957806356e3a1ae146105b65780635c110a9c146105f35780635d228b161461061c57610251565b80633b189852146104585780633ccfd60b1461048157806341cb87fc1461049857806342842e0e146104c157806342966c68146104ea57610251565b806318160ddd1161021957806318160ddd146103615780631ea89a221461038c5780631f275713146103b557806323b872dd146103f25780632f745c591461041b57610251565b806301ffc9a71461025657806306fdde0314610293578063081812fc146102be578063095ea7b3146102fb5780631582391c14610324575b600080fd5b34801561026257600080fd5b5061027d6004803603810190610278919061361d565b610a24565b60405161028a9190613fe1565b60405180910390f35b34801561029f57600080fd5b506102a8610b5e565b6040516102b59190614092565b60405180910390f35b3480156102ca57600080fd5b506102e560048036038101906102e091906136c0565b610bf0565b6040516102f29190613f7a565b60405180910390f35b34801561030757600080fd5b50610322600480360381019061031d9190613583565b610c36565b005b34801561033057600080fd5b5061034b60048036038101906103469190613804565b610d4e565b6040516103589190614374565b60405180910390f35b34801561036d57600080fd5b50610376610d78565b6040516103839190614374565b60405180910390f35b34801561039857600080fd5b506103b360048036038101906103ae91906133d3565b610d85565b005b3480156103c157600080fd5b506103dc60048036038101906103d791906135f0565b610dd1565b6040516103e99190613ffc565b60405180910390f35b3480156103fe57600080fd5b506104196004803603810190610414919061346d565b610e01565b005b34801561042757600080fd5b50610442600480360381019061043d9190613583565b610e61565b60405161044f9190614374565b60405180910390f35b34801561046457600080fd5b5061047f600480360381019061047a91906133d3565b610f06565b005b34801561048d57600080fd5b50610496610f52565b005b3480156104a457600080fd5b506104bf60048036038101906104ba91906133d3565b610fad565b005b3480156104cd57600080fd5b506104e860048036038101906104e3919061346d565b610ff9565b005b3480156104f657600080fd5b50610511600480360381019061050c91906136c0565b611019565b005b34801561051f57600080fd5b5061053a600480360381019061053591906136c0565b611075565b6040516105479190614374565b60405180910390f35b34801561055c57600080fd5b50610577600480360381019061057291906136ed565b611095565b005b34801561058557600080fd5b506105a0600480360381019061059b91906136c0565b61125f565b6040516105ad9190614374565b60405180910390f35b3480156105c257600080fd5b506105dd60048036038101906105d891906136c0565b6112d0565b6040516105ea9190613fe1565b60405180910390f35b3480156105ff57600080fd5b5061061a600480360381019061061591906137c4565b6112f0565b005b610636600480360381019061063191906136c0565b6113be565b6040516106439190614374565b60405180910390f35b34801561065857600080fd5b50610673600480360381019061066e91906136c0565b611424565b6040516106809190613f7a565b60405180910390f35b6106a3600480360381019061069e9190613768565b6114d6565b6040516106b09190614374565b60405180910390f35b3480156106c557600080fd5b506106e060048036038101906106db91906133d3565b6115d5565b6040516106ed9190614374565b60405180910390f35b34801561070257600080fd5b5061070b61168d565b005b34801561071957600080fd5b50610734600480360381019061072f91906136c0565b6116a1565b005b34801561074257600080fd5b5061074b6116b3565b6040516107589190614374565b60405180910390f35b34801561076d57600080fd5b506107766116b9565b6040516107839190613f7a565b60405180910390f35b34801561079857600080fd5b506107a16116e3565b6040516107ae9190614092565b60405180910390f35b3480156107c357600080fd5b506107cc611775565b6040516107d9919061405c565b60405180910390f35b3480156107ee57600080fd5b5061080960048036038101906108049190613543565b61179b565b005b34801561081757600080fd5b50610832600480360381019061082d91906134c0565b6117b1565b005b34801561084057600080fd5b50610849611813565b6040516108569190613f7a565b60405180910390f35b34801561086b57600080fd5b50610874611839565b6040516108819190614374565b60405180910390f35b34801561089657600080fd5b506108b160048036038101906108ac91906136c0565b61183f565b6040516108be9190614092565b60405180910390f35b3480156108d357600080fd5b506108ee60048036038101906108e991906136c0565b611a1f565b005b3480156108fc57600080fd5b5061091760048036038101906109129190613891565b611a34565b6040516109249190614374565b60405180910390f35b34801561093957600080fd5b50610954600480360381019061094f919061342d565b611a60565b6040516109619190613fe1565b60405180910390f35b34801561097657600080fd5b50610991600480360381019061098c91906133d3565b611af4565b005b34801561099f57600080fd5b506109ba60048036038101906109b59190613768565b611b78565b005b3480156109c857600080fd5b506109e360048036038101906109de91906137c4565b611c26565b6040516109f09190614374565b60405180910390f35b348015610a0557600080fd5b50610a0e611c57565b604051610a1b9190614077565b60405180910390f35b60007f780e9d63000000000000000000000000000000000000000000000000000000007bffffffffffffffffffffffffffffffffffffffffffffffffffffffff1916827bffffffffffffffffffffffffffffffffffffffffffffffffffffffff19161480610aef57507f5b5e139f000000000000000000000000000000000000000000000000000000007bffffffffffffffffffffffffffffffffffffffffffffffffffffffff1916827bffffffffffffffffffffffffffffffffffffffffffffffffffffffff1916145b80610b5757507f80ac58cd000000000000000000000000000000000000000000000000000000007bffffffffffffffffffffffffffffffffffffffffffffffffffffffff1916827bffffffffffffffffffffffffffffffffffffffffffffffffffffffff1916145b9050919050565b606060008054610b6d9061468d565b80601f0160208091040260200160405190810160405280929190818152602001828054610b999061468d565b8015610be65780601f10610bbb57610100808354040283529160200191610be6565b820191906000526020600020905b815481529060010190602001808311610bc957829003601f168201915b5050505050905090565b6000610bfb82611c7d565b6004600083815260200190815260200160002060009054906101000a900473ffffffffffffffffffffffffffffffffffffffff169050919050565b6000610c4182611424565b90508073ffffffffffffffffffffffffffffffffffffffff168373ffffffffffffffffffffffffffffffffffffffff161415610cb2576040517f08c379a0000000000000000000000000000000000000000000000000000000008152600401610ca9906142b4565b60405180910390fd5b8073ffffffffffffffffffffffffffffffffffffffff16610cd1611cc8565b73ffffffffffffffffffffffffffffffffffffffff161480610d005750610cff81610cfa611cc8565b611a60565b5b610d3f576040517f08c379a0000000000000000000000000000000000000000000000000000000008152600401610d3690614234565b60405180910390fd5b610d498383611cd0565b505050565b600080610d5a88611d89565b9050610d6a878288888888611e7b565b809150509695505050505050565b6000600980549050905090565b610d8d611ec6565b80600c60006101000a81548173ffffffffffffffffffffffffffffffffffffffff021916908373ffffffffffffffffffffffffffffffffffffffff16021790555050565b600081604051602001610de49190613ed1565b604051602081830303815290604052805190602001209050919050565b610e12610e0c611cc8565b82611f44565b610e51576040517f08c379a0000000000000000000000000000000000000000000000000000000008152600401610e4890614354565b60405180910390fd5b610e5c838383611fd9565b505050565b6000610e6c836115d5565b8210610ead576040517f08c379a0000000000000000000000000000000000000000000000000000000008152600401610ea4906140f4565b60405180910390fd5b600760008473ffffffffffffffffffffffffffffffffffffffff1673ffffffffffffffffffffffffffffffffffffffff168152602001908152602001600020600083815260200190815260200160002054905092915050565b610f0e611ec6565b80600f60006101000a81548173ffffffffffffffffffffffffffffffffffffffff021916908373ffffffffffffffffffffffffffffffffffffffff16021790555050565b610f5a611ec6565b3373ffffffffffffffffffffffffffffffffffffffff166108fc600e549081150290604051600060405180830381858888f19350505050158015610fa2573d6000803e3d6000fd5b506000600e81905550565b610fb5611ec6565b80600b60006101000a81548173ffffffffffffffffffffffffffffffffffffffff021916908373ffffffffffffffffffffffffffffffffffffffff16021790555050565b611014838383604051806020016040528060008152506117b1565b505050565b61102a611024611cc8565b82611f44565b611069576040517f08c379a000000000000000000000000000000000000000000000000000000000815260040161106090614354565b60405180910390fd5b61107281612240565b50565b600060106000838152602001908152602001600020805490509050919050565b60006110c830876040516020016110ad929190613ea5565b60405160208183030381529060405280519060200120610dd1565b905084811461110c576040517f08c379a000000000000000000000000000000000000000000000000000000000815260040161110390614314565b60405180910390fd5b6000600186868686604051600081526020016040526040516111319493929190614017565b6020604051602081039080840390855afa158015611153573d6000803e3d6000fd5b505050602060405103519050600f60009054906101000a900473ffffffffffffffffffffffffffffffffffffffff1673ffffffffffffffffffffffffffffffffffffffff168173ffffffffffffffffffffffffffffffffffffffff16146111ef576040517f08c379a00000000000000000000000000000000000000000000000000000000081526004016111e6906142d4565b60405180910390fd5b600015156011600089815260200190815260200160002060009054906101000a900460ff16151514611256576040517f08c379a000000000000000000000000000000000000000000000000000000000815260040161124d90614334565b60405180910390fd5b50505050505050565b6000611269610d78565b82106112aa576040517f08c379a00000000000000000000000000000000000000000000000000000000081526004016112a1906142f4565b60405180910390fd5b600982815481106112be576112bd6147e4565b5b90600052602060002001549050919050565b60116020528060005260406000206000915054906101000a900460ff1681565b600b60009054906101000a900473ffffffffffffffffffffffffffffffffffffffff1673ffffffffffffffffffffffffffffffffffffffff163373ffffffffffffffffffffffffffffffffffffffff1614611380576040517f08c379a0000000000000000000000000000000000000000000000000000000008152600401611377906140b4565b60405180910390fd5b601060008281526020019081526020016000208290806001815401808255809150506001900390600052602060002001600090919091909150555050565b6000600d543414611404576040517f08c379a00000000000000000000000000000000000000000000000000000000081526004016113fb90614134565b60405180910390fd5b600061140f83611d89565b905061141b813361235d565b80915050919050565b6000806002600084815260200190815260200160002060009054906101000a900473ffffffffffffffffffffffffffffffffffffffff169050600073ffffffffffffffffffffffffffffffffffffffff168173ffffffffffffffffffffffffffffffffffffffff1614156114cd576040517f08c379a00000000000000000000000000000000000000000000000000000000081526004016114c490614294565b60405180910390fd5b80915050919050565b6000600d54341461151c576040517f08c379a000000000000000000000000000000000000000000000000000000000815260040161151390614134565b60405180910390fd5b600061152784611d89565b9050611533813061235d565b600c60009054906101000a900473ffffffffffffffffffffffffffffffffffffffff1673ffffffffffffffffffffffffffffffffffffffff166354b06ae382856040518363ffffffff1660e01b815260040161159092919061438f565b600060405180830381600087803b1580156115aa57600080fd5b505af11580156115be573d6000803e3d6000fd5b505050506115cb81612240565b8091505092915050565b60008073ffffffffffffffffffffffffffffffffffffffff168273ffffffffffffffffffffffffffffffffffffffff161415611646576040517f08c379a000000000000000000000000000000000000000000000000000000000815260040161163d90614214565b60405180910390fd5b600360008373ffffffffffffffffffffffffffffffffffffffff1673ffffffffffffffffffffffffffffffffffffffff168152602001908152602001600020549050919050565b611695611ec6565b61169f60006124b2565b565b6116a9611ec6565b80600d8190555050565b600e5481565b6000600660009054906101000a900473ffffffffffffffffffffffffffffffffffffffff16905090565b6060600180546116f29061468d565b80601f016020809104026020016040519081016040528092919081815260200182805461171e9061468d565b801561176b5780601f106117405761010080835404028352916020019161176b565b820191906000526020600020905b81548152906001019060200180831161174e57829003601f168201915b5050505050905090565b600c60009054906101000a900473ffffffffffffffffffffffffffffffffffffffff1681565b6117ad6117a6611cc8565b8383612578565b5050565b6117c26117bc611cc8565b83611f44565b611801576040517f08c379a00000000000000000000000000000000000000000000000000000000081526004016117f890614354565b60405180910390fd5b61180d848484846126e5565b50505050565b600f60009054906101000a900473ffffffffffffffffffffffffffffffffffffffff1681565b600d5481565b60606000604051806108400160405280610803815260200161510b610803913990506000600b60009054906101000a900473ffffffffffffffffffffffffffffffffffffffff1673ffffffffffffffffffffffffffffffffffffffff1663ef6fd878856040518263ffffffff1660e01b81526004016118be9190614374565b60006040518083038186803b1580156118d657600080fd5b505afa1580156118ea573d6000803e3d6000fd5b505050506040513d6000823e3d601f19601f820116820180604052508101906119139190613677565b90506000600b60009054906101000a900473ffffffffffffffffffffffffffffffffffffffff1673ffffffffffffffffffffffffffffffffffffffff1663bd4986a0866040518263ffffffff1660e01b81526004016119729190614374565b60206040518083038186803b15801561198a57600080fd5b505afa15801561199e573d6000803e3d6000fd5b505050506040513d601f19601f820116820180604052508101906119c29190613400565b905060006119f28484846040516020016119de93929190613ef7565b604051602081830303815290604052612741565b905080604051602001611a059190613f58565b604051602081830303815290604052945050505050919050565b611a27611ec6565b611a31813361235d565b50565b600080611a4089611d89565b9050611a51888289898989896128a5565b80915050979650505050505050565b6000600560008473ffffffffffffffffffffffffffffffffffffffff1673ffffffffffffffffffffffffffffffffffffffff16815260200190815260200160002060008373ffffffffffffffffffffffffffffffffffffffff1673ffffffffffffffffffffffffffffffffffffffff16815260200190815260200160002060009054906101000a900460ff16905092915050565b611afc611ec6565b600073ffffffffffffffffffffffffffffffffffffffff168173ffffffffffffffffffffffffffffffffffffffff161415611b6c576040517f08c379a0000000000000000000000000000000000000000000000000000000008152600401611b6390614154565b60405180910390fd5b611b75816124b2565b50565b611b80611ec6565b611b8a823061235d565b600c60009054906101000a900473ffffffffffffffffffffffffffffffffffffffff1673ffffffffffffffffffffffffffffffffffffffff166354b06ae383836040518363ffffffff1660e01b8152600401611be792919061438f565b600060405180830381600087803b158015611c0157600080fd5b505af1158015611c15573d6000803e3d6000fd5b50505050611c2282612240565b5050565b60106020528160005260406000208181548110611c4257600080fd5b90600052602060002001600091509150505481565b600b60009054906101000a900473ffffffffffffffffffffffffffffffffffffffff1681565b611c8681612989565b611cc5576040517f08c379a0000000000000000000000000000000000000000000000000000000008152600401611cbc90614294565b60405180910390fd5b50565b600033905090565b816004600083815260200190815260200160002060006101000a81548173ffffffffffffffffffffffffffffffffffffffff021916908373ffffffffffffffffffffffffffffffffffffffff160217905550808273ffffffffffffffffffffffffffffffffffffffff16611d4383611424565b73ffffffffffffffffffffffffffffffffffffffff167f8c5be1e5ebec7d5bd14f71427d1e84f3dd0314c0f7b2291e5b200ac8c7c3b92560405160405180910390a45050565b600080601060008481526020019081526020016000208054905011611de3576040517f08c379a0000000000000000000000000000000000000000000000000000000008152600401611dda906140d4565b60405180910390fd5b60006010600084815260200190815260200160002060016010600086815260200190815260200160002080549050611e1b9190614544565b81548110611e2c57611e2b6147e4565b5b9060005260206000200154905060106000848152602001908152602001600020805480611e5c57611e5b6147b5565b5b6001900381819060005260206000200160009055905580915050919050565b611e888685858585611095565b611e92853361235d565b60016011600088815260200190815260200160002060006101000a81548160ff021916908315150217905550505050505050565b611ece611cc8565b73ffffffffffffffffffffffffffffffffffffffff16611eec6116b9565b73ffffffffffffffffffffffffffffffffffffffff1614611f42576040517f08c379a0000000000000000000000000000000000000000000000000000000008152600401611f3990614274565b60405180910390fd5b565b600080611f5083611424565b90508073ffffffffffffffffffffffffffffffffffffffff168473ffffffffffffffffffffffffffffffffffffffff161480611f925750611f918185611a60565b5b80611fd057508373ffffffffffffffffffffffffffffffffffffffff16611fb884610bf0565b73ffffffffffffffffffffffffffffffffffffffff16145b91505092915050565b8273ffffffffffffffffffffffffffffffffffffffff16611ff982611424565b73ffffffffffffffffffffffffffffffffffffffff161461204f576040517f08c379a000000000000000000000000000000000000000000000000000000000815260040161204690614174565b60405180910390fd5b600073ffffffffffffffffffffffffffffffffffffffff168273ffffffffffffffffffffffffffffffffffffffff1614156120bf576040517f08c379a00000000000000000000000000000000000000000000000000000000081526004016120b6906141d4565b60405180910390fd5b6120ca8383836129f5565b6120d5600082611cd0565b6001600360008573ffffffffffffffffffffffffffffffffffffffff1673ffffffffffffffffffffffffffffffffffffffff16815260200190815260200160002060008282546121259190614544565b925050819055506001600360008473ffffffffffffffffffffffffffffffffffffffff1673ffffffffffffffffffffffffffffffffffffffff168152602001908152602001600020600082825461217c9190614463565b92505081905550816002600083815260200190815260200160002060006101000a81548173ffffffffffffffffffffffffffffffffffffffff021916908373ffffffffffffffffffffffffffffffffffffffff160217905550808273ffffffffffffffffffffffffffffffffffffffff168473ffffffffffffffffffffffffffffffffffffffff167fddf252ad1be2c89b69c2b068fc378daa952ba7f163c4a11628f55a4df523b3ef60405160405180910390a461223b838383612a05565b505050565b600061224b82611424565b9050612259816000846129f5565b612264600083611cd0565b6001600360008373ffffffffffffffffffffffffffffffffffffffff1673ffffffffffffffffffffffffffffffffffffffff16815260200190815260200160002060008282546122b49190614544565b925050819055506002600083815260200190815260200160002060006101000a81549073ffffffffffffffffffffffffffffffffffffffff021916905581600073ffffffffffffffffffffffffffffffffffffffff168273ffffffffffffffffffffffffffffffffffffffff167fddf252ad1be2c89b69c2b068fc378daa952ba7f163c4a11628f55a4df523b3ef60405160405180910390a461235981600084612a05565b5050565b600b60009054906101000a900473ffffffffffffffffffffffffffffffffffffffff1673ffffffffffffffffffffffffffffffffffffffff166301c6d035836040518263ffffffff1660e01b81526004016123b89190614374565b60206040518083038186803b1580156123d057600080fd5b505afa1580156123e4573d6000803e3d6000fd5b505050506040513d601f19601f8201168201806040525081019061240891906135c3565b612447576040517f08c379a000000000000000000000000000000000000000000000000000000000815260040161243e906141b4565b60405180910390fd5b3073ffffffffffffffffffffffffffffffffffffffff168173ffffffffffffffffffffffffffffffffffffffff16141561248a576124858183612a0a565b612495565b6124948183612be4565b5b34600e60008282546124a79190614463565b925050819055505050565b6000600660009054906101000a900473ffffffffffffffffffffffffffffffffffffffff16905081600660006101000a81548173ffffffffffffffffffffffffffffffffffffffff021916908373ffffffffffffffffffffffffffffffffffffffff1602179055508173ffffffffffffffffffffffffffffffffffffffff168173ffffffffffffffffffffffffffffffffffffffff167f8be0079c531659141344cd1fd0a4f28419497f9722a3daafe3b4186f6b6457e060405160405180910390a35050565b8173ffffffffffffffffffffffffffffffffffffffff168373ffffffffffffffffffffffffffffffffffffffff1614156125e7576040517f08c379a00000000000000000000000000000000000000000000000000000000081526004016125de906141f4565b60405180910390fd5b80600560008573ffffffffffffffffffffffffffffffffffffffff1673ffffffffffffffffffffffffffffffffffffffff16815260200190815260200160002060008473ffffffffffffffffffffffffffffffffffffffff1673ffffffffffffffffffffffffffffffffffffffff16815260200190815260200160002060006101000a81548160ff0219169083151502179055508173ffffffffffffffffffffffffffffffffffffffff168373ffffffffffffffffffffffffffffffffffffffff167f17307eab39ab6107e8899845ad3d59bd9653f200f220920489ca2b5937696c31836040516126d89190613fe1565b60405180910390a3505050565b6126f0848484611fd9565b6126fc84848484612c02565b61273b576040517f08c379a000000000000000000000000000000000000000000000000000000000815260040161273290614114565b60405180910390fd5b50505050565b6060600082511415612764576040518060200160405280600081525090506128a0565b600060405180606001604052806040815260200161590e60409139905060006003600285516127939190614463565b61279d91906144b9565b60046127a991906144ea565b67ffffffffffffffff8111156127c2576127c1614813565b5b6040519080825280601f01601f1916602001820160405280156127f45781602001600182028036833780820191505090505b509050600182016020820185865187015b80821015612860576003820191508151603f8160121c168501518453600184019350603f81600c1c168501518453600184019350603f8160061c168501518453600184019350603f8116850151845360018401935050612805565b505060038651066001811461287c576002811461288f57612897565b603d6001830353603d6002830353612897565b603d60018303535b50505080925050505b919050565b6128b28785858585611095565b6128bc863061235d565b60016011600089815260200190815260200160002060006101000a81548160ff021916908315150217905550600c60009054906101000a900473ffffffffffffffffffffffffffffffffffffffff1673ffffffffffffffffffffffffffffffffffffffff166354b06ae387876040518363ffffffff1660e01b815260040161294592919061438f565b600060405180830381600087803b15801561295f57600080fd5b505af1158015612973573d6000803e3d6000fd5b5050505061298086612240565b50505050505050565b60008073ffffffffffffffffffffffffffffffffffffffff166002600084815260200190815260200160002060009054906101000a900473ffffffffffffffffffffffffffffffffffffffff1673ffffffffffffffffffffffffffffffffffffffff1614159050919050565b612a00838383612d99565b505050565b505050565b600073ffffffffffffffffffffffffffffffffffffffff168273ffffffffffffffffffffffffffffffffffffffff161415612a7a576040517f08c379a0000000000000000000000000000000000000000000000000000000008152600401612a7190614254565b60405180910390fd5b612a8381612989565b15612ac3576040517f08c379a0000000000000000000000000000000000000000000000000000000008152600401612aba90614194565b60405180910390fd5b612acf600083836129f5565b6001600360008473ffffffffffffffffffffffffffffffffffffffff1673ffffffffffffffffffffffffffffffffffffffff1681526020019081526020016000206000828254612b1f9190614463565b92505081905550816002600083815260200190815260200160002060006101000a81548173ffffffffffffffffffffffffffffffffffffffff021916908373ffffffffffffffffffffffffffffffffffffffff160217905550808273ffffffffffffffffffffffffffffffffffffffff16600073ffffffffffffffffffffffffffffffffffffffff167fddf252ad1be2c89b69c2b068fc378daa952ba7f163c4a11628f55a4df523b3ef60405160405180910390a4612be060008383612a05565b5050565b612bfe828260405180602001604052806000815250612ead565b5050565b6000612c238473ffffffffffffffffffffffffffffffffffffffff16612f08565b15612d8c578373ffffffffffffffffffffffffffffffffffffffff1663150b7a02612c4c611cc8565b8786866040518563ffffffff1660e01b8152600401612c6e9493929190613f95565b602060405180830381600087803b158015612c8857600080fd5b505af1925050508015612cb957506040513d601f19601f82011682018060405250810190612cb6919061364a565b60015b612d3c573d8060008114612ce9576040519150601f19603f3d011682016040523d82523d6000602084013e612cee565b606091505b50600081511415612d34576040517f08c379a0000000000000000000000000000000000000000000000000000000008152600401612d2b90614114565b60405180910390fd5b805181602001fd5b63150b7a0260e01b7bffffffffffffffffffffffffffffffffffffffffffffffffffffffff1916817bffffffffffffffffffffffffffffffffffffffffffffffffffffffff191614915050612d91565b600190505b949350505050565b612da4838383612f2b565b600073ffffffffffffffffffffffffffffffffffffffff168373ffffffffffffffffffffffffffffffffffffffff161415612de757612de281612f30565b612e26565b8173ffffffffffffffffffffffffffffffffffffffff168373ffffffffffffffffffffffffffffffffffffffff1614612e2557612e248382612f79565b5b5b600073ffffffffffffffffffffffffffffffffffffffff168273ffffffffffffffffffffffffffffffffffffffff161415612e6957612e64816130e6565b612ea8565b8273ffffffffffffffffffffffffffffffffffffffff168273ffffffffffffffffffffffffffffffffffffffff1614612ea757612ea682826131b7565b5b5b505050565b612eb78383612a0a565b612ec46000848484612c02565b612f03576040517f08c379a0000000000000000000000000000000000000000000000000000000008152600401612efa90614114565b60405180910390fd5b505050565b6000808273ffffffffffffffffffffffffffffffffffffffff163b119050919050565b505050565b600980549050600a600083815260200190815260200160002081905550600981908060018154018082558091505060019003906000526020600020016000909190919091505550565b60006001612f86846115d5565b612f909190614544565b9050600060086000848152602001908152602001600020549050818114613075576000600760008673ffffffffffffffffffffffffffffffffffffffff1673ffffffffffffffffffffffffffffffffffffffff168152602001908152602001600020600084815260200190815260200160002054905080600760008773ffffffffffffffffffffffffffffffffffffffff1673ffffffffffffffffffffffffffffffffffffffff168152602001908152602001600020600084815260200190815260200160002081905550816008600083815260200190815260200160002081905550505b6008600084815260200190815260200160002060009055600760008573ffffffffffffffffffffffffffffffffffffffff1673ffffffffffffffffffffffffffffffffffffffff16815260200190815260200160002060008381526020019081526020016000206000905550505050565b600060016009805490506130fa9190614544565b90506000600a600084815260200190815260200160002054905060006009838154811061312a576131296147e4565b5b90600052602060002001549050806009838154811061314c5761314b6147e4565b5b906000526020600020018190555081600a600083815260200190815260200160002081905550600a600085815260200190815260200160002060009055600980548061319b5761319a6147b5565b5b6001900381819060005260206000200160009055905550505050565b60006131c2836115d5565b905081600760008573ffffffffffffffffffffffffffffffffffffffff1673ffffffffffffffffffffffffffffffffffffffff168152602001908152602001600020600083815260200190815260200160002081905550806008600084815260200190815260200160002081905550505050565b6000613249613244846143e4565b6143bf565b90508281526020810184848401111561326557613264614847565b5b61327084828561464b565b509392505050565b600061328b613286846143e4565b6143bf565b9050828152602081018484840111156132a7576132a6614847565b5b6132b284828561465a565b509392505050565b6000813590506132c981615080565b92915050565b6000815190506132de81615080565b92915050565b6000813590506132f381615097565b92915050565b60008151905061330881615097565b92915050565b60008135905061331d816150ae565b92915050565b600081359050613332816150c5565b92915050565b600081519050613347816150c5565b92915050565b600082601f83011261336257613361614842565b5b8135613372848260208601613236565b91505092915050565b600082601f8301126133905761338f614842565b5b81516133a0848260208601613278565b91505092915050565b6000813590506133b8816150dc565b92915050565b6000813590506133cd816150f3565b92915050565b6000602082840312156133e9576133e8614851565b5b60006133f7848285016132ba565b91505092915050565b60006020828403121561341657613415614851565b5b6000613424848285016132cf565b91505092915050565b6000806040838503121561344457613443614851565b5b6000613452858286016132ba565b9250506020613463858286016132ba565b9150509250929050565b60008060006060848603121561348657613485614851565b5b6000613494868287016132ba565b93505060206134a5868287016132ba565b92505060406134b6868287016133a9565b9150509250925092565b600080600080608085870312156134da576134d9614851565b5b60006134e8878288016132ba565b94505060206134f9878288016132ba565b935050604061350a878288016133a9565b925050606085013567ffffffffffffffff81111561352b5761352a61484c565b5b6135378782880161334d565b91505092959194509250565b6000806040838503121561355a57613559614851565b5b6000613568858286016132ba565b9250506020613579858286016132e4565b9150509250929050565b6000806040838503121561359a57613599614851565b5b60006135a8858286016132ba565b92505060206135b9858286016133a9565b9150509250929050565b6000602082840312156135d9576135d8614851565b5b60006135e7848285016132f9565b91505092915050565b60006020828403121561360657613605614851565b5b60006136148482850161330e565b91505092915050565b60006020828403121561363357613632614851565b5b600061364184828501613323565b91505092915050565b6000602082840312156136605761365f614851565b5b600061366e84828501613338565b91505092915050565b60006020828403121561368d5761368c614851565b5b600082015167ffffffffffffffff8111156136ab576136aa61484c565b5b6136b78482850161337b565b91505092915050565b6000602082840312156136d6576136d5614851565b5b60006136e4848285016133a9565b91505092915050565b600080600080600060a0868803121561370957613708614851565b5b6000613717888289016133a9565b95505060206137288882890161330e565b9450506040613739888289016133be565b935050606061374a8882890161330e565b925050608061375b8882890161330e565b9150509295509295909350565b6000806040838503121561377f5761377e614851565b5b600061378d858286016133a9565b925050602083013567ffffffffffffffff8111156137ae576137ad61484c565b5b6137ba8582860161334d565b9150509250929050565b600080604083850312156137db576137da614851565b5b60006137e9858286016133a9565b92505060206137fa858286016133a9565b9150509250929050565b60008060008060008060c0878903121561382157613820614851565b5b600061382f89828a016133a9565b965050602061384089828a016133a9565b955050604061385189828a0161330e565b945050606061386289828a016133be565b935050608061387389828a0161330e565b92505060a061388489828a0161330e565b9150509295509295509295565b600080600080600080600060e0888a0312156138b0576138af614851565b5b60006138be8a828b016133a9565b97505060206138cf8a828b016133a9565b965050604088013567ffffffffffffffff8111156138f0576138ef61484c565b5b6138fc8a828b0161334d565b955050606061390d8a828b0161330e565b945050608061391e8a828b016133be565b93505060a061392f8a828b0161330e565b92505060c06139408a828b0161330e565b91505092959891949750929550565b61395881614578565b82525050565b61396f61396a82614578565b6146f0565b82525050565b61397e8161458a565b82525050565b61398d81614596565b82525050565b6139a461399f82614596565b614702565b82525050565b60006139b582614415565b6139bf818561442b565b93506139cf81856020860161465a565b6139d881614856565b840191505092915050565b60006139ee82614415565b6139f8818561443c565b9350613a0881856020860161465a565b80840191505092915050565b613a1d81614603565b82525050565b613a2c81614615565b82525050565b6000613a3d82614420565b613a478185614447565b9350613a5781856020860161465a565b613a6081614856565b840191505092915050565b6000613a7682614420565b613a808185614458565b9350613a9081856020860161465a565b80840191505092915050565b6000613aa9603083614447565b9150613ab482614874565b604082019050919050565b6000613acc602e83614447565b9150613ad7826148c3565b604082019050919050565b6000613aef601c83614458565b9150613afa82614912565b601c82019050919050565b6000613b12602b83614447565b9150613b1d8261493b565b604082019050919050565b6000613b35603283614447565b9150613b408261498a565b604082019050919050565b6000613b58601e83614447565b9150613b63826149d9565b602082019050919050565b6000613b7b602683614447565b9150613b8682614a02565b604082019050919050565b6000613b9e602583614447565b9150613ba982614a51565b604082019050919050565b6000613bc1601c83614447565b9150613bcc82614aa0565b602082019050919050565b6000613be4603783614458565b9150613bef82614ac9565b603782019050919050565b6000613c07602083614447565b9150613c1282614b18565b602082019050919050565b6000613c2a602483614447565b9150613c3582614b41565b604082019050919050565b6000613c4d601983614447565b9150613c5882614b90565b602082019050919050565b6000613c70603183614458565b9150613c7b82614bb9565b603182019050919050565b6000613c93602983614447565b9150613c9e82614c08565b604082019050919050565b6000613cb6603e83614447565b9150613cc182614c57565b604082019050919050565b6000613cd9602083614447565b9150613ce482614ca6565b602082019050919050565b6000613cfc600383614458565b9150613d0782614ccf565b600382019050919050565b6000613d1f602083614447565b9150613d2a82614cf8565b602082019050919050565b6000613d4260cb83614458565b9150613d4d82614d21565b60cb82019050919050565b6000613d65601883614447565b9150613d7082614e2e565b602082019050919050565b6000613d88602183614447565b9150613d9382614e57565b604082019050919050565b6000613dab604183614447565b9150613db682614ea6565b606082019050919050565b6000613dce601d83614458565b9150613dd982614f1b565b601d82019050919050565b6000613df1602c83614447565b9150613dfc82614f44565b604082019050919050565b6000613e14603c83614447565b9150613e1f82614f93565b604082019050919050565b6000613e37602b83614447565b9150613e4282614fe2565b604082019050919050565b6000613e5a602e83614447565b9150613e6582615031565b604082019050919050565b613e79816145ec565b82525050565b613e90613e8b826145ec565b61471e565b82525050565b613e9f816145f6565b82525050565b6000613eb1828561395e565b601482019150613ec18284613e7f565b6020820191508190509392505050565b6000613edc82613ae2565b9150613ee88284613993565b60208201915081905092915050565b6000613f0282613d35565b9150613f0e82866139e3565b9150613f1982613bd7565b9150613f258285613a6b565b9150613f3082613c63565b9150613f3c828461395e565b601482019150613f4b82613cef565b9150819050949350505050565b6000613f6382613dc1565b9150613f6f8284613a6b565b915081905092915050565b6000602082019050613f8f600083018461394f565b92915050565b6000608082019050613faa600083018761394f565b613fb7602083018661394f565b613fc46040830185613e70565b8181036060830152613fd681846139aa565b905095945050505050565b6000602082019050613ff66000830184613975565b92915050565b60006020820190506140116000830184613984565b92915050565b600060808201905061402c6000830187613984565b6140396020830186613e96565b6140466040830185613984565b6140536060830184613984565b95945050505050565b60006020820190506140716000830184613a14565b92915050565b600060208201905061408c6000830184613a23565b92915050565b600060208201905081810360008301526140ac8184613a32565b905092915050565b600060208201905081810360008301526140cd81613a9c565b9050919050565b600060208201905081810360008301526140ed81613abf565b9050919050565b6000602082019050818103600083015261410d81613b05565b9050919050565b6000602082019050818103600083015261412d81613b28565b9050919050565b6000602082019050818103600083015261414d81613b4b565b9050919050565b6000602082019050818103600083015261416d81613b6e565b9050919050565b6000602082019050818103600083015261418d81613b91565b9050919050565b600060208201905081810360008301526141ad81613bb4565b9050919050565b600060208201905081810360008301526141cd81613bfa565b9050919050565b600060208201905081810360008301526141ed81613c1d565b9050919050565b6000602082019050818103600083015261420d81613c40565b9050919050565b6000602082019050818103600083015261422d81613c86565b9050919050565b6000602082019050818103600083015261424d81613ca9565b9050919050565b6000602082019050818103600083015261426d81613ccc565b9050919050565b6000602082019050818103600083015261428d81613d12565b9050919050565b600060208201905081810360008301526142ad81613d58565b9050919050565b600060208201905081810360008301526142cd81613d7b565b9050919050565b600060208201905081810360008301526142ed81613d9e565b9050919050565b6000602082019050818103600083015261430d81613de4565b9050919050565b6000602082019050818103600083015261432d81613e07565b9050919050565b6000602082019050818103600083015261434d81613e2a565b9050919050565b6000602082019050818103600083015261436d81613e4d565b9050919050565b60006020820190506143896000830184613e70565b92915050565b60006040820190506143a46000830185613e70565b81810360208301526143b681846139aa565b90509392505050565b60006143c96143da565b90506143d582826146bf565b919050565b6000604051905090565b600067ffffffffffffffff8211156143ff576143fe614813565b5b61440882614856565b9050602081019050919050565b600081519050919050565b600081519050919050565b600082825260208201905092915050565b600081905092915050565b600082825260208201905092915050565b600081905092915050565b600061446e826145ec565b9150614479836145ec565b9250827fffffffffffffffffffffffffffffffffffffffffffffffffffffffffffffffff038211156144ae576144ad614728565b5b828201905092915050565b60006144c4826145ec565b91506144cf836145ec565b9250826144df576144de614757565b5b828204905092915050565b60006144f5826145ec565b9150614500836145ec565b9250817fffffffffffffffffffffffffffffffffffffffffffffffffffffffffffffffff048311821515161561453957614538614728565b5b828202905092915050565b600061454f826145ec565b915061455a836145ec565b92508282101561456d5761456c614728565b5b828203905092915050565b6000614583826145cc565b9050919050565b60008115159050919050565b6000819050919050565b60007fffffffff0000000000000000000000000000000000000000000000000000000082169050919050565b600073ffffffffffffffffffffffffffffffffffffffff82169050919050565b6000819050919050565b600060ff82169050919050565b600061460e82614627565b9050919050565b600061462082614627565b9050919050565b600061463282614639565b9050919050565b6000614644826145cc565b9050919050565b82818337600083830152505050565b60005b8381101561467857808201518184015260208101905061465d565b83811115614687576000848401525b50505050565b600060028204905060018216806146a557607f821691505b602082108114156146b9576146b8614786565b5b50919050565b6146c882614856565b810181811067ffffffffffffffff821117156146e7576146e6614813565b5b80604052505050565b60006146fb8261470c565b9050919050565b6000819050919050565b600061471782614867565b9050919050565b6000819050919050565b7f4e487b7100000000000000000000000000000000000000000000000000000000600052601160045260246000fd5b7f4e487b7100000000000000000000000000000000000000000000000000000000600052601260045260246000fd5b7f4e487b7100000000000000000000000000000000000000000000000000000000600052602260045260246000fd5b7f4e487b7100000000000000000000000000000000000000000000000000000000600052603160045260246000fd5b7f4e487b7100000000000000000000000000000000000000000000000000000000600052603260045260246000fd5b7f4e487b7100000000000000000000000000000000000000000000000000000000600052604160045260246000fd5b600080fd5b600080fd5b600080fd5b600080fd5b6000601f19601f8301169050919050565b60008160601b9050919050565b7f4f6e6c792074686520726f7574696e6720636f6e74726163742063616e20636160008201527f6c6c20746869732066756e6374696f6e00000000000000000000000000000000602082015250565b7f546865726520617265206e6f20756e6d696e74656420726f7574656420746f6b60008201527f656e2069647320746f206d696e74000000000000000000000000000000000000602082015250565b7f19457468657265756d205369676e6564204d6573736167653a0a333200000000600082015250565b7f455243373231456e756d657261626c653a206f776e657220696e646578206f7560008201527f74206f6620626f756e6473000000000000000000000000000000000000000000602082015250565b7f4552433732313a207472616e7366657220746f206e6f6e20455243373231526560008201527f63656976657220696d706c656d656e7465720000000000000000000000000000602082015250565b7f596f75206d757374207061792065786163746c79206d696e7420636f73740000600082015250565b7f4f776e61626c653a206e6577206f776e657220697320746865207a65726f206160008201527f6464726573730000000000000000000000000000000000000000000000000000602082015250565b7f4552433732313a207472616e736665722066726f6d20696e636f72726563742060008201527f6f776e6572000000000000000000000000000000000000000000000000000000602082015250565b7f4552433732313a20746f6b656e20616c7265616479206d696e74656400000000600082015250565b7f222c2261747472696275746573223a205b7b2274726169745f74797065223a2060008201527f225075626c6963204b6579222c202276616c7565223a20000000000000000000602082015250565b7f5468697320504b5020686173206e6f74206265656e20726f7574656420796574600082015250565b7f4552433732313a207472616e7366657220746f20746865207a65726f2061646460008201527f7265737300000000000000000000000000000000000000000000000000000000602082015250565b7f4552433732313a20617070726f766520746f2063616c6c657200000000000000600082015250565b7f7d2c207b2274726169745f74797065223a20224554482057616c6c657420416460008201527f6472657373222c202276616c7565223a20000000000000000000000000000000602082015250565b7f4552433732313a2061646472657373207a65726f206973206e6f74206120766160008201527f6c6964206f776e65720000000000000000000000000000000000000000000000602082015250565b7f4552433732313a20617070726f76652063616c6c6572206973206e6f7420746f60008201527f6b656e206f776e6572206e6f7220617070726f76656420666f7220616c6c0000602082015250565b7f4552433732313a206d696e7420746f20746865207a65726f2061646472657373600082015250565b7f7d5d7d0000000000000000000000000000000000000000000000000000000000600082015250565b7f4f776e61626c653a2063616c6c6572206973206e6f7420746865206f776e6572600082015250565b7f7b226e616d65223a20224c69742050726f746f636f6c2050726f6772616d6d6160008201527f626c65204b65792050616972222c20226465736372697074696f6e223a20225460208201527f686973204e465420656e7469746c65732074686520686f6c64657220746f207560408201527f73652061204c69742050726f746f636f6c20504b502c20616e6420746f20677260608201527f616e742061636365737320746f206f7468657220757365727320616e64204c6960808201527f7420416374696f6e7320746f20757365207468697320504b50222c2022696d6160a08201527f67655f64617461223a202200000000000000000000000000000000000000000060c082015250565b7f4552433732313a20696e76616c696420746f6b656e2049440000000000000000600082015250565b7f4552433732313a20617070726f76616c20746f2063757272656e74206f776e6560008201527f7200000000000000000000000000000000000000000000000000000000000000602082015250565b7f5468697320667265654d696e7420776173206e6f74207369676e65642062792060008201527f667265654d696e745369676e65722e2020486f7720656d626172617373696e6760208201527f2e00000000000000000000000000000000000000000000000000000000000000604082015250565b7f646174613a6170706c69636174696f6e2f6a736f6e3b6261736536342c000000600082015250565b7f455243373231456e756d657261626c653a20676c6f62616c20696e646578206f60008201527f7574206f6620626f756e64730000000000000000000000000000000000000000602082015250565b7f546865206d736748617368206973206e6f7420612068617368206f662074686560008201527f20746f6b656e49642e20204578706c61696e20796f757273656c662100000000602082015250565b7f546869732066726565206d696e742049442068617320616c726561647920626560008201527f656e2072656465656d6564000000000000000000000000000000000000000000602082015250565b7f4552433732313a2063616c6c6572206973206e6f7420746f6b656e206f776e6560008201527f72206e6f7220617070726f766564000000000000000000000000000000000000602082015250565b61508981614578565b811461509457600080fd5b50565b6150a08161458a565b81146150ab57600080fd5b50565b6150b781614596565b81146150c257600080fd5b50565b6150ce816145a0565b81146150d957600080fd5b50565b6150e5816145ec565b81146150f057600080fd5b50565b6150fc816145f6565b811461510757600080fd5b5056fe3c73766720786d6c6e733d27687474703a2f2f7777772e77332e6f72672f323030302f737667272076696577426f783d2730203020313030203130302720786d6c6e733a763d2768747470733a2f2f76656374612e696f2f6e616e6f273e3c7061746820643d274d35302e362037332e33632d31372e372d2e312d31392d31362e362d31372e352d32302e342030203020312e3120382e382031312e3120362e3620392e392d322e3220342e392d31372e3120342e372d31372e362e312e3120312e3920312e3820332e3420342e3120312e3620322e34203220362e3420312e352031302d2e3520332e352d2e3220382e3420362e3220362e3620372e392d322e3220372e322d31342e3620372e322d31342e3620332e3620342e3120332e392032352e342d31362e362032352e337a272066696c6c3d2723666564343238272f3e3c7061746820643d274d36342e312033382e36632d2e3420322e392e3620382e352e322031322d2e3320322e392d312e3820352e312d332e3120352e372d312e322e362d32202e322d322d2e382d2e312d312e312e372d33202e362d342e362d2e312d322d312e332d342e332d312e332d342e336c2e372d312e332e362e396132352e39332032352e3933203020302031202e3820312e3373312e322d372e3420332e332d31312e3663312e352d3320352e322d342e3220352e342d342e332d322e3920312e372d342e3720332e342d352e3220377a272066696c6c3d2723633630343034272f3e3c7061746820643d274d36322033372e366c2d312e3320342e32632d2e3620312e382d312e3520332e362d312e3520332e366c2d2e3720312e33732d312d322d322e312d332e356c2d322e332d332e31732e322d2e362e342d312e366c2e392e37732e362d322e312e372d352e32632e312d322e362d2e372d352e362d2e372d352e362031202e3820322e3620322e3320332e3720332e3820312e3420312e3720322e3920352e3420322e3920352e347a272066696c6c3d2723613730633063272f3e3c7061746820643d274d34342e33203530632d2e312e322d3320342e382d372e3420322e322d2e382d2e352d312e342d312d312e382d312e372d322e362d34202e372d31302e382e382d31312e32762e312e312e31632d2e3320312e372d312e3320382e3620312e332031302e352e312e312e322e312e332e322e322e312e332e322e352e3320322e3420312e3120342e332e3520352e342030202e312030202e312d2e312e322d2e312e342d2e332e362d2e352e372d2e357a272066696c6c3d2723613430613061272f3e3c7061746820643d274d35362e32203334632d2e3120332e312d2e3720352e322d2e3720352e326c2d2e392d2e37632e332d312e312e362d322e372e372d342e322e332d332e332d2e372d362e352d2e372d362e35732e332e332e382e37632e312030202e3920322e392e3820352e357a4d34342e33203530632d2e3120302d2e332e322d2e372e352d2e3120302d2e312e312d2e322e312d312e312e352d3320312e312d352e3420302d2e322d2e312d2e332d2e322d2e352d2e332d2e312d2e312d2e322d2e312d2e332d2e322d322e362d312e392d312e362d382e392d312e332d31302e352d2e3120312e322d2e3520352e3520312e3320382e33203220332e3220372e3120322e3120372e3120322e317a6d32372d342e35632d322e342d342e392d322e342d382e372d322e342d31302e3520302d312e3920312e332d332e3420312e332d332e34732d2e3420302d2e392e31632d312e312e332d332e332e382d342e3320312e372d322e3320322d322e3920342e322d322e3920342e32732d2e3720322e342d312e3320342e322d312e3520332e362d312e3520332e366c2e362e396132352e39332032352e3933203020302031202e3820312e335336312e392034302e3220363420333663312e352d3320352e322d342e3220352e342d342e332d3320312e352d342e3820332e322d352e3220362e392d2e3420322e392e3620382e352e322031322d2e3320322e392d312e3820352e312d332e3120352e372d312e322e362d32202e322d322d2e382d2e312d312e312e372d33202e362d342e362d2e312d322d312e332d342e332d312e332d342e33732d312d322d322e312d332e354c35342e32203430732d342d332e392d332e322d392e38632e362d3520342e382d382e3120352d382e332d2e342e312d3620312e332d392e3420362e332d322e3820342e312d332e3220382e332d312e382031332e3920312e3220352d2e3420372e382d2e3420372e382d2e312e322d3320342e382d372e3420322e322d2e382d2e352d312e342d312d312e382d312e372d322e362d34202e372d31302e382e382d31312e32203020302d392e3320372e312d392e332031362e34203020392e3820372e382032322e342032332e342032322e3420313820302032332e322d31352e332032332e352d3230202e332d34202e322d372e352d322e332d31322e357a4d35302e362037332e33632d31372e372d2e312d31392d31362e362d31372e352d32302e342030203020312e3120382e382031312e3120362e3620392e392d322e3220342e392d31372e3120342e372d31372e362e312e3120312e3920312e3820332e3420342e3120312e3620322e34203220362e3420312e352031302d2e3520332e352d2e3220382e3420362e3220362e3620372e392d322e3220372e322d31342e3620372e322d31342e3620332e3620342e3120332e392032352e342d31362e362032352e337a272066696c6c3d2723663132643264272f3e3c2f7376673e4142434445464748494a4b4c4d4e4f505152535455565758595a6162636465666768696a6b6c6d6e6f707172737475767778797a303132333435363738392b2fa2646970667358221220d5bbeabc4c896d9066cf5557f78a7b049f6b0ad9eef62aa4364279ceff1d594d64736f6c63430008070033","abi":[{"inputs":[],"stateMutability":"nonpayable","type":"constructor"},{"anonymous":false,"inputs":[{"indexed":true,"internalType":"address","name":"owner","type":"address"},{"indexed":true,"internalType":"address","name":"approved","type":"address"},{"indexed":true,"internalType":"uint256","name":"tokenId","type":"uint256"}],"name":"Approval","type":"event"},{"anonymous":false,"inputs":[{"indexed":true,"internalType":"address","name":"owner","type":"address"},{"indexed":true,"internalType":"address","name":"operator","type":"address"},{"indexed":false,"internalType":"bool","name":"approved","type":"bool"}],"name":"ApprovalForAll","type":"event"},{"anonymous":false,"inputs":[{"indexed":true,"internalType":"address","name":"previousOwner","type":"address"},{"indexed":true,"internalType":"address","name":"newOwner","type":"address"}],"name":"OwnershipTransferred","type":"event"},{"anonymous":false,"inputs":[{"indexed":true,"internalType":"address","name":"from","type":"address"},{"indexed":true,"internalType":"address","name":"to","type":"address"},{"indexed":true,"internalType":"uint256","name":"tokenId","type":"uint256"}],"name":"Transfer","type":"event"},{"inputs":[{"internalType":"address","name":"to","type":"address"},{"internalType":"uint256","name":"tokenId","type":"uint256"}],"name":"approve","outputs":[],"stateMutability":"nonpayable","type":"function"},{"inputs":[{"internalType":"address","name":"owner","type":"address"}],"name":"balanceOf","outputs":[{"internalType":"uint256","name":"","type":"uint256"}],"stateMutability":"view","type":"function"},{"inputs":[{"internalType":"uint256","name":"tokenId","type":"uint256"}],"name":"burn","outputs":[],"stateMutability":"nonpayable","type":"function"},{"inputs":[],"name":"contractBalance","outputs":[{"internalType":"uint256","name":"","type":"uint256"}],"stateMutability":"view","type":"function"},{"inputs":[{"internalType":"uint256","name":"keyType","type":"uint256"},{"internalType":"uint256","name":"freeMintId","type":"uint256"},{"internalType":"bytes","name":"ipfsCID","type":"bytes"},{"internalType":"bytes32","name":"msgHash","type":"bytes32"},{"internalType":"uint8","name":"v","type":"uint8"},{"internalType":"bytes32","name":"r","type":"bytes32"},{"internalType":"bytes32","name":"s","type":"bytes32"}],"name":"freeMintGrantAndBurnNext","outputs":[{"internalType":"uint256","name":"","type":"uint256"}],"stateMutability":"nonpayable","type":"function"},{"inputs":[{"internalType":"uint256","name":"keyType","type":"uint256"},{"internalType":"uint256","name":"freeMintId","type":"uint256"},{"internalType":"bytes32","name":"msgHash","type":"bytes32"},{"internalType":"uint8","name":"v","type":"uint8"},{"internalType":"bytes32","name":"r","type":"bytes32"},{"internalType":"bytes32","name":"s","type":"bytes32"}],"name":"freeMintNext","outputs":[{"internalType":"uint256","name":"","type":"uint256"}],"stateMutability":"nonpayable","type":"function"},{"inputs":[{"internalType":"uint256","name":"freeMintId","type":"uint256"},{"internalType":"bytes32","name":"msgHash","type":"bytes32"},{"internalType":"uint8","name":"v","type":"uint8"},{"internalType":"bytes32","name":"r","type":"bytes32"},{"internalType":"bytes32","name":"s","type":"bytes32"}],"name":"freeMintSigTest","outputs":[],"stateMutability":"view","type":"function"},{"inputs":[],"name":"freeMintSigner","outputs":[{"internalType":"address","name":"","type":"address"}],"stateMutability":"view","type":"function"},{"inputs":[{"internalType":"uint256","name":"tokenId","type":"uint256"}],"name":"getApproved","outputs":[{"internalType":"address","name":"","type":"address"}],"stateMutability":"view","type":"function"},{"inputs":[{"internalType":"uint256","name":"keyType","type":"uint256"}],"name":"getUnmintedRoutedTokenIdCount","outputs":[{"internalType":"uint256","name":"","type":"uint256"}],"stateMutability":"view","type":"function"},{"inputs":[{"internalType":"address","name":"owner","type":"address"},{"internalType":"address","name":"operator","type":"address"}],"name":"isApprovedForAll","outputs":[{"internalType":"bool","name":"","type":"bool"}],"stateMutability":"view","type":"function"},{"inputs":[],"name":"mintCost","outputs":[{"internalType":"uint256","name":"","type":"uint256"}],"stateMutability":"view","type":"function"},{"inputs":[{"internalType":"uint256","name":"keyType","type":"uint256"},{"internalType":"bytes","name":"ipfsCID","type":"bytes"}],"name":"mintGrantAndBurnNext","outputs":[{"internalType":"uint256","name":"","type":"uint256"}],"stateMutability":"payable","type":"function"},{"inputs":[{"internalType":"uint256","name":"tokenId","type":"uint256"},{"internalType":"bytes","name":"ipfsCID","type":"bytes"}],"name":"mintGrantAndBurnSpecific","outputs":[],"stateMutability":"nonpayable","type":"function"},{"inputs":[{"internalType":"uint256","name":"keyType","type":"uint256"}],"name":"mintNext","outputs":[{"internalType":"uint256","name":"","type":"uint256"}],"stateMutability":"payable","type":"function"},{"inputs":[{"internalType":"uint256","name":"tokenId","type":"uint256"}],"name":"mintSpecific","outputs":[],"stateMutability":"nonpayable","type":"function"},{"inputs":[],"name":"name","outputs":[{"internalType":"string","name":"","type":"string"}],"stateMutability":"view","type":"function"},{"inputs":[],"name":"owner","outputs":[{"internalType":"address","name":"","type":"address"}],"stateMutability":"view","type":"function"},{"inputs":[{"internalType":"uint256","name":"tokenId","type":"uint256"}],"name":"ownerOf","outputs":[{"internalType":"address","name":"","type":"address"}],"stateMutability":"view","type":"function"},{"inputs":[],"name":"pkpPermissions","outputs":[{"internalType":"contract PKPPermissions","name":"","type":"address"}],"stateMutability":"view","type":"function"},{"inputs":[{"internalType":"uint256","name":"tokenId","type":"uint256"},{"internalType":"uint256","name":"keyType","type":"uint256"}],"name":"pkpRouted","outputs":[],"stateMutability":"nonpayable","type":"function"},{"inputs":[{"internalType":"bytes32","name":"hash","type":"bytes32"}],"name":"prefixed","outputs":[{"internalType":"bytes32","name":"","type":"bytes32"}],"stateMutability":"pure","type":"function"},{"inputs":[{"internalType":"uint256","name":"","type":"uint256"}],"name":"redeemedFreeMintIds","outputs":[{"internalType":"bool","name":"","type":"bool"}],"stateMutability":"view","type":"function"},{"inputs":[],"name":"renounceOwnership","outputs":[],"stateMutability":"nonpayable","type":"function"},{"inputs":[],"name":"router","outputs":[{"internalType":"contract PubkeyRouter","name":"","type":"address"}],"stateMutability":"view","type":"function"},{"inputs":[{"internalType":"address","name":"from","type":"address"},{"internalType":"address","name":"to","type":"address"},{"internalType":"uint256","name":"tokenId","type":"uint256"}],"name":"safeTransferFrom","outputs":[],"stateMutability":"nonpayable","type":"function"},{"inputs":[{"internalType":"address","name":"from","type":"address"},{"internalType":"address","name":"to","type":"address"},{"internalType":"uint256","name":"tokenId","type":"uint256"},{"internalType":"bytes","name":"data","type":"bytes"}],"name":"safeTransferFrom","outputs":[],"stateMutability":"nonpayable","type":"function"},{"inputs":[{"internalType":"address","name":"operator","type":"address"},{"internalType":"bool","name":"approved","type":"bool"}],"name":"setApprovalForAll","outputs":[],"stateMutability":"nonpayable","type":"function"},{"inputs":[{"internalType":"address","name":"newFreeMintSigner","type":"address"}],"name":"setFreeMintSigner","outputs":[],"stateMutability":"nonpayable","type":"function"},{"inputs":[{"internalType":"uint256","name":"newMintCost","type":"uint256"}],"name":"setMintCost","outputs":[],"stateMutability":"nonpayable","type":"function"},{"inputs":[{"internalType":"address","name":"pkpPermissionsAddress","type":"address"}],"name":"setPkpPermissionsAddress","outputs":[],"stateMutability":"nonpayable","type":"function"},{"inputs":[{"internalType":"address","name":"routerAddress","type":"address"}],"name":"setRouterAddress","outputs":[],"stateMutability":"nonpayable","type":"function"},{"inputs":[{"internalType":"bytes4","name":"interfaceId","type":"bytes4"}],"name":"supportsInterface","outputs":[{"internalType":"bool","name":"","type":"bool"}],"stateMutability":"view","type":"function"},{"inputs":[],"name":"symbol","outputs":[{"internalType":"string","name":"","type":"string"}],"stateMutability":"view","type":"function"},{"inputs":[{"internalType":"uint256","name":"index","type":"uint256"}],"name":"tokenByIndex","outputs":[{"internalType":"uint256","name":"","type":"uint256"}],"stateMutability":"view","type":"function"},{"inputs":[{"internalType":"address","name":"owner","type":"address"},{"internalType":"uint256","name":"index","type":"uint256"}],"name":"tokenOfOwnerByIndex","outputs":[{"internalType":"uint256","name":"","type":"uint256"}],"stateMutability":"view","type":"function"},{"inputs":[{"internalType":"uint256","name":"tokenId","type":"uint256"}],"name":"tokenURI","outputs":[{"internalType":"string","name":"","type":"string"}],"stateMutability":"view","type":"function"},{"inputs":[],"name":"totalSupply","outputs":[{"internalType":"uint256","name":"","type":"uint256"}],"stateMutability":"view","type":"function"},{"inputs":[{"internalType":"address","name":"from","type":"address"},{"internalType":"address","name":"to","type":"address"},{"internalType":"uint256","name":"tokenId","type":"uint256"}],"name":"transferFrom","outputs":[],"stateMutability":"nonpayable","type":"function"},{"inputs":[{"internalType":"address","name":"newOwner","type":"address"}],"name":"transferOwnership","outputs":[],"stateMutability":"nonpayable","type":"function"},{"inputs":[{"internalType":"uint256","name":"","type":"uint256"},{"internalType":"uint256","name":"","type":"uint256"}],"name":"unmintedRoutedTokenIds","outputs":[{"internalType":"uint256","name":"","type":"uint256"}],"stateMutability":"view","type":"function"},{"inputs":[],"name":"withdraw","outputs":[],"stateMutability":"nonpayable","type":"function"}]}