{"address":"0xe50De7F41bCE0d6DCf111821794baD27e7EF17D6","bytecode":"0x60806040523480156200001157600080fd5b506040516200462a3803806200462a8339818101604052810190620000379190620001c4565b620000576200004b620000e160201b60201c565b620000e960201b60201c565b81600160006101000a81548173ffffffffffffffffffffffffffffffffffffffff021916908373ffffffffffffffffffffffffffffffffffffffff16021790555080600260006101000a81548173ffffffffffffffffffffffffffffffffffffffff021916908373ffffffffffffffffffffffffffffffffffffffff16021790555050506200025e565b600033905090565b60008060009054906101000a900473ffffffffffffffffffffffffffffffffffffffff169050816000806101000a81548173ffffffffffffffffffffffffffffffffffffffff021916908373ffffffffffffffffffffffffffffffffffffffff1602179055508173ffffffffffffffffffffffffffffffffffffffff168173ffffffffffffffffffffffffffffffffffffffff167f8be0079c531659141344cd1fd0a4f28419497f9722a3daafe3b4186f6b6457e060405160405180910390a35050565b600081519050620001be8162000244565b92915050565b60008060408385031215620001de57620001dd6200023f565b5b6000620001ee85828601620001ad565b92505060206200020185828601620001ad565b9150509250929050565b600062000218826200021f565b9050919050565b600073ffffffffffffffffffffffffffffffffffffffff82169050919050565b600080fd5b6200024f816200020b565b81146200025b57600080fd5b50565b6143bc806200026e6000396000f3fe608060405234801561001057600080fd5b50600436106101d85760003560e01c8063b282ae5f11610104578063dd4f8e5f116100a2578063f34f21ba11610071578063f34f21ba146105ab578063f887ea40146105db578063fceb3983146105f9578063ffa2e95314610629576101d8565b8063dd4f8e5f146104ff578063e5e5f2541461052f578063ef6fd8781461055f578063f2fde38b1461058f576101d8565b8063bd4986a0116100de578063bd4986a014610453578063c9864b5f14610483578063d290ba8a146104b3578063d41a3272146104e3576101d8565b8063b282ae5f146103eb578063b997606f14610407578063bb7a107014610423576101d8565b80635e1cab661161017c5780638da5cb5b1161014b5780638da5cb5b1461033d578063a1afdc6f1461035b578063aba5e9791461038b578063abc541ae146103bb576101d8565b80635e1cab66146102df578063715018a6146102fb5780637686d784146103055780638a43157814610321576101d8565b8063176354fd116101b8578063176354fd14610259578063247a7a94146102755780632657768b1461029157806341cb87fc146102c3576101d8565b80618b4f146101dd57806314099f581461020d5780631663c1211461023d575b600080fd5b6101f760048036038101906101f29190612f59565b610647565b604051610204919061393c565b60405180910390f35b6102276004803603810190610222919061317a565b61077e565b604051610234919061393c565b60405180910390f35b61025760048036038101906102529190612f99565b6107d6565b005b610273600480360381019061026e9190612e5c565b610829565b005b61028f600480360381019061028a91906132e8565b610875565b005b6102ab60048036038101906102a69190612f2c565b610a1e565b6040516102ba93929190613ada565b60405180910390f35b6102dd60048036038101906102d89190612e5c565b610b58565b005b6102f960048036038101906102f49190613219565b610ba4565b005b610303610f56565b005b61031f600480360381019061031a919061317a565b610f6a565b005b61033b60048036038101906103369190613064565b611132565b005b610345611166565b6040516103529190613877565b60405180910390f35b61037560048036038101906103709190613008565b61118f565b6040516103829190613957565b60405180910390f35b6103a560048036038101906103a091906130ef565b611339565b6040516103b2919061391a565b60405180910390f35b6103d560048036038101906103d09190612f2c565b611426565b6040516103e29190613892565b60405180910390f35b610405600480360381019061040091906132e8565b611ac3565b005b610421600480360381019061041c9190612f59565b611c6c565b005b61043d60048036038101906104389190612f2c565b611cbd565b60405161044a91906138d6565b60405180910390f35b61046d60048036038101906104689190612f2c565b6120f1565b60405161047a9190613877565b60405180910390f35b61049d60048036038101906104989190612f2c565b6121a5565b6040516104aa9190613a8f565b60405180910390f35b6104cd60048036038101906104c891906130ef565b6121bd565b6040516104da9190613a8f565b60405180910390f35b6104fd60048036038101906104f89190613008565b6121f6565b005b610519600480360381019061051491906132e8565b612228565b60405161052691906138b4565b60405180910390f35b610549600480360381019061054491906132e8565b612314565b604051610556919061393c565b60405180910390f35b61057960048036038101906105749190612f2c565b61236c565b6040516105869190613957565b60405180910390f35b6105a960048036038101906105a49190612e5c565b612425565b005b6105c560048036038101906105c09190612f2c565b6124a9565b6040516105d291906138f8565b60405180910390f35b6105e36126df565b6040516105f09190613994565b60405180910390f35b610613600480360381019061060e9190613008565b612705565b604051610620919061393c565b60405180910390f35b61063161273d565b60405161063e9190613979565b60405180910390f35b6000610696836001600581111561066157610660613faa565b5b84604051602001610672919061385c565b6040516020818303038152906040526040518060200160405280600081525061077e565b8061077657508173ffffffffffffffffffffffffffffffffffffffff16600160009054906101000a900473ffffffffffffffffffffffffffffffffffffffff1673ffffffffffffffffffffffffffffffffffffffff16636352211e856040518263ffffffff1660e01b815260040161070e9190613a8f565b60206040518083038186803b15801561072657600080fd5b505afa15801561073a573d6000803e3d6000fd5b505050506040513d601f19601f8201168201806040525081019061075e9190612e89565b73ffffffffffffffffffffffffffffffffffffffff16145b905092915050565b60008061078c8585856121bd565b905060006107b582600360008a815260200190815260200160002061276390919063ffffffff16565b9050806107c7576000925050506107ce565b6001925050505b949350505050565b61082483600160058111156107ee576107ed613faa565b5b846040516020016107ff919061385c565b6040516020818303038152906040526040518060200160405280600081525085610ba4565b505050565b61083161277d565b80600160006101000a81548173ffffffffffffffffffffffffffffffffffffffff021916908373ffffffffffffffffffffffffffffffffffffffff16021790555050565b6000600160009054906101000a900473ffffffffffffffffffffffffffffffffffffffff1673ffffffffffffffffffffffffffffffffffffffff16636352211e876040518263ffffffff1660e01b81526004016108d29190613a8f565b60206040518083038186803b1580156108ea57600080fd5b505afa1580156108fe573d6000803e3d6000fd5b505050506040513d601f19601f820116820180604052508101906109229190612e89565b90508073ffffffffffffffffffffffffffffffffffffffff163373ffffffffffffffffffffffffffffffffffffffff1614610992576040517f08c379a0000000000000000000000000000000000000000000000000000000008152600401610989906139ef565b60405180910390fd5b600061099f8686866121bd565b90506109d783600460008a815260200190815260200160002060008481526020019081526020016000206127fb90919063ffffffff16565b867fd595e07a63b604962f42634fe6f2faf010f023aea1e6c6fe42b136abbd55a4db82878787604051610a0d9493929190613b1f565b60405180910390a250505050505050565b6005602052806000526040600020600091509050806000015490806001018054610a4790613eab565b80601f0160208091040260200160405190810160405280929190818152602001828054610a7390613eab565b8015610ac05780601f10610a9557610100808354040283529160200191610ac0565b820191906000526020600020905b815481529060010190602001808311610aa357829003601f168201915b505050505090806002018054610ad590613eab565b80601f0160208091040260200160405190810160405280929190818152602001828054610b0190613eab565b8015610b4e5780601f10610b2357610100808354040283529160200191610b4e565b820191906000526020600020905b815481529060010190602001808311610b3157829003601f168201915b5050505050905083565b610b6061277d565b80600260006101000a81548173ffffffffffffffffffffffffffffffffffffffff021916908373ffffffffffffffffffffffffffffffffffffffff16021790555050565b6000600160009054906101000a900473ffffffffffffffffffffffffffffffffffffffff1673ffffffffffffffffffffffffffffffffffffffff16636352211e876040518263ffffffff1660e01b8152600401610c019190613a8f565b60206040518083038186803b158015610c1957600080fd5b505afa158015610c2d573d6000803e3d6000fd5b505050506040513d601f19601f82011682018060405250810190610c519190612e89565b90508073ffffffffffffffffffffffffffffffffffffffff163373ffffffffffffffffffffffffffffffffffffffff1614610cc1576040517f08c379a0000000000000000000000000000000000000000000000000000000008152600401610cb890613a6f565b60405180910390fd5b600060405180606001604052808781526020018681526020018581525090506000610ced8787876121bd565b90508160056000838152602001908152602001600020600082015181600001556020820151816001019080519060200190610d29929190612bc6565b506040820151816002019080519060200190610d46929190612bc6565b509050506000600360008a81526020019081526020016000209050610d74828261283990919063ffffffff16565b506000600660008481526020019081526020016000209050610d9f8a8261283990919063ffffffff16565b5060005b8651811015610e53576000878281518110610dc157610dc0614037565b5b60200260200101519050610e0181600460008f815260200190815260200160002060008881526020019081526020016000206127fb90919063ffffffff16565b8b7fd595e07a63b604962f42634fe6f2faf010f023aea1e6c6fe42b136abbd55a4db868c8c85604051610e379493929190613b1f565b60405180910390a2508080610e4b90613f0e565b915050610da3565b5060008989604051602001610e69929190613aaa565b6040516020818303038152906040528051906020012060001c90506000600760008381526020019081526020016000205414610ef55783600760008381526020019081526020016000205414610ef4576040517f08c379a0000000000000000000000000000000000000000000000000000000008152600401610eeb906139cf565b60405180910390fd5b5b8360076000838152602001908152602001600020819055508a7fd7db314a62650aaa1b15d4bb5c95c558a03cde3ee7f36e144b73126a3a8e839a8b8b8b604051610f4193929190613ada565b60405180910390a25050505050505050505050565b610f5e61277d565b610f686000612853565b565b6000600160009054906101000a900473ffffffffffffffffffffffffffffffffffffffff1673ffffffffffffffffffffffffffffffffffffffff16636352211e866040518263ffffffff1660e01b8152600401610fc79190613a8f565b60206040518083038186803b158015610fdf57600080fd5b505afa158015610ff3573d6000803e3d6000fd5b505050506040513d601f19601f820116820180604052508101906110179190612e89565b90508073ffffffffffffffffffffffffffffffffffffffff163373ffffffffffffffffffffffffffffffffffffffff1614611087576040517f08c379a000000000000000000000000000000000000000000000000000000000815260040161107e90613a0f565b60405180910390fd5b60006110948585856121bd565b905060006003600088815260200190815260200160002090506110c0828261291790919063ffffffff16565b5060006006600084815260200190815260200160002090506110eb888261291790919063ffffffff16565b50877f5c358f5a3848e970c143f757b9a415ade78a2ccf0720599c6468eed2cc84af4c84888860405161112093929190613ada565b60405180910390a25050505050505050565b611161836002600581111561114a57611149613faa565b5b846040518060200160405280600081525085610ba4565b505050565b60008060009054906101000a900473ffffffffffffffffffffffffffffffffffffffff16905090565b6060600083836040516020016111a6929190613aaa565b6040516020818303038152906040528051906020012060001c90506000600760008381526020019081526020016000205490506000600560008381526020019081526020016000206040518060600160405290816000820154815260200160018201805461121390613eab565b80601f016020809104026020016040519081016040528092919081815260200182805461123f90613eab565b801561128c5780601f106112615761010080835404028352916020019161128c565b820191906000526020600020905b81548152906001019060200180831161126f57829003601f168201915b505050505081526020016002820180546112a590613eab565b80601f01602080910402602001604051908101604052809291908181526020018280546112d190613eab565b801561131e5780601f106112f35761010080835404028352916020019161131e565b820191906000526020600020905b81548152906001019060200180831161130157829003601f168201915b50505050508152505090508060400151935050505092915050565b606060006113488585856121bd565b9050600061136760066000848152602001908152602001600020612931565b905060008167ffffffffffffffff81111561138557611384614066565b5b6040519080825280602002602001820160405280156113b35781602001602082028036833780820191505090505b50905060005b82811015611418576113e6816006600087815260200190815260200160002061294690919063ffffffff16565b8282815181106113f9576113f8614037565b5b602002602001018181525050808061141090613f0e565b9150506113b9565b508093505050509392505050565b6060600061144560036000858152602001908152602001600020612931565b90506000805b8281101561160f57600061147a826003600089815260200190815260200160002061294690919063ffffffff16565b9050600060056000838152602001908152602001600020604051806060016040529081600082015481526020016001820180546114b690613eab565b80601f01602080910402602001604051908101604052809291908181526020018280546114e290613eab565b801561152f5780601f106115045761010080835404028352916020019161152f565b820191906000526020600020905b81548152906001019060200180831161151257829003601f168201915b5050505050815260200160028201805461154890613eab565b80601f016020809104026020016040519081016040528092919081815260200182805461157490613eab565b80156115c15780601f10611596576101008083540402835291602001916115c1565b820191906000526020600020905b8154815290600101906020018083116115a457829003601f168201915b5050505050815250509050600160058111156115e0576115df613faa565b5b816000015114156115fa5783806115f690613f0e565b9450505b5050808061160790613f0e565b91505061144b565b506000600160009054906101000a900473ffffffffffffffffffffffffffffffffffffffff1673ffffffffffffffffffffffffffffffffffffffff16634f558e79866040518263ffffffff1660e01b815260040161166d9190613a8f565b60206040518083038186803b15801561168557600080fd5b505afa158015611699573d6000803e3d6000fd5b505050506040513d601f19601f820116820180604052508101906116bd9190612eb6565b9050606060008215611832576001846116d69190613d4f565b67ffffffffffffffff8111156116ef576116ee614066565b5b60405190808252806020026020018201604052801561171d5781602001602082028036833780820191505090505b5091506000600160009054906101000a900473ffffffffffffffffffffffffffffffffffffffff1673ffffffffffffffffffffffffffffffffffffffff16636352211e896040518263ffffffff1660e01b815260040161177d9190613a8f565b60206040518083038186803b15801561179557600080fd5b505afa1580156117a9573d6000803e3d6000fd5b505050506040513d601f19601f820116820180604052508101906117cd9190612e89565b905080836000815181106117e4576117e3614037565b5b602002602001019073ffffffffffffffffffffffffffffffffffffffff16908173ffffffffffffffffffffffffffffffffffffffff1681525050818061182990613f0e565b9250505061187e565b8367ffffffffffffffff81111561184c5761184b614066565b5b60405190808252806020026020018201604052801561187a5781602001602082028036833780820191505090505b5091505b60005b85811015611ab55760006118b082600360008c815260200190815260200160002061294690919063ffffffff16565b9050600060056000838152602001908152602001600020604051806060016040529081600082015481526020016001820180546118ec90613eab565b80601f016020809104026020016040519081016040528092919081815260200182805461191890613eab565b80156119655780601f1061193a57610100808354040283529160200191611965565b820191906000526020600020905b81548152906001019060200180831161194857829003601f168201915b5050505050815260200160028201805461197e90613eab565b80601f01602080910402602001604051908101604052809291908181526020018280546119aa90613eab565b80156119f75780601f106119cc576101008083540402835291602001916119f7565b820191906000526020600020905b8154815290600101906020018083116119da57829003601f168201915b505050505081525050905060016005811115611a1657611a15613faa565b5b81600001511415611aa057600080826020015190506c01000000000000000000000000602082015104915081878781518110611a5557611a54614037565b5b602002602001019073ffffffffffffffffffffffffffffffffffffffff16908173ffffffffffffffffffffffffffffffffffffffff16815250508580611a9a90613f0e565b96505050505b50508080611aad90613f0e565b915050611881565b508195505050505050919050565b6000600160009054906101000a900473ffffffffffffffffffffffffffffffffffffffff1673ffffffffffffffffffffffffffffffffffffffff16636352211e876040518263ffffffff1660e01b8152600401611b209190613a8f565b60206040518083038186803b158015611b3857600080fd5b505afa158015611b4c573d6000803e3d6000fd5b505050506040513d601f19601f82011682018060405250810190611b709190612e89565b90508073ffffffffffffffffffffffffffffffffffffffff163373ffffffffffffffffffffffffffffffffffffffff1614611be0576040517f08c379a0000000000000000000000000000000000000000000000000000000008152600401611bd790613a4f565b60405180910390fd5b6000611bed8686866121bd565b9050611c2583600460008a8152602001908152602001600020600084815260200190815260200160002061296090919063ffffffff16565b867f951293781d9aaf1ca488bb89fb91c8f2586f907e34111cc03b1b4afb9f37246d87878787604051611c5b9493929190613b1f565b60405180910390a250505050505050565b611cb98260016005811115611c8457611c83613faa565b5b83604051602001611c95919061385c565b60405160208183030381529060405260405180602001604052806000815250610f6a565b5050565b60606000611cdc60036000858152602001908152602001600020612931565b90506000805b82811015611ea6576000611d11826003600089815260200190815260200160002061294690919063ffffffff16565b905060006005600083815260200190815260200160002060405180606001604052908160008201548152602001600182018054611d4d90613eab565b80601f0160208091040260200160405190810160405280929190818152602001828054611d7990613eab565b8015611dc65780601f10611d9b57610100808354040283529160200191611dc6565b820191906000526020600020905b815481529060010190602001808311611da957829003601f168201915b50505050508152602001600282018054611ddf90613eab565b80601f0160208091040260200160405190810160405280929190818152602001828054611e0b90613eab565b8015611e585780601f10611e2d57610100808354040283529160200191611e58565b820191906000526020600020905b815481529060010190602001808311611e3b57829003601f168201915b505050505081525050905060026005811115611e7757611e76613faa565b5b81600001511415611e91578380611e8d90613f0e565b9450505b50508080611e9e90613f0e565b915050611ce2565b5060008167ffffffffffffffff811115611ec357611ec2614066565b5b604051908082528060200260200182016040528015611ef657816020015b6060815260200190600190039081611ee15790505b5090506000805b848110156120e4576000611f2c82600360008b815260200190815260200160002061294690919063ffffffff16565b905060006005600083815260200190815260200160002060405180606001604052908160008201548152602001600182018054611f6890613eab565b80601f0160208091040260200160405190810160405280929190818152602001828054611f9490613eab565b8015611fe15780601f10611fb657610100808354040283529160200191611fe1565b820191906000526020600020905b815481529060010190602001808311611fc457829003601f168201915b50505050508152602001600282018054611ffa90613eab565b80601f016020809104026020016040519081016040528092919081815260200182805461202690613eab565b80156120735780601f1061204857610100808354040283529160200191612073565b820191906000526020600020905b81548152906001019060200180831161205657829003601f168201915b50505050508152505090506002600581111561209257612091613faa565b5b816000015114156120cf5780602001518585815181106120b5576120b4614037565b5b602002602001018190525083806120cb90613f0e565b9450505b505080806120dc90613f0e565b915050611efd565b5081945050505050919050565b6000600260009054906101000a900473ffffffffffffffffffffffffffffffffffffffff1673ffffffffffffffffffffffffffffffffffffffff1663bd4986a0836040518263ffffffff1660e01b815260040161214e9190613a8f565b60206040518083038186803b15801561216657600080fd5b505afa15801561217a573d6000803e3d6000fd5b505050506040513d601f19601f8201168201806040525081019061219e9190612e89565b9050919050565b60076020528060005260406000206000915090505481565b60008383836040516020016121d493929190613ada565b6040516020818303038152906040528051906020012060001c90509392505050565b612224826002600581111561220e5761220d613faa565b5b8360405180602001604052806000815250610f6a565b5050565b606060006122378686866121bd565b90506000600460008981526020019081526020016000206000838152602001908152602001600020905060008467ffffffffffffffff81111561227d5761227c614066565b5b6040519080825280602002602001820160405280156122ab5781602001602082028036833780820191505090505b50905060005b85811015612304576122cc818461299f90919063ffffffff16565b8282815181106122df576122de614037565b5b60200260200101901515908115158152505080806122fc90613f0e565b9150506122b1565b5080935050505095945050505050565b6000806123228686866121bd565b9050600061235c84600460008b8152602001908152602001600020600085815260200190815260200160002061299f90919063ffffffff16565b9050809250505095945050505050565b6060600260009054906101000a900473ffffffffffffffffffffffffffffffffffffffff1673ffffffffffffffffffffffffffffffffffffffff1663ef6fd878836040518263ffffffff1660e01b81526004016123c99190613a8f565b60006040518083038186803b1580156123e157600080fd5b505afa1580156123f5573d6000803e3d6000fd5b505050506040513d6000823e3d601f19601f8201168201806040525081019061241e9190612ee3565b9050919050565b61242d61277d565b600073ffffffffffffffffffffffffffffffffffffffff168173ffffffffffffffffffffffffffffffffffffffff16141561249d576040517f08c379a0000000000000000000000000000000000000000000000000000000008152600401612494906139af565b60405180910390fd5b6124a681612853565b50565b606060006124c860036000858152602001908152602001600020612931565b905060008167ffffffffffffffff8111156124e6576124e5614066565b5b60405190808252806020026020018201604052801561251f57816020015b61250c612c4c565b8152602001906001900390816125045790505b50905060005b828110156126d4576000612554826003600089815260200190815260200160002061294690919063ffffffff16565b9050600560008281526020019081526020016000206040518060600160405290816000820154815260200160018201805461258e90613eab565b80601f01602080910402602001604051908101604052809291908181526020018280546125ba90613eab565b80156126075780601f106125dc57610100808354040283529160200191612607565b820191906000526020600020905b8154815290600101906020018083116125ea57829003601f168201915b5050505050815260200160028201805461262090613eab565b80601f016020809104026020016040519081016040528092919081815260200182805461264c90613eab565b80156126995780601f1061266e57610100808354040283529160200191612699565b820191906000526020600020905b81548152906001019060200180831161267c57829003601f168201915b5050505050815250508383815181106126b5576126b4614037565b5b60200260200101819052505080806126cc90613f0e565b915050612525565b508092505050919050565b600260009054906101000a900473ffffffffffffffffffffffffffffffffffffffff1681565b6000612735836002600581111561271f5761271e613faa565b5b846040518060200160405280600081525061077e565b905092915050565b600160009054906101000a900473ffffffffffffffffffffffffffffffffffffffff1681565b6000612775836000018360001b6129db565b905092915050565b6127856129fe565b73ffffffffffffffffffffffffffffffffffffffff166127a3611166565b73ffffffffffffffffffffffffffffffffffffffff16146127f9576040517f08c379a00000000000000000000000000000000000000000000000000000000081526004016127f090613a2f565b60405180910390fd5b565b6000600882901c9050600060ff83166001901b9050808460000160008481526020019081526020016000206000828254179250508190555050505050565b600061284b836000018360001b612a06565b905092915050565b60008060009054906101000a900473ffffffffffffffffffffffffffffffffffffffff169050816000806101000a81548173ffffffffffffffffffffffffffffffffffffffff021916908373ffffffffffffffffffffffffffffffffffffffff1602179055508173ffffffffffffffffffffffffffffffffffffffff168173ffffffffffffffffffffffffffffffffffffffff167f8be0079c531659141344cd1fd0a4f28419497f9722a3daafe3b4186f6b6457e060405160405180910390a35050565b6000612929836000018360001b612a76565b905092915050565b600061293f82600001612b8a565b9050919050565b60006129558360000183612b9b565b60001c905092915050565b6000600882901c9050600060ff83166001901b905080198460000160008481526020019081526020016000206000828254169250508190555050505050565b600080600883901c9050600060ff84166001901b9050600081866000016000858152602001908152602001600020541614159250505092915050565b600080836001016000848152602001908152602001600020541415905092915050565b600033905090565b6000612a1283836129db565b612a6b578260000182908060018154018082558091505060019003906000526020600020016000909190919091505582600001805490508360010160008481526020019081526020016000208190555060019050612a70565b600090505b92915050565b60008083600101600084815260200190815260200160002054905060008114612b7e576000600182612aa89190613da5565b9050600060018660000180549050612ac09190613da5565b9050818114612b2f576000866000018281548110612ae157612ae0614037565b5b9060005260206000200154905080876000018481548110612b0557612b04614037565b5b90600052602060002001819055508387600101600083815260200190815260200160002081905550505b85600001805480612b4357612b42614008565b5b600190038181906000526020600020016000905590558560010160008681526020019081526020016000206000905560019350505050612b84565b60009150505b92915050565b600081600001805490509050919050565b6000826000018281548110612bb357612bb2614037565b5b9060005260206000200154905092915050565b828054612bd290613eab565b90600052602060002090601f016020900481019282612bf45760008555612c3b565b82601f10612c0d57805160ff1916838001178555612c3b565b82800160010185558215612c3b579182015b82811115612c3a578251825591602001919060010190612c1f565b5b509050612c489190612c6d565b5090565b60405180606001604052806000815260200160608152602001606081525090565b5b80821115612c86576000816000905550600101612c6e565b5090565b6000612c9d612c9884613b97565b613b72565b90508083825260208201905082856020860282011115612cc057612cbf61409a565b5b60005b85811015612cf05781612cd68882612e47565b845260208401935060208301925050600181019050612cc3565b5050509392505050565b6000612d0d612d0884613bc3565b613b72565b905082815260208101848484011115612d2957612d2861409f565b5b612d34848285613e69565b509392505050565b6000612d4f612d4a84613bc3565b613b72565b905082815260208101848484011115612d6b57612d6a61409f565b5b612d76848285613e78565b509392505050565b600081359050612d8d81614341565b92915050565b600081519050612da281614341565b92915050565b600082601f830112612dbd57612dbc614095565b5b8135612dcd848260208601612c8a565b91505092915050565b600081519050612de581614358565b92915050565b600082601f830112612e0057612dff614095565b5b8135612e10848260208601612cfa565b91505092915050565b600082601f830112612e2e57612e2d614095565b5b8151612e3e848260208601612d3c565b91505092915050565b600081359050612e568161436f565b92915050565b600060208284031215612e7257612e716140a9565b5b6000612e8084828501612d7e565b91505092915050565b600060208284031215612e9f57612e9e6140a9565b5b6000612ead84828501612d93565b91505092915050565b600060208284031215612ecc57612ecb6140a9565b5b6000612eda84828501612dd6565b91505092915050565b600060208284031215612ef957612ef86140a9565b5b600082015167ffffffffffffffff811115612f1757612f166140a4565b5b612f2384828501612e19565b91505092915050565b600060208284031215612f4257612f416140a9565b5b6000612f5084828501612e47565b91505092915050565b60008060408385031215612f7057612f6f6140a9565b5b6000612f7e85828601612e47565b9250506020612f8f85828601612d7e565b9150509250929050565b600080600060608486031215612fb257612fb16140a9565b5b6000612fc086828701612e47565b9350506020612fd186828701612d7e565b925050604084013567ffffffffffffffff811115612ff257612ff16140a4565b5b612ffe86828701612da8565b9150509250925092565b6000806040838503121561301f5761301e6140a9565b5b600061302d85828601612e47565b925050602083013567ffffffffffffffff81111561304e5761304d6140a4565b5b61305a85828601612deb565b9150509250929050565b60008060006060848603121561307d5761307c6140a9565b5b600061308b86828701612e47565b935050602084013567ffffffffffffffff8111156130ac576130ab6140a4565b5b6130b886828701612deb565b925050604084013567ffffffffffffffff8111156130d9576130d86140a4565b5b6130e586828701612da8565b9150509250925092565b600080600060608486031215613108576131076140a9565b5b600061311686828701612e47565b935050602084013567ffffffffffffffff811115613137576131366140a4565b5b61314386828701612deb565b925050604084013567ffffffffffffffff811115613164576131636140a4565b5b61317086828701612deb565b9150509250925092565b60008060008060808587031215613194576131936140a9565b5b60006131a287828801612e47565b94505060206131b387828801612e47565b935050604085013567ffffffffffffffff8111156131d4576131d36140a4565b5b6131e087828801612deb565b925050606085013567ffffffffffffffff811115613201576132006140a4565b5b61320d87828801612deb565b91505092959194509250565b600080600080600060a08688031215613235576132346140a9565b5b600061324388828901612e47565b955050602061325488828901612e47565b945050604086013567ffffffffffffffff811115613275576132746140a4565b5b61328188828901612deb565b935050606086013567ffffffffffffffff8111156132a2576132a16140a4565b5b6132ae88828901612deb565b925050608086013567ffffffffffffffff8111156132cf576132ce6140a4565b5b6132db88828901612da8565b9150509295509295909350565b600080600080600060a08688031215613304576133036140a9565b5b600061331288828901612e47565b955050602061332388828901612e47565b945050604086013567ffffffffffffffff811115613344576133436140a4565b5b61335088828901612deb565b935050606086013567ffffffffffffffff811115613371576133706140a4565b5b61337d88828901612deb565b925050608061338e88828901612e47565b9150509295509295909350565b60006133a7838361340b565b60208301905092915050565b60006133bf8383613644565b60208301905092915050565b60006133d78383613662565b905092915050565b60006133eb83836137e7565b905092915050565b60006133ff838361383e565b60208301905092915050565b61341481613dd9565b82525050565b61342381613dd9565b82525050565b61343a61343582613dd9565b613f57565b82525050565b600061344b82613c44565b6134558185613cc7565b935061346083613bf4565b8060005b83811015613491578151613478888261339b565b975061348383613c86565b925050600181019050613464565b5085935050505092915050565b60006134a982613c4f565b6134b38185613cd8565b93506134be83613c04565b8060005b838110156134ef5781516134d688826133b3565b97506134e183613c93565b9250506001810190506134c2565b5085935050505092915050565b600061350782613c5a565b6135118185613ce9565b93508360208202850161352385613c14565b8060005b8581101561355f578484038952815161354085826133cb565b945061354b83613ca0565b925060208a01995050600181019050613527565b50829750879550505050505092915050565b600061357c82613c65565b6135868185613cfa565b93508360208202850161359885613c24565b8060005b858110156135d457848403895281516135b585826133df565b94506135c083613cad565b925060208a0199505060018101905061359c565b50829750879550505050505092915050565b60006135f182613c70565b6135fb8185613d0b565b935061360683613c34565b8060005b8381101561363757815161361e88826133f3565b975061362983613cba565b92505060018101905061360a565b5085935050505092915050565b61364d81613deb565b82525050565b61365c81613deb565b82525050565b600061366d82613c7b565b6136778185613d1c565b9350613687818560208601613e78565b613690816140ae565b840191505092915050565b60006136a682613c7b565b6136b08185613d2d565b93506136c0818560208601613e78565b6136c9816140ae565b840191505092915050565b6136dd81613e21565b82525050565b6136ec81613e33565b82525050565b60006136ff602683613d3e565b915061370a826140cc565b604082019050919050565b6000613722604283613d3e565b915061372d8261411b565b606082019050919050565b6000613745604683613d3e565b915061375082614190565b606082019050919050565b6000613768603d83613d3e565b915061377382614205565b604082019050919050565b600061378b602083613d3e565b915061379682614254565b602082019050919050565b60006137ae604683613d3e565b91506137b98261427d565b606082019050919050565b60006137d1604083613d3e565b91506137dc826142f2565b604082019050919050565b60006060830160008301516137ff600086018261383e565b50602083015184820360208601526138178282613662565b915050604083015184820360408601526138318282613662565b9150508091505092915050565b61384781613e17565b82525050565b61385681613e17565b82525050565b60006138688284613429565b60148201915081905092915050565b600060208201905061388c600083018461341a565b92915050565b600060208201905081810360008301526138ac8184613440565b905092915050565b600060208201905081810360008301526138ce818461349e565b905092915050565b600060208201905081810360008301526138f081846134fc565b905092915050565b600060208201905081810360008301526139128184613571565b905092915050565b6000602082019050818103600083015261393481846135e6565b905092915050565b60006020820190506139516000830184613653565b92915050565b60006020820190508181036000830152613971818461369b565b905092915050565b600060208201905061398e60008301846136d4565b92915050565b60006020820190506139a960008301846136e3565b92915050565b600060208201905081810360008301526139c8816136f2565b9050919050565b600060208201905081810360008301526139e881613715565b9050919050565b60006020820190508181036000830152613a0881613738565b9050919050565b60006020820190508181036000830152613a288161375b565b9050919050565b60006020820190508181036000830152613a488161377e565b9050919050565b60006020820190508181036000830152613a68816137a1565b9050919050565b60006020820190508181036000830152613a88816137c4565b9050919050565b6000602082019050613aa4600083018461384d565b92915050565b6000604082019050613abf600083018561384d565b8181036020830152613ad1818461369b565b90509392505050565b6000606082019050613aef600083018661384d565b8181036020830152613b01818561369b565b90508181036040830152613b15818461369b565b9050949350505050565b6000608082019050613b34600083018761384d565b8181036020830152613b46818661369b565b90508181036040830152613b5a818561369b565b9050613b69606083018461384d565b95945050505050565b6000613b7c613b8d565b9050613b888282613edd565b919050565b6000604051905090565b600067ffffffffffffffff821115613bb257613bb1614066565b5b602082029050602081019050919050565b600067ffffffffffffffff821115613bde57613bdd614066565b5b613be7826140ae565b9050602081019050919050565b6000819050602082019050919050565b6000819050602082019050919050565b6000819050602082019050919050565b6000819050602082019050919050565b6000819050602082019050919050565b600081519050919050565b600081519050919050565b600081519050919050565b600081519050919050565b600081519050919050565b600081519050919050565b6000602082019050919050565b6000602082019050919050565b6000602082019050919050565b6000602082019050919050565b6000602082019050919050565b600082825260208201905092915050565b600082825260208201905092915050565b600082825260208201905092915050565b600082825260208201905092915050565b600082825260208201905092915050565b600082825260208201905092915050565b600082825260208201905092915050565b600082825260208201905092915050565b6000613d5a82613e17565b9150613d6583613e17565b9250827fffffffffffffffffffffffffffffffffffffffffffffffffffffffffffffffff03821115613d9a57613d99613f7b565b5b828201905092915050565b6000613db082613e17565b9150613dbb83613e17565b925082821015613dce57613dcd613f7b565b5b828203905092915050565b6000613de482613df7565b9050919050565b60008115159050919050565b600073ffffffffffffffffffffffffffffffffffffffff82169050919050565b6000819050919050565b6000613e2c82613e45565b9050919050565b6000613e3e82613e45565b9050919050565b6000613e5082613e57565b9050919050565b6000613e6282613df7565b9050919050565b82818337600083830152505050565b60005b83811015613e96578082015181840152602081019050613e7b565b83811115613ea5576000848401525b50505050565b60006002820490506001821680613ec357607f821691505b60208210811415613ed757613ed6613fd9565b5b50919050565b613ee6826140ae565b810181811067ffffffffffffffff82111715613f0557613f04614066565b5b80604052505050565b6000613f1982613e17565b91507fffffffffffffffffffffffffffffffffffffffffffffffffffffffffffffffff821415613f4c57613f4b613f7b565b5b600182019050919050565b6000613f6282613f69565b9050919050565b6000613f74826140bf565b9050919050565b7f4e487b7100000000000000000000000000000000000000000000000000000000600052601160045260246000fd5b7f4e487b7100000000000000000000000000000000000000000000000000000000600052602160045260246000fd5b7f4e487b7100000000000000000000000000000000000000000000000000000000600052602260045260246000fd5b7f4e487b7100000000000000000000000000000000000000000000000000000000600052603160045260246000fd5b7f4e487b7100000000000000000000000000000000000000000000000000000000600052603260045260246000fd5b7f4e487b7100000000000000000000000000000000000000000000000000000000600052604160045260246000fd5b600080fd5b600080fd5b600080fd5b600080fd5b600080fd5b6000601f19601f8301169050919050565b60008160601b9050919050565b7f4f776e61626c653a206e6577206f776e657220697320746865207a65726f206160008201527f6464726573730000000000000000000000000000000000000000000000000000602082015250565b7f43616e6e6f7420616464206120646966666572656e74207075626b657920666f60008201527f72207468652073616d652061757468206d6574686f64207479706520616e642060208201527f6964000000000000000000000000000000000000000000000000000000000000604082015250565b7f4f6e6c792074686520504b50204e4654206f776e65722063616e20616464206160008201527f6e642072656d6f7665207065726d69747465642061757468206d6574686f642060208201527f73636f7065640000000000000000000000000000000000000000000000000000604082015250565b7f4f6e6c792074686520504b50204e4654206f776e65722063616e20616464206160008201527f6e642072656d6f7665207065726d697474656420616464726573736573000000602082015250565b7f4f776e61626c653a2063616c6c6572206973206e6f7420746865206f776e6572600082015250565b7f4f6e6c792074686520504b50204e4654206f776e65722063616e20616464206160008201527f6e642072656d6f7665207065726d69747465642061757468206d6574686f642060208201527f73636f7065730000000000000000000000000000000000000000000000000000604082015250565b7f4f6e6c792074686520504b50204e4654206f776e65722063616e20616464206160008201527f6e642072656d6f7665207065726d69747465642061757468206d6574686f6473602082015250565b61434a81613dd9565b811461435557600080fd5b50565b61436181613deb565b811461436c57600080fd5b50565b61437881613e17565b811461438357600080fd5b5056fea2646970667358221220bdc1f59b01eb52915ec4ef25478b70b2227d1002dae064d3d5676662558e7fac64736f6c63430008070033","abi":[{"inputs":[{"internalType":"address","name":"_pkpNft","type":"address"},{"internalType":"address","name":"_router","type":"address"}],"stateMutability":"nonpayable","type":"constructor"},{"anonymous":false,"inputs":[{"indexed":true,"internalType":"address","name":"previousOwner","type":"address"},{"indexed":true,"internalType":"address","name":"newOwner","type":"address"}],"name":"OwnershipTransferred","type":"event"},{"anonymous":false,"inputs":[{"indexed":true,"internalType":"uint256","name":"tokenId","type":"uint256"},{"indexed":false,"internalType":"uint256","name":"authMethodType","type":"uint256"},{"indexed":false,"internalType":"bytes","name":"id","type":"bytes"},{"indexed":false,"internalType":"bytes","name":"userPubkey","type":"bytes"}],"name":"PermittedAuthMethodAdded","type":"event"},{"anonymous":false,"inputs":[{"indexed":true,"internalType":"uint256","name":"tokenId","type":"uint256"},{"indexed":false,"internalType":"uint256","name":"authMethodType","type":"uint256"},{"indexed":false,"internalType":"bytes","name":"id","type":"bytes"},{"indexed":false,"internalType":"bytes","name":"userPubkey","type":"bytes"}],"name":"PermittedAuthMethodRemoved","type":"event"},{"anonymous":false,"inputs":[{"indexed":true,"internalType":"uint256","name":"tokenId","type":"uint256"},{"indexed":false,"internalType":"uint256","name":"authMethodType","type":"uint256"},{"indexed":false,"internalType":"bytes","name":"id","type":"bytes"},{"indexed":false,"internalType":"bytes","name":"userPubkey","type":"bytes"},{"indexed":false,"internalType":"uint256","name":"scopeId","type":"uint256"}],"name":"PermittedAuthMethodScopeAdded","type":"event"},{"anonymous":false,"inputs":[{"indexed":true,"internalType":"uint256","name":"tokenId","type":"uint256"},{"indexed":false,"internalType":"uint256","name":"authMethodType","type":"uint256"},{"indexed":false,"internalType":"bytes","name":"id","type":"bytes"},{"indexed":false,"internalType":"bytes","name":"userPubkey","type":"bytes"},{"indexed":false,"internalType":"uint256","name":"scopeId","type":"uint256"}],"name":"PermittedAuthMethodScopeRemoved","type":"event"},{"inputs":[{"internalType":"uint256","name":"tokenId","type":"uint256"},{"internalType":"bytes","name":"ipfsCID","type":"bytes"},{"internalType":"uint256[]","name":"scopes","type":"uint256[]"}],"name":"addPermittedAction","outputs":[],"stateMutability":"nonpayable","type":"function"},{"inputs":[{"internalType":"uint256","name":"tokenId","type":"uint256"},{"internalType":"address","name":"user","type":"address"},{"internalType":"uint256[]","name":"scopes","type":"uint256[]"}],"name":"addPermittedAddress","outputs":[],"stateMutability":"nonpayable","type":"function"},{"inputs":[{"internalType":"uint256","name":"tokenId","type":"uint256"},{"internalType":"uint256","name":"authMethodType","type":"uint256"},{"internalType":"bytes","name":"id","type":"bytes"},{"internalType":"bytes","name":"userPubkey","type":"bytes"},{"internalType":"uint256[]","name":"scopes","type":"uint256[]"}],"name":"addPermittedAuthMethod","outputs":[],"stateMutability":"nonpayable","type":"function"},{"inputs":[{"internalType":"uint256","name":"tokenId","type":"uint256"},{"internalType":"uint256","name":"authMethodType","type":"uint256"},{"internalType":"bytes","name":"id","type":"bytes"},{"internalType":"bytes","name":"userPubkey","type":"bytes"},{"internalType":"uint256","name":"scopeId","type":"uint256"}],"name":"addPermittedAuthMethodScope","outputs":[],"stateMutability":"nonpayable","type":"function"},{"inputs":[{"internalType":"uint256","name":"","type":"uint256"}],"name":"authMethods","outputs":[{"internalType":"uint256","name":"authMethodType","type":"uint256"},{"internalType":"bytes","name":"id","type":"bytes"},{"internalType":"bytes","name":"userPubkey","type":"bytes"}],"stateMutability":"view","type":"function"},{"inputs":[{"internalType":"uint256","name":"authMethodType","type":"uint256"},{"internalType":"bytes","name":"id","type":"bytes"},{"internalType":"bytes","name":"userPubkey","type":"bytes"}],"name":"getAuthMethodId","outputs":[{"internalType":"uint256","name":"","type":"uint256"}],"stateMutability":"pure","type":"function"},{"inputs":[{"internalType":"uint256","name":"tokenId","type":"uint256"}],"name":"getEthAddress","outputs":[{"internalType":"address","name":"","type":"address"}],"stateMutability":"view","type":"function"},{"inputs":[{"internalType":"uint256","name":"tokenId","type":"uint256"}],"name":"getPermittedActions","outputs":[{"internalType":"bytes[]","name":"","type":"bytes[]"}],"stateMutability":"view","type":"function"},{"inputs":[{"internalType":"uint256","name":"tokenId","type":"uint256"}],"name":"getPermittedAddresses","outputs":[{"internalType":"address[]","name":"","type":"address[]"}],"stateMutability":"view","type":"function"},{"inputs":[{"internalType":"uint256","name":"tokenId","type":"uint256"},{"internalType":"uint256","name":"authMethodType","type":"uint256"},{"internalType":"bytes","name":"id","type":"bytes"},{"internalType":"bytes","name":"userPubkey","type":"bytes"},{"internalType":"uint256","name":"maxScopeId","type":"uint256"}],"name":"getPermittedAuthMethodScopes","outputs":[{"internalType":"bool[]","name":"","type":"bool[]"}],"stateMutability":"view","type":"function"},{"inputs":[{"internalType":"uint256","name":"tokenId","type":"uint256"}],"name":"getPermittedAuthMethods","outputs":[{"components":[{"internalType":"uint256","name":"authMethodType","type":"uint256"},{"internalType":"bytes","name":"id","type":"bytes"},{"internalType":"bytes","name":"userPubkey","type":"bytes"}],"internalType":"struct PKPPermissions.AuthMethod[]","name":"","type":"tuple[]"}],"stateMutability":"view","type":"function"},{"inputs":[{"internalType":"uint256","name":"tokenId","type":"uint256"}],"name":"getPubkey","outputs":[{"internalType":"bytes","name":"","type":"bytes"}],"stateMutability":"view","type":"function"},{"inputs":[{"internalType":"uint256","name":"authMethodType","type":"uint256"},{"internalType":"bytes","name":"id","type":"bytes"},{"internalType":"bytes","name":"userPubkey","type":"bytes"}],"name":"getTokenIdsForAuthMethod","outputs":[{"internalType":"uint256[]","name":"","type":"uint256[]"}],"stateMutability":"view","type":"function"},{"inputs":[{"internalType":"uint256","name":"authMethodType","type":"uint256"},{"internalType":"bytes","name":"id","type":"bytes"}],"name":"getUserPubkeyForAuthMethod","outputs":[{"internalType":"bytes","name":"","type":"bytes"}],"stateMutability":"view","type":"function"},{"inputs":[{"internalType":"uint256","name":"","type":"uint256"}],"name":"idToUserPubkeyLookup","outputs":[{"internalType":"uint256","name":"","type":"uint256"}],"stateMutability":"view","type":"function"},{"inputs":[{"internalType":"uint256","name":"tokenId","type":"uint256"},{"internalType":"bytes","name":"ipfsCID","type":"bytes"}],"name":"isPermittedAction","outputs":[{"internalType":"bool","name":"","type":"bool"}],"stateMutability":"view","type":"function"},{"inputs":[{"internalType":"uint256","name":"tokenId","type":"uint256"},{"internalType":"address","name":"user","type":"address"}],"name":"isPermittedAddress","outputs":[{"internalType":"bool","name":"","type":"bool"}],"stateMutability":"view","type":"function"},{"inputs":[{"internalType":"uint256","name":"tokenId","type":"uint256"},{"internalType":"uint256","name":"authMethodType","type":"uint256"},{"internalType":"bytes","name":"id","type":"bytes"},{"internalType":"bytes","name":"userPubkey","type":"bytes"}],"name":"isPermittedAuthMethod","outputs":[{"internalType":"bool","name":"","type":"bool"}],"stateMutability":"view","type":"function"},{"inputs":[{"internalType":"uint256","name":"tokenId","type":"uint256"},{"internalType":"uint256","name":"authMethodType","type":"uint256"},{"internalType":"bytes","name":"id","type":"bytes"},{"internalType":"bytes","name":"userPubkey","type":"bytes"},{"internalType":"uint256","name":"scopeId","type":"uint256"}],"name":"isPermittedAuthMethodScopePresent","outputs":[{"internalType":"bool","name":"","type":"bool"}],"stateMutability":"view","type":"function"},{"inputs":[],"name":"owner","outputs":[{"internalType":"address","name":"","type":"address"}],"stateMutability":"view","type":"function"},{"inputs":[],"name":"pkpNFT","outputs":[{"internalType":"contract PKPNFT","name":"","type":"address"}],"stateMutability":"view","type":"function"},{"inputs":[{"internalType":"uint256","name":"tokenId","type":"uint256"},{"internalType":"bytes","name":"ipfsCID","type":"bytes"}],"name":"removePermittedAction","outputs":[],"stateMutability":"nonpayable","type":"function"},{"inputs":[{"internalType":"uint256","name":"tokenId","type":"uint256"},{"internalType":"address","name":"user","type":"address"}],"name":"removePermittedAddress","outputs":[],"stateMutability":"nonpayable","type":"function"},{"inputs":[{"internalType":"uint256","name":"tokenId","type":"uint256"},{"internalType":"uint256","name":"authMethodType","type":"uint256"},{"internalType":"bytes","name":"id","type":"bytes"},{"internalType":"bytes","name":"userPubkey","type":"bytes"}],"name":"removePermittedAuthMethod","outputs":[],"stateMutability":"nonpayable","type":"function"},{"inputs":[{"internalType":"uint256","name":"tokenId","type":"uint256"},{"internalType":"uint256","name":"authMethodType","type":"uint256"},{"internalType":"bytes","name":"id","type":"bytes"},{"internalType":"bytes","name":"userPubkey","type":"bytes"},{"internalType":"uint256","name":"scopeId","type":"uint256"}],"name":"removePermittedAuthMethodScope","outputs":[],"stateMutability":"nonpayable","type":"function"},{"inputs":[],"name":"renounceOwnership","outputs":[],"stateMutability":"nonpayable","type":"function"},{"inputs":[],"name":"router","outputs":[{"internalType":"contract PubkeyRouter","name":"","type":"address"}],"stateMutability":"view","type":"function"},{"inputs":[{"internalType":"address","name":"newPkpNftAddress","type":"address"}],"name":"setPkpNftAddress","outputs":[],"stateMutability":"nonpayable","type":"function"},{"inputs":[{"internalType":"address","name":"newRouterAddress","type":"address"}],"name":"setRouterAddress","outputs":[],"stateMutability":"nonpayable","type":"function"},{"inputs":[{"internalType":"address","name":"newOwner","type":"address"}],"name":"transferOwnership","outputs":[],"stateMutability":"nonpayable","type":"function"}]}