{"address":"0x4885a00771C4F12E30ef4e44655F48C973a79020","bytecode":"0x60806040523480156200001157600080fd5b50604051620044dd380380620044dd8339818101604052810190620000379190620001c4565b620000576200004b620000e160201b60201c565b620000e960201b60201c565b81600160006101000a81548173ffffffffffffffffffffffffffffffffffffffff021916908373ffffffffffffffffffffffffffffffffffffffff16021790555080600260006101000a81548173ffffffffffffffffffffffffffffffffffffffff021916908373ffffffffffffffffffffffffffffffffffffffff16021790555050506200025e565b600033905090565b60008060009054906101000a900473ffffffffffffffffffffffffffffffffffffffff169050816000806101000a81548173ffffffffffffffffffffffffffffffffffffffff021916908373ffffffffffffffffffffffffffffffffffffffff1602179055508173ffffffffffffffffffffffffffffffffffffffff168173ffffffffffffffffffffffffffffffffffffffff167f8be0079c531659141344cd1fd0a4f28419497f9722a3daafe3b4186f6b6457e060405160405180910390a35050565b600081519050620001be8162000244565b92915050565b60008060408385031215620001de57620001dd6200023f565b5b6000620001ee85828601620001ad565b92505060206200020185828601620001ad565b9150509250929050565b600062000218826200021f565b9050919050565b600073ffffffffffffffffffffffffffffffffffffffff82169050919050565b600080fd5b6200024f816200020b565b81146200025b57600080fd5b50565b61426f806200026e6000396000f3fe608060405234801561001057600080fd5b50600436106101cc5760003560e01c80638a43157811610104578063bd4986a0116100a2578063f34f21ba11610071578063f34f21ba1461056f578063f887ea401461059f578063fceb3983146105bd578063ffa2e953146105ed576101cc565b8063bd4986a0146104d7578063d41a327214610507578063ef6fd87814610523578063f2fde38b14610553576101cc565b8063a1c805fa116100de578063a1c805fa1461042b578063abc541ae1461045b578063b997606f1461048b578063bb7a1070146104a7576101cc565b80638a431578146103c15780638da5cb5b146103dd578063a1afdc6f146103fb576101cc565b80635521c4521161017157806366fc65411161014b57806366fc6541146103635780636821c8e21461037f578063715018a61461039b57806382559561146103a5576101cc565b80635521c452146102e7578063557b5eba146103175780635e1cab6614610347576101cc565b80631663c121116101ad5780631663c12114610261578063176354fd1461027d5780632657768b1461029957806341cb87fc146102cb576101cc565b80618b4f146101d1578062221c08146102015780630a60950d14610231575b600080fd5b6101eb60048036038101906101e69190612e56565b61060b565b6040516101f891906137e4565b60405180910390f35b61021b6004803603810190610216919061312a565b610732565b604051610228919061375c565b60405180910390f35b61024b60048036038101906102469190612f05565b61081c565b6040516102589190613937565b60405180910390f35b61027b60048036038101906102769190612e96565b610852565b005b61029760048036038101906102929190612d59565b6108a5565b005b6102b360048036038101906102ae9190612e29565b6108f1565b6040516102c293929190613982565b60405180910390f35b6102e560048036038101906102e09190612d59565b610a2b565b005b61030160048036038101906102fc9190612f05565b610a77565b60405161030e91906137c2565b60405180910390f35b610331600480360381019061032c9190612fec565b610b62565b60405161033e91906137e4565b60405180910390f35b610361600480360381019061035c919061305b565b610bb8565b005b61037d60048036038101906103789190612fec565b610f4d565b005b6103996004803603810190610394919061312a565b611111565b005b6103a36112b6565b005b6103bf60048036038101906103ba919061312a565b6112ca565b005b6103db60048036038101906103d69190612f61565b61146f565b005b6103e56114a3565b6040516103f2919061371f565b60405180910390f35b61041560048036038101906104109190612f05565b6114cc565b60405161042291906137ff565b60405180910390f35b6104456004803603810190610440919061312a565b61163b565b60405161045291906137e4565b60405180910390f35b61047560048036038101906104709190612e29565b611691565b604051610482919061373a565b60405180910390f35b6104a560048036038101906104a09190612e56565b611d2e565b005b6104c160048036038101906104bc9190612e29565b611d6f565b6040516104ce919061377e565b60405180910390f35b6104f160048036038101906104ec9190612e29565b6121a3565b6040516104fe919061371f565b60405180910390f35b610521600480360381019061051c9190612f05565b612257565b005b61053d60048036038101906105389190612e29565b612279565b60405161054a91906137ff565b60405180910390f35b61056d60048036038101906105689190612d59565b612332565b005b61058960048036038101906105849190612e29565b6123b6565b60405161059691906137a0565b60405180910390f35b6105a76125ec565b6040516105b4919061383c565b60405180910390f35b6105d760048036038101906105d29190612f05565b612612565b6040516105e491906137e4565b60405180910390f35b6105f561263a565b6040516106029190613821565b60405180910390f35b600061064a836001600681111561062557610624613e5d565b5b8460405160200161063691906136ed565b604051602081830303815290604052610b62565b8061072a57508173ffffffffffffffffffffffffffffffffffffffff16600160009054906101000a900473ffffffffffffffffffffffffffffffffffffffff1673ffffffffffffffffffffffffffffffffffffffff16636352211e856040518263ffffffff1660e01b81526004016106c29190613937565b60206040518083038186803b1580156106da57600080fd5b505afa1580156106ee573d6000803e3d6000fd5b505050506040513d601f19601f820116820180604052508101906107129190612d86565b73ffffffffffffffffffffffffffffffffffffffff16145b905092915050565b60606000610740858561081c565b90506000600460008881526020019081526020016000206000838152602001908152602001600020905060008467ffffffffffffffff81111561078657610785613f19565b5b6040519080825280602002602001820160405280156107b45781602001602082028036833780820191505090505b50905060005b8581101561080d576107d5818461266090919063ffffffff16565b8282815181106107e8576107e7613eea565b5b602002602001019015159081151581525050808061080590613dc1565b9150506107ba565b50809350505050949350505050565b60008282604051602001610831929190613952565b6040516020818303038152906040528051906020012060001c905092915050565b6108a0836001600681111561086a57610869613e5d565b5b8460405160200161087b91906136ed565b6040516020818303038152906040526040518060200160405280600081525085610bb8565b505050565b6108ad61269c565b80600160006101000a81548173ffffffffffffffffffffffffffffffffffffffff021916908373ffffffffffffffffffffffffffffffffffffffff16021790555050565b600560205280600052604060002060009150905080600001549080600101805461091a90613d5e565b80601f016020809104026020016040519081016040528092919081815260200182805461094690613d5e565b80156109935780601f1061096857610100808354040283529160200191610993565b820191906000526020600020905b81548152906001019060200180831161097657829003601f168201915b5050505050908060020180546109a890613d5e565b80601f01602080910402602001604051908101604052809291908181526020018280546109d490613d5e565b8015610a215780601f106109f657610100808354040283529160200191610a21565b820191906000526020600020905b815481529060010190602001808311610a0457829003601f168201915b5050505050905083565b610a3361269c565b80600260006101000a81548173ffffffffffffffffffffffffffffffffffffffff021916908373ffffffffffffffffffffffffffffffffffffffff16021790555050565b60606000610a85848461081c565b90506000610aa46006600084815260200190815260200160002061271a565b905060008167ffffffffffffffff811115610ac257610ac1613f19565b5b604051908082528060200260200182016040528015610af05781602001602082028036833780820191505090505b50905060005b82811015610b5557610b23816006600087815260200190815260200160002061272f90919063ffffffff16565b828281518110610b3657610b35613eea565b5b6020026020010181815250508080610b4d90613dc1565b915050610af6565b5080935050505092915050565b600080610b6f848461081c565b90506000610b98826003600089815260200190815260200160002061274990919063ffffffff16565b905080610baa57600092505050610bb1565b6001925050505b9392505050565b6000600160009054906101000a900473ffffffffffffffffffffffffffffffffffffffff1673ffffffffffffffffffffffffffffffffffffffff16636352211e876040518263ffffffff1660e01b8152600401610c159190613937565b60206040518083038186803b158015610c2d57600080fd5b505afa158015610c41573d6000803e3d6000fd5b505050506040513d601f19601f82011682018060405250810190610c659190612d86565b90508073ffffffffffffffffffffffffffffffffffffffff163373ffffffffffffffffffffffffffffffffffffffff1614610cd5576040517f08c379a0000000000000000000000000000000000000000000000000000000008152600401610ccc90613917565b60405180910390fd5b600060405180606001604052808781526020018681526020018581525090506000610d00878761081c565b90506000600560008381526020019081526020016000206002018054610d2590613d5e565b90501480610d635750848051906020012060056000838152602001908152602001600020600201604051610d599190613708565b6040518091039020145b610da2576040517f08c379a0000000000000000000000000000000000000000000000000000000008152600401610d9990613877565b60405180910390fd5b8160056000838152602001908152602001600020600082015181600001556020820151816001019080519060200190610ddc929190612ac3565b506040820151816002019080519060200190610df9929190612ac3565b509050506000600360008a81526020019081526020016000209050610e27828261276390919063ffffffff16565b506000600660008481526020019081526020016000209050610e528a8261276390919063ffffffff16565b5060005b8651811015610f04576000878281518110610e7457610e73613eea565b5b60200260200101519050610eb481600460008f8152602001908152602001600020600088815260200190815260200160002061277d90919063ffffffff16565b8b7f29eb060f266aff306ec81b612728a417406dd6298f8f7576a37b4e6830dcc60e868c84604051610ee8939291906139c7565b60405180910390a2508080610efc90613dc1565b915050610e56565b50897fd7db314a62650aaa1b15d4bb5c95c558a03cde3ee7f36e144b73126a3a8e839a8a8a8a604051610f3993929190613982565b60405180910390a250505050505050505050565b6000600160009054906101000a900473ffffffffffffffffffffffffffffffffffffffff1673ffffffffffffffffffffffffffffffffffffffff16636352211e856040518263ffffffff1660e01b8152600401610faa9190613937565b60206040518083038186803b158015610fc257600080fd5b505afa158015610fd6573d6000803e3d6000fd5b505050506040513d601f19601f82011682018060405250810190610ffa9190612d86565b90508073ffffffffffffffffffffffffffffffffffffffff163373ffffffffffffffffffffffffffffffffffffffff161461106a576040517f08c379a0000000000000000000000000000000000000000000000000000000008152600401611061906138b7565b60405180910390fd5b6000611076848461081c565b905060006003600087815260200190815260200160002090506110a282826127bb90919063ffffffff16565b5060006006600084815260200190815260200160002090506110cd87826127bb90919063ffffffff16565b50867f9830658acd6a41f1cb12b425ed83cb2b8ccbfa753337cd13be80be51fc3f33738487604051611100929190613952565b60405180910390a250505050505050565b6000600160009054906101000a900473ffffffffffffffffffffffffffffffffffffffff1673ffffffffffffffffffffffffffffffffffffffff16636352211e866040518263ffffffff1660e01b815260040161116e9190613937565b60206040518083038186803b15801561118657600080fd5b505afa15801561119a573d6000803e3d6000fd5b505050506040513d601f19601f820116820180604052508101906111be9190612d86565b90508073ffffffffffffffffffffffffffffffffffffffff163373ffffffffffffffffffffffffffffffffffffffff161461122e576040517f08c379a000000000000000000000000000000000000000000000000000000000815260040161122590613897565b60405180910390fd5b600061123a858561081c565b90506112728360046000898152602001908152602001600020600084815260200190815260200160002061277d90919063ffffffff16565b857f29eb060f266aff306ec81b612728a417406dd6298f8f7576a37b4e6830dcc60e8286866040516112a6939291906139c7565b60405180910390a2505050505050565b6112be61269c565b6112c860006127d5565b565b6000600160009054906101000a900473ffffffffffffffffffffffffffffffffffffffff1673ffffffffffffffffffffffffffffffffffffffff16636352211e866040518263ffffffff1660e01b81526004016113279190613937565b60206040518083038186803b15801561133f57600080fd5b505afa158015611353573d6000803e3d6000fd5b505050506040513d601f19601f820116820180604052508101906113779190612d86565b90508073ffffffffffffffffffffffffffffffffffffffff163373ffffffffffffffffffffffffffffffffffffffff16146113e7576040517f08c379a00000000000000000000000000000000000000000000000000000000081526004016113de906138f7565b60405180910390fd5b60006113f3858561081c565b905061142b8360046000898152602001908152602001600020600084815260200190815260200160002061289990919063ffffffff16565b857f49bb3a0761ed218e1db1e9c41096ed35188868994cc37a32e1f25855745b424e86868660405161145f939291906139c7565b60405180910390a2505050505050565b61149e836002600681111561148757611486613e5d565b5b846040518060200160405280600081525085610bb8565b505050565b60008060009054906101000a900473ffffffffffffffffffffffffffffffffffffffff16905090565b606060006114da848461081c565b90506000600560008381526020019081526020016000206040518060600160405290816000820154815260200160018201805461151690613d5e565b80601f016020809104026020016040519081016040528092919081815260200182805461154290613d5e565b801561158f5780601f106115645761010080835404028352916020019161158f565b820191906000526020600020905b81548152906001019060200180831161157257829003601f168201915b505050505081526020016002820180546115a890613d5e565b80601f01602080910402602001604051908101604052809291908181526020018280546115d490613d5e565b80156116215780601f106115f657610100808354040283529160200191611621565b820191906000526020600020905b81548152906001019060200180831161160457829003601f168201915b505050505081525050905080604001519250505092915050565b600080611648858561081c565b9050600061168284600460008a8152602001908152602001600020600085815260200190815260200160002061266090919063ffffffff16565b90508092505050949350505050565b606060006116b06003600085815260200190815260200160002061271a565b90506000805b8281101561187a5760006116e5826003600089815260200190815260200160002061272f90919063ffffffff16565b90506000600560008381526020019081526020016000206040518060600160405290816000820154815260200160018201805461172190613d5e565b80601f016020809104026020016040519081016040528092919081815260200182805461174d90613d5e565b801561179a5780601f1061176f5761010080835404028352916020019161179a565b820191906000526020600020905b81548152906001019060200180831161177d57829003601f168201915b505050505081526020016002820180546117b390613d5e565b80601f01602080910402602001604051908101604052809291908181526020018280546117df90613d5e565b801561182c5780601f106118015761010080835404028352916020019161182c565b820191906000526020600020905b81548152906001019060200180831161180f57829003601f168201915b50505050508152505090506001600681111561184b5761184a613e5d565b5b8160000151141561186557838061186190613dc1565b9450505b5050808061187290613dc1565b9150506116b6565b506000600160009054906101000a900473ffffffffffffffffffffffffffffffffffffffff1673ffffffffffffffffffffffffffffffffffffffff16634f558e79866040518263ffffffff1660e01b81526004016118d89190613937565b60206040518083038186803b1580156118f057600080fd5b505afa158015611904573d6000803e3d6000fd5b505050506040513d601f19601f820116820180604052508101906119289190612db3565b9050606060008215611a9d576001846119419190613c02565b67ffffffffffffffff81111561195a57611959613f19565b5b6040519080825280602002602001820160405280156119885781602001602082028036833780820191505090505b5091506000600160009054906101000a900473ffffffffffffffffffffffffffffffffffffffff1673ffffffffffffffffffffffffffffffffffffffff16636352211e896040518263ffffffff1660e01b81526004016119e89190613937565b60206040518083038186803b158015611a0057600080fd5b505afa158015611a14573d6000803e3d6000fd5b505050506040513d601f19601f82011682018060405250810190611a389190612d86565b90508083600081518110611a4f57611a4e613eea565b5b602002602001019073ffffffffffffffffffffffffffffffffffffffff16908173ffffffffffffffffffffffffffffffffffffffff16815250508180611a9490613dc1565b92505050611ae9565b8367ffffffffffffffff811115611ab757611ab6613f19565b5b604051908082528060200260200182016040528015611ae55781602001602082028036833780820191505090505b5091505b60005b85811015611d20576000611b1b82600360008c815260200190815260200160002061272f90919063ffffffff16565b905060006005600083815260200190815260200160002060405180606001604052908160008201548152602001600182018054611b5790613d5e565b80601f0160208091040260200160405190810160405280929190818152602001828054611b8390613d5e565b8015611bd05780601f10611ba557610100808354040283529160200191611bd0565b820191906000526020600020905b815481529060010190602001808311611bb357829003601f168201915b50505050508152602001600282018054611be990613d5e565b80601f0160208091040260200160405190810160405280929190818152602001828054611c1590613d5e565b8015611c625780601f10611c3757610100808354040283529160200191611c62565b820191906000526020600020905b815481529060010190602001808311611c4557829003601f168201915b505050505081525050905060016006811115611c8157611c80613e5d565b5b81600001511415611d0b57600080826020015190506c01000000000000000000000000602082015104915081878781518110611cc057611cbf613eea565b5b602002602001019073ffffffffffffffffffffffffffffffffffffffff16908173ffffffffffffffffffffffffffffffffffffffff16815250508580611d0590613dc1565b96505050505b50508080611d1890613dc1565b915050611aec565b508195505050505050919050565b611d6b8260016006811115611d4657611d45613e5d565b5b83604051602001611d5791906136ed565b604051602081830303815290604052610f4d565b5050565b60606000611d8e6003600085815260200190815260200160002061271a565b90506000805b82811015611f58576000611dc3826003600089815260200190815260200160002061272f90919063ffffffff16565b905060006005600083815260200190815260200160002060405180606001604052908160008201548152602001600182018054611dff90613d5e565b80601f0160208091040260200160405190810160405280929190818152602001828054611e2b90613d5e565b8015611e785780601f10611e4d57610100808354040283529160200191611e78565b820191906000526020600020905b815481529060010190602001808311611e5b57829003601f168201915b50505050508152602001600282018054611e9190613d5e565b80601f0160208091040260200160405190810160405280929190818152602001828054611ebd90613d5e565b8015611f0a5780601f10611edf57610100808354040283529160200191611f0a565b820191906000526020600020905b815481529060010190602001808311611eed57829003601f168201915b505050505081525050905060026006811115611f2957611f28613e5d565b5b81600001511415611f43578380611f3f90613dc1565b9450505b50508080611f5090613dc1565b915050611d94565b5060008167ffffffffffffffff811115611f7557611f74613f19565b5b604051908082528060200260200182016040528015611fa857816020015b6060815260200190600190039081611f935790505b5090506000805b84811015612196576000611fde82600360008b815260200190815260200160002061272f90919063ffffffff16565b90506000600560008381526020019081526020016000206040518060600160405290816000820154815260200160018201805461201a90613d5e565b80601f016020809104026020016040519081016040528092919081815260200182805461204690613d5e565b80156120935780601f1061206857610100808354040283529160200191612093565b820191906000526020600020905b81548152906001019060200180831161207657829003601f168201915b505050505081526020016002820180546120ac90613d5e565b80601f01602080910402602001604051908101604052809291908181526020018280546120d890613d5e565b80156121255780601f106120fa57610100808354040283529160200191612125565b820191906000526020600020905b81548152906001019060200180831161210857829003601f168201915b50505050508152505090506002600681111561214457612143613e5d565b5b8160000151141561218157806020015185858151811061216757612166613eea565b5b6020026020010181905250838061217d90613dc1565b9450505b5050808061218e90613dc1565b915050611faf565b5081945050505050919050565b6000600260009054906101000a900473ffffffffffffffffffffffffffffffffffffffff1673ffffffffffffffffffffffffffffffffffffffff1663bd4986a0836040518263ffffffff1660e01b81526004016122009190613937565b60206040518083038186803b15801561221857600080fd5b505afa15801561222c573d6000803e3d6000fd5b505050506040513d601f19601f820116820180604052508101906122509190612d86565b9050919050565b612275826002600681111561226f5761226e613e5d565b5b83610f4d565b5050565b6060600260009054906101000a900473ffffffffffffffffffffffffffffffffffffffff1673ffffffffffffffffffffffffffffffffffffffff1663ef6fd878836040518263ffffffff1660e01b81526004016122d69190613937565b60006040518083038186803b1580156122ee57600080fd5b505afa158015612302573d6000803e3d6000fd5b505050506040513d6000823e3d601f19601f8201168201806040525081019061232b9190612de0565b9050919050565b61233a61269c565b600073ffffffffffffffffffffffffffffffffffffffff168173ffffffffffffffffffffffffffffffffffffffff1614156123aa576040517f08c379a00000000000000000000000000000000000000000000000000000000081526004016123a190613857565b60405180910390fd5b6123b3816127d5565b50565b606060006123d56003600085815260200190815260200160002061271a565b905060008167ffffffffffffffff8111156123f3576123f2613f19565b5b60405190808252806020026020018201604052801561242c57816020015b612419612b49565b8152602001906001900390816124115790505b50905060005b828110156125e1576000612461826003600089815260200190815260200160002061272f90919063ffffffff16565b9050600560008281526020019081526020016000206040518060600160405290816000820154815260200160018201805461249b90613d5e565b80601f01602080910402602001604051908101604052809291908181526020018280546124c790613d5e565b80156125145780601f106124e957610100808354040283529160200191612514565b820191906000526020600020905b8154815290600101906020018083116124f757829003601f168201915b5050505050815260200160028201805461252d90613d5e565b80601f016020809104026020016040519081016040528092919081815260200182805461255990613d5e565b80156125a65780601f1061257b576101008083540402835291602001916125a6565b820191906000526020600020905b81548152906001019060200180831161258957829003601f168201915b5050505050815250508383815181106125c2576125c1613eea565b5b60200260200101819052505080806125d990613dc1565b915050612432565b508092505050919050565b600260009054906101000a900473ffffffffffffffffffffffffffffffffffffffff1681565b6000612632836002600681111561262c5761262b613e5d565b5b84610b62565b905092915050565b600160009054906101000a900473ffffffffffffffffffffffffffffffffffffffff1681565b600080600883901c9050600060ff84166001901b9050600081866000016000858152602001908152602001600020541614159250505092915050565b6126a46128d8565b73ffffffffffffffffffffffffffffffffffffffff166126c26114a3565b73ffffffffffffffffffffffffffffffffffffffff1614612718576040517f08c379a000000000000000000000000000000000000000000000000000000000815260040161270f906138d7565b60405180910390fd5b565b6000612728826000016128e0565b9050919050565b600061273e83600001836128f1565b60001c905092915050565b600061275b836000018360001b61291c565b905092915050565b6000612775836000018360001b61293f565b905092915050565b6000600882901c9050600060ff83166001901b9050808460000160008481526020019081526020016000206000828254179250508190555050505050565b60006127cd836000018360001b6129af565b905092915050565b60008060009054906101000a900473ffffffffffffffffffffffffffffffffffffffff169050816000806101000a81548173ffffffffffffffffffffffffffffffffffffffff021916908373ffffffffffffffffffffffffffffffffffffffff1602179055508173ffffffffffffffffffffffffffffffffffffffff168173ffffffffffffffffffffffffffffffffffffffff167f8be0079c531659141344cd1fd0a4f28419497f9722a3daafe3b4186f6b6457e060405160405180910390a35050565b6000600882901c9050600060ff83166001901b905080198460000160008481526020019081526020016000206000828254169250508190555050505050565b600033905090565b600081600001805490509050919050565b600082600001828154811061290957612908613eea565b5b9060005260206000200154905092915050565b600080836001016000848152602001908152602001600020541415905092915050565b600061294b838361291c565b6129a45782600001829080600181540180825580915050600190039060005260206000200160009091909190915055826000018054905083600101600084815260200190815260200160002081905550600190506129a9565b600090505b92915050565b60008083600101600084815260200190815260200160002054905060008114612ab75760006001826129e19190613c58565b90506000600186600001805490506129f99190613c58565b9050818114612a68576000866000018281548110612a1a57612a19613eea565b5b9060005260206000200154905080876000018481548110612a3e57612a3d613eea565b5b90600052602060002001819055508387600101600083815260200190815260200160002081905550505b85600001805480612a7c57612a7b613ebb565b5b600190038181906000526020600020016000905590558560010160008681526020019081526020016000206000905560019350505050612abd565b60009150505b92915050565b828054612acf90613d5e565b90600052602060002090601f016020900481019282612af15760008555612b38565b82601f10612b0a57805160ff1916838001178555612b38565b82800160010185558215612b38579182015b82811115612b37578251825591602001919060010190612b1c565b5b509050612b459190612b6a565b5090565b60405180606001604052806000815260200160608152602001606081525090565b5b80821115612b83576000816000905550600101612b6b565b5090565b6000612b9a612b9584613a2a565b613a05565b90508083825260208201905082856020860282011115612bbd57612bbc613f4d565b5b60005b85811015612bed5781612bd38882612d44565b845260208401935060208301925050600181019050612bc0565b5050509392505050565b6000612c0a612c0584613a56565b613a05565b905082815260208101848484011115612c2657612c25613f52565b5b612c31848285613d1c565b509392505050565b6000612c4c612c4784613a56565b613a05565b905082815260208101848484011115612c6857612c67613f52565b5b612c73848285613d2b565b509392505050565b600081359050612c8a816141f4565b92915050565b600081519050612c9f816141f4565b92915050565b600082601f830112612cba57612cb9613f48565b5b8135612cca848260208601612b87565b91505092915050565b600081519050612ce28161420b565b92915050565b600082601f830112612cfd57612cfc613f48565b5b8135612d0d848260208601612bf7565b91505092915050565b600082601f830112612d2b57612d2a613f48565b5b8151612d3b848260208601612c39565b91505092915050565b600081359050612d5381614222565b92915050565b600060208284031215612d6f57612d6e613f5c565b5b6000612d7d84828501612c7b565b91505092915050565b600060208284031215612d9c57612d9b613f5c565b5b6000612daa84828501612c90565b91505092915050565b600060208284031215612dc957612dc8613f5c565b5b6000612dd784828501612cd3565b91505092915050565b600060208284031215612df657612df5613f5c565b5b600082015167ffffffffffffffff811115612e1457612e13613f57565b5b612e2084828501612d16565b91505092915050565b600060208284031215612e3f57612e3e613f5c565b5b6000612e4d84828501612d44565b91505092915050565b60008060408385031215612e6d57612e6c613f5c565b5b6000612e7b85828601612d44565b9250506020612e8c85828601612c7b565b9150509250929050565b600080600060608486031215612eaf57612eae613f5c565b5b6000612ebd86828701612d44565b9350506020612ece86828701612c7b565b925050604084013567ffffffffffffffff811115612eef57612eee613f57565b5b612efb86828701612ca5565b9150509250925092565b60008060408385031215612f1c57612f1b613f5c565b5b6000612f2a85828601612d44565b925050602083013567ffffffffffffffff811115612f4b57612f4a613f57565b5b612f5785828601612ce8565b9150509250929050565b600080600060608486031215612f7a57612f79613f5c565b5b6000612f8886828701612d44565b935050602084013567ffffffffffffffff811115612fa957612fa8613f57565b5b612fb586828701612ce8565b925050604084013567ffffffffffffffff811115612fd657612fd5613f57565b5b612fe286828701612ca5565b9150509250925092565b60008060006060848603121561300557613004613f5c565b5b600061301386828701612d44565b935050602061302486828701612d44565b925050604084013567ffffffffffffffff81111561304557613044613f57565b5b61305186828701612ce8565b9150509250925092565b600080600080600060a0868803121561307757613076613f5c565b5b600061308588828901612d44565b955050602061309688828901612d44565b945050604086013567ffffffffffffffff8111156130b7576130b6613f57565b5b6130c388828901612ce8565b935050606086013567ffffffffffffffff8111156130e4576130e3613f57565b5b6130f088828901612ce8565b925050608086013567ffffffffffffffff81111561311157613110613f57565b5b61311d88828901612ca5565b9150509295509295909350565b6000806000806080858703121561314457613143613f5c565b5b600061315287828801612d44565b945050602061316387828801612d44565b935050604085013567ffffffffffffffff81111561318457613183613f57565b5b61319087828801612ce8565b92505060606131a187828801612d44565b91505092959194509250565b60006131b9838361321d565b60208301905092915050565b60006131d18383613456565b60208301905092915050565b60006131e98383613474565b905092915050565b60006131fd8383613678565b905092915050565b600061321183836136cf565b60208301905092915050565b61322681613c8c565b82525050565b61323581613c8c565b82525050565b61324c61324782613c8c565b613e0a565b82525050565b600061325d82613aec565b6132678185613b6f565b935061327283613a87565b8060005b838110156132a357815161328a88826131ad565b975061329583613b2e565b925050600181019050613276565b5085935050505092915050565b60006132bb82613af7565b6132c58185613b80565b93506132d083613a97565b8060005b838110156133015781516132e888826131c5565b97506132f383613b3b565b9250506001810190506132d4565b5085935050505092915050565b600061331982613b02565b6133238185613b91565b93508360208202850161333585613aa7565b8060005b85811015613371578484038952815161335285826131dd565b945061335d83613b48565b925060208a01995050600181019050613339565b50829750879550505050505092915050565b600061338e82613b0d565b6133988185613ba2565b9350836020820285016133aa85613ab7565b8060005b858110156133e657848403895281516133c785826131f1565b94506133d283613b55565b925060208a019950506001810190506133ae565b50829750879550505050505092915050565b600061340382613b18565b61340d8185613bb3565b935061341883613ac7565b8060005b838110156134495781516134308882613205565b975061343b83613b62565b92505060018101905061341c565b5085935050505092915050565b61345f81613c9e565b82525050565b61346e81613c9e565b82525050565b600061347f82613b23565b6134898185613bc4565b9350613499818560208601613d2b565b6134a281613f61565b840191505092915050565b60006134b882613b23565b6134c28185613bd5565b93506134d2818560208601613d2b565b6134db81613f61565b840191505092915050565b600081546134f381613d5e565b6134fd8186613be6565b9450600182166000811461351857600181146135295761355c565b60ff1983168652818601935061355c565b61353285613ad7565b60005b8381101561355457815481890152600182019150602081019050613535565b838801955050505b50505092915050565b61356e81613cd4565b82525050565b61357d81613ce6565b82525050565b6000613590602683613bf1565b915061359b82613f7f565b604082019050919050565b60006135b3604283613bf1565b91506135be82613fce565b606082019050919050565b60006135d6604683613bf1565b91506135e182614043565b606082019050919050565b60006135f9603d83613bf1565b9150613604826140b8565b604082019050919050565b600061361c602083613bf1565b915061362782614107565b602082019050919050565b600061363f604683613bf1565b915061364a82614130565b606082019050919050565b6000613662604083613bf1565b915061366d826141a5565b604082019050919050565b600060608301600083015161369060008601826136cf565b50602083015184820360208601526136a88282613474565b915050604083015184820360408601526136c28282613474565b9150508091505092915050565b6136d881613cca565b82525050565b6136e781613cca565b82525050565b60006136f9828461323b565b60148201915081905092915050565b600061371482846134e6565b915081905092915050565b6000602082019050613734600083018461322c565b92915050565b600060208201905081810360008301526137548184613252565b905092915050565b6000602082019050818103600083015261377681846132b0565b905092915050565b60006020820190508181036000830152613798818461330e565b905092915050565b600060208201905081810360008301526137ba8184613383565b905092915050565b600060208201905081810360008301526137dc81846133f8565b905092915050565b60006020820190506137f96000830184613465565b92915050565b6000602082019050818103600083015261381981846134ad565b905092915050565b60006020820190506138366000830184613565565b92915050565b60006020820190506138516000830184613574565b92915050565b6000602082019050818103600083015261387081613583565b9050919050565b60006020820190508181036000830152613890816135a6565b9050919050565b600060208201905081810360008301526138b0816135c9565b9050919050565b600060208201905081810360008301526138d0816135ec565b9050919050565b600060208201905081810360008301526138f08161360f565b9050919050565b6000602082019050818103600083015261391081613632565b9050919050565b6000602082019050818103600083015261393081613655565b9050919050565b600060208201905061394c60008301846136de565b92915050565b600060408201905061396760008301856136de565b818103602083015261397981846134ad565b90509392505050565b600060608201905061399760008301866136de565b81810360208301526139a981856134ad565b905081810360408301526139bd81846134ad565b9050949350505050565b60006060820190506139dc60008301866136de565b81810360208301526139ee81856134ad565b90506139fd60408301846136de565b949350505050565b6000613a0f613a20565b9050613a1b8282613d90565b919050565b6000604051905090565b600067ffffffffffffffff821115613a4557613a44613f19565b5b602082029050602081019050919050565b600067ffffffffffffffff821115613a7157613a70613f19565b5b613a7a82613f61565b9050602081019050919050565b6000819050602082019050919050565b6000819050602082019050919050565b6000819050602082019050919050565b6000819050602082019050919050565b6000819050602082019050919050565b60008190508160005260206000209050919050565b600081519050919050565b600081519050919050565b600081519050919050565b600081519050919050565b600081519050919050565b600081519050919050565b6000602082019050919050565b6000602082019050919050565b6000602082019050919050565b6000602082019050919050565b6000602082019050919050565b600082825260208201905092915050565b600082825260208201905092915050565b600082825260208201905092915050565b600082825260208201905092915050565b600082825260208201905092915050565b600082825260208201905092915050565b600082825260208201905092915050565b600081905092915050565b600082825260208201905092915050565b6000613c0d82613cca565b9150613c1883613cca565b9250827fffffffffffffffffffffffffffffffffffffffffffffffffffffffffffffffff03821115613c4d57613c4c613e2e565b5b828201905092915050565b6000613c6382613cca565b9150613c6e83613cca565b925082821015613c8157613c80613e2e565b5b828203905092915050565b6000613c9782613caa565b9050919050565b60008115159050919050565b600073ffffffffffffffffffffffffffffffffffffffff82169050919050565b6000819050919050565b6000613cdf82613cf8565b9050919050565b6000613cf182613cf8565b9050919050565b6000613d0382613d0a565b9050919050565b6000613d1582613caa565b9050919050565b82818337600083830152505050565b60005b83811015613d49578082015181840152602081019050613d2e565b83811115613d58576000848401525b50505050565b60006002820490506001821680613d7657607f821691505b60208210811415613d8a57613d89613e8c565b5b50919050565b613d9982613f61565b810181811067ffffffffffffffff82111715613db857613db7613f19565b5b80604052505050565b6000613dcc82613cca565b91507fffffffffffffffffffffffffffffffffffffffffffffffffffffffffffffffff821415613dff57613dfe613e2e565b5b600182019050919050565b6000613e1582613e1c565b9050919050565b6000613e2782613f72565b9050919050565b7f4e487b7100000000000000000000000000000000000000000000000000000000600052601160045260246000fd5b7f4e487b7100000000000000000000000000000000000000000000000000000000600052602160045260246000fd5b7f4e487b7100000000000000000000000000000000000000000000000000000000600052602260045260246000fd5b7f4e487b7100000000000000000000000000000000000000000000000000000000600052603160045260246000fd5b7f4e487b7100000000000000000000000000000000000000000000000000000000600052603260045260246000fd5b7f4e487b7100000000000000000000000000000000000000000000000000000000600052604160045260246000fd5b600080fd5b600080fd5b600080fd5b600080fd5b600080fd5b6000601f19601f8301169050919050565b60008160601b9050919050565b7f4f776e61626c653a206e6577206f776e657220697320746865207a65726f206160008201527f6464726573730000000000000000000000000000000000000000000000000000602082015250565b7f43616e6e6f7420616464206120646966666572656e74207075626b657920666f60008201527f72207468652073616d652061757468206d6574686f64207479706520616e642060208201527f6964000000000000000000000000000000000000000000000000000000000000604082015250565b7f4f6e6c792074686520504b50204e4654206f776e65722063616e20616464206160008201527f6e642072656d6f7665207065726d69747465642061757468206d6574686f642060208201527f73636f7065640000000000000000000000000000000000000000000000000000604082015250565b7f4f6e6c792074686520504b50204e4654206f776e65722063616e20616464206160008201527f6e642072656d6f7665207065726d697474656420616464726573736573000000602082015250565b7f4f776e61626c653a2063616c6c6572206973206e6f7420746865206f776e6572600082015250565b7f4f6e6c792074686520504b50204e4654206f776e65722063616e20616464206160008201527f6e642072656d6f7665207065726d69747465642061757468206d6574686f642060208201527f73636f7065730000000000000000000000000000000000000000000000000000604082015250565b7f4f6e6c792074686520504b50204e4654206f776e65722063616e20616464206160008201527f6e642072656d6f7665207065726d69747465642061757468206d6574686f6473602082015250565b6141fd81613c8c565b811461420857600080fd5b50565b61421481613c9e565b811461421f57600080fd5b50565b61422b81613cca565b811461423657600080fd5b5056fea2646970667358221220765542b42530860a9a0bcee1a0501d2fc56de0503f3aa6b07f4778958f1180db64736f6c63430008070033","abi":[{"inputs":[{"internalType":"address","name":"_pkpNft","type":"address"},{"internalType":"address","name":"_router","type":"address"}],"stateMutability":"nonpayable","type":"constructor"},{"anonymous":false,"inputs":[{"indexed":true,"internalType":"address","name":"previousOwner","type":"address"},{"indexed":true,"internalType":"address","name":"newOwner","type":"address"}],"name":"OwnershipTransferred","type":"event"},{"anonymous":false,"inputs":[{"indexed":true,"internalType":"uint256","name":"tokenId","type":"uint256"},{"indexed":false,"internalType":"uint256","name":"authMethodType","type":"uint256"},{"indexed":false,"internalType":"bytes","name":"id","type":"bytes"},{"indexed":false,"internalType":"bytes","name":"userPubkey","type":"bytes"}],"name":"PermittedAuthMethodAdded","type":"event"},{"anonymous":false,"inputs":[{"indexed":true,"internalType":"uint256","name":"tokenId","type":"uint256"},{"indexed":false,"internalType":"uint256","name":"authMethodType","type":"uint256"},{"indexed":false,"internalType":"bytes","name":"id","type":"bytes"}],"name":"PermittedAuthMethodRemoved","type":"event"},{"anonymous":false,"inputs":[{"indexed":true,"internalType":"uint256","name":"tokenId","type":"uint256"},{"indexed":false,"internalType":"uint256","name":"authMethodType","type":"uint256"},{"indexed":false,"internalType":"bytes","name":"id","type":"bytes"},{"indexed":false,"internalType":"uint256","name":"scopeId","type":"uint256"}],"name":"PermittedAuthMethodScopeAdded","type":"event"},{"anonymous":false,"inputs":[{"indexed":true,"internalType":"uint256","name":"tokenId","type":"uint256"},{"indexed":false,"internalType":"uint256","name":"authMethodType","type":"uint256"},{"indexed":false,"internalType":"bytes","name":"id","type":"bytes"},{"indexed":false,"internalType":"uint256","name":"scopeId","type":"uint256"}],"name":"PermittedAuthMethodScopeRemoved","type":"event"},{"inputs":[{"internalType":"uint256","name":"tokenId","type":"uint256"},{"internalType":"bytes","name":"ipfsCID","type":"bytes"},{"internalType":"uint256[]","name":"scopes","type":"uint256[]"}],"name":"addPermittedAction","outputs":[],"stateMutability":"nonpayable","type":"function"},{"inputs":[{"internalType":"uint256","name":"tokenId","type":"uint256"},{"internalType":"address","name":"user","type":"address"},{"internalType":"uint256[]","name":"scopes","type":"uint256[]"}],"name":"addPermittedAddress","outputs":[],"stateMutability":"nonpayable","type":"function"},{"inputs":[{"internalType":"uint256","name":"tokenId","type":"uint256"},{"internalType":"uint256","name":"authMethodType","type":"uint256"},{"internalType":"bytes","name":"id","type":"bytes"},{"internalType":"bytes","name":"userPubkey","type":"bytes"},{"internalType":"uint256[]","name":"scopes","type":"uint256[]"}],"name":"addPermittedAuthMethod","outputs":[],"stateMutability":"nonpayable","type":"function"},{"inputs":[{"internalType":"uint256","name":"tokenId","type":"uint256"},{"internalType":"uint256","name":"authMethodType","type":"uint256"},{"internalType":"bytes","name":"id","type":"bytes"},{"internalType":"uint256","name":"scopeId","type":"uint256"}],"name":"addPermittedAuthMethodScope","outputs":[],"stateMutability":"nonpayable","type":"function"},{"inputs":[{"internalType":"uint256","name":"","type":"uint256"}],"name":"authMethods","outputs":[{"internalType":"uint256","name":"authMethodType","type":"uint256"},{"internalType":"bytes","name":"id","type":"bytes"},{"internalType":"bytes","name":"userPubkey","type":"bytes"}],"stateMutability":"view","type":"function"},{"inputs":[{"internalType":"uint256","name":"authMethodType","type":"uint256"},{"internalType":"bytes","name":"id","type":"bytes"}],"name":"getAuthMethodId","outputs":[{"internalType":"uint256","name":"","type":"uint256"}],"stateMutability":"pure","type":"function"},{"inputs":[{"internalType":"uint256","name":"tokenId","type":"uint256"}],"name":"getEthAddress","outputs":[{"internalType":"address","name":"","type":"address"}],"stateMutability":"view","type":"function"},{"inputs":[{"internalType":"uint256","name":"tokenId","type":"uint256"}],"name":"getPermittedActions","outputs":[{"internalType":"bytes[]","name":"","type":"bytes[]"}],"stateMutability":"view","type":"function"},{"inputs":[{"internalType":"uint256","name":"tokenId","type":"uint256"}],"name":"getPermittedAddresses","outputs":[{"internalType":"address[]","name":"","type":"address[]"}],"stateMutability":"view","type":"function"},{"inputs":[{"internalType":"uint256","name":"tokenId","type":"uint256"},{"internalType":"uint256","name":"authMethodType","type":"uint256"},{"internalType":"bytes","name":"id","type":"bytes"},{"internalType":"uint256","name":"maxScopeId","type":"uint256"}],"name":"getPermittedAuthMethodScopes","outputs":[{"internalType":"bool[]","name":"","type":"bool[]"}],"stateMutability":"view","type":"function"},{"inputs":[{"internalType":"uint256","name":"tokenId","type":"uint256"}],"name":"getPermittedAuthMethods","outputs":[{"components":[{"internalType":"uint256","name":"authMethodType","type":"uint256"},{"internalType":"bytes","name":"id","type":"bytes"},{"internalType":"bytes","name":"userPubkey","type":"bytes"}],"internalType":"struct PKPPermissions.AuthMethod[]","name":"","type":"tuple[]"}],"stateMutability":"view","type":"function"},{"inputs":[{"internalType":"uint256","name":"tokenId","type":"uint256"}],"name":"getPubkey","outputs":[{"internalType":"bytes","name":"","type":"bytes"}],"stateMutability":"view","type":"function"},{"inputs":[{"internalType":"uint256","name":"authMethodType","type":"uint256"},{"internalType":"bytes","name":"id","type":"bytes"}],"name":"getTokenIdsForAuthMethod","outputs":[{"internalType":"uint256[]","name":"","type":"uint256[]"}],"stateMutability":"view","type":"function"},{"inputs":[{"internalType":"uint256","name":"authMethodType","type":"uint256"},{"internalType":"bytes","name":"id","type":"bytes"}],"name":"getUserPubkeyForAuthMethod","outputs":[{"internalType":"bytes","name":"","type":"bytes"}],"stateMutability":"view","type":"function"},{"inputs":[{"internalType":"uint256","name":"tokenId","type":"uint256"},{"internalType":"bytes","name":"ipfsCID","type":"bytes"}],"name":"isPermittedAction","outputs":[{"internalType":"bool","name":"","type":"bool"}],"stateMutability":"view","type":"function"},{"inputs":[{"internalType":"uint256","name":"tokenId","type":"uint256"},{"internalType":"address","name":"user","type":"address"}],"name":"isPermittedAddress","outputs":[{"internalType":"bool","name":"","type":"bool"}],"stateMutability":"view","type":"function"},{"inputs":[{"internalType":"uint256","name":"tokenId","type":"uint256"},{"internalType":"uint256","name":"authMethodType","type":"uint256"},{"internalType":"bytes","name":"id","type":"bytes"}],"name":"isPermittedAuthMethod","outputs":[{"internalType":"bool","name":"","type":"bool"}],"stateMutability":"view","type":"function"},{"inputs":[{"internalType":"uint256","name":"tokenId","type":"uint256"},{"internalType":"uint256","name":"authMethodType","type":"uint256"},{"internalType":"bytes","name":"id","type":"bytes"},{"internalType":"uint256","name":"scopeId","type":"uint256"}],"name":"isPermittedAuthMethodScopePresent","outputs":[{"internalType":"bool","name":"","type":"bool"}],"stateMutability":"view","type":"function"},{"inputs":[],"name":"owner","outputs":[{"internalType":"address","name":"","type":"address"}],"stateMutability":"view","type":"function"},{"inputs":[],"name":"pkpNFT","outputs":[{"internalType":"contract PKPNFT","name":"","type":"address"}],"stateMutability":"view","type":"function"},{"inputs":[{"internalType":"uint256","name":"tokenId","type":"uint256"},{"internalType":"bytes","name":"ipfsCID","type":"bytes"}],"name":"removePermittedAction","outputs":[],"stateMutability":"nonpayable","type":"function"},{"inputs":[{"internalType":"uint256","name":"tokenId","type":"uint256"},{"internalType":"address","name":"user","type":"address"}],"name":"removePermittedAddress","outputs":[],"stateMutability":"nonpayable","type":"function"},{"inputs":[{"internalType":"uint256","name":"tokenId","type":"uint256"},{"internalType":"uint256","name":"authMethodType","type":"uint256"},{"internalType":"bytes","name":"id","type":"bytes"}],"name":"removePermittedAuthMethod","outputs":[],"stateMutability":"nonpayable","type":"function"},{"inputs":[{"internalType":"uint256","name":"tokenId","type":"uint256"},{"internalType":"uint256","name":"authMethodType","type":"uint256"},{"internalType":"bytes","name":"id","type":"bytes"},{"internalType":"uint256","name":"scopeId","type":"uint256"}],"name":"removePermittedAuthMethodScope","outputs":[],"stateMutability":"nonpayable","type":"function"},{"inputs":[],"name":"renounceOwnership","outputs":[],"stateMutability":"nonpayable","type":"function"},{"inputs":[],"name":"router","outputs":[{"internalType":"contract PubkeyRouter","name":"","type":"address"}],"stateMutability":"view","type":"function"},{"inputs":[{"internalType":"address","name":"newPkpNftAddress","type":"address"}],"name":"setPkpNftAddress","outputs":[],"stateMutability":"nonpayable","type":"function"},{"inputs":[{"internalType":"address","name":"newRouterAddress","type":"address"}],"name":"setRouterAddress","outputs":[],"stateMutability":"nonpayable","type":"function"},{"inputs":[{"internalType":"address","name":"newOwner","type":"address"}],"name":"transferOwnership","outputs":[],"stateMutability":"nonpayable","type":"function"}]}