{"address":"0xc08f1fA2E47Ba27898B04a4BC7290Cf99a7Fde13","bytecode":"0x60806040523480156200001157600080fd5b50604051620051dc380380620051dc833981810160405281019062000037919062000217565b620000576200004b620000e160201b60201c565b620000e960201b60201c565b81600160006101000a81548173ffffffffffffffffffffffffffffffffffffffff021916908373ffffffffffffffffffffffffffffffffffffffff16021790555080600260006101000a81548173ffffffffffffffffffffffffffffffffffffffff021916908373ffffffffffffffffffffffffffffffffffffffff16021790555050506200025e565b600033905090565b60008060009054906101000a900473ffffffffffffffffffffffffffffffffffffffff169050816000806101000a81548173ffffffffffffffffffffffffffffffffffffffff021916908373ffffffffffffffffffffffffffffffffffffffff1602179055508173ffffffffffffffffffffffffffffffffffffffff168173ffffffffffffffffffffffffffffffffffffffff167f8be0079c531659141344cd1fd0a4f28419497f9722a3daafe3b4186f6b6457e060405160405180910390a35050565b600080fd5b600073ffffffffffffffffffffffffffffffffffffffff82169050919050565b6000620001df82620001b2565b9050919050565b620001f181620001d2565b8114620001fd57600080fd5b50565b6000815190506200021181620001e6565b92915050565b60008060408385031215620002315762000230620001ad565b5b6000620002418582860162000200565b9250506020620002548582860162000200565b9150509250929050565b614f6e806200026e6000396000f3fe608060405234801561001057600080fd5b50600436106101ed5760003560e01c80638a4315781161010f578063bd4986a0116100a2578063f34f21ba11610071578063f34f21ba1461060c578063f887ea401461063c578063fceb39831461065a578063ffa2e9531461068a576101ed565b8063bd4986a014610574578063d41a3272146105a4578063ef6fd878146105c0578063f2fde38b146105f0576101ed565b8063a1c805fa116100de578063a1c805fa146104c8578063abc541ae146104f8578063b997606f14610528578063bb7a107014610544576101ed565b80638a431578146104425780638da5cb5b1461045e5780639dd4349b1461047c578063a1afdc6f14610498576101ed565b80635521c452116101875780636821c8e2116101565780636821c8e2146103d0578063715018a6146103ec57806378c49efa146103f65780638255956114610426576101ed565b80635521c45214610338578063557b5eba1461036857806366fc6541146103985780636705c6f2146103b4576101ed565b8063176354fd116101c3578063176354fd1461029e5780632657768b146102ba57806341cb87fc146102ec57806345b72bde14610308576101ed565b80618b4f146101f2578062221c08146102225780630a60950d146102525780631663c12114610282575b600080fd5b61020c600480360381019061020791906133cb565b6106a8565b6040516102199190613426565b60405180910390f35b61023c600480360381019061023791906134a6565b6107c0565b60405161024991906135ec565b60405180910390f35b61026c6004803603810190610267919061374f565b6108ef565b60405161027991906137ba565b60405180910390f35b61029c6004803603810190610297919061382b565b610925565b005b6102b860048036038101906102b3919061389f565b610992565b005b6102d460048036038101906102cf91906138cc565b6109de565b6040516102e393929190613978565b60405180910390f35b6103066004803603810190610301919061389f565b610b18565b005b610322600480360381019061031d9190613ab6565b610b64565b60405161032f9190613426565b60405180910390f35b610352600480360381019061034d9190613b39565b610bb9565b60405161035f9190613c57565b60405180910390f35b610382600480360381019061037d9190613c79565b610ce9565b60405161038f9190613426565b60405180910390f35b6103b260048036038101906103ad9190613c79565b610d3f565b005b6103ce60048036038101906103c99190613ce8565b610ef6565b005b6103ea60048036038101906103e591906134a6565b61106e565b005b6103f461124d565b005b610410600480360381019061040b9190613e2a565b611261565b60405161041d9190613426565b60405180910390f35b610440600480360381019061043b91906134a6565b6112b8565b005b61045c60048036038101906104579190613ef9565b611497565b005b61046661152a565b6040516104739190613f9d565b60405180910390f35b6104966004803603810190610491919061405e565b611553565b005b6104b260048036038101906104ad9190613b39565b6118c9565b6040516104bf91906140ee565b60405180910390f35b6104e260048036038101906104dd91906134a6565b611a7d565b6040516104ef9190613426565b60405180910390f35b610512600480360381019061050d91906138cc565b611b18565b60405161051f91906141ce565b60405180910390f35b610542600480360381019061053d91906133cb565b612195565b005b61055e600480360381019061055991906138cc565b6121d6565b60405161056b91906142fc565b60405180910390f35b61058e600480360381019061058991906138cc565b612608565b60405161059b9190613f9d565b60405180910390f35b6105be60048036038101906105b99190613b39565b6126ad565b005b6105da60048036038101906105d591906138cc565b612714565b6040516105e791906140ee565b60405180910390f35b61060a6004803603810190610605919061389f565b6127be565b005b610626600480360381019061062191906138cc565b612841565b6040516106339190614437565b60405180910390f35b610644612a77565b60405161065191906144b8565b60405180910390f35b610674600480360381019061066f9190613b39565b612a9d565b6040516106819190613426565b60405180910390f35b610692612b0a565b60405161069f91906144f4565b60405180910390f35b60006106e783600160068111156106c2576106c161450f565b5b846040516020016106d39190614586565b604051602081830303815290604052610ce9565b806107b857508173ffffffffffffffffffffffffffffffffffffffff16600160009054906101000a900473ffffffffffffffffffffffffffffffffffffffff1673ffffffffffffffffffffffffffffffffffffffff16636352211e856040518263ffffffff1660e01b815260040161075f91906137ba565b602060405180830381865afa15801561077c573d6000803e3d6000fd5b505050506040513d601f19601f820116820180604052508101906107a091906145b6565b73ffffffffffffffffffffffffffffffffffffffff16145b905092915050565b606060006108128686868080601f016020809104026020016040519081016040528093929190818152602001838380828437600081840152601f19601f820116905080830192505050505050506108ef565b90506000600460008981526020019081526020016000206000838152602001908152602001600020905060008467ffffffffffffffff81111561085857610857613624565b5b6040519080825280602002602001820160405280156108865781602001602082028036833780820191505090505b50905060005b858110156108df576108a78184612b3090919063ffffffff16565b8282815181106108ba576108b96145e3565b5b60200260200101901515908115158152505080806108d790614641565b91505061088c565b5080935050505095945050505050565b60008282604051602001610904929190614689565b6040516020818303038152906040528051906020012060001c905092915050565b61098c846040518060600160405280600160068111156109485761094761450f565b5b81526020018660405160200161095e9190614586565b6040516020818303038152906040528152602001604051806020016040528060008152508152508484611553565b50505050565b61099a612b6c565b80600160006101000a81548173ffffffffffffffffffffffffffffffffffffffff021916908373ffffffffffffffffffffffffffffffffffffffff16021790555050565b6005602052806000526040600020600091509050806000015490806001018054610a07906146e8565b80601f0160208091040260200160405190810160405280929190818152602001828054610a33906146e8565b8015610a805780601f10610a5557610100808354040283529160200191610a80565b820191906000526020600020905b815481529060010190602001808311610a6357829003601f168201915b505050505090806002018054610a95906146e8565b80601f0160208091040260200160405190810160405280929190818152602001828054610ac1906146e8565b8015610b0e5780601f10610ae357610100808354040283529160200191610b0e565b820191906000526020600020905b815481529060010190602001808311610af157829003601f168201915b5050505050905083565b610b20612b6c565b80600260006101000a81548173ffffffffffffffffffffffffffffffffffffffff021916908373ffffffffffffffffffffffffffffffffffffffff16021790555050565b6000806007600087815260200190815260200160002060008681526020019081526020016000205490506000801b8103610ba2576000915050610bb1565b610bad848285612bea565b9150505b949350505050565b60606000610c0b8585858080601f016020809104026020016040519081016040528093929190818152602001838380828437600081840152601f19601f820116905080830192505050505050506108ef565b90506000610c2a60066000848152602001908152602001600020612c01565b905060008167ffffffffffffffff811115610c4857610c47613624565b5b604051908082528060200260200182016040528015610c765781602001602082028036833780820191505090505b50905060005b82811015610cdb57610ca98160066000878152602001908152602001600020612c1690919063ffffffff16565b828281518110610cbc57610cbb6145e3565b5b6020026020010181815250508080610cd390614641565b915050610c7c565b508093505050509392505050565b600080610cf684846108ef565b90506000610d1f8260036000898152602001908152602001600020612c3090919063ffffffff16565b905080610d3157600092505050610d38565b6001925050505b9392505050565b826000600160009054906101000a900473ffffffffffffffffffffffffffffffffffffffff1673ffffffffffffffffffffffffffffffffffffffff16636352211e836040518263ffffffff1660e01b8152600401610d9d91906137ba565b602060405180830381865afa158015610dba573d6000803e3d6000fd5b505050506040513d601f19601f82011682018060405250810190610dde91906145b6565b90508073ffffffffffffffffffffffffffffffffffffffff163373ffffffffffffffffffffffffffffffffffffffff1614610e4e576040517f08c379a0000000000000000000000000000000000000000000000000000000008152600401610e4590614776565b60405180910390fd5b6000610e5a85856108ef565b90506000600360008881526020019081526020016000209050610e868282612c4a90919063ffffffff16565b506000600660008481526020019081526020016000209050610eb18882612c4a90919063ffffffff16565b50877f9830658acd6a41f1cb12b425ed83cb2b8ccbfa753337cd13be80be51fc3f33738488604051610ee4929190614689565b60405180910390a25050505050505050565b826000600160009054906101000a900473ffffffffffffffffffffffffffffffffffffffff1673ffffffffffffffffffffffffffffffffffffffff16636352211e836040518263ffffffff1660e01b8152600401610f5491906137ba565b602060405180830381865afa158015610f71573d6000803e3d6000fd5b505050506040513d601f19601f82011682018060405250810190610f9591906145b6565b90508073ffffffffffffffffffffffffffffffffffffffff163373ffffffffffffffffffffffffffffffffffffffff1614611005576040517f08c379a0000000000000000000000000000000000000000000000000000000008152600401610ffc90614776565b60405180910390fd5b826007600087815260200190815260200160002060008681526020019081526020016000208190555083857fd4beb656267200ccd79d73dbdfbad162c213e10ebad16508f22cb4df8d3259ad8560405161105f91906147a5565b60405180910390a35050505050565b846000600160009054906101000a900473ffffffffffffffffffffffffffffffffffffffff1673ffffffffffffffffffffffffffffffffffffffff16636352211e836040518263ffffffff1660e01b81526004016110cc91906137ba565b602060405180830381865afa1580156110e9573d6000803e3d6000fd5b505050506040513d601f19601f8201168201806040525081019061110d91906145b6565b90508073ffffffffffffffffffffffffffffffffffffffff163373ffffffffffffffffffffffffffffffffffffffff161461117d576040517f08c379a000000000000000000000000000000000000000000000000000000000815260040161117490614776565b60405180910390fd5b60006111cd8787878080601f016020809104026020016040519081016040528093929190818152602001838380828437600081840152601f19601f820116905080830192505050505050506108ef565b905061120584600460008b81526020019081526020016000206000848152602001908152602001600020612c6490919063ffffffff16565b877f29eb060f266aff306ec81b612728a417406dd6298f8f7576a37b4e6830dcc60e8288888860405161123b94939291906147ed565b60405180910390a25050505050505050565b611255612b6c565b61125f6000612ca2565b565b6000806007600088815260200190815260200160002060008781526020019081526020016000205490506000801b810361129f5760009150506112af565b6112ab85858386612d66565b9150505b95945050505050565b846000600160009054906101000a900473ffffffffffffffffffffffffffffffffffffffff1673ffffffffffffffffffffffffffffffffffffffff16636352211e836040518263ffffffff1660e01b815260040161131691906137ba565b602060405180830381865afa158015611333573d6000803e3d6000fd5b505050506040513d601f19601f8201168201806040525081019061135791906145b6565b90508073ffffffffffffffffffffffffffffffffffffffff163373ffffffffffffffffffffffffffffffffffffffff16146113c7576040517f08c379a00000000000000000000000000000000000000000000000000000000081526004016113be90614776565b60405180910390fd5b60006114178787878080601f016020809104026020016040519081016040528093929190818152602001838380828437600081840152601f19601f820116905080830192505050505050506108ef565b905061144f84600460008b81526020019081526020016000206000848152602001908152602001600020612d7f90919063ffffffff16565b877f49bb3a0761ed218e1db1e9c41096ed35188868994cc37a32e1f25855745b424e8888888860405161148594939291906147ed565b60405180910390a25050505050505050565b611523856040518060600160405280600260068111156114ba576114b961450f565b5b815260200187878080601f016020809104026020016040519081016040528093929190818152602001838380828437600081840152601f19601f820116905080830192505050505050508152602001604051806020016040528060008152508152508484611553565b5050505050565b60008060009054906101000a900473ffffffffffffffffffffffffffffffffffffffff16905090565b836000600160009054906101000a900473ffffffffffffffffffffffffffffffffffffffff1673ffffffffffffffffffffffffffffffffffffffff16636352211e836040518263ffffffff1660e01b81526004016115b191906137ba565b602060405180830381865afa1580156115ce573d6000803e3d6000fd5b505050506040513d601f19601f820116820180604052508101906115f291906145b6565b90508073ffffffffffffffffffffffffffffffffffffffff163373ffffffffffffffffffffffffffffffffffffffff1614611662576040517f08c379a000000000000000000000000000000000000000000000000000000000815260040161165990614776565b60405180910390fd5b6000611676866000015187602001516108ef565b9050600060056000838152602001908152602001600020600201805461169b906146e8565b905014806116dd5750856040015180519060200120600560008381526020019081526020016000206002016040516116d391906148d0565b6040518091039020145b61171c576040517f08c379a00000000000000000000000000000000000000000000000000000000081526004016117139061497f565b60405180910390fd5b856005600083815260200190815260200160002060008201518160000155602082015181600101908161174f9190614b2c565b5060408201518160020190816117659190614b2c565b5090505060006003600089815260200190815260200160002090506117938282612dbe90919063ffffffff16565b5060006006600084815260200190815260200160002090506117be8982612dbe90919063ffffffff16565b5060005b878790508110156118755760008888838181106117e2576117e16145e3565b5b90506020020135905061182181600460008e81526020019081526020016000206000888152602001908152602001600020612c6490919063ffffffff16565b8a7f29eb060f266aff306ec81b612728a417406dd6298f8f7576a37b4e6830dcc60e868c602001518460405161185993929190614bfe565b60405180910390a250808061186d90614641565b9150506117c2565b50887fd7db314a62650aaa1b15d4bb5c95c558a03cde3ee7f36e144b73126a3a8e839a89600001518a602001518b604001516040516118b693929190613978565b60405180910390a2505050505050505050565b6060600061191b8585858080601f016020809104026020016040519081016040528093929190818152602001838380828437600081840152601f19601f820116905080830192505050505050506108ef565b905060006005600083815260200190815260200160002060405180606001604052908160008201548152602001600182018054611957906146e8565b80601f0160208091040260200160405190810160405280929190818152602001828054611983906146e8565b80156119d05780601f106119a5576101008083540402835291602001916119d0565b820191906000526020600020905b8154815290600101906020018083116119b357829003601f168201915b505050505081526020016002820180546119e9906146e8565b80601f0160208091040260200160405190810160405280929190818152602001828054611a15906146e8565b8015611a625780601f10611a3757610100808354040283529160200191611a62565b820191906000526020600020905b815481529060010190602001808311611a4557829003601f168201915b50505050508152505090508060400151925050509392505050565b600080611ace8686868080601f016020809104026020016040519081016040528093929190818152602001838380828437600081840152601f19601f820116905080830192505050505050506108ef565b90506000611b0884600460008b81526020019081526020016000206000858152602001908152602001600020612b3090919063ffffffff16565b9050809250505095945050505050565b60606000611b3760036000858152602001908152602001600020612c01565b90506000805b82811015611d00576000611b6c8260036000898152602001908152602001600020612c1690919063ffffffff16565b905060006005600083815260200190815260200160002060405180606001604052908160008201548152602001600182018054611ba8906146e8565b80601f0160208091040260200160405190810160405280929190818152602001828054611bd4906146e8565b8015611c215780601f10611bf657610100808354040283529160200191611c21565b820191906000526020600020905b815481529060010190602001808311611c0457829003601f168201915b50505050508152602001600282018054611c3a906146e8565b80601f0160208091040260200160405190810160405280929190818152602001828054611c66906146e8565b8015611cb35780601f10611c8857610100808354040283529160200191611cb3565b820191906000526020600020905b815481529060010190602001808311611c9657829003601f168201915b505050505081525050905060016006811115611cd257611cd161450f565b5b816000015103611ceb578380611ce790614641565b9450505b50508080611cf890614641565b915050611b3d565b506000600160009054906101000a900473ffffffffffffffffffffffffffffffffffffffff1673ffffffffffffffffffffffffffffffffffffffff16634f558e79866040518263ffffffff1660e01b8152600401611d5e91906137ba565b602060405180830381865afa158015611d7b573d6000803e3d6000fd5b505050506040513d601f19601f82011682018060405250810190611d9f9190614c51565b9050606060008215611f0557600184611db89190614c7e565b67ffffffffffffffff811115611dd157611dd0613624565b5b604051908082528060200260200182016040528015611dff5781602001602082028036833780820191505090505b5091506000600160009054906101000a900473ffffffffffffffffffffffffffffffffffffffff1673ffffffffffffffffffffffffffffffffffffffff16636352211e896040518263ffffffff1660e01b8152600401611e5f91906137ba565b602060405180830381865afa158015611e7c573d6000803e3d6000fd5b505050506040513d601f19601f82011682018060405250810190611ea091906145b6565b90508083600081518110611eb757611eb66145e3565b5b602002602001019073ffffffffffffffffffffffffffffffffffffffff16908173ffffffffffffffffffffffffffffffffffffffff16815250508180611efc90614641565b92505050611f51565b8367ffffffffffffffff811115611f1f57611f1e613624565b5b604051908082528060200260200182016040528015611f4d5781602001602082028036833780820191505090505b5091505b60005b85811015612187576000611f8382600360008c8152602001908152602001600020612c1690919063ffffffff16565b905060006005600083815260200190815260200160002060405180606001604052908160008201548152602001600182018054611fbf906146e8565b80601f0160208091040260200160405190810160405280929190818152602001828054611feb906146e8565b80156120385780601f1061200d57610100808354040283529160200191612038565b820191906000526020600020905b81548152906001019060200180831161201b57829003601f168201915b50505050508152602001600282018054612051906146e8565b80601f016020809104026020016040519081016040528092919081815260200182805461207d906146e8565b80156120ca5780601f1061209f576101008083540402835291602001916120ca565b820191906000526020600020905b8154815290600101906020018083116120ad57829003601f168201915b5050505050815250509050600160068111156120e9576120e861450f565b5b81600001510361217257600080826020015190506c01000000000000000000000000602082015104915081878781518110612127576121266145e3565b5b602002602001019073ffffffffffffffffffffffffffffffffffffffff16908173ffffffffffffffffffffffffffffffffffffffff1681525050858061216c90614641565b96505050505b5050808061217f90614641565b915050611f54565b508195505050505050919050565b6121d282600160068111156121ad576121ac61450f565b5b836040516020016121be9190614586565b604051602081830303815290604052610d3f565b5050565b606060006121f560036000858152602001908152602001600020612c01565b90506000805b828110156123be57600061222a8260036000898152602001908152602001600020612c1690919063ffffffff16565b905060006005600083815260200190815260200160002060405180606001604052908160008201548152602001600182018054612266906146e8565b80601f0160208091040260200160405190810160405280929190818152602001828054612292906146e8565b80156122df5780601f106122b4576101008083540402835291602001916122df565b820191906000526020600020905b8154815290600101906020018083116122c257829003601f168201915b505050505081526020016002820180546122f8906146e8565b80601f0160208091040260200160405190810160405280929190818152602001828054612324906146e8565b80156123715780601f1061234657610100808354040283529160200191612371565b820191906000526020600020905b81548152906001019060200180831161235457829003601f168201915b5050505050815250509050600260068111156123905761238f61450f565b5b8160000151036123a95783806123a590614641565b9450505b505080806123b690614641565b9150506121fb565b5060008167ffffffffffffffff8111156123db576123da613624565b5b60405190808252806020026020018201604052801561240e57816020015b60608152602001906001900390816123f95790505b5090506000805b848110156125fb57600061244482600360008b8152602001908152602001600020612c1690919063ffffffff16565b905060006005600083815260200190815260200160002060405180606001604052908160008201548152602001600182018054612480906146e8565b80601f01602080910402602001604051908101604052809291908181526020018280546124ac906146e8565b80156124f95780601f106124ce576101008083540402835291602001916124f9565b820191906000526020600020905b8154815290600101906020018083116124dc57829003601f168201915b50505050508152602001600282018054612512906146e8565b80601f016020809104026020016040519081016040528092919081815260200182805461253e906146e8565b801561258b5780601f106125605761010080835404028352916020019161258b565b820191906000526020600020905b81548152906001019060200180831161256e57829003601f168201915b5050505050815250509050600260068111156125aa576125a961450f565b5b8160000151036125e65780602001518585815181106125cc576125cb6145e3565b5b602002602001018190525083806125e290614641565b9450505b505080806125f390614641565b915050612415565b5081945050505050919050565b6000600260009054906101000a900473ffffffffffffffffffffffffffffffffffffffff1673ffffffffffffffffffffffffffffffffffffffff1663bd4986a0836040518263ffffffff1660e01b815260040161266591906137ba565b602060405180830381865afa158015612682573d6000803e3d6000fd5b505050506040513d601f19601f820116820180604052508101906126a691906145b6565b9050919050565b61270f83600260068111156126c5576126c461450f565b5b84848080601f016020809104026020016040519081016040528093929190818152602001838380828437600081840152601f19601f82011690508083019250505050505050610d3f565b505050565b6060600260009054906101000a900473ffffffffffffffffffffffffffffffffffffffff1673ffffffffffffffffffffffffffffffffffffffff1663ef6fd878836040518263ffffffff1660e01b815260040161277191906137ba565b600060405180830381865afa15801561278e573d6000803e3d6000fd5b505050506040513d6000823e3d601f19601f820116820180604052508101906127b79190614d22565b9050919050565b6127c6612b6c565b600073ffffffffffffffffffffffffffffffffffffffff168173ffffffffffffffffffffffffffffffffffffffff1603612835576040517f08c379a000000000000000000000000000000000000000000000000000000000815260040161282c90614ddd565b60405180910390fd5b61283e81612ca2565b50565b6060600061286060036000858152602001908152602001600020612c01565b905060008167ffffffffffffffff81111561287e5761287d613624565b5b6040519080825280602002602001820160405280156128b757816020015b6128a4613302565b81526020019060019003908161289c5790505b50905060005b82811015612a6c5760006128ec8260036000898152602001908152602001600020612c1690919063ffffffff16565b90506005600082815260200190815260200160002060405180606001604052908160008201548152602001600182018054612926906146e8565b80601f0160208091040260200160405190810160405280929190818152602001828054612952906146e8565b801561299f5780601f106129745761010080835404028352916020019161299f565b820191906000526020600020905b81548152906001019060200180831161298257829003601f168201915b505050505081526020016002820180546129b8906146e8565b80601f01602080910402602001604051908101604052809291908181526020018280546129e4906146e8565b8015612a315780601f10612a0657610100808354040283529160200191612a31565b820191906000526020600020905b815481529060010190602001808311612a1457829003601f168201915b505050505081525050838381518110612a4d57612a4c6145e3565b5b6020026020010181905250508080612a6490614641565b9150506128bd565b508092505050919050565b600260009054906101000a900473ffffffffffffffffffffffffffffffffffffffff1681565b6000612b018460026006811115612ab757612ab661450f565b5b85858080601f016020809104026020016040519081016040528093929190818152602001838380828437600081840152601f19601f82011690508083019250505050505050610ce9565b90509392505050565b600160009054906101000a900473ffffffffffffffffffffffffffffffffffffffff1681565b600080600883901c9050600060ff84166001901b9050600081866000016000858152602001908152602001600020541614159250505092915050565b612b74612dd8565b73ffffffffffffffffffffffffffffffffffffffff16612b9261152a565b73ffffffffffffffffffffffffffffffffffffffff1614612be8576040517f08c379a0000000000000000000000000000000000000000000000000000000008152600401612bdf90614e49565b60405180910390fd5b565b600082612bf78584612de0565b1490509392505050565b6000612c0f82600001612e36565b9050919050565b6000612c258360000183612e47565b60001c905092915050565b6000612c42836000018360001b612e72565b905092915050565b6000612c5c836000018360001b612e95565b905092915050565b6000600882901c9050600060ff83166001901b9050808460000160008481526020019081526020016000206000828254179250508190555050505050565b60008060009054906101000a900473ffffffffffffffffffffffffffffffffffffffff169050816000806101000a81548173ffffffffffffffffffffffffffffffffffffffff021916908373ffffffffffffffffffffffffffffffffffffffff1602179055508173ffffffffffffffffffffffffffffffffffffffff168173ffffffffffffffffffffffffffffffffffffffff167f8be0079c531659141344cd1fd0a4f28419497f9722a3daafe3b4186f6b6457e060405160405180910390a35050565b600082612d74868685612fa9565b149050949350505050565b6000600882901c9050600060ff83166001901b905080198460000160008481526020019081526020016000206000828254169250508190555050505050565b6000612dd0836000018360001b613250565b905092915050565b600033905090565b60008082905060005b8451811015612e2b57612e1682868381518110612e0957612e086145e3565b5b60200260200101516132c0565b91508080612e2390614641565b915050612de9565b508091505092915050565b600081600001805490509050919050565b6000826000018281548110612e5f57612e5e6145e3565b5b9060005260206000200154905092915050565b600080836001016000848152602001908152602001600020541415905092915050565b60008083600101600084815260200190815260200160002054905060008114612f9d576000600182612ec79190614e69565b9050600060018660000180549050612edf9190614e69565b9050818114612f4e576000866000018281548110612f0057612eff6145e3565b5b9060005260206000200154905080876000018481548110612f2457612f236145e3565b5b90600052602060002001819055508387600101600083815260200190815260200160002081905550505b85600001805480612f6257612f61614e9d565b5b600190038181906000526020600020016000905590558560010160008681526020019081526020016000206000905560019350505050612fa3565b60009150505b92915050565b60008082519050600084519050806001875184612fc69190614c7e565b612fd09190614e69565b14613010576040517f08c379a000000000000000000000000000000000000000000000000000000000815260040161300790614f18565b60405180910390fd5b60008167ffffffffffffffff81111561302c5761302b613624565b5b60405190808252806020026020018201604052801561305a5781602001602082028036833780820191505090505b5090506000806000805b858110156131b45760008785106130a15785848061308190614641565b955081518110613094576130936145e3565b5b60200260200101516130c9565b8985806130ad90614641565b9650815181106130c0576130bf6145e3565b5b60200260200101515b905060008b83815181106130e0576130df6145e3565b5b6020026020010151613118578c84806130f890614641565b95508151811061310b5761310a6145e3565b5b6020026020010151613174565b88861061314b5786858061312b90614641565b96508151811061313e5761313d6145e3565b5b6020026020010151613173565b8a868061315790614641565b97508151811061316a576131696145e3565b5b60200260200101515b5b905061318082826132c0565b878481518110613193576131926145e3565b5b602002602001018181525050505080806131ac90614641565b915050613064565b5060008511156131f257836001866131cc9190614e69565b815181106131dd576131dc6145e3565b5b60200260200101519650505050505050613249565b6000861115613224578760008151811061320f5761320e6145e3565b5b60200260200101519650505050505050613249565b89600081518110613238576132376145e3565b5b602002602001015196505050505050505b9392505050565b600061325c8383612e72565b6132b55782600001829080600181540180825580915050600190039060005260206000200160009091909190915055826000018054905083600101600084815260200190815260200160002081905550600190506132ba565b600090505b92915050565b60008183106132d8576132d382846132eb565b6132e3565b6132e283836132eb565b5b905092915050565b600082600052816020526040600020905092915050565b60405180606001604052806000815260200160608152602001606081525090565b6000604051905090565b600080fd5b600080fd5b6000819050919050565b61334a81613337565b811461335557600080fd5b50565b60008135905061336781613341565b92915050565b600073ffffffffffffffffffffffffffffffffffffffff82169050919050565b60006133988261336d565b9050919050565b6133a88161338d565b81146133b357600080fd5b50565b6000813590506133c58161339f565b92915050565b600080604083850312156133e2576133e161332d565b5b60006133f085828601613358565b9250506020613401858286016133b6565b9150509250929050565b60008115159050919050565b6134208161340b565b82525050565b600060208201905061343b6000830184613417565b92915050565b600080fd5b600080fd5b600080fd5b60008083601f84011261346657613465613441565b5b8235905067ffffffffffffffff81111561348357613482613446565b5b60208301915083600182028301111561349f5761349e61344b565b5b9250929050565b6000806000806000608086880312156134c2576134c161332d565b5b60006134d088828901613358565b95505060206134e188828901613358565b945050604086013567ffffffffffffffff81111561350257613501613332565b5b61350e88828901613450565b9350935050606061352188828901613358565b9150509295509295909350565b600081519050919050565b600082825260208201905092915050565b6000819050602082019050919050565b6135638161340b565b82525050565b6000613575838361355a565b60208301905092915050565b6000602082019050919050565b60006135998261352e565b6135a38185613539565b93506135ae8361354a565b8060005b838110156135df5781516135c68882613569565b97506135d183613581565b9250506001810190506135b2565b5085935050505092915050565b60006020820190508181036000830152613606818461358e565b905092915050565b600080fd5b6000601f19601f8301169050919050565b7f4e487b7100000000000000000000000000000000000000000000000000000000600052604160045260246000fd5b61365c82613613565b810181811067ffffffffffffffff8211171561367b5761367a613624565b5b80604052505050565b600061368e613323565b905061369a8282613653565b919050565b600067ffffffffffffffff8211156136ba576136b9613624565b5b6136c382613613565b9050602081019050919050565b82818337600083830152505050565b60006136f26136ed8461369f565b613684565b90508281526020810184848401111561370e5761370d61360e565b5b6137198482856136d0565b509392505050565b600082601f83011261373657613735613441565b5b81356137468482602086016136df565b91505092915050565b600080604083850312156137665761376561332d565b5b600061377485828601613358565b925050602083013567ffffffffffffffff81111561379557613794613332565b5b6137a185828601613721565b9150509250929050565b6137b481613337565b82525050565b60006020820190506137cf60008301846137ab565b92915050565b60008083601f8401126137eb576137ea613441565b5b8235905067ffffffffffffffff81111561380857613807613446565b5b6020830191508360208202830111156138245761382361344b565b5b9250929050565b600080600080606085870312156138455761384461332d565b5b600061385387828801613358565b9450506020613864878288016133b6565b935050604085013567ffffffffffffffff81111561388557613884613332565b5b613891878288016137d5565b925092505092959194509250565b6000602082840312156138b5576138b461332d565b5b60006138c3848285016133b6565b91505092915050565b6000602082840312156138e2576138e161332d565b5b60006138f084828501613358565b91505092915050565b600081519050919050565b600082825260208201905092915050565b60005b83811015613933578082015181840152602081019050613918565b60008484015250505050565b600061394a826138f9565b6139548185613904565b9350613964818560208601613915565b61396d81613613565b840191505092915050565b600060608201905061398d60008301866137ab565b818103602083015261399f818561393f565b905081810360408301526139b3818461393f565b9050949350505050565b600067ffffffffffffffff8211156139d8576139d7613624565b5b602082029050602081019050919050565b6000819050919050565b6139fc816139e9565b8114613a0757600080fd5b50565b600081359050613a19816139f3565b92915050565b6000613a32613a2d846139bd565b613684565b90508083825260208201905060208402830185811115613a5557613a5461344b565b5b835b81811015613a7e5780613a6a8882613a0a565b845260208401935050602081019050613a57565b5050509392505050565b600082601f830112613a9d57613a9c613441565b5b8135613aad848260208601613a1f565b91505092915050565b60008060008060808587031215613ad057613acf61332d565b5b6000613ade87828801613358565b9450506020613aef87828801613358565b935050604085013567ffffffffffffffff811115613b1057613b0f613332565b5b613b1c87828801613a88565b9250506060613b2d87828801613a0a565b91505092959194509250565b600080600060408486031215613b5257613b5161332d565b5b6000613b6086828701613358565b935050602084013567ffffffffffffffff811115613b8157613b80613332565b5b613b8d86828701613450565b92509250509250925092565b600081519050919050565b600082825260208201905092915050565b6000819050602082019050919050565b613bce81613337565b82525050565b6000613be08383613bc5565b60208301905092915050565b6000602082019050919050565b6000613c0482613b99565b613c0e8185613ba4565b9350613c1983613bb5565b8060005b83811015613c4a578151613c318882613bd4565b9750613c3c83613bec565b925050600181019050613c1d565b5085935050505092915050565b60006020820190508181036000830152613c718184613bf9565b905092915050565b600080600060608486031215613c9257613c9161332d565b5b6000613ca086828701613358565b9350506020613cb186828701613358565b925050604084013567ffffffffffffffff811115613cd257613cd1613332565b5b613cde86828701613721565b9150509250925092565b600080600060608486031215613d0157613d0061332d565b5b6000613d0f86828701613358565b9350506020613d2086828701613358565b9250506040613d3186828701613a0a565b9150509250925092565b600067ffffffffffffffff821115613d5657613d55613624565b5b602082029050602081019050919050565b613d708161340b565b8114613d7b57600080fd5b50565b600081359050613d8d81613d67565b92915050565b6000613da6613da184613d3b565b613684565b90508083825260208201905060208402830185811115613dc957613dc861344b565b5b835b81811015613df25780613dde8882613d7e565b845260208401935050602081019050613dcb565b5050509392505050565b600082601f830112613e1157613e10613441565b5b8135613e21848260208601613d93565b91505092915050565b600080600080600060a08688031215613e4657613e4561332d565b5b6000613e5488828901613358565b9550506020613e6588828901613358565b945050604086013567ffffffffffffffff811115613e8657613e85613332565b5b613e9288828901613a88565b935050606086013567ffffffffffffffff811115613eb357613eb2613332565b5b613ebf88828901613dfc565b925050608086013567ffffffffffffffff811115613ee057613edf613332565b5b613eec88828901613a88565b9150509295509295909350565b600080600080600060608688031215613f1557613f1461332d565b5b6000613f2388828901613358565b955050602086013567ffffffffffffffff811115613f4457613f43613332565b5b613f5088828901613450565b9450945050604086013567ffffffffffffffff811115613f7357613f72613332565b5b613f7f888289016137d5565b92509250509295509295909350565b613f978161338d565b82525050565b6000602082019050613fb26000830184613f8e565b92915050565b600080fd5b600080fd5b600060608284031215613fd857613fd7613fb8565b5b613fe26060613684565b90506000613ff284828501613358565b600083015250602082013567ffffffffffffffff81111561401657614015613fbd565b5b61402284828501613721565b602083015250604082013567ffffffffffffffff81111561404657614045613fbd565b5b61405284828501613721565b60408301525092915050565b600080600080606085870312156140785761407761332d565b5b600061408687828801613358565b945050602085013567ffffffffffffffff8111156140a7576140a6613332565b5b6140b387828801613fc2565b935050604085013567ffffffffffffffff8111156140d4576140d3613332565b5b6140e0878288016137d5565b925092505092959194509250565b60006020820190508181036000830152614108818461393f565b905092915050565b600081519050919050565b600082825260208201905092915050565b6000819050602082019050919050565b6141458161338d565b82525050565b6000614157838361413c565b60208301905092915050565b6000602082019050919050565b600061417b82614110565b614185818561411b565b93506141908361412c565b8060005b838110156141c15781516141a8888261414b565b97506141b383614163565b925050600181019050614194565b5085935050505092915050565b600060208201905081810360008301526141e88184614170565b905092915050565b600081519050919050565b600082825260208201905092915050565b6000819050602082019050919050565b600082825260208201905092915050565b6000614238826138f9565b614242818561421c565b9350614252818560208601613915565b61425b81613613565b840191505092915050565b6000614272838361422d565b905092915050565b6000602082019050919050565b6000614292826141f0565b61429c81856141fb565b9350836020820285016142ae8561420c565b8060005b858110156142ea57848403895281516142cb8582614266565b94506142d68361427a565b925060208a019950506001810190506142b2565b50829750879550505050505092915050565b600060208201905081810360008301526143168184614287565b905092915050565b600081519050919050565b600082825260208201905092915050565b6000819050602082019050919050565b60006060830160008301516143626000860182613bc5565b506020830151848203602086015261437a828261422d565b91505060408301518482036040860152614394828261422d565b9150508091505092915050565b60006143ad838361434a565b905092915050565b6000602082019050919050565b60006143cd8261431e565b6143d78185614329565b9350836020820285016143e98561433a565b8060005b85811015614425578484038952815161440685826143a1565b9450614411836143b5565b925060208a019950506001810190506143ed565b50829750879550505050505092915050565b6000602082019050818103600083015261445181846143c2565b905092915050565b6000819050919050565b600061447e6144796144748461336d565b614459565b61336d565b9050919050565b600061449082614463565b9050919050565b60006144a282614485565b9050919050565b6144b281614497565b82525050565b60006020820190506144cd60008301846144a9565b92915050565b60006144de82614485565b9050919050565b6144ee816144d3565b82525050565b600060208201905061450960008301846144e5565b92915050565b7f4e487b7100000000000000000000000000000000000000000000000000000000600052602160045260246000fd5b60008160601b9050919050565b60006145568261453e565b9050919050565b60006145688261454b565b9050919050565b61458061457b8261338d565b61455d565b82525050565b6000614592828461456f565b60148201915081905092915050565b6000815190506145b08161339f565b92915050565b6000602082840312156145cc576145cb61332d565b5b60006145da848285016145a1565b91505092915050565b7f4e487b7100000000000000000000000000000000000000000000000000000000600052603260045260246000fd5b7f4e487b7100000000000000000000000000000000000000000000000000000000600052601160045260246000fd5b600061464c82613337565b91507fffffffffffffffffffffffffffffffffffffffffffffffffffffffffffffffff820361467e5761467d614612565b5b600182019050919050565b600060408201905061469e60008301856137ab565b81810360208301526146b0818461393f565b90509392505050565b7f4e487b7100000000000000000000000000000000000000000000000000000000600052602260045260246000fd5b6000600282049050600182168061470057607f821691505b602082108103614713576147126146b9565b5b50919050565b600082825260208201905092915050565b7f4e6f7420504b50204e4654206f776e6572000000000000000000000000000000600082015250565b6000614760601183614719565b915061476b8261472a565b602082019050919050565b6000602082019050818103600083015261478f81614753565b9050919050565b61479f816139e9565b82525050565b60006020820190506147ba6000830184614796565b92915050565b60006147cc8385613904565b93506147d98385846136d0565b6147e283613613565b840190509392505050565b600060608201905061480260008301876137ab565b81810360208301526148158185876147c0565b905061482460408301846137ab565b95945050505050565b600081905092915050565b60008190508160005260206000209050919050565b6000815461485a816146e8565b614864818661482d565b9450600182166000811461487f5760018114614894576148c7565b60ff19831686528115158202860193506148c7565b61489d85614838565b60005b838110156148bf578154818901526001820191506020810190506148a0565b838801955050505b50505092915050565b60006148dc828461484d565b915081905092915050565b7f43616e6e6f7420616464206120646966666572656e74207075626b657920666f60008201527f72207468652073616d652061757468206d6574686f64207479706520616e642060208201527f6964000000000000000000000000000000000000000000000000000000000000604082015250565b6000614969604283614719565b9150614974826148e7565b606082019050919050565b600060208201905081810360008301526149988161495c565b9050919050565b60006020601f8301049050919050565b600082821b905092915050565b6000600883026149ec7fffffffffffffffffffffffffffffffffffffffffffffffffffffffffffffffff826149af565b6149f686836149af565b95508019841693508086168417925050509392505050565b6000614a29614a24614a1f84613337565b614459565b613337565b9050919050565b6000819050919050565b614a4383614a0e565b614a57614a4f82614a30565b8484546149bc565b825550505050565b600090565b614a6c614a5f565b614a77818484614a3a565b505050565b5b81811015614a9b57614a90600082614a64565b600181019050614a7d565b5050565b601f821115614ae057614ab181614838565b614aba8461499f565b81016020851015614ac9578190505b614add614ad58561499f565b830182614a7c565b50505b505050565b600082821c905092915050565b6000614b0360001984600802614ae5565b1980831691505092915050565b6000614b1c8383614af2565b9150826002028217905092915050565b614b35826138f9565b67ffffffffffffffff811115614b4e57614b4d613624565b5b614b5882546146e8565b614b63828285614a9f565b600060209050601f831160018114614b965760008415614b84578287015190505b614b8e8582614b10565b865550614bf6565b601f198416614ba486614838565b60005b82811015614bcc57848901518255600182019150602085019450602081019050614ba7565b86831015614be95784890151614be5601f891682614af2565b8355505b6001600288020188555050505b505050505050565b6000606082019050614c1360008301866137ab565b8181036020830152614c25818561393f565b9050614c3460408301846137ab565b949350505050565b600081519050614c4b81613d67565b92915050565b600060208284031215614c6757614c6661332d565b5b6000614c7584828501614c3c565b91505092915050565b6000614c8982613337565b9150614c9483613337565b9250828201905080821115614cac57614cab614612565b5b92915050565b6000614cc5614cc08461369f565b613684565b905082815260208101848484011115614ce157614ce061360e565b5b614cec848285613915565b509392505050565b600082601f830112614d0957614d08613441565b5b8151614d19848260208601614cb2565b91505092915050565b600060208284031215614d3857614d3761332d565b5b600082015167ffffffffffffffff811115614d5657614d55613332565b5b614d6284828501614cf4565b91505092915050565b7f4f776e61626c653a206e6577206f776e657220697320746865207a65726f206160008201527f6464726573730000000000000000000000000000000000000000000000000000602082015250565b6000614dc7602683614719565b9150614dd282614d6b565b604082019050919050565b60006020820190508181036000830152614df681614dba565b9050919050565b7f4f776e61626c653a2063616c6c6572206973206e6f7420746865206f776e6572600082015250565b6000614e33602083614719565b9150614e3e82614dfd565b602082019050919050565b60006020820190508181036000830152614e6281614e26565b9050919050565b6000614e7482613337565b9150614e7f83613337565b9250828203905081811115614e9757614e96614612565b5b92915050565b7f4e487b7100000000000000000000000000000000000000000000000000000000600052603160045260246000fd5b7f4d65726b6c6550726f6f663a20696e76616c6964206d756c746970726f6f6600600082015250565b6000614f02601f83614719565b9150614f0d82614ecc565b602082019050919050565b60006020820190508181036000830152614f3181614ef5565b905091905056fea26469706673582212204d531712bce9f1a4439415517f99d59e6eabc16b96e56c0941893a0f3ccb961764736f6c63430008110033","abi":[{"inputs":[{"internalType":"address","name":"_pkpNft","type":"address"},{"internalType":"address","name":"_router","type":"address"}],"stateMutability":"nonpayable","type":"constructor"},{"anonymous":false,"inputs":[{"indexed":true,"internalType":"address","name":"previousOwner","type":"address"},{"indexed":true,"internalType":"address","name":"newOwner","type":"address"}],"name":"OwnershipTransferred","type":"event"},{"anonymous":false,"inputs":[{"indexed":true,"internalType":"uint256","name":"tokenId","type":"uint256"},{"indexed":false,"internalType":"uint256","name":"authMethodType","type":"uint256"},{"indexed":false,"internalType":"bytes","name":"id","type":"bytes"},{"indexed":false,"internalType":"bytes","name":"userPubkey","type":"bytes"}],"name":"PermittedAuthMethodAdded","type":"event"},{"anonymous":false,"inputs":[{"indexed":true,"internalType":"uint256","name":"tokenId","type":"uint256"},{"indexed":false,"internalType":"uint256","name":"authMethodType","type":"uint256"},{"indexed":false,"internalType":"bytes","name":"id","type":"bytes"}],"name":"PermittedAuthMethodRemoved","type":"event"},{"anonymous":false,"inputs":[{"indexed":true,"internalType":"uint256","name":"tokenId","type":"uint256"},{"indexed":false,"internalType":"uint256","name":"authMethodType","type":"uint256"},{"indexed":false,"internalType":"bytes","name":"id","type":"bytes"},{"indexed":false,"internalType":"uint256","name":"scopeId","type":"uint256"}],"name":"PermittedAuthMethodScopeAdded","type":"event"},{"anonymous":false,"inputs":[{"indexed":true,"internalType":"uint256","name":"tokenId","type":"uint256"},{"indexed":false,"internalType":"uint256","name":"authMethodType","type":"uint256"},{"indexed":false,"internalType":"bytes","name":"id","type":"bytes"},{"indexed":false,"internalType":"uint256","name":"scopeId","type":"uint256"}],"name":"PermittedAuthMethodScopeRemoved","type":"event"},{"anonymous":false,"inputs":[{"indexed":true,"internalType":"uint256","name":"tokenId","type":"uint256"},{"indexed":true,"internalType":"uint256","name":"group","type":"uint256"},{"indexed":false,"internalType":"bytes32","name":"root","type":"bytes32"}],"name":"RootHashUpdated","type":"event"},{"inputs":[{"internalType":"uint256","name":"tokenId","type":"uint256"},{"internalType":"bytes","name":"ipfsCID","type":"bytes"},{"internalType":"uint256[]","name":"scopes","type":"uint256[]"}],"name":"addPermittedAction","outputs":[],"stateMutability":"nonpayable","type":"function"},{"inputs":[{"internalType":"uint256","name":"tokenId","type":"uint256"},{"internalType":"address","name":"user","type":"address"},{"internalType":"uint256[]","name":"scopes","type":"uint256[]"}],"name":"addPermittedAddress","outputs":[],"stateMutability":"nonpayable","type":"function"},{"inputs":[{"internalType":"uint256","name":"tokenId","type":"uint256"},{"components":[{"internalType":"uint256","name":"authMethodType","type":"uint256"},{"internalType":"bytes","name":"id","type":"bytes"},{"internalType":"bytes","name":"userPubkey","type":"bytes"}],"internalType":"struct PKPPermissions.AuthMethod","name":"authMethod","type":"tuple"},{"internalType":"uint256[]","name":"scopes","type":"uint256[]"}],"name":"addPermittedAuthMethod","outputs":[],"stateMutability":"nonpayable","type":"function"},{"inputs":[{"internalType":"uint256","name":"tokenId","type":"uint256"},{"internalType":"uint256","name":"authMethodType","type":"uint256"},{"internalType":"bytes","name":"id","type":"bytes"},{"internalType":"uint256","name":"scopeId","type":"uint256"}],"name":"addPermittedAuthMethodScope","outputs":[],"stateMutability":"nonpayable","type":"function"},{"inputs":[{"internalType":"uint256","name":"","type":"uint256"}],"name":"authMethods","outputs":[{"internalType":"uint256","name":"authMethodType","type":"uint256"},{"internalType":"bytes","name":"id","type":"bytes"},{"internalType":"bytes","name":"userPubkey","type":"bytes"}],"stateMutability":"view","type":"function"},{"inputs":[{"internalType":"uint256","name":"authMethodType","type":"uint256"},{"internalType":"bytes","name":"id","type":"bytes"}],"name":"getAuthMethodId","outputs":[{"internalType":"uint256","name":"","type":"uint256"}],"stateMutability":"pure","type":"function"},{"inputs":[{"internalType":"uint256","name":"tokenId","type":"uint256"}],"name":"getEthAddress","outputs":[{"internalType":"address","name":"","type":"address"}],"stateMutability":"view","type":"function"},{"inputs":[{"internalType":"uint256","name":"tokenId","type":"uint256"}],"name":"getPermittedActions","outputs":[{"internalType":"bytes[]","name":"","type":"bytes[]"}],"stateMutability":"view","type":"function"},{"inputs":[{"internalType":"uint256","name":"tokenId","type":"uint256"}],"name":"getPermittedAddresses","outputs":[{"internalType":"address[]","name":"","type":"address[]"}],"stateMutability":"view","type":"function"},{"inputs":[{"internalType":"uint256","name":"tokenId","type":"uint256"},{"internalType":"uint256","name":"authMethodType","type":"uint256"},{"internalType":"bytes","name":"id","type":"bytes"},{"internalType":"uint256","name":"maxScopeId","type":"uint256"}],"name":"getPermittedAuthMethodScopes","outputs":[{"internalType":"bool[]","name":"","type":"bool[]"}],"stateMutability":"view","type":"function"},{"inputs":[{"internalType":"uint256","name":"tokenId","type":"uint256"}],"name":"getPermittedAuthMethods","outputs":[{"components":[{"internalType":"uint256","name":"authMethodType","type":"uint256"},{"internalType":"bytes","name":"id","type":"bytes"},{"internalType":"bytes","name":"userPubkey","type":"bytes"}],"internalType":"struct PKPPermissions.AuthMethod[]","name":"","type":"tuple[]"}],"stateMutability":"view","type":"function"},{"inputs":[{"internalType":"uint256","name":"tokenId","type":"uint256"}],"name":"getPubkey","outputs":[{"internalType":"bytes","name":"","type":"bytes"}],"stateMutability":"view","type":"function"},{"inputs":[{"internalType":"uint256","name":"authMethodType","type":"uint256"},{"internalType":"bytes","name":"id","type":"bytes"}],"name":"getTokenIdsForAuthMethod","outputs":[{"internalType":"uint256[]","name":"","type":"uint256[]"}],"stateMutability":"view","type":"function"},{"inputs":[{"internalType":"uint256","name":"authMethodType","type":"uint256"},{"internalType":"bytes","name":"id","type":"bytes"}],"name":"getUserPubkeyForAuthMethod","outputs":[{"internalType":"bytes","name":"","type":"bytes"}],"stateMutability":"view","type":"function"},{"inputs":[{"internalType":"uint256","name":"tokenId","type":"uint256"},{"internalType":"bytes","name":"ipfsCID","type":"bytes"}],"name":"isPermittedAction","outputs":[{"internalType":"bool","name":"","type":"bool"}],"stateMutability":"view","type":"function"},{"inputs":[{"internalType":"uint256","name":"tokenId","type":"uint256"},{"internalType":"address","name":"user","type":"address"}],"name":"isPermittedAddress","outputs":[{"internalType":"bool","name":"","type":"bool"}],"stateMutability":"view","type":"function"},{"inputs":[{"internalType":"uint256","name":"tokenId","type":"uint256"},{"internalType":"uint256","name":"authMethodType","type":"uint256"},{"internalType":"bytes","name":"id","type":"bytes"}],"name":"isPermittedAuthMethod","outputs":[{"internalType":"bool","name":"","type":"bool"}],"stateMutability":"view","type":"function"},{"inputs":[{"internalType":"uint256","name":"tokenId","type":"uint256"},{"internalType":"uint256","name":"authMethodType","type":"uint256"},{"internalType":"bytes","name":"id","type":"bytes"},{"internalType":"uint256","name":"scopeId","type":"uint256"}],"name":"isPermittedAuthMethodScopePresent","outputs":[{"internalType":"bool","name":"","type":"bool"}],"stateMutability":"view","type":"function"},{"inputs":[],"name":"owner","outputs":[{"internalType":"address","name":"","type":"address"}],"stateMutability":"view","type":"function"},{"inputs":[],"name":"pkpNFT","outputs":[{"internalType":"contract PKPNFT","name":"","type":"address"}],"stateMutability":"view","type":"function"},{"inputs":[{"internalType":"uint256","name":"tokenId","type":"uint256"},{"internalType":"bytes","name":"ipfsCID","type":"bytes"}],"name":"removePermittedAction","outputs":[],"stateMutability":"nonpayable","type":"function"},{"inputs":[{"internalType":"uint256","name":"tokenId","type":"uint256"},{"internalType":"address","name":"user","type":"address"}],"name":"removePermittedAddress","outputs":[],"stateMutability":"nonpayable","type":"function"},{"inputs":[{"internalType":"uint256","name":"tokenId","type":"uint256"},{"internalType":"uint256","name":"authMethodType","type":"uint256"},{"internalType":"bytes","name":"id","type":"bytes"}],"name":"removePermittedAuthMethod","outputs":[],"stateMutability":"nonpayable","type":"function"},{"inputs":[{"internalType":"uint256","name":"tokenId","type":"uint256"},{"internalType":"uint256","name":"authMethodType","type":"uint256"},{"internalType":"bytes","name":"id","type":"bytes"},{"internalType":"uint256","name":"scopeId","type":"uint256"}],"name":"removePermittedAuthMethodScope","outputs":[],"stateMutability":"nonpayable","type":"function"},{"inputs":[],"name":"renounceOwnership","outputs":[],"stateMutability":"nonpayable","type":"function"},{"inputs":[],"name":"router","outputs":[{"internalType":"contract PubkeyRouter","name":"","type":"address"}],"stateMutability":"view","type":"function"},{"inputs":[{"internalType":"address","name":"newPkpNftAddress","type":"address"}],"name":"setPkpNftAddress","outputs":[],"stateMutability":"nonpayable","type":"function"},{"inputs":[{"internalType":"uint256","name":"tokenId","type":"uint256"},{"internalType":"uint256","name":"group","type":"uint256"},{"internalType":"bytes32","name":"root","type":"bytes32"}],"name":"setRootHash","outputs":[],"stateMutability":"nonpayable","type":"function"},{"inputs":[{"internalType":"address","name":"newRouterAddress","type":"address"}],"name":"setRouterAddress","outputs":[],"stateMutability":"nonpayable","type":"function"},{"inputs":[{"internalType":"address","name":"newOwner","type":"address"}],"name":"transferOwnership","outputs":[],"stateMutability":"nonpayable","type":"function"},{"inputs":[{"internalType":"uint256","name":"tokenId","type":"uint256"},{"internalType":"uint256","name":"group","type":"uint256"},{"internalType":"bytes32[]","name":"proof","type":"bytes32[]"},{"internalType":"bytes32","name":"leaf","type":"bytes32"}],"name":"verifyState","outputs":[{"internalType":"bool","name":"","type":"bool"}],"stateMutability":"view","type":"function"},{"inputs":[{"internalType":"uint256","name":"tokenId","type":"uint256"},{"internalType":"uint256","name":"group","type":"uint256"},{"internalType":"bytes32[]","name":"proof","type":"bytes32[]"},{"internalType":"bool[]","name":"proofFlags","type":"bool[]"},{"internalType":"bytes32[]","name":"leaves","type":"bytes32[]"}],"name":"verifyStates","outputs":[{"internalType":"bool","name":"","type":"bool"}],"stateMutability":"view","type":"function"}]}