{"address":"0x60Bb17D7C100Ef305E53D58a585897D4cc8A1740","bytecode":"0x60806040523480156200001157600080fd5b50604051620045e9380380620045e9833981810160405281019062000037919062000217565b620000576200004b620000e160201b60201c565b620000e960201b60201c565b81600160006101000a81548173ffffffffffffffffffffffffffffffffffffffff021916908373ffffffffffffffffffffffffffffffffffffffff16021790555080600260006101000a81548173ffffffffffffffffffffffffffffffffffffffff021916908373ffffffffffffffffffffffffffffffffffffffff16021790555050506200025e565b600033905090565b60008060009054906101000a900473ffffffffffffffffffffffffffffffffffffffff169050816000806101000a81548173ffffffffffffffffffffffffffffffffffffffff021916908373ffffffffffffffffffffffffffffffffffffffff1602179055508173ffffffffffffffffffffffffffffffffffffffff168173ffffffffffffffffffffffffffffffffffffffff167f8be0079c531659141344cd1fd0a4f28419497f9722a3daafe3b4186f6b6457e060405160405180910390a35050565b600080fd5b600073ffffffffffffffffffffffffffffffffffffffff82169050919050565b6000620001df82620001b2565b9050919050565b620001f181620001d2565b8114620001fd57600080fd5b50565b6000815190506200021181620001e6565b92915050565b60008060408385031215620002315762000230620001ad565b5b6000620002418582860162000200565b9250506020620002548582860162000200565b9150509250929050565b61437b806200026e6000396000f3fe608060405234801561001057600080fd5b50600436106101cc5760003560e01c80638a43157811610104578063bd4986a0116100a2578063f34f21ba11610071578063f34f21ba1461056f578063f887ea401461059f578063fceb3983146105bd578063ffa2e953146105ed576101cc565b8063bd4986a0146104d7578063d41a327214610507578063ef6fd87814610523578063f2fde38b14610553576101cc565b8063a1c805fa116100de578063a1c805fa1461042b578063abc541ae1461045b578063b997606f1461048b578063bb7a1070146104a7576101cc565b80638a431578146103c15780638da5cb5b146103dd578063a1afdc6f146103fb576101cc565b80635521c4521161017157806366fc65411161014b57806366fc6541146103635780636821c8e21461037f578063715018a61461039b57806382559561146103a5576101cc565b80635521c452146102e7578063557b5eba146103175780635e1cab6614610347576101cc565b80631663c121116101ad5780631663c12114610261578063176354fd1461027d5780632657768b1461029957806341cb87fc146102cb576101cc565b80618b4f146101d1578062221c08146102015780630a60950d14610231575b600080fd5b6101eb60048036038101906101e69190612af2565b61060b565b6040516101f89190612b4d565b60405180910390f35b61021b60048036038101906102169190612cae565b610723565b6040516102289190612def565b60405180910390f35b61024b60048036038101906102469190612e11565b61080d565b6040516102589190612e7c565b60405180910390f35b61027b60048036038101906102769190612f5f565b610843565b005b61029760048036038101906102929190612fce565b610896565b005b6102b360048036038101906102ae9190612ffb565b6108e2565b6040516102c2939291906130a7565b60405180910390f35b6102e560048036038101906102e09190612fce565b610a1c565b005b61030160048036038101906102fc9190612e11565b610a68565b60405161030e91906131aa565b60405180910390f35b610331600480360381019061032c91906131cc565b610b53565b60405161033e9190612b4d565b60405180910390f35b610361600480360381019061035c919061323b565b610ba9565b005b61037d600480360381019061037891906131cc565b610f21565b005b61039960048036038101906103949190612cae565b6110d6565b005b6103a361126c565b005b6103bf60048036038101906103ba9190612cae565b611280565b005b6103db60048036038101906103d6919061330a565b611416565b005b6103e561144a565b6040516103f291906133a4565b60405180910390f35b61041560048036038101906104109190612e11565b611473565b60405161042291906133bf565b60405180910390f35b61044560048036038101906104409190612cae565b6115e2565b6040516104529190612b4d565b60405180910390f35b61047560048036038101906104709190612ffb565b611638565b604051610482919061349f565b60405180910390f35b6104a560048036038101906104a09190612af2565b611cb5565b005b6104c160048036038101906104bc9190612ffb565b611cf6565b6040516104ce91906135cd565b60405180910390f35b6104f160048036038101906104ec9190612ffb565b612128565b6040516104fe91906133a4565b60405180910390f35b610521600480360381019061051c9190612e11565b6121cd565b005b61053d60048036038101906105389190612ffb565b6121ef565b60405161054a91906133bf565b60405180910390f35b61056d60048036038101906105689190612fce565b612299565b005b61058960048036038101906105849190612ffb565b61231c565b6040516105969190613708565b60405180910390f35b6105a7612552565b6040516105b49190613789565b60405180910390f35b6105d760048036038101906105d29190612e11565b612578565b6040516105e49190612b4d565b60405180910390f35b6105f56125a0565b60405161060291906137c5565b60405180910390f35b600061064a8360016006811115610625576106246137e0565b5b846040516020016106369190613857565b604051602081830303815290604052610b53565b8061071b57508173ffffffffffffffffffffffffffffffffffffffff16600160009054906101000a900473ffffffffffffffffffffffffffffffffffffffff1673ffffffffffffffffffffffffffffffffffffffff16636352211e856040518263ffffffff1660e01b81526004016106c29190612e7c565b602060405180830381865afa1580156106df573d6000803e3d6000fd5b505050506040513d601f19601f820116820180604052508101906107039190613887565b73ffffffffffffffffffffffffffffffffffffffff16145b905092915050565b60606000610731858561080d565b90506000600460008881526020019081526020016000206000838152602001908152602001600020905060008467ffffffffffffffff81111561077757610776612b83565b5b6040519080825280602002602001820160405280156107a55781602001602082028036833780820191505090505b50905060005b858110156107fe576107c681846125c690919063ffffffff16565b8282815181106107d9576107d86138b4565b5b60200260200101901515908115158152505080806107f690613912565b9150506107ab565b50809350505050949350505050565b6000828260405160200161082292919061395a565b6040516020818303038152906040528051906020012060001c905092915050565b610891836001600681111561085b5761085a6137e0565b5b8460405160200161086c9190613857565b6040516020818303038152906040526040518060200160405280600081525085610ba9565b505050565b61089e612602565b80600160006101000a81548173ffffffffffffffffffffffffffffffffffffffff021916908373ffffffffffffffffffffffffffffffffffffffff16021790555050565b600560205280600052604060002060009150905080600001549080600101805461090b906139b9565b80601f0160208091040260200160405190810160405280929190818152602001828054610937906139b9565b80156109845780601f1061095957610100808354040283529160200191610984565b820191906000526020600020905b81548152906001019060200180831161096757829003601f168201915b505050505090806002018054610999906139b9565b80601f01602080910402602001604051908101604052809291908181526020018280546109c5906139b9565b8015610a125780601f106109e757610100808354040283529160200191610a12565b820191906000526020600020905b8154815290600101906020018083116109f557829003601f168201915b5050505050905083565b610a24612602565b80600260006101000a81548173ffffffffffffffffffffffffffffffffffffffff021916908373ffffffffffffffffffffffffffffffffffffffff16021790555050565b60606000610a76848461080d565b90506000610a9560066000848152602001908152602001600020612680565b905060008167ffffffffffffffff811115610ab357610ab2612b83565b5b604051908082528060200260200182016040528015610ae15781602001602082028036833780820191505090505b50905060005b82811015610b4657610b14816006600087815260200190815260200160002061269590919063ffffffff16565b828281518110610b2757610b266138b4565b5b6020026020010181815250508080610b3e90613912565b915050610ae7565b5080935050505092915050565b600080610b60848461080d565b90506000610b8982600360008981526020019081526020016000206126af90919063ffffffff16565b905080610b9b57600092505050610ba2565b6001925050505b9392505050565b6000600160009054906101000a900473ffffffffffffffffffffffffffffffffffffffff1673ffffffffffffffffffffffffffffffffffffffff16636352211e876040518263ffffffff1660e01b8152600401610c069190612e7c565b602060405180830381865afa158015610c23573d6000803e3d6000fd5b505050506040513d601f19601f82011682018060405250810190610c479190613887565b90508073ffffffffffffffffffffffffffffffffffffffff163373ffffffffffffffffffffffffffffffffffffffff1614610cb7576040517f08c379a0000000000000000000000000000000000000000000000000000000008152600401610cae90613a6d565b60405180910390fd5b600060405180606001604052808781526020018681526020018581525090506000610ce2878761080d565b90506000600560008381526020019081526020016000206002018054610d07906139b9565b90501480610d455750848051906020012060056000838152602001908152602001600020600201604051610d3b9190613b30565b6040518091039020145b610d84576040517f08c379a0000000000000000000000000000000000000000000000000000000008152600401610d7b90613bdf565b60405180910390fd5b8160056000838152602001908152602001600020600082015181600001556020820151816001019081610db79190613d8c565b506040820151816002019081610dcd9190613d8c565b509050506000600360008a81526020019081526020016000209050610dfb82826126c990919063ffffffff16565b506000600660008481526020019081526020016000209050610e268a826126c990919063ffffffff16565b5060005b8651811015610ed8576000878281518110610e4857610e476138b4565b5b60200260200101519050610e8881600460008f815260200190815260200160002060008881526020019081526020016000206126e390919063ffffffff16565b8b7f29eb060f266aff306ec81b612728a417406dd6298f8f7576a37b4e6830dcc60e868c84604051610ebc93929190613e5e565b60405180910390a2508080610ed090613912565b915050610e2a565b50897fd7db314a62650aaa1b15d4bb5c95c558a03cde3ee7f36e144b73126a3a8e839a8a8a8a604051610f0d939291906130a7565b60405180910390a250505050505050505050565b6000600160009054906101000a900473ffffffffffffffffffffffffffffffffffffffff1673ffffffffffffffffffffffffffffffffffffffff16636352211e856040518263ffffffff1660e01b8152600401610f7e9190612e7c565b602060405180830381865afa158015610f9b573d6000803e3d6000fd5b505050506040513d601f19601f82011682018060405250810190610fbf9190613887565b90508073ffffffffffffffffffffffffffffffffffffffff163373ffffffffffffffffffffffffffffffffffffffff161461102f576040517f08c379a000000000000000000000000000000000000000000000000000000000815260040161102690613f0e565b60405180910390fd5b600061103b848461080d565b90506000600360008781526020019081526020016000209050611067828261272190919063ffffffff16565b506000600660008481526020019081526020016000209050611092878261272190919063ffffffff16565b50867f9830658acd6a41f1cb12b425ed83cb2b8ccbfa753337cd13be80be51fc3f337384876040516110c592919061395a565b60405180910390a250505050505050565b6000600160009054906101000a900473ffffffffffffffffffffffffffffffffffffffff1673ffffffffffffffffffffffffffffffffffffffff16636352211e866040518263ffffffff1660e01b81526004016111339190612e7c565b602060405180830381865afa158015611150573d6000803e3d6000fd5b505050506040513d601f19601f820116820180604052508101906111749190613887565b90508073ffffffffffffffffffffffffffffffffffffffff163373ffffffffffffffffffffffffffffffffffffffff16146111e4576040517f08c379a00000000000000000000000000000000000000000000000000000000081526004016111db90613fc6565b60405180910390fd5b60006111f0858561080d565b9050611228836004600089815260200190815260200160002060008481526020019081526020016000206126e390919063ffffffff16565b857f29eb060f266aff306ec81b612728a417406dd6298f8f7576a37b4e6830dcc60e82868660405161125c93929190613e5e565b60405180910390a2505050505050565b611274612602565b61127e600061273b565b565b6000600160009054906101000a900473ffffffffffffffffffffffffffffffffffffffff1673ffffffffffffffffffffffffffffffffffffffff16636352211e866040518263ffffffff1660e01b81526004016112dd9190612e7c565b602060405180830381865afa1580156112fa573d6000803e3d6000fd5b505050506040513d601f19601f8201168201806040525081019061131e9190613887565b90508073ffffffffffffffffffffffffffffffffffffffff163373ffffffffffffffffffffffffffffffffffffffff161461138e576040517f08c379a00000000000000000000000000000000000000000000000000000000081526004016113859061407e565b60405180910390fd5b600061139a858561080d565b90506113d2836004600089815260200190815260200160002060008481526020019081526020016000206127ff90919063ffffffff16565b857f49bb3a0761ed218e1db1e9c41096ed35188868994cc37a32e1f25855745b424e86868660405161140693929190613e5e565b60405180910390a2505050505050565b611445836002600681111561142e5761142d6137e0565b5b846040518060200160405280600081525085610ba9565b505050565b60008060009054906101000a900473ffffffffffffffffffffffffffffffffffffffff16905090565b60606000611481848461080d565b9050600060056000838152602001908152602001600020604051806060016040529081600082015481526020016001820180546114bd906139b9565b80601f01602080910402602001604051908101604052809291908181526020018280546114e9906139b9565b80156115365780601f1061150b57610100808354040283529160200191611536565b820191906000526020600020905b81548152906001019060200180831161151957829003601f168201915b5050505050815260200160028201805461154f906139b9565b80601f016020809104026020016040519081016040528092919081815260200182805461157b906139b9565b80156115c85780601f1061159d576101008083540402835291602001916115c8565b820191906000526020600020905b8154815290600101906020018083116115ab57829003601f168201915b505050505081525050905080604001519250505092915050565b6000806115ef858561080d565b9050600061162984600460008a815260200190815260200160002060008581526020019081526020016000206125c690919063ffffffff16565b90508092505050949350505050565b6060600061165760036000858152602001908152602001600020612680565b90506000805b8281101561182057600061168c826003600089815260200190815260200160002061269590919063ffffffff16565b9050600060056000838152602001908152602001600020604051806060016040529081600082015481526020016001820180546116c8906139b9565b80601f01602080910402602001604051908101604052809291908181526020018280546116f4906139b9565b80156117415780601f1061171657610100808354040283529160200191611741565b820191906000526020600020905b81548152906001019060200180831161172457829003601f168201915b5050505050815260200160028201805461175a906139b9565b80601f0160208091040260200160405190810160405280929190818152602001828054611786906139b9565b80156117d35780601f106117a8576101008083540402835291602001916117d3565b820191906000526020600020905b8154815290600101906020018083116117b657829003601f168201915b5050505050815250509050600160068111156117f2576117f16137e0565b5b81600001510361180b57838061180790613912565b9450505b5050808061181890613912565b91505061165d565b506000600160009054906101000a900473ffffffffffffffffffffffffffffffffffffffff1673ffffffffffffffffffffffffffffffffffffffff16634f558e79866040518263ffffffff1660e01b815260040161187e9190612e7c565b602060405180830381865afa15801561189b573d6000803e3d6000fd5b505050506040513d601f19601f820116820180604052508101906118bf91906140ca565b9050606060008215611a25576001846118d891906140f7565b67ffffffffffffffff8111156118f1576118f0612b83565b5b60405190808252806020026020018201604052801561191f5781602001602082028036833780820191505090505b5091506000600160009054906101000a900473ffffffffffffffffffffffffffffffffffffffff1673ffffffffffffffffffffffffffffffffffffffff16636352211e896040518263ffffffff1660e01b815260040161197f9190612e7c565b602060405180830381865afa15801561199c573d6000803e3d6000fd5b505050506040513d601f19601f820116820180604052508101906119c09190613887565b905080836000815181106119d7576119d66138b4565b5b602002602001019073ffffffffffffffffffffffffffffffffffffffff16908173ffffffffffffffffffffffffffffffffffffffff16815250508180611a1c90613912565b92505050611a71565b8367ffffffffffffffff811115611a3f57611a3e612b83565b5b604051908082528060200260200182016040528015611a6d5781602001602082028036833780820191505090505b5091505b60005b85811015611ca7576000611aa382600360008c815260200190815260200160002061269590919063ffffffff16565b905060006005600083815260200190815260200160002060405180606001604052908160008201548152602001600182018054611adf906139b9565b80601f0160208091040260200160405190810160405280929190818152602001828054611b0b906139b9565b8015611b585780601f10611b2d57610100808354040283529160200191611b58565b820191906000526020600020905b815481529060010190602001808311611b3b57829003601f168201915b50505050508152602001600282018054611b71906139b9565b80601f0160208091040260200160405190810160405280929190818152602001828054611b9d906139b9565b8015611bea5780601f10611bbf57610100808354040283529160200191611bea565b820191906000526020600020905b815481529060010190602001808311611bcd57829003601f168201915b505050505081525050905060016006811115611c0957611c086137e0565b5b816000015103611c9257600080826020015190506c01000000000000000000000000602082015104915081878781518110611c4757611c466138b4565b5b602002602001019073ffffffffffffffffffffffffffffffffffffffff16908173ffffffffffffffffffffffffffffffffffffffff16815250508580611c8c90613912565b96505050505b50508080611c9f90613912565b915050611a74565b508195505050505050919050565b611cf28260016006811115611ccd57611ccc6137e0565b5b83604051602001611cde9190613857565b604051602081830303815290604052610f21565b5050565b60606000611d1560036000858152602001908152602001600020612680565b90506000805b82811015611ede576000611d4a826003600089815260200190815260200160002061269590919063ffffffff16565b905060006005600083815260200190815260200160002060405180606001604052908160008201548152602001600182018054611d86906139b9565b80601f0160208091040260200160405190810160405280929190818152602001828054611db2906139b9565b8015611dff5780601f10611dd457610100808354040283529160200191611dff565b820191906000526020600020905b815481529060010190602001808311611de257829003601f168201915b50505050508152602001600282018054611e18906139b9565b80601f0160208091040260200160405190810160405280929190818152602001828054611e44906139b9565b8015611e915780601f10611e6657610100808354040283529160200191611e91565b820191906000526020600020905b815481529060010190602001808311611e7457829003601f168201915b505050505081525050905060026006811115611eb057611eaf6137e0565b5b816000015103611ec9578380611ec590613912565b9450505b50508080611ed690613912565b915050611d1b565b5060008167ffffffffffffffff811115611efb57611efa612b83565b5b604051908082528060200260200182016040528015611f2e57816020015b6060815260200190600190039081611f195790505b5090506000805b8481101561211b576000611f6482600360008b815260200190815260200160002061269590919063ffffffff16565b905060006005600083815260200190815260200160002060405180606001604052908160008201548152602001600182018054611fa0906139b9565b80601f0160208091040260200160405190810160405280929190818152602001828054611fcc906139b9565b80156120195780601f10611fee57610100808354040283529160200191612019565b820191906000526020600020905b815481529060010190602001808311611ffc57829003601f168201915b50505050508152602001600282018054612032906139b9565b80601f016020809104026020016040519081016040528092919081815260200182805461205e906139b9565b80156120ab5780601f10612080576101008083540402835291602001916120ab565b820191906000526020600020905b81548152906001019060200180831161208e57829003601f168201915b5050505050815250509050600260068111156120ca576120c96137e0565b5b8160000151036121065780602001518585815181106120ec576120eb6138b4565b5b6020026020010181905250838061210290613912565b9450505b5050808061211390613912565b915050611f35565b5081945050505050919050565b6000600260009054906101000a900473ffffffffffffffffffffffffffffffffffffffff1673ffffffffffffffffffffffffffffffffffffffff1663bd4986a0836040518263ffffffff1660e01b81526004016121859190612e7c565b602060405180830381865afa1580156121a2573d6000803e3d6000fd5b505050506040513d601f19601f820116820180604052508101906121c69190613887565b9050919050565b6121eb82600260068111156121e5576121e46137e0565b5b83610f21565b5050565b6060600260009054906101000a900473ffffffffffffffffffffffffffffffffffffffff1673ffffffffffffffffffffffffffffffffffffffff1663ef6fd878836040518263ffffffff1660e01b815260040161224c9190612e7c565b600060405180830381865afa158015612269573d6000803e3d6000fd5b505050506040513d6000823e3d601f19601f82011682018060405250810190612292919061419b565b9050919050565b6122a1612602565b600073ffffffffffffffffffffffffffffffffffffffff168173ffffffffffffffffffffffffffffffffffffffff1603612310576040517f08c379a000000000000000000000000000000000000000000000000000000000815260040161230790614256565b60405180910390fd5b6123198161273b565b50565b6060600061233b60036000858152602001908152602001600020612680565b905060008167ffffffffffffffff81111561235957612358612b83565b5b60405190808252806020026020018201604052801561239257816020015b61237f612a29565b8152602001906001900390816123775790505b50905060005b828110156125475760006123c7826003600089815260200190815260200160002061269590919063ffffffff16565b90506005600082815260200190815260200160002060405180606001604052908160008201548152602001600182018054612401906139b9565b80601f016020809104026020016040519081016040528092919081815260200182805461242d906139b9565b801561247a5780601f1061244f5761010080835404028352916020019161247a565b820191906000526020600020905b81548152906001019060200180831161245d57829003601f168201915b50505050508152602001600282018054612493906139b9565b80601f01602080910402602001604051908101604052809291908181526020018280546124bf906139b9565b801561250c5780601f106124e15761010080835404028352916020019161250c565b820191906000526020600020905b8154815290600101906020018083116124ef57829003601f168201915b505050505081525050838381518110612528576125276138b4565b5b602002602001018190525050808061253f90613912565b915050612398565b508092505050919050565b600260009054906101000a900473ffffffffffffffffffffffffffffffffffffffff1681565b60006125988360026006811115612592576125916137e0565b5b84610b53565b905092915050565b600160009054906101000a900473ffffffffffffffffffffffffffffffffffffffff1681565b600080600883901c9050600060ff84166001901b9050600081866000016000858152602001908152602001600020541614159250505092915050565b61260a61283e565b73ffffffffffffffffffffffffffffffffffffffff1661262861144a565b73ffffffffffffffffffffffffffffffffffffffff161461267e576040517f08c379a0000000000000000000000000000000000000000000000000000000008152600401612675906142c2565b60405180910390fd5b565b600061268e82600001612846565b9050919050565b60006126a48360000183612857565b60001c905092915050565b60006126c1836000018360001b612882565b905092915050565b60006126db836000018360001b6128a5565b905092915050565b6000600882901c9050600060ff83166001901b9050808460000160008481526020019081526020016000206000828254179250508190555050505050565b6000612733836000018360001b612915565b905092915050565b60008060009054906101000a900473ffffffffffffffffffffffffffffffffffffffff169050816000806101000a81548173ffffffffffffffffffffffffffffffffffffffff021916908373ffffffffffffffffffffffffffffffffffffffff1602179055508173ffffffffffffffffffffffffffffffffffffffff168173ffffffffffffffffffffffffffffffffffffffff167f8be0079c531659141344cd1fd0a4f28419497f9722a3daafe3b4186f6b6457e060405160405180910390a35050565b6000600882901c9050600060ff83166001901b905080198460000160008481526020019081526020016000206000828254169250508190555050505050565b600033905090565b600081600001805490509050919050565b600082600001828154811061286f5761286e6138b4565b5b9060005260206000200154905092915050565b600080836001016000848152602001908152602001600020541415905092915050565b60006128b18383612882565b61290a57826000018290806001815401808255809150506001900390600052602060002001600090919091909150558260000180549050836001016000848152602001908152602001600020819055506001905061290f565b600090505b92915050565b60008083600101600084815260200190815260200160002054905060008114612a1d57600060018261294791906142e2565b905060006001866000018054905061295f91906142e2565b90508181146129ce5760008660000182815481106129805761297f6138b4565b5b90600052602060002001549050808760000184815481106129a4576129a36138b4565b5b90600052602060002001819055508387600101600083815260200190815260200160002081905550505b856000018054806129e2576129e1614316565b5b600190038181906000526020600020016000905590558560010160008681526020019081526020016000206000905560019350505050612a23565b60009150505b92915050565b60405180606001604052806000815260200160608152602001606081525090565b6000604051905090565b600080fd5b600080fd5b6000819050919050565b612a7181612a5e565b8114612a7c57600080fd5b50565b600081359050612a8e81612a68565b92915050565b600073ffffffffffffffffffffffffffffffffffffffff82169050919050565b6000612abf82612a94565b9050919050565b612acf81612ab4565b8114612ada57600080fd5b50565b600081359050612aec81612ac6565b92915050565b60008060408385031215612b0957612b08612a54565b5b6000612b1785828601612a7f565b9250506020612b2885828601612add565b9150509250929050565b60008115159050919050565b612b4781612b32565b82525050565b6000602082019050612b626000830184612b3e565b92915050565b600080fd5b600080fd5b6000601f19601f8301169050919050565b7f4e487b7100000000000000000000000000000000000000000000000000000000600052604160045260246000fd5b612bbb82612b72565b810181811067ffffffffffffffff82111715612bda57612bd9612b83565b5b80604052505050565b6000612bed612a4a565b9050612bf98282612bb2565b919050565b600067ffffffffffffffff821115612c1957612c18612b83565b5b612c2282612b72565b9050602081019050919050565b82818337600083830152505050565b6000612c51612c4c84612bfe565b612be3565b905082815260208101848484011115612c6d57612c6c612b6d565b5b612c78848285612c2f565b509392505050565b600082601f830112612c9557612c94612b68565b5b8135612ca5848260208601612c3e565b91505092915050565b60008060008060808587031215612cc857612cc7612a54565b5b6000612cd687828801612a7f565b9450506020612ce787828801612a7f565b935050604085013567ffffffffffffffff811115612d0857612d07612a59565b5b612d1487828801612c80565b9250506060612d2587828801612a7f565b91505092959194509250565b600081519050919050565b600082825260208201905092915050565b6000819050602082019050919050565b612d6681612b32565b82525050565b6000612d788383612d5d565b60208301905092915050565b6000602082019050919050565b6000612d9c82612d31565b612da68185612d3c565b9350612db183612d4d565b8060005b83811015612de2578151612dc98882612d6c565b9750612dd483612d84565b925050600181019050612db5565b5085935050505092915050565b60006020820190508181036000830152612e098184612d91565b905092915050565b60008060408385031215612e2857612e27612a54565b5b6000612e3685828601612a7f565b925050602083013567ffffffffffffffff811115612e5757612e56612a59565b5b612e6385828601612c80565b9150509250929050565b612e7681612a5e565b82525050565b6000602082019050612e916000830184612e6d565b92915050565b600067ffffffffffffffff821115612eb257612eb1612b83565b5b602082029050602081019050919050565b600080fd5b6000612edb612ed684612e97565b612be3565b90508083825260208201905060208402830185811115612efe57612efd612ec3565b5b835b81811015612f275780612f138882612a7f565b845260208401935050602081019050612f00565b5050509392505050565b600082601f830112612f4657612f45612b68565b5b8135612f56848260208601612ec8565b91505092915050565b600080600060608486031215612f7857612f77612a54565b5b6000612f8686828701612a7f565b9350506020612f9786828701612add565b925050604084013567ffffffffffffffff811115612fb857612fb7612a59565b5b612fc486828701612f31565b9150509250925092565b600060208284031215612fe457612fe3612a54565b5b6000612ff284828501612add565b91505092915050565b60006020828403121561301157613010612a54565b5b600061301f84828501612a7f565b91505092915050565b600081519050919050565b600082825260208201905092915050565b60005b83811015613062578082015181840152602081019050613047565b60008484015250505050565b600061307982613028565b6130838185613033565b9350613093818560208601613044565b61309c81612b72565b840191505092915050565b60006060820190506130bc6000830186612e6d565b81810360208301526130ce818561306e565b905081810360408301526130e2818461306e565b9050949350505050565b600081519050919050565b600082825260208201905092915050565b6000819050602082019050919050565b61312181612a5e565b82525050565b60006131338383613118565b60208301905092915050565b6000602082019050919050565b6000613157826130ec565b61316181856130f7565b935061316c83613108565b8060005b8381101561319d5781516131848882613127565b975061318f8361313f565b925050600181019050613170565b5085935050505092915050565b600060208201905081810360008301526131c4818461314c565b905092915050565b6000806000606084860312156131e5576131e4612a54565b5b60006131f386828701612a7f565b935050602061320486828701612a7f565b925050604084013567ffffffffffffffff81111561322557613224612a59565b5b61323186828701612c80565b9150509250925092565b600080600080600060a0868803121561325757613256612a54565b5b600061326588828901612a7f565b955050602061327688828901612a7f565b945050604086013567ffffffffffffffff81111561329757613296612a59565b5b6132a388828901612c80565b935050606086013567ffffffffffffffff8111156132c4576132c3612a59565b5b6132d088828901612c80565b925050608086013567ffffffffffffffff8111156132f1576132f0612a59565b5b6132fd88828901612f31565b9150509295509295909350565b60008060006060848603121561332357613322612a54565b5b600061333186828701612a7f565b935050602084013567ffffffffffffffff81111561335257613351612a59565b5b61335e86828701612c80565b925050604084013567ffffffffffffffff81111561337f5761337e612a59565b5b61338b86828701612f31565b9150509250925092565b61339e81612ab4565b82525050565b60006020820190506133b96000830184613395565b92915050565b600060208201905081810360008301526133d9818461306e565b905092915050565b600081519050919050565b600082825260208201905092915050565b6000819050602082019050919050565b61341681612ab4565b82525050565b6000613428838361340d565b60208301905092915050565b6000602082019050919050565b600061344c826133e1565b61345681856133ec565b9350613461836133fd565b8060005b83811015613492578151613479888261341c565b975061348483613434565b925050600181019050613465565b5085935050505092915050565b600060208201905081810360008301526134b98184613441565b905092915050565b600081519050919050565b600082825260208201905092915050565b6000819050602082019050919050565b600082825260208201905092915050565b600061350982613028565b61351381856134ed565b9350613523818560208601613044565b61352c81612b72565b840191505092915050565b600061354383836134fe565b905092915050565b6000602082019050919050565b6000613563826134c1565b61356d81856134cc565b93508360208202850161357f856134dd565b8060005b858110156135bb578484038952815161359c8582613537565b94506135a78361354b565b925060208a01995050600181019050613583565b50829750879550505050505092915050565b600060208201905081810360008301526135e78184613558565b905092915050565b600081519050919050565b600082825260208201905092915050565b6000819050602082019050919050565b60006060830160008301516136336000860182613118565b506020830151848203602086015261364b82826134fe565b9150506040830151848203604086015261366582826134fe565b9150508091505092915050565b600061367e838361361b565b905092915050565b6000602082019050919050565b600061369e826135ef565b6136a881856135fa565b9350836020820285016136ba8561360b565b8060005b858110156136f657848403895281516136d78582613672565b94506136e283613686565b925060208a019950506001810190506136be565b50829750879550505050505092915050565b600060208201905081810360008301526137228184613693565b905092915050565b6000819050919050565b600061374f61374a61374584612a94565b61372a565b612a94565b9050919050565b600061376182613734565b9050919050565b600061377382613756565b9050919050565b61378381613768565b82525050565b600060208201905061379e600083018461377a565b92915050565b60006137af82613756565b9050919050565b6137bf816137a4565b82525050565b60006020820190506137da60008301846137b6565b92915050565b7f4e487b7100000000000000000000000000000000000000000000000000000000600052602160045260246000fd5b60008160601b9050919050565b60006138278261380f565b9050919050565b60006138398261381c565b9050919050565b61385161384c82612ab4565b61382e565b82525050565b60006138638284613840565b60148201915081905092915050565b60008151905061388181612ac6565b92915050565b60006020828403121561389d5761389c612a54565b5b60006138ab84828501613872565b91505092915050565b7f4e487b7100000000000000000000000000000000000000000000000000000000600052603260045260246000fd5b7f4e487b7100000000000000000000000000000000000000000000000000000000600052601160045260246000fd5b600061391d82612a5e565b91507fffffffffffffffffffffffffffffffffffffffffffffffffffffffffffffffff820361394f5761394e6138e3565b5b600182019050919050565b600060408201905061396f6000830185612e6d565b8181036020830152613981818461306e565b90509392505050565b7f4e487b7100000000000000000000000000000000000000000000000000000000600052602260045260246000fd5b600060028204905060018216806139d157607f821691505b6020821081036139e4576139e361398a565b5b50919050565b600082825260208201905092915050565b7f4f6e6c792074686520504b50204e4654206f776e65722063616e20616464206160008201527f6e642072656d6f7665207065726d69747465642061757468206d6574686f6473602082015250565b6000613a576040836139ea565b9150613a62826139fb565b604082019050919050565b60006020820190508181036000830152613a8681613a4a565b9050919050565b600081905092915050565b60008190508160005260206000209050919050565b60008154613aba816139b9565b613ac48186613a8d565b94506001821660008114613adf5760018114613af457613b27565b60ff1983168652811515820286019350613b27565b613afd85613a98565b60005b83811015613b1f57815481890152600182019150602081019050613b00565b838801955050505b50505092915050565b6000613b3c8284613aad565b915081905092915050565b7f43616e6e6f7420616464206120646966666572656e74207075626b657920666f60008201527f72207468652073616d652061757468206d6574686f64207479706520616e642060208201527f6964000000000000000000000000000000000000000000000000000000000000604082015250565b6000613bc96042836139ea565b9150613bd482613b47565b606082019050919050565b60006020820190508181036000830152613bf881613bbc565b9050919050565b60006020601f8301049050919050565b600082821b905092915050565b600060088302613c4c7fffffffffffffffffffffffffffffffffffffffffffffffffffffffffffffffff82613c0f565b613c568683613c0f565b95508019841693508086168417925050509392505050565b6000613c89613c84613c7f84612a5e565b61372a565b612a5e565b9050919050565b6000819050919050565b613ca383613c6e565b613cb7613caf82613c90565b848454613c1c565b825550505050565b600090565b613ccc613cbf565b613cd7818484613c9a565b505050565b5b81811015613cfb57613cf0600082613cc4565b600181019050613cdd565b5050565b601f821115613d4057613d1181613a98565b613d1a84613bff565b81016020851015613d29578190505b613d3d613d3585613bff565b830182613cdc565b50505b505050565b600082821c905092915050565b6000613d6360001984600802613d45565b1980831691505092915050565b6000613d7c8383613d52565b9150826002028217905092915050565b613d9582613028565b67ffffffffffffffff811115613dae57613dad612b83565b5b613db882546139b9565b613dc3828285613cff565b600060209050601f831160018114613df65760008415613de4578287015190505b613dee8582613d70565b865550613e56565b601f198416613e0486613a98565b60005b82811015613e2c57848901518255600182019150602085019450602081019050613e07565b86831015613e495784890151613e45601f891682613d52565b8355505b6001600288020188555050505b505050505050565b6000606082019050613e736000830186612e6d565b8181036020830152613e85818561306e565b9050613e946040830184612e6d565b949350505050565b7f4f6e6c792074686520504b50204e4654206f776e65722063616e20616464206160008201527f6e642072656d6f7665207065726d697474656420616464726573736573000000602082015250565b6000613ef8603d836139ea565b9150613f0382613e9c565b604082019050919050565b60006020820190508181036000830152613f2781613eeb565b9050919050565b7f4f6e6c792074686520504b50204e4654206f776e65722063616e20616464206160008201527f6e642072656d6f7665207065726d69747465642061757468206d6574686f642060208201527f73636f7065640000000000000000000000000000000000000000000000000000604082015250565b6000613fb06046836139ea565b9150613fbb82613f2e565b606082019050919050565b60006020820190508181036000830152613fdf81613fa3565b9050919050565b7f4f6e6c792074686520504b50204e4654206f776e65722063616e20616464206160008201527f6e642072656d6f7665207065726d69747465642061757468206d6574686f642060208201527f73636f7065730000000000000000000000000000000000000000000000000000604082015250565b60006140686046836139ea565b915061407382613fe6565b606082019050919050565b600060208201905081810360008301526140978161405b565b9050919050565b6140a781612b32565b81146140b257600080fd5b50565b6000815190506140c48161409e565b92915050565b6000602082840312156140e0576140df612a54565b5b60006140ee848285016140b5565b91505092915050565b600061410282612a5e565b915061410d83612a5e565b9250828201905080821115614125576141246138e3565b5b92915050565b600061413e61413984612bfe565b612be3565b90508281526020810184848401111561415a57614159612b6d565b5b614165848285613044565b509392505050565b600082601f83011261418257614181612b68565b5b815161419284826020860161412b565b91505092915050565b6000602082840312156141b1576141b0612a54565b5b600082015167ffffffffffffffff8111156141cf576141ce612a59565b5b6141db8482850161416d565b91505092915050565b7f4f776e61626c653a206e6577206f776e657220697320746865207a65726f206160008201527f6464726573730000000000000000000000000000000000000000000000000000602082015250565b60006142406026836139ea565b915061424b826141e4565b604082019050919050565b6000602082019050818103600083015261426f81614233565b9050919050565b7f4f776e61626c653a2063616c6c6572206973206e6f7420746865206f776e6572600082015250565b60006142ac6020836139ea565b91506142b782614276565b602082019050919050565b600060208201905081810360008301526142db8161429f565b9050919050565b60006142ed82612a5e565b91506142f883612a5e565b92508282039050818111156143105761430f6138e3565b5b92915050565b7f4e487b7100000000000000000000000000000000000000000000000000000000600052603160045260246000fdfea264697066735822122041049c61e3f76f3a451c536be3531f04c819dd6d97ad738b4e282a10cf2e0dca64736f6c63430008110033","abi":[{"inputs":[{"internalType":"address","name":"_pkpNft","type":"address"},{"internalType":"address","name":"_router","type":"address"}],"stateMutability":"nonpayable","type":"constructor"},{"anonymous":false,"inputs":[{"indexed":true,"internalType":"address","name":"previousOwner","type":"address"},{"indexed":true,"internalType":"address","name":"newOwner","type":"address"}],"name":"OwnershipTransferred","type":"event"},{"anonymous":false,"inputs":[{"indexed":true,"internalType":"uint256","name":"tokenId","type":"uint256"},{"indexed":false,"internalType":"uint256","name":"authMethodType","type":"uint256"},{"indexed":false,"internalType":"bytes","name":"id","type":"bytes"},{"indexed":false,"internalType":"bytes","name":"userPubkey","type":"bytes"}],"name":"PermittedAuthMethodAdded","type":"event"},{"anonymous":false,"inputs":[{"indexed":true,"internalType":"uint256","name":"tokenId","type":"uint256"},{"indexed":false,"internalType":"uint256","name":"authMethodType","type":"uint256"},{"indexed":false,"internalType":"bytes","name":"id","type":"bytes"}],"name":"PermittedAuthMethodRemoved","type":"event"},{"anonymous":false,"inputs":[{"indexed":true,"internalType":"uint256","name":"tokenId","type":"uint256"},{"indexed":false,"internalType":"uint256","name":"authMethodType","type":"uint256"},{"indexed":false,"internalType":"bytes","name":"id","type":"bytes"},{"indexed":false,"internalType":"uint256","name":"scopeId","type":"uint256"}],"name":"PermittedAuthMethodScopeAdded","type":"event"},{"anonymous":false,"inputs":[{"indexed":true,"internalType":"uint256","name":"tokenId","type":"uint256"},{"indexed":false,"internalType":"uint256","name":"authMethodType","type":"uint256"},{"indexed":false,"internalType":"bytes","name":"id","type":"bytes"},{"indexed":false,"internalType":"uint256","name":"scopeId","type":"uint256"}],"name":"PermittedAuthMethodScopeRemoved","type":"event"},{"inputs":[{"internalType":"uint256","name":"tokenId","type":"uint256"},{"internalType":"bytes","name":"ipfsCID","type":"bytes"},{"internalType":"uint256[]","name":"scopes","type":"uint256[]"}],"name":"addPermittedAction","outputs":[],"stateMutability":"nonpayable","type":"function"},{"inputs":[{"internalType":"uint256","name":"tokenId","type":"uint256"},{"internalType":"address","name":"user","type":"address"},{"internalType":"uint256[]","name":"scopes","type":"uint256[]"}],"name":"addPermittedAddress","outputs":[],"stateMutability":"nonpayable","type":"function"},{"inputs":[{"internalType":"uint256","name":"tokenId","type":"uint256"},{"internalType":"uint256","name":"authMethodType","type":"uint256"},{"internalType":"bytes","name":"id","type":"bytes"},{"internalType":"bytes","name":"userPubkey","type":"bytes"},{"internalType":"uint256[]","name":"scopes","type":"uint256[]"}],"name":"addPermittedAuthMethod","outputs":[],"stateMutability":"nonpayable","type":"function"},{"inputs":[{"internalType":"uint256","name":"tokenId","type":"uint256"},{"internalType":"uint256","name":"authMethodType","type":"uint256"},{"internalType":"bytes","name":"id","type":"bytes"},{"internalType":"uint256","name":"scopeId","type":"uint256"}],"name":"addPermittedAuthMethodScope","outputs":[],"stateMutability":"nonpayable","type":"function"},{"inputs":[{"internalType":"uint256","name":"","type":"uint256"}],"name":"authMethods","outputs":[{"internalType":"uint256","name":"authMethodType","type":"uint256"},{"internalType":"bytes","name":"id","type":"bytes"},{"internalType":"bytes","name":"userPubkey","type":"bytes"}],"stateMutability":"view","type":"function"},{"inputs":[{"internalType":"uint256","name":"authMethodType","type":"uint256"},{"internalType":"bytes","name":"id","type":"bytes"}],"name":"getAuthMethodId","outputs":[{"internalType":"uint256","name":"","type":"uint256"}],"stateMutability":"pure","type":"function"},{"inputs":[{"internalType":"uint256","name":"tokenId","type":"uint256"}],"name":"getEthAddress","outputs":[{"internalType":"address","name":"","type":"address"}],"stateMutability":"view","type":"function"},{"inputs":[{"internalType":"uint256","name":"tokenId","type":"uint256"}],"name":"getPermittedActions","outputs":[{"internalType":"bytes[]","name":"","type":"bytes[]"}],"stateMutability":"view","type":"function"},{"inputs":[{"internalType":"uint256","name":"tokenId","type":"uint256"}],"name":"getPermittedAddresses","outputs":[{"internalType":"address[]","name":"","type":"address[]"}],"stateMutability":"view","type":"function"},{"inputs":[{"internalType":"uint256","name":"tokenId","type":"uint256"},{"internalType":"uint256","name":"authMethodType","type":"uint256"},{"internalType":"bytes","name":"id","type":"bytes"},{"internalType":"uint256","name":"maxScopeId","type":"uint256"}],"name":"getPermittedAuthMethodScopes","outputs":[{"internalType":"bool[]","name":"","type":"bool[]"}],"stateMutability":"view","type":"function"},{"inputs":[{"internalType":"uint256","name":"tokenId","type":"uint256"}],"name":"getPermittedAuthMethods","outputs":[{"components":[{"internalType":"uint256","name":"authMethodType","type":"uint256"},{"internalType":"bytes","name":"id","type":"bytes"},{"internalType":"bytes","name":"userPubkey","type":"bytes"}],"internalType":"struct PKPPermissions.AuthMethod[]","name":"","type":"tuple[]"}],"stateMutability":"view","type":"function"},{"inputs":[{"internalType":"uint256","name":"tokenId","type":"uint256"}],"name":"getPubkey","outputs":[{"internalType":"bytes","name":"","type":"bytes"}],"stateMutability":"view","type":"function"},{"inputs":[{"internalType":"uint256","name":"authMethodType","type":"uint256"},{"internalType":"bytes","name":"id","type":"bytes"}],"name":"getTokenIdsForAuthMethod","outputs":[{"internalType":"uint256[]","name":"","type":"uint256[]"}],"stateMutability":"view","type":"function"},{"inputs":[{"internalType":"uint256","name":"authMethodType","type":"uint256"},{"internalType":"bytes","name":"id","type":"bytes"}],"name":"getUserPubkeyForAuthMethod","outputs":[{"internalType":"bytes","name":"","type":"bytes"}],"stateMutability":"view","type":"function"},{"inputs":[{"internalType":"uint256","name":"tokenId","type":"uint256"},{"internalType":"bytes","name":"ipfsCID","type":"bytes"}],"name":"isPermittedAction","outputs":[{"internalType":"bool","name":"","type":"bool"}],"stateMutability":"view","type":"function"},{"inputs":[{"internalType":"uint256","name":"tokenId","type":"uint256"},{"internalType":"address","name":"user","type":"address"}],"name":"isPermittedAddress","outputs":[{"internalType":"bool","name":"","type":"bool"}],"stateMutability":"view","type":"function"},{"inputs":[{"internalType":"uint256","name":"tokenId","type":"uint256"},{"internalType":"uint256","name":"authMethodType","type":"uint256"},{"internalType":"bytes","name":"id","type":"bytes"}],"name":"isPermittedAuthMethod","outputs":[{"internalType":"bool","name":"","type":"bool"}],"stateMutability":"view","type":"function"},{"inputs":[{"internalType":"uint256","name":"tokenId","type":"uint256"},{"internalType":"uint256","name":"authMethodType","type":"uint256"},{"internalType":"bytes","name":"id","type":"bytes"},{"internalType":"uint256","name":"scopeId","type":"uint256"}],"name":"isPermittedAuthMethodScopePresent","outputs":[{"internalType":"bool","name":"","type":"bool"}],"stateMutability":"view","type":"function"},{"inputs":[],"name":"owner","outputs":[{"internalType":"address","name":"","type":"address"}],"stateMutability":"view","type":"function"},{"inputs":[],"name":"pkpNFT","outputs":[{"internalType":"contract PKPNFT","name":"","type":"address"}],"stateMutability":"view","type":"function"},{"inputs":[{"internalType":"uint256","name":"tokenId","type":"uint256"},{"internalType":"bytes","name":"ipfsCID","type":"bytes"}],"name":"removePermittedAction","outputs":[],"stateMutability":"nonpayable","type":"function"},{"inputs":[{"internalType":"uint256","name":"tokenId","type":"uint256"},{"internalType":"address","name":"user","type":"address"}],"name":"removePermittedAddress","outputs":[],"stateMutability":"nonpayable","type":"function"},{"inputs":[{"internalType":"uint256","name":"tokenId","type":"uint256"},{"internalType":"uint256","name":"authMethodType","type":"uint256"},{"internalType":"bytes","name":"id","type":"bytes"}],"name":"removePermittedAuthMethod","outputs":[],"stateMutability":"nonpayable","type":"function"},{"inputs":[{"internalType":"uint256","name":"tokenId","type":"uint256"},{"internalType":"uint256","name":"authMethodType","type":"uint256"},{"internalType":"bytes","name":"id","type":"bytes"},{"internalType":"uint256","name":"scopeId","type":"uint256"}],"name":"removePermittedAuthMethodScope","outputs":[],"stateMutability":"nonpayable","type":"function"},{"inputs":[],"name":"renounceOwnership","outputs":[],"stateMutability":"nonpayable","type":"function"},{"inputs":[],"name":"router","outputs":[{"internalType":"contract PubkeyRouter","name":"","type":"address"}],"stateMutability":"view","type":"function"},{"inputs":[{"internalType":"address","name":"newPkpNftAddress","type":"address"}],"name":"setPkpNftAddress","outputs":[],"stateMutability":"nonpayable","type":"function"},{"inputs":[{"internalType":"address","name":"newRouterAddress","type":"address"}],"name":"setRouterAddress","outputs":[],"stateMutability":"nonpayable","type":"function"},{"inputs":[{"internalType":"address","name":"newOwner","type":"address"}],"name":"transferOwnership","outputs":[],"stateMutability":"nonpayable","type":"function"}]}