{"address":"0x268D567667E982Ec22b432F871646Ed794bc3c4C","bytecode":"0x60806040526236ee80600f55620493e0601055600a6011553480156200002457600080fd5b50604051806060016040528060248152602001620053dc602491396040518060400160405280600381526020017f524c49000000000000000000000000000000000000000000000000000000000081525081600090805190602001906200008d929190620001a5565b508060019080519060200190620000a6929190620001a5565b505050620000c9620000bd620000d760201b60201c565b620000df60201b60201c565b6001600d81905550620002ba565b600033905090565b6000600660009054906101000a900473ffffffffffffffffffffffffffffffffffffffff16905081600660006101000a81548173ffffffffffffffffffffffffffffffffffffffff021916908373ffffffffffffffffffffffffffffffffffffffff1602179055508173ffffffffffffffffffffffffffffffffffffffff168173ffffffffffffffffffffffffffffffffffffffff167f8be0079c531659141344cd1fd0a4f28419497f9722a3daafe3b4186f6b6457e060405160405180910390a35050565b828054620001b39062000255565b90600052602060002090601f016020900481019282620001d7576000855562000223565b82601f10620001f257805160ff191683800117855562000223565b8280016001018555821562000223579182015b828111156200022257825182559160200191906001019062000205565b5b50905062000232919062000236565b5090565b5b808211156200025157600081600090555060010162000237565b5090565b600060028204905060018216806200026e57607f821691505b602082108114156200028557620002846200028b565b5b50919050565b7f4e487b7100000000000000000000000000000000000000000000000000000000600052602260045260246000fd5b61511280620002ca6000396000f3fe6080604052600436106102515760003560e01c80636a8e29ed11610139578063a0712d68116100b6578063c87b56dd1161007a578063c87b56dd146108c6578063ce39469614610903578063d9548e5314610940578063e985e9c51461097d578063f2fde38b146109ba578063faea717c146109e357610251565b8063a0712d68146107ef578063a22cb4651461080b578063ab1bbeca14610834578063b88d4fde14610872578063b94a21021461089b57610251565b80638da5cb5b116100fd5780638da5cb5b1461071c57806395d89b411461074757806398bdf6f514610772578063995eebab1461079d5780639fadb643146107c657610251565b80636a8e29ed1461064957806370a0823114610672578063715018a6146106af5780638b7afe2e146106c65780638c8e3c84146106f157610251565b80632f745c59116101d25780634116b893116101965780634116b8931461051557806342842e0e1461055257806342966c681461057b57806345ca8a7a146105a45780634f6ccce7146105cf5780636352211e1461060c57610251565b80632f745c59146104325780633488ab131461046f5780633b189852146104985780633b1a72cc146104c15780633ccfd60b146104fe57610251565b80631f275713116102195780631f2757131461034f57806320fef3df1461038c57806323b872dd146103b557806326894764146103de57806328b9b37c1461040957610251565b806301ffc9a71461025657806306fdde0314610293578063081812fc146102be578063095ea7b3146102fb57806318160ddd14610324575b600080fd5b34801561026257600080fd5b5061027d60048036038101906102789190613065565b610a0e565b60405161028a91906137cc565b60405180910390f35b34801561029f57600080fd5b506102a8610b48565b6040516102b59190613847565b60405180910390f35b3480156102ca57600080fd5b506102e560048036038101906102e091906130bf565b610bda565b6040516102f29190613765565b60405180910390f35b34801561030757600080fd5b50610322600480360381019061031d9190612ff8565b610c20565b005b34801561033057600080fd5b50610339610d38565b6040516103469190613ae9565b60405180910390f35b34801561035b57600080fd5b5061037660048036038101906103719190613038565b610d45565b60405161038391906137e7565b60405180910390f35b34801561039857600080fd5b506103b360048036038101906103ae91906130bf565b610d75565b005b3480156103c157600080fd5b506103dc60048036038101906103d79190612ee2565b610d87565b005b3480156103ea57600080fd5b506103f3610de7565b6040516104009190613ae9565b60405180910390f35b34801561041557600080fd5b50610430600480360381019061042b91906130bf565b610ded565b005b34801561043e57600080fd5b5061045960048036038101906104549190612ff8565b610dff565b6040516104669190613ae9565b60405180910390f35b34801561047b57600080fd5b506104966004803603810190610491919061312c565b610ea4565b005b3480156104a457600080fd5b506104bf60048036038101906104ba9190612e75565b611069565b005b3480156104cd57600080fd5b506104e860048036038101906104e39190613038565b6110b5565b6040516104f591906137cc565b60405180910390f35b34801561050a57600080fd5b506105136110d5565b005b34801561052157600080fd5b5061053c600480360381019061053791906130ec565b611130565b6040516105499190613ae9565b60405180910390f35b34801561055e57600080fd5b5061057960048036038101906105749190612ee2565b6111b9565b005b34801561058757600080fd5b506105a2600480360381019061059d91906130bf565b6111d9565b005b3480156105b057600080fd5b506105b9611235565b6040516105c69190613ae9565b60405180910390f35b3480156105db57600080fd5b506105f660048036038101906105f191906130bf565b61123b565b6040516106039190613ae9565b60405180910390f35b34801561061857600080fd5b50610633600480360381019061062e91906130bf565b6112ac565b6040516106409190613765565b60405180910390f35b34801561065557600080fd5b50610670600480360381019061066b91906130bf565b61135e565b005b34801561067e57600080fd5b5061069960048036038101906106949190612e75565b611370565b6040516106a69190613ae9565b60405180910390f35b3480156106bb57600080fd5b506106c4611428565b005b3480156106d257600080fd5b506106db61143c565b6040516106e89190613ae9565b60405180910390f35b3480156106fd57600080fd5b50610706611442565b6040516107139190613ae9565b60405180910390f35b34801561072857600080fd5b50610731611448565b60405161073e9190613765565b60405180910390f35b34801561075357600080fd5b5061075c611472565b6040516107699190613847565b60405180910390f35b34801561077e57600080fd5b50610787611504565b6040516107949190613ae9565b60405180910390f35b3480156107a957600080fd5b506107c460048036038101906107bf919061312c565b61150a565b005b3480156107d257600080fd5b506107ed60048036038101906107e891906130bf565b611577565b005b610809600480360381019061080491906130bf565b611589565b005b34801561081757600080fd5b50610832600480360381019061082d9190612fb8565b61163d565b005b34801561084057600080fd5b5061085b600480360381019061085691906130bf565b611653565b604051610869929190613b04565b60405180910390f35b34801561087e57600080fd5b5061089960048036038101906108949190612f35565b611677565b005b3480156108a757600080fd5b506108b06116d9565b6040516108bd9190613765565b60405180910390f35b3480156108d257600080fd5b506108ed60048036038101906108e891906130bf565b6116ff565b6040516108fa9190613847565b60405180910390f35b34801561090f57600080fd5b5061092a600480360381019061092591906130ec565b6117b6565b6040516109379190613ae9565b60405180910390f35b34801561094c57600080fd5b50610967600480360381019061096291906130bf565b61183f565b60405161097491906137cc565b60405180910390f35b34801561098957600080fd5b506109a4600480360381019061099f9190612ea2565b611862565b6040516109b191906137cc565b60405180910390f35b3480156109c657600080fd5b506109e160048036038101906109dc9190612e75565b6118f6565b005b3480156109ef57600080fd5b506109f861197a565b604051610a059190613ae9565b60405180910390f35b60007f780e9d63000000000000000000000000000000000000000000000000000000007bffffffffffffffffffffffffffffffffffffffffffffffffffffffff1916827bffffffffffffffffffffffffffffffffffffffffffffffffffffffff19161480610ad957507f5b5e139f000000000000000000000000000000000000000000000000000000007bffffffffffffffffffffffffffffffffffffffffffffffffffffffff1916827bffffffffffffffffffffffffffffffffffffffffffffffffffffffff1916145b80610b4157507f80ac58cd000000000000000000000000000000000000000000000000000000007bffffffffffffffffffffffffffffffffffffffffffffffffffffffff1916827bffffffffffffffffffffffffffffffffffffffffffffffffffffffff1916145b9050919050565b606060008054610b5790613db3565b80601f0160208091040260200160405190810160405280929190818152602001828054610b8390613db3565b8015610bd05780601f10610ba557610100808354040283529160200191610bd0565b820191906000526020600020905b815481529060010190602001808311610bb357829003601f168201915b5050505050905090565b6000610be582611980565b6004600083815260200190815260200160002060009054906101000a900473ffffffffffffffffffffffffffffffffffffffff169050919050565b6000610c2b826112ac565b90508073ffffffffffffffffffffffffffffffffffffffff168373ffffffffffffffffffffffffffffffffffffffff161415610c9c576040517f08c379a0000000000000000000000000000000000000000000000000000000008152600401610c9390613a49565b60405180910390fd5b8073ffffffffffffffffffffffffffffffffffffffff16610cbb6119cb565b73ffffffffffffffffffffffffffffffffffffffff161480610cea5750610ce981610ce46119cb565b611862565b5b610d29576040517f08c379a0000000000000000000000000000000000000000000000000000000008152600401610d20906139a9565b60405180910390fd5b610d3383836119d3565b505050565b6000600980549050905090565b600081604051602001610d589190613694565b604051602081830303815290604052805190602001209050919050565b610d7d611a8c565b8060108190555050565b610d98610d926119cb565b82611b0a565b610dd7576040517f08c379a0000000000000000000000000000000000000000000000000000000008152600401610dce90613ac9565b60405180910390fd5b610de2838383611b9f565b505050565b60115481565b610df5611a8c565b8060118190555050565b6000610e0a83611370565b8210610e4b576040517f08c379a0000000000000000000000000000000000000000000000000000000008152600401610e4290613869565b60405180910390fd5b600760008473ffffffffffffffffffffffffffffffffffffffff1673ffffffffffffffffffffffffffffffffffffffff168152602001908152602001600020600083815260200190815260200160002054905092915050565b6000610ed78787604051602001610ebc929190613739565b60405160208183030381529060405280519060200120610d45565b9050848114610f1b576040517f08c379a0000000000000000000000000000000000000000000000000000000008152600401610f1290613aa9565b60405180910390fd5b600060018686868660405160008152602001604052604051610f409493929190613802565b6020604051602081039080840390855afa158015610f62573d6000803e3d6000fd5b505050602060405103519050600c60009054906101000a900473ffffffffffffffffffffffffffffffffffffffff1673ffffffffffffffffffffffffffffffffffffffff168173ffffffffffffffffffffffffffffffffffffffff1614610ffe576040517f08c379a0000000000000000000000000000000000000000000000000000000008152600401610ff590613a69565b60405180910390fd5b6013600087815260200190815260200160002060009054906101000a900460ff161561105f576040517f08c379a000000000000000000000000000000000000000000000000000000000815260040161105690613a09565b60405180910390fd5b5050505050505050565b611071611a8c565b80600c60006101000a81548173ffffffffffffffffffffffffffffffffffffffff021916908373ffffffffffffffffffffffffffffffffffffffff16021790555050565b60136020528060005260406000206000915054906101000a900460ff1681565b6110dd611a8c565b3373ffffffffffffffffffffffffffffffffffffffff166108fc600b549081150290604051600060405180830381858888f19350505050158015611125573d6000803e3d6000fd5b506000600b81905550565b6000428211611174576040517f08c379a000000000000000000000000000000000000000000000000000000000815260040161116b90613969565b60405180910390fd5b60006103e842846111859190613cb2565b61118f9190613c58565b90506000600d54826111a19190613c58565b856111ac9190613c27565b9050809250505092915050565b6111d483838360405180602001604052806000815250611677565b505050565b6111ea6111e46119cb565b82611b0a565b611229576040517f08c379a000000000000000000000000000000000000000000000000000000000815260040161122090613ac9565b60405180910390fd5b61123281611e06565b50565b600f5481565b6000611245610d38565b8210611286576040517f08c379a000000000000000000000000000000000000000000000000000000000815260040161127d90613a89565b60405180910390fd5b6009828154811061129a57611299613f60565b5b90600052602060002001549050919050565b6000806002600084815260200190815260200160002060009054906101000a900473ffffffffffffffffffffffffffffffffffffffff169050600073ffffffffffffffffffffffffffffffffffffffff168173ffffffffffffffffffffffffffffffffffffffff161415611355576040517f08c379a000000000000000000000000000000000000000000000000000000000815260040161134c90613a29565b60405180910390fd5b80915050919050565b611366611a8c565b80600f8190555050565b60008073ffffffffffffffffffffffffffffffffffffffff168273ffffffffffffffffffffffffffffffffffffffff1614156113e1576040517f08c379a00000000000000000000000000000000000000000000000000000000081526004016113d890613989565b60405180910390fd5b600360008373ffffffffffffffffffffffffffffffffffffffff1673ffffffffffffffffffffffffffffffffffffffff168152602001908152602001600020549050919050565b611430611a8c565b61143a6000611f23565b565b600b5481565b600d5481565b6000600660009054906101000a900473ffffffffffffffffffffffffffffffffffffffff16905090565b60606001805461148190613db3565b80601f01602080910402602001604051908101604052809291908181526020018280546114ad90613db3565b80156114fa5780601f106114cf576101008083540402835291602001916114fa565b820191906000526020600020905b8154815290600101906020018083116114dd57829003601f168201915b5050505050905090565b600e5481565b600e600081548092919061151d90613e16565b91905055506000600e549050611537878787878787610ea4565b60016013600087815260200190815260200160002060006101000a81548160ff02191690831515021790555061156e818789611fe9565b50505050505050565b61157f611a8c565b80600d8190555050565b600e600081548092919061159c90613e16565b91905055506000600e54905060006115b43484611130565b905060006115c282856117b6565b90506000341180156115d45750803410155b611613576040517f08c379a000000000000000000000000000000000000000000000000000000000815260040161160a90613909565b60405180910390fd5b61161e838386611fe9565b34600b60008282546116309190613bd1565b9250508190555050505050565b61164f6116486119cb565b8383612037565b5050565b60126020528060005260406000206000915090508060000154908060010154905082565b6116886116826119cb565b83611b0a565b6116c7576040517f08c379a00000000000000000000000000000000000000000000000000000000081526004016116be90613ac9565b60405180910390fd5b6116d3848484846121a4565b50505050565b600c60009054906101000a900473ffffffffffffffffffffffffffffffffffffffff1681565b60606000604051806108400160405280610803815260200161489a61080391399050600061178b826117466012600088815260200190815260200160002060010154612200565b6117656012600089815260200190815260200160002060000154612200565b604051602001611777939291906136dc565b604051602081830303815290604052612361565b90508060405160200161179e91906136ba565b60405160208183030381529060405292505050919050565b60004282116117fa576040517f08c379a00000000000000000000000000000000000000000000000000000000081526004016117f190613969565b60405180910390fd5b60006103e8428461180b9190613cb2565b6118159190613c58565b90506000600d5482866118289190613c58565b6118329190613c58565b9050809250505092915050565b600042601260008481526020019081526020016000206001015411159050919050565b6000600560008473ffffffffffffffffffffffffffffffffffffffff1673ffffffffffffffffffffffffffffffffffffffff16815260200190815260200160002060008373ffffffffffffffffffffffffffffffffffffffff1673ffffffffffffffffffffffffffffffffffffffff16815260200190815260200160002060009054906101000a900460ff16905092915050565b6118fe611a8c565b600073ffffffffffffffffffffffffffffffffffffffff168173ffffffffffffffffffffffffffffffffffffffff16141561196e576040517f08c379a0000000000000000000000000000000000000000000000000000000008152600401611965906138a9565b60405180910390fd5b61197781611f23565b50565b60105481565b611989816124c5565b6119c8576040517f08c379a00000000000000000000000000000000000000000000000000000000081526004016119bf90613a29565b60405180910390fd5b50565b600033905090565b816004600083815260200190815260200160002060006101000a81548173ffffffffffffffffffffffffffffffffffffffff021916908373ffffffffffffffffffffffffffffffffffffffff160217905550808273ffffffffffffffffffffffffffffffffffffffff16611a46836112ac565b73ffffffffffffffffffffffffffffffffffffffff167f8c5be1e5ebec7d5bd14f71427d1e84f3dd0314c0f7b2291e5b200ac8c7c3b92560405160405180910390a45050565b611a946119cb565b73ffffffffffffffffffffffffffffffffffffffff16611ab2611448565b73ffffffffffffffffffffffffffffffffffffffff1614611b08576040517f08c379a0000000000000000000000000000000000000000000000000000000008152600401611aff906139e9565b60405180910390fd5b565b600080611b16836112ac565b90508073ffffffffffffffffffffffffffffffffffffffff168473ffffffffffffffffffffffffffffffffffffffff161480611b585750611b578185611862565b5b80611b9657508373ffffffffffffffffffffffffffffffffffffffff16611b7e84610bda565b73ffffffffffffffffffffffffffffffffffffffff16145b91505092915050565b8273ffffffffffffffffffffffffffffffffffffffff16611bbf826112ac565b73ffffffffffffffffffffffffffffffffffffffff1614611c15576040517f08c379a0000000000000000000000000000000000000000000000000000000008152600401611c0c906138c9565b60405180910390fd5b600073ffffffffffffffffffffffffffffffffffffffff168273ffffffffffffffffffffffffffffffffffffffff161415611c85576040517f08c379a0000000000000000000000000000000000000000000000000000000008152600401611c7c90613929565b60405180910390fd5b611c90838383612531565b611c9b6000826119d3565b6001600360008573ffffffffffffffffffffffffffffffffffffffff1673ffffffffffffffffffffffffffffffffffffffff1681526020019081526020016000206000828254611ceb9190613cb2565b925050819055506001600360008473ffffffffffffffffffffffffffffffffffffffff1673ffffffffffffffffffffffffffffffffffffffff1681526020019081526020016000206000828254611d429190613bd1565b92505081905550816002600083815260200190815260200160002060006101000a81548173ffffffffffffffffffffffffffffffffffffffff021916908373ffffffffffffffffffffffffffffffffffffffff160217905550808273ffffffffffffffffffffffffffffffffffffffff168473ffffffffffffffffffffffffffffffffffffffff167fddf252ad1be2c89b69c2b068fc378daa952ba7f163c4a11628f55a4df523b3ef60405160405180910390a4611e01838383612541565b505050565b6000611e11826112ac565b9050611e1f81600084612531565b611e2a6000836119d3565b6001600360008373ffffffffffffffffffffffffffffffffffffffff1673ffffffffffffffffffffffffffffffffffffffff1681526020019081526020016000206000828254611e7a9190613cb2565b925050819055506002600083815260200190815260200160002060006101000a81549073ffffffffffffffffffffffffffffffffffffffff021916905581600073ffffffffffffffffffffffffffffffffffffffff168273ffffffffffffffffffffffffffffffffffffffff167fddf252ad1be2c89b69c2b068fc378daa952ba7f163c4a11628f55a4df523b3ef60405160405180910390a4611f1f81600084612541565b5050565b6000600660009054906101000a900473ffffffffffffffffffffffffffffffffffffffff16905081600660006101000a81548173ffffffffffffffffffffffffffffffffffffffff021916908373ffffffffffffffffffffffffffffffffffffffff1602179055508173ffffffffffffffffffffffffffffffffffffffff168173ffffffffffffffffffffffffffffffffffffffff167f8be0079c531659141344cd1fd0a4f28419497f9722a3daafe3b4186f6b6457e060405160405180910390a35050565b611ff33384612546565b604051806040016040528083815260200182815250601260008581526020019081526020016000206000820151816000015560208201518160010155905050505050565b8173ffffffffffffffffffffffffffffffffffffffff168373ffffffffffffffffffffffffffffffffffffffff1614156120a6576040517f08c379a000000000000000000000000000000000000000000000000000000000815260040161209d90613949565b60405180910390fd5b80600560008573ffffffffffffffffffffffffffffffffffffffff1673ffffffffffffffffffffffffffffffffffffffff16815260200190815260200160002060008473ffffffffffffffffffffffffffffffffffffffff1673ffffffffffffffffffffffffffffffffffffffff16815260200190815260200160002060006101000a81548160ff0219169083151502179055508173ffffffffffffffffffffffffffffffffffffffff168373ffffffffffffffffffffffffffffffffffffffff167f17307eab39ab6107e8899845ad3d59bd9653f200f220920489ca2b5937696c318360405161219791906137cc565b60405180910390a3505050565b6121af848484611b9f565b6121bb84848484612564565b6121fa576040517f08c379a00000000000000000000000000000000000000000000000000000000081526004016121f190613889565b60405180910390fd5b50505050565b60606000821415612248576040518060400160405280600181526020017f3000000000000000000000000000000000000000000000000000000000000000815250905061235c565b600082905060005b6000821461227a57808061226390613e16565b915050600a826122739190613c27565b9150612250565b60008167ffffffffffffffff81111561229657612295613f8f565b5b6040519080825280601f01601f1916602001820160405280156122c85781602001600182028036833780820191505090505b5090505b60008514612355576001826122e19190613cb2565b9150600a856122f09190613e73565b60306122fc9190613bd1565b60f81b81838151811061231257612311613f60565b5b60200101907effffffffffffffffffffffffffffffffffffffffffffffffffffffffffffff1916908160001a905350600a8561234e9190613c27565b94506122cc565b8093505050505b919050565b6060600082511415612384576040518060200160405280600081525090506124c0565b600060405180606001604052806040815260200161509d60409139905060006003600285516123b39190613bd1565b6123bd9190613c27565b60046123c99190613c58565b67ffffffffffffffff8111156123e2576123e1613f8f565b5b6040519080825280601f01601f1916602001820160405280156124145781602001600182028036833780820191505090505b509050600182016020820185865187015b80821015612480576003820191508151603f8160121c168501518453600184019350603f81600c1c168501518453600184019350603f8160061c168501518453600184019350603f8116850151845360018401935050612425565b505060038651066001811461249c57600281146124af576124b7565b603d6001830353603d60028303536124b7565b603d60018303535b50505080925050505b919050565b60008073ffffffffffffffffffffffffffffffffffffffff166002600084815260200190815260200160002060009054906101000a900473ffffffffffffffffffffffffffffffffffffffff1673ffffffffffffffffffffffffffffffffffffffff1614159050919050565b61253c8383836126fb565b505050565b505050565b61256082826040518060200160405280600081525061280f565b5050565b60006125858473ffffffffffffffffffffffffffffffffffffffff1661286a565b156126ee578373ffffffffffffffffffffffffffffffffffffffff1663150b7a026125ae6119cb565b8786866040518563ffffffff1660e01b81526004016125d09493929190613780565b602060405180830381600087803b1580156125ea57600080fd5b505af192505050801561261b57506040513d601f19601f820116820180604052508101906126189190613092565b60015b61269e573d806000811461264b576040519150601f19603f3d011682016040523d82523d6000602084013e612650565b606091505b50600081511415612696576040517f08c379a000000000000000000000000000000000000000000000000000000000815260040161268d90613889565b60405180910390fd5b805181602001fd5b63150b7a0260e01b7bffffffffffffffffffffffffffffffffffffffffffffffffffffffff1916817bffffffffffffffffffffffffffffffffffffffffffffffffffffffff1916149150506126f3565b600190505b949350505050565b61270683838361288d565b600073ffffffffffffffffffffffffffffffffffffffff168373ffffffffffffffffffffffffffffffffffffffff1614156127495761274481612892565b612788565b8173ffffffffffffffffffffffffffffffffffffffff168373ffffffffffffffffffffffffffffffffffffffff16146127875761278683826128db565b5b5b600073ffffffffffffffffffffffffffffffffffffffff168273ffffffffffffffffffffffffffffffffffffffff1614156127cb576127c681612a48565b61280a565b8273ffffffffffffffffffffffffffffffffffffffff168273ffffffffffffffffffffffffffffffffffffffff1614612809576128088282612b19565b5b5b505050565b6128198383612b98565b6128266000848484612564565b612865576040517f08c379a000000000000000000000000000000000000000000000000000000000815260040161285c90613889565b60405180910390fd5b505050565b6000808273ffffffffffffffffffffffffffffffffffffffff163b119050919050565b505050565b600980549050600a600083815260200190815260200160002081905550600981908060018154018082558091505060019003906000526020600020016000909190919091505550565b600060016128e884611370565b6128f29190613cb2565b90506000600860008481526020019081526020016000205490508181146129d7576000600760008673ffffffffffffffffffffffffffffffffffffffff1673ffffffffffffffffffffffffffffffffffffffff168152602001908152602001600020600084815260200190815260200160002054905080600760008773ffffffffffffffffffffffffffffffffffffffff1673ffffffffffffffffffffffffffffffffffffffff168152602001908152602001600020600084815260200190815260200160002081905550816008600083815260200190815260200160002081905550505b6008600084815260200190815260200160002060009055600760008573ffffffffffffffffffffffffffffffffffffffff1673ffffffffffffffffffffffffffffffffffffffff16815260200190815260200160002060008381526020019081526020016000206000905550505050565b60006001600980549050612a5c9190613cb2565b90506000600a6000848152602001908152602001600020549050600060098381548110612a8c57612a8b613f60565b5b906000526020600020015490508060098381548110612aae57612aad613f60565b5b906000526020600020018190555081600a600083815260200190815260200160002081905550600a6000858152602001908152602001600020600090556009805480612afd57612afc613f31565b5b6001900381819060005260206000200160009055905550505050565b6000612b2483611370565b905081600760008573ffffffffffffffffffffffffffffffffffffffff1673ffffffffffffffffffffffffffffffffffffffff168152602001908152602001600020600083815260200190815260200160002081905550806008600084815260200190815260200160002081905550505050565b600073ffffffffffffffffffffffffffffffffffffffff168273ffffffffffffffffffffffffffffffffffffffff161415612c08576040517f08c379a0000000000000000000000000000000000000000000000000000000008152600401612bff906139c9565b60405180910390fd5b612c11816124c5565b15612c51576040517f08c379a0000000000000000000000000000000000000000000000000000000008152600401612c48906138e9565b60405180910390fd5b612c5d60008383612531565b6001600360008473ffffffffffffffffffffffffffffffffffffffff1673ffffffffffffffffffffffffffffffffffffffff1681526020019081526020016000206000828254612cad9190613bd1565b92505081905550816002600083815260200190815260200160002060006101000a81548173ffffffffffffffffffffffffffffffffffffffff021916908373ffffffffffffffffffffffffffffffffffffffff160217905550808273ffffffffffffffffffffffffffffffffffffffff16600073ffffffffffffffffffffffffffffffffffffffff167fddf252ad1be2c89b69c2b068fc378daa952ba7f163c4a11628f55a4df523b3ef60405160405180910390a4612d6e60008383612541565b5050565b6000612d85612d8084613b52565b613b2d565b905082815260208101848484011115612da157612da0613fc3565b5b612dac848285613d71565b509392505050565b600081359050612dc38161480f565b92915050565b600081359050612dd881614826565b92915050565b600081359050612ded8161483d565b92915050565b600081359050612e0281614854565b92915050565b600081519050612e1781614854565b92915050565b600082601f830112612e3257612e31613fbe565b5b8135612e42848260208601612d72565b91505092915050565b600081359050612e5a8161486b565b92915050565b600081359050612e6f81614882565b92915050565b600060208284031215612e8b57612e8a613fcd565b5b6000612e9984828501612db4565b91505092915050565b60008060408385031215612eb957612eb8613fcd565b5b6000612ec785828601612db4565b9250506020612ed885828601612db4565b9150509250929050565b600080600060608486031215612efb57612efa613fcd565b5b6000612f0986828701612db4565b9350506020612f1a86828701612db4565b9250506040612f2b86828701612e4b565b9150509250925092565b60008060008060808587031215612f4f57612f4e613fcd565b5b6000612f5d87828801612db4565b9450506020612f6e87828801612db4565b9350506040612f7f87828801612e4b565b925050606085013567ffffffffffffffff811115612fa057612f9f613fc8565b5b612fac87828801612e1d565b91505092959194509250565b60008060408385031215612fcf57612fce613fcd565b5b6000612fdd85828601612db4565b9250506020612fee85828601612dc9565b9150509250929050565b6000806040838503121561300f5761300e613fcd565b5b600061301d85828601612db4565b925050602061302e85828601612e4b565b9150509250929050565b60006020828403121561304e5761304d613fcd565b5b600061305c84828501612dde565b91505092915050565b60006020828403121561307b5761307a613fcd565b5b600061308984828501612df3565b91505092915050565b6000602082840312156130a8576130a7613fcd565b5b60006130b684828501612e08565b91505092915050565b6000602082840312156130d5576130d4613fcd565b5b60006130e384828501612e4b565b91505092915050565b6000806040838503121561310357613102613fcd565b5b600061311185828601612e4b565b925050602061312285828601612e4b565b9150509250929050565b60008060008060008060c0878903121561314957613148613fcd565b5b600061315789828a01612e4b565b965050602061316889828a01612e4b565b955050604061317989828a01612dde565b945050606061318a89828a01612e60565b935050608061319b89828a01612dde565b92505060a06131ac89828a01612dde565b9150509295509295509295565b6131c281613ce6565b82525050565b6131d181613cf8565b82525050565b6131e081613d04565b82525050565b6131f76131f282613d04565b613e5f565b82525050565b600061320882613b83565b6132128185613b99565b9350613222818560208601613d80565b61322b81613fd2565b840191505092915050565b600061324182613b83565b61324b8185613baa565b935061325b818560208601613d80565b80840191505092915050565b600061327282613b8e565b61327c8185613bb5565b935061328c818560208601613d80565b61329581613fd2565b840191505092915050565b60006132ab82613b8e565b6132b58185613bc6565b93506132c5818560208601613d80565b80840191505092915050565b60006132de601c83613bc6565b91506132e982613fe3565b601c82019050919050565b6000613301602b83613bb5565b915061330c8261400c565b604082019050919050565b6000613324603283613bb5565b915061332f8261405b565b604082019050919050565b6000613347602683613bb5565b9150613352826140aa565b604082019050919050565b600061336a602583613bb5565b9150613375826140f9565b604082019050919050565b600061338d601c83613bb5565b915061339882614148565b602082019050919050565b60006133b0606783613bb5565b91506133bb82614171565b608082019050919050565b60006133d3602483613bb5565b91506133de8261420c565b604082019050919050565b60006133f6601983613bb5565b91506134018261425b565b602082019050919050565b6000613419602383613bb5565b915061342482614284565b604082019050919050565b600061343c605183613bc6565b9150613447826142d3565b605182019050919050565b600061345f602983613bb5565b915061346a82614348565b604082019050919050565b6000613482603e83613bb5565b915061348d82614397565b604082019050919050565b60006134a5602083613bb5565b91506134b0826143e6565b602082019050919050565b60006134c8600383613bc6565b91506134d38261440f565b600382019050919050565b60006134eb602083613bb5565b91506134f682614438565b602082019050919050565b600061350e603a83613bb5565b915061351982614461565b604082019050919050565b6000613531601883613bb5565b915061353c826144b0565b602082019050919050565b6000613554602183613bb5565b915061355f826144d9565b604082019050919050565b6000613577604183613bb5565b915061358282614528565b606082019050919050565b600061359a601d83613bc6565b91506135a58261459d565b601d82019050919050565b60006135bd602c83613bb5565b91506135c8826145c6565b604082019050919050565b60006135e0605783613bb5565b91506135eb82614615565b606082019050919050565b6000613603602e83613bb5565b915061360e8261468a565b604082019050919050565b6000613626605483613bc6565b9150613631826146d9565b605482019050919050565b600061364960a083613bc6565b91506136548261474e565b60a082019050919050565b61366881613d5a565b82525050565b61367f61367a82613d5a565b613e69565b82525050565b61368e81613d64565b82525050565b600061369f826132d1565b91506136ab82846131e6565b60208201915081905092915050565b60006136c58261358d565b91506136d182846132a0565b915081905092915050565b60006136e78261363c565b91506136f38286613236565b91506136fe82613619565b915061370a82856132a0565b91506137158261342f565b915061372182846132a0565b915061372c826134bb565b9150819050949350505050565b6000613745828561366e565b602082019150613755828461366e565b6020820191508190509392505050565b600060208201905061377a60008301846131b9565b92915050565b600060808201905061379560008301876131b9565b6137a260208301866131b9565b6137af604083018561365f565b81810360608301526137c181846131fd565b905095945050505050565b60006020820190506137e160008301846131c8565b92915050565b60006020820190506137fc60008301846131d7565b92915050565b600060808201905061381760008301876131d7565b6138246020830186613685565b61383160408301856131d7565b61383e60608301846131d7565b95945050505050565b600060208201905081810360008301526138618184613267565b905092915050565b60006020820190508181036000830152613882816132f4565b9050919050565b600060208201905081810360008301526138a281613317565b9050919050565b600060208201905081810360008301526138c28161333a565b9050919050565b600060208201905081810360008301526138e28161335d565b9050919050565b6000602082019050818103600083015261390281613380565b9050919050565b60006020820190508181036000830152613922816133a3565b9050919050565b60006020820190508181036000830152613942816133c6565b9050919050565b60006020820190508181036000830152613962816133e9565b9050919050565b600060208201905081810360008301526139828161340c565b9050919050565b600060208201905081810360008301526139a281613452565b9050919050565b600060208201905081810360008301526139c281613475565b9050919050565b600060208201905081810360008301526139e281613498565b9050919050565b60006020820190508181036000830152613a02816134de565b9050919050565b60006020820190508181036000830152613a2281613501565b9050919050565b60006020820190508181036000830152613a4281613524565b9050919050565b60006020820190508181036000830152613a6281613547565b9050919050565b60006020820190508181036000830152613a828161356a565b9050919050565b60006020820190508181036000830152613aa2816135b0565b9050919050565b60006020820190508181036000830152613ac2816135d3565b9050919050565b60006020820190508181036000830152613ae2816135f6565b9050919050565b6000602082019050613afe600083018461365f565b92915050565b6000604082019050613b19600083018561365f565b613b26602083018461365f565b9392505050565b6000613b37613b48565b9050613b438282613de5565b919050565b6000604051905090565b600067ffffffffffffffff821115613b6d57613b6c613f8f565b5b613b7682613fd2565b9050602081019050919050565b600081519050919050565b600081519050919050565b600082825260208201905092915050565b600081905092915050565b600082825260208201905092915050565b600081905092915050565b6000613bdc82613d5a565b9150613be783613d5a565b9250827fffffffffffffffffffffffffffffffffffffffffffffffffffffffffffffffff03821115613c1c57613c1b613ea4565b5b828201905092915050565b6000613c3282613d5a565b9150613c3d83613d5a565b925082613c4d57613c4c613ed3565b5b828204905092915050565b6000613c6382613d5a565b9150613c6e83613d5a565b9250817fffffffffffffffffffffffffffffffffffffffffffffffffffffffffffffffff0483118215151615613ca757613ca6613ea4565b5b828202905092915050565b6000613cbd82613d5a565b9150613cc883613d5a565b925082821015613cdb57613cda613ea4565b5b828203905092915050565b6000613cf182613d3a565b9050919050565b60008115159050919050565b6000819050919050565b60007fffffffff0000000000000000000000000000000000000000000000000000000082169050919050565b600073ffffffffffffffffffffffffffffffffffffffff82169050919050565b6000819050919050565b600060ff82169050919050565b82818337600083830152505050565b60005b83811015613d9e578082015181840152602081019050613d83565b83811115613dad576000848401525b50505050565b60006002820490506001821680613dcb57607f821691505b60208210811415613ddf57613dde613f02565b5b50919050565b613dee82613fd2565b810181811067ffffffffffffffff82111715613e0d57613e0c613f8f565b5b80604052505050565b6000613e2182613d5a565b91507fffffffffffffffffffffffffffffffffffffffffffffffffffffffffffffffff821415613e5457613e53613ea4565b5b600182019050919050565b6000819050919050565b6000819050919050565b6000613e7e82613d5a565b9150613e8983613d5a565b925082613e9957613e98613ed3565b5b828206905092915050565b7f4e487b7100000000000000000000000000000000000000000000000000000000600052601160045260246000fd5b7f4e487b7100000000000000000000000000000000000000000000000000000000600052601260045260246000fd5b7f4e487b7100000000000000000000000000000000000000000000000000000000600052602260045260246000fd5b7f4e487b7100000000000000000000000000000000000000000000000000000000600052603160045260246000fd5b7f4e487b7100000000000000000000000000000000000000000000000000000000600052603260045260246000fd5b7f4e487b7100000000000000000000000000000000000000000000000000000000600052604160045260246000fd5b600080fd5b600080fd5b600080fd5b600080fd5b6000601f19601f8301169050919050565b7f19457468657265756d205369676e6564204d6573736167653a0a333200000000600082015250565b7f455243373231456e756d657261626c653a206f776e657220696e646578206f7560008201527f74206f6620626f756e6473000000000000000000000000000000000000000000602082015250565b7f4552433732313a207472616e7366657220746f206e6f6e20455243373231526560008201527f63656976657220696d706c656d656e7465720000000000000000000000000000602082015250565b7f4f776e61626c653a206e6577206f776e657220697320746865207a65726f206160008201527f6464726573730000000000000000000000000000000000000000000000000000602082015250565b7f4552433732313a207472616e736665722066726f6d20696e636f72726563742060008201527f6f776e6572000000000000000000000000000000000000000000000000000000602082015250565b7f4552433732313a20746f6b656e20616c7265616479206d696e74656400000000600082015250565b7f596f75206d7573742073656e642074686520636f7374206f662074686973207260008201527f617465206c696d697420696e6372656173652e2020546f20636865636b20746860208201527f6520636f73742c20757365207468652063616c63756c617465436f737420667560408201527f6e6374696f6e2e00000000000000000000000000000000000000000000000000606082015250565b7f4552433732313a207472616e7366657220746f20746865207a65726f2061646460008201527f7265737300000000000000000000000000000000000000000000000000000000602082015250565b7f4552433732313a20617070726f766520746f2063616c6c657200000000000000600082015250565b7f54686520657870697265734174206d75737420626520696e207468652066757460008201527f7572650000000000000000000000000000000000000000000000000000000000602082015250565b7f7d2c207b22646973706c61795f74797065223a20226e756d626572222c20227460008201527f726169745f74797065223a2022526571756573747320506572204d696c6c697360208201527f65636f6e64222c202276616c7565223a20000000000000000000000000000000604082015250565b7f4552433732313a2061646472657373207a65726f206973206e6f74206120766160008201527f6c6964206f776e65720000000000000000000000000000000000000000000000602082015250565b7f4552433732313a20617070726f76652063616c6c6572206973206e6f7420746f60008201527f6b656e206f776e6572206e6f7220617070726f76656420666f7220616c6c0000602082015250565b7f4552433732313a206d696e7420746f20746865207a65726f2061646472657373600082015250565b7f7d5d7d0000000000000000000000000000000000000000000000000000000000600082015250565b7f4f776e61626c653a2063616c6c6572206973206e6f7420746865206f776e6572600082015250565b7f5468697320667265654d696e742068617320616c7265616479206265656e207260008201527f656465656d65642e2020486f7720656d626172617373696e672e000000000000602082015250565b7f4552433732313a20696e76616c696420746f6b656e2049440000000000000000600082015250565b7f4552433732313a20617070726f76616c20746f2063757272656e74206f776e6560008201527f7200000000000000000000000000000000000000000000000000000000000000602082015250565b7f5468697320667265654d696e7420776173206e6f74207369676e65642062792060008201527f667265654d696e745369676e65722e2020486f7720656d626172617373696e6760208201527f2e00000000000000000000000000000000000000000000000000000000000000604082015250565b7f646174613a6170706c69636174696f6e2f6a736f6e3b6261736536342c000000600082015250565b7f455243373231456e756d657261626c653a20676c6f62616c20696e646578206f60008201527f7574206f6620626f756e64730000000000000000000000000000000000000000602082015250565b7f546865206d736748617368206973206e6f7420612068617368206f662074686560008201527f20657870697265734174202b2072657175657374735065724d696c6c6973656360208201527f6f6e642e20204578706c61696e20796f757273656c6621000000000000000000604082015250565b7f4552433732313a2063616c6c6572206973206e6f7420746f6b656e206f776e6560008201527f72206e6f7220617070726f766564000000000000000000000000000000000000602082015250565b7f222c2261747472696275746573223a205b7b22646973706c61795f747970652260008201527f3a202264617465222c202274726169745f74797065223a20224578706972617460208201527f696f6e2044617465222c202276616c7565223a20000000000000000000000000604082015250565b7f7b226e616d65223a20224c69742050726f746f636f6c2052617465204c696d6960008201527f7420496e637265617365222c20226465736372697074696f6e223a202254686960208201527f73204e465420656e7469746c65732074686520686f6c64657220746f2061207260408201527f617465206c696d697420696e637265617365206f6e20746865204c697420507260608201527f6f746f636f6c204e6574776f726b222c2022696d6167655f64617461223a2022608082015250565b61481881613ce6565b811461482357600080fd5b50565b61482f81613cf8565b811461483a57600080fd5b50565b61484681613d04565b811461485157600080fd5b50565b61485d81613d0e565b811461486857600080fd5b50565b61487481613d5a565b811461487f57600080fd5b50565b61488b81613d64565b811461489657600080fd5b5056fe3c73766720786d6c6e733d27687474703a2f2f7777772e77332e6f72672f323030302f737667272076696577426f783d2730203020313030203130302720786d6c6e733a763d2768747470733a2f2f76656374612e696f2f6e616e6f273e3c7061746820643d274d35302e362037332e33632d31372e372d2e312d31392d31362e362d31372e352d32302e342030203020312e3120382e382031312e3120362e3620392e392d322e3220342e392d31372e3120342e372d31372e362e312e3120312e3920312e3820332e3420342e3120312e3620322e34203220362e3420312e352031302d2e3520332e352d2e3220382e3420362e3220362e3620372e392d322e3220372e322d31342e3620372e322d31342e3620332e3620342e3120332e392032352e342d31362e362032352e337a272066696c6c3d2723666564343238272f3e3c7061746820643d274d36342e312033382e36632d2e3420322e392e3620382e352e322031322d2e3320322e392d312e3820352e312d332e3120352e372d312e322e362d32202e322d322d2e382d2e312d312e312e372d33202e362d342e362d2e312d322d312e332d342e332d312e332d342e336c2e372d312e332e362e396132352e39332032352e3933203020302031202e3820312e3373312e322d372e3420332e332d31312e3663312e352d3320352e322d342e3220352e342d342e332d322e3920312e372d342e3720332e342d352e3220377a272066696c6c3d2723633630343034272f3e3c7061746820643d274d36322033372e366c2d312e3320342e32632d2e3620312e382d312e3520332e362d312e3520332e366c2d2e3720312e33732d312d322d322e312d332e356c2d322e332d332e31732e322d2e362e342d312e366c2e392e37732e362d322e312e372d352e32632e312d322e362d2e372d352e362d2e372d352e362031202e3820322e3620322e3320332e3720332e3820312e3420312e3720322e3920352e3420322e3920352e347a272066696c6c3d2723613730633063272f3e3c7061746820643d274d34342e33203530632d2e312e322d3320342e382d372e3420322e322d2e382d2e352d312e342d312d312e382d312e372d322e362d34202e372d31302e382e382d31312e32762e312e312e31632d2e3320312e372d312e3320382e3620312e332031302e352e312e312e322e312e332e322e322e312e332e322e352e3320322e3420312e3120342e332e3520352e342030202e312030202e312d2e312e322d2e312e342d2e332e362d2e352e372d2e357a272066696c6c3d2723613430613061272f3e3c7061746820643d274d35362e32203334632d2e3120332e312d2e3720352e322d2e3720352e326c2d2e392d2e37632e332d312e312e362d322e372e372d342e322e332d332e332d2e372d362e352d2e372d362e35732e332e332e382e37632e312030202e3920322e392e3820352e357a4d34342e33203530632d2e3120302d2e332e322d2e372e352d2e3120302d2e312e312d2e322e312d312e312e352d3320312e312d352e3420302d2e322d2e312d2e332d2e322d2e352d2e332d2e312d2e312d2e322d2e312d2e332d2e322d322e362d312e392d312e362d382e392d312e332d31302e352d2e3120312e322d2e3520352e3520312e3320382e33203220332e3220372e3120322e3120372e3120322e317a6d32372d342e35632d322e342d342e392d322e342d382e372d322e342d31302e3520302d312e3920312e332d332e3420312e332d332e34732d2e3420302d2e392e31632d312e312e332d332e332e382d342e3320312e372d322e3320322d322e3920342e322d322e3920342e32732d2e3720322e342d312e3320342e322d312e3520332e362d312e3520332e366c2e362e396132352e39332032352e3933203020302031202e3820312e335336312e392034302e3220363420333663312e352d3320352e322d342e3220352e342d342e332d3320312e352d342e3820332e322d352e3220362e392d2e3420322e392e3620382e352e322031322d2e3320322e392d312e3820352e312d332e3120352e372d312e322e362d32202e322d322d2e382d2e312d312e312e372d33202e362d342e362d2e312d322d312e332d342e332d312e332d342e33732d312d322d322e312d332e354c35342e32203430732d342d332e392d332e322d392e38632e362d3520342e382d382e3120352d382e332d2e342e312d3620312e332d392e3420362e332d322e3820342e312d332e3220382e332d312e382031332e3920312e3220352d2e3420372e382d2e3420372e382d2e312e322d3320342e382d372e3420322e322d2e382d2e352d312e342d312d312e382d312e372d322e362d34202e372d31302e382e382d31312e32203020302d392e3320372e312d392e332031362e34203020392e3820372e382032322e342032332e342032322e3420313820302032332e322d31352e332032332e352d3230202e332d34202e322d372e352d322e332d31322e357a4d35302e362037332e33632d31372e372d2e312d31392d31362e362d31372e352d32302e342030203020312e3120382e382031312e3120362e3620392e392d322e3220342e392d31372e3120342e372d31372e362e312e3120312e3920312e3820332e3420342e3120312e3620322e34203220362e3420312e352031302d2e3520332e352d2e3220382e3420362e3220362e3620372e392d322e3220372e322d31342e3620372e322d31342e3620332e3620342e3120332e392032352e342d31362e362032352e337a272066696c6c3d2723663132643264272f3e3c2f7376673e4142434445464748494a4b4c4d4e4f505152535455565758595a6162636465666768696a6b6c6d6e6f707172737475767778797a303132333435363738392b2fa26469706673582212200f300aa63fbbe9a51691f551d07339854297309e1cdebd98f04f5ba39ddcfa7164736f6c6343000807003352617465204c696d697420496e63726561736573206f6e204c69742050726f746f636f6c","abi":[{"inputs":[],"stateMutability":"nonpayable","type":"constructor"},{"anonymous":false,"inputs":[{"indexed":true,"internalType":"address","name":"owner","type":"address"},{"indexed":true,"internalType":"address","name":"approved","type":"address"},{"indexed":true,"internalType":"uint256","name":"tokenId","type":"uint256"}],"name":"Approval","type":"event"},{"anonymous":false,"inputs":[{"indexed":true,"internalType":"address","name":"owner","type":"address"},{"indexed":true,"internalType":"address","name":"operator","type":"address"},{"indexed":false,"internalType":"bool","name":"approved","type":"bool"}],"name":"ApprovalForAll","type":"event"},{"anonymous":false,"inputs":[{"indexed":true,"internalType":"address","name":"previousOwner","type":"address"},{"indexed":true,"internalType":"address","name":"newOwner","type":"address"}],"name":"OwnershipTransferred","type":"event"},{"anonymous":false,"inputs":[{"indexed":true,"internalType":"address","name":"from","type":"address"},{"indexed":true,"internalType":"address","name":"to","type":"address"},{"indexed":true,"internalType":"uint256","name":"tokenId","type":"uint256"}],"name":"Transfer","type":"event"},{"inputs":[],"name":"RLIHolderRateLimitWindowMilliseconds","outputs":[{"internalType":"uint256","name":"","type":"uint256"}],"stateMutability":"view","type":"function"},{"inputs":[],"name":"additionalRequestsPerMillisecondCost","outputs":[{"internalType":"uint256","name":"","type":"uint256"}],"stateMutability":"view","type":"function"},{"inputs":[{"internalType":"address","name":"to","type":"address"},{"internalType":"uint256","name":"tokenId","type":"uint256"}],"name":"approve","outputs":[],"stateMutability":"nonpayable","type":"function"},{"inputs":[{"internalType":"address","name":"owner","type":"address"}],"name":"balanceOf","outputs":[{"internalType":"uint256","name":"","type":"uint256"}],"stateMutability":"view","type":"function"},{"inputs":[{"internalType":"uint256","name":"tokenId","type":"uint256"}],"name":"burn","outputs":[],"stateMutability":"nonpayable","type":"function"},{"inputs":[{"internalType":"uint256","name":"requestsPerMillisecond","type":"uint256"},{"internalType":"uint256","name":"expiresAt","type":"uint256"}],"name":"calculateCost","outputs":[{"internalType":"uint256","name":"","type":"uint256"}],"stateMutability":"view","type":"function"},{"inputs":[{"internalType":"uint256","name":"payingAmount","type":"uint256"},{"internalType":"uint256","name":"expiresAt","type":"uint256"}],"name":"calculateRequestsPerSecond","outputs":[{"internalType":"uint256","name":"","type":"uint256"}],"stateMutability":"view","type":"function"},{"inputs":[{"internalType":"uint256","name":"","type":"uint256"}],"name":"capacity","outputs":[{"internalType":"uint256","name":"requestsPerMillisecond","type":"uint256"},{"internalType":"uint256","name":"expiresAt","type":"uint256"}],"stateMutability":"view","type":"function"},{"inputs":[],"name":"contractBalance","outputs":[{"internalType":"uint256","name":"","type":"uint256"}],"stateMutability":"view","type":"function"},{"inputs":[],"name":"defaultRateLimitWindowMilliseconds","outputs":[{"internalType":"uint256","name":"","type":"uint256"}],"stateMutability":"view","type":"function"},{"inputs":[{"internalType":"uint256","name":"expiresAt","type":"uint256"},{"internalType":"uint256","name":"requestsPerMillisecond","type":"uint256"},{"internalType":"bytes32","name":"msgHash","type":"bytes32"},{"internalType":"uint8","name":"v","type":"uint8"},{"internalType":"bytes32","name":"r","type":"bytes32"},{"internalType":"bytes32","name":"s","type":"bytes32"}],"name":"freeMint","outputs":[],"stateMutability":"nonpayable","type":"function"},{"inputs":[{"internalType":"uint256","name":"expiresAt","type":"uint256"},{"internalType":"uint256","name":"requestsPerMillisecond","type":"uint256"},{"internalType":"bytes32","name":"msgHash","type":"bytes32"},{"internalType":"uint8","name":"v","type":"uint8"},{"internalType":"bytes32","name":"r","type":"bytes32"},{"internalType":"bytes32","name":"s","type":"bytes32"}],"name":"freeMintSigTest","outputs":[],"stateMutability":"view","type":"function"},{"inputs":[],"name":"freeMintSigner","outputs":[{"internalType":"address","name":"","type":"address"}],"stateMutability":"view","type":"function"},{"inputs":[],"name":"freeRequestsPerRateLimitWindow","outputs":[{"internalType":"uint256","name":"","type":"uint256"}],"stateMutability":"view","type":"function"},{"inputs":[{"internalType":"uint256","name":"tokenId","type":"uint256"}],"name":"getApproved","outputs":[{"internalType":"address","name":"","type":"address"}],"stateMutability":"view","type":"function"},{"inputs":[{"internalType":"address","name":"owner","type":"address"},{"internalType":"address","name":"operator","type":"address"}],"name":"isApprovedForAll","outputs":[{"internalType":"bool","name":"","type":"bool"}],"stateMutability":"view","type":"function"},{"inputs":[{"internalType":"uint256","name":"tokenId","type":"uint256"}],"name":"isExpired","outputs":[{"internalType":"bool","name":"","type":"bool"}],"stateMutability":"view","type":"function"},{"inputs":[{"internalType":"uint256","name":"expiresAt","type":"uint256"}],"name":"mint","outputs":[],"stateMutability":"payable","type":"function"},{"inputs":[],"name":"name","outputs":[{"internalType":"string","name":"","type":"string"}],"stateMutability":"view","type":"function"},{"inputs":[],"name":"owner","outputs":[{"internalType":"address","name":"","type":"address"}],"stateMutability":"view","type":"function"},{"inputs":[{"internalType":"uint256","name":"tokenId","type":"uint256"}],"name":"ownerOf","outputs":[{"internalType":"address","name":"","type":"address"}],"stateMutability":"view","type":"function"},{"inputs":[{"internalType":"bytes32","name":"hash","type":"bytes32"}],"name":"prefixed","outputs":[{"internalType":"bytes32","name":"","type":"bytes32"}],"stateMutability":"pure","type":"function"},{"inputs":[{"internalType":"bytes32","name":"","type":"bytes32"}],"name":"redeemedFreeMints","outputs":[{"internalType":"bool","name":"","type":"bool"}],"stateMutability":"view","type":"function"},{"inputs":[],"name":"renounceOwnership","outputs":[],"stateMutability":"nonpayable","type":"function"},{"inputs":[{"internalType":"address","name":"from","type":"address"},{"internalType":"address","name":"to","type":"address"},{"internalType":"uint256","name":"tokenId","type":"uint256"}],"name":"safeTransferFrom","outputs":[],"stateMutability":"nonpayable","type":"function"},{"inputs":[{"internalType":"address","name":"from","type":"address"},{"internalType":"address","name":"to","type":"address"},{"internalType":"uint256","name":"tokenId","type":"uint256"},{"internalType":"bytes","name":"data","type":"bytes"}],"name":"safeTransferFrom","outputs":[],"stateMutability":"nonpayable","type":"function"},{"inputs":[{"internalType":"uint256","name":"newAdditionalRequestsPerMillisecondCost","type":"uint256"}],"name":"setAdditionalRequestsPerSecondCost","outputs":[],"stateMutability":"nonpayable","type":"function"},{"inputs":[{"internalType":"address","name":"operator","type":"address"},{"internalType":"bool","name":"approved","type":"bool"}],"name":"setApprovalForAll","outputs":[],"stateMutability":"nonpayable","type":"function"},{"inputs":[{"internalType":"address","name":"newFreeMintSigner","type":"address"}],"name":"setFreeMintSigner","outputs":[],"stateMutability":"nonpayable","type":"function"},{"inputs":[{"internalType":"uint256","name":"newFreeRequestsPerRateLimitWindow","type":"uint256"}],"name":"setFreeRequestsPerRateLimitWindow","outputs":[],"stateMutability":"nonpayable","type":"function"},{"inputs":[{"internalType":"uint256","name":"newRLIHolderRateLimitWindowMilliseconds","type":"uint256"}],"name":"setRLIHolderRateLimitWindowMilliseconds","outputs":[],"stateMutability":"nonpayable","type":"function"},{"inputs":[{"internalType":"uint256","name":"newRateLimitWindowMilliseconds","type":"uint256"}],"name":"setRateLimitWindowMilliseconds","outputs":[],"stateMutability":"nonpayable","type":"function"},{"inputs":[{"internalType":"bytes4","name":"interfaceId","type":"bytes4"}],"name":"supportsInterface","outputs":[{"internalType":"bool","name":"","type":"bool"}],"stateMutability":"view","type":"function"},{"inputs":[],"name":"symbol","outputs":[{"internalType":"string","name":"","type":"string"}],"stateMutability":"view","type":"function"},{"inputs":[{"internalType":"uint256","name":"index","type":"uint256"}],"name":"tokenByIndex","outputs":[{"internalType":"uint256","name":"","type":"uint256"}],"stateMutability":"view","type":"function"},{"inputs":[],"name":"tokenIdCounter","outputs":[{"internalType":"uint256","name":"","type":"uint256"}],"stateMutability":"view","type":"function"},{"inputs":[{"internalType":"address","name":"owner","type":"address"},{"internalType":"uint256","name":"index","type":"uint256"}],"name":"tokenOfOwnerByIndex","outputs":[{"internalType":"uint256","name":"","type":"uint256"}],"stateMutability":"view","type":"function"},{"inputs":[{"internalType":"uint256","name":"tokenId","type":"uint256"}],"name":"tokenURI","outputs":[{"internalType":"string","name":"","type":"string"}],"stateMutability":"view","type":"function"},{"inputs":[],"name":"totalSupply","outputs":[{"internalType":"uint256","name":"","type":"uint256"}],"stateMutability":"view","type":"function"},{"inputs":[{"internalType":"address","name":"from","type":"address"},{"internalType":"address","name":"to","type":"address"},{"internalType":"uint256","name":"tokenId","type":"uint256"}],"name":"transferFrom","outputs":[],"stateMutability":"nonpayable","type":"function"},{"inputs":[{"internalType":"address","name":"newOwner","type":"address"}],"name":"transferOwnership","outputs":[],"stateMutability":"nonpayable","type":"function"},{"inputs":[],"name":"withdraw","outputs":[],"stateMutability":"nonpayable","type":"function"}]}