{"address":"0xBE635b9fFc35862E7fCF718686759EF307bcBA8f","bytecode":"0x60806040526236ee80600f55620493e0601055600a6011553480156200002457600080fd5b506040518060600160405280602481526020016200543e602491396040518060400160405280600381526020017f524c490000000000000000000000000000000000000000000000000000000000815250816000908162000086919062000419565b50806001908162000098919062000419565b505050620000bb620000af620000d160201b60201c565b620000d960201b60201c565b6001600b819055506001600d8190555062000500565b600033905090565b6000600660009054906101000a900473ffffffffffffffffffffffffffffffffffffffff16905081600660006101000a81548173ffffffffffffffffffffffffffffffffffffffff021916908373ffffffffffffffffffffffffffffffffffffffff1602179055508173ffffffffffffffffffffffffffffffffffffffff168173ffffffffffffffffffffffffffffffffffffffff167f8be0079c531659141344cd1fd0a4f28419497f9722a3daafe3b4186f6b6457e060405160405180910390a35050565b600081519050919050565b7f4e487b7100000000000000000000000000000000000000000000000000000000600052604160045260246000fd5b7f4e487b7100000000000000000000000000000000000000000000000000000000600052602260045260246000fd5b600060028204905060018216806200022157607f821691505b602082108103620002375762000236620001d9565b5b50919050565b60008190508160005260206000209050919050565b60006020601f8301049050919050565b600082821b905092915050565b600060088302620002a17fffffffffffffffffffffffffffffffffffffffffffffffffffffffffffffffff8262000262565b620002ad868362000262565b95508019841693508086168417925050509392505050565b6000819050919050565b6000819050919050565b6000620002fa620002f4620002ee84620002c5565b620002cf565b620002c5565b9050919050565b6000819050919050565b6200031683620002d9565b6200032e620003258262000301565b8484546200026f565b825550505050565b600090565b6200034562000336565b620003528184846200030b565b505050565b5b818110156200037a576200036e6000826200033b565b60018101905062000358565b5050565b601f821115620003c95762000393816200023d565b6200039e8462000252565b81016020851015620003ae578190505b620003c6620003bd8562000252565b83018262000357565b50505b505050565b600082821c905092915050565b6000620003ee60001984600802620003ce565b1980831691505092915050565b6000620004098383620003db565b9150826002028217905092915050565b62000424826200019f565b67ffffffffffffffff81111562000440576200043f620001aa565b5b6200044c825462000208565b620004598282856200037e565b600060209050601f8311600181146200049157600084156200047c578287015190505b620004888582620003fb565b865550620004f8565b601f198416620004a1866200023d565b60005b82811015620004cb57848901518255600182019150602085019450602081019050620004a4565b86831015620004eb5784890151620004e7601f891682620003db565b8355505b6001600288020188555050505b505050505050565b614f2e80620005106000396000f3fe6080604052600436106102465760003560e01c80636352211e11610139578063a0712d68116100b6578063c87b56dd1161007a578063c87b56dd14610890578063ce394696146108cd578063d9548e531461090a578063e985e9c514610947578063f2fde38b14610984578063faea717c146109ad57610246565b8063a0712d68146107b9578063a22cb465146107d5578063ab1bbeca146107fe578063b88d4fde1461083c578063b94a21021461086557610246565b80638da5cb5b116100fd5780638da5cb5b146106e657806395d89b411461071157806398bdf6f51461073c578063995eebab146107675780639fadb6431461079057610246565b80636352211e146106015780636a8e29ed1461063e57806370a0823114610667578063715018a6146106a45780638c8e3c84146106bb57610246565b80632f745c59116101c75780634116b8931161018b5780634116b8931461050a57806342842e0e1461054757806342966c681461057057806345ca8a7a146105995780634f6ccce7146105c457610246565b80632f745c59146104275780633488ab13146104645780633b1898521461048d5780633b1a72cc146104b65780633ccfd60b146104f357610246565b80631f2757131161020e5780631f2757131461034457806320fef3df1461038157806323b872dd146103aa57806326894764146103d357806328b9b37c146103fe57610246565b806301ffc9a71461024b57806306fdde0314610288578063081812fc146102b3578063095ea7b3146102f057806318160ddd14610319575b600080fd5b34801561025757600080fd5b50610272600480360381019061026d9190612f45565b6109d8565b60405161027f9190612f8d565b60405180910390f35b34801561029457600080fd5b5061029d610b12565b6040516102aa9190613038565b60405180910390f35b3480156102bf57600080fd5b506102da60048036038101906102d59190613090565b610ba4565b6040516102e791906130fe565b60405180910390f35b3480156102fc57600080fd5b5061031760048036038101906103129190613145565b610bea565b005b34801561032557600080fd5b5061032e610d01565b60405161033b9190613194565b60405180910390f35b34801561035057600080fd5b5061036b600480360381019061036691906131e5565b610d0e565b6040516103789190613221565b60405180910390f35b34801561038d57600080fd5b506103a860048036038101906103a39190613090565b610d3e565b005b3480156103b657600080fd5b506103d160048036038101906103cc919061323c565b610d87565b005b3480156103df57600080fd5b506103e8610de7565b6040516103f59190613194565b60405180910390f35b34801561040a57600080fd5b5061042560048036038101906104209190613090565b610ded565b005b34801561043357600080fd5b5061044e60048036038101906104499190613145565b610e36565b60405161045b9190613194565b60405180910390f35b34801561047057600080fd5b5061048b600480360381019061048691906132c8565b610edb565b005b34801561049957600080fd5b506104b460048036038101906104af9190613355565b6110a0565b005b3480156104c257600080fd5b506104dd60048036038101906104d891906131e5565b61112f565b6040516104ea9190612f8d565b60405180910390f35b3480156104ff57600080fd5b5061050861114f565b005b34801561051657600080fd5b50610531600480360381019061052c9190613382565b611262565b60405161053e9190613194565b60405180910390f35b34801561055357600080fd5b5061056e6004803603810190610569919061323c565b6112eb565b005b34801561057c57600080fd5b5061059760048036038101906105929190613090565b61130b565b005b3480156105a557600080fd5b506105ae611367565b6040516105bb9190613194565b60405180910390f35b3480156105d057600080fd5b506105eb60048036038101906105e69190613090565b61136d565b6040516105f89190613194565b60405180910390f35b34801561060d57600080fd5b5061062860048036038101906106239190613090565b6113de565b60405161063591906130fe565b60405180910390f35b34801561064a57600080fd5b5061066560048036038101906106609190613090565b61148f565b005b34801561067357600080fd5b5061068e60048036038101906106899190613355565b6114d8565b60405161069b9190613194565b60405180910390f35b3480156106b057600080fd5b506106b961158f565b005b3480156106c757600080fd5b506106d06115a3565b6040516106dd9190613194565b60405180910390f35b3480156106f257600080fd5b506106fb6115a9565b60405161070891906130fe565b60405180910390f35b34801561071d57600080fd5b506107266115d3565b6040516107339190613038565b60405180910390f35b34801561074857600080fd5b50610751611665565b60405161075e9190613194565b60405180910390f35b34801561077357600080fd5b5061078e600480360381019061078991906132c8565b61166b565b005b34801561079c57600080fd5b506107b760048036038101906107b29190613090565b6116d8565b005b6107d360048036038101906107ce9190613090565b611721565b005b3480156107e157600080fd5b506107fc60048036038101906107f791906133ee565b6117bc565b005b34801561080a57600080fd5b5061082560048036038101906108209190613090565b6117d2565b60405161083392919061342e565b60405180910390f35b34801561084857600080fd5b50610863600480360381019061085e919061358c565b6117f6565b005b34801561087157600080fd5b5061087a611858565b60405161088791906130fe565b60405180910390f35b34801561089c57600080fd5b506108b760048036038101906108b29190613090565b61187e565b6040516108c49190613038565b60405180910390f35b3480156108d957600080fd5b506108f460048036038101906108ef9190613382565b611935565b6040516109019190613194565b60405180910390f35b34801561091657600080fd5b50610931600480360381019061092c9190613090565b6119be565b60405161093e9190612f8d565b60405180910390f35b34801561095357600080fd5b5061096e6004803603810190610969919061360f565b6119e1565b60405161097b9190612f8d565b60405180910390f35b34801561099057600080fd5b506109ab60048036038101906109a69190613355565b611a75565b005b3480156109b957600080fd5b506109c2611af8565b6040516109cf9190613194565b60405180910390f35b60007f780e9d63000000000000000000000000000000000000000000000000000000007bffffffffffffffffffffffffffffffffffffffffffffffffffffffff1916827bffffffffffffffffffffffffffffffffffffffffffffffffffffffff19161480610aa357507f5b5e139f000000000000000000000000000000000000000000000000000000007bffffffffffffffffffffffffffffffffffffffffffffffffffffffff1916827bffffffffffffffffffffffffffffffffffffffffffffffffffffffff1916145b80610b0b57507f80ac58cd000000000000000000000000000000000000000000000000000000007bffffffffffffffffffffffffffffffffffffffffffffffffffffffff1916827bffffffffffffffffffffffffffffffffffffffffffffffffffffffff1916145b9050919050565b606060008054610b219061367e565b80601f0160208091040260200160405190810160405280929190818152602001828054610b4d9061367e565b8015610b9a5780601f10610b6f57610100808354040283529160200191610b9a565b820191906000526020600020905b815481529060010190602001808311610b7d57829003601f168201915b5050505050905090565b6000610baf82611afe565b6004600083815260200190815260200160002060009054906101000a900473ffffffffffffffffffffffffffffffffffffffff169050919050565b6000610bf5826113de565b90508073ffffffffffffffffffffffffffffffffffffffff168373ffffffffffffffffffffffffffffffffffffffff1603610c65576040517f08c379a0000000000000000000000000000000000000000000000000000000008152600401610c5c90613721565b60405180910390fd5b8073ffffffffffffffffffffffffffffffffffffffff16610c84611b49565b73ffffffffffffffffffffffffffffffffffffffff161480610cb35750610cb281610cad611b49565b6119e1565b5b610cf2576040517f08c379a0000000000000000000000000000000000000000000000000000000008152600401610ce9906137b3565b60405180910390fd5b610cfc8383611b51565b505050565b6000600980549050905090565b600081604051602001610d21919061384b565b604051602081830303815290604052805190602001209050919050565b610d46611c0a565b806010819055507fc9f68d4642b75238a09de01fc991dbaecb731624b8246a79f6bddfb265ab9c6581604051610d7c9190613194565b60405180910390a150565b610d98610d92611b49565b82611c88565b610dd7576040517f08c379a0000000000000000000000000000000000000000000000000000000008152600401610dce906138e3565b60405180910390fd5b610de2838383611d1d565b505050565b60115481565b610df5611c0a565b806011819055507fce84f3dad126a2cb9d67cdca12c64dc079f7a9a1a0728c5c4e16e4b5b2e4bc4d81604051610e2b9190613194565b60405180910390a150565b6000610e41836114d8565b8210610e82576040517f08c379a0000000000000000000000000000000000000000000000000000000008152600401610e7990613975565b60405180910390fd5b600760008473ffffffffffffffffffffffffffffffffffffffff1673ffffffffffffffffffffffffffffffffffffffff168152602001908152602001600020600083815260200190815260200160002054905092915050565b6000610f0e8787604051602001610ef39291906139b6565b60405160208183030381529060405280519060200120610d0e565b9050848114610f52576040517f08c379a0000000000000000000000000000000000000000000000000000000008152600401610f4990613a7a565b60405180910390fd5b600060018686868660405160008152602001604052604051610f779493929190613aa9565b6020604051602081039080840390855afa158015610f99573d6000803e3d6000fd5b505050602060405103519050600c60009054906101000a900473ffffffffffffffffffffffffffffffffffffffff1673ffffffffffffffffffffffffffffffffffffffff168173ffffffffffffffffffffffffffffffffffffffff1614611035576040517f08c379a000000000000000000000000000000000000000000000000000000000815260040161102c90613b86565b60405180910390fd5b6013600087815260200190815260200160002060009054906101000a900460ff1615611096576040517f08c379a000000000000000000000000000000000000000000000000000000000815260040161108d90613c18565b60405180910390fd5b5050505050505050565b6110a8611c0a565b80600c60006101000a81548173ffffffffffffffffffffffffffffffffffffffff021916908373ffffffffffffffffffffffffffffffffffffffff1602179055508073ffffffffffffffffffffffffffffffffffffffff167f65d3e06a561c77a07da59b8b2ca10214ae08fe21cc2953a90db0ac8b5b7c437160405160405180910390a250565b60136020528060005260406000206000915054906101000a900460ff1681565b611157611c0a565b6002600b540361119c576040517f08c379a000000000000000000000000000000000000000000000000000000000815260040161119390613c84565b60405180910390fd5b6002600b81905550600047905060003373ffffffffffffffffffffffffffffffffffffffff16826040516111cf90613cd5565b60006040518083038185875af1925050503d806000811461120c576040519150601f19603f3d011682016040523d82523d6000602084013e611211565b606091505b505090508061121f57600080fd5b7fb6b476da71cea8275cac6b1720c04966afaff5e637472cedb6cbd32c43a232518260405161124e9190613194565b60405180910390a150506001600b81905550565b60004282116112a6576040517f08c379a000000000000000000000000000000000000000000000000000000000815260040161129d90613d5c565b60405180910390fd5b60006103e842846112b79190613dab565b6112c19190613ddf565b90506000600d54826112d39190613ddf565b856112de9190613e50565b9050809250505092915050565b611306838383604051806020016040528060008152506117f6565b505050565b61131c611316611b49565b82611c88565b61135b576040517f08c379a0000000000000000000000000000000000000000000000000000000008152600401611352906138e3565b60405180910390fd5b61136481611f83565b50565b600f5481565b6000611377610d01565b82106113b8576040517f08c379a00000000000000000000000000000000000000000000000000000000081526004016113af90613ef3565b60405180910390fd5b600982815481106113cc576113cb613f13565b5b90600052602060002001549050919050565b6000806002600084815260200190815260200160002060009054906101000a900473ffffffffffffffffffffffffffffffffffffffff169050600073ffffffffffffffffffffffffffffffffffffffff168173ffffffffffffffffffffffffffffffffffffffff1603611486576040517f08c379a000000000000000000000000000000000000000000000000000000000815260040161147d90613f8e565b60405180910390fd5b80915050919050565b611497611c0a565b80600f819055507f48e50e8ecbfe9fa83d92fd45f81b044a22e6a14ab3bfbef5c58ae2f80b796fca816040516114cd9190613194565b60405180910390a150565b60008073ffffffffffffffffffffffffffffffffffffffff168273ffffffffffffffffffffffffffffffffffffffff1603611548576040517f08c379a000000000000000000000000000000000000000000000000000000000815260040161153f90614020565b60405180910390fd5b600360008373ffffffffffffffffffffffffffffffffffffffff1673ffffffffffffffffffffffffffffffffffffffff168152602001908152602001600020549050919050565b611597611c0a565b6115a160006120a0565b565b600d5481565b6000600660009054906101000a900473ffffffffffffffffffffffffffffffffffffffff16905090565b6060600180546115e29061367e565b80601f016020809104026020016040519081016040528092919081815260200182805461160e9061367e565b801561165b5780601f106116305761010080835404028352916020019161165b565b820191906000526020600020905b81548152906001019060200180831161163e57829003601f168201915b5050505050905090565b600e5481565b600e600081548092919061167e90614040565b91905055506000600e549050611698878787878787610edb565b60016013600087815260200190815260200160002060006101000a81548160ff0219169083151502179055506116cf818789612166565b50505050505050565b6116e0611c0a565b80600d819055507f6812e5d5d18adf9e51779dd1b67eef3cc61fdd5ca0289fcf7daefb629fb24974816040516117169190613194565b60405180910390a150565b600e600081548092919061173490614040565b91905055506000600e549050600061174c3484611262565b9050600061175a8285611935565b905060003411801561176c5750803410155b6117ab576040517f08c379a00000000000000000000000000000000000000000000000000000000081526004016117a290614146565b60405180910390fd5b6117b6838386612166565b50505050565b6117ce6117c7611b49565b83836121b4565b5050565b60126020528060005260406000206000915090508060000154908060010154905082565b611807611801611b49565b83611c88565b611846576040517f08c379a000000000000000000000000000000000000000000000000000000000815260040161183d906138e3565b60405180910390fd5b61185284848484612320565b50505050565b600c60009054906101000a900473ffffffffffffffffffffffffffffffffffffffff1681565b606060006040518061048001604052806104568152602001614a6361045691399050600061190a826118c5601260008881526020019081526020016000206001015461237c565b6118e4601260008981526020019081526020016000206000015461237c565b6040516020016118f693929190614433565b6040516020818303038152906040526124dc565b90508060405160200161191d91906144dc565b60405160208183030381529060405292505050919050565b6000428211611979576040517f08c379a000000000000000000000000000000000000000000000000000000000815260040161197090613d5c565b60405180910390fd5b60006103e8428461198a9190613dab565b6119949190613ddf565b90506000600d5482866119a79190613ddf565b6119b19190613ddf565b9050809250505092915050565b600042601260008481526020019081526020016000206001015411159050919050565b6000600560008473ffffffffffffffffffffffffffffffffffffffff1673ffffffffffffffffffffffffffffffffffffffff16815260200190815260200160002060008373ffffffffffffffffffffffffffffffffffffffff1673ffffffffffffffffffffffffffffffffffffffff16815260200190815260200160002060009054906101000a900460ff16905092915050565b611a7d611c0a565b600073ffffffffffffffffffffffffffffffffffffffff168173ffffffffffffffffffffffffffffffffffffffff1603611aec576040517f08c379a0000000000000000000000000000000000000000000000000000000008152600401611ae390614570565b60405180910390fd5b611af5816120a0565b50565b60105481565b611b078161263f565b611b46576040517f08c379a0000000000000000000000000000000000000000000000000000000008152600401611b3d90613f8e565b60405180910390fd5b50565b600033905090565b816004600083815260200190815260200160002060006101000a81548173ffffffffffffffffffffffffffffffffffffffff021916908373ffffffffffffffffffffffffffffffffffffffff160217905550808273ffffffffffffffffffffffffffffffffffffffff16611bc4836113de565b73ffffffffffffffffffffffffffffffffffffffff167f8c5be1e5ebec7d5bd14f71427d1e84f3dd0314c0f7b2291e5b200ac8c7c3b92560405160405180910390a45050565b611c12611b49565b73ffffffffffffffffffffffffffffffffffffffff16611c306115a9565b73ffffffffffffffffffffffffffffffffffffffff1614611c86576040517f08c379a0000000000000000000000000000000000000000000000000000000008152600401611c7d906145dc565b60405180910390fd5b565b600080611c94836113de565b90508073ffffffffffffffffffffffffffffffffffffffff168473ffffffffffffffffffffffffffffffffffffffff161480611cd65750611cd581856119e1565b5b80611d1457508373ffffffffffffffffffffffffffffffffffffffff16611cfc84610ba4565b73ffffffffffffffffffffffffffffffffffffffff16145b91505092915050565b8273ffffffffffffffffffffffffffffffffffffffff16611d3d826113de565b73ffffffffffffffffffffffffffffffffffffffff1614611d93576040517f08c379a0000000000000000000000000000000000000000000000000000000008152600401611d8a9061466e565b60405180910390fd5b600073ffffffffffffffffffffffffffffffffffffffff168273ffffffffffffffffffffffffffffffffffffffff1603611e02576040517f08c379a0000000000000000000000000000000000000000000000000000000008152600401611df990614700565b60405180910390fd5b611e0d8383836126ab565b611e18600082611b51565b6001600360008573ffffffffffffffffffffffffffffffffffffffff1673ffffffffffffffffffffffffffffffffffffffff1681526020019081526020016000206000828254611e689190613dab565b925050819055506001600360008473ffffffffffffffffffffffffffffffffffffffff1673ffffffffffffffffffffffffffffffffffffffff1681526020019081526020016000206000828254611ebf9190614720565b92505081905550816002600083815260200190815260200160002060006101000a81548173ffffffffffffffffffffffffffffffffffffffff021916908373ffffffffffffffffffffffffffffffffffffffff160217905550808273ffffffffffffffffffffffffffffffffffffffff168473ffffffffffffffffffffffffffffffffffffffff167fddf252ad1be2c89b69c2b068fc378daa952ba7f163c4a11628f55a4df523b3ef60405160405180910390a4611f7e8383836126bb565b505050565b6000611f8e826113de565b9050611f9c816000846126ab565b611fa7600083611b51565b6001600360008373ffffffffffffffffffffffffffffffffffffffff1673ffffffffffffffffffffffffffffffffffffffff1681526020019081526020016000206000828254611ff79190613dab565b925050819055506002600083815260200190815260200160002060006101000a81549073ffffffffffffffffffffffffffffffffffffffff021916905581600073ffffffffffffffffffffffffffffffffffffffff168273ffffffffffffffffffffffffffffffffffffffff167fddf252ad1be2c89b69c2b068fc378daa952ba7f163c4a11628f55a4df523b3ef60405160405180910390a461209c816000846126bb565b5050565b6000600660009054906101000a900473ffffffffffffffffffffffffffffffffffffffff16905081600660006101000a81548173ffffffffffffffffffffffffffffffffffffffff021916908373ffffffffffffffffffffffffffffffffffffffff1602179055508173ffffffffffffffffffffffffffffffffffffffff168173ffffffffffffffffffffffffffffffffffffffff167f8be0079c531659141344cd1fd0a4f28419497f9722a3daafe3b4186f6b6457e060405160405180910390a35050565b61217033846126c0565b604051806040016040528083815260200182815250601260008581526020019081526020016000206000820151816000015560208201518160010155905050505050565b8173ffffffffffffffffffffffffffffffffffffffff168373ffffffffffffffffffffffffffffffffffffffff1603612222576040517f08c379a0000000000000000000000000000000000000000000000000000000008152600401612219906147a0565b60405180910390fd5b80600560008573ffffffffffffffffffffffffffffffffffffffff1673ffffffffffffffffffffffffffffffffffffffff16815260200190815260200160002060008473ffffffffffffffffffffffffffffffffffffffff1673ffffffffffffffffffffffffffffffffffffffff16815260200190815260200160002060006101000a81548160ff0219169083151502179055508173ffffffffffffffffffffffffffffffffffffffff168373ffffffffffffffffffffffffffffffffffffffff167f17307eab39ab6107e8899845ad3d59bd9653f200f220920489ca2b5937696c31836040516123139190612f8d565b60405180910390a3505050565b61232b848484611d1d565b612337848484846126de565b612376576040517f08c379a000000000000000000000000000000000000000000000000000000000815260040161236d90614832565b60405180910390fd5b50505050565b6060600082036123c3576040518060400160405280600181526020017f300000000000000000000000000000000000000000000000000000000000000081525090506124d7565b600082905060005b600082146123f55780806123de90614040565b915050600a826123ee9190613e50565b91506123cb565b60008167ffffffffffffffff81111561241157612410613461565b5b6040519080825280601f01601f1916602001820160405280156124435781602001600182028036833780820191505090505b5090505b600085146124d05760018261245c9190613dab565b9150600a8561246b9190614852565b60306124779190614720565b60f81b81838151811061248d5761248c613f13565b5b60200101907effffffffffffffffffffffffffffffffffffffffffffffffffffffffffffff1916908160001a905350600a856124c99190613e50565b9450612447565b8093505050505b919050565b606060008251036124fe5760405180602001604052806000815250905061263a565b6000604051806060016040528060408152602001614eb9604091399050600060036002855161252d9190614720565b6125379190613e50565b60046125439190613ddf565b67ffffffffffffffff81111561255c5761255b613461565b5b6040519080825280601f01601f19166020018201604052801561258e5781602001600182028036833780820191505090505b509050600182016020820185865187015b808210156125fa576003820191508151603f8160121c168501518453600184019350603f81600c1c168501518453600184019350603f8160061c168501518453600184019350603f811685015184536001840193505061259f565b5050600386510660018114612616576002811461262957612631565b603d6001830353603d6002830353612631565b603d60018303535b50505080925050505b919050565b60008073ffffffffffffffffffffffffffffffffffffffff166002600084815260200190815260200160002060009054906101000a900473ffffffffffffffffffffffffffffffffffffffff1673ffffffffffffffffffffffffffffffffffffffff1614159050919050565b6126b6838383612865565b505050565b505050565b6126da828260405180602001604052806000815250612977565b5050565b60006126ff8473ffffffffffffffffffffffffffffffffffffffff166129d2565b15612858578373ffffffffffffffffffffffffffffffffffffffff1663150b7a02612728611b49565b8786866040518563ffffffff1660e01b815260040161274a94939291906148cd565b6020604051808303816000875af192505050801561278657506040513d601f19601f82011682018060405250810190612783919061492e565b60015b612808573d80600081146127b6576040519150601f19603f3d011682016040523d82523d6000602084013e6127bb565b606091505b506000815103612800576040517f08c379a00000000000000000000000000000000000000000000000000000000081526004016127f790614832565b60405180910390fd5b805181602001fd5b63150b7a0260e01b7bffffffffffffffffffffffffffffffffffffffffffffffffffffffff1916817bffffffffffffffffffffffffffffffffffffffffffffffffffffffff19161491505061285d565b600190505b949350505050565b6128708383836129f5565b600073ffffffffffffffffffffffffffffffffffffffff168373ffffffffffffffffffffffffffffffffffffffff16036128b2576128ad816129fa565b6128f1565b8173ffffffffffffffffffffffffffffffffffffffff168373ffffffffffffffffffffffffffffffffffffffff16146128f0576128ef8382612a43565b5b5b600073ffffffffffffffffffffffffffffffffffffffff168273ffffffffffffffffffffffffffffffffffffffff16036129335761292e81612bb0565b612972565b8273ffffffffffffffffffffffffffffffffffffffff168273ffffffffffffffffffffffffffffffffffffffff1614612971576129708282612c81565b5b5b505050565b6129818383612d00565b61298e60008484846126de565b6129cd576040517f08c379a00000000000000000000000000000000000000000000000000000000081526004016129c490614832565b60405180910390fd5b505050565b6000808273ffffffffffffffffffffffffffffffffffffffff163b119050919050565b505050565b600980549050600a600083815260200190815260200160002081905550600981908060018154018082558091505060019003906000526020600020016000909190919091505550565b60006001612a50846114d8565b612a5a9190613dab565b9050600060086000848152602001908152602001600020549050818114612b3f576000600760008673ffffffffffffffffffffffffffffffffffffffff1673ffffffffffffffffffffffffffffffffffffffff168152602001908152602001600020600084815260200190815260200160002054905080600760008773ffffffffffffffffffffffffffffffffffffffff1673ffffffffffffffffffffffffffffffffffffffff168152602001908152602001600020600084815260200190815260200160002081905550816008600083815260200190815260200160002081905550505b6008600084815260200190815260200160002060009055600760008573ffffffffffffffffffffffffffffffffffffffff1673ffffffffffffffffffffffffffffffffffffffff16815260200190815260200160002060008381526020019081526020016000206000905550505050565b60006001600980549050612bc49190613dab565b90506000600a6000848152602001908152602001600020549050600060098381548110612bf457612bf3613f13565b5b906000526020600020015490508060098381548110612c1657612c15613f13565b5b906000526020600020018190555081600a600083815260200190815260200160002081905550600a6000858152602001908152602001600020600090556009805480612c6557612c6461495b565b5b6001900381819060005260206000200160009055905550505050565b6000612c8c836114d8565b905081600760008573ffffffffffffffffffffffffffffffffffffffff1673ffffffffffffffffffffffffffffffffffffffff168152602001908152602001600020600083815260200190815260200160002081905550806008600084815260200190815260200160002081905550505050565b600073ffffffffffffffffffffffffffffffffffffffff168273ffffffffffffffffffffffffffffffffffffffff1603612d6f576040517f08c379a0000000000000000000000000000000000000000000000000000000008152600401612d66906149d6565b60405180910390fd5b612d788161263f565b15612db8576040517f08c379a0000000000000000000000000000000000000000000000000000000008152600401612daf90614a42565b60405180910390fd5b612dc4600083836126ab565b6001600360008473ffffffffffffffffffffffffffffffffffffffff1673ffffffffffffffffffffffffffffffffffffffff1681526020019081526020016000206000828254612e149190614720565b92505081905550816002600083815260200190815260200160002060006101000a81548173ffffffffffffffffffffffffffffffffffffffff021916908373ffffffffffffffffffffffffffffffffffffffff160217905550808273ffffffffffffffffffffffffffffffffffffffff16600073ffffffffffffffffffffffffffffffffffffffff167fddf252ad1be2c89b69c2b068fc378daa952ba7f163c4a11628f55a4df523b3ef60405160405180910390a4612ed5600083836126bb565b5050565b6000604051905090565b600080fd5b600080fd5b60007fffffffff0000000000000000000000000000000000000000000000000000000082169050919050565b612f2281612eed565b8114612f2d57600080fd5b50565b600081359050612f3f81612f19565b92915050565b600060208284031215612f5b57612f5a612ee3565b5b6000612f6984828501612f30565b91505092915050565b60008115159050919050565b612f8781612f72565b82525050565b6000602082019050612fa26000830184612f7e565b92915050565b600081519050919050565b600082825260208201905092915050565b60005b83811015612fe2578082015181840152602081019050612fc7565b60008484015250505050565b6000601f19601f8301169050919050565b600061300a82612fa8565b6130148185612fb3565b9350613024818560208601612fc4565b61302d81612fee565b840191505092915050565b600060208201905081810360008301526130528184612fff565b905092915050565b6000819050919050565b61306d8161305a565b811461307857600080fd5b50565b60008135905061308a81613064565b92915050565b6000602082840312156130a6576130a5612ee3565b5b60006130b48482850161307b565b91505092915050565b600073ffffffffffffffffffffffffffffffffffffffff82169050919050565b60006130e8826130bd565b9050919050565b6130f8816130dd565b82525050565b600060208201905061311360008301846130ef565b92915050565b613122816130dd565b811461312d57600080fd5b50565b60008135905061313f81613119565b92915050565b6000806040838503121561315c5761315b612ee3565b5b600061316a85828601613130565b925050602061317b8582860161307b565b9150509250929050565b61318e8161305a565b82525050565b60006020820190506131a96000830184613185565b92915050565b6000819050919050565b6131c2816131af565b81146131cd57600080fd5b50565b6000813590506131df816131b9565b92915050565b6000602082840312156131fb576131fa612ee3565b5b6000613209848285016131d0565b91505092915050565b61321b816131af565b82525050565b60006020820190506132366000830184613212565b92915050565b60008060006060848603121561325557613254612ee3565b5b600061326386828701613130565b935050602061327486828701613130565b92505060406132858682870161307b565b9150509250925092565b600060ff82169050919050565b6132a58161328f565b81146132b057600080fd5b50565b6000813590506132c28161329c565b92915050565b60008060008060008060c087890312156132e5576132e4612ee3565b5b60006132f389828a0161307b565b965050602061330489828a0161307b565b955050604061331589828a016131d0565b945050606061332689828a016132b3565b935050608061333789828a016131d0565b92505060a061334889828a016131d0565b9150509295509295509295565b60006020828403121561336b5761336a612ee3565b5b600061337984828501613130565b91505092915050565b6000806040838503121561339957613398612ee3565b5b60006133a78582860161307b565b92505060206133b88582860161307b565b9150509250929050565b6133cb81612f72565b81146133d657600080fd5b50565b6000813590506133e8816133c2565b92915050565b6000806040838503121561340557613404612ee3565b5b600061341385828601613130565b9250506020613424858286016133d9565b9150509250929050565b60006040820190506134436000830185613185565b6134506020830184613185565b9392505050565b600080fd5b600080fd5b7f4e487b7100000000000000000000000000000000000000000000000000000000600052604160045260246000fd5b61349982612fee565b810181811067ffffffffffffffff821117156134b8576134b7613461565b5b80604052505050565b60006134cb612ed9565b90506134d78282613490565b919050565b600067ffffffffffffffff8211156134f7576134f6613461565b5b61350082612fee565b9050602081019050919050565b82818337600083830152505050565b600061352f61352a846134dc565b6134c1565b90508281526020810184848401111561354b5761354a61345c565b5b61355684828561350d565b509392505050565b600082601f83011261357357613572613457565b5b813561358384826020860161351c565b91505092915050565b600080600080608085870312156135a6576135a5612ee3565b5b60006135b487828801613130565b94505060206135c587828801613130565b93505060406135d68782880161307b565b925050606085013567ffffffffffffffff8111156135f7576135f6612ee8565b5b6136038782880161355e565b91505092959194509250565b6000806040838503121561362657613625612ee3565b5b600061363485828601613130565b925050602061364585828601613130565b9150509250929050565b7f4e487b7100000000000000000000000000000000000000000000000000000000600052602260045260246000fd5b6000600282049050600182168061369657607f821691505b6020821081036136a9576136a861364f565b5b50919050565b7f4552433732313a20617070726f76616c20746f2063757272656e74206f776e6560008201527f7200000000000000000000000000000000000000000000000000000000000000602082015250565b600061370b602183612fb3565b9150613716826136af565b604082019050919050565b6000602082019050818103600083015261373a816136fe565b9050919050565b7f4552433732313a20617070726f76652063616c6c6572206973206e6f7420746f60008201527f6b656e206f776e6572206e6f7220617070726f76656420666f7220616c6c0000602082015250565b600061379d603e83612fb3565b91506137a882613741565b604082019050919050565b600060208201905081810360008301526137cc81613790565b9050919050565b600081905092915050565b7f19457468657265756d205369676e6564204d6573736167653a0a333200000000600082015250565b6000613814601c836137d3565b915061381f826137de565b601c82019050919050565b6000819050919050565b613845613840826131af565b61382a565b82525050565b600061385682613807565b91506138628284613834565b60208201915081905092915050565b7f4552433732313a2063616c6c6572206973206e6f7420746f6b656e206f776e6560008201527f72206e6f7220617070726f766564000000000000000000000000000000000000602082015250565b60006138cd602e83612fb3565b91506138d882613871565b604082019050919050565b600060208201905081810360008301526138fc816138c0565b9050919050565b7f455243373231456e756d657261626c653a206f776e657220696e646578206f7560008201527f74206f6620626f756e6473000000000000000000000000000000000000000000602082015250565b600061395f602b83612fb3565b915061396a82613903565b604082019050919050565b6000602082019050818103600083015261398e81613952565b9050919050565b6000819050919050565b6139b06139ab8261305a565b613995565b82525050565b60006139c2828561399f565b6020820191506139d2828461399f565b6020820191508190509392505050565b7f546865206d736748617368206973206e6f7420612068617368206f662074686560008201527f20657870697265734174202b2072657175657374735065724d696c6c6973656360208201527f6f6e642e20204578706c61696e20796f757273656c6621000000000000000000604082015250565b6000613a64605783612fb3565b9150613a6f826139e2565b606082019050919050565b60006020820190508181036000830152613a9381613a57565b9050919050565b613aa38161328f565b82525050565b6000608082019050613abe6000830187613212565b613acb6020830186613a9a565b613ad86040830185613212565b613ae56060830184613212565b95945050505050565b7f5468697320667265654d696e7420776173206e6f74207369676e65642062792060008201527f667265654d696e745369676e65722e2020486f7720656d626172617373696e6760208201527f2e00000000000000000000000000000000000000000000000000000000000000604082015250565b6000613b70604183612fb3565b9150613b7b82613aee565b606082019050919050565b60006020820190508181036000830152613b9f81613b63565b9050919050565b7f5468697320667265654d696e742068617320616c7265616479206265656e207260008201527f656465656d65642e2020486f7720656d626172617373696e672e000000000000602082015250565b6000613c02603a83612fb3565b9150613c0d82613ba6565b604082019050919050565b60006020820190508181036000830152613c3181613bf5565b9050919050565b7f5265656e7472616e637947756172643a207265656e7472616e742063616c6c00600082015250565b6000613c6e601f83612fb3565b9150613c7982613c38565b602082019050919050565b60006020820190508181036000830152613c9d81613c61565b9050919050565b600081905092915050565b50565b6000613cbf600083613ca4565b9150613cca82613caf565b600082019050919050565b6000613ce082613cb2565b9150819050919050565b7f54686520657870697265734174206d75737420626520696e207468652066757460008201527f7572650000000000000000000000000000000000000000000000000000000000602082015250565b6000613d46602383612fb3565b9150613d5182613cea565b604082019050919050565b60006020820190508181036000830152613d7581613d39565b9050919050565b7f4e487b7100000000000000000000000000000000000000000000000000000000600052601160045260246000fd5b6000613db68261305a565b9150613dc18361305a565b9250828203905081811115613dd957613dd8613d7c565b5b92915050565b6000613dea8261305a565b9150613df58361305a565b9250828202613e038161305a565b91508282048414831517613e1a57613e19613d7c565b5b5092915050565b7f4e487b7100000000000000000000000000000000000000000000000000000000600052601260045260246000fd5b6000613e5b8261305a565b9150613e668361305a565b925082613e7657613e75613e21565b5b828204905092915050565b7f455243373231456e756d657261626c653a20676c6f62616c20696e646578206f60008201527f7574206f6620626f756e64730000000000000000000000000000000000000000602082015250565b6000613edd602c83612fb3565b9150613ee882613e81565b604082019050919050565b60006020820190508181036000830152613f0c81613ed0565b9050919050565b7f4e487b7100000000000000000000000000000000000000000000000000000000600052603260045260246000fd5b7f4552433732313a20696e76616c696420746f6b656e2049440000000000000000600082015250565b6000613f78601883612fb3565b9150613f8382613f42565b602082019050919050565b60006020820190508181036000830152613fa781613f6b565b9050919050565b7f4552433732313a2061646472657373207a65726f206973206e6f74206120766160008201527f6c6964206f776e65720000000000000000000000000000000000000000000000602082015250565b600061400a602983612fb3565b915061401582613fae565b604082019050919050565b6000602082019050818103600083015261403981613ffd565b9050919050565b600061404b8261305a565b91507fffffffffffffffffffffffffffffffffffffffffffffffffffffffffffffffff820361407d5761407c613d7c565b5b600182019050919050565b7f596f75206d7573742073656e642074686520636f7374206f662074686973207260008201527f617465206c696d697420696e6372656173652e2020546f20636865636b20746860208201527f6520636f73742c20757365207468652063616c63756c617465436f737420667560408201527f6e6374696f6e2e00000000000000000000000000000000000000000000000000606082015250565b6000614130606783612fb3565b915061413b82614088565b608082019050919050565b6000602082019050818103600083015261415f81614123565b9050919050565b7f7b226e616d65223a20224c69742050726f746f636f6c2052617465204c696d6960008201527f7420496e637265617365222c20226465736372697074696f6e223a202254686960208201527f73204e465420656e7469746c65732074686520686f6c64657220746f2061207260408201527f617465206c696d697420696e637265617365206f6e20746865204c697420507260608201527f6f746f636f6c204e6574776f726b222c2022696d6167655f64617461223a2022608082015250565b600061423460a0836137d3565b915061423f82614166565b60a082019050919050565b600081519050919050565b60006142608261424a565b61426a8185613ca4565b935061427a818560208601612fc4565b80840191505092915050565b7f222c2261747472696275746573223a205b7b22646973706c61795f747970652260008201527f3a202264617465222c202274726169745f74797065223a20224578706972617460208201527f696f6e2044617465222c202276616c7565223a20000000000000000000000000604082015250565b60006143086054836137d3565b915061431382614286565b605482019050919050565b600061432982612fa8565b61433381856137d3565b9350614343818560208601612fc4565b80840191505092915050565b7f7d2c207b22646973706c61795f74797065223a20226e756d626572222c20227460008201527f726169745f74797065223a2022526571756573747320506572204d696c6c697360208201527f65636f6e64222c202276616c7565223a20000000000000000000000000000000604082015250565b60006143d16051836137d3565b91506143dc8261434f565b605182019050919050565b7f7d5d7d0000000000000000000000000000000000000000000000000000000000600082015250565b600061441d6003836137d3565b9150614428826143e7565b600382019050919050565b600061443e82614227565b915061444a8286614255565b9150614455826142fb565b9150614461828561431e565b915061446c826143c4565b9150614478828461431e565b915061448382614410565b9150819050949350505050565b7f646174613a6170706c69636174696f6e2f6a736f6e3b6261736536342c000000600082015250565b60006144c6601d836137d3565b91506144d182614490565b601d82019050919050565b60006144e7826144b9565b91506144f3828461431e565b915081905092915050565b7f4f776e61626c653a206e6577206f776e657220697320746865207a65726f206160008201527f6464726573730000000000000000000000000000000000000000000000000000602082015250565b600061455a602683612fb3565b9150614565826144fe565b604082019050919050565b600060208201905081810360008301526145898161454d565b9050919050565b7f4f776e61626c653a2063616c6c6572206973206e6f7420746865206f776e6572600082015250565b60006145c6602083612fb3565b91506145d182614590565b602082019050919050565b600060208201905081810360008301526145f5816145b9565b9050919050565b7f4552433732313a207472616e736665722066726f6d20696e636f72726563742060008201527f6f776e6572000000000000000000000000000000000000000000000000000000602082015250565b6000614658602583612fb3565b9150614663826145fc565b604082019050919050565b600060208201905081810360008301526146878161464b565b9050919050565b7f4552433732313a207472616e7366657220746f20746865207a65726f2061646460008201527f7265737300000000000000000000000000000000000000000000000000000000602082015250565b60006146ea602483612fb3565b91506146f58261468e565b604082019050919050565b60006020820190508181036000830152614719816146dd565b9050919050565b600061472b8261305a565b91506147368361305a565b925082820190508082111561474e5761474d613d7c565b5b92915050565b7f4552433732313a20617070726f766520746f2063616c6c657200000000000000600082015250565b600061478a601983612fb3565b915061479582614754565b602082019050919050565b600060208201905081810360008301526147b98161477d565b9050919050565b7f4552433732313a207472616e7366657220746f206e6f6e20455243373231526560008201527f63656976657220696d706c656d656e7465720000000000000000000000000000602082015250565b600061481c603283612fb3565b9150614827826147c0565b604082019050919050565b6000602082019050818103600083015261484b8161480f565b9050919050565b600061485d8261305a565b91506148688361305a565b92508261487857614877613e21565b5b828206905092915050565b600082825260208201905092915050565b600061489f8261424a565b6148a98185614883565b93506148b9818560208601612fc4565b6148c281612fee565b840191505092915050565b60006080820190506148e260008301876130ef565b6148ef60208301866130ef565b6148fc6040830185613185565b818103606083015261490e8184614894565b905095945050505050565b60008151905061492881612f19565b92915050565b60006020828403121561494457614943612ee3565b5b600061495284828501614919565b91505092915050565b7f4e487b7100000000000000000000000000000000000000000000000000000000600052603160045260246000fd5b7f4552433732313a206d696e7420746f20746865207a65726f2061646472657373600082015250565b60006149c0602083612fb3565b91506149cb8261498a565b602082019050919050565b600060208201905081810360008301526149ef816149b3565b9050919050565b7f4552433732313a20746f6b656e20616c7265616479206d696e74656400000000600082015250565b6000614a2c601c83612fb3565b9150614a37826149f6565b602082019050919050565b60006020820190508181036000830152614a5b81614a1f565b905091905056fe3c73766720786d6c6e733d27687474703a2f2f7777772e77332e6f72672f323030302f737667272077696474683d273130383027206865696768743d2731303830272066696c6c3d276e6f6e652720786d6c6e733a763d2768747470733a2f2f76656374612e696f2f6e616e6f273e3c7061746820643d274d3336332e303736203339322e323237732d2e3937372031382e3532342d33362e3837342037382e393437632d34312e3537362037302e3031382d34352e343831203135312e3937382d332e303137203232302e342038392e353231203134342e323435203333322e343831203134312e3532203432322e3535362e3038392033342e3833322d35342e3730372034342e3831362d3131372e3437392033322e3932342d3138312e323438203020302d32382e3831392d3133332e3134342d3132372e3233372d3231372e30393920312e35353320312e33303820352e3336392031392e31323220362e3130312032362e37323220322e3234312032332e3335342e3034352034372e3833382d372e3738372037302e3036322d352e3734362031362e33332d31332e3731312033302e3436372d32372e3137382034312e33363820302d332e3831312d2e3935342d31302e3633352d2e3937362d31322e3931382d2e3634342d34362e3530382d31382e3635392d38392e3538322d34382e3031312d3132352e3734332d32352e3634372d33312e3535322d36302e3831322d35332e3038392d39372e38342d36382e3933322e39333120332e31393120322e3636322031362e34313920322e3930362031392e30333320312e3930382032312e39353820322e3236332035322e3731332d2e3632312037342e363439732d372e3833322033332e3837382d31342e3535342035342e343431632d31302e3138342033312e3137352d32342e30352035342e3238352d34312e3632312038322e3030342d332e323420352e3039362d31322e3931332031392e3037382d31382e3038322032362e313436203020302d382e3839372d35362e3139312d34302e3636372d38372e393231682d2e3032327a272066696c6c3d2723303030272f3e3c7061746820643d274d3536322e352032372e32386c3431302e323739203233362e3837346331332e39323320382e3033392032322e352032322e3839352032322e352033382e393731763437332e373563302031362e3037362d382e3537372033302e3933322d32322e352033382e3937314c3536322e3520313035322e3732632d31332e39323320382e30342d33312e30373720382e30342d343520304c3130372e323231203831352e383436632d31332e3932332d382e3033392d32322e352d32322e3839352d32322e352d33382e393731762d3437332e37356134352034352030203020312032322e352d33382e3937314c3531372e352032372e323861343520343520302030203120343520307a27207374726f6b653d272330303027207374726f6b652d77696474683d2732342e3735272f3e3c2f7376673e4142434445464748494a4b4c4d4e4f505152535455565758595a6162636465666768696a6b6c6d6e6f707172737475767778797a303132333435363738392b2fa2646970667358221220ad3a2a5fc856b8ef8ede76806528a646a1e3761d7694275fbb7f9c182ca3f5c864736f6c6343000811003352617465204c696d697420496e63726561736573206f6e204c69742050726f746f636f6c","abi":[{"inputs":[],"stateMutability":"nonpayable","type":"constructor"},{"anonymous":false,"inputs":[{"indexed":false,"internalType":"uint256","name":"newAdditionalRequestsPerMillisecondCost","type":"uint256"}],"name":"AdditionalRequestsPerSecondCostSet","type":"event"},{"anonymous":false,"inputs":[{"indexed":true,"internalType":"address","name":"owner","type":"address"},{"indexed":true,"internalType":"address","name":"approved","type":"address"},{"indexed":true,"internalType":"uint256","name":"tokenId","type":"uint256"}],"name":"Approval","type":"event"},{"anonymous":false,"inputs":[{"indexed":true,"internalType":"address","name":"owner","type":"address"},{"indexed":true,"internalType":"address","name":"operator","type":"address"},{"indexed":false,"internalType":"bool","name":"approved","type":"bool"}],"name":"ApprovalForAll","type":"event"},{"anonymous":false,"inputs":[{"indexed":true,"internalType":"address","name":"newFreeMintSigner","type":"address"}],"name":"FreeMintSignerSet","type":"event"},{"anonymous":false,"inputs":[{"indexed":false,"internalType":"uint256","name":"newFreeRequestsPerRateLimitWindow","type":"uint256"}],"name":"FreeRequestsPerRateLimitWindowSet","type":"event"},{"anonymous":false,"inputs":[{"indexed":true,"internalType":"address","name":"previousOwner","type":"address"},{"indexed":true,"internalType":"address","name":"newOwner","type":"address"}],"name":"OwnershipTransferred","type":"event"},{"anonymous":false,"inputs":[{"indexed":false,"internalType":"uint256","name":"newRLIHolderRateLimitWindowMilliseconds","type":"uint256"}],"name":"RLIHolderRateLimitWindowMillisecondsSet","type":"event"},{"anonymous":false,"inputs":[{"indexed":false,"internalType":"uint256","name":"newRateLimitWindowMilliseconds","type":"uint256"}],"name":"RateLimitWindowMillisecondsSet","type":"event"},{"anonymous":false,"inputs":[{"indexed":true,"internalType":"address","name":"from","type":"address"},{"indexed":true,"internalType":"address","name":"to","type":"address"},{"indexed":true,"internalType":"uint256","name":"tokenId","type":"uint256"}],"name":"Transfer","type":"event"},{"anonymous":false,"inputs":[{"indexed":false,"internalType":"uint256","name":"amount","type":"uint256"}],"name":"Withdrew","type":"event"},{"inputs":[],"name":"RLIHolderRateLimitWindowMilliseconds","outputs":[{"internalType":"uint256","name":"","type":"uint256"}],"stateMutability":"view","type":"function"},{"inputs":[],"name":"additionalRequestsPerMillisecondCost","outputs":[{"internalType":"uint256","name":"","type":"uint256"}],"stateMutability":"view","type":"function"},{"inputs":[{"internalType":"address","name":"to","type":"address"},{"internalType":"uint256","name":"tokenId","type":"uint256"}],"name":"approve","outputs":[],"stateMutability":"nonpayable","type":"function"},{"inputs":[{"internalType":"address","name":"owner","type":"address"}],"name":"balanceOf","outputs":[{"internalType":"uint256","name":"","type":"uint256"}],"stateMutability":"view","type":"function"},{"inputs":[{"internalType":"uint256","name":"tokenId","type":"uint256"}],"name":"burn","outputs":[],"stateMutability":"nonpayable","type":"function"},{"inputs":[{"internalType":"uint256","name":"requestsPerMillisecond","type":"uint256"},{"internalType":"uint256","name":"expiresAt","type":"uint256"}],"name":"calculateCost","outputs":[{"internalType":"uint256","name":"","type":"uint256"}],"stateMutability":"view","type":"function"},{"inputs":[{"internalType":"uint256","name":"payingAmount","type":"uint256"},{"internalType":"uint256","name":"expiresAt","type":"uint256"}],"name":"calculateRequestsPerSecond","outputs":[{"internalType":"uint256","name":"","type":"uint256"}],"stateMutability":"view","type":"function"},{"inputs":[{"internalType":"uint256","name":"","type":"uint256"}],"name":"capacity","outputs":[{"internalType":"uint256","name":"requestsPerMillisecond","type":"uint256"},{"internalType":"uint256","name":"expiresAt","type":"uint256"}],"stateMutability":"view","type":"function"},{"inputs":[],"name":"defaultRateLimitWindowMilliseconds","outputs":[{"internalType":"uint256","name":"","type":"uint256"}],"stateMutability":"view","type":"function"},{"inputs":[{"internalType":"uint256","name":"expiresAt","type":"uint256"},{"internalType":"uint256","name":"requestsPerMillisecond","type":"uint256"},{"internalType":"bytes32","name":"msgHash","type":"bytes32"},{"internalType":"uint8","name":"v","type":"uint8"},{"internalType":"bytes32","name":"r","type":"bytes32"},{"internalType":"bytes32","name":"s","type":"bytes32"}],"name":"freeMint","outputs":[],"stateMutability":"nonpayable","type":"function"},{"inputs":[{"internalType":"uint256","name":"expiresAt","type":"uint256"},{"internalType":"uint256","name":"requestsPerMillisecond","type":"uint256"},{"internalType":"bytes32","name":"msgHash","type":"bytes32"},{"internalType":"uint8","name":"v","type":"uint8"},{"internalType":"bytes32","name":"r","type":"bytes32"},{"internalType":"bytes32","name":"s","type":"bytes32"}],"name":"freeMintSigTest","outputs":[],"stateMutability":"view","type":"function"},{"inputs":[],"name":"freeMintSigner","outputs":[{"internalType":"address","name":"","type":"address"}],"stateMutability":"view","type":"function"},{"inputs":[],"name":"freeRequestsPerRateLimitWindow","outputs":[{"internalType":"uint256","name":"","type":"uint256"}],"stateMutability":"view","type":"function"},{"inputs":[{"internalType":"uint256","name":"tokenId","type":"uint256"}],"name":"getApproved","outputs":[{"internalType":"address","name":"","type":"address"}],"stateMutability":"view","type":"function"},{"inputs":[{"internalType":"address","name":"owner","type":"address"},{"internalType":"address","name":"operator","type":"address"}],"name":"isApprovedForAll","outputs":[{"internalType":"bool","name":"","type":"bool"}],"stateMutability":"view","type":"function"},{"inputs":[{"internalType":"uint256","name":"tokenId","type":"uint256"}],"name":"isExpired","outputs":[{"internalType":"bool","name":"","type":"bool"}],"stateMutability":"view","type":"function"},{"inputs":[{"internalType":"uint256","name":"expiresAt","type":"uint256"}],"name":"mint","outputs":[],"stateMutability":"payable","type":"function"},{"inputs":[],"name":"name","outputs":[{"internalType":"string","name":"","type":"string"}],"stateMutability":"view","type":"function"},{"inputs":[],"name":"owner","outputs":[{"internalType":"address","name":"","type":"address"}],"stateMutability":"view","type":"function"},{"inputs":[{"internalType":"uint256","name":"tokenId","type":"uint256"}],"name":"ownerOf","outputs":[{"internalType":"address","name":"","type":"address"}],"stateMutability":"view","type":"function"},{"inputs":[{"internalType":"bytes32","name":"hash","type":"bytes32"}],"name":"prefixed","outputs":[{"internalType":"bytes32","name":"","type":"bytes32"}],"stateMutability":"pure","type":"function"},{"inputs":[{"internalType":"bytes32","name":"","type":"bytes32"}],"name":"redeemedFreeMints","outputs":[{"internalType":"bool","name":"","type":"bool"}],"stateMutability":"view","type":"function"},{"inputs":[],"name":"renounceOwnership","outputs":[],"stateMutability":"nonpayable","type":"function"},{"inputs":[{"internalType":"address","name":"from","type":"address"},{"internalType":"address","name":"to","type":"address"},{"internalType":"uint256","name":"tokenId","type":"uint256"}],"name":"safeTransferFrom","outputs":[],"stateMutability":"nonpayable","type":"function"},{"inputs":[{"internalType":"address","name":"from","type":"address"},{"internalType":"address","name":"to","type":"address"},{"internalType":"uint256","name":"tokenId","type":"uint256"},{"internalType":"bytes","name":"data","type":"bytes"}],"name":"safeTransferFrom","outputs":[],"stateMutability":"nonpayable","type":"function"},{"inputs":[{"internalType":"uint256","name":"newAdditionalRequestsPerMillisecondCost","type":"uint256"}],"name":"setAdditionalRequestsPerSecondCost","outputs":[],"stateMutability":"nonpayable","type":"function"},{"inputs":[{"internalType":"address","name":"operator","type":"address"},{"internalType":"bool","name":"approved","type":"bool"}],"name":"setApprovalForAll","outputs":[],"stateMutability":"nonpayable","type":"function"},{"inputs":[{"internalType":"address","name":"newFreeMintSigner","type":"address"}],"name":"setFreeMintSigner","outputs":[],"stateMutability":"nonpayable","type":"function"},{"inputs":[{"internalType":"uint256","name":"newFreeRequestsPerRateLimitWindow","type":"uint256"}],"name":"setFreeRequestsPerRateLimitWindow","outputs":[],"stateMutability":"nonpayable","type":"function"},{"inputs":[{"internalType":"uint256","name":"newRLIHolderRateLimitWindowMilliseconds","type":"uint256"}],"name":"setRLIHolderRateLimitWindowMilliseconds","outputs":[],"stateMutability":"nonpayable","type":"function"},{"inputs":[{"internalType":"uint256","name":"newRateLimitWindowMilliseconds","type":"uint256"}],"name":"setRateLimitWindowMilliseconds","outputs":[],"stateMutability":"nonpayable","type":"function"},{"inputs":[{"internalType":"bytes4","name":"interfaceId","type":"bytes4"}],"name":"supportsInterface","outputs":[{"internalType":"bool","name":"","type":"bool"}],"stateMutability":"view","type":"function"},{"inputs":[],"name":"symbol","outputs":[{"internalType":"string","name":"","type":"string"}],"stateMutability":"view","type":"function"},{"inputs":[{"internalType":"uint256","name":"index","type":"uint256"}],"name":"tokenByIndex","outputs":[{"internalType":"uint256","name":"","type":"uint256"}],"stateMutability":"view","type":"function"},{"inputs":[],"name":"tokenIdCounter","outputs":[{"internalType":"uint256","name":"","type":"uint256"}],"stateMutability":"view","type":"function"},{"inputs":[{"internalType":"address","name":"owner","type":"address"},{"internalType":"uint256","name":"index","type":"uint256"}],"name":"tokenOfOwnerByIndex","outputs":[{"internalType":"uint256","name":"","type":"uint256"}],"stateMutability":"view","type":"function"},{"inputs":[{"internalType":"uint256","name":"tokenId","type":"uint256"}],"name":"tokenURI","outputs":[{"internalType":"string","name":"","type":"string"}],"stateMutability":"view","type":"function"},{"inputs":[],"name":"totalSupply","outputs":[{"internalType":"uint256","name":"","type":"uint256"}],"stateMutability":"view","type":"function"},{"inputs":[{"internalType":"address","name":"from","type":"address"},{"internalType":"address","name":"to","type":"address"},{"internalType":"uint256","name":"tokenId","type":"uint256"}],"name":"transferFrom","outputs":[],"stateMutability":"nonpayable","type":"function"},{"inputs":[{"internalType":"address","name":"newOwner","type":"address"}],"name":"transferOwnership","outputs":[],"stateMutability":"nonpayable","type":"function"},{"inputs":[],"name":"withdraw","outputs":[],"stateMutability":"nonpayable","type":"function"}]}