{"address":"0x3F3045291e74Ef9C121c2e7F636C1097F2C35Aec","bytecode":"0x60806040523480156200001157600080fd5b506040518060400160405280601481526020017f50726f6772616d6d61626c65204b6579706169720000000000000000000000008152506040518060400160405280600381526020017f504b50000000000000000000000000000000000000000000000000000000000081525081600090816200008f919062000559565b508060019081620000a1919062000559565b505050620000c4620000b86200013c60201b60201c565b6200014460201b60201c565b6001600b81905550655af3107a4000600e8190555033600f60006101000a81548173ffffffffffffffffffffffffffffffffffffffff021916908373ffffffffffffffffffffffffffffffffffffffff160217905550620001353360116200020a60201b6200240d1790919060201c565b5062000640565b600033905090565b6000600660009054906101000a900473ffffffffffffffffffffffffffffffffffffffff16905081600660006101000a81548173ffffffffffffffffffffffffffffffffffffffff021916908373ffffffffffffffffffffffffffffffffffffffff1602179055508173ffffffffffffffffffffffffffffffffffffffff168173ffffffffffffffffffffffffffffffffffffffff167f8be0079c531659141344cd1fd0a4f28419497f9722a3daafe3b4186f6b6457e060405160405180910390a35050565b60006200023a836000018373ffffffffffffffffffffffffffffffffffffffff1660001b6200024260201b60201c565b905092915050565b6000620002568383620002bc60201b60201c565b620002b1578260000182908060018154018082558091505060019003906000526020600020016000909190919091505582600001805490508360010160008481526020019081526020016000208190555060019050620002b6565b600090505b92915050565b600080836001016000848152602001908152602001600020541415905092915050565b600081519050919050565b7f4e487b7100000000000000000000000000000000000000000000000000000000600052604160045260246000fd5b7f4e487b7100000000000000000000000000000000000000000000000000000000600052602260045260246000fd5b600060028204905060018216806200036157607f821691505b60208210810362000377576200037662000319565b5b50919050565b60008190508160005260206000209050919050565b60006020601f8301049050919050565b600082821b905092915050565b600060088302620003e17fffffffffffffffffffffffffffffffffffffffffffffffffffffffffffffffff82620003a2565b620003ed8683620003a2565b95508019841693508086168417925050509392505050565b6000819050919050565b6000819050919050565b60006200043a620004346200042e8462000405565b6200040f565b62000405565b9050919050565b6000819050919050565b620004568362000419565b6200046e620004658262000441565b848454620003af565b825550505050565b600090565b6200048562000476565b620004928184846200044b565b505050565b5b81811015620004ba57620004ae6000826200047b565b60018101905062000498565b5050565b601f8211156200050957620004d3816200037d565b620004de8462000392565b81016020851015620004ee578190505b62000506620004fd8562000392565b83018262000497565b50505b505050565b600082821c905092915050565b60006200052e600019846008026200050e565b1980831691505092915050565b60006200054983836200051b565b9150826002028217905092915050565b6200056482620002df565b67ffffffffffffffff81111562000580576200057f620002ea565b5b6200058c825462000348565b62000599828285620004be565b600060209050601f831160018114620005d15760008415620005bc578287015190505b620005c885826200053b565b86555062000638565b601f198416620005e1866200037d565b60005b828110156200060b57848901518255600182019150602085019450602081019050620005e4565b868310156200062b578489015162000627601f8916826200051b565b8355505b6001600288020188555050505b505050505050565b61598b80620006506000396000f3fe60806040526004361061027d5760003560e01c8063715018a61161014f578063a22cb465116100c1578063cc293a2d1161007a578063cc293a2d14610a0b578063de18a50814610a3b578063e985e9c514610a78578063ef6fd87814610ab5578063f2fde38b14610af2578063f4e0d9ac14610b1b5761027d565b8063a22cb465146108e9578063b88d4fde14610912578063b94a21021461093b578063bd4986a014610966578063bdb4b848146109a3578063c87b56dd146109ce5761027d565b80638545f4ea116101135780638545f4ea146107d75780638da5cb5b146108005780639004525f1461082b5780639388f12e1461086857806395d89b411461089357806397016f3f146108be5761027d565b8063715018a6146106ed57806371c9ce13146107045780637ba0e2e7146107415780637bd3e3f614610771578063831324ea146107ae5761027d565b806342842e0e116101f357806356e3a1ae116101ac57806356e3a1ae146105a75780635f49663c146105e45780636352211e1461060d57806364c7605e1461064a5780636f2096371461068757806370a08231146106b05761027d565b806342842e0e1461048757806342966c68146104b05780634c19eae6146104d95780634cf088d9146105025780634f558e791461052d5780634f6ccce71461056a5761027d565b80631ea89a22116102455780631ea89a221461037b5780631f275713146103a457806323b872dd146103e15780632f745c591461040a5780633b189852146104475780633ccfd60b146104705761027d565b806301ffc9a71461028257806306fdde03146102bf578063081812fc146102ea578063095ea7b31461032757806318160ddd14610350575b600080fd5b34801561028e57600080fd5b506102a960048036038101906102a49190613a96565b610b44565b6040516102b69190613ade565b60405180910390f35b3480156102cb57600080fd5b506102d4610c7e565b6040516102e19190613b89565b60405180910390f35b3480156102f657600080fd5b50610311600480360381019061030c9190613be1565b610d10565b60405161031e9190613c4f565b60405180910390f35b34801561033357600080fd5b5061034e60048036038101906103499190613c96565b610d56565b005b34801561035c57600080fd5b50610365610e6d565b6040516103729190613ce5565b60405180910390f35b34801561038757600080fd5b506103a2600480360381019061039d9190613d00565b610e7a565b005b3480156103b057600080fd5b506103cb60048036038101906103c69190613d63565b610f09565b6040516103d89190613d9f565b60405180910390f35b3480156103ed57600080fd5b5061040860048036038101906104039190613dba565b610f39565b005b34801561041657600080fd5b50610431600480360381019061042c9190613c96565b610f99565b60405161043e9190613ce5565b60405180910390f35b34801561045357600080fd5b5061046e60048036038101906104699190613d00565b61103e565b005b34801561047c57600080fd5b506104856110cd565b005b34801561049357600080fd5b506104ae60048036038101906104a99190613dba565b6111e0565b005b3480156104bc57600080fd5b506104d760048036038101906104d29190613be1565b611200565b005b3480156104e557600080fd5b5061050060048036038101906104fb9190613e46565b61125c565b005b34801561050e57600080fd5b50610517611426565b6040516105249190613f20565b60405180910390f35b34801561053957600080fd5b50610554600480360381019061054f9190613be1565b61144c565b6040516105619190613ade565b60405180910390f35b34801561057657600080fd5b50610591600480360381019061058c9190613be1565b61145e565b60405161059e9190613ce5565b60405180910390f35b3480156105b357600080fd5b506105ce60048036038101906105c99190613be1565b6114cf565b6040516105db9190613ade565b60405180910390f35b3480156105f057600080fd5b5061060b60048036038101906106069190613d00565b6114ef565b005b34801561061957600080fd5b50610634600480360381019061062f9190613be1565b61157e565b6040516106419190613c4f565b60405180910390f35b34801561065657600080fd5b50610671600480360381019061066c9190614070565b61162f565b60405161067e9190613ce5565b60405180910390f35b34801561069357600080fd5b506106ae60048036038101906106a99190613d00565b6117bd565b005b3480156106bc57600080fd5b506106d760048036038101906106d29190613d00565b611820565b6040516106e49190613ce5565b60405180910390f35b3480156106f957600080fd5b506107026118d7565b005b34801561071057600080fd5b5061072b6004803603810190610726919061414a565b6118eb565b6040516107389190613ce5565b60405180910390f35b61075b6004803603810190610756919061414a565b611966565b6040516107689190613ce5565b60405180910390f35b34801561077d57600080fd5b5061079860048036038101906107939190613be1565b611a20565b6040516107a591906141e8565b60405180910390f35b3480156107ba57600080fd5b506107d560048036038101906107d09190613d00565b611ac0565b005b3480156107e357600080fd5b506107fe60048036038101906107f99190613be1565b611b23565b005b34801561080c57600080fd5b50610815611b6c565b6040516108229190613c4f565b60405180910390f35b34801561083757600080fd5b50610852600480360381019061084d919061420a565b611b96565b60405161085f9190613ce5565b60405180910390f35b34801561087457600080fd5b5061087d611c40565b60405161088a91906142d4565b60405180910390f35b34801561089f57600080fd5b506108a8611c66565b6040516108b59190613b89565b60405180910390f35b3480156108ca57600080fd5b506108d3611cf8565b6040516108e09190614310565b60405180910390f35b3480156108f557600080fd5b50610910600480360381019061090b9190614357565b611d1e565b005b34801561091e57600080fd5b5061093960048036038101906109349190614397565b611d34565b005b34801561094757600080fd5b50610950611d96565b60405161095d9190613c4f565b60405180910390f35b34801561097257600080fd5b5061098d60048036038101906109889190613be1565b611dbc565b60405161099a9190613c4f565b60405180910390f35b3480156109af57600080fd5b506109b8611e8c565b6040516109c59190613ce5565b60405180910390f35b3480156109da57600080fd5b506109f560048036038101906109f09190613be1565b611e92565b604051610a029190613b89565b60405180910390f35b610a256004803603810190610a20919061441a565b612016565b604051610a329190613ce5565b60405180910390f35b348015610a4757600080fd5b50610a626004803603810190610a5d9190613d00565b6121aa565b604051610a6f9190613ce5565b60405180910390f35b348015610a8457600080fd5b50610a9f6004803603810190610a9a9190614492565b6121c2565b604051610aac9190613ade565b60405180910390f35b348015610ac157600080fd5b50610adc6004803603810190610ad79190613be1565b612256565b604051610ae991906141e8565b60405180910390f35b348015610afe57600080fd5b50610b196004803603810190610b149190613d00565b6122fb565b005b348015610b2757600080fd5b50610b426004803603810190610b3d9190613d00565b61237e565b005b60007f780e9d63000000000000000000000000000000000000000000000000000000007bffffffffffffffffffffffffffffffffffffffffffffffffffffffff1916827bffffffffffffffffffffffffffffffffffffffffffffffffffffffff19161480610c0f57507f5b5e139f000000000000000000000000000000000000000000000000000000007bffffffffffffffffffffffffffffffffffffffffffffffffffffffff1916827bffffffffffffffffffffffffffffffffffffffffffffffffffffffff1916145b80610c7757507f80ac58cd000000000000000000000000000000000000000000000000000000007bffffffffffffffffffffffffffffffffffffffffffffffffffffffff1916827bffffffffffffffffffffffffffffffffffffffffffffffffffffffff1916145b9050919050565b606060008054610c8d90614501565b80601f0160208091040260200160405190810160405280929190818152602001828054610cb990614501565b8015610d065780601f10610cdb57610100808354040283529160200191610d06565b820191906000526020600020905b815481529060010190602001808311610ce957829003601f168201915b5050505050905090565b6000610d1b8261243d565b6004600083815260200190815260200160002060009054906101000a900473ffffffffffffffffffffffffffffffffffffffff169050919050565b6000610d618261157e565b90508073ffffffffffffffffffffffffffffffffffffffff168373ffffffffffffffffffffffffffffffffffffffff1603610dd1576040517f08c379a0000000000000000000000000000000000000000000000000000000008152600401610dc8906145a4565b60405180910390fd5b8073ffffffffffffffffffffffffffffffffffffffff16610df0612488565b73ffffffffffffffffffffffffffffffffffffffff161480610e1f5750610e1e81610e19612488565b6121c2565b5b610e5e576040517f08c379a0000000000000000000000000000000000000000000000000000000008152600401610e5590614636565b60405180910390fd5b610e688383612490565b505050565b6000600980549050905090565b610e82612549565b80600c60006101000a81548173ffffffffffffffffffffffffffffffffffffffff021916908373ffffffffffffffffffffffffffffffffffffffff1602179055508073ffffffffffffffffffffffffffffffffffffffff167f42d2ac2cd8a457cf976d513bacdc167baa2ff2cd2706c98d222bb035b89d496960405160405180910390a250565b600081604051602001610f1c91906146ce565b604051602081830303815290604052805190602001209050919050565b610f4a610f44612488565b826125c7565b610f89576040517f08c379a0000000000000000000000000000000000000000000000000000000008152600401610f8090614766565b60405180910390fd5b610f9483838361265c565b505050565b6000610fa483611820565b8210610fe5576040517f08c379a0000000000000000000000000000000000000000000000000000000008152600401610fdc906147f8565b60405180910390fd5b600760008473ffffffffffffffffffffffffffffffffffffffff1673ffffffffffffffffffffffffffffffffffffffff168152602001908152602001600020600083815260200190815260200160002054905092915050565b611046612549565b80600f60006101000a81548173ffffffffffffffffffffffffffffffffffffffff021916908373ffffffffffffffffffffffffffffffffffffffff1602179055508073ffffffffffffffffffffffffffffffffffffffff167f65d3e06a561c77a07da59b8b2ca10214ae08fe21cc2953a90db0ac8b5b7c437160405160405180910390a250565b6110d5612549565b6002600b540361111a576040517f08c379a000000000000000000000000000000000000000000000000000000000815260040161111190614864565b60405180910390fd5b6002600b81905550600047905060003373ffffffffffffffffffffffffffffffffffffffff168260405161114d906148b5565b60006040518083038185875af1925050503d806000811461118a576040519150601f19603f3d011682016040523d82523d6000602084013e61118f565b606091505b505090508061119d57600080fd5b7fb6b476da71cea8275cac6b1720c04966afaff5e637472cedb6cbd32c43a23251826040516111cc9190613ce5565b60405180910390a150506001600b81905550565b6111fb83838360405180602001604052806000815250611d34565b505050565b61121161120b612488565b826125c7565b611250576040517f08c379a000000000000000000000000000000000000000000000000000000000815260040161124790614766565b60405180910390fd5b611259816128c2565b50565b600061128f3087604051602001611274929190614933565b60405160208183030381529060405280519060200120610f09565b90508481146112d3576040517f08c379a00000000000000000000000000000000000000000000000000000000081526004016112ca906149d1565b60405180910390fd5b6000600186868686604051600081526020016040526040516112f89493929190614a00565b6020604051602081039080840390855afa15801561131a573d6000803e3d6000fd5b505050602060405103519050600f60009054906101000a900473ffffffffffffffffffffffffffffffffffffffff1673ffffffffffffffffffffffffffffffffffffffff168173ffffffffffffffffffffffffffffffffffffffff16146113b6576040517f08c379a00000000000000000000000000000000000000000000000000000000081526004016113ad90614add565b60405180910390fd5b600015156015600089815260200190815260200160002060009054906101000a900460ff1615151461141d576040517f08c379a000000000000000000000000000000000000000000000000000000000815260040161141490614b6f565b60405180910390fd5b50505050505050565b601060009054906101000a900473ffffffffffffffffffffffffffffffffffffffff1681565b6000611457826129df565b9050919050565b6000611468610e6d565b82106114a9576040517f08c379a00000000000000000000000000000000000000000000000000000000081526004016114a090614c01565b60405180910390fd5b600982815481106114bd576114bc614c21565b5b90600052602060002001549050919050565b60156020528060005260406000206000915054906101000a900460ff1681565b6114f7612549565b80600d60006101000a81548173ffffffffffffffffffffffffffffffffffffffff021916908373ffffffffffffffffffffffffffffffffffffffff1602179055508073ffffffffffffffffffffffffffffffffffffffff167f446c3422d569626abc16e1497dfa8270f1192bd56ea9ec8890b09705ddc275ad60405160405180910390a250565b6000806002600084815260200190815260200160002060009054906101000a900473ffffffffffffffffffffffffffffffffffffffff169050600073ffffffffffffffffffffffffffffffffffffffff168173ffffffffffffffffffffffffffffffffffffffff1603611626576040517f08c379a000000000000000000000000000000000000000000000000000000000815260040161161d90614c9c565b60405180910390fd5b80915050919050565b6000611645326011612a4b90919063ffffffff16565b611684576040517f08c379a000000000000000000000000000000000000000000000000000000000815260040161167b90614d08565b60405180910390fd5b611691878686868661125c565b600061169d8930612a7b565b90506001601560008a815260200190815260200160002060006101000a81548160ff021916908315150217905550600c60009054906101000a900473ffffffffffffffffffffffffffffffffffffffff1673ffffffffffffffffffffffffffffffffffffffff16638a4315788289600067ffffffffffffffff81111561172657611725613f45565b5b6040519080825280602002602001820160405280156117545781602001602082028036833780820191505090505b506040518463ffffffff1660e01b815260040161177393929190614de6565b600060405180830381600087803b15801561178d57600080fd5b505af11580156117a1573d6000803e3d6000fd5b505050506117ae816128c2565b80915050979650505050505050565b6117c5612549565b6117d9816011612bb790919063ffffffff16565b508073ffffffffffffffffffffffffffffffffffffffff167f44f4322f8daa225d5f4877ad0f7d3dfba248a774396f3ca99405ed40a044fe8160405160405180910390a250565b60008073ffffffffffffffffffffffffffffffffffffffff168273ffffffffffffffffffffffffffffffffffffffff1603611890576040517f08c379a000000000000000000000000000000000000000000000000000000000815260040161188790614e9d565b60405180910390fd5b600360008373ffffffffffffffffffffffffffffffffffffffff1673ffffffffffffffffffffffffffffffffffffffff168152602001908152602001600020549050919050565b6118df612549565b6118e96000612be7565b565b600080828051906020012060001c9050600060136000838152602001908152602001600020805461191b90614501565b90501461195d576040517f08c379a000000000000000000000000000000000000000000000000000000000815260040161195490614f09565b60405180910390fd5b80915050919050565b6000600e5434146119ac576040517f08c379a00000000000000000000000000000000000000000000000000000000081526004016119a390614f75565b60405180910390fd5b6119c0326011612a4b90919063ffffffff16565b6119ff576040517f08c379a00000000000000000000000000000000000000000000000000000000081526004016119f690614d08565b60405180910390fd5b6000611a0a836118eb565b9050611a168333612a7b565b5080915050919050565b60136020528060005260406000206000915090508054611a3f90614501565b80601f0160208091040260200160405190810160405280929190818152602001828054611a6b90614501565b8015611ab85780601f10611a8d57610100808354040283529160200191611ab8565b820191906000526020600020905b815481529060010190602001808311611a9b57829003601f168201915b505050505081565b611ac8612549565b611adc81601161240d90919063ffffffff16565b508073ffffffffffffffffffffffffffffffffffffffff167fcddac40078270fda4a2cd64a6089b372413df61e8de795e484d9c054c44ce16f60405160405180910390a250565b611b2b612549565b80600e819055507f653b8b44976b2e5c016e082d134653d04dea9dbef92055038cca38c93007035581604051611b619190613ce5565b60405180910390a150565b6000600660009054906101000a900473ffffffffffffffffffffffffffffffffffffffff16905090565b6000611bac326011612a4b90919063ffffffff16565b611beb576040517f08c379a0000000000000000000000000000000000000000000000000000000008152600401611be290614d08565b60405180910390fd5b611bf8868686868661125c565b6000611c048833612a7b565b905060016015600089815260200190815260200160002060006101000a81548160ff021916908315150217905550809150509695505050505050565b600d60009054906101000a900473ffffffffffffffffffffffffffffffffffffffff1681565b606060018054611c7590614501565b80601f0160208091040260200160405190810160405280929190818152602001828054611ca190614501565b8015611cee5780601f10611cc357610100808354040283529160200191611cee565b820191906000526020600020905b815481529060010190602001808311611cd157829003601f168201915b5050505050905090565b600c60009054906101000a900473ffffffffffffffffffffffffffffffffffffffff1681565b611d30611d29612488565b8383612cad565b5050565b611d45611d3f612488565b836125c7565b611d84576040517f08c379a0000000000000000000000000000000000000000000000000000000008152600401611d7b90614766565b60405180910390fd5b611d9084848484612e19565b50505050565b600f60009054906101000a900473ffffffffffffffffffffffffffffffffffffffff1681565b600080611e7160016040601360008781526020019081526020016000208054611de490614501565b80601f0160208091040260200160405190810160405280929190818152602001828054611e1090614501565b8015611e5d5780601f10611e3257610100808354040283529160200191611e5d565b820191906000526020600020905b815481529060010190602001808311611e4057829003601f168201915b5050505050612e759092919063ffffffff16565b90506000818051906020012090508060001c92505050919050565b600e5481565b6060611ed26040518060400160405280601181526020017f67657474696e6720746f6b656e20757269000000000000000000000000000000815250612f93565b6000611edd83612256565b9050611f1d6040518060400160405280601f81526020017f676f74207075626b65792c2067657474696e6720657468206164647265737300815250612f93565b6000611f2884611dbc565b9050611f686040518060400160405280601081526020017f63616c6c696e6720746f6b656e55524900000000000000000000000000000000815250612f93565b600d60009054906101000a900473ffffffffffffffffffffffffffffffffffffffff1673ffffffffffffffffffffffffffffffffffffffff1663950462ee8584846040518463ffffffff1660e01b8152600401611fc793929190614f95565b600060405180830381865afa158015611fe4573d6000803e3d6000fd5b505050506040513d6000823e3d601f19601f8201168201806040525081019061200d9190615074565b92505050919050565b6000600e54341461205c576040517f08c379a000000000000000000000000000000000000000000000000000000000815260040161205390614f75565b60405180910390fd5b612070326011612a4b90919063ffffffff16565b6120af576040517f08c379a00000000000000000000000000000000000000000000000000000000081526004016120a690614d08565b60405180910390fd5b60006120bb8430612a7b565b9050600c60009054906101000a900473ffffffffffffffffffffffffffffffffffffffff1673ffffffffffffffffffffffffffffffffffffffff16638a4315788285600067ffffffffffffffff81111561211857612117613f45565b5b6040519080825280602002602001820160405280156121465781602001602082028036833780820191505090505b506040518463ffffffff1660e01b815260040161216593929190614de6565b600060405180830381600087803b15801561217f57600080fd5b505af1158015612193573d6000803e3d6000fd5b505050506121a0816128c2565b8091505092915050565b60146020528060005260406000206000915090505481565b6000600560008473ffffffffffffffffffffffffffffffffffffffff1673ffffffffffffffffffffffffffffffffffffffff16815260200190815260200160002060008373ffffffffffffffffffffffffffffffffffffffff1673ffffffffffffffffffffffffffffffffffffffff16815260200190815260200160002060009054906101000a900460ff16905092915050565b606060136000838152602001908152602001600020805461227690614501565b80601f01602080910402602001604051908101604052809291908181526020018280546122a290614501565b80156122ef5780601f106122c4576101008083540402835291602001916122ef565b820191906000526020600020905b8154815290600101906020018083116122d257829003601f168201915b50505050509050919050565b612303612549565b600073ffffffffffffffffffffffffffffffffffffffff168173ffffffffffffffffffffffffffffffffffffffff1603612372576040517f08c379a00000000000000000000000000000000000000000000000000000000081526004016123699061512f565b60405180910390fd5b61237b81612be7565b50565b612386612549565b80601060006101000a81548173ffffffffffffffffffffffffffffffffffffffff021916908373ffffffffffffffffffffffffffffffffffffffff1602179055508073ffffffffffffffffffffffffffffffffffffffff167f524b317898d91e941d8311edbdd1bf568e07309f08e11f7ef94c053a9e35f91860405160405180910390a250565b6000612435836000018373ffffffffffffffffffffffffffffffffffffffff1660001b61302c565b905092915050565b612446816129df565b612485576040517f08c379a000000000000000000000000000000000000000000000000000000000815260040161247c90614c9c565b60405180910390fd5b50565b600033905090565b816004600083815260200190815260200160002060006101000a81548173ffffffffffffffffffffffffffffffffffffffff021916908373ffffffffffffffffffffffffffffffffffffffff160217905550808273ffffffffffffffffffffffffffffffffffffffff166125038361157e565b73ffffffffffffffffffffffffffffffffffffffff167f8c5be1e5ebec7d5bd14f71427d1e84f3dd0314c0f7b2291e5b200ac8c7c3b92560405160405180910390a45050565b612551612488565b73ffffffffffffffffffffffffffffffffffffffff1661256f611b6c565b73ffffffffffffffffffffffffffffffffffffffff16146125c5576040517f08c379a00000000000000000000000000000000000000000000000000000000081526004016125bc9061519b565b60405180910390fd5b565b6000806125d38361157e565b90508073ffffffffffffffffffffffffffffffffffffffff168473ffffffffffffffffffffffffffffffffffffffff161480612615575061261481856121c2565b5b8061265357508373ffffffffffffffffffffffffffffffffffffffff1661263b84610d10565b73ffffffffffffffffffffffffffffffffffffffff16145b91505092915050565b8273ffffffffffffffffffffffffffffffffffffffff1661267c8261157e565b73ffffffffffffffffffffffffffffffffffffffff16146126d2576040517f08c379a00000000000000000000000000000000000000000000000000000000081526004016126c99061522d565b60405180910390fd5b600073ffffffffffffffffffffffffffffffffffffffff168273ffffffffffffffffffffffffffffffffffffffff1603612741576040517f08c379a0000000000000000000000000000000000000000000000000000000008152600401612738906152bf565b60405180910390fd5b61274c83838361309c565b612757600082612490565b6001600360008573ffffffffffffffffffffffffffffffffffffffff1673ffffffffffffffffffffffffffffffffffffffff16815260200190815260200160002060008282546127a7919061530e565b925050819055506001600360008473ffffffffffffffffffffffffffffffffffffffff1673ffffffffffffffffffffffffffffffffffffffff16815260200190815260200160002060008282546127fe9190615342565b92505081905550816002600083815260200190815260200160002060006101000a81548173ffffffffffffffffffffffffffffffffffffffff021916908373ffffffffffffffffffffffffffffffffffffffff160217905550808273ffffffffffffffffffffffffffffffffffffffff168473ffffffffffffffffffffffffffffffffffffffff167fddf252ad1be2c89b69c2b068fc378daa952ba7f163c4a11628f55a4df523b3ef60405160405180910390a46128bd8383836130ac565b505050565b60006128cd8261157e565b90506128db8160008461309c565b6128e6600083612490565b6001600360008373ffffffffffffffffffffffffffffffffffffffff1673ffffffffffffffffffffffffffffffffffffffff1681526020019081526020016000206000828254612936919061530e565b925050819055506002600083815260200190815260200160002060006101000a81549073ffffffffffffffffffffffffffffffffffffffff021916905581600073ffffffffffffffffffffffffffffffffffffffff168273ffffffffffffffffffffffffffffffffffffffff167fddf252ad1be2c89b69c2b068fc378daa952ba7f163c4a11628f55a4df523b3ef60405160405180910390a46129db816000846130ac565b5050565b60008073ffffffffffffffffffffffffffffffffffffffff166002600084815260200190815260200160002060009054906101000a900473ffffffffffffffffffffffffffffffffffffffff1673ffffffffffffffffffffffffffffffffffffffff1614159050919050565b6000612a73836000018373ffffffffffffffffffffffffffffffffffffffff1660001b6130b1565b905092915050565b600080838051906020012060001c90506000601360008381526020019081526020016000208054612aab90614501565b905014612aed576040517f08c379a0000000000000000000000000000000000000000000000000000000008152600401612ae490614f09565b60405180910390fd5b83601360008381526020019081526020016000209081612b0d9190615518565b506000612b1982611dbc565b905081601460008373ffffffffffffffffffffffffffffffffffffffff1673ffffffffffffffffffffffffffffffffffffffff168152602001908152602001600020819055503073ffffffffffffffffffffffffffffffffffffffff168473ffffffffffffffffffffffffffffffffffffffff1603612ba157612b9c84836130d4565b612bac565b612bab84836132ad565b5b819250505092915050565b6000612bdf836000018373ffffffffffffffffffffffffffffffffffffffff1660001b6132cb565b905092915050565b6000600660009054906101000a900473ffffffffffffffffffffffffffffffffffffffff16905081600660006101000a81548173ffffffffffffffffffffffffffffffffffffffff021916908373ffffffffffffffffffffffffffffffffffffffff1602179055508173ffffffffffffffffffffffffffffffffffffffff168173ffffffffffffffffffffffffffffffffffffffff167f8be0079c531659141344cd1fd0a4f28419497f9722a3daafe3b4186f6b6457e060405160405180910390a35050565b8173ffffffffffffffffffffffffffffffffffffffff168373ffffffffffffffffffffffffffffffffffffffff1603612d1b576040517f08c379a0000000000000000000000000000000000000000000000000000000008152600401612d1290615636565b60405180910390fd5b80600560008573ffffffffffffffffffffffffffffffffffffffff1673ffffffffffffffffffffffffffffffffffffffff16815260200190815260200160002060008473ffffffffffffffffffffffffffffffffffffffff1673ffffffffffffffffffffffffffffffffffffffff16815260200190815260200160002060006101000a81548160ff0219169083151502179055508173ffffffffffffffffffffffffffffffffffffffff168373ffffffffffffffffffffffffffffffffffffffff167f17307eab39ab6107e8899845ad3d59bd9653f200f220920489ca2b5937696c3183604051612e0c9190613ade565b60405180910390a3505050565b612e2484848461265c565b612e30848484846133df565b612e6f576040517f08c379a0000000000000000000000000000000000000000000000000000000008152600401612e66906156c8565b60405180910390fd5b50505050565b606081601f83612e859190615342565b1015612ec6576040517f08c379a0000000000000000000000000000000000000000000000000000000008152600401612ebd90615734565b60405180910390fd5b8183612ed29190615342565b84511015612f15576040517f08c379a0000000000000000000000000000000000000000000000000000000008152600401612f0c906157a0565b60405180910390fd5b6060821560008114612f365760405191506000825260208201604052612f87565b6040519150601f8416801560200281840101858101878315602002848b0101015b81831015612f745780518352602083019250602081019050612f57565b50868552601f19601f8301166040525050505b50809150509392505050565b61302981604051602401612fa79190613b89565b6040516020818303038152906040527f41304fac000000000000000000000000000000000000000000000000000000007bffffffffffffffffffffffffffffffffffffffffffffffffffffffff19166020820180517bffffffffffffffffffffffffffffffffffffffffffffffffffffffff8381831617835250505050613566565b50565b600061303883836130b1565b613091578260000182908060018154018082558091505060019003906000526020600020016000909190919091505582600001805490508360010160008481526020019081526020016000208190555060019050613096565b600090505b92915050565b6130a783838361358f565b505050565b505050565b600080836001016000848152602001908152602001600020541415905092915050565b600073ffffffffffffffffffffffffffffffffffffffff168273ffffffffffffffffffffffffffffffffffffffff1603613143576040517f08c379a000000000000000000000000000000000000000000000000000000000815260040161313a9061580c565b60405180910390fd5b61314c816129df565b1561318c576040517f08c379a000000000000000000000000000000000000000000000000000000000815260040161318390615878565b60405180910390fd5b6131986000838361309c565b6001600360008473ffffffffffffffffffffffffffffffffffffffff1673ffffffffffffffffffffffffffffffffffffffff16815260200190815260200160002060008282546131e89190615342565b92505081905550816002600083815260200190815260200160002060006101000a81548173ffffffffffffffffffffffffffffffffffffffff021916908373ffffffffffffffffffffffffffffffffffffffff160217905550808273ffffffffffffffffffffffffffffffffffffffff16600073ffffffffffffffffffffffffffffffffffffffff167fddf252ad1be2c89b69c2b068fc378daa952ba7f163c4a11628f55a4df523b3ef60405160405180910390a46132a9600083836130ac565b5050565b6132c78282604051806020016040528060008152506136a1565b5050565b600080836001016000848152602001908152602001600020549050600081146133d35760006001826132fd919061530e565b9050600060018660000180549050613315919061530e565b905081811461338457600086600001828154811061333657613335614c21565b5b906000526020600020015490508087600001848154811061335a57613359614c21565b5b90600052602060002001819055508387600101600083815260200190815260200160002081905550505b8560000180548061339857613397615898565b5b6001900381819060005260206000200160009055905585600101600086815260200190815260200160002060009055600193505050506133d9565b60009150505b92915050565b60006134008473ffffffffffffffffffffffffffffffffffffffff166136fc565b15613559578373ffffffffffffffffffffffffffffffffffffffff1663150b7a02613429612488565b8786866040518563ffffffff1660e01b815260040161344b94939291906158c7565b6020604051808303816000875af192505050801561348757506040513d601f19601f820116820180604052508101906134849190615928565b60015b613509573d80600081146134b7576040519150601f19603f3d011682016040523d82523d6000602084013e6134bc565b606091505b506000815103613501576040517f08c379a00000000000000000000000000000000000000000000000000000000081526004016134f8906156c8565b60405180910390fd5b805181602001fd5b63150b7a0260e01b7bffffffffffffffffffffffffffffffffffffffffffffffffffffffff1916817bffffffffffffffffffffffffffffffffffffffffffffffffffffffff19161491505061355e565b600190505b949350505050565b60008151905060006a636f6e736f6c652e6c6f679050602083016000808483855afa5050505050565b61359a83838361371f565b600073ffffffffffffffffffffffffffffffffffffffff168373ffffffffffffffffffffffffffffffffffffffff16036135dc576135d781613724565b61361b565b8173ffffffffffffffffffffffffffffffffffffffff168373ffffffffffffffffffffffffffffffffffffffff161461361a57613619838261376d565b5b5b600073ffffffffffffffffffffffffffffffffffffffff168273ffffffffffffffffffffffffffffffffffffffff160361365d57613658816138da565b61369c565b8273ffffffffffffffffffffffffffffffffffffffff168273ffffffffffffffffffffffffffffffffffffffff161461369b5761369a82826139ab565b5b5b505050565b6136ab83836130d4565b6136b860008484846133df565b6136f7576040517f08c379a00000000000000000000000000000000000000000000000000000000081526004016136ee906156c8565b60405180910390fd5b505050565b6000808273ffffffffffffffffffffffffffffffffffffffff163b119050919050565b505050565b600980549050600a600083815260200190815260200160002081905550600981908060018154018082558091505060019003906000526020600020016000909190919091505550565b6000600161377a84611820565b613784919061530e565b9050600060086000848152602001908152602001600020549050818114613869576000600760008673ffffffffffffffffffffffffffffffffffffffff1673ffffffffffffffffffffffffffffffffffffffff168152602001908152602001600020600084815260200190815260200160002054905080600760008773ffffffffffffffffffffffffffffffffffffffff1673ffffffffffffffffffffffffffffffffffffffff168152602001908152602001600020600084815260200190815260200160002081905550816008600083815260200190815260200160002081905550505b6008600084815260200190815260200160002060009055600760008573ffffffffffffffffffffffffffffffffffffffff1673ffffffffffffffffffffffffffffffffffffffff16815260200190815260200160002060008381526020019081526020016000206000905550505050565b600060016009805490506138ee919061530e565b90506000600a600084815260200190815260200160002054905060006009838154811061391e5761391d614c21565b5b9060005260206000200154905080600983815481106139405761393f614c21565b5b906000526020600020018190555081600a600083815260200190815260200160002081905550600a600085815260200190815260200160002060009055600980548061398f5761398e615898565b5b6001900381819060005260206000200160009055905550505050565b60006139b683611820565b905081600760008573ffffffffffffffffffffffffffffffffffffffff1673ffffffffffffffffffffffffffffffffffffffff168152602001908152602001600020600083815260200190815260200160002081905550806008600084815260200190815260200160002081905550505050565b6000604051905090565b600080fd5b600080fd5b60007fffffffff0000000000000000000000000000000000000000000000000000000082169050919050565b613a7381613a3e565b8114613a7e57600080fd5b50565b600081359050613a9081613a6a565b92915050565b600060208284031215613aac57613aab613a34565b5b6000613aba84828501613a81565b91505092915050565b60008115159050919050565b613ad881613ac3565b82525050565b6000602082019050613af36000830184613acf565b92915050565b600081519050919050565b600082825260208201905092915050565b60005b83811015613b33578082015181840152602081019050613b18565b60008484015250505050565b6000601f19601f8301169050919050565b6000613b5b82613af9565b613b658185613b04565b9350613b75818560208601613b15565b613b7e81613b3f565b840191505092915050565b60006020820190508181036000830152613ba38184613b50565b905092915050565b6000819050919050565b613bbe81613bab565b8114613bc957600080fd5b50565b600081359050613bdb81613bb5565b92915050565b600060208284031215613bf757613bf6613a34565b5b6000613c0584828501613bcc565b91505092915050565b600073ffffffffffffffffffffffffffffffffffffffff82169050919050565b6000613c3982613c0e565b9050919050565b613c4981613c2e565b82525050565b6000602082019050613c646000830184613c40565b92915050565b613c7381613c2e565b8114613c7e57600080fd5b50565b600081359050613c9081613c6a565b92915050565b60008060408385031215613cad57613cac613a34565b5b6000613cbb85828601613c81565b9250506020613ccc85828601613bcc565b9150509250929050565b613cdf81613bab565b82525050565b6000602082019050613cfa6000830184613cd6565b92915050565b600060208284031215613d1657613d15613a34565b5b6000613d2484828501613c81565b91505092915050565b6000819050919050565b613d4081613d2d565b8114613d4b57600080fd5b50565b600081359050613d5d81613d37565b92915050565b600060208284031215613d7957613d78613a34565b5b6000613d8784828501613d4e565b91505092915050565b613d9981613d2d565b82525050565b6000602082019050613db46000830184613d90565b92915050565b600080600060608486031215613dd357613dd2613a34565b5b6000613de186828701613c81565b9350506020613df286828701613c81565b9250506040613e0386828701613bcc565b9150509250925092565b600060ff82169050919050565b613e2381613e0d565b8114613e2e57600080fd5b50565b600081359050613e4081613e1a565b92915050565b600080600080600060a08688031215613e6257613e61613a34565b5b6000613e7088828901613bcc565b9550506020613e8188828901613d4e565b9450506040613e9288828901613e31565b9350506060613ea388828901613d4e565b9250506080613eb488828901613d4e565b9150509295509295909350565b6000819050919050565b6000613ee6613ee1613edc84613c0e565b613ec1565b613c0e565b9050919050565b6000613ef882613ecb565b9050919050565b6000613f0a82613eed565b9050919050565b613f1a81613eff565b82525050565b6000602082019050613f356000830184613f11565b92915050565b600080fd5b600080fd5b7f4e487b7100000000000000000000000000000000000000000000000000000000600052604160045260246000fd5b613f7d82613b3f565b810181811067ffffffffffffffff82111715613f9c57613f9b613f45565b5b80604052505050565b6000613faf613a2a565b9050613fbb8282613f74565b919050565b600067ffffffffffffffff821115613fdb57613fda613f45565b5b613fe482613b3f565b9050602081019050919050565b82818337600083830152505050565b600061401361400e84613fc0565b613fa5565b90508281526020810184848401111561402f5761402e613f40565b5b61403a848285613ff1565b509392505050565b600082601f83011261405757614056613f3b565b5b8135614067848260208601614000565b91505092915050565b600080600080600080600060e0888a03121561408f5761408e613a34565b5b600088013567ffffffffffffffff8111156140ad576140ac613a39565b5b6140b98a828b01614042565b97505060206140ca8a828b01613bcc565b965050604088013567ffffffffffffffff8111156140eb576140ea613a39565b5b6140f78a828b01614042565b95505060606141088a828b01613d4e565b94505060806141198a828b01613e31565b93505060a061412a8a828b01613d4e565b92505060c061413b8a828b01613d4e565b91505092959891949750929550565b6000602082840312156141605761415f613a34565b5b600082013567ffffffffffffffff81111561417e5761417d613a39565b5b61418a84828501614042565b91505092915050565b600081519050919050565b600082825260208201905092915050565b60006141ba82614193565b6141c4818561419e565b93506141d4818560208601613b15565b6141dd81613b3f565b840191505092915050565b6000602082019050818103600083015261420281846141af565b905092915050565b60008060008060008060c0878903121561422757614226613a34565b5b600087013567ffffffffffffffff81111561424557614244613a39565b5b61425189828a01614042565b965050602061426289828a01613bcc565b955050604061427389828a01613d4e565b945050606061428489828a01613e31565b935050608061429589828a01613d4e565b92505060a06142a689828a01613d4e565b9150509295509295509295565b60006142be82613eed565b9050919050565b6142ce816142b3565b82525050565b60006020820190506142e960008301846142c5565b92915050565b60006142fa82613eed565b9050919050565b61430a816142ef565b82525050565b60006020820190506143256000830184614301565b92915050565b61433481613ac3565b811461433f57600080fd5b50565b6000813590506143518161432b565b92915050565b6000806040838503121561436e5761436d613a34565b5b600061437c85828601613c81565b925050602061438d85828601614342565b9150509250929050565b600080600080608085870312156143b1576143b0613a34565b5b60006143bf87828801613c81565b94505060206143d087828801613c81565b93505060406143e187828801613bcc565b925050606085013567ffffffffffffffff81111561440257614401613a39565b5b61440e87828801614042565b91505092959194509250565b6000806040838503121561443157614430613a34565b5b600083013567ffffffffffffffff81111561444f5761444e613a39565b5b61445b85828601614042565b925050602083013567ffffffffffffffff81111561447c5761447b613a39565b5b61448885828601614042565b9150509250929050565b600080604083850312156144a9576144a8613a34565b5b60006144b785828601613c81565b92505060206144c885828601613c81565b9150509250929050565b7f4e487b7100000000000000000000000000000000000000000000000000000000600052602260045260246000fd5b6000600282049050600182168061451957607f821691505b60208210810361452c5761452b6144d2565b5b50919050565b7f4552433732313a20617070726f76616c20746f2063757272656e74206f776e6560008201527f7200000000000000000000000000000000000000000000000000000000000000602082015250565b600061458e602183613b04565b915061459982614532565b604082019050919050565b600060208201905081810360008301526145bd81614581565b9050919050565b7f4552433732313a20617070726f76652063616c6c6572206973206e6f7420746f60008201527f6b656e206f776e6572206e6f7220617070726f76656420666f7220616c6c0000602082015250565b6000614620603e83613b04565b915061462b826145c4565b604082019050919050565b6000602082019050818103600083015261464f81614613565b9050919050565b600081905092915050565b7f19457468657265756d205369676e6564204d6573736167653a0a333200000000600082015250565b6000614697601c83614656565b91506146a282614661565b601c82019050919050565b6000819050919050565b6146c86146c382613d2d565b6146ad565b82525050565b60006146d98261468a565b91506146e582846146b7565b60208201915081905092915050565b7f4552433732313a2063616c6c6572206973206e6f7420746f6b656e206f776e6560008201527f72206e6f7220617070726f766564000000000000000000000000000000000000602082015250565b6000614750602e83613b04565b915061475b826146f4565b604082019050919050565b6000602082019050818103600083015261477f81614743565b9050919050565b7f455243373231456e756d657261626c653a206f776e657220696e646578206f7560008201527f74206f6620626f756e6473000000000000000000000000000000000000000000602082015250565b60006147e2602b83613b04565b91506147ed82614786565b604082019050919050565b60006020820190508181036000830152614811816147d5565b9050919050565b7f5265656e7472616e637947756172643a207265656e7472616e742063616c6c00600082015250565b600061484e601f83613b04565b915061485982614818565b602082019050919050565b6000602082019050818103600083015261487d81614841565b9050919050565b600081905092915050565b50565b600061489f600083614884565b91506148aa8261488f565b600082019050919050565b60006148c082614892565b9150819050919050565b60008160601b9050919050565b60006148e2826148ca565b9050919050565b60006148f4826148d7565b9050919050565b61490c61490782613c2e565b6148e9565b82525050565b6000819050919050565b61492d61492882613bab565b614912565b82525050565b600061493f82856148fb565b60148201915061494f828461491c565b6020820191508190509392505050565b7f546865206d736748617368206973206e6f7420612068617368206f662074686560008201527f20746f6b656e49642e20204578706c61696e20796f757273656c662100000000602082015250565b60006149bb603c83613b04565b91506149c68261495f565b604082019050919050565b600060208201905081810360008301526149ea816149ae565b9050919050565b6149fa81613e0d565b82525050565b6000608082019050614a156000830187613d90565b614a2260208301866149f1565b614a2f6040830185613d90565b614a3c6060830184613d90565b95945050505050565b7f5468697320667265654d696e7420776173206e6f74207369676e65642062792060008201527f667265654d696e745369676e65722e2020486f7720656d626172617373696e6760208201527f2e00000000000000000000000000000000000000000000000000000000000000604082015250565b6000614ac7604183613b04565b9150614ad282614a45565b606082019050919050565b60006020820190508181036000830152614af681614aba565b9050919050565b7f546869732066726565206d696e742049442068617320616c726561647920626560008201527f656e2072656465656d6564000000000000000000000000000000000000000000602082015250565b6000614b59602b83613b04565b9150614b6482614afd565b604082019050919050565b60006020820190508181036000830152614b8881614b4c565b9050919050565b7f455243373231456e756d657261626c653a20676c6f62616c20696e646578206f60008201527f7574206f6620626f756e64730000000000000000000000000000000000000000602082015250565b6000614beb602c83613b04565b9150614bf682614b8f565b604082019050919050565b60006020820190508181036000830152614c1a81614bde565b9050919050565b7f4e487b7100000000000000000000000000000000000000000000000000000000600052603260045260246000fd5b7f4552433732313a20696e76616c696420746f6b656e2049440000000000000000600082015250565b6000614c86601883613b04565b9150614c9182614c50565b602082019050919050565b60006020820190508181036000830152614cb581614c79565b9050919050565b7f596f7520617265206e6f74207065726d697474656420746f206d696e74000000600082015250565b6000614cf2601d83613b04565b9150614cfd82614cbc565b602082019050919050565b60006020820190508181036000830152614d2181614ce5565b9050919050565b600081519050919050565b600082825260208201905092915050565b6000819050602082019050919050565b614d5d81613bab565b82525050565b6000614d6f8383614d54565b60208301905092915050565b6000602082019050919050565b6000614d9382614d28565b614d9d8185614d33565b9350614da883614d44565b8060005b83811015614dd9578151614dc08882614d63565b9750614dcb83614d7b565b925050600181019050614dac565b5085935050505092915050565b6000606082019050614dfb6000830186613cd6565b8181036020830152614e0d81856141af565b90508181036040830152614e218184614d88565b9050949350505050565b7f4552433732313a2061646472657373207a65726f206973206e6f74206120766160008201527f6c6964206f776e65720000000000000000000000000000000000000000000000602082015250565b6000614e87602983613b04565b9150614e9282614e2b565b604082019050919050565b60006020820190508181036000830152614eb681614e7a565b9050919050565b7f54686973207075626b657920616c726561647920657869737473000000000000600082015250565b6000614ef3601a83613b04565b9150614efe82614ebd565b602082019050919050565b60006020820190508181036000830152614f2281614ee6565b9050919050565b7f596f75206d757374207061792065786163746c79206d696e7420636f73740000600082015250565b6000614f5f601e83613b04565b9150614f6a82614f29565b602082019050919050565b60006020820190508181036000830152614f8e81614f52565b9050919050565b6000606082019050614faa6000830186613cd6565b8181036020830152614fbc81856141af565b9050614fcb6040830184613c40565b949350505050565b600067ffffffffffffffff821115614fee57614fed613f45565b5b614ff782613b3f565b9050602081019050919050565b600061501761501284614fd3565b613fa5565b90508281526020810184848401111561503357615032613f40565b5b61503e848285613b15565b509392505050565b600082601f83011261505b5761505a613f3b565b5b815161506b848260208601615004565b91505092915050565b60006020828403121561508a57615089613a34565b5b600082015167ffffffffffffffff8111156150a8576150a7613a39565b5b6150b484828501615046565b91505092915050565b7f4f776e61626c653a206e6577206f776e657220697320746865207a65726f206160008201527f6464726573730000000000000000000000000000000000000000000000000000602082015250565b6000615119602683613b04565b9150615124826150bd565b604082019050919050565b600060208201905081810360008301526151488161510c565b9050919050565b7f4f776e61626c653a2063616c6c6572206973206e6f7420746865206f776e6572600082015250565b6000615185602083613b04565b91506151908261514f565b602082019050919050565b600060208201905081810360008301526151b481615178565b9050919050565b7f4552433732313a207472616e736665722066726f6d20696e636f72726563742060008201527f6f776e6572000000000000000000000000000000000000000000000000000000602082015250565b6000615217602583613b04565b9150615222826151bb565b604082019050919050565b600060208201905081810360008301526152468161520a565b9050919050565b7f4552433732313a207472616e7366657220746f20746865207a65726f2061646460008201527f7265737300000000000000000000000000000000000000000000000000000000602082015250565b60006152a9602483613b04565b91506152b48261524d565b604082019050919050565b600060208201905081810360008301526152d88161529c565b9050919050565b7f4e487b7100000000000000000000000000000000000000000000000000000000600052601160045260246000fd5b600061531982613bab565b915061532483613bab565b925082820390508181111561533c5761533b6152df565b5b92915050565b600061534d82613bab565b915061535883613bab565b92508282019050808211156153705761536f6152df565b5b92915050565b60008190508160005260206000209050919050565b60006020601f8301049050919050565b600082821b905092915050565b6000600883026153d87fffffffffffffffffffffffffffffffffffffffffffffffffffffffffffffffff8261539b565b6153e2868361539b565b95508019841693508086168417925050509392505050565b600061541561541061540b84613bab565b613ec1565b613bab565b9050919050565b6000819050919050565b61542f836153fa565b61544361543b8261541c565b8484546153a8565b825550505050565b600090565b61545861544b565b615463818484615426565b505050565b5b818110156154875761547c600082615450565b600181019050615469565b5050565b601f8211156154cc5761549d81615376565b6154a68461538b565b810160208510156154b5578190505b6154c96154c18561538b565b830182615468565b50505b505050565b600082821c905092915050565b60006154ef600019846008026154d1565b1980831691505092915050565b600061550883836154de565b9150826002028217905092915050565b61552182614193565b67ffffffffffffffff81111561553a57615539613f45565b5b6155448254614501565b61554f82828561548b565b600060209050601f8311600181146155825760008415615570578287015190505b61557a85826154fc565b8655506155e2565b601f19841661559086615376565b60005b828110156155b857848901518255600182019150602085019450602081019050615593565b868310156155d557848901516155d1601f8916826154de565b8355505b6001600288020188555050505b505050505050565b7f4552433732313a20617070726f766520746f2063616c6c657200000000000000600082015250565b6000615620601983613b04565b915061562b826155ea565b602082019050919050565b6000602082019050818103600083015261564f81615613565b9050919050565b7f4552433732313a207472616e7366657220746f206e6f6e20455243373231526560008201527f63656976657220696d706c656d656e7465720000000000000000000000000000602082015250565b60006156b2603283613b04565b91506156bd82615656565b604082019050919050565b600060208201905081810360008301526156e1816156a5565b9050919050565b7f736c6963655f6f766572666c6f77000000000000000000000000000000000000600082015250565b600061571e600e83613b04565b9150615729826156e8565b602082019050919050565b6000602082019050818103600083015261574d81615711565b9050919050565b7f736c6963655f6f75744f66426f756e6473000000000000000000000000000000600082015250565b600061578a601183613b04565b915061579582615754565b602082019050919050565b600060208201905081810360008301526157b98161577d565b9050919050565b7f4552433732313a206d696e7420746f20746865207a65726f2061646472657373600082015250565b60006157f6602083613b04565b9150615801826157c0565b602082019050919050565b60006020820190508181036000830152615825816157e9565b9050919050565b7f4552433732313a20746f6b656e20616c7265616479206d696e74656400000000600082015250565b6000615862601c83613b04565b915061586d8261582c565b602082019050919050565b6000602082019050818103600083015261589181615855565b9050919050565b7f4e487b7100000000000000000000000000000000000000000000000000000000600052603160045260246000fd5b60006080820190506158dc6000830187613c40565b6158e96020830186613c40565b6158f66040830185613cd6565b818103606083015261590881846141af565b905095945050505050565b60008151905061592281613a6a565b92915050565b60006020828403121561593e5761593d613a34565b5b600061594c84828501615913565b9150509291505056fea264697066735822122050079be92fc9d5ddf7cbe0f0a8d11a189508222c82430d3903f337e939c0ee0164736f6c63430008110033","abi":[{"inputs":[],"stateMutability":"nonpayable","type":"constructor"},{"anonymous":false,"inputs":[{"indexed":true,"internalType":"address","name":"owner","type":"address"},{"indexed":true,"internalType":"address","name":"approved","type":"address"},{"indexed":true,"internalType":"uint256","name":"tokenId","type":"uint256"}],"name":"Approval","type":"event"},{"anonymous":false,"inputs":[{"indexed":true,"internalType":"address","name":"owner","type":"address"},{"indexed":true,"internalType":"address","name":"operator","type":"address"},{"indexed":false,"internalType":"bool","name":"approved","type":"bool"}],"name":"ApprovalForAll","type":"event"},{"anonymous":false,"inputs":[{"indexed":true,"internalType":"address","name":"newFreeMintSigner","type":"address"}],"name":"FreeMintSignerSet","type":"event"},{"anonymous":false,"inputs":[{"indexed":false,"internalType":"uint256","name":"newMintCost","type":"uint256"}],"name":"MintCostSet","type":"event"},{"anonymous":false,"inputs":[{"indexed":true,"internalType":"address","name":"minter","type":"address"}],"name":"MinterPermitted","type":"event"},{"anonymous":false,"inputs":[{"indexed":true,"internalType":"address","name":"minter","type":"address"}],"name":"MinterRevoked","type":"event"},{"anonymous":false,"inputs":[{"indexed":true,"internalType":"address","name":"previousOwner","type":"address"},{"indexed":true,"internalType":"address","name":"newOwner","type":"address"}],"name":"OwnershipTransferred","type":"event"},{"anonymous":false,"inputs":[{"indexed":true,"internalType":"address","name":"pkpNftMetadataAddress","type":"address"}],"name":"PkpNftMetadataAddressSet","type":"event"},{"anonymous":false,"inputs":[{"indexed":true,"internalType":"address","name":"pkpPermissionsAddress","type":"address"}],"name":"PkpPermissionsAddressSet","type":"event"},{"anonymous":false,"inputs":[{"indexed":true,"internalType":"uint256","name":"tokenId","type":"uint256"},{"indexed":true,"internalType":"uint256","name":"keyType","type":"uint256"}],"name":"PkpRouted","type":"event"},{"anonymous":false,"inputs":[{"indexed":true,"internalType":"address","name":"stakingAddress","type":"address"}],"name":"StakingAddressSet","type":"event"},{"anonymous":false,"inputs":[{"indexed":true,"internalType":"address","name":"from","type":"address"},{"indexed":true,"internalType":"address","name":"to","type":"address"},{"indexed":true,"internalType":"uint256","name":"tokenId","type":"uint256"}],"name":"Transfer","type":"event"},{"anonymous":false,"inputs":[{"indexed":false,"internalType":"uint256","name":"amount","type":"uint256"}],"name":"Withdrew","type":"event"},{"inputs":[{"internalType":"bytes","name":"pubkey","type":"bytes"}],"name":"_getTokenIdToMint","outputs":[{"internalType":"uint256","name":"","type":"uint256"}],"stateMutability":"view","type":"function"},{"inputs":[{"internalType":"address","name":"newPermittedMinter","type":"address"}],"name":"addPermittedMinter","outputs":[],"stateMutability":"nonpayable","type":"function"},{"inputs":[{"internalType":"address","name":"to","type":"address"},{"internalType":"uint256","name":"tokenId","type":"uint256"}],"name":"approve","outputs":[],"stateMutability":"nonpayable","type":"function"},{"inputs":[{"internalType":"address","name":"owner","type":"address"}],"name":"balanceOf","outputs":[{"internalType":"uint256","name":"","type":"uint256"}],"stateMutability":"view","type":"function"},{"inputs":[{"internalType":"uint256","name":"tokenId","type":"uint256"}],"name":"burn","outputs":[],"stateMutability":"nonpayable","type":"function"},{"inputs":[{"internalType":"address","name":"","type":"address"}],"name":"ethAddressToPkpId","outputs":[{"internalType":"uint256","name":"","type":"uint256"}],"stateMutability":"view","type":"function"},{"inputs":[{"internalType":"uint256","name":"tokenId","type":"uint256"}],"name":"exists","outputs":[{"internalType":"bool","name":"","type":"bool"}],"stateMutability":"view","type":"function"},{"inputs":[{"internalType":"bytes","name":"pubkey","type":"bytes"},{"internalType":"uint256","name":"freeMintId","type":"uint256"},{"internalType":"bytes32","name":"msgHash","type":"bytes32"},{"internalType":"uint8","name":"v","type":"uint8"},{"internalType":"bytes32","name":"r","type":"bytes32"},{"internalType":"bytes32","name":"s","type":"bytes32"}],"name":"freeMint","outputs":[{"internalType":"uint256","name":"","type":"uint256"}],"stateMutability":"nonpayable","type":"function"},{"inputs":[{"internalType":"bytes","name":"pubkey","type":"bytes"},{"internalType":"uint256","name":"freeMintId","type":"uint256"},{"internalType":"bytes","name":"ipfsCID","type":"bytes"},{"internalType":"bytes32","name":"msgHash","type":"bytes32"},{"internalType":"uint8","name":"v","type":"uint8"},{"internalType":"bytes32","name":"r","type":"bytes32"},{"internalType":"bytes32","name":"s","type":"bytes32"}],"name":"freeMintGrantAndBurn","outputs":[{"internalType":"uint256","name":"","type":"uint256"}],"stateMutability":"nonpayable","type":"function"},{"inputs":[{"internalType":"uint256","name":"freeMintId","type":"uint256"},{"internalType":"bytes32","name":"msgHash","type":"bytes32"},{"internalType":"uint8","name":"v","type":"uint8"},{"internalType":"bytes32","name":"r","type":"bytes32"},{"internalType":"bytes32","name":"s","type":"bytes32"}],"name":"freeMintSigTest","outputs":[],"stateMutability":"view","type":"function"},{"inputs":[],"name":"freeMintSigner","outputs":[{"internalType":"address","name":"","type":"address"}],"stateMutability":"view","type":"function"},{"inputs":[{"internalType":"uint256","name":"tokenId","type":"uint256"}],"name":"getApproved","outputs":[{"internalType":"address","name":"","type":"address"}],"stateMutability":"view","type":"function"},{"inputs":[{"internalType":"uint256","name":"tokenId","type":"uint256"}],"name":"getEthAddress","outputs":[{"internalType":"address","name":"","type":"address"}],"stateMutability":"view","type":"function"},{"inputs":[{"internalType":"uint256","name":"tokenId","type":"uint256"}],"name":"getPubkey","outputs":[{"internalType":"bytes","name":"","type":"bytes"}],"stateMutability":"view","type":"function"},{"inputs":[{"internalType":"address","name":"owner","type":"address"},{"internalType":"address","name":"operator","type":"address"}],"name":"isApprovedForAll","outputs":[{"internalType":"bool","name":"","type":"bool"}],"stateMutability":"view","type":"function"},{"inputs":[{"internalType":"bytes","name":"pubkey","type":"bytes"}],"name":"mint","outputs":[{"internalType":"uint256","name":"","type":"uint256"}],"stateMutability":"payable","type":"function"},{"inputs":[],"name":"mintCost","outputs":[{"internalType":"uint256","name":"","type":"uint256"}],"stateMutability":"view","type":"function"},{"inputs":[{"internalType":"bytes","name":"pubkey","type":"bytes"},{"internalType":"bytes","name":"ipfsCID","type":"bytes"}],"name":"mintGrantAndBurn","outputs":[{"internalType":"uint256","name":"","type":"uint256"}],"stateMutability":"payable","type":"function"},{"inputs":[],"name":"name","outputs":[{"internalType":"string","name":"","type":"string"}],"stateMutability":"view","type":"function"},{"inputs":[],"name":"owner","outputs":[{"internalType":"address","name":"","type":"address"}],"stateMutability":"view","type":"function"},{"inputs":[{"internalType":"uint256","name":"tokenId","type":"uint256"}],"name":"ownerOf","outputs":[{"internalType":"address","name":"","type":"address"}],"stateMutability":"view","type":"function"},{"inputs":[],"name":"pkpNftMetadata","outputs":[{"internalType":"contract PKPNFTMetadata","name":"","type":"address"}],"stateMutability":"view","type":"function"},{"inputs":[],"name":"pkpPermissions","outputs":[{"internalType":"contract PKPPermissions","name":"","type":"address"}],"stateMutability":"view","type":"function"},{"inputs":[{"internalType":"bytes32","name":"hash","type":"bytes32"}],"name":"prefixed","outputs":[{"internalType":"bytes32","name":"","type":"bytes32"}],"stateMutability":"pure","type":"function"},{"inputs":[{"internalType":"uint256","name":"","type":"uint256"}],"name":"pubkeys","outputs":[{"internalType":"bytes","name":"","type":"bytes"}],"stateMutability":"view","type":"function"},{"inputs":[{"internalType":"uint256","name":"","type":"uint256"}],"name":"redeemedFreeMintIds","outputs":[{"internalType":"bool","name":"","type":"bool"}],"stateMutability":"view","type":"function"},{"inputs":[{"internalType":"address","name":"newPermittedMinter","type":"address"}],"name":"removePermittedMinter","outputs":[],"stateMutability":"nonpayable","type":"function"},{"inputs":[],"name":"renounceOwnership","outputs":[],"stateMutability":"nonpayable","type":"function"},{"inputs":[{"internalType":"address","name":"from","type":"address"},{"internalType":"address","name":"to","type":"address"},{"internalType":"uint256","name":"tokenId","type":"uint256"}],"name":"safeTransferFrom","outputs":[],"stateMutability":"nonpayable","type":"function"},{"inputs":[{"internalType":"address","name":"from","type":"address"},{"internalType":"address","name":"to","type":"address"},{"internalType":"uint256","name":"tokenId","type":"uint256"},{"internalType":"bytes","name":"data","type":"bytes"}],"name":"safeTransferFrom","outputs":[],"stateMutability":"nonpayable","type":"function"},{"inputs":[{"internalType":"address","name":"operator","type":"address"},{"internalType":"bool","name":"approved","type":"bool"}],"name":"setApprovalForAll","outputs":[],"stateMutability":"nonpayable","type":"function"},{"inputs":[{"internalType":"address","name":"newFreeMintSigner","type":"address"}],"name":"setFreeMintSigner","outputs":[],"stateMutability":"nonpayable","type":"function"},{"inputs":[{"internalType":"uint256","name":"newMintCost","type":"uint256"}],"name":"setMintCost","outputs":[],"stateMutability":"nonpayable","type":"function"},{"inputs":[{"internalType":"address","name":"pkpNftMetadataAddress","type":"address"}],"name":"setPkpNftMetadataAddress","outputs":[],"stateMutability":"nonpayable","type":"function"},{"inputs":[{"internalType":"address","name":"pkpPermissionsAddress","type":"address"}],"name":"setPkpPermissionsAddress","outputs":[],"stateMutability":"nonpayable","type":"function"},{"inputs":[{"internalType":"address","name":"stakingAddress","type":"address"}],"name":"setStakingAddress","outputs":[],"stateMutability":"nonpayable","type":"function"},{"inputs":[],"name":"staking","outputs":[{"internalType":"contract Staking","name":"","type":"address"}],"stateMutability":"view","type":"function"},{"inputs":[{"internalType":"bytes4","name":"interfaceId","type":"bytes4"}],"name":"supportsInterface","outputs":[{"internalType":"bool","name":"","type":"bool"}],"stateMutability":"view","type":"function"},{"inputs":[],"name":"symbol","outputs":[{"internalType":"string","name":"","type":"string"}],"stateMutability":"view","type":"function"},{"inputs":[{"internalType":"uint256","name":"index","type":"uint256"}],"name":"tokenByIndex","outputs":[{"internalType":"uint256","name":"","type":"uint256"}],"stateMutability":"view","type":"function"},{"inputs":[{"internalType":"address","name":"owner","type":"address"},{"internalType":"uint256","name":"index","type":"uint256"}],"name":"tokenOfOwnerByIndex","outputs":[{"internalType":"uint256","name":"","type":"uint256"}],"stateMutability":"view","type":"function"},{"inputs":[{"internalType":"uint256","name":"tokenId","type":"uint256"}],"name":"tokenURI","outputs":[{"internalType":"string","name":"","type":"string"}],"stateMutability":"view","type":"function"},{"inputs":[],"name":"totalSupply","outputs":[{"internalType":"uint256","name":"","type":"uint256"}],"stateMutability":"view","type":"function"},{"inputs":[{"internalType":"address","name":"from","type":"address"},{"internalType":"address","name":"to","type":"address"},{"internalType":"uint256","name":"tokenId","type":"uint256"}],"name":"transferFrom","outputs":[],"stateMutability":"nonpayable","type":"function"},{"inputs":[{"internalType":"address","name":"newOwner","type":"address"}],"name":"transferOwnership","outputs":[],"stateMutability":"nonpayable","type":"function"},{"inputs":[],"name":"withdraw","outputs":[],"stateMutability":"nonpayable","type":"function"}]}