{"address":"0x88606ab963B2e467C8276FD3aFC74Eb73273Ff7A","bytecode":"0x60806040526000600160156101000a81548160ff021916908360038111156200002d576200002c62000560565b5b02179055503480156200003f57600080fd5b50604051620053a9380380620053a98339818101604052810190620000659190620003be565b60016000819055506000600160006101000a81548160ff021916908315150217905550620000a86200009c620002c560201b60201c565b620002cd60201b60201c565b80600260006101000a81548173ffffffffffffffffffffffffffffffffffffffff021916908373ffffffffffffffffffffffffffffffffffffffff1602179055506040518060800160405280605081526020016001815260200160014362000111919062000422565b815260200160008152506003600082015181600001556020820151816001015560408201518160020155606082015181600301559050506014600260009054906101000a900473ffffffffffffffffffffffffffffffffffffffff1673ffffffffffffffffffffffffffffffffffffffff1663313ce5676040518163ffffffff1660e01b815260040160206040518083038186803b158015620001b357600080fd5b505afa158015620001c8573d6000803e3d6000fd5b505050506040513d601f19601f82011682018060405250810190620001ee9190620003f0565b600a18620001fd91906200047f565b60ff16600781905550600260009054906101000a900473ffffffffffffffffffffffffffffffffffffffff1673ffffffffffffffffffffffffffffffffffffffff1663313ce5676040518163ffffffff1660e01b815260040160206040518083038186803b1580156200026f57600080fd5b505afa15801562000284573d6000803e3d6000fd5b505050506040513d601f19601f82011682018060405250810190620002aa9190620003f0565b600a1860ff166008819055506005600a8190555050620005c8565b600033905090565b600060018054906101000a900473ffffffffffffffffffffffffffffffffffffffff169050816001806101000a81548173ffffffffffffffffffffffffffffffffffffffff021916908373ffffffffffffffffffffffffffffffffffffffff1602179055508173ffffffffffffffffffffffffffffffffffffffff168173ffffffffffffffffffffffffffffffffffffffff167f8be0079c531659141344cd1fd0a4f28419497f9722a3daafe3b4186f6b6457e060405160405180910390a35050565b600081519050620003a18162000594565b92915050565b600081519050620003b881620005ae565b92915050565b600060208284031215620003d757620003d66200058f565b5b6000620003e78482850162000390565b91505092915050565b6000602082840312156200040957620004086200058f565b5b60006200041984828501620003a7565b91505092915050565b60006200042f82620004eb565b91506200043c83620004eb565b9250827fffffffffffffffffffffffffffffffffffffffffffffffffffffffffffffffff0382111562000474576200047362000502565b5b828201905092915050565b60006200048c82620004f5565b91506200049983620004f5565b925082620004ac57620004ab62000531565b5b828204905092915050565b6000620004c482620004cb565b9050919050565b600073ffffffffffffffffffffffffffffffffffffffff82169050919050565b6000819050919050565b600060ff82169050919050565b7f4e487b7100000000000000000000000000000000000000000000000000000000600052601160045260246000fd5b7f4e487b7100000000000000000000000000000000000000000000000000000000600052601260045260246000fd5b7f4e487b7100000000000000000000000000000000000000000000000000000000600052602160045260246000fd5b600080fd5b6200059f81620004b7565b8114620005ab57600080fd5b50565b620005b981620004f5565b8114620005c557600080fd5b50565b614dd180620005d86000396000f3fe608060405234801561001057600080fd5b506004361061027f5760003560e01c8063857b76631161015c578063c006e00b116100ce578063ec5ffac211610087578063ec5ffac2146106f6578063f1887fec14610714578063f2fde38b14610732578063f48d2a271461074e578063f938e2851461076c578063fa52c7d8146107885761027f565b8063c006e00b1461066c578063c19d93fb14610676578063c35d4d0914610694578063dd21d626146106b2578063e587b8a7146106d0578063e9fad8ee146106ec5761027f565b80639e6f9d0d116101205780639e6f9d0d146105e4578063a4c569b914610600578063a694fc3a1461061e578063ac2f8afe1461063a578063b9ce663814610644578063bee36e9c146106625761027f565b8063857b76631461054d5780638d2b9c811461056b5780638da5cb5b14610589578063900cf0cf146105a75780639435d7c7146105c85761027f565b80635081f66f116101f557806370fe276a116101b957806370fe276a1461048a578063715018a6146104bb578063721e4cdc146104c557806372f702f3146104e1578063817b1cd2146104ff578063847e06251461051d5761027f565b80635081f66f146103c0578063519877eb146103f057806354eea796146104205780635c975abb1461043c57806370a082311461045a5761027f565b80632e1a7d4d116102475780632e1a7d4d146103145780633cf80e6c146103305780633d18b9121461033a57806340550a1c14610344578063455b0de6146103745780634927a143146103905761027f565b8063063d82391461028457806316930f4d146102a25780631d62ebd9146102ac5780631e9b12ef146102dc578063233e9903146102f8575b600080fd5b61028c6107bd565b6040516102999190614110565b60405180910390f35b6102aa6107c3565b005b6102c660048036038101906102c1919061360a565b610930565b6040516102d39190614110565b60405180910390f35b6102f660048036038101906102f1919061360a565b61097c565b005b610312600480360381019061030d9190613664565b6109c8565b005b61032e60048036038101906103299190613664565b6109da565b005b610338610c98565b005b610342611031565b005b61035e6004803603810190610359919061360a565b6111be565b60405161036b9190613d7d565b60405180910390f35b61038e60048036038101906103899190613664565b6111db565b005b6103aa60048036038101906103a59190613691565b6111ed565b6040516103b79190614110565b60405180910390f35b6103da60048036038101906103d5919061360a565b611218565b6040516103e79190613ce0565b60405180910390f35b61040a6004803603810190610405919061360a565b61124b565b6040516104179190613d7d565b60405180910390f35b61043a60048036038101906104359190613664565b61126b565b005b610444611280565b6040516104519190613d7d565b60405180910390f35b610474600480360381019061046f919061360a565b611297565b6040516104819190614110565b60405180910390f35b6104a4600480360381019061049f91906136d1565b6112e3565b6040516104b292919061412b565b60405180910390f35b6104c361139b565b005b6104df60048036038101906104da919061379f565b6113af565b005b6104e9611571565b6040516104f69190613d98565b60405180910390f35b610507611597565b6040516105149190614110565b60405180910390f35b6105376004803603810190610532919061360a565b61159d565b6040516105449190613d7d565b60405180910390f35b61055561161e565b6040516105629190613d5b565b60405180910390f35b610573611706565b6040516105809190613d7d565b60405180910390f35b610591611744565b60405161059e9190613ce0565b60405180910390f35b6105af61176c565b6040516105bf9493929190614154565b60405180910390f35b6105e260048036038101906105dd919061360a565b61178a565b005b6105fe60048036038101906105f9919061379f565b611d62565b005b6106086121ea565b6040516106159190613d7d565b60405180910390f35b61063860048036038101906106339190613664565b612227565b005b6106426123d2565b005b61064c61254f565b6040516106599190614110565b60405180910390f35b61066a612555565b005b6106746127eb565b005b61067e6129f3565b60405161068b9190613db3565b60405180910390f35b61069c612a06565b6040516106a99190613d5b565b60405180910390f35b6106ba612aee565b6040516106c79190614110565b60405180910390f35b6106ea60048036038101906106e59190613664565b612b32565b005b6106f4612b44565b005b6106fe612b99565b60405161070b9190614110565b60405180910390f35b61071c612b9f565b6040516107299190613d7d565b60405180910390f35b61074c6004803603810190610747919061360a565b612c63565b005b610756612ce7565b6040516107639190613d7d565b60405180910390f35b61078660048036038101906107819190613724565b612d24565b005b6107a2600480360381019061079d919061360a565b612d48565b6040516107b496959493929190614199565b60405180910390f35b60075481565b60036002015443101561080b576040517f08c379a000000000000000000000000000000000000000000000000000000000815260040161080290613ef0565b60405180910390fd5b6000600381111561081f5761081e614523565b5b600160159054906101000a900460ff16600381111561084157610840614523565b5b148061087f575060038081111561085b5761085a614523565b5b600160159054906101000a900460ff16600381111561087d5761087c614523565b5b145b6108be576040517f08c379a00000000000000000000000000000000000000000000000000000000081526004016108b590613e30565b60405180910390fd5b60018060156101000a81548160ff021916908360038111156108e3576108e2614523565b5b02179055507f551dc40198cc79684bb69e4931dba4ac16e4598792ee1c0a5000aeea366d7bb6600160159054906101000a900460ff166040516109269190613db3565b60405180910390a1565b6000601160008373ffffffffffffffffffffffffffffffffffffffff1673ffffffffffffffffffffffffffffffffffffffff168152602001908152602001600020600301549050919050565b610984612de0565b80600260006101000a81548173ffffffffffffffffffffffffffffffffffffffff021916908373ffffffffffffffffffffffffffffffffffffffff16021790555050565b6109d0612de0565b8060088190555050565b60026000541415610a20576040517f08c379a0000000000000000000000000000000000000000000000000000000008152600401610a17906140d0565b60405180910390fd5b600260008190555060008111610a6b576040517f08c379a0000000000000000000000000000000000000000000000000000000008152600401610a6290613f90565b60405180910390fd5b60001515610a8333600b612e5e90919063ffffffff16565b151514610ac5576040517f08c379a0000000000000000000000000000000000000000000000000000000008152600401610abc906140f0565b60405180910390fd5b80601160003373ffffffffffffffffffffffffffffffffffffffff1673ffffffffffffffffffffffffffffffffffffffff168152602001908152602001600020600201541015610b4a576040517f08c379a0000000000000000000000000000000000000000000000000000000008152600401610b4190613ed0565b60405180910390fd5b80600954610b589190614346565b60098190555080601160003373ffffffffffffffffffffffffffffffffffffffff1673ffffffffffffffffffffffffffffffffffffffff16815260200190815260200160002060020154610bac9190614346565b601160003373ffffffffffffffffffffffffffffffffffffffff1673ffffffffffffffffffffffffffffffffffffffff16815260200190815260200160002060020181905550610c3f3382600260009054906101000a900473ffffffffffffffffffffffffffffffffffffffff1673ffffffffffffffffffffffffffffffffffffffff16612e8e9092919063ffffffff16565b3373ffffffffffffffffffffffffffffffffffffffff167f7084f5476618d8e60b11ef0d7d3f06914655adb8793e28ff7f018d4c76d505d582604051610c859190614110565b60405180910390a2600160008190555050565b600360020154431015610ce0576040517f08c379a0000000000000000000000000000000000000000000000000000000008152600401610cd790613ef0565b60405180910390fd5b60026003811115610cf457610cf3614523565b5b600160159054906101000a900460ff166003811115610d1657610d15614523565b5b14610d56576040517f08c379a0000000000000000000000000000000000000000000000000000000008152600401610d4d90614030565b60405180910390fd5b60011515610d62612b9f565b151514610da4576040517f08c379a0000000000000000000000000000000000000000000000000000000008152600401610d9b906140b0565b60405180910390fd5b60005b610db1600b612f14565b811015610e8c576000610dce82600b612f2990919063ffffffff16565b9050601160008273ffffffffffffffffffffffffffffffffffffffff1673ffffffffffffffffffffffffffffffffffffffff16815260200190815260200160002060020154600754610e2091906142ec565b601160008373ffffffffffffffffffffffffffffffffffffffff1673ffffffffffffffffffffffffffffffffffffffff1681526020019081526020016000206003016000828254610e719190614265565b92505081905550508080610e849061447c565b915050610da7565b505b6000610e9a600b612f14565b1115610ece57610ec8610eb86000600b612f2990919063ffffffff16565b600b612f4390919063ffffffff16565b50610e8e565b60005b610edb600d612f14565b811015610f8857610f09610ef982600d612f2990919063ffffffff16565b600b612f7390919063ffffffff16565b50600060136000610f2484600d612f2990919063ffffffff16565b73ffffffffffffffffffffffffffffffffffffffff1673ffffffffffffffffffffffffffffffffffffffff16815260200190815260200160002060006101000a81548160ff0219169083151502179055508080610f809061447c565b915050610ed1565b5060036001016000815480929190610f9f9061447c565b919050555060036000015443610fb59190614265565b6003600201819055506000600160156101000a81548160ff02191690836003811115610fe457610fe3614523565b5b02179055507f551dc40198cc79684bb69e4931dba4ac16e4598792ee1c0a5000aeea366d7bb6600160159054906101000a900460ff166040516110279190613db3565b60405180910390a1565b60026000541415611077576040517f08c379a000000000000000000000000000000000000000000000000000000000815260040161106e906140d0565b60405180910390fd5b60026000819055506000601160003373ffffffffffffffffffffffffffffffffffffffff1673ffffffffffffffffffffffffffffffffffffffff16815260200190815260200160002060030154905060008111156111b3576000601160003373ffffffffffffffffffffffffffffffffffffffff1673ffffffffffffffffffffffffffffffffffffffff168152602001908152602001600020600301819055506111643382600260009054906101000a900473ffffffffffffffffffffffffffffffffffffffff1673ffffffffffffffffffffffffffffffffffffffff16612e8e9092919063ffffffff16565b3373ffffffffffffffffffffffffffffffffffffffff167fe2403640ba68fed3a2f88b7557551d1993f84b99bb10ff833f0cf8db0c5e0486826040516111aa9190614110565b60405180910390a25b506001600081905550565b60006111d482600b612e5e90919063ffffffff16565b9050919050565b6111e3612de0565b8060078190555050565b6014602052816000526040600020602052806000526040600020600091509150508060000154905081565b60126020528060005260406000206000915054906101000a900473ffffffffffffffffffffffffffffffffffffffff1681565b60136020528060005260406000206000915054906101000a900460ff1681565b611273612de0565b8060036000018190555050565b6000600160009054906101000a900460ff16905090565b6000601160008373ffffffffffffffffffffffffffffffffffffffff1673ffffffffffffffffffffffffffffffffffffffff168152602001908152602001600020600201549050919050565b60008060006014600087815260200190815260200160002060008673ffffffffffffffffffffffffffffffffffffffff1673ffffffffffffffffffffffffffffffffffffffff168152602001908152602001600020905080600001548160010160008673ffffffffffffffffffffffffffffffffffffffff1673ffffffffffffffffffffffffffffffffffffffff16815260200190815260200160002060009054906101000a900460ff169250925050935093915050565b6113a3612de0565b6113ad6000612fa3565b565b83601160003373ffffffffffffffffffffffffffffffffffffffff1673ffffffffffffffffffffffffffffffffffffffff16815260200190815260200160002060000160006101000a81548163ffffffff021916908363ffffffff16021790555082601160003373ffffffffffffffffffffffffffffffffffffffff1673ffffffffffffffffffffffffffffffffffffffff16815260200190815260200160002060000160046101000a8154816fffffffffffffffffffffffffffffffff02191690836fffffffffffffffffffffffffffffffff16021790555081601160003373ffffffffffffffffffffffffffffffffffffffff1673ffffffffffffffffffffffffffffffffffffffff16815260200190815260200160002060000160146101000a81548163ffffffff021916908363ffffffff16021790555080601160003373ffffffffffffffffffffffffffffffffffffffff1673ffffffffffffffffffffffffffffffffffffffff16815260200190815260200160002060010160006101000a81548173ffffffffffffffffffffffffffffffffffffffff021916908373ffffffffffffffffffffffffffffffffffffffff16021790555050505050565b600260009054906101000a900473ffffffffffffffffffffffffffffffffffffffff1681565b60095481565b60008060146000600360010154815260200190815260200160002060008473ffffffffffffffffffffffffffffffffffffffff1673ffffffffffffffffffffffffffffffffffffffff16815260200190815260200160002090506115ff612aee565b816000015410611613576001915050611619565b60009150505b919050565b6060600061162c600b612f14565b67ffffffffffffffff811115611645576116446145b0565b5b6040519080825280602002602001820160405280156116735781602001602082028036833780820191505090505b50905060005b611683600b612f14565b8110156116fe5761169e81600b612f2990919063ffffffff16565b8282815181106116b1576116b0614581565b5b602002602001019073ffffffffffffffffffffffffffffffffffffffff16908173ffffffffffffffffffffffffffffffffffffffff168152505080806116f69061447c565b915050611679565b508091505090565b60006001600381111561171c5761171b614523565b5b600160159054906101000a900460ff16600381111561173e5761173d614523565b5b14905090565b600060018054906101000a900473ffffffffffffffffffffffffffffffffffffffff16905090565b60038060000154908060010154908060020154908060030154905084565b600260005414156117d0576040517f08c379a00000000000000000000000000000000000000000000000000000000081526004016117c7906140d0565b60405180910390fd5b60026000819055506000601260003373ffffffffffffffffffffffffffffffffffffffff1673ffffffffffffffffffffffffffffffffffffffff16815260200190815260200160002060009054906101000a900473ffffffffffffffffffffffffffffffffffffffff169050600073ffffffffffffffffffffffffffffffffffffffff168173ffffffffffffffffffffffffffffffffffffffff1614156118ac576040517f08c379a00000000000000000000000000000000000000000000000000000000081526004016118a390613fd0565b60405180910390fd5b6118c081600d612e5e90919063ffffffff16565b6118ff576040517f08c379a00000000000000000000000000000000000000000000000000000000081526004016118f690613e10565b60405180910390fd5b6000151560146000600360010154815260200190815260200160002060008473ffffffffffffffffffffffffffffffffffffffff1673ffffffffffffffffffffffffffffffffffffffff16815260200190815260200160002060010160008373ffffffffffffffffffffffffffffffffffffffff1673ffffffffffffffffffffffffffffffffffffffff16815260200190815260200160002060009054906101000a900460ff161515146119e8576040517f08c379a00000000000000000000000000000000000000000000000000000000081526004016119df90614050565b60405180910390fd5b60146000600360010154815260200190815260200160002060008373ffffffffffffffffffffffffffffffffffffffff1673ffffffffffffffffffffffffffffffffffffffff1681526020019081526020016000206000016000815480929190611a519061447c565b9190505550600160146000600360010154815260200190815260200160002060008473ffffffffffffffffffffffffffffffffffffffff1673ffffffffffffffffffffffffffffffffffffffff16815260200190815260200160002060010160008373ffffffffffffffffffffffffffffffffffffffff1673ffffffffffffffffffffffffffffffffffffffff16815260200190815260200160002060006101000a81548160ff021916908315150217905550611b1882600d612e5e90919063ffffffff16565b8015611b295750611b288261159d565b5b15611cfc57611b4282600d612f4390919063ffffffff16565b50611b5782600f612f7390919063ffffffff16565b5060006064600a54611b6991906142bb565b601160008573ffffffffffffffffffffffffffffffffffffffff1673ffffffffffffffffffffffffffffffffffffffff16815260200190815260200160002060020154611bb691906142ec565b905080601160008573ffffffffffffffffffffffffffffffffffffffff1673ffffffffffffffffffffffffffffffffffffffff1681526020019081526020016000206002016000828254611c0a9190614346565b925050819055508060096000828254611c239190614346565b92505081905550600260009054906101000a900473ffffffffffffffffffffffffffffffffffffffff1673ffffffffffffffffffffffffffffffffffffffff166342966c68826040518263ffffffff1660e01b8152600401611c859190614110565b600060405180830381600087803b158015611c9f57600080fd5b505af1158015611cb3573d6000803e3d6000fd5b505050508273ffffffffffffffffffffffffffffffffffffffff167f1d3a884562d8ed1a6c97e8a20281097f8b901fad9029dbdf72920f1e74008abb60405160405180910390a2505b8173ffffffffffffffffffffffffffffffffffffffff168173ffffffffffffffffffffffffffffffffffffffff167fb8260c4a2dec140746a280fe001597dcb9e1cec0c741a51869f6197f481b456f60405160405180910390a350600160008190555050565b60026000541415611da8576040517f08c379a0000000000000000000000000000000000000000000000000000000008152600401611d9f906140d0565b60405180910390fd5b60026000819055506000601160003373ffffffffffffffffffffffffffffffffffffffff1673ffffffffffffffffffffffffffffffffffffffff168152602001908152602001600020600201549050600854811015611e3c576040517f08c379a0000000000000000000000000000000000000000000000000000000008152600401611e3390613df0565b60405180910390fd5b60006003811115611e5057611e4f614523565b5b600160159054906101000a900460ff166003811115611e7257611e71614523565b5b1480611eb05750600380811115611e8c57611e8b614523565b5b600160159054906101000a900460ff166003811115611eae57611ead614523565b5b145b611eef576040517f08c379a0000000000000000000000000000000000000000000000000000000008152600401611ee690613f70565b60405180910390fd5b60001515611f0733600f612e5e90919063ffffffff16565b151514611f49576040517f08c379a0000000000000000000000000000000000000000000000000000000008152600401611f4090613eb0565b60405180910390fd5b84601160003373ffffffffffffffffffffffffffffffffffffffff1673ffffffffffffffffffffffffffffffffffffffff16815260200190815260200160002060000160006101000a81548163ffffffff021916908363ffffffff16021790555083601160003373ffffffffffffffffffffffffffffffffffffffff1673ffffffffffffffffffffffffffffffffffffffff16815260200190815260200160002060000160046101000a8154816fffffffffffffffffffffffffffffffff02191690836fffffffffffffffffffffffffffffffff16021790555082601160003373ffffffffffffffffffffffffffffffffffffffff1673ffffffffffffffffffffffffffffffffffffffff16815260200190815260200160002060000160146101000a81548163ffffffff021916908363ffffffff16021790555081601160003373ffffffffffffffffffffffffffffffffffffffff1673ffffffffffffffffffffffffffffffffffffffff16815260200190815260200160002060010160006101000a81548173ffffffffffffffffffffffffffffffffffffffff021916908373ffffffffffffffffffffffffffffffffffffffff16021790555033601260008473ffffffffffffffffffffffffffffffffffffffff1673ffffffffffffffffffffffffffffffffffffffff16815260200190815260200160002060006101000a81548173ffffffffffffffffffffffffffffffffffffffff021916908373ffffffffffffffffffffffffffffffffffffffff16021790555061219733600d612f7390919063ffffffff16565b503373ffffffffffffffffffffffffffffffffffffffff167f1dc186bd4daaf3fc4b9f8c689228a0be60dd2952dc502829514ae0d6955c0f5160405160405180910390a250600160008190555050505050565b60008060038111156121ff576121fe614523565b5b600160159054906101000a900460ff16600381111561222157612220614523565b5b14905090565b6002600054141561226d576040517f08c379a0000000000000000000000000000000000000000000000000000000008152600401612264906140d0565b60405180910390fd5b6002600081905550600081116122b8576040517f08c379a00000000000000000000000000000000000000000000000000000000081526004016122af90613e90565b60405180910390fd5b612307333083600260009054906101000a900473ffffffffffffffffffffffffffffffffffffffff1673ffffffffffffffffffffffffffffffffffffffff16613066909392919063ffffffff16565b80601160003373ffffffffffffffffffffffffffffffffffffffff1673ffffffffffffffffffffffffffffffffffffffff16815260200190815260200160002060020160008282546123599190614265565b9250508190555080600960008282546123729190614265565b925050819055503373ffffffffffffffffffffffffffffffffffffffff167f9e71bc8eea02a63969f509818f2dafb9254532904319f9dbda79b67bd34a5f3d826040516123bf9190614110565b60405180910390a2600160008190555050565b60026000541415612418576040517f08c379a000000000000000000000000000000000000000000000000000000000815260040161240f906140d0565b60405180910390fd5b60026000819055506000600381111561243457612433614523565b5b600160159054906101000a900460ff16600381111561245657612455614523565b5b148061249457506003808111156124705761246f614523565b5b600160159054906101000a900460ff16600381111561249257612491614523565b5b145b6124d3576040517f08c379a00000000000000000000000000000000000000000000000000000000081526004016124ca90613fb0565b60405180910390fd5b6124e733600d612e5e90919063ffffffff16565b156125025761250033600d612f4390919063ffffffff16565b505b3373ffffffffffffffffffffffffffffffffffffffff167fff61c8020d05b8c2e31cdbb3d3f8cbcbdc57fcafa00229d9858b7cfd3b039c8a60405160405180910390a26001600081905550565b600a5481565b6000601260003373ffffffffffffffffffffffffffffffffffffffff1673ffffffffffffffffffffffffffffffffffffffff16815260200190815260200160002060009054906101000a900473ffffffffffffffffffffffffffffffffffffffff169050600160038111156125cd576125cc614523565b5b600160159054906101000a900460ff1660038111156125ef576125ee614523565b5b148061262e57506002600381111561260a57612609614523565b5b600160159054906101000a900460ff16600381111561262c5761262b614523565b5b145b61266d576040517f08c379a000000000000000000000000000000000000000000000000000000000815260040161266490613f10565b60405180910390fd5b6001600360010154146126ce5761268e81600d612e5e90919063ffffffff16565b6126cd576040517f08c379a00000000000000000000000000000000000000000000000000000000081526004016126c490614010565b60405180910390fd5b5b6001601360008373ffffffffffffffffffffffffffffffffffffffff1673ffffffffffffffffffffffffffffffffffffffff16815260200190815260200160002060006101000a81548160ff0219169083151502179055508073ffffffffffffffffffffffffffffffffffffffff167f9784a0102afe6a5b031e774420da20a7d1e8207dde8e1ede9c6cefe5680ba05e60405160405180910390a2612771612b9f565b156127e8576002600160156101000a81548160ff0219169083600381111561279c5761279b614523565b5b02179055507f551dc40198cc79684bb69e4931dba4ac16e4598792ee1c0a5000aeea366d7bb6600160159054906101000a900460ff166040516127df9190613db3565b60405180910390a15b50565b6003600001546003600201546128019190614265565b431015612843576040517f08c379a000000000000000000000000000000000000000000000000000000000815260040161283a90613ef0565b60405180910390fd5b6001600381111561285757612856614523565b5b600160159054906101000a900460ff16600381111561287957612878614523565b5b146128b9576040517f08c379a00000000000000000000000000000000000000000000000000000000081526004016128b090613e50565b60405180910390fd5b60005b6128c6600d612f14565b81101561294b576000601360006128e784600d612f2990919063ffffffff16565b73ffffffffffffffffffffffffffffffffffffffff1673ffffffffffffffffffffffffffffffffffffffff16815260200190815260200160002060006101000a81548160ff02191690831515021790555080806129439061447c565b9150506128bc565b506003800160008154809291906129619061447c565b9190505550600360000154436129779190614265565b6003600201819055506003600160156101000a81548160ff021916908360038111156129a6576129a5614523565b5b02179055507f551dc40198cc79684bb69e4931dba4ac16e4598792ee1c0a5000aeea366d7bb6600160159054906101000a900460ff166040516129e99190613db3565b60405180910390a1565b600160159054906101000a900460ff1681565b60606000612a14600d612f14565b67ffffffffffffffff811115612a2d57612a2c6145b0565b5b604051908082528060200260200182016040528015612a5b5781602001602082028036833780820191505090505b50905060005b612a6b600d612f14565b811015612ae657612a8681600d612f2990919063ffffffff16565b828281518110612a9957612a98614581565b5b602002602001019073ffffffffffffffffffffffffffffffffffffffff16908173ffffffffffffffffffffffffffffffffffffffff16815250508080612ade9061447c565b915050612a61565b508091505090565b60006002612afc600b612f14565b11612b0a5760019050612b2f565b60026003612b18600b612f14565b612b2291906142bb565b612b2c91906142ec565b90505b90565b612b3a612de0565b80600a8190555050565b612b8f601160003373ffffffffffffffffffffffffffffffffffffffff1673ffffffffffffffffffffffffffffffffffffffff168152602001908152602001600020600201546109da565b612b97611031565b565b60085481565b6000806000905060005b612bb3600d612f14565b811015612c415760136000612bd283600d612f2990919063ffffffff16565b73ffffffffffffffffffffffffffffffffffffffff1673ffffffffffffffffffffffffffffffffffffffff16815260200190815260200160002060009054906101000a900460ff1615612c2e578180612c2a9061447c565b9250505b8080612c399061447c565b915050612ba9565b50612c4a612aee565b8110612c5a576001915050612c60565b60009150505b90565b612c6b612de0565b600073ffffffffffffffffffffffffffffffffffffffff168173ffffffffffffffffffffffffffffffffffffffff161415612cdb576040517f08c379a0000000000000000000000000000000000000000000000000000000008152600401612cd290613e70565b60405180910390fd5b612ce481612fa3565b50565b6000600380811115612cfc57612cfb614523565b5b600160159054906101000a900460ff166003811115612d1e57612d1d614523565b5b14905090565b612d2c6130ef565b612d3585612227565b612d4184848484611d62565b5050505050565b60116020528060005260406000206000915090508060000160009054906101000a900463ffffffff16908060000160049054906101000a90046fffffffffffffffffffffffffffffffff16908060000160149054906101000a900463ffffffff16908060010160009054906101000a900473ffffffffffffffffffffffffffffffffffffffff16908060020154908060030154905086565b612de8613139565b73ffffffffffffffffffffffffffffffffffffffff16612e06611744565b73ffffffffffffffffffffffffffffffffffffffff1614612e5c576040517f08c379a0000000000000000000000000000000000000000000000000000000008152600401612e5390613ff0565b60405180910390fd5b565b6000612e86836000018373ffffffffffffffffffffffffffffffffffffffff1660001b613141565b905092915050565b612f0f8363a9059cbb60e01b8484604051602401612ead929190613d32565b604051602081830303815290604052907bffffffffffffffffffffffffffffffffffffffffffffffffffffffff19166020820180517bffffffffffffffffffffffffffffffffffffffffffffffffffffffff8381831617835250505050613164565b505050565b6000612f228260000161322b565b9050919050565b6000612f38836000018361323c565b60001c905092915050565b6000612f6b836000018373ffffffffffffffffffffffffffffffffffffffff1660001b613267565b905092915050565b6000612f9b836000018373ffffffffffffffffffffffffffffffffffffffff1660001b61337b565b905092915050565b600060018054906101000a900473ffffffffffffffffffffffffffffffffffffffff169050816001806101000a81548173ffffffffffffffffffffffffffffffffffffffff021916908373ffffffffffffffffffffffffffffffffffffffff1602179055508173ffffffffffffffffffffffffffffffffffffffff168173ffffffffffffffffffffffffffffffffffffffff167f8be0079c531659141344cd1fd0a4f28419497f9722a3daafe3b4186f6b6457e060405160405180910390a35050565b6130e9846323b872dd60e01b85858560405160240161308793929190613cfb565b604051602081830303815290604052907bffffffffffffffffffffffffffffffffffffffffffffffffffffffff19166020820180517bffffffffffffffffffffffffffffffffffffffffffffffffffffffff8381831617835250505050613164565b50505050565b6130f7611280565b15613137576040517f08c379a000000000000000000000000000000000000000000000000000000000815260040161312e90613f50565b60405180910390fd5b565b600033905090565b600080836001016000848152602001908152602001600020541415905092915050565b60006131c6826040518060400160405280602081526020017f5361666545524332303a206c6f772d6c6576656c2063616c6c206661696c65648152508573ffffffffffffffffffffffffffffffffffffffff166133eb9092919063ffffffff16565b905060008151111561322657808060200190518101906131e69190613637565b613225576040517f08c379a000000000000000000000000000000000000000000000000000000000815260040161321c90614090565b60405180910390fd5b5b505050565b600081600001805490509050919050565b600082600001828154811061325457613253614581565b5b9060005260206000200154905092915050565b6000808360010160008481526020019081526020016000205490506000811461336f5760006001826132999190614346565b90506000600186600001805490506132b19190614346565b90508181146133205760008660000182815481106132d2576132d1614581565b5b90600052602060002001549050808760000184815481106132f6576132f5614581565b5b90600052602060002001819055508387600101600083815260200190815260200160002081905550505b8560000180548061333457613333614552565b5b600190038181906000526020600020016000905590558560010160008681526020019081526020016000206000905560019350505050613375565b60009150505b92915050565b60006133878383613141565b6133e05782600001829080600181540180825580915050600190039060005260206000200160009091909190915055826000018054905083600101600084815260200190815260200160002081905550600190506133e5565b600090505b92915050565b60606133fa8484600085613403565b90509392505050565b606082471015613448576040517f08c379a000000000000000000000000000000000000000000000000000000000815260040161343f90613f30565b60405180910390fd5b61345185613517565b613490576040517f08c379a000000000000000000000000000000000000000000000000000000000815260040161348790614070565b60405180910390fd5b6000808673ffffffffffffffffffffffffffffffffffffffff1685876040516134b99190613cc9565b60006040518083038185875af1925050503d80600081146134f6576040519150601f19603f3d011682016040523d82523d6000602084013e6134fb565b606091505b509150915061350b82828661353a565b92505050949350505050565b6000808273ffffffffffffffffffffffffffffffffffffffff163b119050919050565b6060831561354a5782905061359a565b60008351111561355d5782518084602001fd5b816040517f08c379a00000000000000000000000000000000000000000000000000000000081526004016135919190613dce565b60405180910390fd5b9392505050565b6000813590506135b081614d28565b92915050565b6000815190506135c581614d3f565b92915050565b6000813590506135da81614d56565b92915050565b6000813590506135ef81614d6d565b92915050565b60008135905061360481614d84565b92915050565b6000602082840312156136205761361f6145df565b5b600061362e848285016135a1565b91505092915050565b60006020828403121561364d5761364c6145df565b5b600061365b848285016135b6565b91505092915050565b60006020828403121561367a576136796145df565b5b6000613688848285016135e0565b91505092915050565b600080604083850312156136a8576136a76145df565b5b60006136b6858286016135e0565b92505060206136c7858286016135a1565b9150509250929050565b6000806000606084860312156136ea576136e96145df565b5b60006136f8868287016135e0565b9350506020613709868287016135a1565b925050604061371a868287016135a1565b9150509250925092565b600080600080600060a086880312156137405761373f6145df565b5b600061374e888289016135e0565b955050602061375f888289016135f5565b9450506040613770888289016135cb565b9350506060613781888289016135f5565b9250506080613792888289016135a1565b9150509295509295909350565b600080600080608085870312156137b9576137b86145df565b5b60006137c7878288016135f5565b94505060206137d8878288016135cb565b93505060406137e9878288016135f5565b92505060606137fa878288016135a1565b91505092959194509250565b6000613812838361381e565b60208301905092915050565b6138278161437a565b82525050565b6138368161437a565b82525050565b60006138478261420a565b6138518185614238565b935061385c836141fa565b8060005b8381101561388d5781516138748882613806565b975061387f8361422b565b925050600181019050613860565b5085935050505092915050565b6138a38161438c565b82525050565b60006138b482614215565b6138be8185614249565b93506138ce818560208601614449565b80840191505092915050565b6138e381614401565b82525050565b6138f281614413565b82525050565b600061390382614220565b61390d8185614254565b935061391d818560208601614449565b613926816145e4565b840191505092915050565b600061393e603383614254565b9150613949826145f5565b604082019050919050565b6000613961604d83614254565b915061396c82614644565b606082019050919050565b6000613984602383614254565b915061398f826146b9565b604082019050919050565b60006139a7602183614254565b91506139b282614708565b604082019050919050565b60006139ca602683614254565b91506139d582614757565b604082019050919050565b60006139ed600e83614254565b91506139f8826147a6565b602082019050919050565b6000613a10603e83614254565b9150613a1b826147cf565b604082019050919050565b6000613a33601d83614254565b9150613a3e8261481e565b602082019050919050565b6000613a56603383614254565b9150613a6182614847565b604082019050919050565b6000613a79603c83614254565b9150613a8482614896565b604082019050919050565b6000613a9c602683614254565b9150613aa7826148e5565b604082019050919050565b6000613abf601083614254565b9150613aca82614934565b602082019050919050565b6000613ae2603683614254565b9150613aed8261495d565b604082019050919050565b6000613b05601183614254565b9150613b10826149ac565b602082019050919050565b6000613b28603783614254565b9150613b33826149d5565b604082019050919050565b6000613b4b603483614254565b9150613b5682614a24565b604082019050919050565b6000613b6e602083614254565b9150613b7982614a73565b602082019050919050565b6000613b91602283614254565b9150613b9c82614a9c565b604082019050919050565b6000613bb4602583614254565b9150613bbf82614aeb565b604082019050919050565b6000613bd7603083614254565b9150613be282614b3a565b604082019050919050565b6000613bfa601d83614254565b9150613c0582614b89565b602082019050919050565b6000613c1d602a83614254565b9150613c2882614bb2565b604082019050919050565b6000613c40603283614254565b9150613c4b82614c01565b604082019050919050565b6000613c63601f83614254565b9150613c6e82614c50565b602082019050919050565b6000613c86606583614254565b9150613c9182614c79565b608082019050919050565b613ca5816143ab565b82525050565b613cb4816143e7565b82525050565b613cc3816143f1565b82525050565b6000613cd582846138a9565b915081905092915050565b6000602082019050613cf5600083018461382d565b92915050565b6000606082019050613d10600083018661382d565b613d1d602083018561382d565b613d2a6040830184613cab565b949350505050565b6000604082019050613d47600083018561382d565b613d546020830184613cab565b9392505050565b60006020820190508181036000830152613d75818461383c565b905092915050565b6000602082019050613d92600083018461389a565b92915050565b6000602082019050613dad60008301846138da565b92915050565b6000602082019050613dc860008301846138e9565b92915050565b60006020820190508181036000830152613de881846138f8565b905092915050565b60006020820190508181036000830152613e0981613931565b9050919050565b60006020820190508181036000830152613e2981613954565b9050919050565b60006020820190508181036000830152613e4981613977565b9050919050565b60006020820190508181036000830152613e698161399a565b9050919050565b60006020820190508181036000830152613e89816139bd565b9050919050565b60006020820190508181036000830152613ea9816139e0565b9050919050565b60006020820190508181036000830152613ec981613a03565b9050919050565b60006020820190508181036000830152613ee981613a26565b9050919050565b60006020820190508181036000830152613f0981613a49565b9050919050565b60006020820190508181036000830152613f2981613a6c565b9050919050565b60006020820190508181036000830152613f4981613a8f565b9050919050565b60006020820190508181036000830152613f6981613ab2565b9050919050565b60006020820190508181036000830152613f8981613ad5565b9050919050565b60006020820190508181036000830152613fa981613af8565b9050919050565b60006020820190508181036000830152613fc981613b1b565b9050919050565b60006020820190508181036000830152613fe981613b3e565b9050919050565b6000602082019050818103600083015261400981613b61565b9050919050565b6000602082019050818103600083015261402981613b84565b9050919050565b6000602082019050818103600083015261404981613ba7565b9050919050565b6000602082019050818103600083015261406981613bca565b9050919050565b6000602082019050818103600083015261408981613bed565b9050919050565b600060208201905081810360008301526140a981613c10565b9050919050565b600060208201905081810360008301526140c981613c33565b9050919050565b600060208201905081810360008301526140e981613c56565b9050919050565b6000602082019050818103600083015261410981613c79565b9050919050565b60006020820190506141256000830184613cab565b92915050565b60006040820190506141406000830185613cab565b61414d602083018461389a565b9392505050565b60006080820190506141696000830187613cab565b6141766020830186613cab565b6141836040830185613cab565b6141906060830184613cab565b95945050505050565b600060c0820190506141ae6000830189613cba565b6141bb6020830188613c9c565b6141c86040830187613cba565b6141d5606083018661382d565b6141e26080830185613cab565b6141ef60a0830184613cab565b979650505050505050565b6000819050602082019050919050565b600081519050919050565b600081519050919050565b600081519050919050565b6000602082019050919050565b600082825260208201905092915050565b600081905092915050565b600082825260208201905092915050565b6000614270826143e7565b915061427b836143e7565b9250827fffffffffffffffffffffffffffffffffffffffffffffffffffffffffffffffff038211156142b0576142af6144c5565b5b828201905092915050565b60006142c6826143e7565b91506142d1836143e7565b9250826142e1576142e06144f4565b5b828204905092915050565b60006142f7826143e7565b9150614302836143e7565b9250817fffffffffffffffffffffffffffffffffffffffffffffffffffffffffffffffff048311821515161561433b5761433a6144c5565b5b828202905092915050565b6000614351826143e7565b915061435c836143e7565b92508282101561436f5761436e6144c5565b5b828203905092915050565b6000614385826143c7565b9050919050565b60008115159050919050565b60008190506143a682614d14565b919050565b60006fffffffffffffffffffffffffffffffff82169050919050565b600073ffffffffffffffffffffffffffffffffffffffff82169050919050565b6000819050919050565b600063ffffffff82169050919050565b600061440c82614425565b9050919050565b600061441e82614398565b9050919050565b600061443082614437565b9050919050565b6000614442826143c7565b9050919050565b60005b8381101561446757808201518184015260208101905061444c565b83811115614476576000848401525b50505050565b6000614487826143e7565b91507fffffffffffffffffffffffffffffffffffffffffffffffffffffffffffffffff8214156144ba576144b96144c5565b5b600182019050919050565b7f4e487b7100000000000000000000000000000000000000000000000000000000600052601160045260246000fd5b7f4e487b7100000000000000000000000000000000000000000000000000000000600052601260045260246000fd5b7f4e487b7100000000000000000000000000000000000000000000000000000000600052602160045260246000fd5b7f4e487b7100000000000000000000000000000000000000000000000000000000600052603160045260246000fd5b7f4e487b7100000000000000000000000000000000000000000000000000000000600052603260045260246000fd5b7f4e487b7100000000000000000000000000000000000000000000000000000000600052604160045260246000fd5b600080fd5b6000601f19601f8301169050919050565b7f5374616b65206d7573742062652067726561746572207468616e206f7220657160008201527f75616c20746f206d696e696d756d5374616b6500000000000000000000000000602082015250565b7f596f75206d75737420626520612076616c696461746f7220696e20746865206e60008201527f6578742065706f636820746f206b69636b20736f6d656f6e652066726f6d207460208201527f6865206e6578742065706f636800000000000000000000000000000000000000604082015250565b7f4d75737420626520696e20616374697665206f7220756e6c6f636b656420737460008201527f6174650000000000000000000000000000000000000000000000000000000000602082015250565b7f4d75737420626520696e204e65787456616c696461746f725365744c6f636b6560008201527f6400000000000000000000000000000000000000000000000000000000000000602082015250565b7f4f776e61626c653a206e6577206f776e657220697320746865207a65726f206160008201527f6464726573730000000000000000000000000000000000000000000000000000602082015250565b7f43616e6e6f74207374616b652030000000000000000000000000000000000000600082015250565b7f596f752063616e6e6f742072656a6f696e20696620796f75206861766520626560008201527f656e206b69636b656420756e74696c20746865206e6578742065706f63680000602082015250565b7f4e6f7420656e6f75676820746f6b656e7320746f207769746864726177000000600082015250565b7f456e6f75676820626c6f636b732068617665206e6f7420656c6170736564207360008201527f696e636520746865206c6173742065706f636800000000000000000000000000602082015250565b7f4d75737420626520696e207374617465204e65787456616c696461746f72536560008201527f744c6f636b6564206f72205265616479466f724e65787445706f636800000000602082015250565b7f416464726573733a20696e73756666696369656e742062616c616e636520666f60008201527f722063616c6c0000000000000000000000000000000000000000000000000000602082015250565b7f5061757361626c653a2070617573656400000000000000000000000000000000600082015250565b7f4d75737420626520696e20416374697665206f7220556e6c6f636b656420737460008201527f61746520746f207265717565737420746f206a6f696e00000000000000000000602082015250565b7f43616e6e6f742077697468647261772030000000000000000000000000000000600082015250565b7f4d75737420626520696e20416374697665206f7220556e6c6f636b656420737460008201527f61746520746f207265717565737420746f206c65617665000000000000000000602082015250565b7f436f756c64206e6f74206d617020796f7572206e6f646541646472657373207460008201527f6f20796f7572207374616b657241646472657373000000000000000000000000602082015250565b7f4f776e61626c653a2063616c6c6572206973206e6f7420746865206f776e6572600082015250565b7f56616c696461746f72206973206e6f7420696e20746865206e6578742065706f60008201527f6368000000000000000000000000000000000000000000000000000000000000602082015250565b7f4d75737420626520696e20726561647920666f72206e6578742065706f63682060008201527f7374617465000000000000000000000000000000000000000000000000000000602082015250565b7f596f752063616e206f6e6c7920766f746520746f206b69636b20736f6d656f6e60008201527f65206f6e6365207065722065706f636800000000000000000000000000000000602082015250565b7f416464726573733a2063616c6c20746f206e6f6e2d636f6e7472616374000000600082015250565b7f5361666545524332303a204552433230206f7065726174696f6e20646964206e60008201527f6f74207375636365656400000000000000000000000000000000000000000000602082015250565b7f4e6f7420656e6f7567682076616c696461746f7273206172652072656164792060008201527f666f7220746865206e6578742065706f63680000000000000000000000000000602082015250565b7f5265656e7472616e637947756172643a207265656e7472616e742063616c6c00600082015250565b7f4163746976652076616c696461746f72732063616e6e6f74206c656176652e2060008201527f20506c656173652075736520746865206c6561766528292066756e6374696f6e60208201527f20616e64207761697420666f7220746865206e6578742065706f636820746f2060408201527f6c65617665000000000000000000000000000000000000000000000000000000606082015250565b60048110614d2557614d24614523565b5b50565b614d318161437a565b8114614d3c57600080fd5b50565b614d488161438c565b8114614d5357600080fd5b50565b614d5f816143ab565b8114614d6a57600080fd5b50565b614d76816143e7565b8114614d8157600080fd5b50565b614d8d816143f1565b8114614d9857600080fd5b5056fea26469706673582212200a6e388761fadd63a26623a328bfb16708ddc704ee30117f9afaa842cdf94bab64736f6c63430008070033","abi":[{"inputs":[{"internalType":"address","name":"_stakingToken","type":"address"}],"stateMutability":"nonpayable","type":"constructor"},{"anonymous":false,"inputs":[{"indexed":true,"internalType":"address","name":"previousOwner","type":"address"},{"indexed":true,"internalType":"address","name":"newOwner","type":"address"}],"name":"OwnershipTransferred","type":"event"},{"anonymous":false,"inputs":[{"indexed":false,"internalType":"address","name":"account","type":"address"}],"name":"Paused","type":"event"},{"anonymous":false,"inputs":[{"indexed":true,"internalType":"address","name":"staker","type":"address"}],"name":"ReadyForNextEpoch","type":"event"},{"anonymous":false,"inputs":[{"indexed":false,"internalType":"address","name":"token","type":"address"},{"indexed":false,"internalType":"uint256","name":"amount","type":"uint256"}],"name":"Recovered","type":"event"},{"anonymous":false,"inputs":[{"indexed":true,"internalType":"address","name":"staker","type":"address"}],"name":"RequestToJoin","type":"event"},{"anonymous":false,"inputs":[{"indexed":true,"internalType":"address","name":"staker","type":"address"}],"name":"RequestToLeave","type":"event"},{"anonymous":false,"inputs":[{"indexed":true,"internalType":"address","name":"staker","type":"address"},{"indexed":false,"internalType":"uint256","name":"reward","type":"uint256"}],"name":"RewardPaid","type":"event"},{"anonymous":false,"inputs":[{"indexed":false,"internalType":"uint256","name":"newDuration","type":"uint256"}],"name":"RewardsDurationUpdated","type":"event"},{"anonymous":false,"inputs":[{"indexed":true,"internalType":"address","name":"staker","type":"address"},{"indexed":false,"internalType":"uint256","name":"amount","type":"uint256"}],"name":"Staked","type":"event"},{"anonymous":false,"inputs":[{"indexed":false,"internalType":"enum Staking.States","name":"newState","type":"uint8"}],"name":"StateChanged","type":"event"},{"anonymous":false,"inputs":[{"indexed":false,"internalType":"address","name":"account","type":"address"}],"name":"Unpaused","type":"event"},{"anonymous":false,"inputs":[{"indexed":true,"internalType":"address","name":"staker","type":"address"}],"name":"ValidatorKickedFromNextEpoch","type":"event"},{"anonymous":false,"inputs":[{"indexed":true,"internalType":"address","name":"staker","type":"address"},{"indexed":true,"internalType":"address","name":"validatorStakerAddress","type":"address"}],"name":"VotedToKickValidatorInNextEpoch","type":"event"},{"anonymous":false,"inputs":[{"indexed":true,"internalType":"address","name":"staker","type":"address"},{"indexed":false,"internalType":"uint256","name":"amount","type":"uint256"}],"name":"Withdrawn","type":"event"},{"inputs":[],"name":"advanceEpoch","outputs":[],"stateMutability":"nonpayable","type":"function"},{"inputs":[{"internalType":"address","name":"account","type":"address"}],"name":"balanceOf","outputs":[{"internalType":"uint256","name":"","type":"uint256"}],"stateMutability":"view","type":"function"},{"inputs":[],"name":"epoch","outputs":[{"internalType":"uint256","name":"epochLength","type":"uint256"},{"internalType":"uint256","name":"number","type":"uint256"},{"internalType":"uint256","name":"endBlock","type":"uint256"},{"internalType":"uint256","name":"retries","type":"uint256"}],"stateMutability":"view","type":"function"},{"inputs":[],"name":"exit","outputs":[],"stateMutability":"nonpayable","type":"function"},{"inputs":[],"name":"getReward","outputs":[],"stateMutability":"nonpayable","type":"function"},{"inputs":[],"name":"getValidatorsInCurrentEpoch","outputs":[{"internalType":"address[]","name":"","type":"address[]"}],"stateMutability":"view","type":"function"},{"inputs":[],"name":"getValidatorsInNextEpoch","outputs":[{"internalType":"address[]","name":"","type":"address[]"}],"stateMutability":"view","type":"function"},{"inputs":[{"internalType":"uint256","name":"epochNumber","type":"uint256"},{"internalType":"address","name":"validatorStakerAddress","type":"address"},{"internalType":"address","name":"voterStakerAddress","type":"address"}],"name":"getVotingStatusToKickValidator","outputs":[{"internalType":"uint256","name":"","type":"uint256"},{"internalType":"bool","name":"","type":"bool"}],"stateMutability":"view","type":"function"},{"inputs":[{"internalType":"address","name":"account","type":"address"}],"name":"isActiveValidator","outputs":[{"internalType":"bool","name":"","type":"bool"}],"stateMutability":"view","type":"function"},{"inputs":[],"name":"isReadyForNextEpoch","outputs":[{"internalType":"bool","name":"","type":"bool"}],"stateMutability":"view","type":"function"},{"inputs":[],"name":"kickPenaltyPercent","outputs":[{"internalType":"uint256","name":"","type":"uint256"}],"stateMutability":"view","type":"function"},{"inputs":[{"internalType":"address","name":"validatorStakerAddress","type":"address"}],"name":"kickValidatorInNextEpoch","outputs":[],"stateMutability":"nonpayable","type":"function"},{"inputs":[],"name":"lockValidatorsForNextEpoch","outputs":[],"stateMutability":"nonpayable","type":"function"},{"inputs":[],"name":"minimumStake","outputs":[{"internalType":"uint256","name":"","type":"uint256"}],"stateMutability":"view","type":"function"},{"inputs":[{"internalType":"address","name":"","type":"address"}],"name":"nodeAddressToStakerAddress","outputs":[{"internalType":"address","name":"","type":"address"}],"stateMutability":"view","type":"function"},{"inputs":[],"name":"owner","outputs":[{"internalType":"address","name":"","type":"address"}],"stateMutability":"view","type":"function"},{"inputs":[],"name":"paused","outputs":[{"internalType":"bool","name":"","type":"bool"}],"stateMutability":"view","type":"function"},{"inputs":[{"internalType":"address","name":"","type":"address"}],"name":"readyForNextEpoch","outputs":[{"internalType":"bool","name":"","type":"bool"}],"stateMutability":"view","type":"function"},{"inputs":[],"name":"renounceOwnership","outputs":[],"stateMutability":"nonpayable","type":"function"},{"inputs":[{"internalType":"uint32","name":"ip","type":"uint32"},{"internalType":"uint128","name":"ipv6","type":"uint128"},{"internalType":"uint32","name":"port","type":"uint32"},{"internalType":"address","name":"nodeAddress","type":"address"}],"name":"requestToJoin","outputs":[],"stateMutability":"nonpayable","type":"function"},{"inputs":[],"name":"requestToLeave","outputs":[],"stateMutability":"nonpayable","type":"function"},{"inputs":[{"internalType":"address","name":"account","type":"address"}],"name":"rewardOf","outputs":[{"internalType":"uint256","name":"","type":"uint256"}],"stateMutability":"view","type":"function"},{"inputs":[{"internalType":"uint256","name":"newEpochLength","type":"uint256"}],"name":"setEpochLength","outputs":[],"stateMutability":"nonpayable","type":"function"},{"inputs":[{"internalType":"uint32","name":"ip","type":"uint32"},{"internalType":"uint128","name":"ipv6","type":"uint128"},{"internalType":"uint32","name":"port","type":"uint32"},{"internalType":"address","name":"nodeAddress","type":"address"}],"name":"setIpPortAndNodeAddress","outputs":[],"stateMutability":"nonpayable","type":"function"},{"inputs":[{"internalType":"uint256","name":"newKickPenaltyPercent","type":"uint256"}],"name":"setKickPenaltyPercent","outputs":[],"stateMutability":"nonpayable","type":"function"},{"inputs":[{"internalType":"uint256","name":"newMinimumStake","type":"uint256"}],"name":"setMinimumStake","outputs":[],"stateMutability":"nonpayable","type":"function"},{"inputs":[{"internalType":"address","name":"newStakingTokenAddress","type":"address"}],"name":"setStakingToken","outputs":[],"stateMutability":"nonpayable","type":"function"},{"inputs":[{"internalType":"uint256","name":"newTokenRewardPerTokenPerEpoch","type":"uint256"}],"name":"setTokenRewardPerTokenPerEpoch","outputs":[],"stateMutability":"nonpayable","type":"function"},{"inputs":[{"internalType":"address","name":"stakerAddress","type":"address"}],"name":"shouldKickValidator","outputs":[{"internalType":"bool","name":"","type":"bool"}],"stateMutability":"view","type":"function"},{"inputs":[],"name":"signalReadyForNextEpoch","outputs":[],"stateMutability":"nonpayable","type":"function"},{"inputs":[{"internalType":"uint256","name":"amount","type":"uint256"}],"name":"stake","outputs":[],"stateMutability":"nonpayable","type":"function"},{"inputs":[{"internalType":"uint256","name":"amount","type":"uint256"},{"internalType":"uint32","name":"ip","type":"uint32"},{"internalType":"uint128","name":"ipv6","type":"uint128"},{"internalType":"uint32","name":"port","type":"uint32"},{"internalType":"address","name":"nodeAddress","type":"address"}],"name":"stakeAndJoin","outputs":[],"stateMutability":"nonpayable","type":"function"},{"inputs":[],"name":"stakingToken","outputs":[{"internalType":"contract LITToken","name":"","type":"address"}],"stateMutability":"view","type":"function"},{"inputs":[],"name":"state","outputs":[{"internalType":"enum Staking.States","name":"","type":"uint8"}],"stateMutability":"view","type":"function"},{"inputs":[],"name":"tokenRewardPerTokenPerEpoch","outputs":[{"internalType":"uint256","name":"","type":"uint256"}],"stateMutability":"view","type":"function"},{"inputs":[],"name":"totalStaked","outputs":[{"internalType":"uint256","name":"","type":"uint256"}],"stateMutability":"view","type":"function"},{"inputs":[{"internalType":"address","name":"newOwner","type":"address"}],"name":"transferOwnership","outputs":[],"stateMutability":"nonpayable","type":"function"},{"inputs":[],"name":"unlockValidatorsForNextEpoch","outputs":[],"stateMutability":"nonpayable","type":"function"},{"inputs":[],"name":"validatorCountForConsensus","outputs":[{"internalType":"uint256","name":"","type":"uint256"}],"stateMutability":"view","type":"function"},{"inputs":[],"name":"validatorStateIsActive","outputs":[{"internalType":"bool","name":"","type":"bool"}],"stateMutability":"view","type":"function"},{"inputs":[],"name":"validatorStateIsUnlocked","outputs":[{"internalType":"bool","name":"","type":"bool"}],"stateMutability":"view","type":"function"},{"inputs":[{"internalType":"address","name":"","type":"address"}],"name":"validators","outputs":[{"internalType":"uint32","name":"ip","type":"uint32"},{"internalType":"uint128","name":"ipv6","type":"uint128"},{"internalType":"uint32","name":"port","type":"uint32"},{"internalType":"address","name":"nodeAddress","type":"address"},{"internalType":"uint256","name":"balance","type":"uint256"},{"internalType":"uint256","name":"reward","type":"uint256"}],"stateMutability":"view","type":"function"},{"inputs":[],"name":"validatorsInNextEpochAreLocked","outputs":[{"internalType":"bool","name":"","type":"bool"}],"stateMutability":"view","type":"function"},{"inputs":[{"internalType":"uint256","name":"","type":"uint256"},{"internalType":"address","name":"","type":"address"}],"name":"votesToKickValidatorsInNextEpoch","outputs":[{"internalType":"uint256","name":"votes","type":"uint256"}],"stateMutability":"view","type":"function"},{"inputs":[{"internalType":"uint256","name":"amount","type":"uint256"}],"name":"withdraw","outputs":[],"stateMutability":"nonpayable","type":"function"}]}