{"address":"0xe84016770907ef59F42063869D3b3f6dE7853e58","bytecode":"0x60806040526000600160156101000a81548160ff021916908360048111156200002d576200002c6200039f565b5b02179055503480156200003f57600080fd5b506040516200631238038062006312833981810160405281019062000065919062000438565b60016000819055506000600160006101000a81548160ff021916908315150217905550620000a86200009c620002d460201b60201c565b620002dc60201b60201c565b80600260006101000a81548173ffffffffffffffffffffffffffffffffffffffff021916908373ffffffffffffffffffffffffffffffffffffffff1602179055506040518060a001604052806050815260200160018152602001600143620001119190620004a3565b8152602001600081526020016050815250600360008201518160000155602082015181600101556040820151816002015560608201518160030155608082015181600401559050506014600260009054906101000a900473ffffffffffffffffffffffffffffffffffffffff1673ffffffffffffffffffffffffffffffffffffffff1663313ce5676040518163ffffffff1660e01b8152600401602060405180830381865afa158015620001c9573d6000803e3d6000fd5b505050506040513d601f19601f82011682018060405250810190620001ef91906200051c565b600a620001fd9190620006a2565b62000209919062000722565b600881905550600260009054906101000a900473ffffffffffffffffffffffffffffffffffffffff1673ffffffffffffffffffffffffffffffffffffffff1663313ce5676040518163ffffffff1660e01b8152600401602060405180830381865afa1580156200027d573d6000803e3d6000fd5b505050506040513d601f19601f82011682018060405250810190620002a391906200051c565b600a620002b19190620006a2565b6001620002bf91906200075a565b6009819055506005600b8190555050620007a5565b600033905090565b600060018054906101000a900473ffffffffffffffffffffffffffffffffffffffff169050816001806101000a81548173ffffffffffffffffffffffffffffffffffffffff021916908373ffffffffffffffffffffffffffffffffffffffff1602179055508173ffffffffffffffffffffffffffffffffffffffff168173ffffffffffffffffffffffffffffffffffffffff167f8be0079c531659141344cd1fd0a4f28419497f9722a3daafe3b4186f6b6457e060405160405180910390a35050565b7f4e487b7100000000000000000000000000000000000000000000000000000000600052602160045260246000fd5b600080fd5b600073ffffffffffffffffffffffffffffffffffffffff82169050919050565b60006200040082620003d3565b9050919050565b6200041281620003f3565b81146200041e57600080fd5b50565b600081519050620004328162000407565b92915050565b600060208284031215620004515762000450620003ce565b5b6000620004618482850162000421565b91505092915050565b6000819050919050565b7f4e487b7100000000000000000000000000000000000000000000000000000000600052601160045260246000fd5b6000620004b0826200046a565b9150620004bd836200046a565b9250828201905080821115620004d857620004d762000474565b5b92915050565b600060ff82169050919050565b620004f681620004de565b81146200050257600080fd5b50565b6000815190506200051681620004eb565b92915050565b600060208284031215620005355762000534620003ce565b5b6000620005458482850162000505565b91505092915050565b60008160011c9050919050565b6000808291508390505b6001851115620005ad5780860481111562000585576200058462000474565b5b6001851615620005955780820291505b8081029050620005a5856200054e565b945062000565565b94509492505050565b600082620005c857600190506200069b565b81620005d857600090506200069b565b8160018114620005f15760028114620005fc5762000632565b60019150506200069b565b60ff84111562000611576200061062000474565b5b8360020a9150848211156200062b576200062a62000474565b5b506200069b565b5060208310610133831016604e8410600b84101617156200066c5782820a90508381111562000666576200066562000474565b5b6200069b565b6200067b84848460016200055b565b9250905081840481111562000695576200069462000474565b5b81810290505b9392505050565b6000620006af826200046a565b9150620006bc83620004de565b9250620006eb7fffffffffffffffffffffffffffffffffffffffffffffffffffffffffffffffff8484620005b6565b905092915050565b7f4e487b7100000000000000000000000000000000000000000000000000000000600052601260045260246000fd5b60006200072f826200046a565b91506200073c836200046a565b9250826200074f576200074e620006f3565b5b828204905092915050565b600062000767826200046a565b915062000774836200046a565b925082820262000784816200046a565b915082820484148315176200079e576200079d62000474565b5b5092915050565b615b5d80620007b56000396000f3fe608060405234801561001057600080fd5b506004361061030c5760003560e01c8063857b76631161019d578063ba3bd22e116100e9578063e587b8a7116100a2578063f1887fec1161007c578063f1887fec14610872578063f2fde38b14610890578063f48d2a27146108ac578063fa52c7d8146108ca5761030c565b8063e587b8a71461082e578063e9fad8ee1461084a578063ec5ffac2146108545761030c565b8063ba3bd22e146107a4578063bee36e9c146107c0578063c006e00b146107ca578063c19d93fb146107d4578063c35d4d09146107f2578063dd21d626146108105761030c565b8063988ac27911610156578063ac2f8afe11610130578063ac2f8afe14610754578063b139603c1461075e578063b6688e0014610768578063b9ce6638146107865761030c565b8063988ac279146106fe578063a4c569b91461071a578063a694fc3a146107385761030c565b8063857b76631461064a578063865419e9146106685780638b80d833146106845780638d2b9c81146106a05780638da5cb5b146106be578063900cf0cf146106dc5761030c565b80634927a1431161025c57806370a082311161021557806372f702f3116101ef57806372f702f3146105c25780637aa086e7146105e0578063817b1cd2146105fc578063847e06251461061a5761030c565b806370a082311461055757806370fe276a14610587578063715018a6146105b85761030c565b80634927a143146104715780634f8f0102146104a15780635081f66f146104bd578063519877eb146104ed57806354eea7961461051d5780635c975abb146105395761030c565b80632e1a7d4d116102c95780633d18b912116102a35780633d18b912146103ff5780633f8197131461040957806340550a1c14610425578063455b0de6146104555761030c565b80632e1a7d4d146103bd5780633528db88146103d95780633cf80e6c146103f55761030c565b8063063d82391461031157806316930f4d1461032f5780631d62ebd9146103395780631e9b12ef146103695780631fab87c414610385578063233e9903146103a1575b600080fd5b610319610901565b6040516103269190613edd565b60405180910390f35b610337610907565b005b610353600480360381019061034e9190613f60565b610a75565b6040516103609190613edd565b60405180910390f35b610383600480360381019061037e9190613f60565b610ac1565b005b61039f600480360381019061039a9190613fb9565b610b44565b005b6103bb60048036038101906103b69190613fb9565b610b90565b005b6103d760048036038101906103d29190613fb9565b610bd9565b005b6103f360048036038101906103ee919061406a565b610e96565b005b6103fd6113eb565b005b610407611834565b005b610423600480360381019061041e919061411c565b6119c0565b005b61043f600480360381019061043a9190613f60565b611a2c565b60405161044c9190614164565b60405180910390f35b61046f600480360381019061046a9190613fb9565b611a49565b005b61048b6004803603810190610486919061417f565b611a92565b6040516104989190613edd565b60405180910390f35b6104bb60048036038101906104b6919061406a565b611abd565b005b6104d760048036038101906104d29190613f60565b611d0f565b6040516104e491906141ce565b60405180910390f35b61050760048036038101906105029190613f60565b611d42565b6040516105149190614164565b60405180910390f35b61053760048036038101906105329190613fb9565b611d62565b005b610541611dae565b60405161054e9190614164565b60405180910390f35b610571600480360381019061056c9190613f60565b611dc5565b60405161057e9190613edd565b60405180910390f35b6105a1600480360381019061059c91906141e9565b611e11565b6040516105af92919061423c565b60405180910390f35b6105c0611ec9565b005b6105ca611edd565b6040516105d791906142c4565b60405180910390f35b6105fa60048036038101906105f59190613f60565b611f03565b005b610604611fdc565b6040516106119190613edd565b60405180910390f35b610634600480360381019061062f9190613f60565b611fe2565b6040516106419190614164565b60405180910390f35b610652612063565b60405161065f919061439d565b60405180910390f35b610682600480360381019061067d9190614424565b612151565b005b61069e60048036038101906106999190614498565b612743565b005b6106a86128f1565b6040516106b59190614164565b60405180910390f35b6106c661292f565b6040516106d391906141ce565b60405180910390f35b6106e4612957565b6040516106f59594939291906144d8565b60405180910390f35b61071860048036038101906107139190613f60565b61297b565b005b6107226129fe565b60405161072f9190614164565b60405180910390f35b610752600480360381019061074d9190613fb9565b612a3b565b005b61075c612be5565b005b610766612d9f565b005b610770612e0c565b60405161077d91906141ce565b60405180910390f35b61078e612e32565b60405161079b9190613edd565b60405180910390f35b6107be60048036038101906107b9919061452b565b612e38565b005b6107c8612e60565b005b6107d26130f6565b005b6107dc6132ea565b6040516107e99190614644565b60405180910390f35b6107fa6132fd565b604051610807919061439d565b60405180910390f35b6108186133eb565b6040516108259190613edd565b60405180910390f35b61084860048036038101906108439190613fb9565b61342f565b005b610852613478565b005b61085c6134cd565b6040516108699190613edd565b60405180910390f35b61087a6134d3565b6040516108879190614164565b60405180910390f35b6108aa60048036038101906108a59190613f60565b61359e565b005b6108b4613621565b6040516108c19190614164565b60405180910390f35b6108e460048036038101906108df9190613f60565b61365f565b6040516108f898979695949392919061467d565b60405180910390f35b60085481565b60036002015443101561094f576040517f08c379a00000000000000000000000000000000000000000000000000000000081526004016109469061477e565b60405180910390fd5b60006004811115610963576109626145cd565b5b600160159054906101000a900460ff166004811115610985576109846145cd565b5b14806109c45750600360048111156109a05761099f6145cd565b5b600160159054906101000a900460ff1660048111156109c2576109c16145cd565b5b145b610a03576040517f08c379a00000000000000000000000000000000000000000000000000000000081526004016109fa90614810565b60405180910390fd5b60018060156101000a81548160ff02191690836004811115610a2857610a276145cd565b5b02179055507f551dc40198cc79684bb69e4931dba4ac16e4598792ee1c0a5000aeea366d7bb6600160159054906101000a900460ff16604051610a6b9190614644565b60405180910390a1565b6000601260008373ffffffffffffffffffffffffffffffffffffffff1673ffffffffffffffffffffffffffffffffffffffff168152602001908152602001600020600301549050919050565b610ac9613703565b80600260006101000a81548173ffffffffffffffffffffffffffffffffffffffff021916908373ffffffffffffffffffffffffffffffffffffffff1602179055507f9904a32444ae0eb0bae2045baf588aa248f03f4fef600c18afd1d7e751614af881604051610b3991906141ce565b60405180910390a150565b610b4c613703565b806003600401819055507f887fed3a9270ffbbf863d640a07413b6f58cf97afaa9d7267693e962a76bd81081604051610b859190613edd565b60405180910390a150565b610b98613703565b806009819055507fe933824a81d0b6aa53640e0e8df82b08c3f5297409b86d5beb73c41253518b2981604051610bce9190613edd565b60405180910390a150565b600260005403610c1e576040517f08c379a0000000000000000000000000000000000000000000000000000000008152600401610c159061487c565b60405180910390fd5b600260008190555060008111610c69576040517f08c379a0000000000000000000000000000000000000000000000000000000008152600401610c60906148e8565b60405180910390fd5b60001515610c8133600c61378190919063ffffffff16565b151514610cc3576040517f08c379a0000000000000000000000000000000000000000000000000000000008152600401610cba906149c6565b60405180910390fd5b80601260003373ffffffffffffffffffffffffffffffffffffffff1673ffffffffffffffffffffffffffffffffffffffff168152602001908152602001600020600201541015610d48576040517f08c379a0000000000000000000000000000000000000000000000000000000008152600401610d3f90614a32565b60405180910390fd5b80600a54610d569190614a81565b600a8190555080601260003373ffffffffffffffffffffffffffffffffffffffff1673ffffffffffffffffffffffffffffffffffffffff16815260200190815260200160002060020154610daa9190614a81565b601260003373ffffffffffffffffffffffffffffffffffffffff1673ffffffffffffffffffffffffffffffffffffffff16815260200190815260200160002060020181905550610e3d3382600260009054906101000a900473ffffffffffffffffffffffffffffffffffffffff1673ffffffffffffffffffffffffffffffffffffffff166137b19092919063ffffffff16565b3373ffffffffffffffffffffffffffffffffffffffff167f7084f5476618d8e60b11ef0d7d3f06914655adb8793e28ff7f018d4c76d505d582604051610e839190613edd565b60405180910390a2600160008190555050565b600260005403610edb576040517f08c379a0000000000000000000000000000000000000000000000000000000008152600401610ed29061487c565b60405180910390fd5b60026000819055506000601260003373ffffffffffffffffffffffffffffffffffffffff1673ffffffffffffffffffffffffffffffffffffffff168152602001908152602001600020600201549050600954811015610f6f576040517f08c379a0000000000000000000000000000000000000000000000000000000008152600401610f6690614b27565b60405180910390fd5b60006004811115610f8357610f826145cd565b5b600160159054906101000a900460ff166004811115610fa557610fa46145cd565b5b1480610fe4575060036004811115610fc057610fbf6145cd565b5b600160159054906101000a900460ff166004811115610fe257610fe16145cd565b5b145b806110215750600480811115610ffd57610ffc6145cd565b5b600160159054906101000a900460ff16600481111561101f5761101e6145cd565b5b145b611060576040517f08c379a000000000000000000000000000000000000000000000000000000000815260040161105790614bb9565b60405180910390fd5b6000151561107833601061378190919063ffffffff16565b1515146110ba576040517f08c379a00000000000000000000000000000000000000000000000000000000081526004016110b190614c4b565b60405180910390fd5b86601260003373ffffffffffffffffffffffffffffffffffffffff1673ffffffffffffffffffffffffffffffffffffffff16815260200190815260200160002060000160006101000a81548163ffffffff021916908363ffffffff16021790555085601260003373ffffffffffffffffffffffffffffffffffffffff1673ffffffffffffffffffffffffffffffffffffffff16815260200190815260200160002060000160046101000a8154816fffffffffffffffffffffffffffffffff02191690836fffffffffffffffffffffffffffffffff16021790555084601260003373ffffffffffffffffffffffffffffffffffffffff1673ffffffffffffffffffffffffffffffffffffffff16815260200190815260200160002060000160146101000a81548163ffffffff021916908363ffffffff16021790555083601260003373ffffffffffffffffffffffffffffffffffffffff1673ffffffffffffffffffffffffffffffffffffffff16815260200190815260200160002060010160006101000a81548173ffffffffffffffffffffffffffffffffffffffff021916908373ffffffffffffffffffffffffffffffffffffffff16021790555082601260003373ffffffffffffffffffffffffffffffffffffffff1673ffffffffffffffffffffffffffffffffffffffff1681526020019081526020016000206004018190555081601260003373ffffffffffffffffffffffffffffffffffffffff1673ffffffffffffffffffffffffffffffffffffffff1681526020019081526020016000206005018190555033601360008673ffffffffffffffffffffffffffffffffffffffff1673ffffffffffffffffffffffffffffffffffffffff16815260200190815260200160002060006101000a81548173ffffffffffffffffffffffffffffffffffffffff021916908373ffffffffffffffffffffffffffffffffffffffff16021790555061139633600e61383790919063ffffffff16565b503373ffffffffffffffffffffffffffffffffffffffff167f1dc186bd4daaf3fc4b9f8c689228a0be60dd2952dc502829514ae0d6955c0f5160405160405180910390a2506001600081905550505050505050565b600360020154431015611433576040517f08c379a000000000000000000000000000000000000000000000000000000000815260040161142a9061477e565b60405180910390fd5b60026004811115611447576114466145cd565b5b600160159054906101000a900460ff166004811115611469576114686145cd565b5b146114a9576040517f08c379a00000000000000000000000000000000000000000000000000000000081526004016114a090614cdd565b60405180910390fd5b600115156114b56134d3565b1515146114f7576040517f08c379a00000000000000000000000000000000000000000000000000000000081526004016114ee90614d6f565b60405180910390fd5b6000611503600c613867565b905060005b8181101561168b57600061152682600c61387c90919063ffffffff16565b9050600260009054906101000a900473ffffffffffffffffffffffffffffffffffffffff1673ffffffffffffffffffffffffffffffffffffffff1663313ce5676040518163ffffffff1660e01b8152600401602060405180830381865afa158015611595573d6000803e3d6000fd5b505050506040513d601f19601f820116820180604052508101906115b99190614dc8565b600a6115c59190614f28565b601260008373ffffffffffffffffffffffffffffffffffffffff1673ffffffffffffffffffffffffffffffffffffffff168152602001908152602001600020600201546008546116159190614f73565b61161f9190614fe4565b601260008373ffffffffffffffffffffffffffffffffffffffff1673ffffffffffffffffffffffffffffffffffffffff16815260200190815260200160002060030160008282546116709190615015565b9250508190555050808061168390615049565b915050611508565b505b6000611699600c613867565b11156116cd576116c76116b76000600c61387c90919063ffffffff16565b600c61389690919063ffffffff16565b5061168d565b6116d7600e613867565b905060005b8181101561178a5761170b6116fb82600e61387c90919063ffffffff16565b600c61383790919063ffffffff16565b5060006014600061172684600e61387c90919063ffffffff16565b73ffffffffffffffffffffffffffffffffffffffff1673ffffffffffffffffffffffffffffffffffffffff16815260200190815260200160002060006101000a81548160ff021916908315150217905550808061178290615049565b9150506116dc565b50600360010160008154809291906117a190615049565b9190505550600360000154436117b79190615015565b6003600201819055506000600160156101000a81548160ff021916908360048111156117e6576117e56145cd565b5b02179055507f551dc40198cc79684bb69e4931dba4ac16e4598792ee1c0a5000aeea366d7bb6600160159054906101000a900460ff166040516118299190614644565b60405180910390a150565b600260005403611879576040517f08c379a00000000000000000000000000000000000000000000000000000000081526004016118709061487c565b60405180910390fd5b60026000819055506000601260003373ffffffffffffffffffffffffffffffffffffffff1673ffffffffffffffffffffffffffffffffffffffff16815260200190815260200160002060030154905060008111156119b5576000601260003373ffffffffffffffffffffffffffffffffffffffff1673ffffffffffffffffffffffffffffffffffffffff168152602001908152602001600020600301819055506119663382600260009054906101000a900473ffffffffffffffffffffffffffffffffffffffff1673ffffffffffffffffffffffffffffffffffffffff166137b19092919063ffffffff16565b3373ffffffffffffffffffffffffffffffffffffffff167fe2403640ba68fed3a2f88b7557551d1993f84b99bb10ff833f0cf8db0c5e0486826040516119ac9190613edd565b60405180910390a25b506001600081905550565b6119c8613703565b80600160156101000a81548160ff021916908360048111156119ed576119ec6145cd565b5b02179055507f551dc40198cc79684bb69e4931dba4ac16e4598792ee1c0a5000aeea366d7bb681604051611a219190614644565b60405180910390a150565b6000611a4282600c61378190919063ffffffff16565b9050919050565b611a51613703565b806008819055507fc33a6daf06e5c2185564f32ef90cabd653cb01a6945c9d3c18a7481d20d3a0ed81604051611a879190613edd565b60405180910390a150565b6015602052816000526040600020602052806000526040600020600091509150508060000154905081565b85601260003373ffffffffffffffffffffffffffffffffffffffff1673ffffffffffffffffffffffffffffffffffffffff16815260200190815260200160002060000160006101000a81548163ffffffff021916908363ffffffff16021790555084601260003373ffffffffffffffffffffffffffffffffffffffff1673ffffffffffffffffffffffffffffffffffffffff16815260200190815260200160002060000160046101000a8154816fffffffffffffffffffffffffffffffff02191690836fffffffffffffffffffffffffffffffff16021790555083601260003373ffffffffffffffffffffffffffffffffffffffff1673ffffffffffffffffffffffffffffffffffffffff16815260200190815260200160002060000160146101000a81548163ffffffff021916908363ffffffff16021790555082601260003373ffffffffffffffffffffffffffffffffffffffff1673ffffffffffffffffffffffffffffffffffffffff16815260200190815260200160002060010160006101000a81548173ffffffffffffffffffffffffffffffffffffffff021916908373ffffffffffffffffffffffffffffffffffffffff16021790555081601260003373ffffffffffffffffffffffffffffffffffffffff1673ffffffffffffffffffffffffffffffffffffffff1681526020019081526020016000206004018190555080601260003373ffffffffffffffffffffffffffffffffffffffff1673ffffffffffffffffffffffffffffffffffffffff16815260200190815260200160002060050181905550505050505050565b60136020528060005260406000206000915054906101000a900473ffffffffffffffffffffffffffffffffffffffff1681565b60146020528060005260406000206000915054906101000a900460ff1681565b611d6a613703565b806003600001819055507f5f15d41eab42cb3f8a5c9e8cd44043648cb85a815522c5f4ae5a32597a8447a081604051611da39190613edd565b60405180910390a150565b6000600160009054906101000a900460ff16905090565b6000601260008373ffffffffffffffffffffffffffffffffffffffff1673ffffffffffffffffffffffffffffffffffffffff168152602001908152602001600020600201549050919050565b60008060006015600087815260200190815260200160002060008673ffffffffffffffffffffffffffffffffffffffff1673ffffffffffffffffffffffffffffffffffffffff168152602001908152602001600020905080600001548160010160008673ffffffffffffffffffffffffffffffffffffffff1673ffffffffffffffffffffffffffffffffffffffff16815260200190815260200160002060009054906101000a900460ff169250925050935093915050565b611ed1613703565b611edb60006138c6565b565b600260009054906101000a900473ffffffffffffffffffffffffffffffffffffffff1681565b600260005403611f48576040517f08c379a0000000000000000000000000000000000000000000000000000000008152600401611f3f9061487c565b60405180910390fd5b6002600081905550611f58613703565b611f6c81600e61389690919063ffffffff16565b50611f8181601061383790919063ffffffff16565b508073ffffffffffffffffffffffffffffffffffffffff167ff020e162c28460a603e71f641a2e83634580ace02b9e28b844b2257949860e976000604051611fc991906150cc565b60405180910390a2600160008190555050565b600a5481565b60008060156000600360010154815260200190815260200160002060008473ffffffffffffffffffffffffffffffffffffffff1673ffffffffffffffffffffffffffffffffffffffff16815260200190815260200160002090506120446133eb565b81600001541061205857600191505061205e565b60009150505b919050565b60606000612071600c613867565b67ffffffffffffffff81111561208a576120896150e7565b5b6040519080825280602002602001820160405280156120b85781602001602082028036833780820191505090505b50905060006120c7600c613867565b905060005b81811015612148576120e881600c61387c90919063ffffffff16565b8382815181106120fb576120fa615116565b5b602002602001019073ffffffffffffffffffffffffffffffffffffffff16908173ffffffffffffffffffffffffffffffffffffffff1681525050808061214090615049565b9150506120cc565b50819250505090565b600260005403612196576040517f08c379a000000000000000000000000000000000000000000000000000000000815260040161218d9061487c565b60405180910390fd5b60026000819055506000601360003373ffffffffffffffffffffffffffffffffffffffff1673ffffffffffffffffffffffffffffffffffffffff16815260200190815260200160002060009054906101000a900473ffffffffffffffffffffffffffffffffffffffff169050600073ffffffffffffffffffffffffffffffffffffffff168173ffffffffffffffffffffffffffffffffffffffff1603612271576040517f08c379a0000000000000000000000000000000000000000000000000000000008152600401612268906151b7565b60405180910390fd5b61228581600e61378190919063ffffffff16565b6122c4576040517f08c379a00000000000000000000000000000000000000000000000000000000081526004016122bb9061526f565b60405180910390fd5b6000151560156000600360010154815260200190815260200160002060008773ffffffffffffffffffffffffffffffffffffffff1673ffffffffffffffffffffffffffffffffffffffff16815260200190815260200160002060010160008373ffffffffffffffffffffffffffffffffffffffff1673ffffffffffffffffffffffffffffffffffffffff16815260200190815260200160002060009054906101000a900460ff161515146123ad576040517f08c379a00000000000000000000000000000000000000000000000000000000081526004016123a490615301565b60405180910390fd5b60156000600360010154815260200190815260200160002060008673ffffffffffffffffffffffffffffffffffffffff1673ffffffffffffffffffffffffffffffffffffffff168152602001908152602001600020600001600081548092919061241690615049565b9190505550600160156000600360010154815260200190815260200160002060008773ffffffffffffffffffffffffffffffffffffffff1673ffffffffffffffffffffffffffffffffffffffff16815260200190815260200160002060010160008373ffffffffffffffffffffffffffffffffffffffff1673ffffffffffffffffffffffffffffffffffffffff16815260200190815260200160002060006101000a81548160ff0219169083151502179055506124dd85600e61378190919063ffffffff16565b80156124ee57506124ed85611fe2565b5b156126cc5761250785600e61389690919063ffffffff16565b5061251c85601061383790919063ffffffff16565b5060006064600b54601260008973ffffffffffffffffffffffffffffffffffffffff1673ffffffffffffffffffffffffffffffffffffffff168152602001908152602001600020600201546125719190614f73565b61257b9190614fe4565b905080601260008873ffffffffffffffffffffffffffffffffffffffff1673ffffffffffffffffffffffffffffffffffffffff16815260200190815260200160002060020160008282546125cf9190614a81565b9250508190555080600a60008282546125e89190614a81565b92505081905550600260009054906101000a900473ffffffffffffffffffffffffffffffffffffffff1673ffffffffffffffffffffffffffffffffffffffff166342966c68826040518263ffffffff1660e01b815260040161264a9190613edd565b600060405180830381600087803b15801561266457600080fd5b505af1158015612678573d6000803e3d6000fd5b505050508573ffffffffffffffffffffffffffffffffffffffff167ff020e162c28460a603e71f641a2e83634580ace02b9e28b844b2257949860e97826040516126c29190613edd565b60405180910390a2505b838573ffffffffffffffffffffffffffffffffffffffff168273ffffffffffffffffffffffffffffffffffffffff167febdee48ed32f3feff81eed274b9e084b367ac42fe1cb710dcbd43f1d537d99fa868660405161272c92919061537f565b60405180910390a450600160008190555050505050565b600260005403612788576040517f08c379a000000000000000000000000000000000000000000000000000000000815260040161277f9061487c565b60405180910390fd5b6002600081905550612798613703565b80601260008473ffffffffffffffffffffffffffffffffffffffff1673ffffffffffffffffffffffffffffffffffffffff16815260200190815260200160002060020160008282546127ea9190614a81565b9250508190555080600a60008282546128039190614a81565b92505081905550600260009054906101000a900473ffffffffffffffffffffffffffffffffffffffff1673ffffffffffffffffffffffffffffffffffffffff166342966c68826040518263ffffffff1660e01b81526004016128659190613edd565b600060405180830381600087803b15801561287f57600080fd5b505af1158015612893573d6000803e3d6000fd5b505050508173ffffffffffffffffffffffffffffffffffffffff167ff020e162c28460a603e71f641a2e83634580ace02b9e28b844b2257949860e97826040516128dd9190613edd565b60405180910390a260016000819055505050565b600060016004811115612907576129066145cd565b5b600160159054906101000a900460ff166004811115612929576129286145cd565b5b14905090565b600060018054906101000a900473ffffffffffffffffffffffffffffffffffffffff16905090565b60038060000154908060010154908060020154908060030154908060040154905085565b612983613703565b80601660006101000a81548173ffffffffffffffffffffffffffffffffffffffff021916908373ffffffffffffffffffffffffffffffffffffffff1602179055507f2b5fe80d5061b20e017f0cde52b331309601bfcab0cb14cfcf6a4096410a6075816040516129f391906141ce565b60405180910390a150565b6000806004811115612a1357612a126145cd565b5b600160159054906101000a900460ff166004811115612a3557612a346145cd565b5b14905090565b600260005403612a80576040517f08c379a0000000000000000000000000000000000000000000000000000000008152600401612a779061487c565b60405180910390fd5b600260008190555060008111612acb576040517f08c379a0000000000000000000000000000000000000000000000000000000008152600401612ac2906153ef565b60405180910390fd5b612b1a333083600260009054906101000a900473ffffffffffffffffffffffffffffffffffffffff1673ffffffffffffffffffffffffffffffffffffffff16613989909392919063ffffffff16565b80601260003373ffffffffffffffffffffffffffffffffffffffff1673ffffffffffffffffffffffffffffffffffffffff1681526020019081526020016000206002016000828254612b6c9190615015565b9250508190555080600a6000828254612b859190615015565b925050819055503373ffffffffffffffffffffffffffffffffffffffff167f9e71bc8eea02a63969f509818f2dafb9254532904319f9dbda79b67bd34a5f3d82604051612bd29190613edd565b60405180910390a2600160008190555050565b600260005403612c2a576040517f08c379a0000000000000000000000000000000000000000000000000000000008152600401612c219061487c565b60405180910390fd5b600260008190555060006004811115612c4657612c456145cd565b5b600160159054906101000a900460ff166004811115612c6857612c676145cd565b5b1480612ca7575060036004811115612c8357612c826145cd565b5b600160159054906101000a900460ff166004811115612ca557612ca46145cd565b5b145b80612ce45750600480811115612cc057612cbf6145cd565b5b600160159054906101000a900460ff166004811115612ce257612ce16145cd565b5b145b612d23576040517f08c379a0000000000000000000000000000000000000000000000000000000008152600401612d1a90615481565b60405180910390fd5b612d3733600e61378190919063ffffffff16565b15612d5257612d5033600e61389690919063ffffffff16565b505b3373ffffffffffffffffffffffffffffffffffffffff167fff61c8020d05b8c2e31cdbb3d3f8cbcbdc57fcafa00229d9858b7cfd3b039c8a60405160405180910390a26001600081905550565b612da7613703565b6004600160156101000a81548160ff02191690836004811115612dcd57612dcc6145cd565b5b02179055507f551dc40198cc79684bb69e4931dba4ac16e4598792ee1c0a5000aeea366d7bb66004604051612e029190614644565b60405180910390a1565b601660009054906101000a900473ffffffffffffffffffffffffffffffffffffffff1681565b600b5481565b612e40613a12565b612e4987612a3b565b612e57868686868686610e96565b50505050505050565b6000601360003373ffffffffffffffffffffffffffffffffffffffff1673ffffffffffffffffffffffffffffffffffffffff16815260200190815260200160002060009054906101000a900473ffffffffffffffffffffffffffffffffffffffff16905060016004811115612ed857612ed76145cd565b5b600160159054906101000a900460ff166004811115612efa57612ef96145cd565b5b1480612f39575060026004811115612f1557612f146145cd565b5b600160159054906101000a900460ff166004811115612f3757612f366145cd565b5b145b612f78576040517f08c379a0000000000000000000000000000000000000000000000000000000008152600401612f6f90615513565b60405180910390fd5b600160036001015414612fd957612f9981600e61378190919063ffffffff16565b612fd8576040517f08c379a0000000000000000000000000000000000000000000000000000000008152600401612fcf906155a5565b60405180910390fd5b5b6001601460008373ffffffffffffffffffffffffffffffffffffffff1673ffffffffffffffffffffffffffffffffffffffff16815260200190815260200160002060006101000a81548160ff0219169083151502179055508073ffffffffffffffffffffffffffffffffffffffff167f9784a0102afe6a5b031e774420da20a7d1e8207dde8e1ede9c6cefe5680ba05e60405160405180910390a261307c6134d3565b156130f3576002600160156101000a81548160ff021916908360048111156130a7576130a66145cd565b5b02179055507f551dc40198cc79684bb69e4931dba4ac16e4598792ee1c0a5000aeea366d7bb6600160159054906101000a900460ff166040516130ea9190614644565b60405180910390a15b50565b60036004015460036002015461310c9190615015565b43101561314e576040517f08c379a00000000000000000000000000000000000000000000000000000000081526004016131459061477e565b60405180910390fd5b60016004811115613162576131616145cd565b5b600160159054906101000a900460ff166004811115613184576131836145cd565b5b146131c4576040517f08c379a00000000000000000000000000000000000000000000000000000000081526004016131bb90615637565b60405180910390fd5b60006131d0600e613867565b905060005b8181101561325b576000601460006131f784600e61387c90919063ffffffff16565b73ffffffffffffffffffffffffffffffffffffffff1673ffffffffffffffffffffffffffffffffffffffff16815260200190815260200160002060006101000a81548160ff021916908315150217905550808061325390615049565b9150506131d5565b5060038001600081548092919061327190615049565b91905055506003600160156101000a81548160ff0219169083600481111561329c5761329b6145cd565b5b02179055507f551dc40198cc79684bb69e4931dba4ac16e4598792ee1c0a5000aeea366d7bb6600160159054906101000a900460ff166040516132df9190614644565b60405180910390a150565b600160159054906101000a900460ff1681565b6060600061330b600e613867565b67ffffffffffffffff811115613324576133236150e7565b5b6040519080825280602002602001820160405280156133525781602001602082028036833780820191505090505b5090506000613361600e613867565b905060005b818110156133e25761338281600e61387c90919063ffffffff16565b83828151811061339557613394615116565b5b602002602001019073ffffffffffffffffffffffffffffffffffffffff16908173ffffffffffffffffffffffffffffffffffffffff168152505080806133da90615049565b915050613366565b50819250505090565b600060026133f9600c613867565b11613407576001905061342c565b60036002613415600c613867565b61341f9190614f73565b6134299190614fe4565b90505b90565b613437613703565b80600b819055507fc0ff1deb4b889cc8d47d930be1a37c0e7442ab9850450d2dce635435c005e6a58160405161346d9190613edd565b60405180910390a150565b6134c3601260003373ffffffffffffffffffffffffffffffffffffffff1673ffffffffffffffffffffffffffffffffffffffff16815260200190815260200160002060020154610bd9565b6134cb611834565b565b60095481565b6000806000905060006134e6600e613867565b905060005b8181101561357a576014600061350b83600e61387c90919063ffffffff16565b73ffffffffffffffffffffffffffffffffffffffff1673ffffffffffffffffffffffffffffffffffffffff16815260200190815260200160002060009054906101000a900460ff161561356757828061356390615049565b9350505b808061357290615049565b9150506134eb565b506135836133eb565b82106135945760019250505061359b565b6000925050505b90565b6135a6613703565b600073ffffffffffffffffffffffffffffffffffffffff168173ffffffffffffffffffffffffffffffffffffffff1603613615576040517f08c379a000000000000000000000000000000000000000000000000000000000815260040161360c906156c9565b60405180910390fd5b61361e816138c6565b50565b600060036004811115613637576136366145cd565b5b600160159054906101000a900460ff166004811115613659576136586145cd565b5b14905090565b60126020528060005260406000206000915090508060000160009054906101000a900463ffffffff16908060000160049054906101000a90046fffffffffffffffffffffffffffffffff16908060000160149054906101000a900463ffffffff16908060010160009054906101000a900473ffffffffffffffffffffffffffffffffffffffff16908060020154908060030154908060040154908060050154905088565b61370b613a5c565b73ffffffffffffffffffffffffffffffffffffffff1661372961292f565b73ffffffffffffffffffffffffffffffffffffffff161461377f576040517f08c379a000000000000000000000000000000000000000000000000000000000815260040161377690615735565b60405180910390fd5b565b60006137a9836000018373ffffffffffffffffffffffffffffffffffffffff1660001b613a64565b905092915050565b6138328363a9059cbb60e01b84846040516024016137d0929190615755565b604051602081830303815290604052907bffffffffffffffffffffffffffffffffffffffffffffffffffffffff19166020820180517bffffffffffffffffffffffffffffffffffffffffffffffffffffffff8381831617835250505050613a87565b505050565b600061385f836000018373ffffffffffffffffffffffffffffffffffffffff1660001b613b4e565b905092915050565b600061387582600001613bbe565b9050919050565b600061388b8360000183613bcf565b60001c905092915050565b60006138be836000018373ffffffffffffffffffffffffffffffffffffffff1660001b613bfa565b905092915050565b600060018054906101000a900473ffffffffffffffffffffffffffffffffffffffff169050816001806101000a81548173ffffffffffffffffffffffffffffffffffffffff021916908373ffffffffffffffffffffffffffffffffffffffff1602179055508173ffffffffffffffffffffffffffffffffffffffff168173ffffffffffffffffffffffffffffffffffffffff167f8be0079c531659141344cd1fd0a4f28419497f9722a3daafe3b4186f6b6457e060405160405180910390a35050565b613a0c846323b872dd60e01b8585856040516024016139aa9392919061577e565b604051602081830303815290604052907bffffffffffffffffffffffffffffffffffffffffffffffffffffffff19166020820180517bffffffffffffffffffffffffffffffffffffffffffffffffffffffff8381831617835250505050613a87565b50505050565b613a1a611dae565b15613a5a576040517f08c379a0000000000000000000000000000000000000000000000000000000008152600401613a5190615801565b60405180910390fd5b565b600033905090565b600080836001016000848152602001908152602001600020541415905092915050565b6000613ae9826040518060400160405280602081526020017f5361666545524332303a206c6f772d6c6576656c2063616c6c206661696c65648152508573ffffffffffffffffffffffffffffffffffffffff16613d0e9092919063ffffffff16565b9050600081511115613b495780806020019051810190613b09919061584d565b613b48576040517f08c379a0000000000000000000000000000000000000000000000000000000008152600401613b3f906158ec565b60405180910390fd5b5b505050565b6000613b5a8383613a64565b613bb3578260000182908060018154018082558091505060019003906000526020600020016000909190919091505582600001805490508360010160008481526020019081526020016000208190555060019050613bb8565b600090505b92915050565b600081600001805490509050919050565b6000826000018281548110613be757613be6615116565b5b9060005260206000200154905092915050565b60008083600101600084815260200190815260200160002054905060008114613d02576000600182613c2c9190614a81565b9050600060018660000180549050613c449190614a81565b9050818114613cb3576000866000018281548110613c6557613c64615116565b5b9060005260206000200154905080876000018481548110613c8957613c88615116565b5b90600052602060002001819055508387600101600083815260200190815260200160002081905550505b85600001805480613cc757613cc661590c565b5b600190038181906000526020600020016000905590558560010160008681526020019081526020016000206000905560019350505050613d08565b60009150505b92915050565b6060613d1d8484600085613d26565b90509392505050565b606082471015613d6b576040517f08c379a0000000000000000000000000000000000000000000000000000000008152600401613d62906159ad565b60405180910390fd5b613d7485613e3a565b613db3576040517f08c379a0000000000000000000000000000000000000000000000000000000008152600401613daa90615a19565b60405180910390fd5b6000808673ffffffffffffffffffffffffffffffffffffffff168587604051613ddc9190615aaa565b60006040518083038185875af1925050503d8060008114613e19576040519150601f19603f3d011682016040523d82523d6000602084013e613e1e565b606091505b5091509150613e2e828286613e5d565b92505050949350505050565b6000808273ffffffffffffffffffffffffffffffffffffffff163b119050919050565b60608315613e6d57829050613ebd565b600083511115613e805782518084602001fd5b816040517f08c379a0000000000000000000000000000000000000000000000000000000008152600401613eb49190615b05565b60405180910390fd5b9392505050565b6000819050919050565b613ed781613ec4565b82525050565b6000602082019050613ef26000830184613ece565b92915050565b600080fd5b600080fd5b600073ffffffffffffffffffffffffffffffffffffffff82169050919050565b6000613f2d82613f02565b9050919050565b613f3d81613f22565b8114613f4857600080fd5b50565b600081359050613f5a81613f34565b92915050565b600060208284031215613f7657613f75613ef8565b5b6000613f8484828501613f4b565b91505092915050565b613f9681613ec4565b8114613fa157600080fd5b50565b600081359050613fb381613f8d565b92915050565b600060208284031215613fcf57613fce613ef8565b5b6000613fdd84828501613fa4565b91505092915050565b600063ffffffff82169050919050565b613fff81613fe6565b811461400a57600080fd5b50565b60008135905061401c81613ff6565b92915050565b60006fffffffffffffffffffffffffffffffff82169050919050565b61404781614022565b811461405257600080fd5b50565b6000813590506140648161403e565b92915050565b60008060008060008060c0878903121561408757614086613ef8565b5b600061409589828a0161400d565b96505060206140a689828a01614055565b95505060406140b789828a0161400d565b94505060606140c889828a01613f4b565b93505060806140d989828a01613fa4565b92505060a06140ea89828a01613fa4565b9150509295509295509295565b6005811061410457600080fd5b50565b600081359050614116816140f7565b92915050565b60006020828403121561413257614131613ef8565b5b600061414084828501614107565b91505092915050565b60008115159050919050565b61415e81614149565b82525050565b60006020820190506141796000830184614155565b92915050565b6000806040838503121561419657614195613ef8565b5b60006141a485828601613fa4565b92505060206141b585828601613f4b565b9150509250929050565b6141c881613f22565b82525050565b60006020820190506141e360008301846141bf565b92915050565b60008060006060848603121561420257614201613ef8565b5b600061421086828701613fa4565b935050602061422186828701613f4b565b925050604061423286828701613f4b565b9150509250925092565b60006040820190506142516000830185613ece565b61425e6020830184614155565b9392505050565b6000819050919050565b600061428a61428561428084613f02565b614265565b613f02565b9050919050565b600061429c8261426f565b9050919050565b60006142ae82614291565b9050919050565b6142be816142a3565b82525050565b60006020820190506142d960008301846142b5565b92915050565b600081519050919050565b600082825260208201905092915050565b6000819050602082019050919050565b61431481613f22565b82525050565b6000614326838361430b565b60208301905092915050565b6000602082019050919050565b600061434a826142df565b61435481856142ea565b935061435f836142fb565b8060005b83811015614390578151614377888261431a565b975061438283614332565b925050600181019050614363565b5085935050505092915050565b600060208201905081810360008301526143b7818461433f565b905092915050565b600080fd5b600080fd5b600080fd5b60008083601f8401126143e4576143e36143bf565b5b8235905067ffffffffffffffff811115614401576144006143c4565b5b60208301915083600182028301111561441d5761441c6143c9565b5b9250929050565b6000806000806060858703121561443e5761443d613ef8565b5b600061444c87828801613f4b565b945050602061445d87828801613fa4565b935050604085013567ffffffffffffffff81111561447e5761447d613efd565b5b61448a878288016143ce565b925092505092959194509250565b600080604083850312156144af576144ae613ef8565b5b60006144bd85828601613f4b565b92505060206144ce85828601613fa4565b9150509250929050565b600060a0820190506144ed6000830188613ece565b6144fa6020830187613ece565b6145076040830186613ece565b6145146060830185613ece565b6145216080830184613ece565b9695505050505050565b600080600080600080600060e0888a03121561454a57614549613ef8565b5b60006145588a828b01613fa4565b97505060206145698a828b0161400d565b965050604061457a8a828b01614055565b955050606061458b8a828b0161400d565b945050608061459c8a828b01613f4b565b93505060a06145ad8a828b01613fa4565b92505060c06145be8a828b01613fa4565b91505092959891949750929550565b7f4e487b7100000000000000000000000000000000000000000000000000000000600052602160045260246000fd5b6005811061460d5761460c6145cd565b5b50565b600081905061461e826145fc565b919050565b600061462e82614610565b9050919050565b61463e81614623565b82525050565b60006020820190506146596000830184614635565b92915050565b61466881613fe6565b82525050565b61467781614022565b82525050565b600061010082019050614693600083018b61465f565b6146a0602083018a61466e565b6146ad604083018961465f565b6146ba60608301886141bf565b6146c76080830187613ece565b6146d460a0830186613ece565b6146e160c0830185613ece565b6146ee60e0830184613ece565b9998505050505050505050565b600082825260208201905092915050565b7f456e6f75676820626c6f636b732068617665206e6f7420656c6170736564207360008201527f696e636520746865206c6173742065706f636800000000000000000000000000602082015250565b60006147686033836146fb565b91506147738261470c565b604082019050919050565b600060208201905081810360008301526147978161475b565b9050919050565b7f4d75737420626520696e20616374697665206f7220756e6c6f636b656420737460008201527f6174650000000000000000000000000000000000000000000000000000000000602082015250565b60006147fa6023836146fb565b91506148058261479e565b604082019050919050565b60006020820190508181036000830152614829816147ed565b9050919050565b7f5265656e7472616e637947756172643a207265656e7472616e742063616c6c00600082015250565b6000614866601f836146fb565b915061487182614830565b602082019050919050565b6000602082019050818103600083015261489581614859565b9050919050565b7f43616e6e6f742077697468647261772030000000000000000000000000000000600082015250565b60006148d26011836146fb565b91506148dd8261489c565b602082019050919050565b60006020820190508181036000830152614901816148c5565b9050919050565b7f4163746976652076616c696461746f72732063616e6e6f74206c656176652e2060008201527f20506c656173652075736520746865206c6561766528292066756e6374696f6e60208201527f20616e64207761697420666f7220746865206e6578742065706f636820746f2060408201527f6c65617665000000000000000000000000000000000000000000000000000000606082015250565b60006149b06065836146fb565b91506149bb82614908565b608082019050919050565b600060208201905081810360008301526149df816149a3565b9050919050565b7f4e6f7420656e6f75676820746f6b656e7320746f207769746864726177000000600082015250565b6000614a1c601d836146fb565b9150614a27826149e6565b602082019050919050565b60006020820190508181036000830152614a4b81614a0f565b9050919050565b7f4e487b7100000000000000000000000000000000000000000000000000000000600052601160045260246000fd5b6000614a8c82613ec4565b9150614a9783613ec4565b9250828203905081811115614aaf57614aae614a52565b5b92915050565b7f5374616b65206d7573742062652067726561746572207468616e206f7220657160008201527f75616c20746f206d696e696d756d5374616b6500000000000000000000000000602082015250565b6000614b116033836146fb565b9150614b1c82614ab5565b604082019050919050565b60006020820190508181036000830152614b4081614b04565b9050919050565b7f4d75737420626520696e20416374697665206f7220556e6c6f636b656420737460008201527f61746520746f207265717565737420746f206a6f696e00000000000000000000602082015250565b6000614ba36036836146fb565b9150614bae82614b47565b604082019050919050565b60006020820190508181036000830152614bd281614b96565b9050919050565b7f596f752063616e6e6f742072656a6f696e20696620796f75206861766520626560008201527f656e206b69636b656420756e74696c20746865206e6578742065706f63680000602082015250565b6000614c35603e836146fb565b9150614c4082614bd9565b604082019050919050565b60006020820190508181036000830152614c6481614c28565b9050919050565b7f4d75737420626520696e20726561647920666f72206e6578742065706f63682060008201527f7374617465000000000000000000000000000000000000000000000000000000602082015250565b6000614cc76025836146fb565b9150614cd282614c6b565b604082019050919050565b60006020820190508181036000830152614cf681614cba565b9050919050565b7f4e6f7420656e6f7567682076616c696461746f7273206172652072656164792060008201527f666f7220746865206e6578742065706f63680000000000000000000000000000602082015250565b6000614d596032836146fb565b9150614d6482614cfd565b604082019050919050565b60006020820190508181036000830152614d8881614d4c565b9050919050565b600060ff82169050919050565b614da581614d8f565b8114614db057600080fd5b50565b600081519050614dc281614d9c565b92915050565b600060208284031215614dde57614ddd613ef8565b5b6000614dec84828501614db3565b91505092915050565b60008160011c9050919050565b6000808291508390505b6001851115614e4c57808604811115614e2857614e27614a52565b5b6001851615614e375780820291505b8081029050614e4585614df5565b9450614e0c565b94509492505050565b600082614e655760019050614f21565b81614e735760009050614f21565b8160018114614e895760028114614e9357614ec2565b6001915050614f21565b60ff841115614ea557614ea4614a52565b5b8360020a915084821115614ebc57614ebb614a52565b5b50614f21565b5060208310610133831016604e8410600b8410161715614ef75782820a905083811115614ef257614ef1614a52565b5b614f21565b614f048484846001614e02565b92509050818404811115614f1b57614f1a614a52565b5b81810290505b9392505050565b6000614f3382613ec4565b9150614f3e83614d8f565b9250614f6b7fffffffffffffffffffffffffffffffffffffffffffffffffffffffffffffffff8484614e55565b905092915050565b6000614f7e82613ec4565b9150614f8983613ec4565b9250828202614f9781613ec4565b91508282048414831517614fae57614fad614a52565b5b5092915050565b7f4e487b7100000000000000000000000000000000000000000000000000000000600052601260045260246000fd5b6000614fef82613ec4565b9150614ffa83613ec4565b92508261500a57615009614fb5565b5b828204905092915050565b600061502082613ec4565b915061502b83613ec4565b925082820190508082111561504357615042614a52565b5b92915050565b600061505482613ec4565b91507fffffffffffffffffffffffffffffffffffffffffffffffffffffffffffffffff820361508657615085614a52565b5b600182019050919050565b6000819050919050565b60006150b66150b16150ac84615091565b614265565b613ec4565b9050919050565b6150c68161509b565b82525050565b60006020820190506150e160008301846150bd565b92915050565b7f4e487b7100000000000000000000000000000000000000000000000000000000600052604160045260246000fd5b7f4e487b7100000000000000000000000000000000000000000000000000000000600052603260045260246000fd5b7f436f756c64206e6f74206d617020796f7572206e6f646541646472657373207460008201527f6f20796f7572207374616b657241646472657373000000000000000000000000602082015250565b60006151a16034836146fb565b91506151ac82615145565b604082019050919050565b600060208201905081810360008301526151d081615194565b9050919050565b7f596f75206d75737420626520612076616c696461746f7220696e20746865206e60008201527f6578742065706f636820746f206b69636b20736f6d656f6e652066726f6d207460208201527f6865206e6578742065706f636800000000000000000000000000000000000000604082015250565b6000615259604d836146fb565b9150615264826151d7565b606082019050919050565b600060208201905081810360008301526152888161524c565b9050919050565b7f596f752063616e206f6e6c7920766f746520746f206b69636b20736f6d656f6e60008201527f65206f6e6365207065722065706f636800000000000000000000000000000000602082015250565b60006152eb6030836146fb565b91506152f68261528f565b604082019050919050565b6000602082019050818103600083015261531a816152de565b9050919050565b600082825260208201905092915050565b82818337600083830152505050565b6000601f19601f8301169050919050565b600061535e8385615321565b935061536b838584615332565b61537483615341565b840190509392505050565b6000602082019050818103600083015261539a818486615352565b90509392505050565b7f43616e6e6f74207374616b652030000000000000000000000000000000000000600082015250565b60006153d9600e836146fb565b91506153e4826153a3565b602082019050919050565b60006020820190508181036000830152615408816153cc565b9050919050565b7f4d75737420626520696e20416374697665206f7220556e6c6f636b656420737460008201527f61746520746f207265717565737420746f206c65617665000000000000000000602082015250565b600061546b6037836146fb565b91506154768261540f565b604082019050919050565b6000602082019050818103600083015261549a8161545e565b9050919050565b7f4d75737420626520696e207374617465204e65787456616c696461746f72536560008201527f744c6f636b6564206f72205265616479466f724e65787445706f636800000000602082015250565b60006154fd603c836146fb565b9150615508826154a1565b604082019050919050565b6000602082019050818103600083015261552c816154f0565b9050919050565b7f56616c696461746f72206973206e6f7420696e20746865206e6578742065706f60008201527f6368000000000000000000000000000000000000000000000000000000000000602082015250565b600061558f6022836146fb565b915061559a82615533565b604082019050919050565b600060208201905081810360008301526155be81615582565b9050919050565b7f4d75737420626520696e204e65787456616c696461746f725365744c6f636b6560008201527f6400000000000000000000000000000000000000000000000000000000000000602082015250565b60006156216021836146fb565b915061562c826155c5565b604082019050919050565b6000602082019050818103600083015261565081615614565b9050919050565b7f4f776e61626c653a206e6577206f776e657220697320746865207a65726f206160008201527f6464726573730000000000000000000000000000000000000000000000000000602082015250565b60006156b36026836146fb565b91506156be82615657565b604082019050919050565b600060208201905081810360008301526156e2816156a6565b9050919050565b7f4f776e61626c653a2063616c6c6572206973206e6f7420746865206f776e6572600082015250565b600061571f6020836146fb565b915061572a826156e9565b602082019050919050565b6000602082019050818103600083015261574e81615712565b9050919050565b600060408201905061576a60008301856141bf565b6157776020830184613ece565b9392505050565b600060608201905061579360008301866141bf565b6157a060208301856141bf565b6157ad6040830184613ece565b949350505050565b7f5061757361626c653a2070617573656400000000000000000000000000000000600082015250565b60006157eb6010836146fb565b91506157f6826157b5565b602082019050919050565b6000602082019050818103600083015261581a816157de565b9050919050565b61582a81614149565b811461583557600080fd5b50565b60008151905061584781615821565b92915050565b60006020828403121561586357615862613ef8565b5b600061587184828501615838565b91505092915050565b7f5361666545524332303a204552433230206f7065726174696f6e20646964206e60008201527f6f74207375636365656400000000000000000000000000000000000000000000602082015250565b60006158d6602a836146fb565b91506158e18261587a565b604082019050919050565b60006020820190508181036000830152615905816158c9565b9050919050565b7f4e487b7100000000000000000000000000000000000000000000000000000000600052603160045260246000fd5b7f416464726573733a20696e73756666696369656e742062616c616e636520666f60008201527f722063616c6c0000000000000000000000000000000000000000000000000000602082015250565b60006159976026836146fb565b91506159a28261593b565b604082019050919050565b600060208201905081810360008301526159c68161598a565b9050919050565b7f416464726573733a2063616c6c20746f206e6f6e2d636f6e7472616374000000600082015250565b6000615a03601d836146fb565b9150615a0e826159cd565b602082019050919050565b60006020820190508181036000830152615a32816159f6565b9050919050565b600081519050919050565b600081905092915050565b60005b83811015615a6d578082015181840152602081019050615a52565b60008484015250505050565b6000615a8482615a39565b615a8e8185615a44565b9350615a9e818560208601615a4f565b80840191505092915050565b6000615ab68284615a79565b915081905092915050565b600081519050919050565b6000615ad782615ac1565b615ae181856146fb565b9350615af1818560208601615a4f565b615afa81615341565b840191505092915050565b60006020820190508181036000830152615b1f8184615acc565b90509291505056fea26469706673582212204882fa538c55ab56f1e64f81f9db5a68e93b40c4ee715f933a1609ca228180dd64736f6c63430008110033","abi":[{"inputs":[{"internalType":"address","name":"_stakingToken","type":"address"}],"stateMutability":"nonpayable","type":"constructor"},{"anonymous":false,"inputs":[{"indexed":false,"internalType":"uint256","name":"newEpochLength","type":"uint256"}],"name":"EpochLengthSet","type":"event"},{"anonymous":false,"inputs":[{"indexed":false,"internalType":"uint256","name":"newEpochTimeout","type":"uint256"}],"name":"EpochTimeoutSet","type":"event"},{"anonymous":false,"inputs":[{"indexed":false,"internalType":"uint256","name":"newKickPenaltyPercent","type":"uint256"}],"name":"KickPenaltyPercentSet","type":"event"},{"anonymous":false,"inputs":[{"indexed":false,"internalType":"uint256","name":"newMinimumStake","type":"uint256"}],"name":"MinimumStakeSet","type":"event"},{"anonymous":false,"inputs":[{"indexed":true,"internalType":"address","name":"previousOwner","type":"address"},{"indexed":true,"internalType":"address","name":"newOwner","type":"address"}],"name":"OwnershipTransferred","type":"event"},{"anonymous":false,"inputs":[{"indexed":false,"internalType":"address","name":"account","type":"address"}],"name":"Paused","type":"event"},{"anonymous":false,"inputs":[{"indexed":true,"internalType":"address","name":"staker","type":"address"}],"name":"ReadyForNextEpoch","type":"event"},{"anonymous":false,"inputs":[{"indexed":false,"internalType":"address","name":"token","type":"address"},{"indexed":false,"internalType":"uint256","name":"amount","type":"uint256"}],"name":"Recovered","type":"event"},{"anonymous":false,"inputs":[{"indexed":true,"internalType":"address","name":"staker","type":"address"}],"name":"RequestToJoin","type":"event"},{"anonymous":false,"inputs":[{"indexed":true,"internalType":"address","name":"staker","type":"address"}],"name":"RequestToLeave","type":"event"},{"anonymous":false,"inputs":[{"indexed":false,"internalType":"address","name":"newResolverContractAddress","type":"address"}],"name":"ResolverContractAddressSet","type":"event"},{"anonymous":false,"inputs":[{"indexed":true,"internalType":"address","name":"staker","type":"address"},{"indexed":false,"internalType":"uint256","name":"reward","type":"uint256"}],"name":"RewardPaid","type":"event"},{"anonymous":false,"inputs":[{"indexed":false,"internalType":"uint256","name":"newDuration","type":"uint256"}],"name":"RewardsDurationUpdated","type":"event"},{"anonymous":false,"inputs":[{"indexed":true,"internalType":"address","name":"staker","type":"address"},{"indexed":false,"internalType":"uint256","name":"amount","type":"uint256"}],"name":"Staked","type":"event"},{"anonymous":false,"inputs":[{"indexed":false,"internalType":"address","name":"newStakingTokenAddress","type":"address"}],"name":"StakingTokenSet","type":"event"},{"anonymous":false,"inputs":[{"indexed":false,"internalType":"enum Staking.States","name":"newState","type":"uint8"}],"name":"StateChanged","type":"event"},{"anonymous":false,"inputs":[{"indexed":false,"internalType":"uint256","name":"newTokenRewardPerTokenPerEpoch","type":"uint256"}],"name":"TokenRewardPerTokenPerEpochSet","type":"event"},{"anonymous":false,"inputs":[{"indexed":false,"internalType":"address","name":"account","type":"address"}],"name":"Unpaused","type":"event"},{"anonymous":false,"inputs":[{"indexed":true,"internalType":"address","name":"staker","type":"address"},{"indexed":false,"internalType":"uint256","name":"amountBurned","type":"uint256"}],"name":"ValidatorKickedFromNextEpoch","type":"event"},{"anonymous":false,"inputs":[{"indexed":true,"internalType":"address","name":"reporter","type":"address"},{"indexed":true,"internalType":"address","name":"validatorStakerAddress","type":"address"},{"indexed":true,"internalType":"uint256","name":"reason","type":"uint256"},{"indexed":false,"internalType":"bytes","name":"data","type":"bytes"}],"name":"VotedToKickValidatorInNextEpoch","type":"event"},{"anonymous":false,"inputs":[{"indexed":true,"internalType":"address","name":"staker","type":"address"},{"indexed":false,"internalType":"uint256","name":"amount","type":"uint256"}],"name":"Withdrawn","type":"event"},{"inputs":[{"internalType":"address","name":"validatorStakerAddress","type":"address"}],"name":"adminKickValidatorInNextEpoch","outputs":[],"stateMutability":"nonpayable","type":"function"},{"inputs":[{"internalType":"address","name":"validatorStakerAddress","type":"address"},{"internalType":"uint256","name":"amountToBurn","type":"uint256"}],"name":"adminSlashValidator","outputs":[],"stateMutability":"nonpayable","type":"function"},{"inputs":[],"name":"advanceEpoch","outputs":[],"stateMutability":"nonpayable","type":"function"},{"inputs":[{"internalType":"address","name":"account","type":"address"}],"name":"balanceOf","outputs":[{"internalType":"uint256","name":"","type":"uint256"}],"stateMutability":"view","type":"function"},{"inputs":[],"name":"epoch","outputs":[{"internalType":"uint256","name":"epochLength","type":"uint256"},{"internalType":"uint256","name":"number","type":"uint256"},{"internalType":"uint256","name":"endBlock","type":"uint256"},{"internalType":"uint256","name":"retries","type":"uint256"},{"internalType":"uint256","name":"timeout","type":"uint256"}],"stateMutability":"view","type":"function"},{"inputs":[],"name":"exit","outputs":[],"stateMutability":"nonpayable","type":"function"},{"inputs":[],"name":"getReward","outputs":[],"stateMutability":"nonpayable","type":"function"},{"inputs":[],"name":"getValidatorsInCurrentEpoch","outputs":[{"internalType":"address[]","name":"","type":"address[]"}],"stateMutability":"view","type":"function"},{"inputs":[],"name":"getValidatorsInNextEpoch","outputs":[{"internalType":"address[]","name":"","type":"address[]"}],"stateMutability":"view","type":"function"},{"inputs":[{"internalType":"uint256","name":"epochNumber","type":"uint256"},{"internalType":"address","name":"validatorStakerAddress","type":"address"},{"internalType":"address","name":"voterStakerAddress","type":"address"}],"name":"getVotingStatusToKickValidator","outputs":[{"internalType":"uint256","name":"","type":"uint256"},{"internalType":"bool","name":"","type":"bool"}],"stateMutability":"view","type":"function"},{"inputs":[{"internalType":"address","name":"account","type":"address"}],"name":"isActiveValidator","outputs":[{"internalType":"bool","name":"","type":"bool"}],"stateMutability":"view","type":"function"},{"inputs":[],"name":"isReadyForNextEpoch","outputs":[{"internalType":"bool","name":"","type":"bool"}],"stateMutability":"view","type":"function"},{"inputs":[],"name":"kickPenaltyPercent","outputs":[{"internalType":"uint256","name":"","type":"uint256"}],"stateMutability":"view","type":"function"},{"inputs":[{"internalType":"address","name":"validatorStakerAddress","type":"address"},{"internalType":"uint256","name":"reason","type":"uint256"},{"internalType":"bytes","name":"data","type":"bytes"}],"name":"kickValidatorInNextEpoch","outputs":[],"stateMutability":"nonpayable","type":"function"},{"inputs":[],"name":"lockValidatorsForNextEpoch","outputs":[],"stateMutability":"nonpayable","type":"function"},{"inputs":[],"name":"minimumStake","outputs":[{"internalType":"uint256","name":"","type":"uint256"}],"stateMutability":"view","type":"function"},{"inputs":[{"internalType":"address","name":"","type":"address"}],"name":"nodeAddressToStakerAddress","outputs":[{"internalType":"address","name":"","type":"address"}],"stateMutability":"view","type":"function"},{"inputs":[],"name":"owner","outputs":[{"internalType":"address","name":"","type":"address"}],"stateMutability":"view","type":"function"},{"inputs":[],"name":"pauseEpoch","outputs":[],"stateMutability":"nonpayable","type":"function"},{"inputs":[],"name":"paused","outputs":[{"internalType":"bool","name":"","type":"bool"}],"stateMutability":"view","type":"function"},{"inputs":[{"internalType":"address","name":"","type":"address"}],"name":"readyForNextEpoch","outputs":[{"internalType":"bool","name":"","type":"bool"}],"stateMutability":"view","type":"function"},{"inputs":[],"name":"renounceOwnership","outputs":[],"stateMutability":"nonpayable","type":"function"},{"inputs":[{"internalType":"uint32","name":"ip","type":"uint32"},{"internalType":"uint128","name":"ipv6","type":"uint128"},{"internalType":"uint32","name":"port","type":"uint32"},{"internalType":"address","name":"nodeAddress","type":"address"},{"internalType":"uint256","name":"senderPubKey","type":"uint256"},{"internalType":"uint256","name":"receiverPubKey","type":"uint256"}],"name":"requestToJoin","outputs":[],"stateMutability":"nonpayable","type":"function"},{"inputs":[],"name":"requestToLeave","outputs":[],"stateMutability":"nonpayable","type":"function"},{"inputs":[],"name":"resolverContractAddress","outputs":[{"internalType":"address","name":"","type":"address"}],"stateMutability":"view","type":"function"},{"inputs":[{"internalType":"address","name":"account","type":"address"}],"name":"rewardOf","outputs":[{"internalType":"uint256","name":"","type":"uint256"}],"stateMutability":"view","type":"function"},{"inputs":[{"internalType":"uint256","name":"newEpochLength","type":"uint256"}],"name":"setEpochLength","outputs":[],"stateMutability":"nonpayable","type":"function"},{"inputs":[{"internalType":"enum Staking.States","name":"newState","type":"uint8"}],"name":"setEpochState","outputs":[],"stateMutability":"nonpayable","type":"function"},{"inputs":[{"internalType":"uint256","name":"newEpochTimeout","type":"uint256"}],"name":"setEpochTimeout","outputs":[],"stateMutability":"nonpayable","type":"function"},{"inputs":[{"internalType":"uint32","name":"ip","type":"uint32"},{"internalType":"uint128","name":"ipv6","type":"uint128"},{"internalType":"uint32","name":"port","type":"uint32"},{"internalType":"address","name":"nodeAddress","type":"address"},{"internalType":"uint256","name":"senderPubKey","type":"uint256"},{"internalType":"uint256","name":"receiverPubKey","type":"uint256"}],"name":"setIpPortNodeAddressAndCommunicationPubKeys","outputs":[],"stateMutability":"nonpayable","type":"function"},{"inputs":[{"internalType":"uint256","name":"newKickPenaltyPercent","type":"uint256"}],"name":"setKickPenaltyPercent","outputs":[],"stateMutability":"nonpayable","type":"function"},{"inputs":[{"internalType":"uint256","name":"newMinimumStake","type":"uint256"}],"name":"setMinimumStake","outputs":[],"stateMutability":"nonpayable","type":"function"},{"inputs":[{"internalType":"address","name":"newResolverContractAddress","type":"address"}],"name":"setResolverContractAddress","outputs":[],"stateMutability":"nonpayable","type":"function"},{"inputs":[{"internalType":"address","name":"newStakingTokenAddress","type":"address"}],"name":"setStakingToken","outputs":[],"stateMutability":"nonpayable","type":"function"},{"inputs":[{"internalType":"uint256","name":"newTokenRewardPerTokenPerEpoch","type":"uint256"}],"name":"setTokenRewardPerTokenPerEpoch","outputs":[],"stateMutability":"nonpayable","type":"function"},{"inputs":[{"internalType":"address","name":"stakerAddress","type":"address"}],"name":"shouldKickValidator","outputs":[{"internalType":"bool","name":"","type":"bool"}],"stateMutability":"view","type":"function"},{"inputs":[],"name":"signalReadyForNextEpoch","outputs":[],"stateMutability":"nonpayable","type":"function"},{"inputs":[{"internalType":"uint256","name":"amount","type":"uint256"}],"name":"stake","outputs":[],"stateMutability":"nonpayable","type":"function"},{"inputs":[{"internalType":"uint256","name":"amount","type":"uint256"},{"internalType":"uint32","name":"ip","type":"uint32"},{"internalType":"uint128","name":"ipv6","type":"uint128"},{"internalType":"uint32","name":"port","type":"uint32"},{"internalType":"address","name":"nodeAddress","type":"address"},{"internalType":"uint256","name":"senderPubKey","type":"uint256"},{"internalType":"uint256","name":"receiverPubKey","type":"uint256"}],"name":"stakeAndJoin","outputs":[],"stateMutability":"nonpayable","type":"function"},{"inputs":[],"name":"stakingToken","outputs":[{"internalType":"contract LITToken","name":"","type":"address"}],"stateMutability":"view","type":"function"},{"inputs":[],"name":"state","outputs":[{"internalType":"enum Staking.States","name":"","type":"uint8"}],"stateMutability":"view","type":"function"},{"inputs":[],"name":"tokenRewardPerTokenPerEpoch","outputs":[{"internalType":"uint256","name":"","type":"uint256"}],"stateMutability":"view","type":"function"},{"inputs":[],"name":"totalStaked","outputs":[{"internalType":"uint256","name":"","type":"uint256"}],"stateMutability":"view","type":"function"},{"inputs":[{"internalType":"address","name":"newOwner","type":"address"}],"name":"transferOwnership","outputs":[],"stateMutability":"nonpayable","type":"function"},{"inputs":[],"name":"unlockValidatorsForNextEpoch","outputs":[],"stateMutability":"nonpayable","type":"function"},{"inputs":[],"name":"validatorCountForConsensus","outputs":[{"internalType":"uint256","name":"","type":"uint256"}],"stateMutability":"view","type":"function"},{"inputs":[],"name":"validatorStateIsActive","outputs":[{"internalType":"bool","name":"","type":"bool"}],"stateMutability":"view","type":"function"},{"inputs":[],"name":"validatorStateIsUnlocked","outputs":[{"internalType":"bool","name":"","type":"bool"}],"stateMutability":"view","type":"function"},{"inputs":[{"internalType":"address","name":"","type":"address"}],"name":"validators","outputs":[{"internalType":"uint32","name":"ip","type":"uint32"},{"internalType":"uint128","name":"ipv6","type":"uint128"},{"internalType":"uint32","name":"port","type":"uint32"},{"internalType":"address","name":"nodeAddress","type":"address"},{"internalType":"uint256","name":"balance","type":"uint256"},{"internalType":"uint256","name":"reward","type":"uint256"},{"internalType":"uint256","name":"senderPubKey","type":"uint256"},{"internalType":"uint256","name":"receiverPubKey","type":"uint256"}],"stateMutability":"view","type":"function"},{"inputs":[],"name":"validatorsInNextEpochAreLocked","outputs":[{"internalType":"bool","name":"","type":"bool"}],"stateMutability":"view","type":"function"},{"inputs":[{"internalType":"uint256","name":"","type":"uint256"},{"internalType":"address","name":"","type":"address"}],"name":"votesToKickValidatorsInNextEpoch","outputs":[{"internalType":"uint256","name":"votes","type":"uint256"}],"stateMutability":"view","type":"function"},{"inputs":[{"internalType":"uint256","name":"amount","type":"uint256"}],"name":"withdraw","outputs":[],"stateMutability":"nonpayable","type":"function"}]}