{"address":"0x04b6562eF5768306Cee2668b92D1511a87220663","bytecode":"0x60806040526000600160156101000a81548160ff021916908360038111156200002d576200002c62000560565b5b02179055503480156200003f57600080fd5b506040516200579e3803806200579e8339818101604052810190620000659190620003be565b60016000819055506000600160006101000a81548160ff021916908315150217905550620000a86200009c620002c560201b60201c565b620002cd60201b60201c565b80600260006101000a81548173ffffffffffffffffffffffffffffffffffffffff021916908373ffffffffffffffffffffffffffffffffffffffff1602179055506040518060800160405280605081526020016001815260200160014362000111919062000422565b815260200160008152506003600082015181600001556020820151816001015560408201518160020155606082015181600301559050506014600260009054906101000a900473ffffffffffffffffffffffffffffffffffffffff1673ffffffffffffffffffffffffffffffffffffffff1663313ce5676040518163ffffffff1660e01b815260040160206040518083038186803b158015620001b357600080fd5b505afa158015620001c8573d6000803e3d6000fd5b505050506040513d601f19601f82011682018060405250810190620001ee9190620003f0565b600a18620001fd91906200047f565b60ff16600781905550600260009054906101000a900473ffffffffffffffffffffffffffffffffffffffff1673ffffffffffffffffffffffffffffffffffffffff1663313ce5676040518163ffffffff1660e01b815260040160206040518083038186803b1580156200026f57600080fd5b505afa15801562000284573d6000803e3d6000fd5b505050506040513d601f19601f82011682018060405250810190620002aa9190620003f0565b600a1860ff166008819055506005600a8190555050620005c8565b600033905090565b600060018054906101000a900473ffffffffffffffffffffffffffffffffffffffff169050816001806101000a81548173ffffffffffffffffffffffffffffffffffffffff021916908373ffffffffffffffffffffffffffffffffffffffff1602179055508173ffffffffffffffffffffffffffffffffffffffff168173ffffffffffffffffffffffffffffffffffffffff167f8be0079c531659141344cd1fd0a4f28419497f9722a3daafe3b4186f6b6457e060405160405180910390a35050565b600081519050620003a18162000594565b92915050565b600081519050620003b881620005ae565b92915050565b600060208284031215620003d757620003d66200058f565b5b6000620003e78482850162000390565b91505092915050565b6000602082840312156200040957620004086200058f565b5b60006200041984828501620003a7565b91505092915050565b60006200042f82620004eb565b91506200043c83620004eb565b9250827fffffffffffffffffffffffffffffffffffffffffffffffffffffffffffffffff0382111562000474576200047362000502565b5b828201905092915050565b60006200048c82620004f5565b91506200049983620004f5565b925082620004ac57620004ab62000531565b5b828204905092915050565b6000620004c482620004cb565b9050919050565b600073ffffffffffffffffffffffffffffffffffffffff82169050919050565b6000819050919050565b600060ff82169050919050565b7f4e487b7100000000000000000000000000000000000000000000000000000000600052601160045260246000fd5b7f4e487b7100000000000000000000000000000000000000000000000000000000600052601260045260246000fd5b7f4e487b7100000000000000000000000000000000000000000000000000000000600052602160045260246000fd5b600080fd5b6200059f81620004b7565b8114620005ab57600080fd5b50565b620005b981620004f5565b8114620005c557600080fd5b50565b6151c680620005d86000396000f3fe608060405234801561001057600080fd5b50600436106102955760003560e01c8063857b766311610167578063bee36e9c116100ce578063e9fad8ee11610087578063e9fad8ee14610758578063ec5ffac214610762578063f1887fec14610780578063f2fde38b1461079e578063f48d2a27146107ba578063fa52c7d8146107d857610295565b8063bee36e9c146106ce578063c006e00b146106d8578063c19d93fb146106e2578063c35d4d0914610700578063dd21d6261461071e578063e587b8a71461073c57610295565b8063a4c569b911610120578063a4c569b914610632578063a694fc3a14610650578063ac2f8afe1461066c578063b6688e0014610676578063b9ce663814610694578063ba3bd22e146106b257610295565b8063857b76631461057f578063865419e91461059d5780638d2b9c81146105b95780638da5cb5b146105d7578063900cf0cf146105f5578063988ac2791461061657610295565b80634927a1431161020b57806370a08231116101c457806370a08231146104a857806370fe276a146104d8578063715018a61461050957806372f702f314610513578063817b1cd214610531578063847e06251461054f57610295565b80634927a143146103c25780634f8f0102146103f25780635081f66f1461040e578063519877eb1461043e57806354eea7961461046e5780635c975abb1461048a57610295565b80632e1a7d4d1161025d5780632e1a7d4d1461032a5780633528db88146103465780633cf80e6c146103625780633d18b9121461036c57806340550a1c14610376578063455b0de6146103a657610295565b8063063d82391461029a57806316930f4d146102b85780631d62ebd9146102c25780631e9b12ef146102f2578063233e99031461030e575b600080fd5b6102a261080f565b6040516102af91906144b4565b60405180910390f35b6102c0610815565b005b6102dc60048036038101906102d7919061389c565b610982565b6040516102e991906144b4565b60405180910390f35b61030c6004803603810190610307919061389c565b6109ce565b005b6103286004803603810190610323919061396a565b610a1a565b005b610344600480360381019061033f919061396a565b610a2c565b005b610360600480360381019061035b9190613acc565b610cea565b005b61036a611202565b005b61037461159b565b005b610390600480360381019061038b919061389c565b611728565b60405161039d91906140fd565b60405180910390f35b6103c060048036038101906103bb919061396a565b611745565b005b6103dc60048036038101906103d79190613997565b611757565b6040516103e991906144b4565b60405180910390f35b61040c60048036038101906104079190613acc565b611782565b005b6104286004803603810190610423919061389c565b6119d4565b6040516104359190614060565b60405180910390f35b6104586004803603810190610453919061389c565b611a07565b60405161046591906140fd565b60405180910390f35b6104886004803603810190610483919061396a565b611a27565b005b610492611a3c565b60405161049f91906140fd565b60405180910390f35b6104c260048036038101906104bd919061389c565b611a53565b6040516104cf91906144b4565b60405180910390f35b6104f260048036038101906104ed91906139d7565b611a9f565b6040516105009291906144cf565b60405180910390f35b610511611b57565b005b61051b611b6b565b604051610528919061413c565b60405180910390f35b610539611b91565b60405161054691906144b4565b60405180910390f35b6105696004803603810190610564919061389c565b611b97565b60405161057691906140fd565b60405180910390f35b610587611c18565b60405161059491906140db565b60405180910390f35b6105b760048036038101906105b291906138c9565b611d00565b005b6105c16122e9565b6040516105ce91906140fd565b60405180910390f35b6105df612327565b6040516105ec9190614060565b60405180910390f35b6105fd61234f565b60405161060d94939291906144f8565b60405180910390f35b610630600480360381019061062b919061389c565b61236d565b005b61063a6123f0565b60405161064791906140fd565b60405180910390f35b61066a6004803603810190610665919061396a565b61242d565b005b6106746125d8565b005b61067e612755565b60405161068b9190614060565b60405180910390f35b61069c61277b565b6040516106a991906144b4565b60405180910390f35b6106cc60048036038101906106c79190613a2a565b612781565b005b6106d66127a9565b005b6106e0612a3f565b005b6106ea612c47565b6040516106f79190614157565b60405180910390f35b610708612c5a565b60405161071591906140db565b60405180910390f35b610726612d42565b60405161073391906144b4565b60405180910390f35b6107566004803603810190610751919061396a565b612d86565b005b610760612d98565b005b61076a612ded565b60405161077791906144b4565b60405180910390f35b610788612df3565b60405161079591906140fd565b60405180910390f35b6107b860048036038101906107b3919061389c565b612eb7565b005b6107c2612f3b565b6040516107cf91906140fd565b60405180910390f35b6107f260048036038101906107ed919061389c565b612f78565b60405161080698979695949392919061453d565b60405180910390f35b60075481565b60036002015443101561085d576040517f08c379a000000000000000000000000000000000000000000000000000000000815260040161085490614294565b60405180910390fd5b6000600381111561087157610870614904565b5b600160159054906101000a900460ff16600381111561089357610892614904565b5b14806108d157506003808111156108ad576108ac614904565b5b600160159054906101000a900460ff1660038111156108cf576108ce614904565b5b145b610910576040517f08c379a0000000000000000000000000000000000000000000000000000000008152600401610907906141d4565b60405180910390fd5b60018060156101000a81548160ff0219169083600381111561093557610934614904565b5b02179055507f551dc40198cc79684bb69e4931dba4ac16e4598792ee1c0a5000aeea366d7bb6600160159054906101000a900460ff166040516109789190614157565b60405180910390a1565b6000601160008373ffffffffffffffffffffffffffffffffffffffff1673ffffffffffffffffffffffffffffffffffffffff168152602001908152602001600020600301549050919050565b6109d661301c565b80600260006101000a81548173ffffffffffffffffffffffffffffffffffffffff021916908373ffffffffffffffffffffffffffffffffffffffff16021790555050565b610a2261301c565b8060088190555050565b60026000541415610a72576040517f08c379a0000000000000000000000000000000000000000000000000000000008152600401610a6990614474565b60405180910390fd5b600260008190555060008111610abd576040517f08c379a0000000000000000000000000000000000000000000000000000000008152600401610ab490614334565b60405180910390fd5b60001515610ad533600b61309a90919063ffffffff16565b151514610b17576040517f08c379a0000000000000000000000000000000000000000000000000000000008152600401610b0e90614494565b60405180910390fd5b80601160003373ffffffffffffffffffffffffffffffffffffffff1673ffffffffffffffffffffffffffffffffffffffff168152602001908152602001600020600201541015610b9c576040517f08c379a0000000000000000000000000000000000000000000000000000000008152600401610b9390614274565b60405180910390fd5b80600954610baa9190614718565b60098190555080601160003373ffffffffffffffffffffffffffffffffffffffff1673ffffffffffffffffffffffffffffffffffffffff16815260200190815260200160002060020154610bfe9190614718565b601160003373ffffffffffffffffffffffffffffffffffffffff1673ffffffffffffffffffffffffffffffffffffffff16815260200190815260200160002060020181905550610c913382600260009054906101000a900473ffffffffffffffffffffffffffffffffffffffff1673ffffffffffffffffffffffffffffffffffffffff166130ca9092919063ffffffff16565b3373ffffffffffffffffffffffffffffffffffffffff167f7084f5476618d8e60b11ef0d7d3f06914655adb8793e28ff7f018d4c76d505d582604051610cd791906144b4565b60405180910390a2600160008190555050565b60026000541415610d30576040517f08c379a0000000000000000000000000000000000000000000000000000000008152600401610d2790614474565b60405180910390fd5b60026000819055506000601160003373ffffffffffffffffffffffffffffffffffffffff1673ffffffffffffffffffffffffffffffffffffffff168152602001908152602001600020600201549050600854811015610dc4576040517f08c379a0000000000000000000000000000000000000000000000000000000008152600401610dbb90614194565b60405180910390fd5b60006003811115610dd857610dd7614904565b5b600160159054906101000a900460ff166003811115610dfa57610df9614904565b5b1480610e385750600380811115610e1457610e13614904565b5b600160159054906101000a900460ff166003811115610e3657610e35614904565b5b145b610e77576040517f08c379a0000000000000000000000000000000000000000000000000000000008152600401610e6e90614314565b60405180910390fd5b60001515610e8f33600f61309a90919063ffffffff16565b151514610ed1576040517f08c379a0000000000000000000000000000000000000000000000000000000008152600401610ec890614254565b60405180910390fd5b86601160003373ffffffffffffffffffffffffffffffffffffffff1673ffffffffffffffffffffffffffffffffffffffff16815260200190815260200160002060000160006101000a81548163ffffffff021916908363ffffffff16021790555085601160003373ffffffffffffffffffffffffffffffffffffffff1673ffffffffffffffffffffffffffffffffffffffff16815260200190815260200160002060000160046101000a8154816fffffffffffffffffffffffffffffffff02191690836fffffffffffffffffffffffffffffffff16021790555084601160003373ffffffffffffffffffffffffffffffffffffffff1673ffffffffffffffffffffffffffffffffffffffff16815260200190815260200160002060000160146101000a81548163ffffffff021916908363ffffffff16021790555083601160003373ffffffffffffffffffffffffffffffffffffffff1673ffffffffffffffffffffffffffffffffffffffff16815260200190815260200160002060010160006101000a81548173ffffffffffffffffffffffffffffffffffffffff021916908373ffffffffffffffffffffffffffffffffffffffff16021790555082601160003373ffffffffffffffffffffffffffffffffffffffff1673ffffffffffffffffffffffffffffffffffffffff1681526020019081526020016000206004018190555081601160003373ffffffffffffffffffffffffffffffffffffffff1673ffffffffffffffffffffffffffffffffffffffff1681526020019081526020016000206005018190555033601260008673ffffffffffffffffffffffffffffffffffffffff1673ffffffffffffffffffffffffffffffffffffffff16815260200190815260200160002060006101000a81548173ffffffffffffffffffffffffffffffffffffffff021916908373ffffffffffffffffffffffffffffffffffffffff1602179055506111ad33600d61315090919063ffffffff16565b503373ffffffffffffffffffffffffffffffffffffffff167f1dc186bd4daaf3fc4b9f8c689228a0be60dd2952dc502829514ae0d6955c0f5160405160405180910390a2506001600081905550505050505050565b60036002015443101561124a576040517f08c379a000000000000000000000000000000000000000000000000000000000815260040161124190614294565b60405180910390fd5b6002600381111561125e5761125d614904565b5b600160159054906101000a900460ff1660038111156112805761127f614904565b5b146112c0576040517f08c379a00000000000000000000000000000000000000000000000000000000081526004016112b7906143d4565b60405180910390fd5b600115156112cc612df3565b15151461130e576040517f08c379a000000000000000000000000000000000000000000000000000000000815260040161130590614454565b60405180910390fd5b60005b61131b600b613180565b8110156113f657600061133882600b61319590919063ffffffff16565b9050601160008273ffffffffffffffffffffffffffffffffffffffff1673ffffffffffffffffffffffffffffffffffffffff1681526020019081526020016000206002015460075461138a91906146be565b601160008373ffffffffffffffffffffffffffffffffffffffff1673ffffffffffffffffffffffffffffffffffffffff16815260200190815260200160002060030160008282546113db9190614637565b925050819055505080806113ee9061485d565b915050611311565b505b6000611404600b613180565b1115611438576114326114226000600b61319590919063ffffffff16565b600b6131af90919063ffffffff16565b506113f8565b60005b611445600d613180565b8110156114f25761147361146382600d61319590919063ffffffff16565b600b61315090919063ffffffff16565b5060006013600061148e84600d61319590919063ffffffff16565b73ffffffffffffffffffffffffffffffffffffffff1673ffffffffffffffffffffffffffffffffffffffff16815260200190815260200160002060006101000a81548160ff02191690831515021790555080806114ea9061485d565b91505061143b565b50600360010160008154809291906115099061485d565b91905055506003600001544361151f9190614637565b6003600201819055506000600160156101000a81548160ff0219169083600381111561154e5761154d614904565b5b02179055507f551dc40198cc79684bb69e4931dba4ac16e4598792ee1c0a5000aeea366d7bb6600160159054906101000a900460ff166040516115919190614157565b60405180910390a1565b600260005414156115e1576040517f08c379a00000000000000000000000000000000000000000000000000000000081526004016115d890614474565b60405180910390fd5b60026000819055506000601160003373ffffffffffffffffffffffffffffffffffffffff1673ffffffffffffffffffffffffffffffffffffffff168152602001908152602001600020600301549050600081111561171d576000601160003373ffffffffffffffffffffffffffffffffffffffff1673ffffffffffffffffffffffffffffffffffffffff168152602001908152602001600020600301819055506116ce3382600260009054906101000a900473ffffffffffffffffffffffffffffffffffffffff1673ffffffffffffffffffffffffffffffffffffffff166130ca9092919063ffffffff16565b3373ffffffffffffffffffffffffffffffffffffffff167fe2403640ba68fed3a2f88b7557551d1993f84b99bb10ff833f0cf8db0c5e04868260405161171491906144b4565b60405180910390a25b506001600081905550565b600061173e82600b61309a90919063ffffffff16565b9050919050565b61174d61301c565b8060078190555050565b6014602052816000526040600020602052806000526040600020600091509150508060000154905081565b85601160003373ffffffffffffffffffffffffffffffffffffffff1673ffffffffffffffffffffffffffffffffffffffff16815260200190815260200160002060000160006101000a81548163ffffffff021916908363ffffffff16021790555084601160003373ffffffffffffffffffffffffffffffffffffffff1673ffffffffffffffffffffffffffffffffffffffff16815260200190815260200160002060000160046101000a8154816fffffffffffffffffffffffffffffffff02191690836fffffffffffffffffffffffffffffffff16021790555083601160003373ffffffffffffffffffffffffffffffffffffffff1673ffffffffffffffffffffffffffffffffffffffff16815260200190815260200160002060000160146101000a81548163ffffffff021916908363ffffffff16021790555082601160003373ffffffffffffffffffffffffffffffffffffffff1673ffffffffffffffffffffffffffffffffffffffff16815260200190815260200160002060010160006101000a81548173ffffffffffffffffffffffffffffffffffffffff021916908373ffffffffffffffffffffffffffffffffffffffff16021790555081601160003373ffffffffffffffffffffffffffffffffffffffff1673ffffffffffffffffffffffffffffffffffffffff1681526020019081526020016000206004018190555080601160003373ffffffffffffffffffffffffffffffffffffffff1673ffffffffffffffffffffffffffffffffffffffff16815260200190815260200160002060050181905550505050505050565b60126020528060005260406000206000915054906101000a900473ffffffffffffffffffffffffffffffffffffffff1681565b60136020528060005260406000206000915054906101000a900460ff1681565b611a2f61301c565b8060036000018190555050565b6000600160009054906101000a900460ff16905090565b6000601160008373ffffffffffffffffffffffffffffffffffffffff1673ffffffffffffffffffffffffffffffffffffffff168152602001908152602001600020600201549050919050565b60008060006014600087815260200190815260200160002060008673ffffffffffffffffffffffffffffffffffffffff1673ffffffffffffffffffffffffffffffffffffffff168152602001908152602001600020905080600001548160010160008673ffffffffffffffffffffffffffffffffffffffff1673ffffffffffffffffffffffffffffffffffffffff16815260200190815260200160002060009054906101000a900460ff169250925050935093915050565b611b5f61301c565b611b6960006131df565b565b600260009054906101000a900473ffffffffffffffffffffffffffffffffffffffff1681565b60095481565b60008060146000600360010154815260200190815260200160002060008473ffffffffffffffffffffffffffffffffffffffff1673ffffffffffffffffffffffffffffffffffffffff1681526020019081526020016000209050611bf9612d42565b816000015410611c0d576001915050611c13565b60009150505b919050565b60606000611c26600b613180565b67ffffffffffffffff811115611c3f57611c3e614991565b5b604051908082528060200260200182016040528015611c6d5781602001602082028036833780820191505090505b50905060005b611c7d600b613180565b811015611cf857611c9881600b61319590919063ffffffff16565b828281518110611cab57611caa614962565b5b602002602001019073ffffffffffffffffffffffffffffffffffffffff16908173ffffffffffffffffffffffffffffffffffffffff16815250508080611cf09061485d565b915050611c73565b508091505090565b60026000541415611d46576040517f08c379a0000000000000000000000000000000000000000000000000000000008152600401611d3d90614474565b60405180910390fd5b60026000819055506000601260003373ffffffffffffffffffffffffffffffffffffffff1673ffffffffffffffffffffffffffffffffffffffff16815260200190815260200160002060009054906101000a900473ffffffffffffffffffffffffffffffffffffffff169050600073ffffffffffffffffffffffffffffffffffffffff168173ffffffffffffffffffffffffffffffffffffffff161415611e22576040517f08c379a0000000000000000000000000000000000000000000000000000000008152600401611e1990614374565b60405180910390fd5b611e3681600d61309a90919063ffffffff16565b611e75576040517f08c379a0000000000000000000000000000000000000000000000000000000008152600401611e6c906141b4565b60405180910390fd5b6000151560146000600360010154815260200190815260200160002060008773ffffffffffffffffffffffffffffffffffffffff1673ffffffffffffffffffffffffffffffffffffffff16815260200190815260200160002060010160008373ffffffffffffffffffffffffffffffffffffffff1673ffffffffffffffffffffffffffffffffffffffff16815260200190815260200160002060009054906101000a900460ff16151514611f5e576040517f08c379a0000000000000000000000000000000000000000000000000000000008152600401611f55906143f4565b60405180910390fd5b60146000600360010154815260200190815260200160002060008673ffffffffffffffffffffffffffffffffffffffff1673ffffffffffffffffffffffffffffffffffffffff1681526020019081526020016000206000016000815480929190611fc79061485d565b9190505550600160146000600360010154815260200190815260200160002060008773ffffffffffffffffffffffffffffffffffffffff1673ffffffffffffffffffffffffffffffffffffffff16815260200190815260200160002060010160008373ffffffffffffffffffffffffffffffffffffffff1673ffffffffffffffffffffffffffffffffffffffff16815260200190815260200160002060006101000a81548160ff02191690831515021790555061208e85600d61309a90919063ffffffff16565b801561209f575061209e85611b97565b5b15612272576120b885600d6131af90919063ffffffff16565b506120cd85600f61315090919063ffffffff16565b5060006064600a546120df919061468d565b601160008873ffffffffffffffffffffffffffffffffffffffff1673ffffffffffffffffffffffffffffffffffffffff1681526020019081526020016000206002015461212c91906146be565b905080601160008873ffffffffffffffffffffffffffffffffffffffff1673ffffffffffffffffffffffffffffffffffffffff16815260200190815260200160002060020160008282546121809190614718565b9250508190555080600960008282546121999190614718565b92505081905550600260009054906101000a900473ffffffffffffffffffffffffffffffffffffffff1673ffffffffffffffffffffffffffffffffffffffff166342966c68826040518263ffffffff1660e01b81526004016121fb91906144b4565b600060405180830381600087803b15801561221557600080fd5b505af1158015612229573d6000803e3d6000fd5b505050508573ffffffffffffffffffffffffffffffffffffffff167f1d3a884562d8ed1a6c97e8a20281097f8b901fad9029dbdf72920f1e74008abb60405160405180910390a2505b838573ffffffffffffffffffffffffffffffffffffffff168273ffffffffffffffffffffffffffffffffffffffff167febdee48ed32f3feff81eed274b9e084b367ac42fe1cb710dcbd43f1d537d99fa86866040516122d2929190614118565b60405180910390a450600160008190555050505050565b6000600160038111156122ff576122fe614904565b5b600160159054906101000a900460ff16600381111561232157612320614904565b5b14905090565b600060018054906101000a900473ffffffffffffffffffffffffffffffffffffffff16905090565b60038060000154908060010154908060020154908060030154905084565b61237561301c565b80601560006101000a81548173ffffffffffffffffffffffffffffffffffffffff021916908373ffffffffffffffffffffffffffffffffffffffff1602179055507ff4d0464cc423f95feec621002dd69b66c56e0f84096014263fd923c74af25a2b816040516123e59190614060565b60405180910390a150565b600080600381111561240557612404614904565b5b600160159054906101000a900460ff16600381111561242757612426614904565b5b14905090565b60026000541415612473576040517f08c379a000000000000000000000000000000000000000000000000000000000815260040161246a90614474565b60405180910390fd5b6002600081905550600081116124be576040517f08c379a00000000000000000000000000000000000000000000000000000000081526004016124b590614234565b60405180910390fd5b61250d333083600260009054906101000a900473ffffffffffffffffffffffffffffffffffffffff1673ffffffffffffffffffffffffffffffffffffffff166132a2909392919063ffffffff16565b80601160003373ffffffffffffffffffffffffffffffffffffffff1673ffffffffffffffffffffffffffffffffffffffff168152602001908152602001600020600201600082825461255f9190614637565b9250508190555080600960008282546125789190614637565b925050819055503373ffffffffffffffffffffffffffffffffffffffff167f9e71bc8eea02a63969f509818f2dafb9254532904319f9dbda79b67bd34a5f3d826040516125c591906144b4565b60405180910390a2600160008190555050565b6002600054141561261e576040517f08c379a000000000000000000000000000000000000000000000000000000000815260040161261590614474565b60405180910390fd5b60026000819055506000600381111561263a57612639614904565b5b600160159054906101000a900460ff16600381111561265c5761265b614904565b5b148061269a575060038081111561267657612675614904565b5b600160159054906101000a900460ff16600381111561269857612697614904565b5b145b6126d9576040517f08c379a00000000000000000000000000000000000000000000000000000000081526004016126d090614354565b60405180910390fd5b6126ed33600d61309a90919063ffffffff16565b156127085761270633600d6131af90919063ffffffff16565b505b3373ffffffffffffffffffffffffffffffffffffffff167fff61c8020d05b8c2e31cdbb3d3f8cbcbdc57fcafa00229d9858b7cfd3b039c8a60405160405180910390a26001600081905550565b601560009054906101000a900473ffffffffffffffffffffffffffffffffffffffff1681565b600a5481565b61278961332b565b6127928761242d565b6127a0868686868686610cea565b50505050505050565b6000601260003373ffffffffffffffffffffffffffffffffffffffff1673ffffffffffffffffffffffffffffffffffffffff16815260200190815260200160002060009054906101000a900473ffffffffffffffffffffffffffffffffffffffff1690506001600381111561282157612820614904565b5b600160159054906101000a900460ff16600381111561284357612842614904565b5b148061288257506002600381111561285e5761285d614904565b5b600160159054906101000a900460ff1660038111156128805761287f614904565b5b145b6128c1576040517f08c379a00000000000000000000000000000000000000000000000000000000081526004016128b8906142b4565b60405180910390fd5b600160036001015414612922576128e281600d61309a90919063ffffffff16565b612921576040517f08c379a0000000000000000000000000000000000000000000000000000000008152600401612918906143b4565b60405180910390fd5b5b6001601360008373ffffffffffffffffffffffffffffffffffffffff1673ffffffffffffffffffffffffffffffffffffffff16815260200190815260200160002060006101000a81548160ff0219169083151502179055508073ffffffffffffffffffffffffffffffffffffffff167f9784a0102afe6a5b031e774420da20a7d1e8207dde8e1ede9c6cefe5680ba05e60405160405180910390a26129c5612df3565b15612a3c576002600160156101000a81548160ff021916908360038111156129f0576129ef614904565b5b02179055507f551dc40198cc79684bb69e4931dba4ac16e4598792ee1c0a5000aeea366d7bb6600160159054906101000a900460ff16604051612a339190614157565b60405180910390a15b50565b600360000154600360020154612a559190614637565b431015612a97576040517f08c379a0000000000000000000000000000000000000000000000000000000008152600401612a8e90614294565b60405180910390fd5b60016003811115612aab57612aaa614904565b5b600160159054906101000a900460ff166003811115612acd57612acc614904565b5b14612b0d576040517f08c379a0000000000000000000000000000000000000000000000000000000008152600401612b04906141f4565b60405180910390fd5b60005b612b1a600d613180565b811015612b9f57600060136000612b3b84600d61319590919063ffffffff16565b73ffffffffffffffffffffffffffffffffffffffff1673ffffffffffffffffffffffffffffffffffffffff16815260200190815260200160002060006101000a81548160ff0219169083151502179055508080612b979061485d565b915050612b10565b50600380016000815480929190612bb59061485d565b919050555060036000015443612bcb9190614637565b6003600201819055506003600160156101000a81548160ff02191690836003811115612bfa57612bf9614904565b5b02179055507f551dc40198cc79684bb69e4931dba4ac16e4598792ee1c0a5000aeea366d7bb6600160159054906101000a900460ff16604051612c3d9190614157565b60405180910390a1565b600160159054906101000a900460ff1681565b60606000612c68600d613180565b67ffffffffffffffff811115612c8157612c80614991565b5b604051908082528060200260200182016040528015612caf5781602001602082028036833780820191505090505b50905060005b612cbf600d613180565b811015612d3a57612cda81600d61319590919063ffffffff16565b828281518110612ced57612cec614962565b5b602002602001019073ffffffffffffffffffffffffffffffffffffffff16908173ffffffffffffffffffffffffffffffffffffffff16815250508080612d329061485d565b915050612cb5565b508091505090565b60006002612d50600b613180565b11612d5e5760019050612d83565b60026003612d6c600b613180565b612d76919061468d565b612d8091906146be565b90505b90565b612d8e61301c565b80600a8190555050565b612de3601160003373ffffffffffffffffffffffffffffffffffffffff1673ffffffffffffffffffffffffffffffffffffffff16815260200190815260200160002060020154610a2c565b612deb61159b565b565b60085481565b6000806000905060005b612e07600d613180565b811015612e955760136000612e2683600d61319590919063ffffffff16565b73ffffffffffffffffffffffffffffffffffffffff1673ffffffffffffffffffffffffffffffffffffffff16815260200190815260200160002060009054906101000a900460ff1615612e82578180612e7e9061485d565b9250505b8080612e8d9061485d565b915050612dfd565b50612e9e612d42565b8110612eae576001915050612eb4565b60009150505b90565b612ebf61301c565b600073ffffffffffffffffffffffffffffffffffffffff168173ffffffffffffffffffffffffffffffffffffffff161415612f2f576040517f08c379a0000000000000000000000000000000000000000000000000000000008152600401612f2690614214565b60405180910390fd5b612f38816131df565b50565b6000600380811115612f5057612f4f614904565b5b600160159054906101000a900460ff166003811115612f7257612f71614904565b5b14905090565b60116020528060005260406000206000915090508060000160009054906101000a900463ffffffff16908060000160049054906101000a90046fffffffffffffffffffffffffffffffff16908060000160149054906101000a900463ffffffff16908060010160009054906101000a900473ffffffffffffffffffffffffffffffffffffffff16908060020154908060030154908060040154908060050154905088565b613024613375565b73ffffffffffffffffffffffffffffffffffffffff16613042612327565b73ffffffffffffffffffffffffffffffffffffffff1614613098576040517f08c379a000000000000000000000000000000000000000000000000000000000815260040161308f90614394565b60405180910390fd5b565b60006130c2836000018373ffffffffffffffffffffffffffffffffffffffff1660001b61337d565b905092915050565b61314b8363a9059cbb60e01b84846040516024016130e99291906140b2565b604051602081830303815290604052907bffffffffffffffffffffffffffffffffffffffffffffffffffffffff19166020820180517bffffffffffffffffffffffffffffffffffffffffffffffffffffffff83818316178352505050506133a0565b505050565b6000613178836000018373ffffffffffffffffffffffffffffffffffffffff1660001b613467565b905092915050565b600061318e826000016134d7565b9050919050565b60006131a483600001836134e8565b60001c905092915050565b60006131d7836000018373ffffffffffffffffffffffffffffffffffffffff1660001b613513565b905092915050565b600060018054906101000a900473ffffffffffffffffffffffffffffffffffffffff169050816001806101000a81548173ffffffffffffffffffffffffffffffffffffffff021916908373ffffffffffffffffffffffffffffffffffffffff1602179055508173ffffffffffffffffffffffffffffffffffffffff168173ffffffffffffffffffffffffffffffffffffffff167f8be0079c531659141344cd1fd0a4f28419497f9722a3daafe3b4186f6b6457e060405160405180910390a35050565b613325846323b872dd60e01b8585856040516024016132c39392919061407b565b604051602081830303815290604052907bffffffffffffffffffffffffffffffffffffffffffffffffffffffff19166020820180517bffffffffffffffffffffffffffffffffffffffffffffffffffffffff83818316178352505050506133a0565b50505050565b613333611a3c565b15613373576040517f08c379a000000000000000000000000000000000000000000000000000000000815260040161336a906142f4565b60405180910390fd5b565b600033905090565b600080836001016000848152602001908152602001600020541415905092915050565b6000613402826040518060400160405280602081526020017f5361666545524332303a206c6f772d6c6576656c2063616c6c206661696c65648152508573ffffffffffffffffffffffffffffffffffffffff166136279092919063ffffffff16565b90506000815111156134625780806020019051810190613422919061393d565b613461576040517f08c379a000000000000000000000000000000000000000000000000000000000815260040161345890614434565b60405180910390fd5b5b505050565b6000613473838361337d565b6134cc5782600001829080600181540180825580915050600190039060005260206000200160009091909190915055826000018054905083600101600084815260200190815260200160002081905550600190506134d1565b600090505b92915050565b600081600001805490509050919050565b6000826000018281548110613500576134ff614962565b5b9060005260206000200154905092915050565b6000808360010160008481526020019081526020016000205490506000811461361b5760006001826135459190614718565b905060006001866000018054905061355d9190614718565b90508181146135cc57600086600001828154811061357e5761357d614962565b5b90600052602060002001549050808760000184815481106135a2576135a1614962565b5b90600052602060002001819055508387600101600083815260200190815260200160002081905550505b856000018054806135e0576135df614933565b5b600190038181906000526020600020016000905590558560010160008681526020019081526020016000206000905560019350505050613621565b60009150505b92915050565b6060613636848460008561363f565b90509392505050565b606082471015613684576040517f08c379a000000000000000000000000000000000000000000000000000000000815260040161367b906142d4565b60405180910390fd5b61368d85613753565b6136cc576040517f08c379a00000000000000000000000000000000000000000000000000000000081526004016136c390614414565b60405180910390fd5b6000808673ffffffffffffffffffffffffffffffffffffffff1685876040516136f59190614049565b60006040518083038185875af1925050503d8060008114613732576040519150601f19603f3d011682016040523d82523d6000602084013e613737565b606091505b5091509150613747828286613776565b92505050949350505050565b6000808273ffffffffffffffffffffffffffffffffffffffff163b119050919050565b60608315613786578290506137d6565b6000835111156137995782518084602001fd5b816040517f08c379a00000000000000000000000000000000000000000000000000000000081526004016137cd9190614172565b60405180910390fd5b9392505050565b6000813590506137ec8161511d565b92915050565b60008151905061380181615134565b92915050565b60008083601f84011261381d5761381c6149c5565b5b8235905067ffffffffffffffff81111561383a576138396149c0565b5b602083019150836001820283011115613856576138556149ca565b5b9250929050565b60008135905061386c8161514b565b92915050565b60008135905061388181615162565b92915050565b60008135905061389681615179565b92915050565b6000602082840312156138b2576138b16149d4565b5b60006138c0848285016137dd565b91505092915050565b600080600080606085870312156138e3576138e26149d4565b5b60006138f1878288016137dd565b945050602061390287828801613872565b935050604085013567ffffffffffffffff811115613923576139226149cf565b5b61392f87828801613807565b925092505092959194509250565b600060208284031215613953576139526149d4565b5b6000613961848285016137f2565b91505092915050565b6000602082840312156139805761397f6149d4565b5b600061398e84828501613872565b91505092915050565b600080604083850312156139ae576139ad6149d4565b5b60006139bc85828601613872565b92505060206139cd858286016137dd565b9150509250929050565b6000806000606084860312156139f0576139ef6149d4565b5b60006139fe86828701613872565b9350506020613a0f868287016137dd565b9250506040613a20868287016137dd565b9150509250925092565b600080600080600080600060e0888a031215613a4957613a486149d4565b5b6000613a578a828b01613872565b9750506020613a688a828b01613887565b9650506040613a798a828b0161385d565b9550506060613a8a8a828b01613887565b9450506080613a9b8a828b016137dd565b93505060a0613aac8a828b01613872565b92505060c0613abd8a828b01613872565b91505092959891949750929550565b60008060008060008060c08789031215613ae957613ae86149d4565b5b6000613af789828a01613887565b9650506020613b0889828a0161385d565b9550506040613b1989828a01613887565b9450506060613b2a89828a016137dd565b9350506080613b3b89828a01613872565b92505060a0613b4c89828a01613872565b9150509295509295509295565b6000613b658383613b71565b60208301905092915050565b613b7a8161474c565b82525050565b613b898161474c565b82525050565b6000613b9a826145cb565b613ba481856145f9565b9350613baf836145bb565b8060005b83811015613be0578151613bc78882613b59565b9750613bd2836145ec565b925050600181019050613bb3565b5085935050505092915050565b613bf68161475e565b82525050565b6000613c08838561460a565b9350613c1583858461481b565b613c1e836149d9565b840190509392505050565b6000613c34826145d6565b613c3e818561461b565b9350613c4e81856020860161482a565b80840191505092915050565b613c63816147d3565b82525050565b613c72816147e5565b82525050565b6000613c83826145e1565b613c8d8185614626565b9350613c9d81856020860161482a565b613ca6816149d9565b840191505092915050565b6000613cbe603383614626565b9150613cc9826149ea565b604082019050919050565b6000613ce1604d83614626565b9150613cec82614a39565b606082019050919050565b6000613d04602383614626565b9150613d0f82614aae565b604082019050919050565b6000613d27602183614626565b9150613d3282614afd565b604082019050919050565b6000613d4a602683614626565b9150613d5582614b4c565b604082019050919050565b6000613d6d600e83614626565b9150613d7882614b9b565b602082019050919050565b6000613d90603e83614626565b9150613d9b82614bc4565b604082019050919050565b6000613db3601d83614626565b9150613dbe82614c13565b602082019050919050565b6000613dd6603383614626565b9150613de182614c3c565b604082019050919050565b6000613df9603c83614626565b9150613e0482614c8b565b604082019050919050565b6000613e1c602683614626565b9150613e2782614cda565b604082019050919050565b6000613e3f601083614626565b9150613e4a82614d29565b602082019050919050565b6000613e62603683614626565b9150613e6d82614d52565b604082019050919050565b6000613e85601183614626565b9150613e9082614da1565b602082019050919050565b6000613ea8603783614626565b9150613eb382614dca565b604082019050919050565b6000613ecb603483614626565b9150613ed682614e19565b604082019050919050565b6000613eee602083614626565b9150613ef982614e68565b602082019050919050565b6000613f11602283614626565b9150613f1c82614e91565b604082019050919050565b6000613f34602583614626565b9150613f3f82614ee0565b604082019050919050565b6000613f57603083614626565b9150613f6282614f2f565b604082019050919050565b6000613f7a601d83614626565b9150613f8582614f7e565b602082019050919050565b6000613f9d602a83614626565b9150613fa882614fa7565b604082019050919050565b6000613fc0603283614626565b9150613fcb82614ff6565b604082019050919050565b6000613fe3601f83614626565b9150613fee82615045565b602082019050919050565b6000614006606583614626565b91506140118261506e565b608082019050919050565b6140258161477d565b82525050565b614034816147b9565b82525050565b614043816147c3565b82525050565b60006140558284613c29565b915081905092915050565b60006020820190506140756000830184613b80565b92915050565b60006060820190506140906000830186613b80565b61409d6020830185613b80565b6140aa604083018461402b565b949350505050565b60006040820190506140c76000830185613b80565b6140d4602083018461402b565b9392505050565b600060208201905081810360008301526140f58184613b8f565b905092915050565b60006020820190506141126000830184613bed565b92915050565b60006020820190508181036000830152614133818486613bfc565b90509392505050565b60006020820190506141516000830184613c5a565b92915050565b600060208201905061416c6000830184613c69565b92915050565b6000602082019050818103600083015261418c8184613c78565b905092915050565b600060208201905081810360008301526141ad81613cb1565b9050919050565b600060208201905081810360008301526141cd81613cd4565b9050919050565b600060208201905081810360008301526141ed81613cf7565b9050919050565b6000602082019050818103600083015261420d81613d1a565b9050919050565b6000602082019050818103600083015261422d81613d3d565b9050919050565b6000602082019050818103600083015261424d81613d60565b9050919050565b6000602082019050818103600083015261426d81613d83565b9050919050565b6000602082019050818103600083015261428d81613da6565b9050919050565b600060208201905081810360008301526142ad81613dc9565b9050919050565b600060208201905081810360008301526142cd81613dec565b9050919050565b600060208201905081810360008301526142ed81613e0f565b9050919050565b6000602082019050818103600083015261430d81613e32565b9050919050565b6000602082019050818103600083015261432d81613e55565b9050919050565b6000602082019050818103600083015261434d81613e78565b9050919050565b6000602082019050818103600083015261436d81613e9b565b9050919050565b6000602082019050818103600083015261438d81613ebe565b9050919050565b600060208201905081810360008301526143ad81613ee1565b9050919050565b600060208201905081810360008301526143cd81613f04565b9050919050565b600060208201905081810360008301526143ed81613f27565b9050919050565b6000602082019050818103600083015261440d81613f4a565b9050919050565b6000602082019050818103600083015261442d81613f6d565b9050919050565b6000602082019050818103600083015261444d81613f90565b9050919050565b6000602082019050818103600083015261446d81613fb3565b9050919050565b6000602082019050818103600083015261448d81613fd6565b9050919050565b600060208201905081810360008301526144ad81613ff9565b9050919050565b60006020820190506144c9600083018461402b565b92915050565b60006040820190506144e4600083018561402b565b6144f16020830184613bed565b9392505050565b600060808201905061450d600083018761402b565b61451a602083018661402b565b614527604083018561402b565b614534606083018461402b565b95945050505050565b600061010082019050614553600083018b61403a565b614560602083018a61401c565b61456d604083018961403a565b61457a6060830188613b80565b614587608083018761402b565b61459460a083018661402b565b6145a160c083018561402b565b6145ae60e083018461402b565b9998505050505050505050565b6000819050602082019050919050565b600081519050919050565b600081519050919050565b600081519050919050565b6000602082019050919050565b600082825260208201905092915050565b600082825260208201905092915050565b600081905092915050565b600082825260208201905092915050565b6000614642826147b9565b915061464d836147b9565b9250827fffffffffffffffffffffffffffffffffffffffffffffffffffffffffffffffff03821115614682576146816148a6565b5b828201905092915050565b6000614698826147b9565b91506146a3836147b9565b9250826146b3576146b26148d5565b5b828204905092915050565b60006146c9826147b9565b91506146d4836147b9565b9250817fffffffffffffffffffffffffffffffffffffffffffffffffffffffffffffffff048311821515161561470d5761470c6148a6565b5b828202905092915050565b6000614723826147b9565b915061472e836147b9565b925082821015614741576147406148a6565b5b828203905092915050565b600061475782614799565b9050919050565b60008115159050919050565b600081905061477882615109565b919050565b60006fffffffffffffffffffffffffffffffff82169050919050565b600073ffffffffffffffffffffffffffffffffffffffff82169050919050565b6000819050919050565b600063ffffffff82169050919050565b60006147de826147f7565b9050919050565b60006147f08261476a565b9050919050565b600061480282614809565b9050919050565b600061481482614799565b9050919050565b82818337600083830152505050565b60005b8381101561484857808201518184015260208101905061482d565b83811115614857576000848401525b50505050565b6000614868826147b9565b91507fffffffffffffffffffffffffffffffffffffffffffffffffffffffffffffffff82141561489b5761489a6148a6565b5b600182019050919050565b7f4e487b7100000000000000000000000000000000000000000000000000000000600052601160045260246000fd5b7f4e487b7100000000000000000000000000000000000000000000000000000000600052601260045260246000fd5b7f4e487b7100000000000000000000000000000000000000000000000000000000600052602160045260246000fd5b7f4e487b7100000000000000000000000000000000000000000000000000000000600052603160045260246000fd5b7f4e487b7100000000000000000000000000000000000000000000000000000000600052603260045260246000fd5b7f4e487b7100000000000000000000000000000000000000000000000000000000600052604160045260246000fd5b600080fd5b600080fd5b600080fd5b600080fd5b600080fd5b6000601f19601f8301169050919050565b7f5374616b65206d7573742062652067726561746572207468616e206f7220657160008201527f75616c20746f206d696e696d756d5374616b6500000000000000000000000000602082015250565b7f596f75206d75737420626520612076616c696461746f7220696e20746865206e60008201527f6578742065706f636820746f206b69636b20736f6d656f6e652066726f6d207460208201527f6865206e6578742065706f636800000000000000000000000000000000000000604082015250565b7f4d75737420626520696e20616374697665206f7220756e6c6f636b656420737460008201527f6174650000000000000000000000000000000000000000000000000000000000602082015250565b7f4d75737420626520696e204e65787456616c696461746f725365744c6f636b6560008201527f6400000000000000000000000000000000000000000000000000000000000000602082015250565b7f4f776e61626c653a206e6577206f776e657220697320746865207a65726f206160008201527f6464726573730000000000000000000000000000000000000000000000000000602082015250565b7f43616e6e6f74207374616b652030000000000000000000000000000000000000600082015250565b7f596f752063616e6e6f742072656a6f696e20696620796f75206861766520626560008201527f656e206b69636b656420756e74696c20746865206e6578742065706f63680000602082015250565b7f4e6f7420656e6f75676820746f6b656e7320746f207769746864726177000000600082015250565b7f456e6f75676820626c6f636b732068617665206e6f7420656c6170736564207360008201527f696e636520746865206c6173742065706f636800000000000000000000000000602082015250565b7f4d75737420626520696e207374617465204e65787456616c696461746f72536560008201527f744c6f636b6564206f72205265616479466f724e65787445706f636800000000602082015250565b7f416464726573733a20696e73756666696369656e742062616c616e636520666f60008201527f722063616c6c0000000000000000000000000000000000000000000000000000602082015250565b7f5061757361626c653a2070617573656400000000000000000000000000000000600082015250565b7f4d75737420626520696e20416374697665206f7220556e6c6f636b656420737460008201527f61746520746f207265717565737420746f206a6f696e00000000000000000000602082015250565b7f43616e6e6f742077697468647261772030000000000000000000000000000000600082015250565b7f4d75737420626520696e20416374697665206f7220556e6c6f636b656420737460008201527f61746520746f207265717565737420746f206c65617665000000000000000000602082015250565b7f436f756c64206e6f74206d617020796f7572206e6f646541646472657373207460008201527f6f20796f7572207374616b657241646472657373000000000000000000000000602082015250565b7f4f776e61626c653a2063616c6c6572206973206e6f7420746865206f776e6572600082015250565b7f56616c696461746f72206973206e6f7420696e20746865206e6578742065706f60008201527f6368000000000000000000000000000000000000000000000000000000000000602082015250565b7f4d75737420626520696e20726561647920666f72206e6578742065706f63682060008201527f7374617465000000000000000000000000000000000000000000000000000000602082015250565b7f596f752063616e206f6e6c7920766f746520746f206b69636b20736f6d656f6e60008201527f65206f6e6365207065722065706f636800000000000000000000000000000000602082015250565b7f416464726573733a2063616c6c20746f206e6f6e2d636f6e7472616374000000600082015250565b7f5361666545524332303a204552433230206f7065726174696f6e20646964206e60008201527f6f74207375636365656400000000000000000000000000000000000000000000602082015250565b7f4e6f7420656e6f7567682076616c696461746f7273206172652072656164792060008201527f666f7220746865206e6578742065706f63680000000000000000000000000000602082015250565b7f5265656e7472616e637947756172643a207265656e7472616e742063616c6c00600082015250565b7f4163746976652076616c696461746f72732063616e6e6f74206c656176652e2060008201527f20506c656173652075736520746865206c6561766528292066756e6374696f6e60208201527f20616e64207761697420666f7220746865206e6578742065706f636820746f2060408201527f6c65617665000000000000000000000000000000000000000000000000000000606082015250565b6004811061511a57615119614904565b5b50565b6151268161474c565b811461513157600080fd5b50565b61513d8161475e565b811461514857600080fd5b50565b6151548161477d565b811461515f57600080fd5b50565b61516b816147b9565b811461517657600080fd5b50565b615182816147c3565b811461518d57600080fd5b5056fea2646970667358221220eae90f6c239e73dae48d3d2af039563addb2bafd1fc7a8423c7cf0d4c2ab4d7b64736f6c63430008070033","abi":[{"inputs":[{"internalType":"address","name":"_stakingToken","type":"address"}],"stateMutability":"nonpayable","type":"constructor"},{"anonymous":false,"inputs":[{"indexed":true,"internalType":"address","name":"previousOwner","type":"address"},{"indexed":true,"internalType":"address","name":"newOwner","type":"address"}],"name":"OwnershipTransferred","type":"event"},{"anonymous":false,"inputs":[{"indexed":false,"internalType":"address","name":"account","type":"address"}],"name":"Paused","type":"event"},{"anonymous":false,"inputs":[{"indexed":true,"internalType":"address","name":"staker","type":"address"}],"name":"ReadyForNextEpoch","type":"event"},{"anonymous":false,"inputs":[{"indexed":false,"internalType":"address","name":"token","type":"address"},{"indexed":false,"internalType":"uint256","name":"amount","type":"uint256"}],"name":"Recovered","type":"event"},{"anonymous":false,"inputs":[{"indexed":true,"internalType":"address","name":"staker","type":"address"}],"name":"RequestToJoin","type":"event"},{"anonymous":false,"inputs":[{"indexed":true,"internalType":"address","name":"staker","type":"address"}],"name":"RequestToLeave","type":"event"},{"anonymous":false,"inputs":[{"indexed":false,"internalType":"address","name":"resolverContractAddress","type":"address"}],"name":"ResolverContractAddressChanged","type":"event"},{"anonymous":false,"inputs":[{"indexed":true,"internalType":"address","name":"staker","type":"address"},{"indexed":false,"internalType":"uint256","name":"reward","type":"uint256"}],"name":"RewardPaid","type":"event"},{"anonymous":false,"inputs":[{"indexed":false,"internalType":"uint256","name":"newDuration","type":"uint256"}],"name":"RewardsDurationUpdated","type":"event"},{"anonymous":false,"inputs":[{"indexed":true,"internalType":"address","name":"staker","type":"address"},{"indexed":false,"internalType":"uint256","name":"amount","type":"uint256"}],"name":"Staked","type":"event"},{"anonymous":false,"inputs":[{"indexed":false,"internalType":"enum Staking.States","name":"newState","type":"uint8"}],"name":"StateChanged","type":"event"},{"anonymous":false,"inputs":[{"indexed":false,"internalType":"address","name":"account","type":"address"}],"name":"Unpaused","type":"event"},{"anonymous":false,"inputs":[{"indexed":true,"internalType":"address","name":"staker","type":"address"}],"name":"ValidatorKickedFromNextEpoch","type":"event"},{"anonymous":false,"inputs":[{"indexed":true,"internalType":"address","name":"reporter","type":"address"},{"indexed":true,"internalType":"address","name":"validatorStakerAddress","type":"address"},{"indexed":true,"internalType":"uint256","name":"reason","type":"uint256"},{"indexed":false,"internalType":"bytes","name":"data","type":"bytes"}],"name":"VotedToKickValidatorInNextEpoch","type":"event"},{"anonymous":false,"inputs":[{"indexed":true,"internalType":"address","name":"staker","type":"address"},{"indexed":false,"internalType":"uint256","name":"amount","type":"uint256"}],"name":"Withdrawn","type":"event"},{"inputs":[],"name":"advanceEpoch","outputs":[],"stateMutability":"nonpayable","type":"function"},{"inputs":[{"internalType":"address","name":"account","type":"address"}],"name":"balanceOf","outputs":[{"internalType":"uint256","name":"","type":"uint256"}],"stateMutability":"view","type":"function"},{"inputs":[],"name":"epoch","outputs":[{"internalType":"uint256","name":"epochLength","type":"uint256"},{"internalType":"uint256","name":"number","type":"uint256"},{"internalType":"uint256","name":"endBlock","type":"uint256"},{"internalType":"uint256","name":"retries","type":"uint256"}],"stateMutability":"view","type":"function"},{"inputs":[],"name":"exit","outputs":[],"stateMutability":"nonpayable","type":"function"},{"inputs":[],"name":"getReward","outputs":[],"stateMutability":"nonpayable","type":"function"},{"inputs":[],"name":"getValidatorsInCurrentEpoch","outputs":[{"internalType":"address[]","name":"","type":"address[]"}],"stateMutability":"view","type":"function"},{"inputs":[],"name":"getValidatorsInNextEpoch","outputs":[{"internalType":"address[]","name":"","type":"address[]"}],"stateMutability":"view","type":"function"},{"inputs":[{"internalType":"uint256","name":"epochNumber","type":"uint256"},{"internalType":"address","name":"validatorStakerAddress","type":"address"},{"internalType":"address","name":"voterStakerAddress","type":"address"}],"name":"getVotingStatusToKickValidator","outputs":[{"internalType":"uint256","name":"","type":"uint256"},{"internalType":"bool","name":"","type":"bool"}],"stateMutability":"view","type":"function"},{"inputs":[{"internalType":"address","name":"account","type":"address"}],"name":"isActiveValidator","outputs":[{"internalType":"bool","name":"","type":"bool"}],"stateMutability":"view","type":"function"},{"inputs":[],"name":"isReadyForNextEpoch","outputs":[{"internalType":"bool","name":"","type":"bool"}],"stateMutability":"view","type":"function"},{"inputs":[],"name":"kickPenaltyPercent","outputs":[{"internalType":"uint256","name":"","type":"uint256"}],"stateMutability":"view","type":"function"},{"inputs":[{"internalType":"address","name":"validatorStakerAddress","type":"address"},{"internalType":"uint256","name":"reason","type":"uint256"},{"internalType":"bytes","name":"data","type":"bytes"}],"name":"kickValidatorInNextEpoch","outputs":[],"stateMutability":"nonpayable","type":"function"},{"inputs":[],"name":"lockValidatorsForNextEpoch","outputs":[],"stateMutability":"nonpayable","type":"function"},{"inputs":[],"name":"minimumStake","outputs":[{"internalType":"uint256","name":"","type":"uint256"}],"stateMutability":"view","type":"function"},{"inputs":[{"internalType":"address","name":"","type":"address"}],"name":"nodeAddressToStakerAddress","outputs":[{"internalType":"address","name":"","type":"address"}],"stateMutability":"view","type":"function"},{"inputs":[],"name":"owner","outputs":[{"internalType":"address","name":"","type":"address"}],"stateMutability":"view","type":"function"},{"inputs":[],"name":"paused","outputs":[{"internalType":"bool","name":"","type":"bool"}],"stateMutability":"view","type":"function"},{"inputs":[{"internalType":"address","name":"","type":"address"}],"name":"readyForNextEpoch","outputs":[{"internalType":"bool","name":"","type":"bool"}],"stateMutability":"view","type":"function"},{"inputs":[],"name":"renounceOwnership","outputs":[],"stateMutability":"nonpayable","type":"function"},{"inputs":[{"internalType":"uint32","name":"ip","type":"uint32"},{"internalType":"uint128","name":"ipv6","type":"uint128"},{"internalType":"uint32","name":"port","type":"uint32"},{"internalType":"address","name":"nodeAddress","type":"address"},{"internalType":"uint256","name":"senderPubKey","type":"uint256"},{"internalType":"uint256","name":"receiverPubKey","type":"uint256"}],"name":"requestToJoin","outputs":[],"stateMutability":"nonpayable","type":"function"},{"inputs":[],"name":"requestToLeave","outputs":[],"stateMutability":"nonpayable","type":"function"},{"inputs":[],"name":"resolverContractAddress","outputs":[{"internalType":"address","name":"","type":"address"}],"stateMutability":"view","type":"function"},{"inputs":[{"internalType":"address","name":"account","type":"address"}],"name":"rewardOf","outputs":[{"internalType":"uint256","name":"","type":"uint256"}],"stateMutability":"view","type":"function"},{"inputs":[{"internalType":"uint256","name":"newEpochLength","type":"uint256"}],"name":"setEpochLength","outputs":[],"stateMutability":"nonpayable","type":"function"},{"inputs":[{"internalType":"uint32","name":"ip","type":"uint32"},{"internalType":"uint128","name":"ipv6","type":"uint128"},{"internalType":"uint32","name":"port","type":"uint32"},{"internalType":"address","name":"nodeAddress","type":"address"},{"internalType":"uint256","name":"senderPubKey","type":"uint256"},{"internalType":"uint256","name":"receiverPubKey","type":"uint256"}],"name":"setIpPortNodeAddressAndCommunicationPubKeys","outputs":[],"stateMutability":"nonpayable","type":"function"},{"inputs":[{"internalType":"uint256","name":"newKickPenaltyPercent","type":"uint256"}],"name":"setKickPenaltyPercent","outputs":[],"stateMutability":"nonpayable","type":"function"},{"inputs":[{"internalType":"uint256","name":"newMinimumStake","type":"uint256"}],"name":"setMinimumStake","outputs":[],"stateMutability":"nonpayable","type":"function"},{"inputs":[{"internalType":"address","name":"newResolverContractAddress","type":"address"}],"name":"setResolverContractAddress","outputs":[],"stateMutability":"nonpayable","type":"function"},{"inputs":[{"internalType":"address","name":"newStakingTokenAddress","type":"address"}],"name":"setStakingToken","outputs":[],"stateMutability":"nonpayable","type":"function"},{"inputs":[{"internalType":"uint256","name":"newTokenRewardPerTokenPerEpoch","type":"uint256"}],"name":"setTokenRewardPerTokenPerEpoch","outputs":[],"stateMutability":"nonpayable","type":"function"},{"inputs":[{"internalType":"address","name":"stakerAddress","type":"address"}],"name":"shouldKickValidator","outputs":[{"internalType":"bool","name":"","type":"bool"}],"stateMutability":"view","type":"function"},{"inputs":[],"name":"signalReadyForNextEpoch","outputs":[],"stateMutability":"nonpayable","type":"function"},{"inputs":[{"internalType":"uint256","name":"amount","type":"uint256"}],"name":"stake","outputs":[],"stateMutability":"nonpayable","type":"function"},{"inputs":[{"internalType":"uint256","name":"amount","type":"uint256"},{"internalType":"uint32","name":"ip","type":"uint32"},{"internalType":"uint128","name":"ipv6","type":"uint128"},{"internalType":"uint32","name":"port","type":"uint32"},{"internalType":"address","name":"nodeAddress","type":"address"},{"internalType":"uint256","name":"senderPubKey","type":"uint256"},{"internalType":"uint256","name":"receiverPubKey","type":"uint256"}],"name":"stakeAndJoin","outputs":[],"stateMutability":"nonpayable","type":"function"},{"inputs":[],"name":"stakingToken","outputs":[{"internalType":"contract LITToken","name":"","type":"address"}],"stateMutability":"view","type":"function"},{"inputs":[],"name":"state","outputs":[{"internalType":"enum Staking.States","name":"","type":"uint8"}],"stateMutability":"view","type":"function"},{"inputs":[],"name":"tokenRewardPerTokenPerEpoch","outputs":[{"internalType":"uint256","name":"","type":"uint256"}],"stateMutability":"view","type":"function"},{"inputs":[],"name":"totalStaked","outputs":[{"internalType":"uint256","name":"","type":"uint256"}],"stateMutability":"view","type":"function"},{"inputs":[{"internalType":"address","name":"newOwner","type":"address"}],"name":"transferOwnership","outputs":[],"stateMutability":"nonpayable","type":"function"},{"inputs":[],"name":"unlockValidatorsForNextEpoch","outputs":[],"stateMutability":"nonpayable","type":"function"},{"inputs":[],"name":"validatorCountForConsensus","outputs":[{"internalType":"uint256","name":"","type":"uint256"}],"stateMutability":"view","type":"function"},{"inputs":[],"name":"validatorStateIsActive","outputs":[{"internalType":"bool","name":"","type":"bool"}],"stateMutability":"view","type":"function"},{"inputs":[],"name":"validatorStateIsUnlocked","outputs":[{"internalType":"bool","name":"","type":"bool"}],"stateMutability":"view","type":"function"},{"inputs":[{"internalType":"address","name":"","type":"address"}],"name":"validators","outputs":[{"internalType":"uint32","name":"ip","type":"uint32"},{"internalType":"uint128","name":"ipv6","type":"uint128"},{"internalType":"uint32","name":"port","type":"uint32"},{"internalType":"address","name":"nodeAddress","type":"address"},{"internalType":"uint256","name":"balance","type":"uint256"},{"internalType":"uint256","name":"reward","type":"uint256"},{"internalType":"uint256","name":"senderPubKey","type":"uint256"},{"internalType":"uint256","name":"receiverPubKey","type":"uint256"}],"stateMutability":"view","type":"function"},{"inputs":[],"name":"validatorsInNextEpochAreLocked","outputs":[{"internalType":"bool","name":"","type":"bool"}],"stateMutability":"view","type":"function"},{"inputs":[{"internalType":"uint256","name":"","type":"uint256"},{"internalType":"address","name":"","type":"address"}],"name":"votesToKickValidatorsInNextEpoch","outputs":[{"internalType":"uint256","name":"votes","type":"uint256"}],"stateMutability":"view","type":"function"},{"inputs":[{"internalType":"uint256","name":"amount","type":"uint256"}],"name":"withdraw","outputs":[],"stateMutability":"nonpayable","type":"function"}]}