{"address":"0x99BC58d8aed0be1bB0A3E2a8a7cFd1398Cbf6512","bytecode":"0x60806040526000600160156101000a81548160ff021916908360038111156200002d576200002c6200038e565b5b02179055503480156200003f57600080fd5b5060405162005cf838038062005cf8833981810160405281019062000065919062000427565b60016000819055506000600160006101000a81548160ff021916908315150217905550620000a86200009c620002c360201b60201c565b620002cb60201b60201c565b80600260006101000a81548173ffffffffffffffffffffffffffffffffffffffff021916908373ffffffffffffffffffffffffffffffffffffffff1602179055506040518060800160405280605081526020016001815260200160014362000111919062000492565b815260200160008152506003600082015181600001556020820151816001015560408201518160020155606082015181600301559050506014600260009054906101000a900473ffffffffffffffffffffffffffffffffffffffff1673ffffffffffffffffffffffffffffffffffffffff1663313ce5676040518163ffffffff1660e01b8152600401602060405180830381865afa158015620001b8573d6000803e3d6000fd5b505050506040513d601f19601f82011682018060405250810190620001de91906200050b565b600a620001ec919062000691565b620001f8919062000711565b600781905550600260009054906101000a900473ffffffffffffffffffffffffffffffffffffffff1673ffffffffffffffffffffffffffffffffffffffff1663313ce5676040518163ffffffff1660e01b8152600401602060405180830381865afa1580156200026c573d6000803e3d6000fd5b505050506040513d601f19601f820116820180604052508101906200029291906200050b565b600a620002a0919062000691565b6001620002ae919062000749565b6008819055506005600a819055505062000794565b600033905090565b600060018054906101000a900473ffffffffffffffffffffffffffffffffffffffff169050816001806101000a81548173ffffffffffffffffffffffffffffffffffffffff021916908373ffffffffffffffffffffffffffffffffffffffff1602179055508173ffffffffffffffffffffffffffffffffffffffff168173ffffffffffffffffffffffffffffffffffffffff167f8be0079c531659141344cd1fd0a4f28419497f9722a3daafe3b4186f6b6457e060405160405180910390a35050565b7f4e487b7100000000000000000000000000000000000000000000000000000000600052602160045260246000fd5b600080fd5b600073ffffffffffffffffffffffffffffffffffffffff82169050919050565b6000620003ef82620003c2565b9050919050565b6200040181620003e2565b81146200040d57600080fd5b50565b6000815190506200042181620003f6565b92915050565b60006020828403121562000440576200043f620003bd565b5b6000620004508482850162000410565b91505092915050565b6000819050919050565b7f4e487b7100000000000000000000000000000000000000000000000000000000600052601160045260246000fd5b60006200049f8262000459565b9150620004ac8362000459565b9250828201905080821115620004c757620004c662000463565b5b92915050565b600060ff82169050919050565b620004e581620004cd565b8114620004f157600080fd5b50565b6000815190506200050581620004da565b92915050565b600060208284031215620005245762000523620003bd565b5b60006200053484828501620004f4565b91505092915050565b60008160011c9050919050565b6000808291508390505b60018511156200059c5780860481111562000574576200057362000463565b5b6001851615620005845780820291505b808102905062000594856200053d565b945062000554565b94509492505050565b600082620005b757600190506200068a565b81620005c757600090506200068a565b8160018114620005e05760028114620005eb5762000621565b60019150506200068a565b60ff8411156200060057620005ff62000463565b5b8360020a9150848211156200061a576200061962000463565b5b506200068a565b5060208310610133831016604e8410600b84101617156200065b5782820a90508381111562000655576200065462000463565b5b6200068a565b6200066a84848460016200054a565b9250905081840481111562000684576200068362000463565b5b81810290505b9392505050565b60006200069e8262000459565b9150620006ab83620004cd565b9250620006da7fffffffffffffffffffffffffffffffffffffffffffffffffffffffffffffffff8484620005a5565b905092915050565b7f4e487b7100000000000000000000000000000000000000000000000000000000600052601260045260246000fd5b60006200071e8262000459565b91506200072b8362000459565b9250826200073e576200073d620006e2565b5b828204905092915050565b6000620007568262000459565b9150620007638362000459565b9250828202620007738162000459565b915082820484148315176200078d576200078c62000463565b5b5092915050565b61555480620007a46000396000f3fe608060405234801561001057600080fd5b50600436106102955760003560e01c8063857b766311610167578063bee36e9c116100ce578063e9fad8ee11610087578063e9fad8ee14610758578063ec5ffac214610762578063f1887fec14610780578063f2fde38b1461079e578063f48d2a27146107ba578063fa52c7d8146107d857610295565b8063bee36e9c146106ce578063c006e00b146106d8578063c19d93fb146106e2578063c35d4d0914610700578063dd21d6261461071e578063e587b8a71461073c57610295565b8063a4c569b911610120578063a4c569b914610632578063a694fc3a14610650578063ac2f8afe1461066c578063b6688e0014610676578063b9ce663814610694578063ba3bd22e146106b257610295565b8063857b76631461057f578063865419e91461059d5780638d2b9c81146105b95780638da5cb5b146105d7578063900cf0cf146105f5578063988ac2791461061657610295565b80634927a1431161020b57806370a08231116101c457806370a08231146104a857806370fe276a146104d8578063715018a61461050957806372f702f314610513578063817b1cd214610531578063847e06251461054f57610295565b80634927a143146103c25780634f8f0102146103f25780635081f66f1461040e578063519877eb1461043e57806354eea7961461046e5780635c975abb1461048a57610295565b80632e1a7d4d1161025d5780632e1a7d4d1461032a5780633528db88146103465780633cf80e6c146103625780633d18b9121461036c57806340550a1c14610376578063455b0de6146103a657610295565b8063063d82391461029a57806316930f4d146102b85780631d62ebd9146102c25780631e9b12ef146102f2578063233e99031461030e575b600080fd5b6102a261080f565b6040516102af91906139ca565b60405180910390f35b6102c0610815565b005b6102dc60048036038101906102d79190613a4d565b610982565b6040516102e991906139ca565b60405180910390f35b61030c60048036038101906103079190613a4d565b6109ce565b005b61032860048036038101906103239190613aa6565b610a51565b005b610344600480360381019061033f9190613aa6565b610a9a565b005b610360600480360381019061035b9190613b57565b610d57565b005b61036a61126e565b005b6103746116b7565b005b610390600480360381019061038b9190613a4d565b611843565b60405161039d9190613bff565b60405180910390f35b6103c060048036038101906103bb9190613aa6565b611860565b005b6103dc60048036038101906103d79190613c1a565b6118a9565b6040516103e991906139ca565b60405180910390f35b61040c60048036038101906104079190613b57565b6118d4565b005b61042860048036038101906104239190613a4d565b611b26565b6040516104359190613c69565b60405180910390f35b61045860048036038101906104539190613a4d565b611b59565b6040516104659190613bff565b60405180910390f35b61048860048036038101906104839190613aa6565b611b79565b005b610492611bc5565b60405161049f9190613bff565b60405180910390f35b6104c260048036038101906104bd9190613a4d565b611bdc565b6040516104cf91906139ca565b60405180910390f35b6104f260048036038101906104ed9190613c84565b611c28565b604051610500929190613cd7565b60405180910390f35b610511611ce0565b005b61051b611cf4565b6040516105289190613d5f565b60405180910390f35b610539611d1a565b60405161054691906139ca565b60405180910390f35b61056960048036038101906105649190613a4d565b611d20565b6040516105769190613bff565b60405180910390f35b610587611da1565b6040516105949190613e38565b60405180910390f35b6105b760048036038101906105b29190613ebf565b611e8f565b005b6105c1612476565b6040516105ce9190613bff565b60405180910390f35b6105df6124b4565b6040516105ec9190613c69565b60405180910390f35b6105fd6124dc565b60405161060d9493929190613f33565b60405180910390f35b610630600480360381019061062b9190613a4d565b6124fa565b005b61063a61257d565b6040516106479190613bff565b60405180910390f35b61066a60048036038101906106659190613aa6565b6125ba565b005b610674612764565b005b61067e6128e0565b60405161068b9190613c69565b60405180910390f35b61069c612906565b6040516106a991906139ca565b60405180910390f35b6106cc60048036038101906106c79190613f78565b61290c565b005b6106d6612934565b005b6106e0612bca565b005b6106ea612dd8565b6040516106f79190614091565b60405180910390f35b610708612deb565b6040516107159190613e38565b60405180910390f35b610726612ed9565b60405161073391906139ca565b60405180910390f35b61075660048036038101906107519190613aa6565b612f1d565b005b610760612f66565b005b61076a612fbb565b60405161077791906139ca565b60405180910390f35b610788612fc1565b6040516107959190613bff565b60405180910390f35b6107b860048036038101906107b39190613a4d565b61308c565b005b6107c261310f565b6040516107cf9190613bff565b60405180910390f35b6107f260048036038101906107ed9190613a4d565b61314c565b6040516108069897969594939291906140ca565b60405180910390f35b60075481565b60036002015443101561085d576040517f08c379a0000000000000000000000000000000000000000000000000000000008152600401610854906141cb565b60405180910390fd5b600060038111156108715761087061401a565b5b600160159054906101000a900460ff1660038111156108935761089261401a565b5b14806108d157506003808111156108ad576108ac61401a565b5b600160159054906101000a900460ff1660038111156108cf576108ce61401a565b5b145b610910576040517f08c379a00000000000000000000000000000000000000000000000000000000081526004016109079061425d565b60405180910390fd5b60018060156101000a81548160ff021916908360038111156109355761093461401a565b5b02179055507f551dc40198cc79684bb69e4931dba4ac16e4598792ee1c0a5000aeea366d7bb6600160159054906101000a900460ff166040516109789190614091565b60405180910390a1565b6000601160008373ffffffffffffffffffffffffffffffffffffffff1673ffffffffffffffffffffffffffffffffffffffff168152602001908152602001600020600301549050919050565b6109d66131f0565b80600260006101000a81548173ffffffffffffffffffffffffffffffffffffffff021916908373ffffffffffffffffffffffffffffffffffffffff1602179055507f9904a32444ae0eb0bae2045baf588aa248f03f4fef600c18afd1d7e751614af881604051610a469190613c69565b60405180910390a150565b610a596131f0565b806008819055507fe933824a81d0b6aa53640e0e8df82b08c3f5297409b86d5beb73c41253518b2981604051610a8f91906139ca565b60405180910390a150565b600260005403610adf576040517f08c379a0000000000000000000000000000000000000000000000000000000008152600401610ad6906142c9565b60405180910390fd5b600260008190555060008111610b2a576040517f08c379a0000000000000000000000000000000000000000000000000000000008152600401610b2190614335565b60405180910390fd5b60001515610b4233600b61326e90919063ffffffff16565b151514610b84576040517f08c379a0000000000000000000000000000000000000000000000000000000008152600401610b7b90614413565b60405180910390fd5b80601160003373ffffffffffffffffffffffffffffffffffffffff1673ffffffffffffffffffffffffffffffffffffffff168152602001908152602001600020600201541015610c09576040517f08c379a0000000000000000000000000000000000000000000000000000000008152600401610c009061447f565b60405180910390fd5b80600954610c1791906144ce565b60098190555080601160003373ffffffffffffffffffffffffffffffffffffffff1673ffffffffffffffffffffffffffffffffffffffff16815260200190815260200160002060020154610c6b91906144ce565b601160003373ffffffffffffffffffffffffffffffffffffffff1673ffffffffffffffffffffffffffffffffffffffff16815260200190815260200160002060020181905550610cfe3382600260009054906101000a900473ffffffffffffffffffffffffffffffffffffffff1673ffffffffffffffffffffffffffffffffffffffff1661329e9092919063ffffffff16565b3373ffffffffffffffffffffffffffffffffffffffff167f7084f5476618d8e60b11ef0d7d3f06914655adb8793e28ff7f018d4c76d505d582604051610d4491906139ca565b60405180910390a2600160008190555050565b600260005403610d9c576040517f08c379a0000000000000000000000000000000000000000000000000000000008152600401610d93906142c9565b60405180910390fd5b60026000819055506000601160003373ffffffffffffffffffffffffffffffffffffffff1673ffffffffffffffffffffffffffffffffffffffff168152602001908152602001600020600201549050600854811015610e30576040517f08c379a0000000000000000000000000000000000000000000000000000000008152600401610e2790614574565b60405180910390fd5b60006003811115610e4457610e4361401a565b5b600160159054906101000a900460ff166003811115610e6657610e6561401a565b5b1480610ea45750600380811115610e8057610e7f61401a565b5b600160159054906101000a900460ff166003811115610ea257610ea161401a565b5b145b610ee3576040517f08c379a0000000000000000000000000000000000000000000000000000000008152600401610eda90614606565b60405180910390fd5b60001515610efb33600f61326e90919063ffffffff16565b151514610f3d576040517f08c379a0000000000000000000000000000000000000000000000000000000008152600401610f3490614698565b60405180910390fd5b86601160003373ffffffffffffffffffffffffffffffffffffffff1673ffffffffffffffffffffffffffffffffffffffff16815260200190815260200160002060000160006101000a81548163ffffffff021916908363ffffffff16021790555085601160003373ffffffffffffffffffffffffffffffffffffffff1673ffffffffffffffffffffffffffffffffffffffff16815260200190815260200160002060000160046101000a8154816fffffffffffffffffffffffffffffffff02191690836fffffffffffffffffffffffffffffffff16021790555084601160003373ffffffffffffffffffffffffffffffffffffffff1673ffffffffffffffffffffffffffffffffffffffff16815260200190815260200160002060000160146101000a81548163ffffffff021916908363ffffffff16021790555083601160003373ffffffffffffffffffffffffffffffffffffffff1673ffffffffffffffffffffffffffffffffffffffff16815260200190815260200160002060010160006101000a81548173ffffffffffffffffffffffffffffffffffffffff021916908373ffffffffffffffffffffffffffffffffffffffff16021790555082601160003373ffffffffffffffffffffffffffffffffffffffff1673ffffffffffffffffffffffffffffffffffffffff1681526020019081526020016000206004018190555081601160003373ffffffffffffffffffffffffffffffffffffffff1673ffffffffffffffffffffffffffffffffffffffff1681526020019081526020016000206005018190555033601260008673ffffffffffffffffffffffffffffffffffffffff1673ffffffffffffffffffffffffffffffffffffffff16815260200190815260200160002060006101000a81548173ffffffffffffffffffffffffffffffffffffffff021916908373ffffffffffffffffffffffffffffffffffffffff16021790555061121933600d61332490919063ffffffff16565b503373ffffffffffffffffffffffffffffffffffffffff167f1dc186bd4daaf3fc4b9f8c689228a0be60dd2952dc502829514ae0d6955c0f5160405160405180910390a2506001600081905550505050505050565b6003600201544310156112b6576040517f08c379a00000000000000000000000000000000000000000000000000000000081526004016112ad906141cb565b60405180910390fd5b600260038111156112ca576112c961401a565b5b600160159054906101000a900460ff1660038111156112ec576112eb61401a565b5b1461132c576040517f08c379a00000000000000000000000000000000000000000000000000000000081526004016113239061472a565b60405180910390fd5b60011515611338612fc1565b15151461137a576040517f08c379a0000000000000000000000000000000000000000000000000000000008152600401611371906147bc565b60405180910390fd5b6000611386600b613354565b905060005b8181101561150e5760006113a982600b61336990919063ffffffff16565b9050600260009054906101000a900473ffffffffffffffffffffffffffffffffffffffff1673ffffffffffffffffffffffffffffffffffffffff1663313ce5676040518163ffffffff1660e01b8152600401602060405180830381865afa158015611418573d6000803e3d6000fd5b505050506040513d601f19601f8201168201806040525081019061143c9190614815565b600a6114489190614975565b601160008373ffffffffffffffffffffffffffffffffffffffff1673ffffffffffffffffffffffffffffffffffffffff1681526020019081526020016000206002015460075461149891906149c0565b6114a29190614a31565b601160008373ffffffffffffffffffffffffffffffffffffffff1673ffffffffffffffffffffffffffffffffffffffff16815260200190815260200160002060030160008282546114f39190614a62565b9250508190555050808061150690614a96565b91505061138b565b505b600061151c600b613354565b11156115505761154a61153a6000600b61336990919063ffffffff16565b600b61338390919063ffffffff16565b50611510565b61155a600d613354565b905060005b8181101561160d5761158e61157e82600d61336990919063ffffffff16565b600b61332490919063ffffffff16565b506000601360006115a984600d61336990919063ffffffff16565b73ffffffffffffffffffffffffffffffffffffffff1673ffffffffffffffffffffffffffffffffffffffff16815260200190815260200160002060006101000a81548160ff021916908315150217905550808061160590614a96565b91505061155f565b506003600101600081548092919061162490614a96565b91905055506003600001544361163a9190614a62565b6003600201819055506000600160156101000a81548160ff021916908360038111156116695761166861401a565b5b02179055507f551dc40198cc79684bb69e4931dba4ac16e4598792ee1c0a5000aeea366d7bb6600160159054906101000a900460ff166040516116ac9190614091565b60405180910390a150565b6002600054036116fc576040517f08c379a00000000000000000000000000000000000000000000000000000000081526004016116f3906142c9565b60405180910390fd5b60026000819055506000601160003373ffffffffffffffffffffffffffffffffffffffff1673ffffffffffffffffffffffffffffffffffffffff1681526020019081526020016000206003015490506000811115611838576000601160003373ffffffffffffffffffffffffffffffffffffffff1673ffffffffffffffffffffffffffffffffffffffff168152602001908152602001600020600301819055506117e93382600260009054906101000a900473ffffffffffffffffffffffffffffffffffffffff1673ffffffffffffffffffffffffffffffffffffffff1661329e9092919063ffffffff16565b3373ffffffffffffffffffffffffffffffffffffffff167fe2403640ba68fed3a2f88b7557551d1993f84b99bb10ff833f0cf8db0c5e04868260405161182f91906139ca565b60405180910390a25b506001600081905550565b600061185982600b61326e90919063ffffffff16565b9050919050565b6118686131f0565b806007819055507fc33a6daf06e5c2185564f32ef90cabd653cb01a6945c9d3c18a7481d20d3a0ed8160405161189e91906139ca565b60405180910390a150565b6014602052816000526040600020602052806000526040600020600091509150508060000154905081565b85601160003373ffffffffffffffffffffffffffffffffffffffff1673ffffffffffffffffffffffffffffffffffffffff16815260200190815260200160002060000160006101000a81548163ffffffff021916908363ffffffff16021790555084601160003373ffffffffffffffffffffffffffffffffffffffff1673ffffffffffffffffffffffffffffffffffffffff16815260200190815260200160002060000160046101000a8154816fffffffffffffffffffffffffffffffff02191690836fffffffffffffffffffffffffffffffff16021790555083601160003373ffffffffffffffffffffffffffffffffffffffff1673ffffffffffffffffffffffffffffffffffffffff16815260200190815260200160002060000160146101000a81548163ffffffff021916908363ffffffff16021790555082601160003373ffffffffffffffffffffffffffffffffffffffff1673ffffffffffffffffffffffffffffffffffffffff16815260200190815260200160002060010160006101000a81548173ffffffffffffffffffffffffffffffffffffffff021916908373ffffffffffffffffffffffffffffffffffffffff16021790555081601160003373ffffffffffffffffffffffffffffffffffffffff1673ffffffffffffffffffffffffffffffffffffffff1681526020019081526020016000206004018190555080601160003373ffffffffffffffffffffffffffffffffffffffff1673ffffffffffffffffffffffffffffffffffffffff16815260200190815260200160002060050181905550505050505050565b60126020528060005260406000206000915054906101000a900473ffffffffffffffffffffffffffffffffffffffff1681565b60136020528060005260406000206000915054906101000a900460ff1681565b611b816131f0565b806003600001819055507f5f15d41eab42cb3f8a5c9e8cd44043648cb85a815522c5f4ae5a32597a8447a081604051611bba91906139ca565b60405180910390a150565b6000600160009054906101000a900460ff16905090565b6000601160008373ffffffffffffffffffffffffffffffffffffffff1673ffffffffffffffffffffffffffffffffffffffff168152602001908152602001600020600201549050919050565b60008060006014600087815260200190815260200160002060008673ffffffffffffffffffffffffffffffffffffffff1673ffffffffffffffffffffffffffffffffffffffff168152602001908152602001600020905080600001548160010160008673ffffffffffffffffffffffffffffffffffffffff1673ffffffffffffffffffffffffffffffffffffffff16815260200190815260200160002060009054906101000a900460ff169250925050935093915050565b611ce86131f0565b611cf260006133b3565b565b600260009054906101000a900473ffffffffffffffffffffffffffffffffffffffff1681565b60095481565b60008060146000600360010154815260200190815260200160002060008473ffffffffffffffffffffffffffffffffffffffff1673ffffffffffffffffffffffffffffffffffffffff1681526020019081526020016000209050611d82612ed9565b816000015410611d96576001915050611d9c565b60009150505b919050565b60606000611daf600b613354565b67ffffffffffffffff811115611dc857611dc7614ade565b5b604051908082528060200260200182016040528015611df65781602001602082028036833780820191505090505b5090506000611e05600b613354565b905060005b81811015611e8657611e2681600b61336990919063ffffffff16565b838281518110611e3957611e38614b0d565b5b602002602001019073ffffffffffffffffffffffffffffffffffffffff16908173ffffffffffffffffffffffffffffffffffffffff16815250508080611e7e90614a96565b915050611e0a565b50819250505090565b600260005403611ed4576040517f08c379a0000000000000000000000000000000000000000000000000000000008152600401611ecb906142c9565b60405180910390fd5b60026000819055506000601260003373ffffffffffffffffffffffffffffffffffffffff1673ffffffffffffffffffffffffffffffffffffffff16815260200190815260200160002060009054906101000a900473ffffffffffffffffffffffffffffffffffffffff169050600073ffffffffffffffffffffffffffffffffffffffff168173ffffffffffffffffffffffffffffffffffffffff1603611faf576040517f08c379a0000000000000000000000000000000000000000000000000000000008152600401611fa690614bae565b60405180910390fd5b611fc381600d61326e90919063ffffffff16565b612002576040517f08c379a0000000000000000000000000000000000000000000000000000000008152600401611ff990614c66565b60405180910390fd5b6000151560146000600360010154815260200190815260200160002060008773ffffffffffffffffffffffffffffffffffffffff1673ffffffffffffffffffffffffffffffffffffffff16815260200190815260200160002060010160008373ffffffffffffffffffffffffffffffffffffffff1673ffffffffffffffffffffffffffffffffffffffff16815260200190815260200160002060009054906101000a900460ff161515146120eb576040517f08c379a00000000000000000000000000000000000000000000000000000000081526004016120e290614cf8565b60405180910390fd5b60146000600360010154815260200190815260200160002060008673ffffffffffffffffffffffffffffffffffffffff1673ffffffffffffffffffffffffffffffffffffffff168152602001908152602001600020600001600081548092919061215490614a96565b9190505550600160146000600360010154815260200190815260200160002060008773ffffffffffffffffffffffffffffffffffffffff1673ffffffffffffffffffffffffffffffffffffffff16815260200190815260200160002060010160008373ffffffffffffffffffffffffffffffffffffffff1673ffffffffffffffffffffffffffffffffffffffff16815260200190815260200160002060006101000a81548160ff02191690831515021790555061221b85600d61326e90919063ffffffff16565b801561222c575061222b85611d20565b5b156123ff5761224585600d61338390919063ffffffff16565b5061225a85600f61332490919063ffffffff16565b5060006064600a54601160008973ffffffffffffffffffffffffffffffffffffffff1673ffffffffffffffffffffffffffffffffffffffff168152602001908152602001600020600201546122af91906149c0565b6122b99190614a31565b905080601160008873ffffffffffffffffffffffffffffffffffffffff1673ffffffffffffffffffffffffffffffffffffffff168152602001908152602001600020600201600082825461230d91906144ce565b92505081905550806009600082825461232691906144ce565b92505081905550600260009054906101000a900473ffffffffffffffffffffffffffffffffffffffff1673ffffffffffffffffffffffffffffffffffffffff166342966c68826040518263ffffffff1660e01b815260040161238891906139ca565b600060405180830381600087803b1580156123a257600080fd5b505af11580156123b6573d6000803e3d6000fd5b505050508573ffffffffffffffffffffffffffffffffffffffff167f1d3a884562d8ed1a6c97e8a20281097f8b901fad9029dbdf72920f1e74008abb60405160405180910390a2505b838573ffffffffffffffffffffffffffffffffffffffff168273ffffffffffffffffffffffffffffffffffffffff167febdee48ed32f3feff81eed274b9e084b367ac42fe1cb710dcbd43f1d537d99fa868660405161245f929190614d76565b60405180910390a450600160008190555050505050565b60006001600381111561248c5761248b61401a565b5b600160159054906101000a900460ff1660038111156124ae576124ad61401a565b5b14905090565b600060018054906101000a900473ffffffffffffffffffffffffffffffffffffffff16905090565b60038060000154908060010154908060020154908060030154905084565b6125026131f0565b80601560006101000a81548173ffffffffffffffffffffffffffffffffffffffff021916908373ffffffffffffffffffffffffffffffffffffffff1602179055507f2b5fe80d5061b20e017f0cde52b331309601bfcab0cb14cfcf6a4096410a6075816040516125729190613c69565b60405180910390a150565b60008060038111156125925761259161401a565b5b600160159054906101000a900460ff1660038111156125b4576125b361401a565b5b14905090565b6002600054036125ff576040517f08c379a00000000000000000000000000000000000000000000000000000000081526004016125f6906142c9565b60405180910390fd5b60026000819055506000811161264a576040517f08c379a000000000000000000000000000000000000000000000000000000000815260040161264190614de6565b60405180910390fd5b612699333083600260009054906101000a900473ffffffffffffffffffffffffffffffffffffffff1673ffffffffffffffffffffffffffffffffffffffff16613476909392919063ffffffff16565b80601160003373ffffffffffffffffffffffffffffffffffffffff1673ffffffffffffffffffffffffffffffffffffffff16815260200190815260200160002060020160008282546126eb9190614a62565b9250508190555080600960008282546127049190614a62565b925050819055503373ffffffffffffffffffffffffffffffffffffffff167f9e71bc8eea02a63969f509818f2dafb9254532904319f9dbda79b67bd34a5f3d8260405161275191906139ca565b60405180910390a2600160008190555050565b6002600054036127a9576040517f08c379a00000000000000000000000000000000000000000000000000000000081526004016127a0906142c9565b60405180910390fd5b6002600081905550600060038111156127c5576127c461401a565b5b600160159054906101000a900460ff1660038111156127e7576127e661401a565b5b148061282557506003808111156128015761280061401a565b5b600160159054906101000a900460ff1660038111156128235761282261401a565b5b145b612864576040517f08c379a000000000000000000000000000000000000000000000000000000000815260040161285b90614e78565b60405180910390fd5b61287833600d61326e90919063ffffffff16565b156128935761289133600d61338390919063ffffffff16565b505b3373ffffffffffffffffffffffffffffffffffffffff167fff61c8020d05b8c2e31cdbb3d3f8cbcbdc57fcafa00229d9858b7cfd3b039c8a60405160405180910390a26001600081905550565b601560009054906101000a900473ffffffffffffffffffffffffffffffffffffffff1681565b600a5481565b6129146134ff565b61291d876125ba565b61292b868686868686610d57565b50505050505050565b6000601260003373ffffffffffffffffffffffffffffffffffffffff1673ffffffffffffffffffffffffffffffffffffffff16815260200190815260200160002060009054906101000a900473ffffffffffffffffffffffffffffffffffffffff169050600160038111156129ac576129ab61401a565b5b600160159054906101000a900460ff1660038111156129ce576129cd61401a565b5b1480612a0d5750600260038111156129e9576129e861401a565b5b600160159054906101000a900460ff166003811115612a0b57612a0a61401a565b5b145b612a4c576040517f08c379a0000000000000000000000000000000000000000000000000000000008152600401612a4390614f0a565b60405180910390fd5b600160036001015414612aad57612a6d81600d61326e90919063ffffffff16565b612aac576040517f08c379a0000000000000000000000000000000000000000000000000000000008152600401612aa390614f9c565b60405180910390fd5b5b6001601360008373ffffffffffffffffffffffffffffffffffffffff1673ffffffffffffffffffffffffffffffffffffffff16815260200190815260200160002060006101000a81548160ff0219169083151502179055508073ffffffffffffffffffffffffffffffffffffffff167f9784a0102afe6a5b031e774420da20a7d1e8207dde8e1ede9c6cefe5680ba05e60405160405180910390a2612b50612fc1565b15612bc7576002600160156101000a81548160ff02191690836003811115612b7b57612b7a61401a565b5b02179055507f551dc40198cc79684bb69e4931dba4ac16e4598792ee1c0a5000aeea366d7bb6600160159054906101000a900460ff16604051612bbe9190614091565b60405180910390a15b50565b600360000154600360020154612be09190614a62565b431015612c22576040517f08c379a0000000000000000000000000000000000000000000000000000000008152600401612c19906141cb565b60405180910390fd5b60016003811115612c3657612c3561401a565b5b600160159054906101000a900460ff166003811115612c5857612c5761401a565b5b14612c98576040517f08c379a0000000000000000000000000000000000000000000000000000000008152600401612c8f9061502e565b60405180910390fd5b6000612ca4600d613354565b905060005b81811015612d2f57600060136000612ccb84600d61336990919063ffffffff16565b73ffffffffffffffffffffffffffffffffffffffff1673ffffffffffffffffffffffffffffffffffffffff16815260200190815260200160002060006101000a81548160ff0219169083151502179055508080612d2790614a96565b915050612ca9565b50600380016000815480929190612d4590614a96565b919050555060036000015443612d5b9190614a62565b6003600201819055506003600160156101000a81548160ff02191690836003811115612d8a57612d8961401a565b5b02179055507f551dc40198cc79684bb69e4931dba4ac16e4598792ee1c0a5000aeea366d7bb6600160159054906101000a900460ff16604051612dcd9190614091565b60405180910390a150565b600160159054906101000a900460ff1681565b60606000612df9600d613354565b67ffffffffffffffff811115612e1257612e11614ade565b5b604051908082528060200260200182016040528015612e405781602001602082028036833780820191505090505b5090506000612e4f600d613354565b905060005b81811015612ed057612e7081600d61336990919063ffffffff16565b838281518110612e8357612e82614b0d565b5b602002602001019073ffffffffffffffffffffffffffffffffffffffff16908173ffffffffffffffffffffffffffffffffffffffff16815250508080612ec890614a96565b915050612e54565b50819250505090565b60006002612ee7600b613354565b11612ef55760019050612f1a565b60036002612f03600b613354565b612f0d91906149c0565b612f179190614a31565b90505b90565b612f256131f0565b80600a819055507fc0ff1deb4b889cc8d47d930be1a37c0e7442ab9850450d2dce635435c005e6a581604051612f5b91906139ca565b60405180910390a150565b612fb1601160003373ffffffffffffffffffffffffffffffffffffffff1673ffffffffffffffffffffffffffffffffffffffff16815260200190815260200160002060020154610a9a565b612fb96116b7565b565b60085481565b600080600090506000612fd4600d613354565b905060005b818110156130685760136000612ff983600d61336990919063ffffffff16565b73ffffffffffffffffffffffffffffffffffffffff1673ffffffffffffffffffffffffffffffffffffffff16815260200190815260200160002060009054906101000a900460ff161561305557828061305190614a96565b9350505b808061306090614a96565b915050612fd9565b50613071612ed9565b821061308257600192505050613089565b6000925050505b90565b6130946131f0565b600073ffffffffffffffffffffffffffffffffffffffff168173ffffffffffffffffffffffffffffffffffffffff1603613103576040517f08c379a00000000000000000000000000000000000000000000000000000000081526004016130fa906150c0565b60405180910390fd5b61310c816133b3565b50565b60006003808111156131245761312361401a565b5b600160159054906101000a900460ff1660038111156131465761314561401a565b5b14905090565b60116020528060005260406000206000915090508060000160009054906101000a900463ffffffff16908060000160049054906101000a90046fffffffffffffffffffffffffffffffff16908060000160149054906101000a900463ffffffff16908060010160009054906101000a900473ffffffffffffffffffffffffffffffffffffffff16908060020154908060030154908060040154908060050154905088565b6131f8613549565b73ffffffffffffffffffffffffffffffffffffffff166132166124b4565b73ffffffffffffffffffffffffffffffffffffffff161461326c576040517f08c379a00000000000000000000000000000000000000000000000000000000081526004016132639061512c565b60405180910390fd5b565b6000613296836000018373ffffffffffffffffffffffffffffffffffffffff1660001b613551565b905092915050565b61331f8363a9059cbb60e01b84846040516024016132bd92919061514c565b604051602081830303815290604052907bffffffffffffffffffffffffffffffffffffffffffffffffffffffff19166020820180517bffffffffffffffffffffffffffffffffffffffffffffffffffffffff8381831617835250505050613574565b505050565b600061334c836000018373ffffffffffffffffffffffffffffffffffffffff1660001b61363b565b905092915050565b6000613362826000016136ab565b9050919050565b600061337883600001836136bc565b60001c905092915050565b60006133ab836000018373ffffffffffffffffffffffffffffffffffffffff1660001b6136e7565b905092915050565b600060018054906101000a900473ffffffffffffffffffffffffffffffffffffffff169050816001806101000a81548173ffffffffffffffffffffffffffffffffffffffff021916908373ffffffffffffffffffffffffffffffffffffffff1602179055508173ffffffffffffffffffffffffffffffffffffffff168173ffffffffffffffffffffffffffffffffffffffff167f8be0079c531659141344cd1fd0a4f28419497f9722a3daafe3b4186f6b6457e060405160405180910390a35050565b6134f9846323b872dd60e01b85858560405160240161349793929190615175565b604051602081830303815290604052907bffffffffffffffffffffffffffffffffffffffffffffffffffffffff19166020820180517bffffffffffffffffffffffffffffffffffffffffffffffffffffffff8381831617835250505050613574565b50505050565b613507611bc5565b15613547576040517f08c379a000000000000000000000000000000000000000000000000000000000815260040161353e906151f8565b60405180910390fd5b565b600033905090565b600080836001016000848152602001908152602001600020541415905092915050565b60006135d6826040518060400160405280602081526020017f5361666545524332303a206c6f772d6c6576656c2063616c6c206661696c65648152508573ffffffffffffffffffffffffffffffffffffffff166137fb9092919063ffffffff16565b905060008151111561363657808060200190518101906135f69190615244565b613635576040517f08c379a000000000000000000000000000000000000000000000000000000000815260040161362c906152e3565b60405180910390fd5b5b505050565b60006136478383613551565b6136a05782600001829080600181540180825580915050600190039060005260206000200160009091909190915055826000018054905083600101600084815260200190815260200160002081905550600190506136a5565b600090505b92915050565b600081600001805490509050919050565b60008260000182815481106136d4576136d3614b0d565b5b9060005260206000200154905092915050565b600080836001016000848152602001908152602001600020549050600081146137ef57600060018261371991906144ce565b905060006001866000018054905061373191906144ce565b90508181146137a057600086600001828154811061375257613751614b0d565b5b906000526020600020015490508087600001848154811061377657613775614b0d565b5b90600052602060002001819055508387600101600083815260200190815260200160002081905550505b856000018054806137b4576137b3615303565b5b6001900381819060005260206000200160009055905585600101600086815260200190815260200160002060009055600193505050506137f5565b60009150505b92915050565b606061380a8484600085613813565b90509392505050565b606082471015613858576040517f08c379a000000000000000000000000000000000000000000000000000000000815260040161384f906153a4565b60405180910390fd5b61386185613927565b6138a0576040517f08c379a000000000000000000000000000000000000000000000000000000000815260040161389790615410565b60405180910390fd5b6000808673ffffffffffffffffffffffffffffffffffffffff1685876040516138c991906154a1565b60006040518083038185875af1925050503d8060008114613906576040519150601f19603f3d011682016040523d82523d6000602084013e61390b565b606091505b509150915061391b82828661394a565b92505050949350505050565b6000808273ffffffffffffffffffffffffffffffffffffffff163b119050919050565b6060831561395a578290506139aa565b60008351111561396d5782518084602001fd5b816040517f08c379a00000000000000000000000000000000000000000000000000000000081526004016139a191906154fc565b60405180910390fd5b9392505050565b6000819050919050565b6139c4816139b1565b82525050565b60006020820190506139df60008301846139bb565b92915050565b600080fd5b600080fd5b600073ffffffffffffffffffffffffffffffffffffffff82169050919050565b6000613a1a826139ef565b9050919050565b613a2a81613a0f565b8114613a3557600080fd5b50565b600081359050613a4781613a21565b92915050565b600060208284031215613a6357613a626139e5565b5b6000613a7184828501613a38565b91505092915050565b613a83816139b1565b8114613a8e57600080fd5b50565b600081359050613aa081613a7a565b92915050565b600060208284031215613abc57613abb6139e5565b5b6000613aca84828501613a91565b91505092915050565b600063ffffffff82169050919050565b613aec81613ad3565b8114613af757600080fd5b50565b600081359050613b0981613ae3565b92915050565b60006fffffffffffffffffffffffffffffffff82169050919050565b613b3481613b0f565b8114613b3f57600080fd5b50565b600081359050613b5181613b2b565b92915050565b60008060008060008060c08789031215613b7457613b736139e5565b5b6000613b8289828a01613afa565b9650506020613b9389828a01613b42565b9550506040613ba489828a01613afa565b9450506060613bb589828a01613a38565b9350506080613bc689828a01613a91565b92505060a0613bd789828a01613a91565b9150509295509295509295565b60008115159050919050565b613bf981613be4565b82525050565b6000602082019050613c146000830184613bf0565b92915050565b60008060408385031215613c3157613c306139e5565b5b6000613c3f85828601613a91565b9250506020613c5085828601613a38565b9150509250929050565b613c6381613a0f565b82525050565b6000602082019050613c7e6000830184613c5a565b92915050565b600080600060608486031215613c9d57613c9c6139e5565b5b6000613cab86828701613a91565b9350506020613cbc86828701613a38565b9250506040613ccd86828701613a38565b9150509250925092565b6000604082019050613cec60008301856139bb565b613cf96020830184613bf0565b9392505050565b6000819050919050565b6000613d25613d20613d1b846139ef565b613d00565b6139ef565b9050919050565b6000613d3782613d0a565b9050919050565b6000613d4982613d2c565b9050919050565b613d5981613d3e565b82525050565b6000602082019050613d746000830184613d50565b92915050565b600081519050919050565b600082825260208201905092915050565b6000819050602082019050919050565b613daf81613a0f565b82525050565b6000613dc18383613da6565b60208301905092915050565b6000602082019050919050565b6000613de582613d7a565b613def8185613d85565b9350613dfa83613d96565b8060005b83811015613e2b578151613e128882613db5565b9750613e1d83613dcd565b925050600181019050613dfe565b5085935050505092915050565b60006020820190508181036000830152613e528184613dda565b905092915050565b600080fd5b600080fd5b600080fd5b60008083601f840112613e7f57613e7e613e5a565b5b8235905067ffffffffffffffff811115613e9c57613e9b613e5f565b5b602083019150836001820283011115613eb857613eb7613e64565b5b9250929050565b60008060008060608587031215613ed957613ed86139e5565b5b6000613ee787828801613a38565b9450506020613ef887828801613a91565b935050604085013567ffffffffffffffff811115613f1957613f186139ea565b5b613f2587828801613e69565b925092505092959194509250565b6000608082019050613f4860008301876139bb565b613f5560208301866139bb565b613f6260408301856139bb565b613f6f60608301846139bb565b95945050505050565b600080600080600080600060e0888a031215613f9757613f966139e5565b5b6000613fa58a828b01613a91565b9750506020613fb68a828b01613afa565b9650506040613fc78a828b01613b42565b9550506060613fd88a828b01613afa565b9450506080613fe98a828b01613a38565b93505060a0613ffa8a828b01613a91565b92505060c061400b8a828b01613a91565b91505092959891949750929550565b7f4e487b7100000000000000000000000000000000000000000000000000000000600052602160045260246000fd5b6004811061405a5761405961401a565b5b50565b600081905061406b82614049565b919050565b600061407b8261405d565b9050919050565b61408b81614070565b82525050565b60006020820190506140a66000830184614082565b92915050565b6140b581613ad3565b82525050565b6140c481613b0f565b82525050565b6000610100820190506140e0600083018b6140ac565b6140ed602083018a6140bb565b6140fa60408301896140ac565b6141076060830188613c5a565b61411460808301876139bb565b61412160a08301866139bb565b61412e60c08301856139bb565b61413b60e08301846139bb565b9998505050505050505050565b600082825260208201905092915050565b7f456e6f75676820626c6f636b732068617665206e6f7420656c6170736564207360008201527f696e636520746865206c6173742065706f636800000000000000000000000000602082015250565b60006141b5603383614148565b91506141c082614159565b604082019050919050565b600060208201905081810360008301526141e4816141a8565b9050919050565b7f4d75737420626520696e20616374697665206f7220756e6c6f636b656420737460008201527f6174650000000000000000000000000000000000000000000000000000000000602082015250565b6000614247602383614148565b9150614252826141eb565b604082019050919050565b600060208201905081810360008301526142768161423a565b9050919050565b7f5265656e7472616e637947756172643a207265656e7472616e742063616c6c00600082015250565b60006142b3601f83614148565b91506142be8261427d565b602082019050919050565b600060208201905081810360008301526142e2816142a6565b9050919050565b7f43616e6e6f742077697468647261772030000000000000000000000000000000600082015250565b600061431f601183614148565b915061432a826142e9565b602082019050919050565b6000602082019050818103600083015261434e81614312565b9050919050565b7f4163746976652076616c696461746f72732063616e6e6f74206c656176652e2060008201527f20506c656173652075736520746865206c6561766528292066756e6374696f6e60208201527f20616e64207761697420666f7220746865206e6578742065706f636820746f2060408201527f6c65617665000000000000000000000000000000000000000000000000000000606082015250565b60006143fd606583614148565b915061440882614355565b608082019050919050565b6000602082019050818103600083015261442c816143f0565b9050919050565b7f4e6f7420656e6f75676820746f6b656e7320746f207769746864726177000000600082015250565b6000614469601d83614148565b915061447482614433565b602082019050919050565b600060208201905081810360008301526144988161445c565b9050919050565b7f4e487b7100000000000000000000000000000000000000000000000000000000600052601160045260246000fd5b60006144d9826139b1565b91506144e4836139b1565b92508282039050818111156144fc576144fb61449f565b5b92915050565b7f5374616b65206d7573742062652067726561746572207468616e206f7220657160008201527f75616c20746f206d696e696d756d5374616b6500000000000000000000000000602082015250565b600061455e603383614148565b915061456982614502565b604082019050919050565b6000602082019050818103600083015261458d81614551565b9050919050565b7f4d75737420626520696e20416374697665206f7220556e6c6f636b656420737460008201527f61746520746f207265717565737420746f206a6f696e00000000000000000000602082015250565b60006145f0603683614148565b91506145fb82614594565b604082019050919050565b6000602082019050818103600083015261461f816145e3565b9050919050565b7f596f752063616e6e6f742072656a6f696e20696620796f75206861766520626560008201527f656e206b69636b656420756e74696c20746865206e6578742065706f63680000602082015250565b6000614682603e83614148565b915061468d82614626565b604082019050919050565b600060208201905081810360008301526146b181614675565b9050919050565b7f4d75737420626520696e20726561647920666f72206e6578742065706f63682060008201527f7374617465000000000000000000000000000000000000000000000000000000602082015250565b6000614714602583614148565b915061471f826146b8565b604082019050919050565b6000602082019050818103600083015261474381614707565b9050919050565b7f4e6f7420656e6f7567682076616c696461746f7273206172652072656164792060008201527f666f7220746865206e6578742065706f63680000000000000000000000000000602082015250565b60006147a6603283614148565b91506147b18261474a565b604082019050919050565b600060208201905081810360008301526147d581614799565b9050919050565b600060ff82169050919050565b6147f2816147dc565b81146147fd57600080fd5b50565b60008151905061480f816147e9565b92915050565b60006020828403121561482b5761482a6139e5565b5b600061483984828501614800565b91505092915050565b60008160011c9050919050565b6000808291508390505b6001851115614899578086048111156148755761487461449f565b5b60018516156148845780820291505b808102905061489285614842565b9450614859565b94509492505050565b6000826148b2576001905061496e565b816148c0576000905061496e565b81600181146148d657600281146148e05761490f565b600191505061496e565b60ff8411156148f2576148f161449f565b5b8360020a9150848211156149095761490861449f565b5b5061496e565b5060208310610133831016604e8410600b84101617156149445782820a90508381111561493f5761493e61449f565b5b61496e565b614951848484600161484f565b925090508184048111156149685761496761449f565b5b81810290505b9392505050565b6000614980826139b1565b915061498b836147dc565b92506149b87fffffffffffffffffffffffffffffffffffffffffffffffffffffffffffffffff84846148a2565b905092915050565b60006149cb826139b1565b91506149d6836139b1565b92508282026149e4816139b1565b915082820484148315176149fb576149fa61449f565b5b5092915050565b7f4e487b7100000000000000000000000000000000000000000000000000000000600052601260045260246000fd5b6000614a3c826139b1565b9150614a47836139b1565b925082614a5757614a56614a02565b5b828204905092915050565b6000614a6d826139b1565b9150614a78836139b1565b9250828201905080821115614a9057614a8f61449f565b5b92915050565b6000614aa1826139b1565b91507fffffffffffffffffffffffffffffffffffffffffffffffffffffffffffffffff8203614ad357614ad261449f565b5b600182019050919050565b7f4e487b7100000000000000000000000000000000000000000000000000000000600052604160045260246000fd5b7f4e487b7100000000000000000000000000000000000000000000000000000000600052603260045260246000fd5b7f436f756c64206e6f74206d617020796f7572206e6f646541646472657373207460008201527f6f20796f7572207374616b657241646472657373000000000000000000000000602082015250565b6000614b98603483614148565b9150614ba382614b3c565b604082019050919050565b60006020820190508181036000830152614bc781614b8b565b9050919050565b7f596f75206d75737420626520612076616c696461746f7220696e20746865206e60008201527f6578742065706f636820746f206b69636b20736f6d656f6e652066726f6d207460208201527f6865206e6578742065706f636800000000000000000000000000000000000000604082015250565b6000614c50604d83614148565b9150614c5b82614bce565b606082019050919050565b60006020820190508181036000830152614c7f81614c43565b9050919050565b7f596f752063616e206f6e6c7920766f746520746f206b69636b20736f6d656f6e60008201527f65206f6e6365207065722065706f636800000000000000000000000000000000602082015250565b6000614ce2603083614148565b9150614ced82614c86565b604082019050919050565b60006020820190508181036000830152614d1181614cd5565b9050919050565b600082825260208201905092915050565b82818337600083830152505050565b6000601f19601f8301169050919050565b6000614d558385614d18565b9350614d62838584614d29565b614d6b83614d38565b840190509392505050565b60006020820190508181036000830152614d91818486614d49565b90509392505050565b7f43616e6e6f74207374616b652030000000000000000000000000000000000000600082015250565b6000614dd0600e83614148565b9150614ddb82614d9a565b602082019050919050565b60006020820190508181036000830152614dff81614dc3565b9050919050565b7f4d75737420626520696e20416374697665206f7220556e6c6f636b656420737460008201527f61746520746f207265717565737420746f206c65617665000000000000000000602082015250565b6000614e62603783614148565b9150614e6d82614e06565b604082019050919050565b60006020820190508181036000830152614e9181614e55565b9050919050565b7f4d75737420626520696e207374617465204e65787456616c696461746f72536560008201527f744c6f636b6564206f72205265616479466f724e65787445706f636800000000602082015250565b6000614ef4603c83614148565b9150614eff82614e98565b604082019050919050565b60006020820190508181036000830152614f2381614ee7565b9050919050565b7f56616c696461746f72206973206e6f7420696e20746865206e6578742065706f60008201527f6368000000000000000000000000000000000000000000000000000000000000602082015250565b6000614f86602283614148565b9150614f9182614f2a565b604082019050919050565b60006020820190508181036000830152614fb581614f79565b9050919050565b7f4d75737420626520696e204e65787456616c696461746f725365744c6f636b6560008201527f6400000000000000000000000000000000000000000000000000000000000000602082015250565b6000615018602183614148565b915061502382614fbc565b604082019050919050565b600060208201905081810360008301526150478161500b565b9050919050565b7f4f776e61626c653a206e6577206f776e657220697320746865207a65726f206160008201527f6464726573730000000000000000000000000000000000000000000000000000602082015250565b60006150aa602683614148565b91506150b58261504e565b604082019050919050565b600060208201905081810360008301526150d98161509d565b9050919050565b7f4f776e61626c653a2063616c6c6572206973206e6f7420746865206f776e6572600082015250565b6000615116602083614148565b9150615121826150e0565b602082019050919050565b6000602082019050818103600083015261514581615109565b9050919050565b60006040820190506151616000830185613c5a565b61516e60208301846139bb565b9392505050565b600060608201905061518a6000830186613c5a565b6151976020830185613c5a565b6151a460408301846139bb565b949350505050565b7f5061757361626c653a2070617573656400000000000000000000000000000000600082015250565b60006151e2601083614148565b91506151ed826151ac565b602082019050919050565b60006020820190508181036000830152615211816151d5565b9050919050565b61522181613be4565b811461522c57600080fd5b50565b60008151905061523e81615218565b92915050565b60006020828403121561525a576152596139e5565b5b60006152688482850161522f565b91505092915050565b7f5361666545524332303a204552433230206f7065726174696f6e20646964206e60008201527f6f74207375636365656400000000000000000000000000000000000000000000602082015250565b60006152cd602a83614148565b91506152d882615271565b604082019050919050565b600060208201905081810360008301526152fc816152c0565b9050919050565b7f4e487b7100000000000000000000000000000000000000000000000000000000600052603160045260246000fd5b7f416464726573733a20696e73756666696369656e742062616c616e636520666f60008201527f722063616c6c0000000000000000000000000000000000000000000000000000602082015250565b600061538e602683614148565b915061539982615332565b604082019050919050565b600060208201905081810360008301526153bd81615381565b9050919050565b7f416464726573733a2063616c6c20746f206e6f6e2d636f6e7472616374000000600082015250565b60006153fa601d83614148565b9150615405826153c4565b602082019050919050565b60006020820190508181036000830152615429816153ed565b9050919050565b600081519050919050565b600081905092915050565b60005b83811015615464578082015181840152602081019050615449565b60008484015250505050565b600061547b82615430565b615485818561543b565b9350615495818560208601615446565b80840191505092915050565b60006154ad8284615470565b915081905092915050565b600081519050919050565b60006154ce826154b8565b6154d88185614148565b93506154e8818560208601615446565b6154f181614d38565b840191505092915050565b6000602082019050818103600083015261551681846154c3565b90509291505056fea2646970667358221220ab7f4cc344485ebe3bc54b18bb59093637b894c76f29c262798d0873857d03f464736f6c63430008110033","abi":[{"inputs":[{"internalType":"address","name":"_stakingToken","type":"address"}],"stateMutability":"nonpayable","type":"constructor"},{"anonymous":false,"inputs":[{"indexed":false,"internalType":"uint256","name":"newEpochLength","type":"uint256"}],"name":"EpochLengthSet","type":"event"},{"anonymous":false,"inputs":[{"indexed":false,"internalType":"uint256","name":"newKickPenaltyPercent","type":"uint256"}],"name":"KickPenaltyPercentSet","type":"event"},{"anonymous":false,"inputs":[{"indexed":false,"internalType":"uint256","name":"newMinimumStake","type":"uint256"}],"name":"MinimumStakeSet","type":"event"},{"anonymous":false,"inputs":[{"indexed":true,"internalType":"address","name":"previousOwner","type":"address"},{"indexed":true,"internalType":"address","name":"newOwner","type":"address"}],"name":"OwnershipTransferred","type":"event"},{"anonymous":false,"inputs":[{"indexed":false,"internalType":"address","name":"account","type":"address"}],"name":"Paused","type":"event"},{"anonymous":false,"inputs":[{"indexed":true,"internalType":"address","name":"staker","type":"address"}],"name":"ReadyForNextEpoch","type":"event"},{"anonymous":false,"inputs":[{"indexed":false,"internalType":"address","name":"token","type":"address"},{"indexed":false,"internalType":"uint256","name":"amount","type":"uint256"}],"name":"Recovered","type":"event"},{"anonymous":false,"inputs":[{"indexed":true,"internalType":"address","name":"staker","type":"address"}],"name":"RequestToJoin","type":"event"},{"anonymous":false,"inputs":[{"indexed":true,"internalType":"address","name":"staker","type":"address"}],"name":"RequestToLeave","type":"event"},{"anonymous":false,"inputs":[{"indexed":false,"internalType":"address","name":"newResolverContractAddress","type":"address"}],"name":"ResolverContractAddressSet","type":"event"},{"anonymous":false,"inputs":[{"indexed":true,"internalType":"address","name":"staker","type":"address"},{"indexed":false,"internalType":"uint256","name":"reward","type":"uint256"}],"name":"RewardPaid","type":"event"},{"anonymous":false,"inputs":[{"indexed":false,"internalType":"uint256","name":"newDuration","type":"uint256"}],"name":"RewardsDurationUpdated","type":"event"},{"anonymous":false,"inputs":[{"indexed":true,"internalType":"address","name":"staker","type":"address"},{"indexed":false,"internalType":"uint256","name":"amount","type":"uint256"}],"name":"Staked","type":"event"},{"anonymous":false,"inputs":[{"indexed":false,"internalType":"address","name":"newStakingTokenAddress","type":"address"}],"name":"StakingTokenSet","type":"event"},{"anonymous":false,"inputs":[{"indexed":false,"internalType":"enum Staking.States","name":"newState","type":"uint8"}],"name":"StateChanged","type":"event"},{"anonymous":false,"inputs":[{"indexed":false,"internalType":"uint256","name":"newTokenRewardPerTokenPerEpoch","type":"uint256"}],"name":"TokenRewardPerTokenPerEpochSet","type":"event"},{"anonymous":false,"inputs":[{"indexed":false,"internalType":"address","name":"account","type":"address"}],"name":"Unpaused","type":"event"},{"anonymous":false,"inputs":[{"indexed":true,"internalType":"address","name":"staker","type":"address"}],"name":"ValidatorKickedFromNextEpoch","type":"event"},{"anonymous":false,"inputs":[{"indexed":true,"internalType":"address","name":"reporter","type":"address"},{"indexed":true,"internalType":"address","name":"validatorStakerAddress","type":"address"},{"indexed":true,"internalType":"uint256","name":"reason","type":"uint256"},{"indexed":false,"internalType":"bytes","name":"data","type":"bytes"}],"name":"VotedToKickValidatorInNextEpoch","type":"event"},{"anonymous":false,"inputs":[{"indexed":true,"internalType":"address","name":"staker","type":"address"},{"indexed":false,"internalType":"uint256","name":"amount","type":"uint256"}],"name":"Withdrawn","type":"event"},{"inputs":[],"name":"advanceEpoch","outputs":[],"stateMutability":"nonpayable","type":"function"},{"inputs":[{"internalType":"address","name":"account","type":"address"}],"name":"balanceOf","outputs":[{"internalType":"uint256","name":"","type":"uint256"}],"stateMutability":"view","type":"function"},{"inputs":[],"name":"epoch","outputs":[{"internalType":"uint256","name":"epochLength","type":"uint256"},{"internalType":"uint256","name":"number","type":"uint256"},{"internalType":"uint256","name":"endBlock","type":"uint256"},{"internalType":"uint256","name":"retries","type":"uint256"}],"stateMutability":"view","type":"function"},{"inputs":[],"name":"exit","outputs":[],"stateMutability":"nonpayable","type":"function"},{"inputs":[],"name":"getReward","outputs":[],"stateMutability":"nonpayable","type":"function"},{"inputs":[],"name":"getValidatorsInCurrentEpoch","outputs":[{"internalType":"address[]","name":"","type":"address[]"}],"stateMutability":"view","type":"function"},{"inputs":[],"name":"getValidatorsInNextEpoch","outputs":[{"internalType":"address[]","name":"","type":"address[]"}],"stateMutability":"view","type":"function"},{"inputs":[{"internalType":"uint256","name":"epochNumber","type":"uint256"},{"internalType":"address","name":"validatorStakerAddress","type":"address"},{"internalType":"address","name":"voterStakerAddress","type":"address"}],"name":"getVotingStatusToKickValidator","outputs":[{"internalType":"uint256","name":"","type":"uint256"},{"internalType":"bool","name":"","type":"bool"}],"stateMutability":"view","type":"function"},{"inputs":[{"internalType":"address","name":"account","type":"address"}],"name":"isActiveValidator","outputs":[{"internalType":"bool","name":"","type":"bool"}],"stateMutability":"view","type":"function"},{"inputs":[],"name":"isReadyForNextEpoch","outputs":[{"internalType":"bool","name":"","type":"bool"}],"stateMutability":"view","type":"function"},{"inputs":[],"name":"kickPenaltyPercent","outputs":[{"internalType":"uint256","name":"","type":"uint256"}],"stateMutability":"view","type":"function"},{"inputs":[{"internalType":"address","name":"validatorStakerAddress","type":"address"},{"internalType":"uint256","name":"reason","type":"uint256"},{"internalType":"bytes","name":"data","type":"bytes"}],"name":"kickValidatorInNextEpoch","outputs":[],"stateMutability":"nonpayable","type":"function"},{"inputs":[],"name":"lockValidatorsForNextEpoch","outputs":[],"stateMutability":"nonpayable","type":"function"},{"inputs":[],"name":"minimumStake","outputs":[{"internalType":"uint256","name":"","type":"uint256"}],"stateMutability":"view","type":"function"},{"inputs":[{"internalType":"address","name":"","type":"address"}],"name":"nodeAddressToStakerAddress","outputs":[{"internalType":"address","name":"","type":"address"}],"stateMutability":"view","type":"function"},{"inputs":[],"name":"owner","outputs":[{"internalType":"address","name":"","type":"address"}],"stateMutability":"view","type":"function"},{"inputs":[],"name":"paused","outputs":[{"internalType":"bool","name":"","type":"bool"}],"stateMutability":"view","type":"function"},{"inputs":[{"internalType":"address","name":"","type":"address"}],"name":"readyForNextEpoch","outputs":[{"internalType":"bool","name":"","type":"bool"}],"stateMutability":"view","type":"function"},{"inputs":[],"name":"renounceOwnership","outputs":[],"stateMutability":"nonpayable","type":"function"},{"inputs":[{"internalType":"uint32","name":"ip","type":"uint32"},{"internalType":"uint128","name":"ipv6","type":"uint128"},{"internalType":"uint32","name":"port","type":"uint32"},{"internalType":"address","name":"nodeAddress","type":"address"},{"internalType":"uint256","name":"senderPubKey","type":"uint256"},{"internalType":"uint256","name":"receiverPubKey","type":"uint256"}],"name":"requestToJoin","outputs":[],"stateMutability":"nonpayable","type":"function"},{"inputs":[],"name":"requestToLeave","outputs":[],"stateMutability":"nonpayable","type":"function"},{"inputs":[],"name":"resolverContractAddress","outputs":[{"internalType":"address","name":"","type":"address"}],"stateMutability":"view","type":"function"},{"inputs":[{"internalType":"address","name":"account","type":"address"}],"name":"rewardOf","outputs":[{"internalType":"uint256","name":"","type":"uint256"}],"stateMutability":"view","type":"function"},{"inputs":[{"internalType":"uint256","name":"newEpochLength","type":"uint256"}],"name":"setEpochLength","outputs":[],"stateMutability":"nonpayable","type":"function"},{"inputs":[{"internalType":"uint32","name":"ip","type":"uint32"},{"internalType":"uint128","name":"ipv6","type":"uint128"},{"internalType":"uint32","name":"port","type":"uint32"},{"internalType":"address","name":"nodeAddress","type":"address"},{"internalType":"uint256","name":"senderPubKey","type":"uint256"},{"internalType":"uint256","name":"receiverPubKey","type":"uint256"}],"name":"setIpPortNodeAddressAndCommunicationPubKeys","outputs":[],"stateMutability":"nonpayable","type":"function"},{"inputs":[{"internalType":"uint256","name":"newKickPenaltyPercent","type":"uint256"}],"name":"setKickPenaltyPercent","outputs":[],"stateMutability":"nonpayable","type":"function"},{"inputs":[{"internalType":"uint256","name":"newMinimumStake","type":"uint256"}],"name":"setMinimumStake","outputs":[],"stateMutability":"nonpayable","type":"function"},{"inputs":[{"internalType":"address","name":"newResolverContractAddress","type":"address"}],"name":"setResolverContractAddress","outputs":[],"stateMutability":"nonpayable","type":"function"},{"inputs":[{"internalType":"address","name":"newStakingTokenAddress","type":"address"}],"name":"setStakingToken","outputs":[],"stateMutability":"nonpayable","type":"function"},{"inputs":[{"internalType":"uint256","name":"newTokenRewardPerTokenPerEpoch","type":"uint256"}],"name":"setTokenRewardPerTokenPerEpoch","outputs":[],"stateMutability":"nonpayable","type":"function"},{"inputs":[{"internalType":"address","name":"stakerAddress","type":"address"}],"name":"shouldKickValidator","outputs":[{"internalType":"bool","name":"","type":"bool"}],"stateMutability":"view","type":"function"},{"inputs":[],"name":"signalReadyForNextEpoch","outputs":[],"stateMutability":"nonpayable","type":"function"},{"inputs":[{"internalType":"uint256","name":"amount","type":"uint256"}],"name":"stake","outputs":[],"stateMutability":"nonpayable","type":"function"},{"inputs":[{"internalType":"uint256","name":"amount","type":"uint256"},{"internalType":"uint32","name":"ip","type":"uint32"},{"internalType":"uint128","name":"ipv6","type":"uint128"},{"internalType":"uint32","name":"port","type":"uint32"},{"internalType":"address","name":"nodeAddress","type":"address"},{"internalType":"uint256","name":"senderPubKey","type":"uint256"},{"internalType":"uint256","name":"receiverPubKey","type":"uint256"}],"name":"stakeAndJoin","outputs":[],"stateMutability":"nonpayable","type":"function"},{"inputs":[],"name":"stakingToken","outputs":[{"internalType":"contract LITToken","name":"","type":"address"}],"stateMutability":"view","type":"function"},{"inputs":[],"name":"state","outputs":[{"internalType":"enum Staking.States","name":"","type":"uint8"}],"stateMutability":"view","type":"function"},{"inputs":[],"name":"tokenRewardPerTokenPerEpoch","outputs":[{"internalType":"uint256","name":"","type":"uint256"}],"stateMutability":"view","type":"function"},{"inputs":[],"name":"totalStaked","outputs":[{"internalType":"uint256","name":"","type":"uint256"}],"stateMutability":"view","type":"function"},{"inputs":[{"internalType":"address","name":"newOwner","type":"address"}],"name":"transferOwnership","outputs":[],"stateMutability":"nonpayable","type":"function"},{"inputs":[],"name":"unlockValidatorsForNextEpoch","outputs":[],"stateMutability":"nonpayable","type":"function"},{"inputs":[],"name":"validatorCountForConsensus","outputs":[{"internalType":"uint256","name":"","type":"uint256"}],"stateMutability":"view","type":"function"},{"inputs":[],"name":"validatorStateIsActive","outputs":[{"internalType":"bool","name":"","type":"bool"}],"stateMutability":"view","type":"function"},{"inputs":[],"name":"validatorStateIsUnlocked","outputs":[{"internalType":"bool","name":"","type":"bool"}],"stateMutability":"view","type":"function"},{"inputs":[{"internalType":"address","name":"","type":"address"}],"name":"validators","outputs":[{"internalType":"uint32","name":"ip","type":"uint32"},{"internalType":"uint128","name":"ipv6","type":"uint128"},{"internalType":"uint32","name":"port","type":"uint32"},{"internalType":"address","name":"nodeAddress","type":"address"},{"internalType":"uint256","name":"balance","type":"uint256"},{"internalType":"uint256","name":"reward","type":"uint256"},{"internalType":"uint256","name":"senderPubKey","type":"uint256"},{"internalType":"uint256","name":"receiverPubKey","type":"uint256"}],"stateMutability":"view","type":"function"},{"inputs":[],"name":"validatorsInNextEpochAreLocked","outputs":[{"internalType":"bool","name":"","type":"bool"}],"stateMutability":"view","type":"function"},{"inputs":[{"internalType":"uint256","name":"","type":"uint256"},{"internalType":"address","name":"","type":"address"}],"name":"votesToKickValidatorsInNextEpoch","outputs":[{"internalType":"uint256","name":"votes","type":"uint256"}],"stateMutability":"view","type":"function"},{"inputs":[{"internalType":"uint256","name":"amount","type":"uint256"}],"name":"withdraw","outputs":[],"stateMutability":"nonpayable","type":"function"}]}