{"address":"0xdaC88ECa3c8e023648146AD1B61c3572dBD3DDcf","bytecode":"0x60806040523480156200001157600080fd5b5060405162002909380380620029098339818101604052810190620000379190620001d5565b620000576200004b6200009f60201b60201c565b620000a760201b60201c565b80600160006101000a81548173ffffffffffffffffffffffffffffffffffffffff021916908373ffffffffffffffffffffffffffffffffffffffff1602179055505062000207565b600033905090565b60008060009054906101000a900473ffffffffffffffffffffffffffffffffffffffff169050816000806101000a81548173ffffffffffffffffffffffffffffffffffffffff021916908373ffffffffffffffffffffffffffffffffffffffff1602179055508173ffffffffffffffffffffffffffffffffffffffff168173ffffffffffffffffffffffffffffffffffffffff167f8be0079c531659141344cd1fd0a4f28419497f9722a3daafe3b4186f6b6457e060405160405180910390a35050565b600080fd5b600073ffffffffffffffffffffffffffffffffffffffff82169050919050565b60006200019d8262000170565b9050919050565b620001af8162000190565b8114620001bb57600080fd5b50565b600081519050620001cf81620001a4565b92915050565b600060208284031215620001ee57620001ed6200016b565b5b6000620001fe84828501620001be565b91505092915050565b6126f280620002176000396000f3fe608060405234801561001057600080fd5b50600436106100ea5760003560e01c80638da5cb5b1161008c578063de18a50811610066578063de18a5081461025f578063ef6fd8781461028f578063f2fde38b146102bf578063ffa2e953146102db576100ea565b80638da5cb5b146101df578063b3fe5cf2146101fd578063bd4986a01461022f576100ea565b8063583cb30a116100c8578063583cb30a1461016b5780636edad78714610187578063715018a6146101a35780637bd3e3f6146101ad576100ea565b806301c6d035146100ef578063176354fd1461011f57806325c836f91461013b575b600080fd5b6101096004803603810190610104919061170f565b6102f9565b6040516101169190611757565b60405180910390f35b610139600480360381019061013491906117d0565b61046e565b005b6101556004803603810190610150919061170f565b6104f1565b60405161016291906118fb565b60405180910390f35b61018560048036038101906101809190611a52565b610610565b005b6101a1600480360381019061019c9190611a52565b610e20565b005b6101ab610f8d565b005b6101c760048036038101906101c2919061170f565b610fa1565b6040516101d693929190611b3d565b60405180910390f35b6101e7611073565b6040516101f49190611b7b565b60405180910390f35b6102176004803603810190610212919061170f565b61109c565b60405161022693929190611b96565b60405180910390f35b6102496004803603810190610244919061170f565b6111c2565b6040516102569190611b7b565b60405180910390f35b610279600480360381019061027491906117d0565b6112bd565b6040516102869190611bd4565b60405180910390f35b6102a960048036038101906102a4919061170f565b6112d5565b6040516102b69190611bef565b60405180910390f35b6102d960048036038101906102d491906117d0565b61137d565b005b6102e3611400565b6040516102f09190611c70565b60405180910390f35b6000806002600084815260200190815260200160002060405180606001604052908160008201805461032a90611cba565b80601f016020809104026020016040519081016040528092919081815260200182805461035690611cba565b80156103a35780601f10610378576101008083540402835291602001916103a3565b820191906000526020600020905b81548152906001019060200180831161038657829003601f168201915b505050505081526020016001820160009054906101000a900473ffffffffffffffffffffffffffffffffffffffff1673ffffffffffffffffffffffffffffffffffffffff1673ffffffffffffffffffffffffffffffffffffffff168152602001600282015481525050905060008160000151511415801561042957506000816040015114155b80156104665750600073ffffffffffffffffffffffffffffffffffffffff16816020015173ffffffffffffffffffffffffffffffffffffffff1614155b915050919050565b610476611426565b80600160006101000a81548173ffffffffffffffffffffffffffffffffffffffff021916908373ffffffffffffffffffffffffffffffffffffffff1602179055507fc7ff7959ecbc7f4d8d4a9e6afe9dff66f0e84d0707ee870524fe965872ab6e50816040516104e69190611b7b565b60405180910390a150565b6104f961168e565b6002600083815260200190815260200160002060405180606001604052908160008201805461052790611cba565b80601f016020809104026020016040519081016040528092919081815260200182805461055390611cba565b80156105a05780601f10610575576101008083540402835291602001916105a0565b820191906000526020600020905b81548152906001019060200180831161058357829003601f168201915b505050505081526020016001820160009054906101000a900473ffffffffffffffffffffffffffffffffffffffff1673ffffffffffffffffffffffffffffffffffffffff1673ffffffffffffffffffffffffffffffffffffffff1681526020016002820154815250509050919050565b600082905060008173ffffffffffffffffffffffffffffffffffffffff16635081f66f336040518263ffffffff1660e01b81526004016106509190611b7b565b602060405180830381865afa15801561066d573d6000803e3d6000fd5b505050506040513d601f19601f820116820180604052508101906106919190611d00565b90508173ffffffffffffffffffffffffffffffffffffffff166340550a1c826040518263ffffffff1660e01b81526004016106cc9190611b7b565b602060405180830381865afa1580156106e9573d6000803e3d6000fd5b505050506040513d601f19601f8201168201806040525081019061070d9190611d59565b61074c576040517f08c379a000000000000000000000000000000000000000000000000000000000815260040161074390611e09565b60405180910390fd5b6003600087815260200190815260200160002060050160003373ffffffffffffffffffffffffffffffffffffffff1673ffffffffffffffffffffffffffffffffffffffff16815260200190815260200160002060009054906101000a900460ff16156107ed576040517f08c379a00000000000000000000000000000000000000000000000000000000081526004016107e490611e9b565b60405180910390fd5b600060036000888152602001908152602001600020600301540361098257848051906020012060001c8614610857576040517f08c379a000000000000000000000000000000000000000000000000000000000815260040161084e90611f2d565b60405180910390fd5b8460036000888152602001908152602001600020600001600001908161087d91906120ef565b50836003600088815260200190815260200160002060000160010160006101000a81548173ffffffffffffffffffffffffffffffffffffffff021916908373ffffffffffffffffffffffffffffffffffffffff1602179055508260036000888152602001908152602001600020600001600201819055508173ffffffffffffffffffffffffffffffffffffffff1663dd21d6266040518163ffffffff1660e01b8152600401602060405180830381865afa15801561093f573d6000803e3d6000fd5b505050506040513d601f19601f8201168201806040525081019061096391906121d6565b6003600088815260200190815260200160002060040181905550610b2c565b6003600087815260200190815260200160002060000160000180546109a690611cba565b905085511480156109ea5750600360008781526020019081526020016000206000016000016040516109d89190612291565b60405180910390208580519060200120145b610a29576040517f08c379a0000000000000000000000000000000000000000000000000000000008152600401610a209061231a565b60405180910390fd5b6003600087815260200190815260200160002060000160010160009054906101000a900473ffffffffffffffffffffffffffffffffffffffff1673ffffffffffffffffffffffffffffffffffffffff168473ffffffffffffffffffffffffffffffffffffffff1614610ad0576040517f08c379a0000000000000000000000000000000000000000000000000000000008152600401610ac790612386565b60405180910390fd5b60036000878152602001908152602001600020600001600201548314610b2b576040517f08c379a0000000000000000000000000000000000000000000000000000000008152600401610b22906123f2565b60405180910390fd5b5b60016003600088815260200190815260200160002060050160003373ffffffffffffffffffffffffffffffffffffffff1673ffffffffffffffffffffffffffffffffffffffff16815260200190815260200160002060006101000a81548160ff021916908315150217905550600360008781526020019081526020016000206003016000815480929190610bbf90612441565b91905055503373ffffffffffffffffffffffffffffffffffffffff16867f55a9294995c030f731a7eefced80c512d4bb6826c506f230021a7320ccc1d172878787604051610c0f93929190611b3d565b60405180910390a360036000878152602001908152602001600020600401546003600088815260200190815260200160002060030154118015610c585750610c56866102f9565b155b15610e185784600260008881526020019081526020016000206000019081610c8091906120ef565b50836002600088815260200190815260200160002060010160006101000a81548173ffffffffffffffffffffffffffffffffffffffff021916908373ffffffffffffffffffffffffffffffffffffffff16021790555082600260008881526020019081526020016000206002018190555060028303610d4c576000610d04876111c2565b905086600460008373ffffffffffffffffffffffffffffffffffffffff1673ffffffffffffffffffffffffffffffffffffffff16815260200190815260200160002081905550505b600160009054906101000a900473ffffffffffffffffffffffffffffffffffffffff1673ffffffffffffffffffffffffffffffffffffffff16635c110a9c87856040518363ffffffff1660e01b8152600401610da9929190612489565b600060405180830381600087803b158015610dc357600080fd5b505af1158015610dd7573d6000803e3d6000fd5b50505050857f5c4ca40b0470d7d59d8b59dfbd57d9a2e50a8f0b84d22521c146b646274e1a38868686604051610e0f93929190611b3d565b60405180910390a25b505050505050565b610e28611426565b82600260008681526020019081526020016000206000019081610e4b91906120ef565b50816002600086815260200190815260200160002060010160006101000a81548173ffffffffffffffffffffffffffffffffffffffff021916908373ffffffffffffffffffffffffffffffffffffffff160217905550806002600086815260200190815260200160002060020181905550600160009054906101000a900473ffffffffffffffffffffffffffffffffffffffff1673ffffffffffffffffffffffffffffffffffffffff16635c110a9c85836040518363ffffffff1660e01b8152600401610f19929190612489565b600060405180830381600087803b158015610f3357600080fd5b505af1158015610f47573d6000803e3d6000fd5b50505050837f5c4ca40b0470d7d59d8b59dfbd57d9a2e50a8f0b84d22521c146b646274e1a38848484604051610f7f93929190611b3d565b60405180910390a250505050565b610f95611426565b610f9f60006114a4565b565b6002602052806000526040600020600091509050806000018054610fc490611cba565b80601f0160208091040260200160405190810160405280929190818152602001828054610ff090611cba565b801561103d5780601f106110125761010080835404028352916020019161103d565b820191906000526020600020905b81548152906001019060200180831161102057829003601f168201915b5050505050908060010160009054906101000a900473ffffffffffffffffffffffffffffffffffffffff16908060020154905083565b60008060009054906101000a900473ffffffffffffffffffffffffffffffffffffffff16905090565b6003602052806000526040600020600091509050806000016040518060600160405290816000820180546110cf90611cba565b80601f01602080910402602001604051908101604052809291908181526020018280546110fb90611cba565b80156111485780601f1061111d57610100808354040283529160200191611148565b820191906000526020600020905b81548152906001019060200180831161112b57829003601f168201915b505050505081526020016001820160009054906101000a900473ffffffffffffffffffffffffffffffffffffffff1673ffffffffffffffffffffffffffffffffffffffff1673ffffffffffffffffffffffffffffffffffffffff168152602001600282015481525050908060030154908060040154905083565b6000600280600084815260200190815260200160002060020154146111ea57600090506112b8565b60006112a16001604060026000878152602001908152602001600020600001805461121490611cba565b80601f016020809104026020016040519081016040528092919081815260200182805461124090611cba565b801561128d5780601f106112625761010080835404028352916020019161128d565b820191906000526020600020905b81548152906001019060200180831161127057829003601f168201915b50505050506115689092919063ffffffff16565b90506000818051906020012090508060001c925050505b919050565b60046020528060005260406000206000915090505481565b60606002600083815260200190815260200160002060000180546112f890611cba565b80601f016020809104026020016040519081016040528092919081815260200182805461132490611cba565b80156113715780601f1061134657610100808354040283529160200191611371565b820191906000526020600020905b81548152906001019060200180831161135457829003601f168201915b50505050509050919050565b611385611426565b600073ffffffffffffffffffffffffffffffffffffffff168173ffffffffffffffffffffffffffffffffffffffff16036113f4576040517f08c379a00000000000000000000000000000000000000000000000000000000081526004016113eb90612524565b60405180910390fd5b6113fd816114a4565b50565b600160009054906101000a900473ffffffffffffffffffffffffffffffffffffffff1681565b61142e611686565b73ffffffffffffffffffffffffffffffffffffffff1661144c611073565b73ffffffffffffffffffffffffffffffffffffffff16146114a2576040517f08c379a000000000000000000000000000000000000000000000000000000000815260040161149990612590565b60405180910390fd5b565b60008060009054906101000a900473ffffffffffffffffffffffffffffffffffffffff169050816000806101000a81548173ffffffffffffffffffffffffffffffffffffffff021916908373ffffffffffffffffffffffffffffffffffffffff1602179055508173ffffffffffffffffffffffffffffffffffffffff168173ffffffffffffffffffffffffffffffffffffffff167f8be0079c531659141344cd1fd0a4f28419497f9722a3daafe3b4186f6b6457e060405160405180910390a35050565b606081601f8361157891906125b0565b10156115b9576040517f08c379a00000000000000000000000000000000000000000000000000000000081526004016115b090612630565b60405180910390fd5b81836115c591906125b0565b84511015611608576040517f08c379a00000000000000000000000000000000000000000000000000000000081526004016115ff9061269c565b60405180910390fd5b6060821560008114611629576040519150600082526020820160405261167a565b6040519150601f8416801560200281840101858101878315602002848b0101015b81831015611667578051835260208301925060208101905061164a565b50868552601f19601f8301166040525050505b50809150509392505050565b600033905090565b604051806060016040528060608152602001600073ffffffffffffffffffffffffffffffffffffffff168152602001600081525090565b6000604051905090565b600080fd5b600080fd5b6000819050919050565b6116ec816116d9565b81146116f757600080fd5b50565b600081359050611709816116e3565b92915050565b600060208284031215611725576117246116cf565b5b6000611733848285016116fa565b91505092915050565b60008115159050919050565b6117518161173c565b82525050565b600060208201905061176c6000830184611748565b92915050565b600073ffffffffffffffffffffffffffffffffffffffff82169050919050565b600061179d82611772565b9050919050565b6117ad81611792565b81146117b857600080fd5b50565b6000813590506117ca816117a4565b92915050565b6000602082840312156117e6576117e56116cf565b5b60006117f4848285016117bb565b91505092915050565b600081519050919050565b600082825260208201905092915050565b60005b8381101561183757808201518184015260208101905061181c565b60008484015250505050565b6000601f19601f8301169050919050565b600061185f826117fd565b6118698185611808565b9350611879818560208601611819565b61188281611843565b840191505092915050565b61189681611792565b82525050565b6118a5816116d9565b82525050565b600060608301600083015184820360008601526118c88282611854565b91505060208301516118dd602086018261188d565b5060408301516118f0604086018261189c565b508091505092915050565b6000602082019050818103600083015261191581846118ab565b905092915050565b600080fd5b600080fd5b7f4e487b7100000000000000000000000000000000000000000000000000000000600052604160045260246000fd5b61195f82611843565b810181811067ffffffffffffffff8211171561197e5761197d611927565b5b80604052505050565b60006119916116c5565b905061199d8282611956565b919050565b600067ffffffffffffffff8211156119bd576119bc611927565b5b6119c682611843565b9050602081019050919050565b82818337600083830152505050565b60006119f56119f0846119a2565b611987565b905082815260208101848484011115611a1157611a10611922565b5b611a1c8482856119d3565b509392505050565b600082601f830112611a3957611a3861191d565b5b8135611a498482602086016119e2565b91505092915050565b60008060008060808587031215611a6c57611a6b6116cf565b5b6000611a7a878288016116fa565b945050602085013567ffffffffffffffff811115611a9b57611a9a6116d4565b5b611aa787828801611a24565b9350506040611ab8878288016117bb565b9250506060611ac9878288016116fa565b91505092959194509250565b600082825260208201905092915050565b6000611af1826117fd565b611afb8185611ad5565b9350611b0b818560208601611819565b611b1481611843565b840191505092915050565b611b2881611792565b82525050565b611b37816116d9565b82525050565b60006060820190508181036000830152611b578186611ae6565b9050611b666020830185611b1f565b611b736040830184611b2e565b949350505050565b6000602082019050611b906000830184611b1f565b92915050565b60006060820190508181036000830152611bb081866118ab565b9050611bbf6020830185611b2e565b611bcc6040830184611b2e565b949350505050565b6000602082019050611be96000830184611b2e565b92915050565b60006020820190508181036000830152611c098184611ae6565b905092915050565b6000819050919050565b6000611c36611c31611c2c84611772565b611c11565b611772565b9050919050565b6000611c4882611c1b565b9050919050565b6000611c5a82611c3d565b9050919050565b611c6a81611c4f565b82525050565b6000602082019050611c856000830184611c61565b92915050565b7f4e487b7100000000000000000000000000000000000000000000000000000000600052602260045260246000fd5b60006002820490506001821680611cd257607f821691505b602082108103611ce557611ce4611c8b565b5b50919050565b600081519050611cfa816117a4565b92915050565b600060208284031215611d1657611d156116cf565b5b6000611d2484828501611ceb565b91505092915050565b611d368161173c565b8114611d4157600080fd5b50565b600081519050611d5381611d2d565b92915050565b600060208284031215611d6f57611d6e6116cf565b5b6000611d7d84828501611d44565b91505092915050565b600082825260208201905092915050565b7f4f6e6c79206163746976652076616c696461746f72732063616e20736574207260008201527f6f7574696e672064617461000000000000000000000000000000000000000000602082015250565b6000611df3602b83611d86565b9150611dfe82611d97565b604082019050919050565b60006020820190508181036000830152611e2281611de6565b9050919050565b7f596f75206861766520616c726561647920766f74656420666f7220746869732060008201527f6b65790000000000000000000000000000000000000000000000000000000000602082015250565b6000611e85602383611d86565b9150611e9082611e29565b604082019050919050565b60006020820190508181036000830152611eb481611e78565b9050919050565b7f746f6b656e496420646f6573206e6f74206d6174636820686173686564206b6560008201527f7950617274730000000000000000000000000000000000000000000000000000602082015250565b6000611f17602683611d86565b9150611f2282611ebb565b604082019050919050565b60006020820190508181036000830152611f4681611f0a565b9050919050565b60008190508160005260206000209050919050565b60006020601f8301049050919050565b600082821b905092915050565b600060088302611faf7fffffffffffffffffffffffffffffffffffffffffffffffffffffffffffffffff82611f72565b611fb98683611f72565b95508019841693508086168417925050509392505050565b6000611fec611fe7611fe2846116d9565b611c11565b6116d9565b9050919050565b6000819050919050565b61200683611fd1565b61201a61201282611ff3565b848454611f7f565b825550505050565b600090565b61202f612022565b61203a818484611ffd565b505050565b5b8181101561205e57612053600082612027565b600181019050612040565b5050565b601f8211156120a35761207481611f4d565b61207d84611f62565b8101602085101561208c578190505b6120a061209885611f62565b83018261203f565b50505b505050565b600082821c905092915050565b60006120c6600019846008026120a8565b1980831691505092915050565b60006120df83836120b5565b9150826002028217905092915050565b6120f8826117fd565b67ffffffffffffffff81111561211157612110611927565b5b61211b8254611cba565b612126828285612062565b600060209050601f8311600181146121595760008415612147578287015190505b61215185826120d3565b8655506121b9565b601f19841661216786611f4d565b60005b8281101561218f5784890151825560018201915060208501945060208101905061216a565b868310156121ac57848901516121a8601f8916826120b5565b8355505b6001600288020188555050505b505050505050565b6000815190506121d0816116e3565b92915050565b6000602082840312156121ec576121eb6116cf565b5b60006121fa848285016121c1565b91505092915050565b600081905092915050565b6000815461221b81611cba565b6122258186612203565b94506001821660008114612240576001811461225557612288565b60ff1983168652811515820286019350612288565b61225e85611f4d565b60005b8381101561228057815481890152600182019150602081019050612261565b838801955050505b50505092915050565b600061229d828461220e565b915081905092915050565b7f7075626b657920646f6573206e6f74206d617463682070726576696f7573207260008201527f6567697374726174696f6e730000000000000000000000000000000000000000602082015250565b6000612304602c83611d86565b915061230f826122a8565b604082019050919050565b60006020820190508181036000830152612333816122f7565b9050919050565b7f7374616b696e67436f6e747261637420646f6573206e6f74206d617463680000600082015250565b6000612370601e83611d86565b915061237b8261233a565b602082019050919050565b6000602082019050818103600083015261239f81612363565b9050919050565b7f6b65795479706520646f6573206e6f74206d6174636800000000000000000000600082015250565b60006123dc601683611d86565b91506123e7826123a6565b602082019050919050565b6000602082019050818103600083015261240b816123cf565b9050919050565b7f4e487b7100000000000000000000000000000000000000000000000000000000600052601160045260246000fd5b600061244c826116d9565b91507fffffffffffffffffffffffffffffffffffffffffffffffffffffffffffffffff820361247e5761247d612412565b5b600182019050919050565b600060408201905061249e6000830185611b2e565b6124ab6020830184611b2e565b9392505050565b7f4f776e61626c653a206e6577206f776e657220697320746865207a65726f206160008201527f6464726573730000000000000000000000000000000000000000000000000000602082015250565b600061250e602683611d86565b9150612519826124b2565b604082019050919050565b6000602082019050818103600083015261253d81612501565b9050919050565b7f4f776e61626c653a2063616c6c6572206973206e6f7420746865206f776e6572600082015250565b600061257a602083611d86565b915061258582612544565b602082019050919050565b600060208201905081810360008301526125a98161256d565b9050919050565b60006125bb826116d9565b91506125c6836116d9565b92508282019050808211156125de576125dd612412565b5b92915050565b7f736c6963655f6f766572666c6f77000000000000000000000000000000000000600082015250565b600061261a600e83611d86565b9150612625826125e4565b602082019050919050565b600060208201905081810360008301526126498161260d565b9050919050565b7f736c6963655f6f75744f66426f756e6473000000000000000000000000000000600082015250565b6000612686601183611d86565b915061269182612650565b602082019050919050565b600060208201905081810360008301526126b581612679565b905091905056fea26469706673582212202d463a9824faf2e47e9e6f263e2819b441ff4b96525d55a335ac20471220bf6e64736f6c63430008110033","abi":[{"inputs":[{"internalType":"address","name":"_pkpNft","type":"address"}],"stateMutability":"nonpayable","type":"constructor"},{"anonymous":false,"inputs":[{"indexed":true,"internalType":"address","name":"previousOwner","type":"address"},{"indexed":true,"internalType":"address","name":"newOwner","type":"address"}],"name":"OwnershipTransferred","type":"event"},{"anonymous":false,"inputs":[{"indexed":false,"internalType":"address","name":"newPkpNftAddress","type":"address"}],"name":"PkpNftAddressSet","type":"event"},{"anonymous":false,"inputs":[{"indexed":true,"internalType":"uint256","name":"tokenId","type":"uint256"},{"indexed":false,"internalType":"bytes","name":"pubkey","type":"bytes"},{"indexed":false,"internalType":"address","name":"stakingContract","type":"address"},{"indexed":false,"internalType":"uint256","name":"keyType","type":"uint256"}],"name":"PubkeyRoutingDataSet","type":"event"},{"anonymous":false,"inputs":[{"indexed":true,"internalType":"uint256","name":"tokenId","type":"uint256"},{"indexed":true,"internalType":"address","name":"nodeAddress","type":"address"},{"indexed":false,"internalType":"bytes","name":"pubkey","type":"bytes"},{"indexed":false,"internalType":"address","name":"stakingContract","type":"address"},{"indexed":false,"internalType":"uint256","name":"keyType","type":"uint256"}],"name":"PubkeyRoutingDataVote","type":"event"},{"inputs":[{"internalType":"address","name":"","type":"address"}],"name":"ethAddressToPkpId","outputs":[{"internalType":"uint256","name":"","type":"uint256"}],"stateMutability":"view","type":"function"},{"inputs":[{"internalType":"uint256","name":"tokenId","type":"uint256"}],"name":"getEthAddress","outputs":[{"internalType":"address","name":"","type":"address"}],"stateMutability":"view","type":"function"},{"inputs":[{"internalType":"uint256","name":"tokenId","type":"uint256"}],"name":"getPubkey","outputs":[{"internalType":"bytes","name":"","type":"bytes"}],"stateMutability":"view","type":"function"},{"inputs":[{"internalType":"uint256","name":"tokenId","type":"uint256"}],"name":"getRoutingData","outputs":[{"components":[{"internalType":"bytes","name":"pubkey","type":"bytes"},{"internalType":"address","name":"stakingContract","type":"address"},{"internalType":"uint256","name":"keyType","type":"uint256"}],"internalType":"struct PubkeyRouter.PubkeyRoutingData","name":"","type":"tuple"}],"stateMutability":"view","type":"function"},{"inputs":[{"internalType":"uint256","name":"tokenId","type":"uint256"}],"name":"isRouted","outputs":[{"internalType":"bool","name":"","type":"bool"}],"stateMutability":"view","type":"function"},{"inputs":[],"name":"owner","outputs":[{"internalType":"address","name":"","type":"address"}],"stateMutability":"view","type":"function"},{"inputs":[],"name":"pkpNFT","outputs":[{"internalType":"contract PKPNFT","name":"","type":"address"}],"stateMutability":"view","type":"function"},{"inputs":[{"internalType":"uint256","name":"","type":"uint256"}],"name":"pubkeyRegistrations","outputs":[{"components":[{"internalType":"bytes","name":"pubkey","type":"bytes"},{"internalType":"address","name":"stakingContract","type":"address"},{"internalType":"uint256","name":"keyType","type":"uint256"}],"internalType":"struct PubkeyRouter.PubkeyRoutingData","name":"routingData","type":"tuple"},{"internalType":"uint256","name":"nodeVoteCount","type":"uint256"},{"internalType":"uint256","name":"nodeVoteThreshold","type":"uint256"}],"stateMutability":"view","type":"function"},{"inputs":[{"internalType":"uint256","name":"","type":"uint256"}],"name":"pubkeys","outputs":[{"internalType":"bytes","name":"pubkey","type":"bytes"},{"internalType":"address","name":"stakingContract","type":"address"},{"internalType":"uint256","name":"keyType","type":"uint256"}],"stateMutability":"view","type":"function"},{"inputs":[],"name":"renounceOwnership","outputs":[],"stateMutability":"nonpayable","type":"function"},{"inputs":[{"internalType":"address","name":"newPkpNftAddress","type":"address"}],"name":"setPkpNftAddress","outputs":[],"stateMutability":"nonpayable","type":"function"},{"inputs":[{"internalType":"uint256","name":"tokenId","type":"uint256"},{"internalType":"bytes","name":"pubkey","type":"bytes"},{"internalType":"address","name":"stakingContract","type":"address"},{"internalType":"uint256","name":"keyType","type":"uint256"}],"name":"setRoutingData","outputs":[],"stateMutability":"nonpayable","type":"function"},{"inputs":[{"internalType":"address","name":"newOwner","type":"address"}],"name":"transferOwnership","outputs":[],"stateMutability":"nonpayable","type":"function"},{"inputs":[{"internalType":"uint256","name":"tokenId","type":"uint256"},{"internalType":"bytes","name":"pubkey","type":"bytes"},{"internalType":"address","name":"stakingContract","type":"address"},{"internalType":"uint256","name":"keyType","type":"uint256"}],"name":"voteForRoutingData","outputs":[],"stateMutability":"nonpayable","type":"function"}]}