{"address":"0xd3Ef4c2d2935c893e7543C558bc258eF719523F2","bytecode":"0x6080604052610e10600f5561012c601055600a6011553480156200002257600080fd5b50604051806060016040528060248152602001620055f8602491396040518060400160405280600381526020017f524c490000000000000000000000000000000000000000000000000000000000815250816000908162000084919062000419565b50806001908162000096919062000419565b505050620000b9620000ad620000d160201b60201c565b620000d960201b60201c565b6001600b81905550620f4240600d8190555062000500565b600033905090565b6000600660009054906101000a900473ffffffffffffffffffffffffffffffffffffffff16905081600660006101000a81548173ffffffffffffffffffffffffffffffffffffffff021916908373ffffffffffffffffffffffffffffffffffffffff1602179055508173ffffffffffffffffffffffffffffffffffffffff168173ffffffffffffffffffffffffffffffffffffffff167f8be0079c531659141344cd1fd0a4f28419497f9722a3daafe3b4186f6b6457e060405160405180910390a35050565b600081519050919050565b7f4e487b7100000000000000000000000000000000000000000000000000000000600052604160045260246000fd5b7f4e487b7100000000000000000000000000000000000000000000000000000000600052602260045260246000fd5b600060028204905060018216806200022157607f821691505b602082108103620002375762000236620001d9565b5b50919050565b60008190508160005260206000209050919050565b60006020601f8301049050919050565b600082821b905092915050565b600060088302620002a17fffffffffffffffffffffffffffffffffffffffffffffffffffffffffffffffff8262000262565b620002ad868362000262565b95508019841693508086168417925050509392505050565b6000819050919050565b6000819050919050565b6000620002fa620002f4620002ee84620002c5565b620002cf565b620002c5565b9050919050565b6000819050919050565b6200031683620002d9565b6200032e620003258262000301565b8484546200026f565b825550505050565b600090565b6200034562000336565b620003528184846200030b565b505050565b5b818110156200037a576200036e6000826200033b565b60018101905062000358565b5050565b601f821115620003c95762000393816200023d565b6200039e8462000252565b81016020851015620003ae578190505b620003c6620003bd8562000252565b83018262000357565b50505b505050565b600082821c905092915050565b6000620003ee60001984600802620003ce565b1980831691505092915050565b6000620004098383620003db565b9150826002028217905092915050565b62000424826200019f565b67ffffffffffffffff81111562000440576200043f620001aa565b5b6200044c825462000208565b620004598282856200037e565b600060209050601f8311600181146200049157600084156200047c578287015190505b620004888582620003fb565b865550620004f8565b601f198416620004a1866200023d565b60005b82811015620004cb57848901518255600182019150602085019450602081019050620004a4565b86831015620004eb5784890151620004e7601f891682620003db565b8355505b6001600288020188555050505b505050505050565b6150e880620005106000396000f3fe6080604052600436106102465760003560e01c80634f6ccce711610139578063ab1bbeca116100b6578063ce3946961161007a578063ce394696146108cc578063d9548e5314610909578063e62a219514610946578063e985e9c51461096f578063f2fde38b146109ac578063fb24b22e146109d557610246565b8063ab1bbeca146107c0578063b88d4fde146107fe578063b94a210214610827578063ba45b2ba14610852578063c87b56dd1461088f57610246565b806395d89b41116100fd57806395d89b41146106d457806398bdf6f5146106ff578063995eebab1461072a578063a0712d6814610767578063a22cb4651461079757610246565b80634f6ccce7146105db5780636352211e1461061857806370a0823114610655578063715018a6146106925780638da5cb5b146106a957610246565b80632f745c59116101c75780633ccfd60b1161018b5780633ccfd60b1461051c57806342842e0e1461053357806342966c681461055c5780634659470d146105855780634a5f3acd146105b057610246565b80632f745c59146104275780633488ab131461046457806339f1a4f11461048d5780633b189852146104b65780633b1a72cc146104df57610246565b806318160ddd1161020e57806318160ddd146103425780631f2757131461036d57806323b872dd146103aa57806326894764146103d357806328b9b37c146103fe57610246565b806301ffc9a71461024b57806306fdde0314610288578063081812fc146102b3578063095ea7b3146102f057806311fc456214610319575b600080fd5b34801561025757600080fd5b50610272600480360381019061026d9190613001565b610a00565b60405161027f9190613049565b60405180910390f35b34801561029457600080fd5b5061029d610b3a565b6040516102aa91906130f4565b60405180910390f35b3480156102bf57600080fd5b506102da60048036038101906102d5919061314c565b610bcc565b6040516102e791906131ba565b60405180910390f35b3480156102fc57600080fd5b5061031760048036038101906103129190613201565b610c12565b005b34801561032557600080fd5b50610340600480360381019061033b919061314c565b610d29565b005b34801561034e57600080fd5b50610357610d72565b6040516103649190613250565b60405180910390f35b34801561037957600080fd5b50610394600480360381019061038f91906132a1565b610d7f565b6040516103a191906132dd565b60405180910390f35b3480156103b657600080fd5b506103d160048036038101906103cc91906132f8565b610daf565b005b3480156103df57600080fd5b506103e8610e0f565b6040516103f59190613250565b60405180910390f35b34801561040a57600080fd5b506104256004803603810190610420919061314c565b610e15565b005b34801561043357600080fd5b5061044e60048036038101906104499190613201565b610e5e565b60405161045b9190613250565b60405180910390f35b34801561047057600080fd5b5061048b60048036038101906104869190613384565b610f03565b005b34801561049957600080fd5b506104b460048036038101906104af919061314c565b6110c8565b005b3480156104c257600080fd5b506104dd60048036038101906104d89190613411565b611111565b005b3480156104eb57600080fd5b50610506600480360381019061050191906132a1565b6111a0565b6040516105139190613049565b60405180910390f35b34801561052857600080fd5b506105316111c0565b005b34801561053f57600080fd5b5061055a600480360381019061055591906132f8565b6112d3565b005b34801561056857600080fd5b50610583600480360381019061057e919061314c565b6112f3565b005b34801561059157600080fd5b5061059a61134f565b6040516105a79190613250565b60405180910390f35b3480156105bc57600080fd5b506105c5611355565b6040516105d29190613250565b60405180910390f35b3480156105e757600080fd5b5061060260048036038101906105fd919061314c565b61135b565b60405161060f9190613250565b60405180910390f35b34801561062457600080fd5b5061063f600480360381019061063a919061314c565b6113cc565b60405161064c91906131ba565b60405180910390f35b34801561066157600080fd5b5061067c60048036038101906106779190613411565b61147d565b6040516106899190613250565b60405180910390f35b34801561069e57600080fd5b506106a7611534565b005b3480156106b557600080fd5b506106be611548565b6040516106cb91906131ba565b60405180910390f35b3480156106e057600080fd5b506106e9611572565b6040516106f691906130f4565b60405180910390f35b34801561070b57600080fd5b50610714611604565b6040516107219190613250565b60405180910390f35b34801561073657600080fd5b50610751600480360381019061074c9190613384565b61160a565b60405161075e9190613250565b60405180910390f35b610781600480360381019061077c919061314c565b61167e565b60405161078e9190613250565b60405180910390f35b3480156107a357600080fd5b506107be60048036038101906107b9919061346a565b611763565b005b3480156107cc57600080fd5b506107e760048036038101906107e2919061314c565b611779565b6040516107f59291906134aa565b60405180910390f35b34801561080a57600080fd5b5061082560048036038101906108209190613608565b61179d565b005b34801561083357600080fd5b5061083c6117ff565b60405161084991906131ba565b60405180910390f35b34801561085e57600080fd5b506108796004803603810190610874919061368b565b611825565b6040516108869190613250565b60405180910390f35b34801561089b57600080fd5b506108b660048036038101906108b1919061314c565b6118ae565b6040516108c391906130f4565b60405180910390f35b3480156108d857600080fd5b506108f360048036038101906108ee919061368b565b611965565b6040516109009190613250565b60405180910390f35b34801561091557600080fd5b50610930600480360381019061092b919061314c565b611a31565b60405161093d9190613049565b60405180910390f35b34801561095257600080fd5b5061096d6004803603810190610968919061314c565b611a54565b005b34801561097b57600080fd5b50610996600480360381019061099191906136cb565b611a9d565b6040516109a39190613049565b60405180910390f35b3480156109b857600080fd5b506109d360048036038101906109ce9190613411565b611b31565b005b3480156109e157600080fd5b506109ea611bb4565b6040516109f79190613250565b60405180910390f35b60007f780e9d63000000000000000000000000000000000000000000000000000000007bffffffffffffffffffffffffffffffffffffffffffffffffffffffff1916827bffffffffffffffffffffffffffffffffffffffffffffffffffffffff19161480610acb57507f5b5e139f000000000000000000000000000000000000000000000000000000007bffffffffffffffffffffffffffffffffffffffffffffffffffffffff1916827bffffffffffffffffffffffffffffffffffffffffffffffffffffffff1916145b80610b3357507f80ac58cd000000000000000000000000000000000000000000000000000000007bffffffffffffffffffffffffffffffffffffffffffffffffffffffff1916827bffffffffffffffffffffffffffffffffffffffffffffffffffffffff1916145b9050919050565b606060008054610b499061373a565b80601f0160208091040260200160405190810160405280929190818152602001828054610b759061373a565b8015610bc25780601f10610b9757610100808354040283529160200191610bc2565b820191906000526020600020905b815481529060010190602001808311610ba557829003601f168201915b5050505050905090565b6000610bd782611bba565b6004600083815260200190815260200160002060009054906101000a900473ffffffffffffffffffffffffffffffffffffffff169050919050565b6000610c1d826113cc565b90508073ffffffffffffffffffffffffffffffffffffffff168373ffffffffffffffffffffffffffffffffffffffff1603610c8d576040517f08c379a0000000000000000000000000000000000000000000000000000000008152600401610c84906137dd565b60405180910390fd5b8073ffffffffffffffffffffffffffffffffffffffff16610cac611c05565b73ffffffffffffffffffffffffffffffffffffffff161480610cdb5750610cda81610cd5611c05565b611a9d565b5b610d1a576040517f08c379a0000000000000000000000000000000000000000000000000000000008152600401610d119061386f565b60405180910390fd5b610d248383611c0d565b505050565b610d31611cc6565b80600f819055507f8113757de54f756eb308220e3f035727188560fd3230aaf1fbc24e5610fea1f881604051610d679190613250565b60405180910390a150565b6000600980549050905090565b600081604051602001610d929190613907565b604051602081830303815290604052805190602001209050919050565b610dc0610dba611c05565b82611d44565b610dff576040517f08c379a0000000000000000000000000000000000000000000000000000000008152600401610df69061399f565b60405180910390fd5b610e0a838383611dd9565b505050565b60115481565b610e1d611cc6565b806011819055507fce84f3dad126a2cb9d67cdca12c64dc079f7a9a1a0728c5c4e16e4b5b2e4bc4d81604051610e539190613250565b60405180910390a150565b6000610e698361147d565b8210610eaa576040517f08c379a0000000000000000000000000000000000000000000000000000000008152600401610ea190613a31565b60405180910390fd5b600760008473ffffffffffffffffffffffffffffffffffffffff1673ffffffffffffffffffffffffffffffffffffffff168152602001908152602001600020600083815260200190815260200160002054905092915050565b6000610f368787604051602001610f1b929190613a72565b60405160208183030381529060405280519060200120610d7f565b9050848114610f7a576040517f08c379a0000000000000000000000000000000000000000000000000000000008152600401610f7190613b36565b60405180910390fd5b600060018686868660405160008152602001604052604051610f9f9493929190613b65565b6020604051602081039080840390855afa158015610fc1573d6000803e3d6000fd5b505050602060405103519050600c60009054906101000a900473ffffffffffffffffffffffffffffffffffffffff1673ffffffffffffffffffffffffffffffffffffffff168173ffffffffffffffffffffffffffffffffffffffff161461105d576040517f08c379a000000000000000000000000000000000000000000000000000000000815260040161105490613c42565b60405180910390fd5b6013600087815260200190815260200160002060009054906101000a900460ff16156110be576040517f08c379a00000000000000000000000000000000000000000000000000000000081526004016110b590613cd4565b60405180910390fd5b5050505050505050565b6110d0611cc6565b806010819055507fad40b1be79d0692234d4fb1d25a47b916b4754dda8187fc0aa1271b7d7adb040816040516111069190613250565b60405180910390a150565b611119611cc6565b80600c60006101000a81548173ffffffffffffffffffffffffffffffffffffffff021916908373ffffffffffffffffffffffffffffffffffffffff1602179055508073ffffffffffffffffffffffffffffffffffffffff167f65d3e06a561c77a07da59b8b2ca10214ae08fe21cc2953a90db0ac8b5b7c437160405160405180910390a250565b60136020528060005260406000206000915054906101000a900460ff1681565b6111c8611cc6565b6002600b540361120d576040517f08c379a000000000000000000000000000000000000000000000000000000000815260040161120490613d40565b60405180910390fd5b6002600b81905550600047905060003373ffffffffffffffffffffffffffffffffffffffff168260405161124090613d91565b60006040518083038185875af1925050503d806000811461127d576040519150601f19603f3d011682016040523d82523d6000602084013e611282565b606091505b505090508061129057600080fd5b7fb6b476da71cea8275cac6b1720c04966afaff5e637472cedb6cbd32c43a23251826040516112bf9190613250565b60405180910390a150506001600b81905550565b6112ee8383836040518060200160405280600081525061179d565b505050565b6113046112fe611c05565b82611d44565b611343576040517f08c379a000000000000000000000000000000000000000000000000000000000815260040161133a9061399f565b60405180910390fd5b61134c8161203f565b50565b600d5481565b60105481565b6000611365610d72565b82106113a6576040517f08c379a000000000000000000000000000000000000000000000000000000000815260040161139d90613e18565b60405180910390fd5b600982815481106113ba576113b9613e38565b5b90600052602060002001549050919050565b6000806002600084815260200190815260200160002060009054906101000a900473ffffffffffffffffffffffffffffffffffffffff169050600073ffffffffffffffffffffffffffffffffffffffff168173ffffffffffffffffffffffffffffffffffffffff1603611474576040517f08c379a000000000000000000000000000000000000000000000000000000000815260040161146b90613eb3565b60405180910390fd5b80915050919050565b60008073ffffffffffffffffffffffffffffffffffffffff168273ffffffffffffffffffffffffffffffffffffffff16036114ed576040517f08c379a00000000000000000000000000000000000000000000000000000000081526004016114e490613f45565b60405180910390fd5b600360008373ffffffffffffffffffffffffffffffffffffffff1673ffffffffffffffffffffffffffffffffffffffff168152602001908152602001600020549050919050565b61153c611cc6565b611546600061215c565b565b6000600660009054906101000a900473ffffffffffffffffffffffffffffffffffffffff16905090565b6060600180546115819061373a565b80601f01602080910402602001604051908101604052809291908181526020018280546115ad9061373a565b80156115fa5780601f106115cf576101008083540402835291602001916115fa565b820191906000526020600020905b8154815290600101906020018083116115dd57829003601f168201915b5050505050905090565b600e5481565b6000600e600081548092919061161f90613f94565b91905055506000600e549050611639888888888888610f03565b60016013600088815260200190815260200160002060006101000a81548160ff02191690831515021790555061167081888a612222565b809150509695505050505050565b6000600e600081548092919061169390613f94565b91905055506000600e54905060006116ab3485611825565b905060006116b98286611965565b90506000341180156116cb5750803410155b61170a576040517f08c379a00000000000000000000000000000000000000000000000000000000081526004016117019061409a565b60405180910390fd5b6000811161174d576040517f08c379a000000000000000000000000000000000000000000000000000000000815260040161174490614106565b60405180910390fd5b611758838387612222565b829350505050919050565b61177561176e611c05565b8383612270565b5050565b60126020528060005260406000206000915090508060000154908060010154905082565b6117ae6117a8611c05565b83611d44565b6117ed576040517f08c379a00000000000000000000000000000000000000000000000000000000081526004016117e49061399f565b60405180910390fd5b6117f9848484846123dc565b50505050565b600c60009054906101000a900473ffffffffffffffffffffffffffffffffffffffff1681565b6000428211611869576040517f08c379a000000000000000000000000000000000000000000000000000000000815260040161186090614198565b60405180910390fd5b6000428361187791906141b8565b905060006103e8600d548361188c91906141ec565b611896919061425d565b856118a1919061425d565b9050809250505092915050565b606060006040518061048001604052806104568152602001614c1d61045691399050600061193a826118f56012600088815260200190815260200160002060010154612438565b6119146012600089815260200190815260200160002060000154612438565b6040516020016119269392919061455b565b604051602081830303815290604052612598565b90508060405160200161194d9190614604565b60405160208183030381529060405292505050919050565b60004282116119a9576040517f08c379a00000000000000000000000000000000000000000000000000000000081526004016119a090614198565b60405180910390fd5b600083116119ec576040517f08c379a00000000000000000000000000000000000000000000000000000000081526004016119e390614698565b60405180910390fd5b600042836119fa91906141b8565b905060006103e8600d548387611a1091906141ec565b611a1a91906141ec565b611a24919061425d565b9050809250505092915050565b600042601260008481526020019081526020016000206001015411159050919050565b611a5c611cc6565b80600d819055507f33e576b8e54523be9c9684e33c7144d859acb615dddc3874462fc0cc73f1ebe381604051611a929190613250565b60405180910390a150565b6000600560008473ffffffffffffffffffffffffffffffffffffffff1673ffffffffffffffffffffffffffffffffffffffff16815260200190815260200160002060008373ffffffffffffffffffffffffffffffffffffffff1673ffffffffffffffffffffffffffffffffffffffff16815260200190815260200160002060009054906101000a900460ff16905092915050565b611b39611cc6565b600073ffffffffffffffffffffffffffffffffffffffff168173ffffffffffffffffffffffffffffffffffffffff1603611ba8576040517f08c379a0000000000000000000000000000000000000000000000000000000008152600401611b9f9061472a565b60405180910390fd5b611bb18161215c565b50565b600f5481565b611bc3816126fb565b611c02576040517f08c379a0000000000000000000000000000000000000000000000000000000008152600401611bf990613eb3565b60405180910390fd5b50565b600033905090565b816004600083815260200190815260200160002060006101000a81548173ffffffffffffffffffffffffffffffffffffffff021916908373ffffffffffffffffffffffffffffffffffffffff160217905550808273ffffffffffffffffffffffffffffffffffffffff16611c80836113cc565b73ffffffffffffffffffffffffffffffffffffffff167f8c5be1e5ebec7d5bd14f71427d1e84f3dd0314c0f7b2291e5b200ac8c7c3b92560405160405180910390a45050565b611cce611c05565b73ffffffffffffffffffffffffffffffffffffffff16611cec611548565b73ffffffffffffffffffffffffffffffffffffffff1614611d42576040517f08c379a0000000000000000000000000000000000000000000000000000000008152600401611d3990614796565b60405180910390fd5b565b600080611d50836113cc565b90508073ffffffffffffffffffffffffffffffffffffffff168473ffffffffffffffffffffffffffffffffffffffff161480611d925750611d918185611a9d565b5b80611dd057508373ffffffffffffffffffffffffffffffffffffffff16611db884610bcc565b73ffffffffffffffffffffffffffffffffffffffff16145b91505092915050565b8273ffffffffffffffffffffffffffffffffffffffff16611df9826113cc565b73ffffffffffffffffffffffffffffffffffffffff1614611e4f576040517f08c379a0000000000000000000000000000000000000000000000000000000008152600401611e4690614828565b60405180910390fd5b600073ffffffffffffffffffffffffffffffffffffffff168273ffffffffffffffffffffffffffffffffffffffff1603611ebe576040517f08c379a0000000000000000000000000000000000000000000000000000000008152600401611eb5906148ba565b60405180910390fd5b611ec9838383612767565b611ed4600082611c0d565b6001600360008573ffffffffffffffffffffffffffffffffffffffff1673ffffffffffffffffffffffffffffffffffffffff1681526020019081526020016000206000828254611f2491906141b8565b925050819055506001600360008473ffffffffffffffffffffffffffffffffffffffff1673ffffffffffffffffffffffffffffffffffffffff1681526020019081526020016000206000828254611f7b91906148da565b92505081905550816002600083815260200190815260200160002060006101000a81548173ffffffffffffffffffffffffffffffffffffffff021916908373ffffffffffffffffffffffffffffffffffffffff160217905550808273ffffffffffffffffffffffffffffffffffffffff168473ffffffffffffffffffffffffffffffffffffffff167fddf252ad1be2c89b69c2b068fc378daa952ba7f163c4a11628f55a4df523b3ef60405160405180910390a461203a838383612777565b505050565b600061204a826113cc565b905061205881600084612767565b612063600083611c0d565b6001600360008373ffffffffffffffffffffffffffffffffffffffff1673ffffffffffffffffffffffffffffffffffffffff16815260200190815260200160002060008282546120b391906141b8565b925050819055506002600083815260200190815260200160002060006101000a81549073ffffffffffffffffffffffffffffffffffffffff021916905581600073ffffffffffffffffffffffffffffffffffffffff168273ffffffffffffffffffffffffffffffffffffffff167fddf252ad1be2c89b69c2b068fc378daa952ba7f163c4a11628f55a4df523b3ef60405160405180910390a461215881600084612777565b5050565b6000600660009054906101000a900473ffffffffffffffffffffffffffffffffffffffff16905081600660006101000a81548173ffffffffffffffffffffffffffffffffffffffff021916908373ffffffffffffffffffffffffffffffffffffffff1602179055508173ffffffffffffffffffffffffffffffffffffffff168173ffffffffffffffffffffffffffffffffffffffff167f8be0079c531659141344cd1fd0a4f28419497f9722a3daafe3b4186f6b6457e060405160405180910390a35050565b61222c338461277c565b604051806040016040528083815260200182815250601260008581526020019081526020016000206000820151816000015560208201518160010155905050505050565b8173ffffffffffffffffffffffffffffffffffffffff168373ffffffffffffffffffffffffffffffffffffffff16036122de576040517f08c379a00000000000000000000000000000000000000000000000000000000081526004016122d59061495a565b60405180910390fd5b80600560008573ffffffffffffffffffffffffffffffffffffffff1673ffffffffffffffffffffffffffffffffffffffff16815260200190815260200160002060008473ffffffffffffffffffffffffffffffffffffffff1673ffffffffffffffffffffffffffffffffffffffff16815260200190815260200160002060006101000a81548160ff0219169083151502179055508173ffffffffffffffffffffffffffffffffffffffff168373ffffffffffffffffffffffffffffffffffffffff167f17307eab39ab6107e8899845ad3d59bd9653f200f220920489ca2b5937696c31836040516123cf9190613049565b60405180910390a3505050565b6123e7848484611dd9565b6123f38484848461279a565b612432576040517f08c379a0000000000000000000000000000000000000000000000000000000008152600401612429906149ec565b60405180910390fd5b50505050565b60606000820361247f576040518060400160405280600181526020017f30000000000000000000000000000000000000000000000000000000000000008152509050612593565b600082905060005b600082146124b157808061249a90613f94565b915050600a826124aa919061425d565b9150612487565b60008167ffffffffffffffff8111156124cd576124cc6134dd565b5b6040519080825280601f01601f1916602001820160405280156124ff5781602001600182028036833780820191505090505b5090505b6000851461258c5760018261251891906141b8565b9150600a856125279190614a0c565b603061253391906148da565b60f81b81838151811061254957612548613e38565b5b60200101907effffffffffffffffffffffffffffffffffffffffffffffffffffffffffffff1916908160001a905350600a85612585919061425d565b9450612503565b8093505050505b919050565b606060008251036125ba576040518060200160405280600081525090506126f6565b600060405180606001604052806040815260200161507360409139905060006003600285516125e991906148da565b6125f3919061425d565b60046125ff91906141ec565b67ffffffffffffffff811115612618576126176134dd565b5b6040519080825280601f01601f19166020018201604052801561264a5781602001600182028036833780820191505090505b509050600182016020820185865187015b808210156126b6576003820191508151603f8160121c168501518453600184019350603f81600c1c168501518453600184019350603f8160061c168501518453600184019350603f811685015184536001840193505061265b565b50506003865106600181146126d257600281146126e5576126ed565b603d6001830353603d60028303536126ed565b603d60018303535b50505080925050505b919050565b60008073ffffffffffffffffffffffffffffffffffffffff166002600084815260200190815260200160002060009054906101000a900473ffffffffffffffffffffffffffffffffffffffff1673ffffffffffffffffffffffffffffffffffffffff1614159050919050565b612772838383612921565b505050565b505050565b612796828260405180602001604052806000815250612a33565b5050565b60006127bb8473ffffffffffffffffffffffffffffffffffffffff16612a8e565b15612914578373ffffffffffffffffffffffffffffffffffffffff1663150b7a026127e4611c05565b8786866040518563ffffffff1660e01b81526004016128069493929190614a87565b6020604051808303816000875af192505050801561284257506040513d601f19601f8201168201806040525081019061283f9190614ae8565b60015b6128c4573d8060008114612872576040519150601f19603f3d011682016040523d82523d6000602084013e612877565b606091505b5060008151036128bc576040517f08c379a00000000000000000000000000000000000000000000000000000000081526004016128b3906149ec565b60405180910390fd5b805181602001fd5b63150b7a0260e01b7bffffffffffffffffffffffffffffffffffffffffffffffffffffffff1916817bffffffffffffffffffffffffffffffffffffffffffffffffffffffff191614915050612919565b600190505b949350505050565b61292c838383612ab1565b600073ffffffffffffffffffffffffffffffffffffffff168373ffffffffffffffffffffffffffffffffffffffff160361296e5761296981612ab6565b6129ad565b8173ffffffffffffffffffffffffffffffffffffffff168373ffffffffffffffffffffffffffffffffffffffff16146129ac576129ab8382612aff565b5b5b600073ffffffffffffffffffffffffffffffffffffffff168273ffffffffffffffffffffffffffffffffffffffff16036129ef576129ea81612c6c565b612a2e565b8273ffffffffffffffffffffffffffffffffffffffff168273ffffffffffffffffffffffffffffffffffffffff1614612a2d57612a2c8282612d3d565b5b5b505050565b612a3d8383612dbc565b612a4a600084848461279a565b612a89576040517f08c379a0000000000000000000000000000000000000000000000000000000008152600401612a80906149ec565b60405180910390fd5b505050565b6000808273ffffffffffffffffffffffffffffffffffffffff163b119050919050565b505050565b600980549050600a600083815260200190815260200160002081905550600981908060018154018082558091505060019003906000526020600020016000909190919091505550565b60006001612b0c8461147d565b612b1691906141b8565b9050600060086000848152602001908152602001600020549050818114612bfb576000600760008673ffffffffffffffffffffffffffffffffffffffff1673ffffffffffffffffffffffffffffffffffffffff168152602001908152602001600020600084815260200190815260200160002054905080600760008773ffffffffffffffffffffffffffffffffffffffff1673ffffffffffffffffffffffffffffffffffffffff168152602001908152602001600020600084815260200190815260200160002081905550816008600083815260200190815260200160002081905550505b6008600084815260200190815260200160002060009055600760008573ffffffffffffffffffffffffffffffffffffffff1673ffffffffffffffffffffffffffffffffffffffff16815260200190815260200160002060008381526020019081526020016000206000905550505050565b60006001600980549050612c8091906141b8565b90506000600a6000848152602001908152602001600020549050600060098381548110612cb057612caf613e38565b5b906000526020600020015490508060098381548110612cd257612cd1613e38565b5b906000526020600020018190555081600a600083815260200190815260200160002081905550600a6000858152602001908152602001600020600090556009805480612d2157612d20614b15565b5b6001900381819060005260206000200160009055905550505050565b6000612d488361147d565b905081600760008573ffffffffffffffffffffffffffffffffffffffff1673ffffffffffffffffffffffffffffffffffffffff168152602001908152602001600020600083815260200190815260200160002081905550806008600084815260200190815260200160002081905550505050565b600073ffffffffffffffffffffffffffffffffffffffff168273ffffffffffffffffffffffffffffffffffffffff1603612e2b576040517f08c379a0000000000000000000000000000000000000000000000000000000008152600401612e2290614b90565b60405180910390fd5b612e34816126fb565b15612e74576040517f08c379a0000000000000000000000000000000000000000000000000000000008152600401612e6b90614bfc565b60405180910390fd5b612e8060008383612767565b6001600360008473ffffffffffffffffffffffffffffffffffffffff1673ffffffffffffffffffffffffffffffffffffffff1681526020019081526020016000206000828254612ed091906148da565b92505081905550816002600083815260200190815260200160002060006101000a81548173ffffffffffffffffffffffffffffffffffffffff021916908373ffffffffffffffffffffffffffffffffffffffff160217905550808273ffffffffffffffffffffffffffffffffffffffff16600073ffffffffffffffffffffffffffffffffffffffff167fddf252ad1be2c89b69c2b068fc378daa952ba7f163c4a11628f55a4df523b3ef60405160405180910390a4612f9160008383612777565b5050565b6000604051905090565b600080fd5b600080fd5b60007fffffffff0000000000000000000000000000000000000000000000000000000082169050919050565b612fde81612fa9565b8114612fe957600080fd5b50565b600081359050612ffb81612fd5565b92915050565b60006020828403121561301757613016612f9f565b5b600061302584828501612fec565b91505092915050565b60008115159050919050565b6130438161302e565b82525050565b600060208201905061305e600083018461303a565b92915050565b600081519050919050565b600082825260208201905092915050565b60005b8381101561309e578082015181840152602081019050613083565b60008484015250505050565b6000601f19601f8301169050919050565b60006130c682613064565b6130d0818561306f565b93506130e0818560208601613080565b6130e9816130aa565b840191505092915050565b6000602082019050818103600083015261310e81846130bb565b905092915050565b6000819050919050565b61312981613116565b811461313457600080fd5b50565b60008135905061314681613120565b92915050565b60006020828403121561316257613161612f9f565b5b600061317084828501613137565b91505092915050565b600073ffffffffffffffffffffffffffffffffffffffff82169050919050565b60006131a482613179565b9050919050565b6131b481613199565b82525050565b60006020820190506131cf60008301846131ab565b92915050565b6131de81613199565b81146131e957600080fd5b50565b6000813590506131fb816131d5565b92915050565b6000806040838503121561321857613217612f9f565b5b6000613226858286016131ec565b925050602061323785828601613137565b9150509250929050565b61324a81613116565b82525050565b60006020820190506132656000830184613241565b92915050565b6000819050919050565b61327e8161326b565b811461328957600080fd5b50565b60008135905061329b81613275565b92915050565b6000602082840312156132b7576132b6612f9f565b5b60006132c58482850161328c565b91505092915050565b6132d78161326b565b82525050565b60006020820190506132f260008301846132ce565b92915050565b60008060006060848603121561331157613310612f9f565b5b600061331f868287016131ec565b9350506020613330868287016131ec565b925050604061334186828701613137565b9150509250925092565b600060ff82169050919050565b6133618161334b565b811461336c57600080fd5b50565b60008135905061337e81613358565b92915050565b60008060008060008060c087890312156133a1576133a0612f9f565b5b60006133af89828a01613137565b96505060206133c089828a01613137565b95505060406133d189828a0161328c565b94505060606133e289828a0161336f565b93505060806133f389828a0161328c565b92505060a061340489828a0161328c565b9150509295509295509295565b60006020828403121561342757613426612f9f565b5b6000613435848285016131ec565b91505092915050565b6134478161302e565b811461345257600080fd5b50565b6000813590506134648161343e565b92915050565b6000806040838503121561348157613480612f9f565b5b600061348f858286016131ec565b92505060206134a085828601613455565b9150509250929050565b60006040820190506134bf6000830185613241565b6134cc6020830184613241565b9392505050565b600080fd5b600080fd5b7f4e487b7100000000000000000000000000000000000000000000000000000000600052604160045260246000fd5b613515826130aa565b810181811067ffffffffffffffff82111715613534576135336134dd565b5b80604052505050565b6000613547612f95565b9050613553828261350c565b919050565b600067ffffffffffffffff821115613573576135726134dd565b5b61357c826130aa565b9050602081019050919050565b82818337600083830152505050565b60006135ab6135a684613558565b61353d565b9050828152602081018484840111156135c7576135c66134d8565b5b6135d2848285613589565b509392505050565b600082601f8301126135ef576135ee6134d3565b5b81356135ff848260208601613598565b91505092915050565b6000806000806080858703121561362257613621612f9f565b5b6000613630878288016131ec565b9450506020613641878288016131ec565b935050604061365287828801613137565b925050606085013567ffffffffffffffff81111561367357613672612fa4565b5b61367f878288016135da565b91505092959194509250565b600080604083850312156136a2576136a1612f9f565b5b60006136b085828601613137565b92505060206136c185828601613137565b9150509250929050565b600080604083850312156136e2576136e1612f9f565b5b60006136f0858286016131ec565b9250506020613701858286016131ec565b9150509250929050565b7f4e487b7100000000000000000000000000000000000000000000000000000000600052602260045260246000fd5b6000600282049050600182168061375257607f821691505b6020821081036137655761376461370b565b5b50919050565b7f4552433732313a20617070726f76616c20746f2063757272656e74206f776e6560008201527f7200000000000000000000000000000000000000000000000000000000000000602082015250565b60006137c760218361306f565b91506137d28261376b565b604082019050919050565b600060208201905081810360008301526137f6816137ba565b9050919050565b7f4552433732313a20617070726f76652063616c6c6572206973206e6f7420746f60008201527f6b656e206f776e6572206e6f7220617070726f76656420666f7220616c6c0000602082015250565b6000613859603e8361306f565b9150613864826137fd565b604082019050919050565b600060208201905081810360008301526138888161384c565b9050919050565b600081905092915050565b7f19457468657265756d205369676e6564204d6573736167653a0a333200000000600082015250565b60006138d0601c8361388f565b91506138db8261389a565b601c82019050919050565b6000819050919050565b6139016138fc8261326b565b6138e6565b82525050565b6000613912826138c3565b915061391e82846138f0565b60208201915081905092915050565b7f4552433732313a2063616c6c6572206973206e6f7420746f6b656e206f776e6560008201527f72206e6f7220617070726f766564000000000000000000000000000000000000602082015250565b6000613989602e8361306f565b91506139948261392d565b604082019050919050565b600060208201905081810360008301526139b88161397c565b9050919050565b7f455243373231456e756d657261626c653a206f776e657220696e646578206f7560008201527f74206f6620626f756e6473000000000000000000000000000000000000000000602082015250565b6000613a1b602b8361306f565b9150613a26826139bf565b604082019050919050565b60006020820190508181036000830152613a4a81613a0e565b9050919050565b6000819050919050565b613a6c613a6782613116565b613a51565b82525050565b6000613a7e8285613a5b565b602082019150613a8e8284613a5b565b6020820191508190509392505050565b7f546865206d736748617368206973206e6f7420612068617368206f662074686560008201527f20657870697265734174202b2072657175657374735065724b696c6f7365636f60208201527f6e642e20204578706c61696e20796f757273656c662100000000000000000000604082015250565b6000613b2060568361306f565b9150613b2b82613a9e565b606082019050919050565b60006020820190508181036000830152613b4f81613b13565b9050919050565b613b5f8161334b565b82525050565b6000608082019050613b7a60008301876132ce565b613b876020830186613b56565b613b9460408301856132ce565b613ba160608301846132ce565b95945050505050565b7f5468697320667265654d696e7420776173206e6f74207369676e65642062792060008201527f667265654d696e745369676e65722e2020486f7720656d626172617373696e6760208201527f2e00000000000000000000000000000000000000000000000000000000000000604082015250565b6000613c2c60418361306f565b9150613c3782613baa565b606082019050919050565b60006020820190508181036000830152613c5b81613c1f565b9050919050565b7f5468697320667265654d696e742068617320616c7265616479206265656e207260008201527f656465656d65642e2020486f7720656d626172617373696e672e000000000000602082015250565b6000613cbe603a8361306f565b9150613cc982613c62565b604082019050919050565b60006020820190508181036000830152613ced81613cb1565b9050919050565b7f5265656e7472616e637947756172643a207265656e7472616e742063616c6c00600082015250565b6000613d2a601f8361306f565b9150613d3582613cf4565b602082019050919050565b60006020820190508181036000830152613d5981613d1d565b9050919050565b600081905092915050565b50565b6000613d7b600083613d60565b9150613d8682613d6b565b600082019050919050565b6000613d9c82613d6e565b9150819050919050565b7f455243373231456e756d657261626c653a20676c6f62616c20696e646578206f60008201527f7574206f6620626f756e64730000000000000000000000000000000000000000602082015250565b6000613e02602c8361306f565b9150613e0d82613da6565b604082019050919050565b60006020820190508181036000830152613e3181613df5565b9050919050565b7f4e487b7100000000000000000000000000000000000000000000000000000000600052603260045260246000fd5b7f4552433732313a20696e76616c696420746f6b656e2049440000000000000000600082015250565b6000613e9d60188361306f565b9150613ea882613e67565b602082019050919050565b60006020820190508181036000830152613ecc81613e90565b9050919050565b7f4552433732313a2061646472657373207a65726f206973206e6f74206120766160008201527f6c6964206f776e65720000000000000000000000000000000000000000000000602082015250565b6000613f2f60298361306f565b9150613f3a82613ed3565b604082019050919050565b60006020820190508181036000830152613f5e81613f22565b9050919050565b7f4e487b7100000000000000000000000000000000000000000000000000000000600052601160045260246000fd5b6000613f9f82613116565b91507fffffffffffffffffffffffffffffffffffffffffffffffffffffffffffffffff8203613fd157613fd0613f65565b5b600182019050919050565b7f596f75206d7573742073656e642074686520636f7374206f662074686973207260008201527f617465206c696d697420696e6372656173652e2020546f20636865636b20746860208201527f6520636f73742c20757365207468652063616c63756c617465436f737420667560408201527f6e6374696f6e2e00000000000000000000000000000000000000000000000000606082015250565b600061408460678361306f565b915061408f82613fdc565b608082019050919050565b600060208201905081810360008301526140b381614077565b9050919050565b7f54686520636f7374206d7573742062652067726561746572207468616e203000600082015250565b60006140f0601f8361306f565b91506140fb826140ba565b602082019050919050565b6000602082019050818103600083015261411f816140e3565b9050919050565b7f54686520657870697265734174206d75737420626520696e207468652066757460008201527f7572650000000000000000000000000000000000000000000000000000000000602082015250565b600061418260238361306f565b915061418d82614126565b604082019050919050565b600060208201905081810360008301526141b181614175565b9050919050565b60006141c382613116565b91506141ce83613116565b92508282039050818111156141e6576141e5613f65565b5b92915050565b60006141f782613116565b915061420283613116565b925082820261421081613116565b9150828204841483151761422757614226613f65565b5b5092915050565b7f4e487b7100000000000000000000000000000000000000000000000000000000600052601260045260246000fd5b600061426882613116565b915061427383613116565b9250826142835761428261422e565b5b828204905092915050565b7f7b226e616d65223a20224c69742050726f746f636f6c2052617465204c696d6960008201527f7420496e637265617365222c20226465736372697074696f6e223a202254686960208201527f73204e465420656e7469746c65732074686520686f6c64657220746f2061207260408201527f617465206c696d697420696e637265617365206f6e20746865204c697420507260608201527f6f746f636f6c204e6574776f726b222c2022696d6167655f64617461223a2022608082015250565b600061435c60a08361388f565b91506143678261428e565b60a082019050919050565b600081519050919050565b600061438882614372565b6143928185613d60565b93506143a2818560208601613080565b80840191505092915050565b7f222c2261747472696275746573223a205b7b22646973706c61795f747970652260008201527f3a202264617465222c202274726169745f74797065223a20224578706972617460208201527f696f6e2044617465222c202276616c7565223a20000000000000000000000000604082015250565b600061443060548361388f565b915061443b826143ae565b605482019050919050565b600061445182613064565b61445b818561388f565b935061446b818560208601613080565b80840191505092915050565b7f7d2c207b22646973706c61795f74797065223a20226e756d626572222c20227460008201527f726169745f74797065223a20224d696c6c69726571756573747320506572205360208201527f65636f6e64222c202276616c7565223a20000000000000000000000000000000604082015250565b60006144f960518361388f565b915061450482614477565b605182019050919050565b7f7d5d7d0000000000000000000000000000000000000000000000000000000000600082015250565b600061454560038361388f565b91506145508261450f565b600382019050919050565b60006145668261434f565b9150614572828661437d565b915061457d82614423565b91506145898285614446565b9150614594826144ec565b91506145a08284614446565b91506145ab82614538565b9150819050949350505050565b7f646174613a6170706c69636174696f6e2f6a736f6e3b6261736536342c000000600082015250565b60006145ee601d8361388f565b91506145f9826145b8565b601d82019050919050565b600061460f826145e1565b915061461b8284614446565b915081905092915050565b7f5468652072657175657374735065724b696c6f7365636f6e64206d757374206260008201527f652067726561746572207468616e203000000000000000000000000000000000602082015250565b600061468260308361306f565b915061468d82614626565b604082019050919050565b600060208201905081810360008301526146b181614675565b9050919050565b7f4f776e61626c653a206e6577206f776e657220697320746865207a65726f206160008201527f6464726573730000000000000000000000000000000000000000000000000000602082015250565b600061471460268361306f565b915061471f826146b8565b604082019050919050565b6000602082019050818103600083015261474381614707565b9050919050565b7f4f776e61626c653a2063616c6c6572206973206e6f7420746865206f776e6572600082015250565b600061478060208361306f565b915061478b8261474a565b602082019050919050565b600060208201905081810360008301526147af81614773565b9050919050565b7f4552433732313a207472616e736665722066726f6d20696e636f72726563742060008201527f6f776e6572000000000000000000000000000000000000000000000000000000602082015250565b600061481260258361306f565b915061481d826147b6565b604082019050919050565b6000602082019050818103600083015261484181614805565b9050919050565b7f4552433732313a207472616e7366657220746f20746865207a65726f2061646460008201527f7265737300000000000000000000000000000000000000000000000000000000602082015250565b60006148a460248361306f565b91506148af82614848565b604082019050919050565b600060208201905081810360008301526148d381614897565b9050919050565b60006148e582613116565b91506148f083613116565b925082820190508082111561490857614907613f65565b5b92915050565b7f4552433732313a20617070726f766520746f2063616c6c657200000000000000600082015250565b600061494460198361306f565b915061494f8261490e565b602082019050919050565b6000602082019050818103600083015261497381614937565b9050919050565b7f4552433732313a207472616e7366657220746f206e6f6e20455243373231526560008201527f63656976657220696d706c656d656e7465720000000000000000000000000000602082015250565b60006149d660328361306f565b91506149e18261497a565b604082019050919050565b60006020820190508181036000830152614a05816149c9565b9050919050565b6000614a1782613116565b9150614a2283613116565b925082614a3257614a3161422e565b5b828206905092915050565b600082825260208201905092915050565b6000614a5982614372565b614a638185614a3d565b9350614a73818560208601613080565b614a7c816130aa565b840191505092915050565b6000608082019050614a9c60008301876131ab565b614aa960208301866131ab565b614ab66040830185613241565b8181036060830152614ac88184614a4e565b905095945050505050565b600081519050614ae281612fd5565b92915050565b600060208284031215614afe57614afd612f9f565b5b6000614b0c84828501614ad3565b91505092915050565b7f4e487b7100000000000000000000000000000000000000000000000000000000600052603160045260246000fd5b7f4552433732313a206d696e7420746f20746865207a65726f2061646472657373600082015250565b6000614b7a60208361306f565b9150614b8582614b44565b602082019050919050565b60006020820190508181036000830152614ba981614b6d565b9050919050565b7f4552433732313a20746f6b656e20616c7265616479206d696e74656400000000600082015250565b6000614be6601c8361306f565b9150614bf182614bb0565b602082019050919050565b60006020820190508181036000830152614c1581614bd9565b905091905056fe3c73766720786d6c6e733d27687474703a2f2f7777772e77332e6f72672f323030302f737667272077696474683d273130383027206865696768743d2731303830272066696c6c3d276e6f6e652720786d6c6e733a763d2768747470733a2f2f76656374612e696f2f6e616e6f273e3c7061746820643d274d3336332e303736203339322e323237732d2e3937372031382e3532342d33362e3837342037382e393437632d34312e3537362037302e3031382d34352e343831203135312e3937382d332e303137203232302e342038392e353231203134342e323435203333322e343831203134312e3532203432322e3535362e3038392033342e3833322d35342e3730372034342e3831362d3131372e3437392033322e3932342d3138312e323438203020302d32382e3831392d3133332e3134342d3132372e3233372d3231372e30393920312e35353320312e33303820352e3336392031392e31323220362e3130312032362e37323220322e3234312032332e3335342e3034352034372e3833382d372e3738372037302e3036322d352e3734362031362e33332d31332e3731312033302e3436372d32372e3137382034312e33363820302d332e3831312d2e3935342d31302e3633352d2e3937362d31322e3931382d2e3634342d34362e3530382d31382e3635392d38392e3538322d34382e3031312d3132352e3734332d32352e3634372d33312e3535322d36302e3831322d35332e3038392d39372e38342d36382e3933322e39333120332e31393120322e3636322031362e34313920322e3930362031392e30333320312e3930382032312e39353820322e3236332035322e3731332d2e3632312037342e363439732d372e3833322033332e3837382d31342e3535342035342e343431632d31302e3138342033312e3137352d32342e30352035342e3238352d34312e3632312038322e3030342d332e323420352e3039362d31322e3931332031392e3037382d31382e3038322032362e313436203020302d382e3839372d35362e3139312d34302e3636372d38372e393231682d2e3032327a272066696c6c3d2723303030272f3e3c7061746820643d274d3536322e352032372e32386c3431302e323739203233362e3837346331332e39323320382e3033392032322e352032322e3839352032322e352033382e393731763437332e373563302031362e3037362d382e3537372033302e3933322d32322e352033382e3937314c3536322e3520313035322e3732632d31332e39323320382e30342d33312e30373720382e30342d343520304c3130372e323231203831352e383436632d31332e3932332d382e3033392d32322e352d32322e3839352d32322e352d33382e393731762d3437332e37356134352034352030203020312032322e352d33382e3937314c3531372e352032372e323861343520343520302030203120343520307a27207374726f6b653d272330303027207374726f6b652d77696474683d2732342e3735272f3e3c2f7376673e4142434445464748494a4b4c4d4e4f505152535455565758595a6162636465666768696a6b6c6d6e6f707172737475767778797a303132333435363738392b2fa2646970667358221220ecc801a12a2e0d1a5a908de9b115e4e66d0edb56127ab1ebade4880c38348ab564736f6c6343000811003352617465204c696d697420496e63726561736573206f6e204c69742050726f746f636f6c","abi":[{"inputs":[],"stateMutability":"nonpayable","type":"constructor"},{"anonymous":false,"inputs":[{"indexed":false,"internalType":"uint256","name":"newAdditionalRequestsPerKilosecondCost","type":"uint256"}],"name":"AdditionalRequestsPerKilosecondCostSet","type":"event"},{"anonymous":false,"inputs":[{"indexed":true,"internalType":"address","name":"owner","type":"address"},{"indexed":true,"internalType":"address","name":"approved","type":"address"},{"indexed":true,"internalType":"uint256","name":"tokenId","type":"uint256"}],"name":"Approval","type":"event"},{"anonymous":false,"inputs":[{"indexed":true,"internalType":"address","name":"owner","type":"address"},{"indexed":true,"internalType":"address","name":"operator","type":"address"},{"indexed":false,"internalType":"bool","name":"approved","type":"bool"}],"name":"ApprovalForAll","type":"event"},{"anonymous":false,"inputs":[{"indexed":true,"internalType":"address","name":"newFreeMintSigner","type":"address"}],"name":"FreeMintSignerSet","type":"event"},{"anonymous":false,"inputs":[{"indexed":false,"internalType":"uint256","name":"newFreeRequestsPerRateLimitWindow","type":"uint256"}],"name":"FreeRequestsPerRateLimitWindowSet","type":"event"},{"anonymous":false,"inputs":[{"indexed":true,"internalType":"address","name":"previousOwner","type":"address"},{"indexed":true,"internalType":"address","name":"newOwner","type":"address"}],"name":"OwnershipTransferred","type":"event"},{"anonymous":false,"inputs":[{"indexed":false,"internalType":"uint256","name":"newRLIHolderRateLimitWindowSeconds","type":"uint256"}],"name":"RLIHolderRateLimitWindowSecondsSet","type":"event"},{"anonymous":false,"inputs":[{"indexed":false,"internalType":"uint256","name":"newRateLimitWindowSeconds","type":"uint256"}],"name":"RateLimitWindowSecondsSet","type":"event"},{"anonymous":false,"inputs":[{"indexed":true,"internalType":"address","name":"from","type":"address"},{"indexed":true,"internalType":"address","name":"to","type":"address"},{"indexed":true,"internalType":"uint256","name":"tokenId","type":"uint256"}],"name":"Transfer","type":"event"},{"anonymous":false,"inputs":[{"indexed":false,"internalType":"uint256","name":"amount","type":"uint256"}],"name":"Withdrew","type":"event"},{"inputs":[],"name":"RLIHolderRateLimitWindowSeconds","outputs":[{"internalType":"uint256","name":"","type":"uint256"}],"stateMutability":"view","type":"function"},{"inputs":[],"name":"additionalRequestsPerKilosecondCost","outputs":[{"internalType":"uint256","name":"","type":"uint256"}],"stateMutability":"view","type":"function"},{"inputs":[{"internalType":"address","name":"to","type":"address"},{"internalType":"uint256","name":"tokenId","type":"uint256"}],"name":"approve","outputs":[],"stateMutability":"nonpayable","type":"function"},{"inputs":[{"internalType":"address","name":"owner","type":"address"}],"name":"balanceOf","outputs":[{"internalType":"uint256","name":"","type":"uint256"}],"stateMutability":"view","type":"function"},{"inputs":[{"internalType":"uint256","name":"tokenId","type":"uint256"}],"name":"burn","outputs":[],"stateMutability":"nonpayable","type":"function"},{"inputs":[{"internalType":"uint256","name":"requestsPerKilosecond","type":"uint256"},{"internalType":"uint256","name":"expiresAt","type":"uint256"}],"name":"calculateCost","outputs":[{"internalType":"uint256","name":"","type":"uint256"}],"stateMutability":"view","type":"function"},{"inputs":[{"internalType":"uint256","name":"payingAmount","type":"uint256"},{"internalType":"uint256","name":"expiresAt","type":"uint256"}],"name":"calculateRequestsPerKilosecond","outputs":[{"internalType":"uint256","name":"","type":"uint256"}],"stateMutability":"view","type":"function"},{"inputs":[{"internalType":"uint256","name":"","type":"uint256"}],"name":"capacity","outputs":[{"internalType":"uint256","name":"requestsPerKilosecond","type":"uint256"},{"internalType":"uint256","name":"expiresAt","type":"uint256"}],"stateMutability":"view","type":"function"},{"inputs":[],"name":"defaultRateLimitWindowSeconds","outputs":[{"internalType":"uint256","name":"","type":"uint256"}],"stateMutability":"view","type":"function"},{"inputs":[{"internalType":"uint256","name":"expiresAt","type":"uint256"},{"internalType":"uint256","name":"requestsPerKilosecond","type":"uint256"},{"internalType":"bytes32","name":"msgHash","type":"bytes32"},{"internalType":"uint8","name":"v","type":"uint8"},{"internalType":"bytes32","name":"r","type":"bytes32"},{"internalType":"bytes32","name":"s","type":"bytes32"}],"name":"freeMint","outputs":[{"internalType":"uint256","name":"","type":"uint256"}],"stateMutability":"nonpayable","type":"function"},{"inputs":[{"internalType":"uint256","name":"expiresAt","type":"uint256"},{"internalType":"uint256","name":"requestsPerKilosecond","type":"uint256"},{"internalType":"bytes32","name":"msgHash","type":"bytes32"},{"internalType":"uint8","name":"v","type":"uint8"},{"internalType":"bytes32","name":"r","type":"bytes32"},{"internalType":"bytes32","name":"s","type":"bytes32"}],"name":"freeMintSigTest","outputs":[],"stateMutability":"view","type":"function"},{"inputs":[],"name":"freeMintSigner","outputs":[{"internalType":"address","name":"","type":"address"}],"stateMutability":"view","type":"function"},{"inputs":[],"name":"freeRequestsPerRateLimitWindow","outputs":[{"internalType":"uint256","name":"","type":"uint256"}],"stateMutability":"view","type":"function"},{"inputs":[{"internalType":"uint256","name":"tokenId","type":"uint256"}],"name":"getApproved","outputs":[{"internalType":"address","name":"","type":"address"}],"stateMutability":"view","type":"function"},{"inputs":[{"internalType":"address","name":"owner","type":"address"},{"internalType":"address","name":"operator","type":"address"}],"name":"isApprovedForAll","outputs":[{"internalType":"bool","name":"","type":"bool"}],"stateMutability":"view","type":"function"},{"inputs":[{"internalType":"uint256","name":"tokenId","type":"uint256"}],"name":"isExpired","outputs":[{"internalType":"bool","name":"","type":"bool"}],"stateMutability":"view","type":"function"},{"inputs":[{"internalType":"uint256","name":"expiresAt","type":"uint256"}],"name":"mint","outputs":[{"internalType":"uint256","name":"","type":"uint256"}],"stateMutability":"payable","type":"function"},{"inputs":[],"name":"name","outputs":[{"internalType":"string","name":"","type":"string"}],"stateMutability":"view","type":"function"},{"inputs":[],"name":"owner","outputs":[{"internalType":"address","name":"","type":"address"}],"stateMutability":"view","type":"function"},{"inputs":[{"internalType":"uint256","name":"tokenId","type":"uint256"}],"name":"ownerOf","outputs":[{"internalType":"address","name":"","type":"address"}],"stateMutability":"view","type":"function"},{"inputs":[{"internalType":"bytes32","name":"hash","type":"bytes32"}],"name":"prefixed","outputs":[{"internalType":"bytes32","name":"","type":"bytes32"}],"stateMutability":"pure","type":"function"},{"inputs":[{"internalType":"bytes32","name":"","type":"bytes32"}],"name":"redeemedFreeMints","outputs":[{"internalType":"bool","name":"","type":"bool"}],"stateMutability":"view","type":"function"},{"inputs":[],"name":"renounceOwnership","outputs":[],"stateMutability":"nonpayable","type":"function"},{"inputs":[{"internalType":"address","name":"from","type":"address"},{"internalType":"address","name":"to","type":"address"},{"internalType":"uint256","name":"tokenId","type":"uint256"}],"name":"safeTransferFrom","outputs":[],"stateMutability":"nonpayable","type":"function"},{"inputs":[{"internalType":"address","name":"from","type":"address"},{"internalType":"address","name":"to","type":"address"},{"internalType":"uint256","name":"tokenId","type":"uint256"},{"internalType":"bytes","name":"data","type":"bytes"}],"name":"safeTransferFrom","outputs":[],"stateMutability":"nonpayable","type":"function"},{"inputs":[{"internalType":"uint256","name":"newAdditionalRequestsPerKilosecondCost","type":"uint256"}],"name":"setAdditionalRequestsPerKilosecondCost","outputs":[],"stateMutability":"nonpayable","type":"function"},{"inputs":[{"internalType":"address","name":"operator","type":"address"},{"internalType":"bool","name":"approved","type":"bool"}],"name":"setApprovalForAll","outputs":[],"stateMutability":"nonpayable","type":"function"},{"inputs":[{"internalType":"address","name":"newFreeMintSigner","type":"address"}],"name":"setFreeMintSigner","outputs":[],"stateMutability":"nonpayable","type":"function"},{"inputs":[{"internalType":"uint256","name":"newFreeRequestsPerRateLimitWindow","type":"uint256"}],"name":"setFreeRequestsPerRateLimitWindow","outputs":[],"stateMutability":"nonpayable","type":"function"},{"inputs":[{"internalType":"uint256","name":"newRLIHolderRateLimitWindowSeconds","type":"uint256"}],"name":"setRLIHolderRateLimitWindowSeconds","outputs":[],"stateMutability":"nonpayable","type":"function"},{"inputs":[{"internalType":"uint256","name":"newRateLimitWindowSeconds","type":"uint256"}],"name":"setRateLimitWindowSeconds","outputs":[],"stateMutability":"nonpayable","type":"function"},{"inputs":[{"internalType":"bytes4","name":"interfaceId","type":"bytes4"}],"name":"supportsInterface","outputs":[{"internalType":"bool","name":"","type":"bool"}],"stateMutability":"view","type":"function"},{"inputs":[],"name":"symbol","outputs":[{"internalType":"string","name":"","type":"string"}],"stateMutability":"view","type":"function"},{"inputs":[{"internalType":"uint256","name":"index","type":"uint256"}],"name":"tokenByIndex","outputs":[{"internalType":"uint256","name":"","type":"uint256"}],"stateMutability":"view","type":"function"},{"inputs":[],"name":"tokenIdCounter","outputs":[{"internalType":"uint256","name":"","type":"uint256"}],"stateMutability":"view","type":"function"},{"inputs":[{"internalType":"address","name":"owner","type":"address"},{"internalType":"uint256","name":"index","type":"uint256"}],"name":"tokenOfOwnerByIndex","outputs":[{"internalType":"uint256","name":"","type":"uint256"}],"stateMutability":"view","type":"function"},{"inputs":[{"internalType":"uint256","name":"tokenId","type":"uint256"}],"name":"tokenURI","outputs":[{"internalType":"string","name":"","type":"string"}],"stateMutability":"view","type":"function"},{"inputs":[],"name":"totalSupply","outputs":[{"internalType":"uint256","name":"","type":"uint256"}],"stateMutability":"view","type":"function"},{"inputs":[{"internalType":"address","name":"from","type":"address"},{"internalType":"address","name":"to","type":"address"},{"internalType":"uint256","name":"tokenId","type":"uint256"}],"name":"transferFrom","outputs":[],"stateMutability":"nonpayable","type":"function"},{"inputs":[{"internalType":"address","name":"newOwner","type":"address"}],"name":"transferOwnership","outputs":[],"stateMutability":"nonpayable","type":"function"},{"inputs":[],"name":"withdraw","outputs":[],"stateMutability":"nonpayable","type":"function"}]}