{"address":"0x2Be79261f706312F1F5855059f57Fd298F8e0646","bytecode":"0x60806040526000600160156101000a81548160ff021916908360048111156200002d576200002c6200039f565b5b02179055503480156200003f57600080fd5b5060405162005e0438038062005e04833981810160405281019062000065919062000438565b60016000819055506000600160006101000a81548160ff021916908315150217905550620000a86200009c620002d460201b60201c565b620002dc60201b60201c565b80600260006101000a81548173ffffffffffffffffffffffffffffffffffffffff021916908373ffffffffffffffffffffffffffffffffffffffff1602179055506040518060a001604052806050815260200160018152602001600143620001119190620004a3565b8152602001600081526020016050815250600360008201518160000155602082015181600101556040820151816002015560608201518160030155608082015181600401559050506014600260009054906101000a900473ffffffffffffffffffffffffffffffffffffffff1673ffffffffffffffffffffffffffffffffffffffff1663313ce5676040518163ffffffff1660e01b8152600401602060405180830381865afa158015620001c9573d6000803e3d6000fd5b505050506040513d601f19601f82011682018060405250810190620001ef91906200051c565b600a620001fd9190620006a2565b62000209919062000722565b600881905550600260009054906101000a900473ffffffffffffffffffffffffffffffffffffffff1673ffffffffffffffffffffffffffffffffffffffff1663313ce5676040518163ffffffff1660e01b8152600401602060405180830381865afa1580156200027d573d6000803e3d6000fd5b505050506040513d601f19601f82011682018060405250810190620002a391906200051c565b600a620002b19190620006a2565b6001620002bf91906200075a565b6009819055506000600b8190555050620007a5565b600033905090565b600060018054906101000a900473ffffffffffffffffffffffffffffffffffffffff169050816001806101000a81548173ffffffffffffffffffffffffffffffffffffffff021916908373ffffffffffffffffffffffffffffffffffffffff1602179055508173ffffffffffffffffffffffffffffffffffffffff168173ffffffffffffffffffffffffffffffffffffffff167f8be0079c531659141344cd1fd0a4f28419497f9722a3daafe3b4186f6b6457e060405160405180910390a35050565b7f4e487b7100000000000000000000000000000000000000000000000000000000600052602160045260246000fd5b600080fd5b600073ffffffffffffffffffffffffffffffffffffffff82169050919050565b60006200040082620003d3565b9050919050565b6200041281620003f3565b81146200041e57600080fd5b50565b600081519050620004328162000407565b92915050565b600060208284031215620004515762000450620003ce565b5b6000620004618482850162000421565b91505092915050565b6000819050919050565b7f4e487b7100000000000000000000000000000000000000000000000000000000600052601160045260246000fd5b6000620004b0826200046a565b9150620004bd836200046a565b9250828201905080821115620004d857620004d762000474565b5b92915050565b600060ff82169050919050565b620004f681620004de565b81146200050257600080fd5b50565b6000815190506200051681620004eb565b92915050565b600060208284031215620005355762000534620003ce565b5b6000620005458482850162000505565b91505092915050565b60008160011c9050919050565b6000808291508390505b6001851115620005ad5780860481111562000585576200058462000474565b5b6001851615620005955780820291505b8081029050620005a5856200054e565b945062000565565b94509492505050565b600082620005c857600190506200069b565b81620005d857600090506200069b565b8160018114620005f15760028114620005fc5762000632565b60019150506200069b565b60ff84111562000611576200061062000474565b5b8360020a9150848211156200062b576200062a62000474565b5b506200069b565b5060208310610133831016604e8410600b84101617156200066c5782820a90508381111562000666576200066562000474565b5b6200069b565b6200067b84848460016200055b565b9250905081840481111562000695576200069462000474565b5b81810290505b9392505050565b6000620006af826200046a565b9150620006bc83620004de565b9250620006eb7fffffffffffffffffffffffffffffffffffffffffffffffffffffffffffffffff8484620005b6565b905092915050565b7f4e487b7100000000000000000000000000000000000000000000000000000000600052601260045260246000fd5b60006200072f826200046a565b91506200073c836200046a565b9250826200074f576200074e620006f3565b5b828204905092915050565b600062000767826200046a565b915062000774836200046a565b925082820262000784816200046a565b915082820484148315176200079e576200079d62000474565b5b5092915050565b61564f80620007b56000396000f3fe608060405234801561001057600080fd5b506004361061030c5760003560e01c8063857b76631161019d578063ba3bd22e116100e9578063e587b8a7116100a2578063f1887fec1161007c578063f1887fec14610872578063f2fde38b14610890578063f48d2a27146108ac578063fa52c7d8146108ca5761030c565b8063e587b8a71461082e578063e9fad8ee1461084a578063ec5ffac2146108545761030c565b8063ba3bd22e146107a4578063bee36e9c146107c0578063c006e00b146107ca578063c19d93fb146107d4578063c35d4d09146107f2578063dd21d626146108105761030c565b8063988ac27911610156578063ac2f8afe11610130578063ac2f8afe14610754578063b139603c1461075e578063b6688e0014610768578063b9ce6638146107865761030c565b8063988ac279146106fe578063a4c569b91461071a578063a694fc3a146107385761030c565b8063857b76631461064a578063865419e9146106685780638b80d833146106845780638d2b9c81146106a05780638da5cb5b146106be578063900cf0cf146106dc5761030c565b80634927a1431161025c57806370a082311161021557806372f702f3116101ef57806372f702f3146105c25780637aa086e7146105e0578063817b1cd2146105fc578063847e06251461061a5761030c565b806370a082311461055757806370fe276a14610587578063715018a6146105b85761030c565b80634927a143146104715780634f8f0102146104a15780635081f66f146104bd578063519877eb146104ed57806354eea7961461051d5780635c975abb146105395761030c565b80632e1a7d4d116102c95780633d18b912116102a35780633d18b912146103ff5780633f8197131461040957806340550a1c14610425578063455b0de6146104555761030c565b80632e1a7d4d146103bd5780633528db88146103d95780633cf80e6c146103f55761030c565b8063063d82391461031157806316930f4d1461032f5780631d62ebd9146103395780631e9b12ef146103695780631fab87c414610385578063233e9903146103a1575b600080fd5b610319610901565b6040516103269190613c4d565b60405180910390f35b610337610907565b005b610353600480360381019061034e9190613cd0565b610a75565b6040516103609190613c4d565b60405180910390f35b610383600480360381019061037e9190613cd0565b610ac1565b005b61039f600480360381019061039a9190613d29565b610b44565b005b6103bb60048036038101906103b69190613d29565b610b90565b005b6103d760048036038101906103d29190613d29565b610bd9565b005b6103f360048036038101906103ee9190613dda565b610eea565b005b6103fd61143f565b005b610407611888565b005b610423600480360381019061041e9190613e8c565b611a68565b005b61043f600480360381019061043a9190613cd0565b611ad4565b60405161044c9190613ed4565b60405180910390f35b61046f600480360381019061046a9190613d29565b611af1565b005b61048b60048036038101906104869190613eef565b611b3a565b6040516104989190613c4d565b60405180910390f35b6104bb60048036038101906104b69190613dda565b611b65565b005b6104d760048036038101906104d29190613cd0565b611db7565b6040516104e49190613f3e565b60405180910390f35b61050760048036038101906105029190613cd0565b611dea565b6040516105149190613ed4565b60405180910390f35b61053760048036038101906105329190613d29565b611e0a565b005b610541611e56565b60405161054e9190613ed4565b60405180910390f35b610571600480360381019061056c9190613cd0565b611e6d565b60405161057e9190613c4d565b60405180910390f35b6105a1600480360381019061059c9190613f59565b611eb9565b6040516105af929190613fac565b60405180910390f35b6105c0611f71565b005b6105ca611f85565b6040516105d79190614034565b60405180910390f35b6105fa60048036038101906105f59190613cd0565b611fab565b005b610604612084565b6040516106119190613c4d565b60405180910390f35b610634600480360381019061062f9190613cd0565b61208a565b6040516106419190613ed4565b60405180910390f35b61065261210b565b60405161065f919061410d565b60405180910390f35b610682600480360381019061067d9190614194565b6121f9565b005b61069e60048036038101906106999190614208565b6127eb565b005b6106a8612999565b6040516106b59190613ed4565b60405180910390f35b6106c66129d7565b6040516106d39190613f3e565b60405180910390f35b6106e46129ff565b6040516106f5959493929190614248565b60405180910390f35b61071860048036038101906107139190613cd0565b612a23565b005b610722612aa6565b60405161072f9190613ed4565b60405180910390f35b610752600480360381019061074d9190613d29565b612ae3565b005b61075c612ce1565b005b610766612e9b565b005b610770612f08565b60405161077d9190613f3e565b60405180910390f35b61078e612f2e565b60405161079b9190613c4d565b60405180910390f35b6107be60048036038101906107b9919061429b565b612f34565b005b6107c8612f5c565b005b6107d26131f2565b005b6107dc6133e6565b6040516107e991906143b4565b60405180910390f35b6107fa6133f9565b604051610807919061410d565b60405180910390f35b6108186134e7565b6040516108259190613c4d565b60405180910390f35b61084860048036038101906108439190613d29565b61352b565b005b610852613574565b005b61085c6135c9565b6040516108699190613c4d565b60405180910390f35b61087a6135cf565b6040516108879190613ed4565b60405180910390f35b6108aa60048036038101906108a59190613cd0565b61369a565b005b6108b461371d565b6040516108c19190613ed4565b60405180910390f35b6108e460048036038101906108df9190613cd0565b61375b565b6040516108f89897969594939291906143ed565b60405180910390f35b60085481565b60036002015443101561094f576040517f08c379a0000000000000000000000000000000000000000000000000000000008152600401610946906144ee565b60405180910390fd5b600060048111156109635761096261433d565b5b600160159054906101000a900460ff1660048111156109855761098461433d565b5b14806109c45750600360048111156109a05761099f61433d565b5b600160159054906101000a900460ff1660048111156109c2576109c161433d565b5b145b610a03576040517f08c379a00000000000000000000000000000000000000000000000000000000081526004016109fa90614580565b60405180910390fd5b60018060156101000a81548160ff02191690836004811115610a2857610a2761433d565b5b02179055507f551dc40198cc79684bb69e4931dba4ac16e4598792ee1c0a5000aeea366d7bb6600160159054906101000a900460ff16604051610a6b91906143b4565b60405180910390a1565b6000601260008373ffffffffffffffffffffffffffffffffffffffff1673ffffffffffffffffffffffffffffffffffffffff168152602001908152602001600020600301549050919050565b610ac96137ff565b80600260006101000a81548173ffffffffffffffffffffffffffffffffffffffff021916908373ffffffffffffffffffffffffffffffffffffffff1602179055507f9904a32444ae0eb0bae2045baf588aa248f03f4fef600c18afd1d7e751614af881604051610b399190613f3e565b60405180910390a150565b610b4c6137ff565b806003600401819055507f887fed3a9270ffbbf863d640a07413b6f58cf97afaa9d7267693e962a76bd81081604051610b859190613c4d565b60405180910390a150565b610b986137ff565b806009819055507fe933824a81d0b6aa53640e0e8df82b08c3f5297409b86d5beb73c41253518b2981604051610bce9190613c4d565b60405180910390a150565b600260005403610c1e576040517f08c379a0000000000000000000000000000000000000000000000000000000008152600401610c15906145ec565b60405180910390fd5b600260008190555060008111610c69576040517f08c379a0000000000000000000000000000000000000000000000000000000008152600401610c6090614658565b60405180910390fd5b60001515610c8133600c61387d90919063ffffffff16565b151514610cc3576040517f08c379a0000000000000000000000000000000000000000000000000000000008152600401610cba90614736565b60405180910390fd5b80601260003373ffffffffffffffffffffffffffffffffffffffff1673ffffffffffffffffffffffffffffffffffffffff168152602001908152602001600020600201541015610d48576040517f08c379a0000000000000000000000000000000000000000000000000000000008152600401610d3f906147a2565b60405180910390fd5b80600a54610d5691906147f1565b600a8190555080601260003373ffffffffffffffffffffffffffffffffffffffff1673ffffffffffffffffffffffffffffffffffffffff16815260200190815260200160002060020154610daa91906147f1565b601260003373ffffffffffffffffffffffffffffffffffffffff1673ffffffffffffffffffffffffffffffffffffffff16815260200190815260200160002060020181905550600260009054906101000a900473ffffffffffffffffffffffffffffffffffffffff1673ffffffffffffffffffffffffffffffffffffffff1663a9059cbb33836040518363ffffffff1660e01b8152600401610e4d929190614825565b6020604051808303816000875af1158015610e6c573d6000803e3d6000fd5b505050506040513d601f19601f82011682018060405250810190610e90919061487a565b503373ffffffffffffffffffffffffffffffffffffffff167f7084f5476618d8e60b11ef0d7d3f06914655adb8793e28ff7f018d4c76d505d582604051610ed79190613c4d565b60405180910390a2600160008190555050565b600260005403610f2f576040517f08c379a0000000000000000000000000000000000000000000000000000000008152600401610f26906145ec565b60405180910390fd5b60026000819055506000601260003373ffffffffffffffffffffffffffffffffffffffff1673ffffffffffffffffffffffffffffffffffffffff168152602001908152602001600020600201549050600954811015610fc3576040517f08c379a0000000000000000000000000000000000000000000000000000000008152600401610fba90614919565b60405180910390fd5b60006004811115610fd757610fd661433d565b5b600160159054906101000a900460ff166004811115610ff957610ff861433d565b5b14806110385750600360048111156110145761101361433d565b5b600160159054906101000a900460ff1660048111156110365761103561433d565b5b145b8061107557506004808111156110515761105061433d565b5b600160159054906101000a900460ff1660048111156110735761107261433d565b5b145b6110b4576040517f08c379a00000000000000000000000000000000000000000000000000000000081526004016110ab906149ab565b60405180910390fd5b600015156110cc33601061387d90919063ffffffff16565b15151461110e576040517f08c379a000000000000000000000000000000000000000000000000000000000815260040161110590614a3d565b60405180910390fd5b86601260003373ffffffffffffffffffffffffffffffffffffffff1673ffffffffffffffffffffffffffffffffffffffff16815260200190815260200160002060000160006101000a81548163ffffffff021916908363ffffffff16021790555085601260003373ffffffffffffffffffffffffffffffffffffffff1673ffffffffffffffffffffffffffffffffffffffff16815260200190815260200160002060000160046101000a8154816fffffffffffffffffffffffffffffffff02191690836fffffffffffffffffffffffffffffffff16021790555084601260003373ffffffffffffffffffffffffffffffffffffffff1673ffffffffffffffffffffffffffffffffffffffff16815260200190815260200160002060000160146101000a81548163ffffffff021916908363ffffffff16021790555083601260003373ffffffffffffffffffffffffffffffffffffffff1673ffffffffffffffffffffffffffffffffffffffff16815260200190815260200160002060010160006101000a81548173ffffffffffffffffffffffffffffffffffffffff021916908373ffffffffffffffffffffffffffffffffffffffff16021790555082601260003373ffffffffffffffffffffffffffffffffffffffff1673ffffffffffffffffffffffffffffffffffffffff1681526020019081526020016000206004018190555081601260003373ffffffffffffffffffffffffffffffffffffffff1673ffffffffffffffffffffffffffffffffffffffff1681526020019081526020016000206005018190555033601360008673ffffffffffffffffffffffffffffffffffffffff1673ffffffffffffffffffffffffffffffffffffffff16815260200190815260200160002060006101000a81548173ffffffffffffffffffffffffffffffffffffffff021916908373ffffffffffffffffffffffffffffffffffffffff1602179055506113ea33600e6138ad90919063ffffffff16565b503373ffffffffffffffffffffffffffffffffffffffff167f1dc186bd4daaf3fc4b9f8c689228a0be60dd2952dc502829514ae0d6955c0f5160405160405180910390a2506001600081905550505050505050565b600360020154431015611487576040517f08c379a000000000000000000000000000000000000000000000000000000000815260040161147e906144ee565b60405180910390fd5b6002600481111561149b5761149a61433d565b5b600160159054906101000a900460ff1660048111156114bd576114bc61433d565b5b146114fd576040517f08c379a00000000000000000000000000000000000000000000000000000000081526004016114f490614acf565b60405180910390fd5b600115156115096135cf565b15151461154b576040517f08c379a000000000000000000000000000000000000000000000000000000000815260040161154290614b61565b60405180910390fd5b6000611557600c6138dd565b905060005b818110156116df57600061157a82600c6138f290919063ffffffff16565b9050600260009054906101000a900473ffffffffffffffffffffffffffffffffffffffff1673ffffffffffffffffffffffffffffffffffffffff1663313ce5676040518163ffffffff1660e01b8152600401602060405180830381865afa1580156115e9573d6000803e3d6000fd5b505050506040513d601f19601f8201168201806040525081019061160d9190614bba565b600a6116199190614d1a565b601260008373ffffffffffffffffffffffffffffffffffffffff1673ffffffffffffffffffffffffffffffffffffffff168152602001908152602001600020600201546008546116699190614d65565b6116739190614dd6565b601260008373ffffffffffffffffffffffffffffffffffffffff1673ffffffffffffffffffffffffffffffffffffffff16815260200190815260200160002060030160008282546116c49190614e07565b925050819055505080806116d790614e3b565b91505061155c565b505b60006116ed600c6138dd565b11156117215761171b61170b6000600c6138f290919063ffffffff16565b600c61390c90919063ffffffff16565b506116e1565b61172b600e6138dd565b905060005b818110156117de5761175f61174f82600e6138f290919063ffffffff16565b600c6138ad90919063ffffffff16565b5060006014600061177a84600e6138f290919063ffffffff16565b73ffffffffffffffffffffffffffffffffffffffff1673ffffffffffffffffffffffffffffffffffffffff16815260200190815260200160002060006101000a81548160ff02191690831515021790555080806117d690614e3b565b915050611730565b50600360010160008154809291906117f590614e3b565b91905055506003600001544361180b9190614e07565b6003600201819055506000600160156101000a81548160ff0219169083600481111561183a5761183961433d565b5b02179055507f551dc40198cc79684bb69e4931dba4ac16e4598792ee1c0a5000aeea366d7bb6600160159054906101000a900460ff1660405161187d91906143b4565b60405180910390a150565b6002600054036118cd576040517f08c379a00000000000000000000000000000000000000000000000000000000081526004016118c4906145ec565b60405180910390fd5b60026000819055506000601260003373ffffffffffffffffffffffffffffffffffffffff1673ffffffffffffffffffffffffffffffffffffffff1681526020019081526020016000206003015490506000811115611a5d576000601260003373ffffffffffffffffffffffffffffffffffffffff1673ffffffffffffffffffffffffffffffffffffffff16815260200190815260200160002060030181905550600260009054906101000a900473ffffffffffffffffffffffffffffffffffffffff1673ffffffffffffffffffffffffffffffffffffffff1663a9059cbb33836040518363ffffffff1660e01b81526004016119ca929190614825565b6020604051808303816000875af11580156119e9573d6000803e3d6000fd5b505050506040513d601f19601f82011682018060405250810190611a0d919061487a565b503373ffffffffffffffffffffffffffffffffffffffff167fe2403640ba68fed3a2f88b7557551d1993f84b99bb10ff833f0cf8db0c5e048682604051611a549190613c4d565b60405180910390a25b506001600081905550565b611a706137ff565b80600160156101000a81548160ff02191690836004811115611a9557611a9461433d565b5b02179055507f551dc40198cc79684bb69e4931dba4ac16e4598792ee1c0a5000aeea366d7bb681604051611ac991906143b4565b60405180910390a150565b6000611aea82600c61387d90919063ffffffff16565b9050919050565b611af96137ff565b806008819055507fc33a6daf06e5c2185564f32ef90cabd653cb01a6945c9d3c18a7481d20d3a0ed81604051611b2f9190613c4d565b60405180910390a150565b6015602052816000526040600020602052806000526040600020600091509150508060000154905081565b85601260003373ffffffffffffffffffffffffffffffffffffffff1673ffffffffffffffffffffffffffffffffffffffff16815260200190815260200160002060000160006101000a81548163ffffffff021916908363ffffffff16021790555084601260003373ffffffffffffffffffffffffffffffffffffffff1673ffffffffffffffffffffffffffffffffffffffff16815260200190815260200160002060000160046101000a8154816fffffffffffffffffffffffffffffffff02191690836fffffffffffffffffffffffffffffffff16021790555083601260003373ffffffffffffffffffffffffffffffffffffffff1673ffffffffffffffffffffffffffffffffffffffff16815260200190815260200160002060000160146101000a81548163ffffffff021916908363ffffffff16021790555082601260003373ffffffffffffffffffffffffffffffffffffffff1673ffffffffffffffffffffffffffffffffffffffff16815260200190815260200160002060010160006101000a81548173ffffffffffffffffffffffffffffffffffffffff021916908373ffffffffffffffffffffffffffffffffffffffff16021790555081601260003373ffffffffffffffffffffffffffffffffffffffff1673ffffffffffffffffffffffffffffffffffffffff1681526020019081526020016000206004018190555080601260003373ffffffffffffffffffffffffffffffffffffffff1673ffffffffffffffffffffffffffffffffffffffff16815260200190815260200160002060050181905550505050505050565b60136020528060005260406000206000915054906101000a900473ffffffffffffffffffffffffffffffffffffffff1681565b60146020528060005260406000206000915054906101000a900460ff1681565b611e126137ff565b806003600001819055507f5f15d41eab42cb3f8a5c9e8cd44043648cb85a815522c5f4ae5a32597a8447a081604051611e4b9190613c4d565b60405180910390a150565b6000600160009054906101000a900460ff16905090565b6000601260008373ffffffffffffffffffffffffffffffffffffffff1673ffffffffffffffffffffffffffffffffffffffff168152602001908152602001600020600201549050919050565b60008060006015600087815260200190815260200160002060008673ffffffffffffffffffffffffffffffffffffffff1673ffffffffffffffffffffffffffffffffffffffff168152602001908152602001600020905080600001548160010160008673ffffffffffffffffffffffffffffffffffffffff1673ffffffffffffffffffffffffffffffffffffffff16815260200190815260200160002060009054906101000a900460ff169250925050935093915050565b611f796137ff565b611f83600061393c565b565b600260009054906101000a900473ffffffffffffffffffffffffffffffffffffffff1681565b600260005403611ff0576040517f08c379a0000000000000000000000000000000000000000000000000000000008152600401611fe7906145ec565b60405180910390fd5b60026000819055506120006137ff565b61201481600e61390c90919063ffffffff16565b506120298160106138ad90919063ffffffff16565b508073ffffffffffffffffffffffffffffffffffffffff167ff020e162c28460a603e71f641a2e83634580ace02b9e28b844b2257949860e9760006040516120719190614ebe565b60405180910390a2600160008190555050565b600a5481565b60008060156000600360010154815260200190815260200160002060008473ffffffffffffffffffffffffffffffffffffffff1673ffffffffffffffffffffffffffffffffffffffff16815260200190815260200160002090506120ec6134e7565b816000015410612100576001915050612106565b60009150505b919050565b60606000612119600c6138dd565b67ffffffffffffffff81111561213257612131614ed9565b5b6040519080825280602002602001820160405280156121605781602001602082028036833780820191505090505b509050600061216f600c6138dd565b905060005b818110156121f05761219081600c6138f290919063ffffffff16565b8382815181106121a3576121a2614f08565b5b602002602001019073ffffffffffffffffffffffffffffffffffffffff16908173ffffffffffffffffffffffffffffffffffffffff168152505080806121e890614e3b565b915050612174565b50819250505090565b60026000540361223e576040517f08c379a0000000000000000000000000000000000000000000000000000000008152600401612235906145ec565b60405180910390fd5b60026000819055506000601360003373ffffffffffffffffffffffffffffffffffffffff1673ffffffffffffffffffffffffffffffffffffffff16815260200190815260200160002060009054906101000a900473ffffffffffffffffffffffffffffffffffffffff169050600073ffffffffffffffffffffffffffffffffffffffff168173ffffffffffffffffffffffffffffffffffffffff1603612319576040517f08c379a000000000000000000000000000000000000000000000000000000000815260040161231090614fa9565b60405180910390fd5b61232d81600e61387d90919063ffffffff16565b61236c576040517f08c379a000000000000000000000000000000000000000000000000000000000815260040161236390615061565b60405180910390fd5b6000151560156000600360010154815260200190815260200160002060008773ffffffffffffffffffffffffffffffffffffffff1673ffffffffffffffffffffffffffffffffffffffff16815260200190815260200160002060010160008373ffffffffffffffffffffffffffffffffffffffff1673ffffffffffffffffffffffffffffffffffffffff16815260200190815260200160002060009054906101000a900460ff16151514612455576040517f08c379a000000000000000000000000000000000000000000000000000000000815260040161244c906150f3565b60405180910390fd5b60156000600360010154815260200190815260200160002060008673ffffffffffffffffffffffffffffffffffffffff1673ffffffffffffffffffffffffffffffffffffffff16815260200190815260200160002060000160008154809291906124be90614e3b565b9190505550600160156000600360010154815260200190815260200160002060008773ffffffffffffffffffffffffffffffffffffffff1673ffffffffffffffffffffffffffffffffffffffff16815260200190815260200160002060010160008373ffffffffffffffffffffffffffffffffffffffff1673ffffffffffffffffffffffffffffffffffffffff16815260200190815260200160002060006101000a81548160ff02191690831515021790555061258585600e61387d90919063ffffffff16565b801561259657506125958561208a565b5b15612774576125af85600e61390c90919063ffffffff16565b506125c48560106138ad90919063ffffffff16565b5060006064600b54601260008973ffffffffffffffffffffffffffffffffffffffff1673ffffffffffffffffffffffffffffffffffffffff168152602001908152602001600020600201546126199190614d65565b6126239190614dd6565b905080601260008873ffffffffffffffffffffffffffffffffffffffff1673ffffffffffffffffffffffffffffffffffffffff168152602001908152602001600020600201600082825461267791906147f1565b9250508190555080600a600082825461269091906147f1565b92505081905550600260009054906101000a900473ffffffffffffffffffffffffffffffffffffffff1673ffffffffffffffffffffffffffffffffffffffff166342966c68826040518263ffffffff1660e01b81526004016126f29190613c4d565b600060405180830381600087803b15801561270c57600080fd5b505af1158015612720573d6000803e3d6000fd5b505050508573ffffffffffffffffffffffffffffffffffffffff167ff020e162c28460a603e71f641a2e83634580ace02b9e28b844b2257949860e978260405161276a9190613c4d565b60405180910390a2505b838573ffffffffffffffffffffffffffffffffffffffff168273ffffffffffffffffffffffffffffffffffffffff167febdee48ed32f3feff81eed274b9e084b367ac42fe1cb710dcbd43f1d537d99fa86866040516127d4929190615171565b60405180910390a450600160008190555050505050565b600260005403612830576040517f08c379a0000000000000000000000000000000000000000000000000000000008152600401612827906145ec565b60405180910390fd5b60026000819055506128406137ff565b80601260008473ffffffffffffffffffffffffffffffffffffffff1673ffffffffffffffffffffffffffffffffffffffff168152602001908152602001600020600201600082825461289291906147f1565b9250508190555080600a60008282546128ab91906147f1565b92505081905550600260009054906101000a900473ffffffffffffffffffffffffffffffffffffffff1673ffffffffffffffffffffffffffffffffffffffff166342966c68826040518263ffffffff1660e01b815260040161290d9190613c4d565b600060405180830381600087803b15801561292757600080fd5b505af115801561293b573d6000803e3d6000fd5b505050508173ffffffffffffffffffffffffffffffffffffffff167ff020e162c28460a603e71f641a2e83634580ace02b9e28b844b2257949860e97826040516129859190613c4d565b60405180910390a260016000819055505050565b6000600160048111156129af576129ae61433d565b5b600160159054906101000a900460ff1660048111156129d1576129d061433d565b5b14905090565b600060018054906101000a900473ffffffffffffffffffffffffffffffffffffffff16905090565b60038060000154908060010154908060020154908060030154908060040154905085565b612a2b6137ff565b80601660006101000a81548173ffffffffffffffffffffffffffffffffffffffff021916908373ffffffffffffffffffffffffffffffffffffffff1602179055507f2b5fe80d5061b20e017f0cde52b331309601bfcab0cb14cfcf6a4096410a607581604051612a9b9190613f3e565b60405180910390a150565b6000806004811115612abb57612aba61433d565b5b600160159054906101000a900460ff166004811115612add57612adc61433d565b5b14905090565b600260005403612b28576040517f08c379a0000000000000000000000000000000000000000000000000000000008152600401612b1f906145ec565b60405180910390fd5b600260008190555060008111612b73576040517f08c379a0000000000000000000000000000000000000000000000000000000008152600401612b6a906151e1565b60405180910390fd5b600260009054906101000a900473ffffffffffffffffffffffffffffffffffffffff1673ffffffffffffffffffffffffffffffffffffffff166323b872dd3330846040518463ffffffff1660e01b8152600401612bd293929190615201565b6020604051808303816000875af1158015612bf1573d6000803e3d6000fd5b505050506040513d601f19601f82011682018060405250810190612c15919061487a565b5080601260003373ffffffffffffffffffffffffffffffffffffffff1673ffffffffffffffffffffffffffffffffffffffff1681526020019081526020016000206002016000828254612c689190614e07565b9250508190555080600a6000828254612c819190614e07565b925050819055503373ffffffffffffffffffffffffffffffffffffffff167f9e71bc8eea02a63969f509818f2dafb9254532904319f9dbda79b67bd34a5f3d82604051612cce9190613c4d565b60405180910390a2600160008190555050565b600260005403612d26576040517f08c379a0000000000000000000000000000000000000000000000000000000008152600401612d1d906145ec565b60405180910390fd5b600260008190555060006004811115612d4257612d4161433d565b5b600160159054906101000a900460ff166004811115612d6457612d6361433d565b5b1480612da3575060036004811115612d7f57612d7e61433d565b5b600160159054906101000a900460ff166004811115612da157612da061433d565b5b145b80612de05750600480811115612dbc57612dbb61433d565b5b600160159054906101000a900460ff166004811115612dde57612ddd61433d565b5b145b612e1f576040517f08c379a0000000000000000000000000000000000000000000000000000000008152600401612e16906152aa565b60405180910390fd5b612e3333600e61387d90919063ffffffff16565b15612e4e57612e4c33600e61390c90919063ffffffff16565b505b3373ffffffffffffffffffffffffffffffffffffffff167fff61c8020d05b8c2e31cdbb3d3f8cbcbdc57fcafa00229d9858b7cfd3b039c8a60405160405180910390a26001600081905550565b612ea36137ff565b6004600160156101000a81548160ff02191690836004811115612ec957612ec861433d565b5b02179055507f551dc40198cc79684bb69e4931dba4ac16e4598792ee1c0a5000aeea366d7bb66004604051612efe91906143b4565b60405180910390a1565b601660009054906101000a900473ffffffffffffffffffffffffffffffffffffffff1681565b600b5481565b612f3c6139ff565b612f4587612ae3565b612f53868686868686610eea565b50505050505050565b6000601360003373ffffffffffffffffffffffffffffffffffffffff1673ffffffffffffffffffffffffffffffffffffffff16815260200190815260200160002060009054906101000a900473ffffffffffffffffffffffffffffffffffffffff16905060016004811115612fd457612fd361433d565b5b600160159054906101000a900460ff166004811115612ff657612ff561433d565b5b14806130355750600260048111156130115761301061433d565b5b600160159054906101000a900460ff1660048111156130335761303261433d565b5b145b613074576040517f08c379a000000000000000000000000000000000000000000000000000000000815260040161306b9061533c565b60405180910390fd5b6001600360010154146130d55761309581600e61387d90919063ffffffff16565b6130d4576040517f08c379a00000000000000000000000000000000000000000000000000000000081526004016130cb906153ce565b60405180910390fd5b5b6001601460008373ffffffffffffffffffffffffffffffffffffffff1673ffffffffffffffffffffffffffffffffffffffff16815260200190815260200160002060006101000a81548160ff0219169083151502179055508073ffffffffffffffffffffffffffffffffffffffff167f9784a0102afe6a5b031e774420da20a7d1e8207dde8e1ede9c6cefe5680ba05e60405160405180910390a26131786135cf565b156131ef576002600160156101000a81548160ff021916908360048111156131a3576131a261433d565b5b02179055507f551dc40198cc79684bb69e4931dba4ac16e4598792ee1c0a5000aeea366d7bb6600160159054906101000a900460ff166040516131e691906143b4565b60405180910390a15b50565b6003600401546003600201546132089190614e07565b43101561324a576040517f08c379a0000000000000000000000000000000000000000000000000000000008152600401613241906144ee565b60405180910390fd5b6001600481111561325e5761325d61433d565b5b600160159054906101000a900460ff1660048111156132805761327f61433d565b5b146132c0576040517f08c379a00000000000000000000000000000000000000000000000000000000081526004016132b790615460565b60405180910390fd5b60006132cc600e6138dd565b905060005b81811015613357576000601460006132f384600e6138f290919063ffffffff16565b73ffffffffffffffffffffffffffffffffffffffff1673ffffffffffffffffffffffffffffffffffffffff16815260200190815260200160002060006101000a81548160ff021916908315150217905550808061334f90614e3b565b9150506132d1565b5060038001600081548092919061336d90614e3b565b91905055506003600160156101000a81548160ff021916908360048111156133985761339761433d565b5b02179055507f551dc40198cc79684bb69e4931dba4ac16e4598792ee1c0a5000aeea366d7bb6600160159054906101000a900460ff166040516133db91906143b4565b60405180910390a150565b600160159054906101000a900460ff1681565b60606000613407600e6138dd565b67ffffffffffffffff8111156134205761341f614ed9565b5b60405190808252806020026020018201604052801561344e5781602001602082028036833780820191505090505b509050600061345d600e6138dd565b905060005b818110156134de5761347e81600e6138f290919063ffffffff16565b83828151811061349157613490614f08565b5b602002602001019073ffffffffffffffffffffffffffffffffffffffff16908173ffffffffffffffffffffffffffffffffffffffff168152505080806134d690614e3b565b915050613462565b50819250505090565b600060026134f5600c6138dd565b116135035760019050613528565b60036002613511600c6138dd565b61351b9190614d65565b6135259190614dd6565b90505b90565b6135336137ff565b80600b819055507fc0ff1deb4b889cc8d47d930be1a37c0e7442ab9850450d2dce635435c005e6a5816040516135699190613c4d565b60405180910390a150565b6135bf601260003373ffffffffffffffffffffffffffffffffffffffff1673ffffffffffffffffffffffffffffffffffffffff16815260200190815260200160002060020154610bd9565b6135c7611888565b565b60095481565b6000806000905060006135e2600e6138dd565b905060005b81811015613676576014600061360783600e6138f290919063ffffffff16565b73ffffffffffffffffffffffffffffffffffffffff1673ffffffffffffffffffffffffffffffffffffffff16815260200190815260200160002060009054906101000a900460ff161561366357828061365f90614e3b565b9350505b808061366e90614e3b565b9150506135e7565b5061367f6134e7565b821061369057600192505050613697565b6000925050505b90565b6136a26137ff565b600073ffffffffffffffffffffffffffffffffffffffff168173ffffffffffffffffffffffffffffffffffffffff1603613711576040517f08c379a0000000000000000000000000000000000000000000000000000000008152600401613708906154f2565b60405180910390fd5b61371a8161393c565b50565b6000600360048111156137335761373261433d565b5b600160159054906101000a900460ff1660048111156137555761375461433d565b5b14905090565b60126020528060005260406000206000915090508060000160009054906101000a900463ffffffff16908060000160049054906101000a90046fffffffffffffffffffffffffffffffff16908060000160149054906101000a900463ffffffff16908060010160009054906101000a900473ffffffffffffffffffffffffffffffffffffffff16908060020154908060030154908060040154908060050154905088565b613807613a49565b73ffffffffffffffffffffffffffffffffffffffff166138256129d7565b73ffffffffffffffffffffffffffffffffffffffff161461387b576040517f08c379a00000000000000000000000000000000000000000000000000000000081526004016138729061555e565b60405180910390fd5b565b60006138a5836000018373ffffffffffffffffffffffffffffffffffffffff1660001b613a51565b905092915050565b60006138d5836000018373ffffffffffffffffffffffffffffffffffffffff1660001b613a74565b905092915050565b60006138eb82600001613ae4565b9050919050565b60006139018360000183613af5565b60001c905092915050565b6000613934836000018373ffffffffffffffffffffffffffffffffffffffff1660001b613b20565b905092915050565b600060018054906101000a900473ffffffffffffffffffffffffffffffffffffffff169050816001806101000a81548173ffffffffffffffffffffffffffffffffffffffff021916908373ffffffffffffffffffffffffffffffffffffffff1602179055508173ffffffffffffffffffffffffffffffffffffffff168173ffffffffffffffffffffffffffffffffffffffff167f8be0079c531659141344cd1fd0a4f28419497f9722a3daafe3b4186f6b6457e060405160405180910390a35050565b613a07611e56565b15613a47576040517f08c379a0000000000000000000000000000000000000000000000000000000008152600401613a3e906155ca565b60405180910390fd5b565b600033905090565b600080836001016000848152602001908152602001600020541415905092915050565b6000613a808383613a51565b613ad9578260000182908060018154018082558091505060019003906000526020600020016000909190919091505582600001805490508360010160008481526020019081526020016000208190555060019050613ade565b600090505b92915050565b600081600001805490509050919050565b6000826000018281548110613b0d57613b0c614f08565b5b9060005260206000200154905092915050565b60008083600101600084815260200190815260200160002054905060008114613c28576000600182613b5291906147f1565b9050600060018660000180549050613b6a91906147f1565b9050818114613bd9576000866000018281548110613b8b57613b8a614f08565b5b9060005260206000200154905080876000018481548110613baf57613bae614f08565b5b90600052602060002001819055508387600101600083815260200190815260200160002081905550505b85600001805480613bed57613bec6155ea565b5b600190038181906000526020600020016000905590558560010160008681526020019081526020016000206000905560019350505050613c2e565b60009150505b92915050565b6000819050919050565b613c4781613c34565b82525050565b6000602082019050613c626000830184613c3e565b92915050565b600080fd5b600080fd5b600073ffffffffffffffffffffffffffffffffffffffff82169050919050565b6000613c9d82613c72565b9050919050565b613cad81613c92565b8114613cb857600080fd5b50565b600081359050613cca81613ca4565b92915050565b600060208284031215613ce657613ce5613c68565b5b6000613cf484828501613cbb565b91505092915050565b613d0681613c34565b8114613d1157600080fd5b50565b600081359050613d2381613cfd565b92915050565b600060208284031215613d3f57613d3e613c68565b5b6000613d4d84828501613d14565b91505092915050565b600063ffffffff82169050919050565b613d6f81613d56565b8114613d7a57600080fd5b50565b600081359050613d8c81613d66565b92915050565b60006fffffffffffffffffffffffffffffffff82169050919050565b613db781613d92565b8114613dc257600080fd5b50565b600081359050613dd481613dae565b92915050565b60008060008060008060c08789031215613df757613df6613c68565b5b6000613e0589828a01613d7d565b9650506020613e1689828a01613dc5565b9550506040613e2789828a01613d7d565b9450506060613e3889828a01613cbb565b9350506080613e4989828a01613d14565b92505060a0613e5a89828a01613d14565b9150509295509295509295565b60058110613e7457600080fd5b50565b600081359050613e8681613e67565b92915050565b600060208284031215613ea257613ea1613c68565b5b6000613eb084828501613e77565b91505092915050565b60008115159050919050565b613ece81613eb9565b82525050565b6000602082019050613ee96000830184613ec5565b92915050565b60008060408385031215613f0657613f05613c68565b5b6000613f1485828601613d14565b9250506020613f2585828601613cbb565b9150509250929050565b613f3881613c92565b82525050565b6000602082019050613f536000830184613f2f565b92915050565b600080600060608486031215613f7257613f71613c68565b5b6000613f8086828701613d14565b9350506020613f9186828701613cbb565b9250506040613fa286828701613cbb565b9150509250925092565b6000604082019050613fc16000830185613c3e565b613fce6020830184613ec5565b9392505050565b6000819050919050565b6000613ffa613ff5613ff084613c72565b613fd5565b613c72565b9050919050565b600061400c82613fdf565b9050919050565b600061401e82614001565b9050919050565b61402e81614013565b82525050565b60006020820190506140496000830184614025565b92915050565b600081519050919050565b600082825260208201905092915050565b6000819050602082019050919050565b61408481613c92565b82525050565b6000614096838361407b565b60208301905092915050565b6000602082019050919050565b60006140ba8261404f565b6140c4818561405a565b93506140cf8361406b565b8060005b838110156141005781516140e7888261408a565b97506140f2836140a2565b9250506001810190506140d3565b5085935050505092915050565b6000602082019050818103600083015261412781846140af565b905092915050565b600080fd5b600080fd5b600080fd5b60008083601f8401126141545761415361412f565b5b8235905067ffffffffffffffff81111561417157614170614134565b5b60208301915083600182028301111561418d5761418c614139565b5b9250929050565b600080600080606085870312156141ae576141ad613c68565b5b60006141bc87828801613cbb565b94505060206141cd87828801613d14565b935050604085013567ffffffffffffffff8111156141ee576141ed613c6d565b5b6141fa8782880161413e565b925092505092959194509250565b6000806040838503121561421f5761421e613c68565b5b600061422d85828601613cbb565b925050602061423e85828601613d14565b9150509250929050565b600060a08201905061425d6000830188613c3e565b61426a6020830187613c3e565b6142776040830186613c3e565b6142846060830185613c3e565b6142916080830184613c3e565b9695505050505050565b600080600080600080600060e0888a0312156142ba576142b9613c68565b5b60006142c88a828b01613d14565b97505060206142d98a828b01613d7d565b96505060406142ea8a828b01613dc5565b95505060606142fb8a828b01613d7d565b945050608061430c8a828b01613cbb565b93505060a061431d8a828b01613d14565b92505060c061432e8a828b01613d14565b91505092959891949750929550565b7f4e487b7100000000000000000000000000000000000000000000000000000000600052602160045260246000fd5b6005811061437d5761437c61433d565b5b50565b600081905061438e8261436c565b919050565b600061439e82614380565b9050919050565b6143ae81614393565b82525050565b60006020820190506143c960008301846143a5565b92915050565b6143d881613d56565b82525050565b6143e781613d92565b82525050565b600061010082019050614403600083018b6143cf565b614410602083018a6143de565b61441d60408301896143cf565b61442a6060830188613f2f565b6144376080830187613c3e565b61444460a0830186613c3e565b61445160c0830185613c3e565b61445e60e0830184613c3e565b9998505050505050505050565b600082825260208201905092915050565b7f456e6f75676820626c6f636b732068617665206e6f7420656c6170736564207360008201527f696e636520746865206c6173742065706f636800000000000000000000000000602082015250565b60006144d860338361446b565b91506144e38261447c565b604082019050919050565b60006020820190508181036000830152614507816144cb565b9050919050565b7f4d75737420626520696e20616374697665206f7220756e6c6f636b656420737460008201527f6174650000000000000000000000000000000000000000000000000000000000602082015250565b600061456a60238361446b565b91506145758261450e565b604082019050919050565b600060208201905081810360008301526145998161455d565b9050919050565b7f5265656e7472616e637947756172643a207265656e7472616e742063616c6c00600082015250565b60006145d6601f8361446b565b91506145e1826145a0565b602082019050919050565b60006020820190508181036000830152614605816145c9565b9050919050565b7f43616e6e6f742077697468647261772030000000000000000000000000000000600082015250565b600061464260118361446b565b915061464d8261460c565b602082019050919050565b6000602082019050818103600083015261467181614635565b9050919050565b7f4163746976652076616c696461746f72732063616e6e6f74206c656176652e2060008201527f20506c656173652075736520746865206c6561766528292066756e6374696f6e60208201527f20616e64207761697420666f7220746865206e6578742065706f636820746f2060408201527f6c65617665000000000000000000000000000000000000000000000000000000606082015250565b600061472060658361446b565b915061472b82614678565b608082019050919050565b6000602082019050818103600083015261474f81614713565b9050919050565b7f4e6f7420656e6f75676820746f6b656e7320746f207769746864726177000000600082015250565b600061478c601d8361446b565b915061479782614756565b602082019050919050565b600060208201905081810360008301526147bb8161477f565b9050919050565b7f4e487b7100000000000000000000000000000000000000000000000000000000600052601160045260246000fd5b60006147fc82613c34565b915061480783613c34565b925082820390508181111561481f5761481e6147c2565b5b92915050565b600060408201905061483a6000830185613f2f565b6148476020830184613c3e565b9392505050565b61485781613eb9565b811461486257600080fd5b50565b6000815190506148748161484e565b92915050565b6000602082840312156148905761488f613c68565b5b600061489e84828501614865565b91505092915050565b7f5374616b65206d7573742062652067726561746572207468616e206f7220657160008201527f75616c20746f206d696e696d756d5374616b6500000000000000000000000000602082015250565b600061490360338361446b565b915061490e826148a7565b604082019050919050565b60006020820190508181036000830152614932816148f6565b9050919050565b7f4d75737420626520696e20416374697665206f7220556e6c6f636b656420737460008201527f61746520746f207265717565737420746f206a6f696e00000000000000000000602082015250565b600061499560368361446b565b91506149a082614939565b604082019050919050565b600060208201905081810360008301526149c481614988565b9050919050565b7f596f752063616e6e6f742072656a6f696e20696620796f75206861766520626560008201527f656e206b69636b656420756e74696c20746865206e6578742065706f63680000602082015250565b6000614a27603e8361446b565b9150614a32826149cb565b604082019050919050565b60006020820190508181036000830152614a5681614a1a565b9050919050565b7f4d75737420626520696e20726561647920666f72206e6578742065706f63682060008201527f7374617465000000000000000000000000000000000000000000000000000000602082015250565b6000614ab960258361446b565b9150614ac482614a5d565b604082019050919050565b60006020820190508181036000830152614ae881614aac565b9050919050565b7f4e6f7420656e6f7567682076616c696461746f7273206172652072656164792060008201527f666f7220746865206e6578742065706f63680000000000000000000000000000602082015250565b6000614b4b60328361446b565b9150614b5682614aef565b604082019050919050565b60006020820190508181036000830152614b7a81614b3e565b9050919050565b600060ff82169050919050565b614b9781614b81565b8114614ba257600080fd5b50565b600081519050614bb481614b8e565b92915050565b600060208284031215614bd057614bcf613c68565b5b6000614bde84828501614ba5565b91505092915050565b60008160011c9050919050565b6000808291508390505b6001851115614c3e57808604811115614c1a57614c196147c2565b5b6001851615614c295780820291505b8081029050614c3785614be7565b9450614bfe565b94509492505050565b600082614c575760019050614d13565b81614c655760009050614d13565b8160018114614c7b5760028114614c8557614cb4565b6001915050614d13565b60ff841115614c9757614c966147c2565b5b8360020a915084821115614cae57614cad6147c2565b5b50614d13565b5060208310610133831016604e8410600b8410161715614ce95782820a905083811115614ce457614ce36147c2565b5b614d13565b614cf68484846001614bf4565b92509050818404811115614d0d57614d0c6147c2565b5b81810290505b9392505050565b6000614d2582613c34565b9150614d3083614b81565b9250614d5d7fffffffffffffffffffffffffffffffffffffffffffffffffffffffffffffffff8484614c47565b905092915050565b6000614d7082613c34565b9150614d7b83613c34565b9250828202614d8981613c34565b91508282048414831517614da057614d9f6147c2565b5b5092915050565b7f4e487b7100000000000000000000000000000000000000000000000000000000600052601260045260246000fd5b6000614de182613c34565b9150614dec83613c34565b925082614dfc57614dfb614da7565b5b828204905092915050565b6000614e1282613c34565b9150614e1d83613c34565b9250828201905080821115614e3557614e346147c2565b5b92915050565b6000614e4682613c34565b91507fffffffffffffffffffffffffffffffffffffffffffffffffffffffffffffffff8203614e7857614e776147c2565b5b600182019050919050565b6000819050919050565b6000614ea8614ea3614e9e84614e83565b613fd5565b613c34565b9050919050565b614eb881614e8d565b82525050565b6000602082019050614ed36000830184614eaf565b92915050565b7f4e487b7100000000000000000000000000000000000000000000000000000000600052604160045260246000fd5b7f4e487b7100000000000000000000000000000000000000000000000000000000600052603260045260246000fd5b7f436f756c64206e6f74206d617020796f7572206e6f646541646472657373207460008201527f6f20796f7572207374616b657241646472657373000000000000000000000000602082015250565b6000614f9360348361446b565b9150614f9e82614f37565b604082019050919050565b60006020820190508181036000830152614fc281614f86565b9050919050565b7f596f75206d75737420626520612076616c696461746f7220696e20746865206e60008201527f6578742065706f636820746f206b69636b20736f6d656f6e652066726f6d207460208201527f6865206e6578742065706f636800000000000000000000000000000000000000604082015250565b600061504b604d8361446b565b915061505682614fc9565b606082019050919050565b6000602082019050818103600083015261507a8161503e565b9050919050565b7f596f752063616e206f6e6c7920766f746520746f206b69636b20736f6d656f6e60008201527f65206f6e6365207065722065706f636800000000000000000000000000000000602082015250565b60006150dd60308361446b565b91506150e882615081565b604082019050919050565b6000602082019050818103600083015261510c816150d0565b9050919050565b600082825260208201905092915050565b82818337600083830152505050565b6000601f19601f8301169050919050565b60006151508385615113565b935061515d838584615124565b61516683615133565b840190509392505050565b6000602082019050818103600083015261518c818486615144565b90509392505050565b7f43616e6e6f74207374616b652030000000000000000000000000000000000000600082015250565b60006151cb600e8361446b565b91506151d682615195565b602082019050919050565b600060208201905081810360008301526151fa816151be565b9050919050565b60006060820190506152166000830186613f2f565b6152236020830185613f2f565b6152306040830184613c3e565b949350505050565b7f4d75737420626520696e20416374697665206f7220556e6c6f636b656420737460008201527f61746520746f207265717565737420746f206c65617665000000000000000000602082015250565b600061529460378361446b565b915061529f82615238565b604082019050919050565b600060208201905081810360008301526152c381615287565b9050919050565b7f4d75737420626520696e207374617465204e65787456616c696461746f72536560008201527f744c6f636b6564206f72205265616479466f724e65787445706f636800000000602082015250565b6000615326603c8361446b565b9150615331826152ca565b604082019050919050565b6000602082019050818103600083015261535581615319565b9050919050565b7f56616c696461746f72206973206e6f7420696e20746865206e6578742065706f60008201527f6368000000000000000000000000000000000000000000000000000000000000602082015250565b60006153b860228361446b565b91506153c38261535c565b604082019050919050565b600060208201905081810360008301526153e7816153ab565b9050919050565b7f4d75737420626520696e204e65787456616c696461746f725365744c6f636b6560008201527f6400000000000000000000000000000000000000000000000000000000000000602082015250565b600061544a60218361446b565b9150615455826153ee565b604082019050919050565b600060208201905081810360008301526154798161543d565b9050919050565b7f4f776e61626c653a206e6577206f776e657220697320746865207a65726f206160008201527f6464726573730000000000000000000000000000000000000000000000000000602082015250565b60006154dc60268361446b565b91506154e782615480565b604082019050919050565b6000602082019050818103600083015261550b816154cf565b9050919050565b7f4f776e61626c653a2063616c6c6572206973206e6f7420746865206f776e6572600082015250565b600061554860208361446b565b915061555382615512565b602082019050919050565b600060208201905081810360008301526155778161553b565b9050919050565b7f5061757361626c653a2070617573656400000000000000000000000000000000600082015250565b60006155b460108361446b565b91506155bf8261557e565b602082019050919050565b600060208201905081810360008301526155e3816155a7565b9050919050565b7f4e487b7100000000000000000000000000000000000000000000000000000000600052603160045260246000fdfea26469706673582212201cdc9d5ba326b01aa0d9981853263ca20b434dbf4172c9f057a8b3e26cb89cc564736f6c63430008110033","abi":[{"inputs":[{"internalType":"address","name":"_stakingToken","type":"address"}],"stateMutability":"nonpayable","type":"constructor"},{"anonymous":false,"inputs":[{"indexed":false,"internalType":"uint256","name":"newEpochLength","type":"uint256"}],"name":"EpochLengthSet","type":"event"},{"anonymous":false,"inputs":[{"indexed":false,"internalType":"uint256","name":"newEpochTimeout","type":"uint256"}],"name":"EpochTimeoutSet","type":"event"},{"anonymous":false,"inputs":[{"indexed":false,"internalType":"uint256","name":"newKickPenaltyPercent","type":"uint256"}],"name":"KickPenaltyPercentSet","type":"event"},{"anonymous":false,"inputs":[{"indexed":false,"internalType":"uint256","name":"newMinimumStake","type":"uint256"}],"name":"MinimumStakeSet","type":"event"},{"anonymous":false,"inputs":[{"indexed":true,"internalType":"address","name":"previousOwner","type":"address"},{"indexed":true,"internalType":"address","name":"newOwner","type":"address"}],"name":"OwnershipTransferred","type":"event"},{"anonymous":false,"inputs":[{"indexed":false,"internalType":"address","name":"account","type":"address"}],"name":"Paused","type":"event"},{"anonymous":false,"inputs":[{"indexed":true,"internalType":"address","name":"staker","type":"address"}],"name":"ReadyForNextEpoch","type":"event"},{"anonymous":false,"inputs":[{"indexed":false,"internalType":"address","name":"token","type":"address"},{"indexed":false,"internalType":"uint256","name":"amount","type":"uint256"}],"name":"Recovered","type":"event"},{"anonymous":false,"inputs":[{"indexed":true,"internalType":"address","name":"staker","type":"address"}],"name":"RequestToJoin","type":"event"},{"anonymous":false,"inputs":[{"indexed":true,"internalType":"address","name":"staker","type":"address"}],"name":"RequestToLeave","type":"event"},{"anonymous":false,"inputs":[{"indexed":false,"internalType":"address","name":"newResolverContractAddress","type":"address"}],"name":"ResolverContractAddressSet","type":"event"},{"anonymous":false,"inputs":[{"indexed":true,"internalType":"address","name":"staker","type":"address"},{"indexed":false,"internalType":"uint256","name":"reward","type":"uint256"}],"name":"RewardPaid","type":"event"},{"anonymous":false,"inputs":[{"indexed":false,"internalType":"uint256","name":"newDuration","type":"uint256"}],"name":"RewardsDurationUpdated","type":"event"},{"anonymous":false,"inputs":[{"indexed":true,"internalType":"address","name":"staker","type":"address"},{"indexed":false,"internalType":"uint256","name":"amount","type":"uint256"}],"name":"Staked","type":"event"},{"anonymous":false,"inputs":[{"indexed":false,"internalType":"address","name":"newStakingTokenAddress","type":"address"}],"name":"StakingTokenSet","type":"event"},{"anonymous":false,"inputs":[{"indexed":false,"internalType":"enum Staking.States","name":"newState","type":"uint8"}],"name":"StateChanged","type":"event"},{"anonymous":false,"inputs":[{"indexed":false,"internalType":"uint256","name":"newTokenRewardPerTokenPerEpoch","type":"uint256"}],"name":"TokenRewardPerTokenPerEpochSet","type":"event"},{"anonymous":false,"inputs":[{"indexed":false,"internalType":"address","name":"account","type":"address"}],"name":"Unpaused","type":"event"},{"anonymous":false,"inputs":[{"indexed":true,"internalType":"address","name":"staker","type":"address"},{"indexed":false,"internalType":"uint256","name":"amountBurned","type":"uint256"}],"name":"ValidatorKickedFromNextEpoch","type":"event"},{"anonymous":false,"inputs":[{"indexed":true,"internalType":"address","name":"reporter","type":"address"},{"indexed":true,"internalType":"address","name":"validatorStakerAddress","type":"address"},{"indexed":true,"internalType":"uint256","name":"reason","type":"uint256"},{"indexed":false,"internalType":"bytes","name":"data","type":"bytes"}],"name":"VotedToKickValidatorInNextEpoch","type":"event"},{"anonymous":false,"inputs":[{"indexed":true,"internalType":"address","name":"staker","type":"address"},{"indexed":false,"internalType":"uint256","name":"amount","type":"uint256"}],"name":"Withdrawn","type":"event"},{"inputs":[{"internalType":"address","name":"validatorStakerAddress","type":"address"}],"name":"adminKickValidatorInNextEpoch","outputs":[],"stateMutability":"nonpayable","type":"function"},{"inputs":[{"internalType":"address","name":"validatorStakerAddress","type":"address"},{"internalType":"uint256","name":"amountToBurn","type":"uint256"}],"name":"adminSlashValidator","outputs":[],"stateMutability":"nonpayable","type":"function"},{"inputs":[],"name":"advanceEpoch","outputs":[],"stateMutability":"nonpayable","type":"function"},{"inputs":[{"internalType":"address","name":"account","type":"address"}],"name":"balanceOf","outputs":[{"internalType":"uint256","name":"","type":"uint256"}],"stateMutability":"view","type":"function"},{"inputs":[],"name":"epoch","outputs":[{"internalType":"uint256","name":"epochLength","type":"uint256"},{"internalType":"uint256","name":"number","type":"uint256"},{"internalType":"uint256","name":"endBlock","type":"uint256"},{"internalType":"uint256","name":"retries","type":"uint256"},{"internalType":"uint256","name":"timeout","type":"uint256"}],"stateMutability":"view","type":"function"},{"inputs":[],"name":"exit","outputs":[],"stateMutability":"nonpayable","type":"function"},{"inputs":[],"name":"getReward","outputs":[],"stateMutability":"nonpayable","type":"function"},{"inputs":[],"name":"getValidatorsInCurrentEpoch","outputs":[{"internalType":"address[]","name":"","type":"address[]"}],"stateMutability":"view","type":"function"},{"inputs":[],"name":"getValidatorsInNextEpoch","outputs":[{"internalType":"address[]","name":"","type":"address[]"}],"stateMutability":"view","type":"function"},{"inputs":[{"internalType":"uint256","name":"epochNumber","type":"uint256"},{"internalType":"address","name":"validatorStakerAddress","type":"address"},{"internalType":"address","name":"voterStakerAddress","type":"address"}],"name":"getVotingStatusToKickValidator","outputs":[{"internalType":"uint256","name":"","type":"uint256"},{"internalType":"bool","name":"","type":"bool"}],"stateMutability":"view","type":"function"},{"inputs":[{"internalType":"address","name":"account","type":"address"}],"name":"isActiveValidator","outputs":[{"internalType":"bool","name":"","type":"bool"}],"stateMutability":"view","type":"function"},{"inputs":[],"name":"isReadyForNextEpoch","outputs":[{"internalType":"bool","name":"","type":"bool"}],"stateMutability":"view","type":"function"},{"inputs":[],"name":"kickPenaltyPercent","outputs":[{"internalType":"uint256","name":"","type":"uint256"}],"stateMutability":"view","type":"function"},{"inputs":[{"internalType":"address","name":"validatorStakerAddress","type":"address"},{"internalType":"uint256","name":"reason","type":"uint256"},{"internalType":"bytes","name":"data","type":"bytes"}],"name":"kickValidatorInNextEpoch","outputs":[],"stateMutability":"nonpayable","type":"function"},{"inputs":[],"name":"lockValidatorsForNextEpoch","outputs":[],"stateMutability":"nonpayable","type":"function"},{"inputs":[],"name":"minimumStake","outputs":[{"internalType":"uint256","name":"","type":"uint256"}],"stateMutability":"view","type":"function"},{"inputs":[{"internalType":"address","name":"","type":"address"}],"name":"nodeAddressToStakerAddress","outputs":[{"internalType":"address","name":"","type":"address"}],"stateMutability":"view","type":"function"},{"inputs":[],"name":"owner","outputs":[{"internalType":"address","name":"","type":"address"}],"stateMutability":"view","type":"function"},{"inputs":[],"name":"pauseEpoch","outputs":[],"stateMutability":"nonpayable","type":"function"},{"inputs":[],"name":"paused","outputs":[{"internalType":"bool","name":"","type":"bool"}],"stateMutability":"view","type":"function"},{"inputs":[{"internalType":"address","name":"","type":"address"}],"name":"readyForNextEpoch","outputs":[{"internalType":"bool","name":"","type":"bool"}],"stateMutability":"view","type":"function"},{"inputs":[],"name":"renounceOwnership","outputs":[],"stateMutability":"nonpayable","type":"function"},{"inputs":[{"internalType":"uint32","name":"ip","type":"uint32"},{"internalType":"uint128","name":"ipv6","type":"uint128"},{"internalType":"uint32","name":"port","type":"uint32"},{"internalType":"address","name":"nodeAddress","type":"address"},{"internalType":"uint256","name":"senderPubKey","type":"uint256"},{"internalType":"uint256","name":"receiverPubKey","type":"uint256"}],"name":"requestToJoin","outputs":[],"stateMutability":"nonpayable","type":"function"},{"inputs":[],"name":"requestToLeave","outputs":[],"stateMutability":"nonpayable","type":"function"},{"inputs":[],"name":"resolverContractAddress","outputs":[{"internalType":"address","name":"","type":"address"}],"stateMutability":"view","type":"function"},{"inputs":[{"internalType":"address","name":"account","type":"address"}],"name":"rewardOf","outputs":[{"internalType":"uint256","name":"","type":"uint256"}],"stateMutability":"view","type":"function"},{"inputs":[{"internalType":"uint256","name":"newEpochLength","type":"uint256"}],"name":"setEpochLength","outputs":[],"stateMutability":"nonpayable","type":"function"},{"inputs":[{"internalType":"enum Staking.States","name":"newState","type":"uint8"}],"name":"setEpochState","outputs":[],"stateMutability":"nonpayable","type":"function"},{"inputs":[{"internalType":"uint256","name":"newEpochTimeout","type":"uint256"}],"name":"setEpochTimeout","outputs":[],"stateMutability":"nonpayable","type":"function"},{"inputs":[{"internalType":"uint32","name":"ip","type":"uint32"},{"internalType":"uint128","name":"ipv6","type":"uint128"},{"internalType":"uint32","name":"port","type":"uint32"},{"internalType":"address","name":"nodeAddress","type":"address"},{"internalType":"uint256","name":"senderPubKey","type":"uint256"},{"internalType":"uint256","name":"receiverPubKey","type":"uint256"}],"name":"setIpPortNodeAddressAndCommunicationPubKeys","outputs":[],"stateMutability":"nonpayable","type":"function"},{"inputs":[{"internalType":"uint256","name":"newKickPenaltyPercent","type":"uint256"}],"name":"setKickPenaltyPercent","outputs":[],"stateMutability":"nonpayable","type":"function"},{"inputs":[{"internalType":"uint256","name":"newMinimumStake","type":"uint256"}],"name":"setMinimumStake","outputs":[],"stateMutability":"nonpayable","type":"function"},{"inputs":[{"internalType":"address","name":"newResolverContractAddress","type":"address"}],"name":"setResolverContractAddress","outputs":[],"stateMutability":"nonpayable","type":"function"},{"inputs":[{"internalType":"address","name":"newStakingTokenAddress","type":"address"}],"name":"setStakingToken","outputs":[],"stateMutability":"nonpayable","type":"function"},{"inputs":[{"internalType":"uint256","name":"newTokenRewardPerTokenPerEpoch","type":"uint256"}],"name":"setTokenRewardPerTokenPerEpoch","outputs":[],"stateMutability":"nonpayable","type":"function"},{"inputs":[{"internalType":"address","name":"stakerAddress","type":"address"}],"name":"shouldKickValidator","outputs":[{"internalType":"bool","name":"","type":"bool"}],"stateMutability":"view","type":"function"},{"inputs":[],"name":"signalReadyForNextEpoch","outputs":[],"stateMutability":"nonpayable","type":"function"},{"inputs":[{"internalType":"uint256","name":"amount","type":"uint256"}],"name":"stake","outputs":[],"stateMutability":"nonpayable","type":"function"},{"inputs":[{"internalType":"uint256","name":"amount","type":"uint256"},{"internalType":"uint32","name":"ip","type":"uint32"},{"internalType":"uint128","name":"ipv6","type":"uint128"},{"internalType":"uint32","name":"port","type":"uint32"},{"internalType":"address","name":"nodeAddress","type":"address"},{"internalType":"uint256","name":"senderPubKey","type":"uint256"},{"internalType":"uint256","name":"receiverPubKey","type":"uint256"}],"name":"stakeAndJoin","outputs":[],"stateMutability":"nonpayable","type":"function"},{"inputs":[],"name":"stakingToken","outputs":[{"internalType":"contract ERC20Burnable","name":"","type":"address"}],"stateMutability":"view","type":"function"},{"inputs":[],"name":"state","outputs":[{"internalType":"enum Staking.States","name":"","type":"uint8"}],"stateMutability":"view","type":"function"},{"inputs":[],"name":"tokenRewardPerTokenPerEpoch","outputs":[{"internalType":"uint256","name":"","type":"uint256"}],"stateMutability":"view","type":"function"},{"inputs":[],"name":"totalStaked","outputs":[{"internalType":"uint256","name":"","type":"uint256"}],"stateMutability":"view","type":"function"},{"inputs":[{"internalType":"address","name":"newOwner","type":"address"}],"name":"transferOwnership","outputs":[],"stateMutability":"nonpayable","type":"function"},{"inputs":[],"name":"unlockValidatorsForNextEpoch","outputs":[],"stateMutability":"nonpayable","type":"function"},{"inputs":[],"name":"validatorCountForConsensus","outputs":[{"internalType":"uint256","name":"","type":"uint256"}],"stateMutability":"view","type":"function"},{"inputs":[],"name":"validatorStateIsActive","outputs":[{"internalType":"bool","name":"","type":"bool"}],"stateMutability":"view","type":"function"},{"inputs":[],"name":"validatorStateIsUnlocked","outputs":[{"internalType":"bool","name":"","type":"bool"}],"stateMutability":"view","type":"function"},{"inputs":[{"internalType":"address","name":"","type":"address"}],"name":"validators","outputs":[{"internalType":"uint32","name":"ip","type":"uint32"},{"internalType":"uint128","name":"ipv6","type":"uint128"},{"internalType":"uint32","name":"port","type":"uint32"},{"internalType":"address","name":"nodeAddress","type":"address"},{"internalType":"uint256","name":"balance","type":"uint256"},{"internalType":"uint256","name":"reward","type":"uint256"},{"internalType":"uint256","name":"senderPubKey","type":"uint256"},{"internalType":"uint256","name":"receiverPubKey","type":"uint256"}],"stateMutability":"view","type":"function"},{"inputs":[],"name":"validatorsInNextEpochAreLocked","outputs":[{"internalType":"bool","name":"","type":"bool"}],"stateMutability":"view","type":"function"},{"inputs":[{"internalType":"uint256","name":"","type":"uint256"},{"internalType":"address","name":"","type":"address"}],"name":"votesToKickValidatorsInNextEpoch","outputs":[{"internalType":"uint256","name":"votes","type":"uint256"}],"stateMutability":"view","type":"function"},{"inputs":[{"internalType":"uint256","name":"amount","type":"uint256"}],"name":"withdraw","outputs":[],"stateMutability":"nonpayable","type":"function"}]}