{
  "contractName": "AccessControlConditions",
  "abi": [
    {
      "inputs": [],
      "stateMutability": "nonpayable",
      "type": "constructor"
    },
    {
      "anonymous": false,
      "inputs": [
        {
          "indexed": true,
          "internalType": "uint256",
          "name": "key",
          "type": "uint256"
        },
        {
          "indexed": false,
          "internalType": "uint256",
          "name": "value",
          "type": "uint256"
        },
        {
          "indexed": false,
          "internalType": "uint256",
          "name": "chainId",
          "type": "uint256"
        },
        {
          "indexed": false,
          "internalType": "bool",
          "name": "permanant",
          "type": "bool"
        },
        {
          "indexed": false,
          "internalType": "address",
          "name": "creator",
          "type": "address"
        }
      ],
      "name": "ConditionStored",
      "type": "event"
    },
    {
      "inputs": [
        {
          "internalType": "uint256",
          "name": "",
          "type": "uint256"
        }
      ],
      "name": "storedConditions",
      "outputs": [
        {
          "internalType": "uint256",
          "name": "value",
          "type": "uint256"
        },
        {
          "internalType": "uint256",
          "name": "chainId",
          "type": "uint256"
        },
        {
          "internalType": "bool",
          "name": "permanant",
          "type": "bool"
        },
        {
          "internalType": "address",
          "name": "creator",
          "type": "address"
        }
      ],
      "stateMutability": "view",
      "type": "function"
    },
    {
      "inputs": [
        {
          "internalType": "uint256",
          "name": "key",
          "type": "uint256"
        }
      ],
      "name": "getCondition",
      "outputs": [
        {
          "components": [
            {
              "internalType": "uint256",
              "name": "value",
              "type": "uint256"
            },
            {
              "internalType": "uint256",
              "name": "chainId",
              "type": "uint256"
            },
            {
              "internalType": "bool",
              "name": "permanant",
              "type": "bool"
            },
            {
              "internalType": "address",
              "name": "creator",
              "type": "address"
            }
          ],
          "internalType": "struct AccessControlConditions.StoredCondition",
          "name": "",
          "type": "tuple"
        }
      ],
      "stateMutability": "view",
      "type": "function"
    },
    {
      "inputs": [
        {
          "internalType": "uint256",
          "name": "key",
          "type": "uint256"
        },
        {
          "internalType": "uint256",
          "name": "value",
          "type": "uint256"
        },
        {
          "internalType": "uint256",
          "name": "chainId",
          "type": "uint256"
        },
        {
          "internalType": "bool",
          "name": "permanant",
          "type": "bool"
        }
      ],
      "name": "storeCondition",
      "outputs": [],
      "stateMutability": "nonpayable",
      "type": "function"
    }
  ],
  "bytecode": "0x608060405234801561001057600080fd5b5060016000819055506109e6806100286000396000f3fe608060405234801561001057600080fd5b50600436106100415760003560e01c80637bf212f8146100465780639fd040da14610076578063fde2d9d8146100a9575b600080fd5b610060600480360381019061005b9190610570565b6100c5565b60405161006d919061065d565b60405180910390f35b610090600480360381019061008b9190610570565b610177565b6040516100a094939291906106a5565b60405180910390f35b6100c360048036038101906100be9190610716565b6101d4565b005b6100cd6104f5565b6001600083815260200190815260200160002060405180608001604052908160008201548152602001600182015481526020016002820160009054906101000a900460ff161515151581526020016002820160019054906101000a900473ffffffffffffffffffffffffffffffffffffffff1673ffffffffffffffffffffffffffffffffffffffff1673ffffffffffffffffffffffffffffffffffffffff16815250509050919050565b60016020528060005260406000206000915090508060000154908060010154908060020160009054906101000a900460ff16908060020160019054906101000a900473ffffffffffffffffffffffffffffffffffffffff16905084565b6002600054141561021a576040517f08c379a0000000000000000000000000000000000000000000000000000000008152600401610211906107da565b60405180910390fd5b60026000819055506000841415610266576040517f08c379a000000000000000000000000000000000000000000000000000000000815260040161025d90610846565b60405180910390fd5b600073ffffffffffffffffffffffffffffffffffffffff166001600086815260200190815260200160002060020160019054906101000a900473ffffffffffffffffffffffffffffffffffffffff1673ffffffffffffffffffffffffffffffffffffffff16146103df573373ffffffffffffffffffffffffffffffffffffffff166001600086815260200190815260200160002060020160019054906101000a900473ffffffffffffffffffffffffffffffffffffffff1673ffffffffffffffffffffffffffffffffffffffff1614610374576040517f08c379a000000000000000000000000000000000000000000000000000000000815260040161036b906108d8565b60405180910390fd5b600015156001600086815260200190815260200160002060020160009054906101000a900460ff161515146103de576040517f08c379a00000000000000000000000000000000000000000000000000000000081526004016103d590610990565b60405180910390fd5b5b604051806080016040528084815260200183815260200182151581526020013373ffffffffffffffffffffffffffffffffffffffff1681525060016000868152602001908152602001600020600082015181600001556020820151816001015560408201518160020160006101000a81548160ff02191690831515021790555060608201518160020160016101000a81548173ffffffffffffffffffffffffffffffffffffffff021916908373ffffffffffffffffffffffffffffffffffffffff160217905550905050837ffb2c1b4938e3cf2dc95120a73dce224dfc1108057906403d419bc7a1748f2cd0848484336040516104df94939291906106a5565b60405180910390a2600160008190555050505050565b60405180608001604052806000815260200160008152602001600015158152602001600073ffffffffffffffffffffffffffffffffffffffff1681525090565b600080fd5b6000819050919050565b61054d8161053a565b811461055857600080fd5b50565b60008135905061056a81610544565b92915050565b60006020828403121561058657610585610535565b5b60006105948482850161055b565b91505092915050565b6105a68161053a565b82525050565b60008115159050919050565b6105c1816105ac565b82525050565b600073ffffffffffffffffffffffffffffffffffffffff82169050919050565b60006105f2826105c7565b9050919050565b610602816105e7565b82525050565b60808201600082015161061e600085018261059d565b506020820151610631602085018261059d565b50604082015161064460408501826105b8565b50606082015161065760608501826105f9565b50505050565b60006080820190506106726000830184610608565b92915050565b6106818161053a565b82525050565b610690816105ac565b82525050565b61069f816105e7565b82525050565b60006080820190506106ba6000830187610678565b6106c76020830186610678565b6106d46040830185610687565b6106e16060830184610696565b95945050505050565b6106f3816105ac565b81146106fe57600080fd5b50565b600081359050610710816106ea565b92915050565b600080600080608085870312156107305761072f610535565b5b600061073e8782880161055b565b945050602061074f8782880161055b565b93505060406107608782880161055b565b925050606061077187828801610701565b91505092959194509250565b600082825260208201905092915050565b7f5265656e7472616e637947756172643a207265656e7472616e742063616c6c00600082015250565b60006107c4601f8361077d565b91506107cf8261078e565b602082019050919050565b600060208201905081810360008301526107f3816107b7565b9050919050565b7f4b6579206d757374206e6f74206265207a65726f000000000000000000000000600082015250565b600061083060148361077d565b915061083b826107fa565b602082019050919050565b6000602082019050818103600083015261085f81610823565b9050919050565b7f4f6e6c792074686520636f6e646974696f6e2063726561746f722063616e207560008201527f7064617465206974000000000000000000000000000000000000000000000000602082015250565b60006108c260288361077d565b91506108cd82610866565b604082019050919050565b600060208201905081810360008301526108f1816108b5565b9050919050565b7f5468697320636f6e646974696f6e207761732073746f7265642077697468207460008201527f6865205065726d616e616e7420666c616720616e642063616e6e6f742062652060208201527f7570646174656400000000000000000000000000000000000000000000000000604082015250565b600061097a60478361077d565b9150610985826108f8565b606082019050919050565b600060208201905081810360008301526109a98161096d565b905091905056fea2646970667358221220da3c94769d4108506667d5d23bb83982af56fd6cbd43010304fbb9f09c29f26264736f6c634300080b0033",
  "immutableReferences": {},
  "source": "//SPDX-License-Identifier: GPL-3.0-or-later\npragma solidity ^0.8.0;\n\nimport {ReentrancyGuard} from \"@openzeppelin/contracts/security/ReentrancyGuard.sol\";\n\nimport \"hardhat/console.sol\";\n\ncontract AccessControlConditions is ReentrancyGuard {\n\n    /* ========== STRUCTS ========== */\n    struct StoredCondition {\n        uint256 value;\n        uint256 chainId;\n        bool permanant;\n        address creator;\n    }\n\n    /* ========== STATE VARIABLES ========== */\n\n    mapping(uint256 => StoredCondition) public storedConditions;\n\n    /* ========== CONSTRUCTOR ========== */\n    constructor() {\n    }\n\n    /* ========== VIEWS ========== */\n\n    function getCondition(uint256 key) external view returns (StoredCondition memory) {\n        return storedConditions[key];\n    }\n\n    /* ========== MUTATIVE FUNCTIONS ========== */\n\n    function storeCondition(uint256 key, uint256 value, uint256 chainId, bool permanant)\n        external\n        nonReentrant\n    {\n        require(key != 0, \"Key must not be zero\");\n        if (storedConditions[key].creator != address(0)){\n            // this is an update\n            require(storedConditions[key].creator == msg.sender, \"Only the condition creator can update it\");\n            require(storedConditions[key].permanant == false, \"This condition was stored with the Permanant flag and cannot be updated\");\n\n        } \n        storedConditions[key] = StoredCondition(value, chainId, permanant, msg.sender);\n        \n        emit ConditionStored(key, value, chainId, permanant, msg.sender);\n    }\n\n\n    /* ========== EVENTS ========== */\n\n    event ConditionStored(uint indexed key, uint256 value, uint256 chainId, bool permanant, address creator);\n}\n",
  "sourcePath": "/Users/brendonpaul/Documents/GitHub/LitNodeContracts/contracts/AccessControlConditions.sol",
  "compiler": {
    "name": "solc",
    "version": "0.8.11+commit.d7f03943.Emscripten.clang"
  },
  "schemaVersion": "3.4.4",
  "updatedAt": "2022-04-22T01:37:16.095Z",
  "devdoc": {
    "kind": "dev",
    "methods": {},
    "version": 1
  },
  "userdoc": {
    "kind": "user",
    "methods": {},
    "version": 1
  }
}