{
  "contractName": "ConditionValidations",
  "abi": [
    {
      "inputs": [
        {
          "internalType": "address",
          "name": "_ownerAddress",
          "type": "address"
        }
      ],
      "stateMutability": "nonpayable",
      "type": "constructor"
    },
    {
      "anonymous": false,
      "inputs": [
        {
          "indexed": true,
          "internalType": "bytes32",
          "name": "conditionHash",
          "type": "bytes32"
        },
        {
          "indexed": false,
          "internalType": "uint256",
          "name": "chainId",
          "type": "uint256"
        },
        {
          "indexed": false,
          "internalType": "uint256",
          "name": "timestamp",
          "type": "uint256"
        },
        {
          "indexed": false,
          "internalType": "address",
          "name": "creator",
          "type": "address"
        }
      ],
      "name": "ValidationStored",
      "type": "event"
    },
    {
      "inputs": [
        {
          "internalType": "address",
          "name": "",
          "type": "address"
        }
      ],
      "name": "validAddresses",
      "outputs": [
        {
          "internalType": "bool",
          "name": "",
          "type": "bool"
        }
      ],
      "stateMutability": "view",
      "type": "function"
    },
    {
      "inputs": [
        {
          "internalType": "bytes32",
          "name": "",
          "type": "bytes32"
        }
      ],
      "name": "validatedConditions",
      "outputs": [
        {
          "internalType": "uint256",
          "name": "chainId",
          "type": "uint256"
        },
        {
          "internalType": "uint256",
          "name": "timestamp",
          "type": "uint256"
        },
        {
          "internalType": "address",
          "name": "creator",
          "type": "address"
        }
      ],
      "stateMutability": "view",
      "type": "function"
    },
    {
      "inputs": [
        {
          "internalType": "bytes32",
          "name": "conditionHashKey",
          "type": "bytes32"
        }
      ],
      "name": "getValidatedCondition",
      "outputs": [
        {
          "components": [
            {
              "internalType": "uint256",
              "name": "chainId",
              "type": "uint256"
            },
            {
              "internalType": "uint256",
              "name": "timestamp",
              "type": "uint256"
            },
            {
              "internalType": "address",
              "name": "creator",
              "type": "address"
            }
          ],
          "internalType": "struct ConditionValidations.ValidatedCondition",
          "name": "",
          "type": "tuple"
        }
      ],
      "stateMutability": "view",
      "type": "function"
    },
    {
      "inputs": [
        {
          "internalType": "bytes32",
          "name": "conditionHash",
          "type": "bytes32"
        },
        {
          "internalType": "bytes",
          "name": "signature",
          "type": "bytes"
        }
      ],
      "name": "verifySignature",
      "outputs": [
        {
          "internalType": "bool",
          "name": "",
          "type": "bool"
        }
      ],
      "stateMutability": "view",
      "type": "function"
    },
    {
      "inputs": [
        {
          "internalType": "bytes",
          "name": "_publicKey",
          "type": "bytes"
        }
      ],
      "name": "testPubKeyToAddress",
      "outputs": [
        {
          "internalType": "address",
          "name": "",
          "type": "address"
        }
      ],
      "stateMutability": "pure",
      "type": "function"
    },
    {
      "inputs": [
        {
          "internalType": "uint256",
          "name": "chainId",
          "type": "uint256"
        },
        {
          "internalType": "bytes32",
          "name": "conditionHash",
          "type": "bytes32"
        },
        {
          "internalType": "bytes",
          "name": "signature",
          "type": "bytes"
        }
      ],
      "name": "storeValidatedCondition",
      "outputs": [],
      "stateMutability": "nonpayable",
      "type": "function"
    }
  ],
  "bytecode": "0x60806040523480156200001157600080fd5b506040516200118838038062001188833981810160405281019062000037919062000108565b60016000819055506001600260008373ffffffffffffffffffffffffffffffffffffffff1673ffffffffffffffffffffffffffffffffffffffff16815260200190815260200160002060006101000a81548160ff021916908315150217905550506200013a565b600080fd5b600073ffffffffffffffffffffffffffffffffffffffff82169050919050565b6000620000d082620000a3565b9050919050565b620000e281620000c3565b8114620000ee57600080fd5b50565b6000815190506200010281620000d7565b92915050565b6000602082840312156200012157620001206200009e565b5b60006200013184828501620000f1565b91505092915050565b61103e806200014a6000396000f3fe608060405234801561001057600080fd5b50600436106100625760003560e01c80636b8ba3b514610067578063b91e408714610097578063daca6f78146100c7578063e127b54e146100f7578063e2f9477f14610127578063f650071a14610159575b600080fd5b610081600480360381019061007c91906107fe565b610175565b60405161008e91906108c7565b60405180910390f35b6100b160048036038101906100ac919061090e565b610266565b6040516100be9190610956565b60405180910390f35b6100e160048036038101906100dc9190610ab7565b610286565b6040516100ee9190610956565b60405180910390f35b610111600480360381019061010c9190610b13565b6102eb565b60405161011e9190610b6b565b60405180910390f35b610141600480360381019061013c91906107fe565b61030a565b60405161015093929190610b95565b60405180910390f35b610173600480360381019061016e9190610bf8565b610354565b005b61017d61077d565b600060016000848152602001908152602001600020600101541461022a576001600083815260200190815260200160002060405180606001604052908160008201548152602001600182015481526020016002820160009054906101000a900473ffffffffffffffffffffffffffffffffffffffff1673ffffffffffffffffffffffffffffffffffffffff1673ffffffffffffffffffffffffffffffffffffffff16815250509050610261565b60405180606001604052806000815260200160008152602001600073ffffffffffffffffffffffffffffffffffffffff1681525090505b919050565b60026020528060005260406000206000915054906101000a900460ff1681565b6000806102938484610528565b9050600260008273ffffffffffffffffffffffffffffffffffffffff1673ffffffffffffffffffffffffffffffffffffffff16815260200190815260200160002060009054906101000a900460ff1691505092915050565b600080828051906020012060001c60601b60601c905080915050919050565b60016020528060005260406000206000915090508060000154908060010154908060020160009054906101000a900473ffffffffffffffffffffffffffffffffffffffff16905083565b6002600054141561039a576040517f08c379a000000000000000000000000000000000000000000000000000000000815260040161039190610cc4565b60405180910390fd5b600260008190555060006103ae8383610528565b9050600260008273ffffffffffffffffffffffffffffffffffffffff1673ffffffffffffffffffffffffffffffffffffffff16815260200190815260200160002060009054906101000a900460ff1661043c576040517f08c379a000000000000000000000000000000000000000000000000000000000815260040161043390610d7c565b60405180910390fd5b60405180606001604052808581526020014281526020013373ffffffffffffffffffffffffffffffffffffffff1681525060016000858152602001908152602001600020600082015181600001556020820151816001015560408201518160020160006101000a81548173ffffffffffffffffffffffffffffffffffffffff021916908373ffffffffffffffffffffffffffffffffffffffff160217905550905050827f98bf26ccdb9d2aea868d927938a0471b3f1491ef4aff63aa9c833bffb284ba2985423360405161051293929190610b95565b60405180910390a2506001600081905550505050565b600080600080604185511415610555576020850151925060408501519150606085015160001a90506105db565b60408551141561059f576040850151602086015193507f7fffffffffffffffffffffffffffffffffffffffffffffffffffffffffffffff81169250601b8160ff1c019150506105da565b6040517f08c379a00000000000000000000000000000000000000000000000000000000081526004016105d190610de8565b60405180910390fd5b5b6105e7868285856105f2565b935050505092915050565b60007f7fffffffffffffffffffffffffffffff5d576e7357a4501ddfe92f46681b20a08260001c111561065a576040517f08c379a000000000000000000000000000000000000000000000000000000000815260040161065190610e7a565b60405180910390fd5b601b8460ff16148061066f5750601c8460ff16145b6106ae576040517f08c379a00000000000000000000000000000000000000000000000000000000081526004016106a590610f0c565b60405180910390fd5b6000600186868686604051600081526020016040526040516106d39493929190610f57565b6020604051602081039080840390855afa1580156106f5573d6000803e3d6000fd5b505050602060405103519050600073ffffffffffffffffffffffffffffffffffffffff168173ffffffffffffffffffffffffffffffffffffffff161415610771576040517f08c379a000000000000000000000000000000000000000000000000000000000815260040161076890610fe8565b60405180910390fd5b80915050949350505050565b60405180606001604052806000815260200160008152602001600073ffffffffffffffffffffffffffffffffffffffff1681525090565b6000604051905090565b600080fd5b600080fd5b6000819050919050565b6107db816107c8565b81146107e657600080fd5b50565b6000813590506107f8816107d2565b92915050565b600060208284031215610814576108136107be565b5b6000610822848285016107e9565b91505092915050565b6000819050919050565b61083e8161082b565b82525050565b600073ffffffffffffffffffffffffffffffffffffffff82169050919050565b600061086f82610844565b9050919050565b61087f81610864565b82525050565b60608201600082015161089b6000850182610835565b5060208201516108ae6020850182610835565b5060408201516108c16040850182610876565b50505050565b60006060820190506108dc6000830184610885565b92915050565b6108eb81610864565b81146108f657600080fd5b50565b600081359050610908816108e2565b92915050565b600060208284031215610924576109236107be565b5b6000610932848285016108f9565b91505092915050565b60008115159050919050565b6109508161093b565b82525050565b600060208201905061096b6000830184610947565b92915050565b600080fd5b600080fd5b6000601f19601f8301169050919050565b7f4e487b7100000000000000000000000000000000000000000000000000000000600052604160045260246000fd5b6109c48261097b565b810181811067ffffffffffffffff821117156109e3576109e261098c565b5b80604052505050565b60006109f66107b4565b9050610a0282826109bb565b919050565b600067ffffffffffffffff821115610a2257610a2161098c565b5b610a2b8261097b565b9050602081019050919050565b82818337600083830152505050565b6000610a5a610a5584610a07565b6109ec565b905082815260208101848484011115610a7657610a75610976565b5b610a81848285610a38565b509392505050565b600082601f830112610a9e57610a9d610971565b5b8135610aae848260208601610a47565b91505092915050565b60008060408385031215610ace57610acd6107be565b5b6000610adc858286016107e9565b925050602083013567ffffffffffffffff811115610afd57610afc6107c3565b5b610b0985828601610a89565b9150509250929050565b600060208284031215610b2957610b286107be565b5b600082013567ffffffffffffffff811115610b4757610b466107c3565b5b610b5384828501610a89565b91505092915050565b610b6581610864565b82525050565b6000602082019050610b806000830184610b5c565b92915050565b610b8f8161082b565b82525050565b6000606082019050610baa6000830186610b86565b610bb76020830185610b86565b610bc46040830184610b5c565b949350505050565b610bd58161082b565b8114610be057600080fd5b50565b600081359050610bf281610bcc565b92915050565b600080600060608486031215610c1157610c106107be565b5b6000610c1f86828701610be3565b9350506020610c30868287016107e9565b925050604084013567ffffffffffffffff811115610c5157610c506107c3565b5b610c5d86828701610a89565b9150509250925092565b600082825260208201905092915050565b7f5265656e7472616e637947756172643a207265656e7472616e742063616c6c00600082015250565b6000610cae601f83610c67565b9150610cb982610c78565b602082019050919050565b60006020820190508181036000830152610cdd81610ca1565b9050919050565b7f5369676e617475726520646f65736e2774206d6174636820616e79204c49542060008201527f6b657920666f722074686520676976656e2068617368656420636f6e6469746960208201527f6f6e000000000000000000000000000000000000000000000000000000000000604082015250565b6000610d66604283610c67565b9150610d7182610ce4565b606082019050919050565b60006020820190508181036000830152610d9581610d59565b9050919050565b7f45434453413a20696e76616c6964207369676e6174757265206c656e67746800600082015250565b6000610dd2601f83610c67565b9150610ddd82610d9c565b602082019050919050565b60006020820190508181036000830152610e0181610dc5565b9050919050565b7f45434453413a20696e76616c6964207369676e6174757265202773272076616c60008201527f7565000000000000000000000000000000000000000000000000000000000000602082015250565b6000610e64602283610c67565b9150610e6f82610e08565b604082019050919050565b60006020820190508181036000830152610e9381610e57565b9050919050565b7f45434453413a20696e76616c6964207369676e6174757265202776272076616c60008201527f7565000000000000000000000000000000000000000000000000000000000000602082015250565b6000610ef6602283610c67565b9150610f0182610e9a565b604082019050919050565b60006020820190508181036000830152610f2581610ee9565b9050919050565b610f35816107c8565b82525050565b600060ff82169050919050565b610f5181610f3b565b82525050565b6000608082019050610f6c6000830187610f2c565b610f796020830186610f48565b610f866040830185610f2c565b610f936060830184610f2c565b95945050505050565b7f45434453413a20696e76616c6964207369676e61747572650000000000000000600082015250565b6000610fd2601883610c67565b9150610fdd82610f9c565b602082019050919050565b6000602082019050818103600083015261100181610fc5565b905091905056fea26469706673582212208648701bfaed930e0137f7a92c3a3549fa6bbdd8e7ace321f9d8d8963804af4164736f6c634300080b0033",
  "immutableReferences": {},
  "source": "//SPDX-License-Identifier: GPL-3.0-or-later\npragma solidity ^0.8.0;\n\nimport {ReentrancyGuard} from \"@openzeppelin/contracts/security/ReentrancyGuard.sol\";\nimport {ECDSA} from \"@openzeppelin/contracts/utils/cryptography/ECDSA.sol\";\n\nimport \"hardhat/console.sol\";\n\n/// @title Lit Protocol Validation Record\n///\n/// @dev This is the contract for recording cross chain validations.\n///\n/// Briefly, this contract is used to record the validation of a transaction\n\n/*\nTodos\n- conditions are mutative by nature, and only exist at a point in time.   So do we need to be able to update them, or just keep a point in time record?\n    - if we keep a running history, AND we want to be able to reference them by condition hash, we may end up with an array of arrays ... or other more complex structure.\n    - alternatively, we could just map the most recent condition, storing historical conditions in a seperate structure (ie, move them -> however this risks significant gaps, based on updates.   \n    It's also identical tot he \"emit\", but with no guarantees of emitted data being complete.)\n- need to be able to update public keys / owners; currently this is a single owner contract, and we can't update the owner. \n*/\n\ncontract ConditionValidations is ReentrancyGuard {\n    /* ========== STRUCTS ========== */\n    struct ValidatedCondition {\n        uint256 chainId;\n        uint256 timestamp;\n        address creator;\n    }\n\n    struct ValidAddress {\n        bool isValid;\n    }\n\n    /* ========== STATE VARIABLES ========== */\n    mapping(bytes32 => ValidatedCondition) public validatedConditions;\n    mapping(address => bool) public validAddresses;\n\n    /* ========== CONSTRUCTOR ========== */\n\n    // constructor(bytes memory _publicKey) {\n    //     require(_publicKey.length == 64);\n    //     address addrFromPublicKey = address(\n    //         bytes20(uint160(uint256(keccak256(_publicKey))))\n    //     );\n\n    //     validAddresses[addrFromPublicKey] = true;\n    // }\n\n    constructor(address _ownerAddress) {\n        validAddresses[_ownerAddress] = true;\n    }\n\n    /* ========== VIEWS ========== */\n\n    function getValidatedCondition(bytes32 conditionHashKey)\n        external\n        view\n        returns (ValidatedCondition memory)\n    {\n        // check if key exists in validatedConditions\n        if (validatedConditions[conditionHashKey].timestamp != 0) {\n            return validatedConditions[conditionHashKey];\n        } else {\n            return ValidatedCondition(0, 0, address(0));\n        }\n    }\n\n    function verifySignature(bytes32 conditionHash, bytes memory signature)\n        external\n        view\n        returns (bool)\n    {\n        address sigAddress = ECDSA.recover(conditionHash, signature);\n        return validAddresses[sigAddress];\n    }\n\n    function testPubKeyToAddress(bytes memory _publicKey)\n        external\n        pure\n        returns (address)\n    {\n        //require(_publicKey.length == 64);\n        address addrFromPublicKey = address(\n            bytes20(uint160(uint256(keccak256(_publicKey))))\n        );\n\n        return addrFromPublicKey;\n    }\n\n    /* ========== MUTATIVE FUNCTIONS ========== */\n    function storeValidatedCondition(\n        uint256 chainId,\n        bytes32 conditionHash,\n        bytes memory signature\n    ) external nonReentrant {\n        // check if the signature is valid\n        address sigAddress = ECDSA.recover(conditionHash, signature);\n\n        require(\n            validAddresses[sigAddress],\n            \"Signature doesn't match any LIT key for the given hashed condition\"\n        );\n\n        validatedConditions[conditionHash] = ValidatedCondition(\n            chainId,\n            block.timestamp,\n            msg.sender\n        );\n        emit ValidationStored(\n            conditionHash,\n            chainId,\n            block.timestamp,\n            msg.sender\n        );\n    }\n\n    /* ========== EVENTS ========== */\n\n    event ValidationStored(\n        bytes32 indexed conditionHash,\n        uint256 chainId,\n        uint256 timestamp,\n        address creator\n    );\n}\n",
  "sourcePath": "/Users/brendonpaul/Documents/GitHub/LitNodeContracts/contracts/ConditionValidations.sol",
  "compiler": {
    "name": "solc",
    "version": "0.8.11+commit.d7f03943.Emscripten.clang"
  },
  "schemaVersion": "3.4.4",
  "updatedAt": "2022-04-22T01:37:16.097Z",
  "devdoc": {
    "details": "This is the contract for recording cross chain validations. Briefly, this contract is used to record the validation of a transaction",
    "kind": "dev",
    "methods": {},
    "title": "Lit Protocol Validation Record",
    "version": 1
  },
  "userdoc": {
    "kind": "user",
    "methods": {},
    "version": 1
  }
}