{
  "contractName": "Staking",
  "abi": [
    {
      "inputs": [
        {
          "internalType": "address",
          "name": "_stakingToken",
          "type": "address"
        }
      ],
      "stateMutability": "nonpayable",
      "type": "constructor"
    },
    {
      "anonymous": false,
      "inputs": [
        {
          "indexed": true,
          "internalType": "address",
          "name": "previousOwner",
          "type": "address"
        },
        {
          "indexed": true,
          "internalType": "address",
          "name": "newOwner",
          "type": "address"
        }
      ],
      "name": "OwnershipTransferred",
      "type": "event"
    },
    {
      "anonymous": false,
      "inputs": [
        {
          "indexed": false,
          "internalType": "address",
          "name": "account",
          "type": "address"
        }
      ],
      "name": "Paused",
      "type": "event"
    },
    {
      "anonymous": false,
      "inputs": [
        {
          "indexed": false,
          "internalType": "address",
          "name": "token",
          "type": "address"
        },
        {
          "indexed": false,
          "internalType": "uint256",
          "name": "amount",
          "type": "uint256"
        }
      ],
      "name": "Recovered",
      "type": "event"
    },
    {
      "anonymous": false,
      "inputs": [
        {
          "indexed": true,
          "internalType": "address",
          "name": "user",
          "type": "address"
        },
        {
          "indexed": false,
          "internalType": "uint256",
          "name": "reward",
          "type": "uint256"
        }
      ],
      "name": "RewardPaid",
      "type": "event"
    },
    {
      "anonymous": false,
      "inputs": [
        {
          "indexed": false,
          "internalType": "uint256",
          "name": "newDuration",
          "type": "uint256"
        }
      ],
      "name": "RewardsDurationUpdated",
      "type": "event"
    },
    {
      "anonymous": false,
      "inputs": [
        {
          "indexed": true,
          "internalType": "address",
          "name": "user",
          "type": "address"
        },
        {
          "indexed": false,
          "internalType": "uint256",
          "name": "amount",
          "type": "uint256"
        }
      ],
      "name": "Staked",
      "type": "event"
    },
    {
      "anonymous": false,
      "inputs": [
        {
          "indexed": false,
          "internalType": "address",
          "name": "account",
          "type": "address"
        }
      ],
      "name": "Unpaused",
      "type": "event"
    },
    {
      "anonymous": false,
      "inputs": [
        {
          "indexed": true,
          "internalType": "address",
          "name": "user",
          "type": "address"
        },
        {
          "indexed": false,
          "internalType": "uint256",
          "name": "amount",
          "type": "uint256"
        }
      ],
      "name": "Withdrawn",
      "type": "event"
    },
    {
      "inputs": [],
      "name": "epoch",
      "outputs": [
        {
          "internalType": "uint256",
          "name": "epochLength",
          "type": "uint256"
        },
        {
          "internalType": "uint256",
          "name": "number",
          "type": "uint256"
        },
        {
          "internalType": "uint256",
          "name": "endBlock",
          "type": "uint256"
        }
      ],
      "stateMutability": "view",
      "type": "function"
    },
    {
      "inputs": [],
      "name": "epochNumberForValidatorsInNextEpoch",
      "outputs": [
        {
          "internalType": "uint256",
          "name": "",
          "type": "uint256"
        }
      ],
      "stateMutability": "view",
      "type": "function"
    },
    {
      "inputs": [],
      "name": "minimumStake",
      "outputs": [
        {
          "internalType": "uint256",
          "name": "",
          "type": "uint256"
        }
      ],
      "stateMutability": "view",
      "type": "function"
    },
    {
      "inputs": [
        {
          "internalType": "address",
          "name": "",
          "type": "address"
        }
      ],
      "name": "nodeAddressToStakerAddress",
      "outputs": [
        {
          "internalType": "address",
          "name": "",
          "type": "address"
        }
      ],
      "stateMutability": "view",
      "type": "function"
    },
    {
      "inputs": [],
      "name": "owner",
      "outputs": [
        {
          "internalType": "address",
          "name": "",
          "type": "address"
        }
      ],
      "stateMutability": "view",
      "type": "function"
    },
    {
      "inputs": [],
      "name": "paused",
      "outputs": [
        {
          "internalType": "bool",
          "name": "",
          "type": "bool"
        }
      ],
      "stateMutability": "view",
      "type": "function"
    },
    {
      "inputs": [],
      "name": "renounceOwnership",
      "outputs": [],
      "stateMutability": "nonpayable",
      "type": "function"
    },
    {
      "inputs": [],
      "name": "stakingToken",
      "outputs": [
        {
          "internalType": "contract IERC20",
          "name": "",
          "type": "address"
        }
      ],
      "stateMutability": "view",
      "type": "function"
    },
    {
      "inputs": [],
      "name": "tokenRewardPerTokenPerEpoch",
      "outputs": [
        {
          "internalType": "uint256",
          "name": "",
          "type": "uint256"
        }
      ],
      "stateMutability": "view",
      "type": "function"
    },
    {
      "inputs": [],
      "name": "totalStaked",
      "outputs": [
        {
          "internalType": "uint256",
          "name": "",
          "type": "uint256"
        }
      ],
      "stateMutability": "view",
      "type": "function"
    },
    {
      "inputs": [
        {
          "internalType": "address",
          "name": "newOwner",
          "type": "address"
        }
      ],
      "name": "transferOwnership",
      "outputs": [],
      "stateMutability": "nonpayable",
      "type": "function"
    },
    {
      "inputs": [
        {
          "internalType": "address",
          "name": "",
          "type": "address"
        }
      ],
      "name": "validators",
      "outputs": [
        {
          "internalType": "uint32",
          "name": "ip",
          "type": "uint32"
        },
        {
          "internalType": "uint32",
          "name": "port",
          "type": "uint32"
        },
        {
          "internalType": "address",
          "name": "nodeAddress",
          "type": "address"
        },
        {
          "internalType": "uint256",
          "name": "balance",
          "type": "uint256"
        },
        {
          "internalType": "uint256",
          "name": "reward",
          "type": "uint256"
        }
      ],
      "stateMutability": "view",
      "type": "function"
    },
    {
      "inputs": [],
      "name": "validatorsForNextEpochLocked",
      "outputs": [
        {
          "internalType": "bool",
          "name": "",
          "type": "bool"
        }
      ],
      "stateMutability": "view",
      "type": "function"
    },
    {
      "inputs": [
        {
          "internalType": "address",
          "name": "account",
          "type": "address"
        }
      ],
      "name": "rewardOf",
      "outputs": [
        {
          "internalType": "uint256",
          "name": "",
          "type": "uint256"
        }
      ],
      "stateMutability": "view",
      "type": "function"
    },
    {
      "inputs": [
        {
          "internalType": "address",
          "name": "account",
          "type": "address"
        }
      ],
      "name": "balanceOf",
      "outputs": [
        {
          "internalType": "uint256",
          "name": "",
          "type": "uint256"
        }
      ],
      "stateMutability": "view",
      "type": "function"
    },
    {
      "inputs": [],
      "name": "getValidatorsInCurrentEpoch",
      "outputs": [
        {
          "internalType": "address[]",
          "name": "",
          "type": "address[]"
        }
      ],
      "stateMutability": "view",
      "type": "function"
    },
    {
      "inputs": [],
      "name": "getValidatorsInNextEpoch",
      "outputs": [
        {
          "internalType": "address[]",
          "name": "",
          "type": "address[]"
        }
      ],
      "stateMutability": "view",
      "type": "function"
    },
    {
      "inputs": [],
      "name": "lockValidatorsForNextEpoch",
      "outputs": [],
      "stateMutability": "nonpayable",
      "type": "function"
    },
    {
      "inputs": [],
      "name": "advanceEpoch",
      "outputs": [],
      "stateMutability": "nonpayable",
      "type": "function"
    },
    {
      "inputs": [
        {
          "internalType": "uint256",
          "name": "amount",
          "type": "uint256"
        },
        {
          "internalType": "uint32",
          "name": "ip",
          "type": "uint32"
        },
        {
          "internalType": "uint32",
          "name": "port",
          "type": "uint32"
        },
        {
          "internalType": "address",
          "name": "nodeAddress",
          "type": "address"
        }
      ],
      "name": "stakeAndJoin",
      "outputs": [],
      "stateMutability": "nonpayable",
      "type": "function"
    },
    {
      "inputs": [
        {
          "internalType": "uint256",
          "name": "amount",
          "type": "uint256"
        }
      ],
      "name": "withdraw",
      "outputs": [],
      "stateMutability": "nonpayable",
      "type": "function"
    },
    {
      "inputs": [],
      "name": "requestToLeave",
      "outputs": [],
      "stateMutability": "nonpayable",
      "type": "function"
    },
    {
      "inputs": [],
      "name": "getReward",
      "outputs": [],
      "stateMutability": "nonpayable",
      "type": "function"
    },
    {
      "inputs": [],
      "name": "exit",
      "outputs": [],
      "stateMutability": "nonpayable",
      "type": "function"
    },
    {
      "inputs": [
        {
          "internalType": "uint32",
          "name": "ip",
          "type": "uint32"
        },
        {
          "internalType": "uint32",
          "name": "port",
          "type": "uint32"
        }
      ],
      "name": "setIpPortAndNodeAddress",
      "outputs": [],
      "stateMutability": "nonpayable",
      "type": "function"
    },
    {
      "inputs": [
        {
          "internalType": "uint256",
          "name": "newEpochLength",
          "type": "uint256"
        }
      ],
      "name": "setEpochLength",
      "outputs": [],
      "stateMutability": "nonpayable",
      "type": "function"
    },
    {
      "inputs": [
        {
          "internalType": "address",
          "name": "newStakingTokenAddress",
          "type": "address"
        }
      ],
      "name": "setStakingToken",
      "outputs": [],
      "stateMutability": "nonpayable",
      "type": "function"
    },
    {
      "inputs": [
        {
          "internalType": "uint256",
          "name": "newTokenRewardPerTokenPerEpoch",
          "type": "uint256"
        }
      ],
      "name": "setTokenRewardPerTokenPerEpoch",
      "outputs": [],
      "stateMutability": "nonpayable",
      "type": "function"
    },
    {
      "inputs": [
        {
          "internalType": "uint256",
          "name": "newMinimumStake",
          "type": "uint256"
        }
      ],
      "name": "setMinimumStake",
      "outputs": [],
      "stateMutability": "nonpayable",
      "type": "function"
    }
  ],
  "bytecode": "0x60806040523480156200001157600080fd5b50604051620040e6380380620040e6833981810160405281019062000037919062000a4d565b60016000819055506000600160006101000a81548160ff02191690831515021790555060006200006c620009db60201b60201c565b9050806001806101000a81548173ffffffffffffffffffffffffffffffffffffffff021916908373ffffffffffffffffffffffffffffffffffffffff1602179055508073ffffffffffffffffffffffffffffffffffffffff16600073ffffffffffffffffffffffffffffffffffffffff167f8be0079c531659141344cd1fd0a4f28419497f9722a3daafe3b4186f6b6457e060405160405180910390a35080600260006101000a81548173ffffffffffffffffffffffffffffffffffffffff021916908373ffffffffffffffffffffffffffffffffffffffff1602179055506040518060600160405280600181526020016001815260200160014362000173919062000ab8565b81525060036000820151816000015560208201518160010155604082015181600201559050506014600260009054906101000a900473ffffffffffffffffffffffffffffffffffffffff1673ffffffffffffffffffffffffffffffffffffffff1663313ce5676040518163ffffffff1660e01b8152600401602060405180830381865afa15801562000209573d6000803e3d6000fd5b505050506040513d601f19601f820116820180604052508101906200022f919062000b53565b600a186200023e919062000bb4565b60ff1660078190555060026008819055506000604051806101400160405280732e910606fba7c361cee433d92ed2cf21cbbe4ea573ffffffffffffffffffffffffffffffffffffffff1673ffffffffffffffffffffffffffffffffffffffff16815260200173c027471d03f30669c69abc6d167835c4987185ca73ffffffffffffffffffffffffffffffffffffffff1673ffffffffffffffffffffffffffffffffffffffff168152602001733dbfcf705d31d1b15c49379f2a27f1bbdfcc254473ffffffffffffffffffffffffffffffffffffffff1673ffffffffffffffffffffffffffffffffffffffff168152602001734b8bf506c3a84f70f8d4846810b23ea7ba843e7b73ffffffffffffffffffffffffffffffffffffffff1673ffffffffffffffffffffffffffffffffffffffff1681526020017340903e6df2038387eea2751de5d88980c8c3ee9e73ffffffffffffffffffffffffffffffffffffffff1673ffffffffffffffffffffffffffffffffffffffff168152602001738a328fee737ff229c6a0ef73fffaf745fa7a9af873ffffffffffffffffffffffffffffffffffffffff1673ffffffffffffffffffffffffffffffffffffffff16815260200173a2e4dc9bdeb241a6d7dd6b1890508352041295fe73ffffffffffffffffffffffffffffffffffffffff1673ffffffffffffffffffffffffffffffffffffffff16815260200173aa30b2396e0ee819fd3e02aecd53083828c1daf173ffffffffffffffffffffffffffffffffffffffff1673ffffffffffffffffffffffffffffffffffffffff16815260200173eb9852914510d8248d367a0e4689fb5a4e1cf37573ffffffffffffffffffffffffffffffffffffffff1673ffffffffffffffffffffffffffffffffffffffff16815260200173237844451b37231ea04c25031b86cc943eb0ed1473ffffffffffffffffffffffffffffffffffffffff1673ffffffffffffffffffffffffffffffffffffffff1681525090506000637f00000190506000611d2e905060005b600a8163ffffffff161015620009b5576040518060a001604052808463ffffffff168152602001828462000561919062000bfc565b63ffffffff168152602001858363ffffffff16600a811062000588576200058762000c3d565b5b602002015173ffffffffffffffffffffffffffffffffffffffff16815260200160008152602001600081525060116000868463ffffffff16600a8110620005d457620005d362000c3d565b5b602002015173ffffffffffffffffffffffffffffffffffffffff1673ffffffffffffffffffffffffffffffffffffffff16815260200190815260200160002060008201518160000160006101000a81548163ffffffff021916908363ffffffff16021790555060208201518160000160046101000a81548163ffffffff021916908363ffffffff16021790555060408201518160000160086101000a81548173ffffffffffffffffffffffffffffffffffffffff021916908373ffffffffffffffffffffffffffffffffffffffff1602179055506060820151816001015560808201518160020155905050600a60000180549050600a6002016000868463ffffffff16600a8110620006eb57620006ea62000c3d565b5b602002015173ffffffffffffffffffffffffffffffffffffffff1673ffffffffffffffffffffffffffffffffffffffff16815260200190815260200160002081905550600a600001848263ffffffff16600a81106200074f576200074e62000c3d565b5b60200201519080600181540180825580915050600190039060005260206000200160009091909190916101000a81548173ffffffffffffffffffffffffffffffffffffffff021916908373ffffffffffffffffffffffffffffffffffffffff1602179055506001600a6001016000868463ffffffff16600a8110620007d957620007d862000c3d565b5b602002015173ffffffffffffffffffffffffffffffffffffffff1673ffffffffffffffffffffffffffffffffffffffff16815260200190815260200160002060006101000a81548160ff021916908315150217905550600d60000180549050600d6002016000868463ffffffff16600a81106200085b576200085a62000c3d565b5b602002015173ffffffffffffffffffffffffffffffffffffffff1673ffffffffffffffffffffffffffffffffffffffff16815260200190815260200160002081905550600d600001848263ffffffff16600a8110620008bf57620008be62000c3d565b5b60200201519080600181540180825580915050600190039060005260206000200160009091909190916101000a81548173ffffffffffffffffffffffffffffffffffffffff021916908373ffffffffffffffffffffffffffffffffffffffff1602179055506001600d6001016000868463ffffffff16600a811062000949576200094862000c3d565b5b602002015173ffffffffffffffffffffffffffffffffffffffff1673ffffffffffffffffffffffffffffffffffffffff16815260200190815260200160002060006101000a81548160ff0219169083151502179055508080620009ac9062000c6c565b9150506200052c565b506000601060006101000a81548160ff0219169083151502179055505050505062000c9e565b600033905090565b600080fd5b600073ffffffffffffffffffffffffffffffffffffffff82169050919050565b600062000a1582620009e8565b9050919050565b62000a278162000a08565b811462000a3357600080fd5b50565b60008151905062000a478162000a1c565b92915050565b60006020828403121562000a665762000a65620009e3565b5b600062000a768482850162000a36565b91505092915050565b6000819050919050565b7f4e487b7100000000000000000000000000000000000000000000000000000000600052601160045260246000fd5b600062000ac58262000a7f565b915062000ad28362000a7f565b9250827fffffffffffffffffffffffffffffffffffffffffffffffffffffffffffffffff0382111562000b0a5762000b0962000a89565b5b828201905092915050565b600060ff82169050919050565b62000b2d8162000b15565b811462000b3957600080fd5b50565b60008151905062000b4d8162000b22565b92915050565b60006020828403121562000b6c5762000b6b620009e3565b5b600062000b7c8482850162000b3c565b91505092915050565b7f4e487b7100000000000000000000000000000000000000000000000000000000600052601260045260246000fd5b600062000bc18262000b15565b915062000bce8362000b15565b92508262000be15762000be062000b85565b5b828204905092915050565b600063ffffffff82169050919050565b600062000c098262000bec565b915062000c168362000bec565b92508263ffffffff0382111562000c325762000c3162000a89565b5b828201905092915050565b7f4e487b7100000000000000000000000000000000000000000000000000000000600052603260045260246000fd5b600062000c798262000bec565b915063ffffffff82141562000c935762000c9262000a89565b5b600182019050919050565b6134388062000cae6000396000f3fe608060405234801561001057600080fd5b50600436106101cf5760003560e01c806370a0823111610104578063900cf0cf116100a2578063e9fad8ee11610071578063e9fad8ee14610488578063ec5ffac214610492578063f2fde38b146104b0578063fa52c7d8146104cc576101cf565b8063900cf0cf14610422578063ac2f8afe14610442578063c35d4d091461044c578063c74aa0581461046a576101cf565b80637b1afca5116100de5780637b1afca5146103aa578063817b1cd2146103c8578063857b7663146103e65780638da5cb5b14610404576101cf565b806370a0823114610352578063715018a61461038257806372f702f31461038c576101cf565b80633d18b9121161017157806354eea7961161014b57806354eea796146102e05780635ac8a3ae146102fc5780635c975abb146103185780636f75a09614610336576101cf565b80633d18b9121461028a578063455b0de6146102945780635081f66f146102b0576101cf565b80631e9b12ef116101ad5780631e9b12ef1461022c578063233e9903146102485780632e1a7d4d146102645780633cf80e6c14610280576101cf565b8063063d8239146101d457806316930f4d146101f25780631d62ebd9146101fc575b600080fd5b6101dc610500565b6040516101e99190612420565b60405180910390f35b6101fa610506565b005b6102166004803603810190610211919061249e565b61056b565b6040516102239190612420565b60405180910390f35b6102466004803603810190610241919061249e565b6105b7565b005b610262600480360381019061025d91906124f7565b610677565b005b61027e600480360381019061027991906124f7565b6106fd565b005b610288610a05565b005b610292610e02565b005b6102ae60048036038101906102a991906124f7565b610f8f565b005b6102ca60048036038101906102c5919061249e565b611015565b6040516102d79190612533565b60405180910390f35b6102fa60048036038101906102f591906124f7565b611048565b005b6103166004803603810190610311919061258a565b6110d1565b005b6103206116cc565b60405161032d919061260c565b60405180910390f35b610350600480360381019061034b9190612627565b6116e3565b005b61036c6004803603810190610367919061249e565b6117a9565b6040516103799190612420565b60405180910390f35b61038a6117f5565b005b61039461192f565b6040516103a191906126c6565b60405180910390f35b6103b2611955565b6040516103bf919061260c565b60405180910390f35b6103d0611968565b6040516103dd9190612420565b60405180910390f35b6103ee61196e565b6040516103fb919061279f565b60405180910390f35b61040c6119ff565b6040516104199190612533565b60405180910390f35b61042a611a27565b604051610439939291906127c1565b60405180910390f35b61044a611a3f565b005b610454611af8565b604051610461919061279f565b60405180910390f35b610472611b89565b60405161047f9190612420565b60405180910390f35b610490611b8f565b005b61049a611be4565b6040516104a79190612420565b60405180910390f35b6104ca60048036038101906104c5919061249e565b611bea565b005b6104e660048036038101906104e1919061249e565b611d93565b6040516104f7959493929190612807565b60405180910390f35b60075481565b60036002015443101561054e576040517f08c379a0000000000000000000000000000000000000000000000000000000008152600401610545906128dd565b60405180910390fd5b6001601060006101000a81548160ff021916908315150217905550565b6000601160008373ffffffffffffffffffffffffffffffffffffffff1673ffffffffffffffffffffffffffffffffffffffff168152602001908152602001600020600201549050919050565b6105bf611e09565b73ffffffffffffffffffffffffffffffffffffffff166105dd6119ff565b73ffffffffffffffffffffffffffffffffffffffff1614610633576040517f08c379a000000000000000000000000000000000000000000000000000000000815260040161062a90612949565b60405180910390fd5b80600260006101000a81548173ffffffffffffffffffffffffffffffffffffffff021916908373ffffffffffffffffffffffffffffffffffffffff16021790555050565b61067f611e09565b73ffffffffffffffffffffffffffffffffffffffff1661069d6119ff565b73ffffffffffffffffffffffffffffffffffffffff16146106f3576040517f08c379a00000000000000000000000000000000000000000000000000000000081526004016106ea90612949565b60405180910390fd5b8060088190555050565b60026000541415610743576040517f08c379a000000000000000000000000000000000000000000000000000000000815260040161073a906129b5565b60405180910390fd5b60026000819055506000811161078e576040517f08c379a000000000000000000000000000000000000000000000000000000000815260040161078590612a21565b60405180910390fd5b60001515600a60010160003373ffffffffffffffffffffffffffffffffffffffff1673ffffffffffffffffffffffffffffffffffffffff16815260200190815260200160002060009054906101000a900460ff16151514610824576040517f08c379a000000000000000000000000000000000000000000000000000000000815260040161081b90612aff565b60405180910390fd5b80601160003373ffffffffffffffffffffffffffffffffffffffff1673ffffffffffffffffffffffffffffffffffffffff1681526020019081526020016000206001015410156108a9576040517f08c379a00000000000000000000000000000000000000000000000000000000081526004016108a090612b6b565b60405180910390fd5b6108be81600954611e1190919063ffffffff16565b60098190555061091981601160003373ffffffffffffffffffffffffffffffffffffffff1673ffffffffffffffffffffffffffffffffffffffff16815260200190815260200160002060010154611e1190919063ffffffff16565b601160003373ffffffffffffffffffffffffffffffffffffffff1673ffffffffffffffffffffffffffffffffffffffff168152602001908152602001600020600101819055506109ac3382600260009054906101000a900473ffffffffffffffffffffffffffffffffffffffff1673ffffffffffffffffffffffffffffffffffffffff16611e279092919063ffffffff16565b3373ffffffffffffffffffffffffffffffffffffffff167f7084f5476618d8e60b11ef0d7d3f06914655adb8793e28ff7f018d4c76d505d5826040516109f29190612420565b60405180910390a2600160008190555050565b600360020154431015610a4d576040517f08c379a0000000000000000000000000000000000000000000000000000000008152600401610a44906128dd565b60405180910390fd5b60011515601060009054906101000a900460ff16151514610aa3576040517f08c379a0000000000000000000000000000000000000000000000000000000008152600401610a9a90612c49565b60405180910390fd5b60005b600a60000180549050811015610bb8576000600a6000018281548110610acf57610ace612c69565b5b9060005260206000200160009054906101000a900473ffffffffffffffffffffffffffffffffffffffff169050601160008273ffffffffffffffffffffffffffffffffffffffff1673ffffffffffffffffffffffffffffffffffffffff16815260200190815260200160002060010154600754610b4c9190612cc7565b601160008373ffffffffffffffffffffffffffffffffffffffff1673ffffffffffffffffffffffffffffffffffffffff1681526020019081526020016000206002016000828254610b9d9190612d21565b92505081905550508080610bb090612d77565b915050610aa6565b5060005b600a60000180549050811015610c81576000600a6000018281548110610be557610be4612c69565b5b9060005260206000200160009054906101000a900473ffffffffffffffffffffffffffffffffffffffff1690506000600a60010160008373ffffffffffffffffffffffffffffffffffffffff1673ffffffffffffffffffffffffffffffffffffffff16815260200190815260200160002060006101000a81548160ff021916908315150217905550508080610c7990612d77565b915050610bbc565b50600d600001600a600001908054610c9a929190612398565b5060005b600a60000180549050811015610daa576000600a6000018281548110610cc757610cc6612c69565b5b9060005260206000200160009054906101000a900473ffffffffffffffffffffffffffffffffffffffff16905081600a60020160008373ffffffffffffffffffffffffffffffffffffffff1673ffffffffffffffffffffffffffffffffffffffff168152602001908152602001600020819055506001600a60010160008373ffffffffffffffffffffffffffffffffffffffff1673ffffffffffffffffffffffffffffffffffffffff16815260200190815260200160002060006101000a81548160ff021916908315150217905550508080610da290612d77565b915050610c9e565b5060036001016000815480929190610dc190612d77565b9190505550600360000154600360020154610ddc9190612d21565b6003600201819055506000601060006101000a81548160ff021916908315150217905550565b60026000541415610e48576040517f08c379a0000000000000000000000000000000000000000000000000000000008152600401610e3f906129b5565b60405180910390fd5b60026000819055506000601160003373ffffffffffffffffffffffffffffffffffffffff1673ffffffffffffffffffffffffffffffffffffffff1681526020019081526020016000206002015490506000811115610f84576000601160003373ffffffffffffffffffffffffffffffffffffffff1673ffffffffffffffffffffffffffffffffffffffff16815260200190815260200160002060020181905550610f353382600260009054906101000a900473ffffffffffffffffffffffffffffffffffffffff1673ffffffffffffffffffffffffffffffffffffffff16611e279092919063ffffffff16565b3373ffffffffffffffffffffffffffffffffffffffff167fe2403640ba68fed3a2f88b7557551d1993f84b99bb10ff833f0cf8db0c5e048682604051610f7b9190612420565b60405180910390a25b506001600081905550565b610f97611e09565b73ffffffffffffffffffffffffffffffffffffffff16610fb56119ff565b73ffffffffffffffffffffffffffffffffffffffff161461100b576040517f08c379a000000000000000000000000000000000000000000000000000000000815260040161100290612949565b60405180910390fd5b8060078190555050565b60126020528060005260406000206000915054906101000a900473ffffffffffffffffffffffffffffffffffffffff1681565b611050611e09565b73ffffffffffffffffffffffffffffffffffffffff1661106e6119ff565b73ffffffffffffffffffffffffffffffffffffffff16146110c4576040517f08c379a00000000000000000000000000000000000000000000000000000000081526004016110bb90612949565b60405180910390fd5b8060036000018190555050565b60026000541415611117576040517f08c379a000000000000000000000000000000000000000000000000000000000815260040161110e906129b5565b60405180910390fd5b60026000819055506111276116cc565b15611167576040517f08c379a000000000000000000000000000000000000000000000000000000000815260040161115e90612e0c565b60405180910390fd5b600084116111aa576040517f08c379a00000000000000000000000000000000000000000000000000000000081526004016111a190612e78565b60405180910390fd5b6008548410156111ef576040517f08c379a00000000000000000000000000000000000000000000000000000000081526004016111e690612f0a565b60405180910390fd5b60001515601060009054906101000a900460ff16151514611245576040517f08c379a000000000000000000000000000000000000000000000000000000000815260040161123c90612f9c565b60405180910390fd5b61125a84600954611ead90919063ffffffff16565b600981905550600d60010160003373ffffffffffffffffffffffffffffffffffffffff1673ffffffffffffffffffffffffffffffffffffffff16815260200190815260200160002060009054906101000a900460ff166113c557600d60000180549050600d60020160003373ffffffffffffffffffffffffffffffffffffffff1673ffffffffffffffffffffffffffffffffffffffff16815260200190815260200160002081905550600d600001339080600181540180825580915050600190039060005260206000200160009091909190916101000a81548173ffffffffffffffffffffffffffffffffffffffff021916908373ffffffffffffffffffffffffffffffffffffffff1602179055506001600d60010160003373ffffffffffffffffffffffffffffffffffffffff1673ffffffffffffffffffffffffffffffffffffffff16815260200190815260200160002060006101000a81548160ff0219169083151502179055505b61141a84601160003373ffffffffffffffffffffffffffffffffffffffff1673ffffffffffffffffffffffffffffffffffffffff16815260200190815260200160002060010154611ead90919063ffffffff16565b601160003373ffffffffffffffffffffffffffffffffffffffff1673ffffffffffffffffffffffffffffffffffffffff168152602001908152602001600020600101819055506114af333086600260009054906101000a900473ffffffffffffffffffffffffffffffffffffffff1673ffffffffffffffffffffffffffffffffffffffff16611ec3909392919063ffffffff16565b82601160003373ffffffffffffffffffffffffffffffffffffffff1673ffffffffffffffffffffffffffffffffffffffff16815260200190815260200160002060000160006101000a81548163ffffffff021916908363ffffffff16021790555081601160003373ffffffffffffffffffffffffffffffffffffffff1673ffffffffffffffffffffffffffffffffffffffff16815260200190815260200160002060000160046101000a81548163ffffffff021916908363ffffffff16021790555080601160003373ffffffffffffffffffffffffffffffffffffffff1673ffffffffffffffffffffffffffffffffffffffff16815260200190815260200160002060000160086101000a81548173ffffffffffffffffffffffffffffffffffffffff021916908373ffffffffffffffffffffffffffffffffffffffff16021790555033601260008373ffffffffffffffffffffffffffffffffffffffff1673ffffffffffffffffffffffffffffffffffffffff16815260200190815260200160002060006101000a81548173ffffffffffffffffffffffffffffffffffffffff021916908373ffffffffffffffffffffffffffffffffffffffff1602179055503373ffffffffffffffffffffffffffffffffffffffff167f9e71bc8eea02a63969f509818f2dafb9254532904319f9dbda79b67bd34a5f3d856040516116b69190612420565b60405180910390a2600160008190555050505050565b6000600160009054906101000a900460ff16905090565b81601160003373ffffffffffffffffffffffffffffffffffffffff1673ffffffffffffffffffffffffffffffffffffffff16815260200190815260200160002060000160006101000a81548163ffffffff021916908363ffffffff16021790555080601160003373ffffffffffffffffffffffffffffffffffffffff1673ffffffffffffffffffffffffffffffffffffffff16815260200190815260200160002060000160046101000a81548163ffffffff021916908363ffffffff1602179055505050565b6000601160008373ffffffffffffffffffffffffffffffffffffffff1673ffffffffffffffffffffffffffffffffffffffff168152602001908152602001600020600101549050919050565b6117fd611e09565b73ffffffffffffffffffffffffffffffffffffffff1661181b6119ff565b73ffffffffffffffffffffffffffffffffffffffff1614611871576040517f08c379a000000000000000000000000000000000000000000000000000000000815260040161186890612949565b60405180910390fd5b600073ffffffffffffffffffffffffffffffffffffffff1660018054906101000a900473ffffffffffffffffffffffffffffffffffffffff1673ffffffffffffffffffffffffffffffffffffffff167f8be0079c531659141344cd1fd0a4f28419497f9722a3daafe3b4186f6b6457e060405160405180910390a360006001806101000a81548173ffffffffffffffffffffffffffffffffffffffff021916908373ffffffffffffffffffffffffffffffffffffffff160217905550565b600260009054906101000a900473ffffffffffffffffffffffffffffffffffffffff1681565b601060009054906101000a900460ff1681565b60095481565b6060600a6000018054806020026020016040519081016040528092919081815260200182805480156119f557602002820191906000526020600020905b8160009054906101000a900473ffffffffffffffffffffffffffffffffffffffff1673ffffffffffffffffffffffffffffffffffffffff16815260200190600101908083116119ab575b5050505050905090565b600060018054906101000a900473ffffffffffffffffffffffffffffffffffffffff16905090565b60038060000154908060010154908060020154905083565b60001515601060009054906101000a900460ff16151514611a95576040517f08c379a0000000000000000000000000000000000000000000000000000000008152600401611a8c90612f9c565b60405180910390fd5b600d60010160003373ffffffffffffffffffffffffffffffffffffffff1673ffffffffffffffffffffffffffffffffffffffff16815260200190815260200160002060009054906101000a900460ff1615611af657611af5600d33611f4c565b5b565b6060600d600001805480602002602001604051908101604052809291908181526020018280548015611b7f57602002820191906000526020600020905b8160009054906101000a900473ffffffffffffffffffffffffffffffffffffffff1673ffffffffffffffffffffffffffffffffffffffff1681526020019060010190808311611b35575b5050505050905090565b60065481565b611bda601160003373ffffffffffffffffffffffffffffffffffffffff1673ffffffffffffffffffffffffffffffffffffffff168152602001908152602001600020600101546106fd565b611be2610e02565b565b60085481565b611bf2611e09565b73ffffffffffffffffffffffffffffffffffffffff16611c106119ff565b73ffffffffffffffffffffffffffffffffffffffff1614611c66576040517f08c379a0000000000000000000000000000000000000000000000000000000008152600401611c5d90612949565b60405180910390fd5b600073ffffffffffffffffffffffffffffffffffffffff168173ffffffffffffffffffffffffffffffffffffffff161415611cd6576040517f08c379a0000000000000000000000000000000000000000000000000000000008152600401611ccd9061302e565b60405180910390fd5b8073ffffffffffffffffffffffffffffffffffffffff1660018054906101000a900473ffffffffffffffffffffffffffffffffffffffff1673ffffffffffffffffffffffffffffffffffffffff167f8be0079c531659141344cd1fd0a4f28419497f9722a3daafe3b4186f6b6457e060405160405180910390a3806001806101000a81548173ffffffffffffffffffffffffffffffffffffffff021916908373ffffffffffffffffffffffffffffffffffffffff16021790555050565b60116020528060005260406000206000915090508060000160009054906101000a900463ffffffff16908060000160049054906101000a900463ffffffff16908060000160089054906101000a900473ffffffffffffffffffffffffffffffffffffffff16908060010154908060020154905085565b600033905090565b60008183611e1f919061304e565b905092915050565b611ea88363a9059cbb60e01b8484604051602401611e46929190613082565b604051602081830303815290604052907bffffffffffffffffffffffffffffffffffffffffffffffffffffffff19166020820180517bffffffffffffffffffffffffffffffffffffffffffffffffffffffff838183161783525050505061212b565b505050565b60008183611ebb9190612d21565b905092915050565b611f46846323b872dd60e01b858585604051602401611ee4939291906130ab565b604051602081830303815290604052907bffffffffffffffffffffffffffffffffffffffffffffffffffffffff19166020820180517bffffffffffffffffffffffffffffffffffffffffffffffffffffffff838183161783525050505061212b565b50505050565b60008260020160008373ffffffffffffffffffffffffffffffffffffffff1673ffffffffffffffffffffffffffffffffffffffff16815260200190815260200160002054905082600001805490508110611fa557600080fd5b8260000160018460000180549050611fbd919061304e565b81548110611fce57611fcd612c69565b5b9060005260206000200160009054906101000a900473ffffffffffffffffffffffffffffffffffffffff1683600001828154811061200f5761200e612c69565b5b9060005260206000200160006101000a81548173ffffffffffffffffffffffffffffffffffffffff021916908373ffffffffffffffffffffffffffffffffffffffff1602179055508083600201600085600001848154811061207457612073612c69565b5b9060005260206000200160009054906101000a900473ffffffffffffffffffffffffffffffffffffffff1673ffffffffffffffffffffffffffffffffffffffff1673ffffffffffffffffffffffffffffffffffffffff16815260200190815260200160002081905550826000018054806120f1576120f06130e2565b5b6001900381819060005260206000200160006101000a81549073ffffffffffffffffffffffffffffffffffffffff02191690559055505050565b600061218d826040518060400160405280602081526020017f5361666545524332303a206c6f772d6c6576656c2063616c6c206661696c65648152508573ffffffffffffffffffffffffffffffffffffffff166121f29092919063ffffffff16565b90506000815111156121ed57808060200190518101906121ad919061313d565b6121ec576040517f08c379a00000000000000000000000000000000000000000000000000000000081526004016121e3906131dc565b60405180910390fd5b5b505050565b6060612201848460008561220a565b90509392505050565b60608247101561224f576040517f08c379a00000000000000000000000000000000000000000000000000000000081526004016122469061326e565b60405180910390fd5b6122588561231e565b612297576040517f08c379a000000000000000000000000000000000000000000000000000000000815260040161228e906132da565b60405180910390fd5b6000808673ffffffffffffffffffffffffffffffffffffffff1685876040516122c09190613374565b60006040518083038185875af1925050503d80600081146122fd576040519150601f19603f3d011682016040523d82523d6000602084013e612302565b606091505b5091509150612312828286612331565b92505050949350505050565b600080823b905060008111915050919050565b6060831561234157829050612391565b6000835111156123545782518084602001fd5b816040517f08c379a000000000000000000000000000000000000000000000000000000000815260040161238891906133e0565b60405180910390fd5b9392505050565b8280548282559060005260206000209081019282156123d95760005260206000209182015b828111156123d85782548255916001019190600101906123bd565b5b5090506123e691906123ea565b5090565b5b808211156124035760008160009055506001016123eb565b5090565b6000819050919050565b61241a81612407565b82525050565b60006020820190506124356000830184612411565b92915050565b600080fd5b600073ffffffffffffffffffffffffffffffffffffffff82169050919050565b600061246b82612440565b9050919050565b61247b81612460565b811461248657600080fd5b50565b60008135905061249881612472565b92915050565b6000602082840312156124b4576124b361243b565b5b60006124c284828501612489565b91505092915050565b6124d481612407565b81146124df57600080fd5b50565b6000813590506124f1816124cb565b92915050565b60006020828403121561250d5761250c61243b565b5b600061251b848285016124e2565b91505092915050565b61252d81612460565b82525050565b60006020820190506125486000830184612524565b92915050565b600063ffffffff82169050919050565b6125678161254e565b811461257257600080fd5b50565b6000813590506125848161255e565b92915050565b600080600080608085870312156125a4576125a361243b565b5b60006125b2878288016124e2565b94505060206125c387828801612575565b93505060406125d487828801612575565b92505060606125e587828801612489565b91505092959194509250565b60008115159050919050565b612606816125f1565b82525050565b600060208201905061262160008301846125fd565b92915050565b6000806040838503121561263e5761263d61243b565b5b600061264c85828601612575565b925050602061265d85828601612575565b9150509250929050565b6000819050919050565b600061268c61268761268284612440565b612667565b612440565b9050919050565b600061269e82612671565b9050919050565b60006126b082612693565b9050919050565b6126c0816126a5565b82525050565b60006020820190506126db60008301846126b7565b92915050565b600081519050919050565b600082825260208201905092915050565b6000819050602082019050919050565b61271681612460565b82525050565b6000612728838361270d565b60208301905092915050565b6000602082019050919050565b600061274c826126e1565b61275681856126ec565b9350612761836126fd565b8060005b83811015612792578151612779888261271c565b975061278483612734565b925050600181019050612765565b5085935050505092915050565b600060208201905081810360008301526127b98184612741565b905092915050565b60006060820190506127d66000830186612411565b6127e36020830185612411565b6127f06040830184612411565b949350505050565b6128018161254e565b82525050565b600060a08201905061281c60008301886127f8565b61282960208301876127f8565b6128366040830186612524565b6128436060830185612411565b6128506080830184612411565b9695505050505050565b600082825260208201905092915050565b7f456e6f75676820626c6f636b732068617665206e6f7420656c6170736564207360008201527f696e636520746865206c6173742065706f636800000000000000000000000000602082015250565b60006128c760338361285a565b91506128d28261286b565b604082019050919050565b600060208201905081810360008301526128f6816128ba565b9050919050565b7f4f776e61626c653a2063616c6c6572206973206e6f7420746865206f776e6572600082015250565b600061293360208361285a565b915061293e826128fd565b602082019050919050565b6000602082019050818103600083015261296281612926565b9050919050565b7f5265656e7472616e637947756172643a207265656e7472616e742063616c6c00600082015250565b600061299f601f8361285a565b91506129aa82612969565b602082019050919050565b600060208201905081810360008301526129ce81612992565b9050919050565b7f43616e6e6f742077697468647261772030000000000000000000000000000000600082015250565b6000612a0b60118361285a565b9150612a16826129d5565b602082019050919050565b60006020820190508181036000830152612a3a816129fe565b9050919050565b7f4163746976652076616c696461746f72732063616e6e6f74206c656176652e2060008201527f20506c656173652075736520746865206c6561766528292066756e6374696f6e60208201527f20616e64207761697420666f7220746865206e6578742065706f636820746f2060408201527f6c65617665000000000000000000000000000000000000000000000000000000606082015250565b6000612ae960658361285a565b9150612af482612a41565b608082019050919050565b60006020820190508181036000830152612b1881612adc565b9050919050565b7f4e6f7420656e6f75676820746f6b656e7320746f207769746864726177000000600082015250565b6000612b55601d8361285a565b9150612b6082612b1f565b602082019050919050565b60006020820190508181036000830152612b8481612b48565b9050919050565b7f56616c696461746f727320666f72206e6578742065706f63682068617665206e60008201527f6f74206265656e206c6f636b65642e2020506c65617365206c6f636b2074686560208201527f6d20696e206265666f726520616476616e63696e6720746f20746865206e657860408201527f742065706f63682e000000000000000000000000000000000000000000000000606082015250565b6000612c3360688361285a565b9150612c3e82612b8b565b608082019050919050565b60006020820190508181036000830152612c6281612c26565b9050919050565b7f4e487b7100000000000000000000000000000000000000000000000000000000600052603260045260246000fd5b7f4e487b7100000000000000000000000000000000000000000000000000000000600052601160045260246000fd5b6000612cd282612407565b9150612cdd83612407565b9250817fffffffffffffffffffffffffffffffffffffffffffffffffffffffffffffffff0483118215151615612d1657612d15612c98565b5b828202905092915050565b6000612d2c82612407565b9150612d3783612407565b9250827fffffffffffffffffffffffffffffffffffffffffffffffffffffffffffffffff03821115612d6c57612d6b612c98565b5b828201905092915050565b6000612d8282612407565b91507fffffffffffffffffffffffffffffffffffffffffffffffffffffffffffffffff821415612db557612db4612c98565b5b600182019050919050565b7f5061757361626c653a2070617573656400000000000000000000000000000000600082015250565b6000612df660108361285a565b9150612e0182612dc0565b602082019050919050565b60006020820190508181036000830152612e2581612de9565b9050919050565b7f43616e6e6f74207374616b652030000000000000000000000000000000000000600082015250565b6000612e62600e8361285a565b9150612e6d82612e2c565b602082019050919050565b60006020820190508181036000830152612e9181612e55565b9050919050565b7f5374616b65206d7573742062652067726561746572207468616e206f7220657160008201527f75616c20746f206d696e696d756d5374616b6500000000000000000000000000602082015250565b6000612ef460338361285a565b9150612eff82612e98565b604082019050919050565b60006020820190508181036000830152612f2381612ee7565b9050919050565b7f56616c696461746f727320666f72206e6578742065706f63682068617665206160008201527f6c7265616479206265656e206c6f636b65640000000000000000000000000000602082015250565b6000612f8660328361285a565b9150612f9182612f2a565b604082019050919050565b60006020820190508181036000830152612fb581612f79565b9050919050565b7f4f776e61626c653a206e6577206f776e657220697320746865207a65726f206160008201527f6464726573730000000000000000000000000000000000000000000000000000602082015250565b600061301860268361285a565b915061302382612fbc565b604082019050919050565b600060208201905081810360008301526130478161300b565b9050919050565b600061305982612407565b915061306483612407565b92508282101561307757613076612c98565b5b828203905092915050565b60006040820190506130976000830185612524565b6130a46020830184612411565b9392505050565b60006060820190506130c06000830186612524565b6130cd6020830185612524565b6130da6040830184612411565b949350505050565b7f4e487b7100000000000000000000000000000000000000000000000000000000600052603160045260246000fd5b61311a816125f1565b811461312557600080fd5b50565b60008151905061313781613111565b92915050565b6000602082840312156131535761315261243b565b5b600061316184828501613128565b91505092915050565b7f5361666545524332303a204552433230206f7065726174696f6e20646964206e60008201527f6f74207375636365656400000000000000000000000000000000000000000000602082015250565b60006131c6602a8361285a565b91506131d18261316a565b604082019050919050565b600060208201905081810360008301526131f5816131b9565b9050919050565b7f416464726573733a20696e73756666696369656e742062616c616e636520666f60008201527f722063616c6c0000000000000000000000000000000000000000000000000000602082015250565b600061325860268361285a565b9150613263826131fc565b604082019050919050565b600060208201905081810360008301526132878161324b565b9050919050565b7f416464726573733a2063616c6c20746f206e6f6e2d636f6e7472616374000000600082015250565b60006132c4601d8361285a565b91506132cf8261328e565b602082019050919050565b600060208201905081810360008301526132f3816132b7565b9050919050565b600081519050919050565b600081905092915050565b60005b8381101561332e578082015181840152602081019050613313565b8381111561333d576000848401525b50505050565b600061334e826132fa565b6133588185613305565b9350613368818560208601613310565b80840191505092915050565b60006133808284613343565b915081905092915050565b600081519050919050565b6000601f19601f8301169050919050565b60006133b28261338b565b6133bc818561285a565b93506133cc818560208601613310565b6133d581613396565b840191505092915050565b600060208201905081810360008301526133fa81846133a7565b90509291505056fea26469706673582212205c9c6fb6ad93f06e33c476b0f41d26121d5dea2d681f598adfcd169a4554b62f64736f6c634300080b0033",
  "immutableReferences": {},
  "source": "//SPDX-License-Identifier: GPL-3.0-or-later\npragma solidity ^0.8.0;\n\nimport {IERC20} from \"@openzeppelin/contracts/token/ERC20/IERC20.sol\";\nimport {ERC20} from \"@openzeppelin/contracts/token/ERC20/ERC20.sol\";\nimport {ReentrancyGuard} from \"@openzeppelin/contracts/security/ReentrancyGuard.sol\";\nimport {SafeMath} from \"@openzeppelin/contracts/utils/math/SafeMath.sol\";\nimport {SafeERC20} from \"@openzeppelin/contracts/token/ERC20/utils/SafeERC20.sol\";\nimport {Pausable} from \"@openzeppelin/contracts/security/Pausable.sol\";\nimport {Ownable} from \"@openzeppelin/contracts/access/Ownable.sol\";\n\nimport \"hardhat/console.sol\";\n\ncontract Staking is ReentrancyGuard, Pausable, Ownable {\n    using SafeERC20 for IERC20;\n    using SafeMath for uint256;\n\n    /* ========== STATE VARIABLES ========== */\n\n    IERC20 public stakingToken;\n\n    // epoch vars\n    struct Epoch {\n        uint epochLength;\n        uint number;\n        uint endBlock;\n    }\n    Epoch public epoch;\n    uint256 public epochNumberForValidatorsInNextEpoch;\n\n    uint256 public tokenRewardPerTokenPerEpoch;\n\n    uint256 public minimumStake;\n    uint256 public totalStaked;\n    \n    struct ValidatorAddressList {\n        address[] values;\n        mapping (address => bool) isIn;\n        mapping (address => uint) indices;\n    }\n    ValidatorAddressList validatorsInCurrentEpoch;\n    ValidatorAddressList validatorsInNextEpoch;\n    bool public validatorsForNextEpochLocked;\n\n    struct Validator {\n        uint32 ip;\n        uint32 port;\n        address nodeAddress;\n        uint256 balance;\n        uint256 reward;\n    }\n    mapping(address => Validator) public validators;\n    mapping(address => address) public nodeAddressToStakerAddress;\n\n    /* ========== CONSTRUCTOR ========== */\n    constructor(address _stakingToken) {\n        stakingToken = IERC20(_stakingToken);\n        epoch = Epoch({\n            epochLength: 1,\n            number: 1,\n            endBlock: block.number + 1\n        });\n        tokenRewardPerTokenPerEpoch = (10^ERC20(address(stakingToken)).decimals()) / 20; // 0.05 tokens per token staked meaning a 5% per epoch inflation rate\n        minimumStake = 2;\n\n        // for testing\n        address[10] memory validatorAddresses = [\n            address(0x2e910606fBa7c361Cee433D92ED2Cf21cBBe4EA5),\n            address(0xC027471D03F30669C69ABC6D167835C4987185Ca),\n            address(0x3dbFCf705d31d1B15C49379f2A27F1bbDFCc2544),\n            address(0x4B8bf506c3A84F70F8d4846810b23ea7ba843E7B),\n            address(0x40903E6df2038387eEA2751DE5d88980C8c3Ee9E),\n            address(0x8a328Fee737Ff229c6a0EF73fFfaF745Fa7A9af8),\n            address(0xa2e4dc9bDeB241A6d7DD6b1890508352041295fE),\n            address(0xAA30b2396e0eE819FD3E02aeCd53083828C1daf1),\n            address(0xeB9852914510d8248D367A0E4689Fb5A4e1cF375),\n            address(0x237844451B37231Ea04c25031b86CC943EB0ed14)  \n        ];\n\n        uint32 ip = 2130706433;\n        uint32 startingPort = 7470;\n        for (uint32 i=0; i<validatorAddresses.length; i++) {\n            validators[validatorAddresses[i]] = Validator({\n                ip: ip,\n                port: startingPort + i,\n                nodeAddress: validatorAddresses[i],\n                balance: 0,\n                reward: 0\n            });\n            validatorsInCurrentEpoch.indices[validatorAddresses[i]] = validatorsInCurrentEpoch.values.length;\n            validatorsInCurrentEpoch.values.push(validatorAddresses[i]);\n            validatorsInCurrentEpoch.isIn[validatorAddresses[i]] = true;\n\n            validatorsInNextEpoch.indices[validatorAddresses[i]] = validatorsInNextEpoch.values.length;\n            validatorsInNextEpoch.values.push(validatorAddresses[i]);\n            validatorsInNextEpoch.isIn[validatorAddresses[i]] = true;\n        }\n\n        validatorsForNextEpochLocked = false;\n    }\n\n    /* ========== VIEWS ========== */\n    function rewardOf(address account) external view returns (uint256) {\n        return validators[account].reward;\n    }\n\n    function balanceOf(address account) external view returns (uint256) {\n        return validators[account].balance;\n    }\n\n    function getValidatorsInCurrentEpoch() external view returns (address[] memory) {\n        return validatorsInCurrentEpoch.values;\n    }\n\n    function getValidatorsInNextEpoch() external view returns (address[] memory) {\n        return validatorsInNextEpoch.values;\n    }\n\n\n    /* ========== MUTATIVE FUNCTIONS ========== */\n\n    /// Lock in the validators for the next epoch\n    function lockValidatorsForNextEpoch() public {\n        require(block.number >= epoch.endBlock, \"Enough blocks have not elapsed since the last epoch\");\n        validatorsForNextEpochLocked = true;\n    }\n\n    /// Advance to the next Epoch.  Rewards validators, adds the joiners, and removes the leavers\n    function advanceEpoch() public {\n        require(block.number >= epoch.endBlock, \"Enough blocks have not elapsed since the last epoch\");\n        require(validatorsForNextEpochLocked == true, \"Validators for next epoch have not been locked.  Please lock them in before advancing to the next epoch.\");\n\n        // reward the validators\n        for(uint i = 0; i < validatorsInCurrentEpoch.values.length; i++){\n            address validatorAddress = validatorsInCurrentEpoch.values[i];\n            validators[validatorAddress].reward += tokenRewardPerTokenPerEpoch * validators[validatorAddress].balance;\n        }\n\n        // set the validators to the new validator set\n        // ideally we could just do this:\n        // validatorsInCurrentEpoch = validatorsInNextEpoch;\n        // but solidity doesn't allow that, so we have to do it manually\n\n        // clear out isIn for all existing validators\n        for(uint i = 0; i < validatorsInCurrentEpoch.values.length; i++){\n            address validatorAddress = validatorsInCurrentEpoch.values[i];\n            validatorsInCurrentEpoch.isIn[validatorAddress] = false;\n        }\n\n        // copy over the values\n        validatorsInCurrentEpoch.values = validatorsInNextEpoch.values;\n\n        // copy over the indices and isIn\n        for(uint i = 0; i < validatorsInCurrentEpoch.values.length; i++){\n            address validatorAddress = validatorsInCurrentEpoch.values[i];\n            validatorsInCurrentEpoch.indices[validatorAddress] = i;\n            validatorsInCurrentEpoch.isIn[validatorAddress] = true;\n        }\n\n        epoch.number++;\n        epoch.endBlock = epoch.endBlock + epoch.epochLength;\n        validatorsForNextEpochLocked = false;\n    }\n\n    /// Stake and request to join the validator set\n    /// @param amount The amount of tokens to stake\n    /// @param ip The IP address of the node\n    /// @param port The port of the node\n    function stakeAndJoin(uint256 amount, uint32 ip, uint32 port, address nodeAddress) \n        public\n        nonReentrant\n        whenNotPaused\n    {\n        require(amount > 0, \"Cannot stake 0\");\n        require(amount >= minimumStake, \"Stake must be greater than or equal to minimumStake\");\n        require(validatorsForNextEpochLocked == false, \"Validators for next epoch have already been locked\");\n\n        totalStaked = totalStaked.add(amount);\n\n        // check if they are already signed up as validator\n        // or to join the next epoch and add them if not\n        if (!validatorsInNextEpoch.isIn[msg.sender]) { \n            validatorsInNextEpoch.indices[msg.sender] = validatorsInNextEpoch.values.length;\n            validatorsInNextEpoch.values.push(msg.sender);\n            validatorsInNextEpoch.isIn[msg.sender] = true;\n        }\n\n        validators[msg.sender].balance = validators[msg.sender].balance.add(amount);\n        stakingToken.safeTransferFrom(msg.sender, address(this), amount);\n        validators[msg.sender].ip = ip;\n        validators[msg.sender].port = port;\n        validators[msg.sender].nodeAddress = nodeAddress;\n        nodeAddressToStakerAddress[nodeAddress] = msg.sender;\n        emit Staked(msg.sender, amount);\n    }\n\n    /// Withdraw staked tokens.  This can only be done by users who are not active in the validator set.\n    /// @param amount The amount of tokens to withdraw\n    function withdraw(uint256 amount) public nonReentrant {\n        require(amount > 0, \"Cannot withdraw 0\");\n\n        require(validatorsInCurrentEpoch.isIn[msg.sender] == false, \"Active validators cannot leave.  Please use the leave() function and wait for the next epoch to leave\");\n\n        require(validators[msg.sender].balance >= amount, \"Not enough tokens to withdraw\");\n\n        totalStaked = totalStaked.sub(amount);\n        validators[msg.sender].balance = validators[msg.sender].balance.sub(amount);\n        stakingToken.safeTransfer(msg.sender, amount);\n        emit Withdrawn(msg.sender, amount);\n    }\n\n    /// Request to leave in the next Epoch\n    function requestToLeave() public {\n        require(validatorsForNextEpochLocked == false, \"Validators for next epoch have already been locked\");\n        if (validatorsInNextEpoch.isIn[msg.sender]) { \n            // remove them\n            removeFromValidatorAddressList(validatorsInNextEpoch, msg.sender);\n        }\n    }\n\n    /// Transfer any outstanding reward tokens\n    function getReward() public nonReentrant {\n        uint256 reward = validators[msg.sender].reward;\n        if (reward > 0) {\n            validators[msg.sender].reward = 0;\n            stakingToken.safeTransfer(msg.sender, reward);\n            emit RewardPaid(msg.sender, reward);\n        }\n    }\n\n    /// Exit staking and get any outstanding rewards\n    function exit() public {\n        withdraw(validators[msg.sender].balance);\n        getReward();\n    }\n\n    /// Set the IP and port of your node\n    /// @param ip The ip address of your node\n    /// @param port The port of your node\n    function setIpPortAndNodeAddress(uint32 ip, uint32 port) public {\n        validators[msg.sender].ip = ip;\n        validators[msg.sender].port = port;\n    }\n\n\n    function setEpochLength(uint256 newEpochLength) public onlyOwner {\n        epoch.epochLength = newEpochLength;\n    }\n\n    function setStakingToken(address newStakingTokenAddress) public onlyOwner {\n        stakingToken = IERC20(newStakingTokenAddress);\n    }\n\n    function setTokenRewardPerTokenPerEpoch(uint256 newTokenRewardPerTokenPerEpoch) public onlyOwner {\n        tokenRewardPerTokenPerEpoch = newTokenRewardPerTokenPerEpoch;\n    }\n\n    function setMinimumStake(uint256 newMinimumStake) public onlyOwner {\n        minimumStake = newMinimumStake;\n    }\n\n\n    /* ========== Internal Utils =========== */\n\n     function removeFromValidatorAddressList(ValidatorAddressList storage val, address toRemove) internal {\n        // get the index of the thing we are removing and make sure the array contains it\n        uint256 index = val.indices[toRemove];\n        require(index < val.values.length);\n\n        // move the last element to the index of the item we are removing\n        val.values[index] = val.values[val.values.length-1];\n        // update the index of the element we moved\n        val.indices[val.values[index]] = index;\n        // the last element is now at val.values[index] so we can pop it off the end\n        val.values.pop();\n    }\n\n    /* ========== EVENTS ========== */\n\n    event Staked(address indexed user, uint256 amount);\n    event Withdrawn(address indexed user, uint256 amount);\n    event RewardPaid(address indexed user, uint256 reward);\n    event RewardsDurationUpdated(uint256 newDuration);\n    event Recovered(address token, uint256 amount);\n}\n",
  "sourcePath": "/Users/brendonpaul/Documents/GitHub/LitNodeContracts/contracts/Staking.sol",
  "compiler": {
    "name": "solc",
    "version": "0.8.11+commit.d7f03943.Emscripten.clang"
  },
  "schemaVersion": "3.4.4",
  "updatedAt": "2022-04-22T01:37:16.103Z",
  "devdoc": {
    "kind": "dev",
    "methods": {
      "owner()": {
        "details": "Returns the address of the current owner."
      },
      "paused()": {
        "details": "Returns true if the contract is paused, and false otherwise."
      },
      "renounceOwnership()": {
        "details": "Leaves the contract without owner. It will not be possible to call `onlyOwner` functions anymore. Can only be called by the current owner. NOTE: Renouncing ownership will leave the contract without an owner, thereby removing any functionality that is only available to the owner."
      },
      "setIpPortAndNodeAddress(uint32,uint32)": {
        "params": {
          "ip": "The ip address of your node",
          "port": "The port of your node"
        }
      },
      "stakeAndJoin(uint256,uint32,uint32,address)": {
        "params": {
          "amount": "The amount of tokens to stake",
          "ip": "The IP address of the node",
          "port": "The port of the node"
        }
      },
      "transferOwnership(address)": {
        "details": "Transfers ownership of the contract to a new account (`newOwner`). Can only be called by the current owner."
      },
      "withdraw(uint256)": {
        "params": {
          "amount": "The amount of tokens to withdraw"
        }
      }
    },
    "version": 1
  },
  "userdoc": {
    "kind": "user",
    "methods": {
      "advanceEpoch()": {
        "notice": "Advance to the next Epoch.  Rewards validators, adds the joiners, and removes the leavers"
      },
      "exit()": {
        "notice": "Exit staking and get any outstanding rewards"
      },
      "getReward()": {
        "notice": "Transfer any outstanding reward tokens"
      },
      "lockValidatorsForNextEpoch()": {
        "notice": "Lock in the validators for the next epoch"
      },
      "requestToLeave()": {
        "notice": "Request to leave in the next Epoch"
      },
      "setIpPortAndNodeAddress(uint32,uint32)": {
        "notice": "Set the IP and port of your node"
      },
      "stakeAndJoin(uint256,uint32,uint32,address)": {
        "notice": "Stake and request to join the validator set"
      },
      "withdraw(uint256)": {
        "notice": "Withdraw staked tokens.  This can only be done by users who are not active in the validator set."
      }
    },
    "version": 1
  }
}